:100000000C942A360C946A360C946A360C946A3630
:100010000C946A360C946A360C946A360C946A36E0
:100020000C946A360C946A360C946A360C946A36D0
:100030000C946A360C946A360C946A360C946A36C0
:100040000C946A360C9416DB0C946A360C946A365F
:100050000C946A360C942AC90C946A360C94C1B676
:100060000C946A360C94F66A0C94EC6A0C946A361A
:100070000C946A360C946A360C946A360C946A3680
:100080000C94C2510C946A360C946A360C946A36FD
:100090000C946A360C946A360C946A360C946A3660
:1000A0000C946A360C946A360C9494510C946A360B
:1000B0000C946A360C946A360C946A360C946A3640
:1000C0000C946A360C946A360C946A360C948B52F3
:1000D0000C9455520C946A360C946A360C946A3619
:1000E0000C946A36084AD73B3BCE016E84BCBFFDF8
:1000F000C12F3D6C74319ABD56833DDA3D00C77FF8
:1001000011BED9E4BB4C3E916BAAAABE0000008090
:100110003F05A84CCDB2D44EB93836A9020C50B91F
:10012000918688083CA6AAAA2ABE000000803F0744
:10013000634236B79BD8A71A39685618AEBAAB5582
:100140008C1D3CB7CC5763BD6DEDFD753EF6177247
:1001500031BF000000803F08000000BE9224491219
:100160003EABAAAA2ABECDCCCC4C3E00000080BE3D
:10017000ABAAAAAA3E00000000BF000000803F001A
:1001800000000000084178D3BB4387D1133D190E0E
:100190003CC3BD4282AD2B3E68EC8276BED98FE176
:1001A000A93E4C80EFFFBE01C4FF7F3F000000006E
:1001B00000000C94CDAD0D94DD2B0D946E190D94B3
:1001C000732D0D94266B0D94632B0D94A52D0C941B
:1001D000B54F0D9432660C94D94F0C94BA6B0C94B5
:1001E00065940D94D92B0C94A76B0C946E920C947F
:1001F00007530D94B8190D945E2D0C948C6B0C94D0
:10020000A6B50C94ABAD0C948D6D0C94D1AD0C9443
:10021000A0AD0C94646E0C949C6B0C94C3AD0C94C8
:10022000A06B0C94D74F0D949B670C94914F0C943A
:100230006B4F0D94BD670C94A8AD0C94E1AE0D947A
:10024000A0660C94726E0D94E4180C944F530D94A8
:100250002E190C944D4F0C9424930D94662B0C94F2
:100260009CAD0C94756D0C94B14F0C94636B0D9414
:10027000692B0C94A4AD0C9429530C94B56E0D9479
:10028000B43B0C9435530D94993B0D949F3B0C94C7
:10029000946B0C94C9AD0C94066E0C943C6E0C944B
:1002A000426D0D94752B0D94602B0C948D4F0C9416
:1002B000476D0C94FBB40C9421530C940A370D94A5
:1002C000342D0C94B7B40D94B7670C948F4F0D94E4
:1002D000CC6A0C94B5AD0C94726D0D94A83B0C9443
:1002E000D7AD0C94B1AD0D94BB670D9497770C947A
:1002F0009A6D0D94D3640C94836D0C9425530D94D6
:1003000094640C946D4F0C94A86E0C94A16D0C9495
:10031000886B0D94F06A0D9489670D94A53B0C943D
:10032000C26E0D94903B0C94DBAD0C94946D0D94C7
:10033000A2180C943C530D946C2B0C94806E0D946D
:100340006F2B0D94C8670D94DD660C9475920D9417
:1003500080670C9494B50D9475670C9429930C9454
:10036000346B0D94C9660C948A6D0C94726B0C946A
:100370005EAE0C94C9520C941D530D9479770C9475
:10038000D56D0C942D530C940FB40D94FF6A0D94FD
:10039000271A0D9400670C94BBAD0D948F2B0C9411
:1003A000D6AD0D94A4670D949C3B0C94E0AE0C94D8
:1003B000906D0C94486E0C94796D0D945D2B0D949A
:1003C0002E2B0D94A23B0C94976D0D9484650D9487
:1003D000DD190D9492670D9414670C94414F0D94A0
:1003E000021A0C94906B0C949B6E0C94F6B50C94C2
:1003F000816B0C94D3B50D947B2B0C9431530D94DD
:10040000722B0C94B34F0C948E6E0C947F6D0D94E4
:10041000AD670C949E6D0C94226E0D9408660C943E
:1004200016530C9447530D94AE3B0D94C06A0D9433
:1004300033670D9409190D94B13B0C946C940C9492
:10044000F8520D94782B0C94866D0C9460940C9457
:100450006EB40C947C6D0C94146E0D94AB3B0C94A8
:10046000986B0C9416B50D94963B0C94306E0D94CD
:100470000B6B0C94BF480C94FC6D0C94BFAD0D94A9
:1004800093190C9496AD0C94B26B0D94176B0C945D
:10049000566E0C94F2B30C94D54F4E414E494E49D2
:1004A0005459494E46CDCCCC3D0AD7233C17B7D141
:1004B0003877CC2B329595E6241FB14F0A000020E7
:1004C000410000C84200401C4620BCBE4CCA1B0E66
:1004D0005AAEC59D7400407A10F35A00A0724E18AF
:1004E000090010A5D4E80000E87648170000E40BE6
:1004F00054020000CA9A3B000000E1F505000080AC
:10050000969800000040420F000000A08601000005
:1005100000102700000000E8030000000064000055
:100520000000000A00000000000100000000002C94
:1005300076D888DC674F0823DFC1DFAE59E1B1B759
:1005400096E5E3E453C63AE651997696E8E6C28426
:1005500026EB898C9B62ED407C6FFCEFBC9C9F403E
:10056000F2BAA56FA5F490055A2AF75C936B6CF963
:10057000676DC11BFCE0E40D47FEF520E6B500D039
:10058000ED902E0300943577050080841E0800004E
:10059000204E0A000000C80C333333330F986E121C
:1005A000831141EF8D2114893BE65516CFFEE6DB22
:1005B00018D1844B381BF77C1D901DA4BBE424206C
:1005C0003284725E228100C9F124ECA1E53D2770DE
:1005D000012C0190012701B0012201C0011D01F091
:1005E0000118011002130130020E0160020901908E
:1005F000020401C002FF000003FA004003F500807E
:1006000003F000D003EB002004E6007004E100E0FA
:1006100004DC004005D700C005D2004006CD00D064
:1006200006C8008007C3003008BE00F008B900C04B
:1006300009B400B00AAF00B00BAA00D00CA50000AE
:100640000EA000500F9B00C01096005012910000A9
:10065000148C00C0158700B0178200B0197D00D03F
:100660001B7800001E730040206E0090226900F08D
:1006700024640040275F0090295A00E02B550010A9
:100680002E500020304B0010324600E033410090E5
:10069000353C001037370070383200A0392D00B0DB
:1006A0003A2800A03B2300603C1E00103D1900903A
:1006B0003D1400103E0F00703E0A00C03E050000D1
:1006C0003F0000403FFBFF803FF6FFC03FF1FF10BF
:1006D00000C90210012C014001220170011801B073
:1006E000010E01F00104015002FA00B002F00030E6
:1006F00003E600D003DC009004D2007005C800A01F
:1007000006BE000008B400B009AA00D00BA000602B
:100710000E960060118C000015820020197800C030
:100720001D6E00A0226400B0275A00902C500000DB
:10073000314600E0343C0010383200903A28006026
:100740003C1E00A03D1400803E0A00203F00002413
:10075000F404D9201BC40C5C0E9804C4095F026524
:10076000077101F405F900FB04B30048048700C1D8
:100770000369005803550003034500BE023A008494
:1007800002310053022A002902250004022000E45D
:10079000011C00C8011900AF011700980114008462
:1007A000011300710110006101100051010E00439E
:1007B000010D0036010B002B010B0020010B001571
:1007C0000109000C01090003010800FB000800F307
:1007D000000800EB000700E4000600DE000600D879
:1007E000000600D2000600CC000500C7000500C2CC
:1007F000000500BD000400B9000400B5000400B10C
:10080000000400AD000400A9000400A5000300A23C
:100810000003009F0004009B000300980003009564
:1008200000020093000300900003008D0002008B83
:10083000000300880002008600020084000300819B
:100840000002007F0002007D0002007B00020079B0
:1008500000020077000100760002007400020072BE
:10086000000100710002006F0002006D0001006CC9
:100870000002006A000100690002006700010066D2
:1008800000010065000100640002006200010061D7
:10089000000100600001005F0002005D0001005CDB
:1008A0000001005B0001005A0001005900010058DE
:1008B00000010057000100560001005500010054DE
:1008C00000010053000000530001005200010051DC
:1008D000000100500001004F0001004E0000004EDA
:1008E0000001004D0001004C0001004B0000004BD6
:1008F0000001004A000100490001004800000048D2
:1009000000010047000100460000004600010045CC
:1009100000000045000100440001004300000043C6
:1009200000010042000000420001004100000041BF
:10093000000100400001003F0000003F0001003EB8
:100940000000003E0001003D0000003D0001003CB1
:100950000000003C0000003C0001003B0000003BA8
:100960000001003A0000003A00010039000000399F
:100970000001003800000038000000380001003796
:10098000000000370001003600000036000000368D
:100990000001003500000035000000350001003482
:1009A0000000003400000034000100330000003378
:1009B000000000330001003200000032000000326D
:1009C0000001003100000031000000310001003062
:1009D00000000030000000300001002F0000002F58
:1009E0000000002F0000002F0001002E0000002E4C
:1009F0000000002E0001002D0000002D0000002D41
:100A00000000002D0001002C0000002C0000002C34
:100A10000000002C0001002B0000002B0000002B28
:100A20000000002B0001002A0000002A0000002A1C
:100A30000000002A00010029000000290000002910
:100A40000000002900000029000100280000002803
:100A500000000028000000280000002800010027F6
:100A600000000027000000270000002700000027EA
:100A700000010026000000260000002600000026DD
:100A800000000026000100250000002500000025D0
:100A900000000025000000250000002500010024C2
:100AA00000000024000000240000002400000024B6
:100AB00000010023000000230000002300000023A9
:100AC000000000230000002300000023000100229A
:100AD000000000220000002200000022000000228E
:100AE0000000002200010021000000210000002180
:100AF0000000002100000021000000210000002172
:100B00000001002000000020000000200000002064
:100B10000000002000000020000000200000002055
:100B20000001001F0000001F0000001F0000001F48
:100B30000000001F0000001F0000001F0001001E39
:100B40000000001E0000001E0000001E0000002427
:100B5000F4D43050C38E20C2A24017828B70111281
:100B60007A910D816CD90AA861E108C758660761BE
:100B70005143061E4B5D05C145A7041A41110409E6
:100B80003D9803713931034036DB0265339102D45D
:100B9000305402802E1D02632CEE01752AC501B06F
:100BA00028A001102781018F2564012B244B01E02F
:100BB000223401AC211F018D200D01801FFC008417
:100BC0001EED00971DDF00B81CD200E61BC60020FA
:100BD0001BBC00641AB200B219A8000A19A0006A6E
:100BE000189900D117910040178B00B51684003179
:100BF000167E00B31579003A157300C7146F0058BC
:100C0000146A00EE1366008813630025135E00C7A4
:100C1000125B006C12570015125400C11151007084
:100C2000114F0021114B00D61049008D104700468E
:100C300010440002104200C00F4000800F3E0042EE
:100C40000F3C00060F3B00CB0E3800930E37005CC4
:100C50000E3500270E3400F30D3200C10D31009027
:100C60000D3000600D2E00320D2D00050D2C00D929
:100C70000C2B00AE0C2900850C29005C0C270035DC
:100C80000C27000E0C2600E80B2400C40B2400A047
:100C90000B23007D0B23005A0B2100390B21001878
:100CA0000B2000F80A1F00D90A1E00BB0A1E009D77
:100CB0000A1D00800A1D00630A1C00470A1B002C45
:100CC0000A1B00110A1A00F7091A00DD091900C4ED
:100CD000091900AB091900920917007B0918006374
:100CE0000917004C09160036091600200916000ADB
:100CF000091500F5081500E0081400CC081400B828
:100D0000081400A4081400900813007D0812006B5A
:100D10000813005808120046081200340811002376
:100D20000811001208110001081100F0071000E07E
:100D3000071000D0071000C0071000B0070F00A177
:100D400007100091070E0083070F0074070F00655E
:100D5000070E0057070E0049070E003B070D002E37
:100D6000070E0020070D0013070D0006070D00F900
:100D7000060C00ED060D00E0060C00D4060C00C8C1
:100D8000060C00BC060C00B0060C00A4060B009973
:100D9000060C008D060B0082060B0077060B006C1C
:100DA000060B0061060A0057060B004C060A0042BB
:100DB000060A0038060A002E060A0024060A001A4F
:100DC000060A001006090007060A00FD050900F4DE
:100DD000050900EB050900E2050900D9050900D065
:100DE000050900C7050900BE050900B5050800ADE5
:100DF000050800A50509009C050800940508008C5D
:100E0000050800840508007C050800740508006CCE
:100E1000050700650508005D050700560508004E3A
:100E200005070047050700400508003805070031A1
:100E30000507002A050700230507001C0506001604
:100E40000507000F0507000805060002050700FB5F
:100E5000040600F5040700EE040600E8040600E2BC
:100E6000040700DB040600D5040600CF040600C911
:100E7000040600C3040600BD040600B7040600B162
:100E8000040500AC040600A6040600A00405009BAF
:100E900004060095040500900406008A04050085F8
:100EA000040500800406007A04050075040500703E
:100EB0000405006B04050066040500610405005C80
:100EC00004050057040500520405004D04050048C0
:100ED000040500430405003E0404003A04050035FF
:100EE000040500300404002C04050027040400233A
:100EF0000405001E0404001A040400160405001171
:100F00000404000D040400090405000404040000A6
:100F1000040400FC030400F8030400F4030400F0DC
:100F2000030400EC030400E8030400E4030400E00D
:100F3000030400DC030400D8030400D4030400D03D
:100F4000030400CC030400C8030300C503030072BC
:100F50006F746174696F6E206D61747269783A0A9A
:100F60000024F404D9201BC40C5C0E9804C4095F4F
:100F70000265077101F405F900FB04B3004804871A
:100F800000C10369005803550003034500BE023A3F
:100F9000008402310053022A0029022500040220A5
:100FA00000E4011C00C8011900AF011700980114EA
:100FB0000084011300710110006101100051010E45
:100FC0000043010D0036010B002B010B0020010B2B
:100FD00000150109000C01090003010800FB0008CD
:100FE00000F3000800EB000700E4000600DE000646
:100FF00000D8000600D2000600CC000500C700059E
:1010000000C2000500BD000400B9000400B50004E2
:1010100000B1000400AD000400A9000400A5000315
:1010200000A20003009F0004009B0003009800033F
:10103000009500020093000300900003008D000261
:10104000008B000300880002008600020084000379
:1010500000810002007F0002007D0002007B000290
:10106000007900020077000100760002007400029F
:101070000072000100710002006F0002006D0001AB
:10108000006C0002006A00010069000200670001B4
:1010900000660001006500010064000200620001BA
:1010A0000061000100600001005F0002005D0001BE
:1010B000005C0001005B0001005A000100590001C2
:1010C00000580001005700010056000100550001C2
:1010D00000540001005300000053000100520001C1
:1010E0000051000100500001004F0001004E0000BF
:1010F000004E0001004D0001004C0001004B0000BB
:10110000004B0001004A00010049000100480000B6
:1011100000480001004700010046000000460001B1
:1011200000450000004500010044000100430000AC
:1011300000430001004200000042000100410000A5
:101140000041000100400001003F0000003F00019D
:10115000003E0000003E0001003D0000003D000197
:10116000003C0000003C0000003C0001003B00008F
:10117000003B0001003A0000003A00010039000085
:10118000003900010038000000380000003800017C
:101190000037000000370001003600000036000074
:1011A0000036000100350000003500000035000168
:1011B000003400000034000000340001003300005F
:1011C0000033000000330001003200000032000054
:1011D0000032000100310000003100000031000148
:1011E000003000000030000000300001002F00003F
:1011F000002F0000002F0000002F0001002E000033
:10120000002E0000002E0001002D0000002D000027
:10121000002D0000002D0001002C0000002C00001B
:10122000002C0000002C0001002B0000002B00000F
:10123000002B0000002B0001002A0000002A000003
:10124000002A0000002A00010029000000290000F7
:1012500000290000002900000029000100280000EA
:1012600000280000002800000028000000280001DD
:1012700000270000002700000027000000270000D2
:1012800000270001002600000026000000260000C4
:1012900000260000002600010025000000250000B7
:1012A00000250000002500000025000000250001A9
:1012B000002400000024000000240000002400009E
:1012C0000024000100230000002300000023000090
:1012D0000023000000230000002300000023000181
:1012E0000022000000220000002200000022000076
:1012F0000022000000220001002100000021000067
:101300000021000000210000002100000021000059
:10131000002100010020000000200000002000004B
:10132000002000000020000000200000002000003D
:1013300000200001001F0000001F0000001F00002F
:10134000001F0000001F0000001F0000001F000120
:10135000001E0000001E0000001E0000001E000015
:101360000024F4D43050C38E20C2A24017828B7068
:1013700011127A910D816CD90AA861E108C75866EB
:1013800007615143061E4B5D05C145A7041A411173
:1013900004093D9803713931034036DB026533910E
:1013A00002D4305402802E1D02632CEE01752AC532
:1013B00001B028A001102781018F2564012B244B47
:1013C00001E0223401AC211F018D200D01801FFCA2
:1013D00000841EED00971DDF00B81CD200E61BC67E
:1013E00000201BBC00641AB200B219A8000A19A0A0
:1013F000006A189900D117910040178B00B5168428
:101400000031167E00B31579003A157300C7146FCA
:101410000058146A00EE1366008813630025135EFB
:1014200000C7125B006C12570015125400C1115115
:101430000070114F0021114B00D61049008D10474C
:10144000004610440002104200C00F4000800F3ED2
:1014500000420F3C00060F3B00CB0E3800930E37C6
:10146000005C0E3500270E3400F30D3200C10D3143
:1014700000900D3000600D2E00320D2D00050D2C5A
:1014800000D90C2B00AE0C2900850C29005C0C2720
:1014900000350C27000E0C2600E80B2400C40B249A
:1014A00000A00B23007D0B23005A0B2100390B21D8
:1014B00000180B2000F80A1F00D90A1E00BB0A1EE4
:1014C000009D0A1D00800A1D00630A1C00470A1BBC
:1014D000002C0A1B00110A1A00F7091A00DD09196D
:1014E00000C4091900AB091900920917007B0918FB
:1014F00000630917004C091600360916002009166A
:10150000000A091500F5081500E0081400CC0814BD
:1015100000B8081400A4081400900813007D0812F5
:10152000006B081300580812004608120034081116
:1015300000230811001208110001081100F0071023
:1015400000E0071000D0071000C0071000B0070F20
:1015500000A107100091070E0083070F0074070F0A
:101560000065070E0057070E0049070E003B070DE8
:10157000002E070E0020070D0013070D0006070DB3
:1015800000F9060C00ED060D00E0060C00D4060C78
:1015900000C8060C00BC060C00B0060C00A4060B2C
:1015A0000099060C008D060B0082060B0077060BD7
:1015B000006C060B0061060A0057060B004C060A79
:1015C0000042060A0038060A002E060A0024060A0F
:1015D000001A060A001006090007060A00FD0509A0
:1015E00000F4050900EB050900E2050900D9050929
:1015F00000D0050900C7050900BE050900B50508AA
:1016000000AD050800A50509009C05080094050823
:10161000008C050800840508007C05080074050896
:10162000006C050700650508005D05070056050804
:10163000004E05070047050700400508003805076C
:1016400000310507002A050700230507001C0506D1
:1016500000160507000F050700080506000205072C
:1016600000FB040600F5040700EE040600E804068B
:1016700000E2040700DB040600D5040600CF0406E0
:1016800000C9040600C3040600BD040600B7040632
:1016900000B1040500AC040600A6040600A0040581
:1016A000009B04060095040500900406008A0405CA
:1016B0000085040500800406007A04050075040511
:1016C00000700405006B0405006604050061040554
:1016D000005C04050057040500520405004D040594
:1016E0000048040500430405003E0404003A0405D4
:1016F0000035040500300404002C04050027040410
:1017000000230405001E0404001A04040016040546
:1017100000110404000D040400090405000404047D
:101720000000040400FC030400F8030400F40304B4
:1017300000F0030400EC030400E8030400E40304E5
:1017400000E0030400DC030400D8030400D4030415
:1017500000D0030400CC030400C8030300C5030346
:101760000024F404D9201BC40C5C0E9804C4095F47
:101770000265077101F405F900FB04B30048048712
:1017800000C10369005803550003034500BE023A37
:10179000008402310053022A00290225000402209D
:1017A00000E4011C00C8011900AF011700980114E2
:1017B0000084011300710110006101100051010E3D
:1017C0000043010D0036010B002B010B0020010B23
:1017D00000150109000C01090003010800FB0008C5
:1017E00000F3000800EB000700E4000600DE00063E
:1017F00000D8000600D2000600CC000500C7000596
:1018000000C2000500BD000400B9000400B50004DA
:1018100000B1000400AD000400A9000400A500030D
:1018200000A20003009F0004009B00030098000337
:10183000009500020093000300900003008D000259
:10184000008B000300880002008600020084000371
:1018500000810002007F0002007D0002007B000288
:101860000079000200770001007600020074000297
:101870000072000100710002006F0002006D0001A3
:10188000006C0002006A00010069000200670001AC
:1018900000660001006500010064000200620001B2
:1018A0000061000100600001005F0002005D0001B6
:1018B000005C0001005B0001005A000100590001BA
:1018C00000580001005700010056000100550001BA
:1018D00000540001005300000053000100520001B9
:1018E0000051000100500001004F0001004E0000B7
:1018F000004E0001004D0001004C0001004B0000B3
:10190000004B0001004A00010049000100480000AE
:1019100000480001004700010046000000460001A9
:1019200000450000004500010044000100430000A4
:10193000004300010042000000420001004100009D
:101940000041000100400001003F0000003F000195
:10195000003E0000003E0001003D0000003D00018F
:10196000003C0000003C0000003C0001003B000087
:10197000003B0001003A0000003A0001003900007D
:101980000039000100380000003800000038000174
:10199000003700000037000100360000003600006C
:1019A0000036000100350000003500000035000160
:1019B0000034000000340000003400010033000057
:1019C000003300000033000100320000003200004C
:1019D0000032000100310000003100000031000140
:1019E000003000000030000000300001002F000037
:1019F000002F0000002F0000002F0001002E00002B
:101A0000002E0000002E0001002D0000002D00001F
:101A1000002D0000002D0001002C0000002C000013
:101A2000002C0000002C0001002B0000002B000007
:101A3000002B0000002B0001002A0000002A0000FB
:101A4000002A0000002A00010029000000290000EF
:101A500000290000002900000029000100280000E2
:101A600000280000002800000028000000280001D5
:101A700000270000002700000027000000270000CA
:101A800000270001002600000026000000260000BC
:101A900000260000002600010025000000250000AF
:101AA00000250000002500000025000000250001A1
:101AB0000024000000240000002400000024000096
:101AC0000024000100230000002300000023000088
:101AD0000023000000230000002300000023000179
:101AE000002200000022000000220000002200006E
:101AF000002200000022000100210000002100005F
:101B00000021000000210000002100000021000051
:101B10000021000100200000002000000020000043
:101B20000020000000200000002000000020000035
:101B300000200001001F0000001F0000001F000027
:101B4000001F0000001F0000001F0000001F000118
:101B5000001E0000001E0000001E0000001E00000D
:101B60000024F4D43050C38E20C2A24017828B7060
:101B700011127A910D816CD90AA861E108C75866E3
:101B800007615143061E4B5D05C145A7041A41116B
:101B900004093D9803713931034036DB0265339106
:101BA00002D4305402802E1D02632CEE01752AC52A
:101BB00001B028A001102781018F2564012B244B3F
:101BC00001E0223401AC211F018D200D01801FFC9A
:101BD00000841EED00971DDF00B81CD200E61BC676
:101BE00000201BBC00641AB200B219A8000A19A098
:101BF000006A189900D117910040178B00B5168420
:101C00000031167E00B31579003A157300C7146FC2
:101C10000058146A00EE1366008813630025135EF3
:101C200000C7125B006C12570015125400C111510D
:101C30000070114F0021114B00D61049008D104744
:101C4000004610440002104200C00F4000800F3ECA
:101C500000420F3C00060F3B00CB0E3800930E37BE
:101C6000005C0E3500270E3400F30D3200C10D313B
:101C700000900D3000600D2E00320D2D00050D2C52
:101C800000D90C2B00AE0C2900850C29005C0C2718
:101C900000350C27000E0C2600E80B2400C40B2492
:101CA00000A00B23007D0B23005A0B2100390B21D0
:101CB00000180B2000F80A1F00D90A1E00BB0A1EDC
:101CC000009D0A1D00800A1D00630A1C00470A1BB4
:101CD000002C0A1B00110A1A00F7091A00DD091965
:101CE00000C4091900AB091900920917007B0918F3
:101CF00000630917004C0916003609160020091662
:101D0000000A091500F5081500E0081400CC0814B5
:101D100000B8081400A4081400900813007D0812ED
:101D2000006B08130058081200460812003408110E
:101D300000230811001208110001081100F007101B
:101D400000E0071000D0071000C0071000B0070F18
:101D500000A107100091070E0083070F0074070F02
:101D60000065070E0057070E0049070E003B070DE0
:101D7000002E070E0020070D0013070D0006070DAB
:101D800000F9060C00ED060D00E0060C00D4060C70
:101D900000C8060C00BC060C00B0060C00A4060B24
:101DA0000099060C008D060B0082060B0077060BCF
:101DB000006C060B0061060A0057060B004C060A71
:101DC0000042060A0038060A002E060A0024060A07
:101DD000001A060A001006090007060A00FD050998
:101DE00000F4050900EB050900E2050900D9050921
:101DF00000D0050900C7050900BE050900B50508A2
:101E000000AD050800A50509009C0508009405081B
:101E1000008C050800840508007C0508007405088E
:101E2000006C050700650508005D050700560508FC
:101E3000004E050700470507004005080038050764
:101E400000310507002A050700230507001C0506C9
:101E500000160507000F0507000805060002050724
:101E600000FB040600F5040700EE040600E8040683
:101E700000E2040700DB040600D5040600CF0406D8
:101E800000C9040600C3040600BD040600B704062A
:101E900000B1040500AC040600A6040600A0040579
:101EA000009B04060095040500900406008A0405C2
:101EB0000085040500800406007A04050075040509
:101EC00000700405006B040500660405006104054C
:101ED000005C04050057040500520405004D04058C
:101EE0000048040500430405003E0404003A0405CC
:101EF0000035040500300404002C04050027040408
:101F000000230405001E0404001A0404001604053E
:101F100000110404000D0404000904050004040475
:101F20000000040400FC030400F8030400F40304AC
:101F300000F0030400EC030400E8030400E40304DD
:101F400000E0030400DC030400D8030400D403040D
:101F500000D0030400CC030400C8030300C503033E
:101F60000070012C0190012701B0012201C0011D68
:101F700001F00118011002130130020E0160020984
:101F80000190020401C002FF000003FA004003F5C3
:101F9000008003F000D003EB002004E6007004E1B1
:101FA00000E004DC004005D700C005D2004006CDAB
:101FB00000D006C8008007C3003008BE00F008B992
:101FC00000C009B400B00AAF00B00BAA00D00CA545
:101FD00000000EA000500F9B00C010960050129100
:101FE0000000148C00C0158700B0178200B0197D66
:101FF00000D01B7800001E730040206E0090226904
:1020000000F024640040275F0090295A00E02B551F
:1020100000102E500020304B0010324600E03341BB
:102020000090353C001037370070383200A0392D51
:1020300000B03A2800A03B2300603C1E00103D1970
:1020400000903D1400103E0F00703E0A00C03E0597
:1020500000003F0000403FFBFF803FF6FFC03FF124
:10206000FF1000C90210012C01400122017001186B
:1020700001B0010E01F00104015002FA00B002F0BB
:10208000003003E600D003DC009004D2007005C8E5
:1020900000A006BE000008B400B009AA00D00BA042
:1020A00000600E960060118C0000158200201978E7
:1020B00000C01D6E00A0226400B0275A00902C5072
:1020C0000000314600E0343C0010383200903A28DD
:1020D00000603C1E00A03D1400803E0A00203F002E
:1020E000005A5F6D6F76655F636F6D700A00616C9B
:1020F000736F20656E61626C6564290A00206E6FE3
:10210000742064697361626C65642E205368617227
:1021100065642077697468002E0A0024F404D920CD
:102120001BC40C5C0E9804C4095F0265077101F4BE
:1021300005F900FB04B30048048700C10369005897
:1021400003550003034500BE023A008402310053E8
:10215000022A002902250004022000E4011C00C814
:10216000011900AF011700980114008401130071D8
:102170000110006101100051010E0043010D0036F5
:10218000010B002B010B0020010B00150109000CB5
:1021900001090003010800FB000800F3000800EB40
:1021A000000700E4000600DE000600D8000600D2AA
:1021B000000600CC000500C7000500C2000500BDF8
:1021C000000400B9000400B5000400B1000400AD33
:1021D000000400A9000400A5000300A20003009F62
:1021E0000004009B00030098000300950002009388
:1021F000000300900003008D0002008B00030088A4
:102200000002008600020084000300810002007FBB
:102210000002007D0002007B0002007900020077CE
:1022200000010076000200740002007200010071DB
:102230000002006F0002006D0001006C0002006AE5
:1022400000010069000200670001006600010065EE
:1022500000010064000200620001006100010060F2
:102260000001005F0002005D0001005C0001005BF6
:102270000001005A000100590001005800010057F8
:1022800000010056000100550001005400010053F8
:1022900000000053000100520001005100010050F5
:1022A0000001004F0001004E0000004E0001004DF3
:1022B0000001004C0001004B0000004B0001004AEF
:1022C00000010049000100480000004800010047EB
:1022D00000010046000000460001004500000045E6
:1022E00000010044000100430000004300010042DF
:1022F00000000042000100410000004100010040D8
:102300000001003F0000003F0001003E0000003ED1
:102310000001003D0000003D0001003C0000003CC9
:102320000000003C0001003B0000003B0001003ABF
:102330000000003A000100390000003900010038B7
:1023400000000038000000380001003700000037AE
:1023500000010036000000360000003600010035A4
:10236000000000350000003500010034000000349A
:10237000000000340001003300000033000000338F
:102380000001003200000032000000320001003184
:10239000000000310000003100010030000000307A
:1023A000000000300001002F0000002F0000002F6F
:1023B0000000002F0001002E0000002E0000002E63
:1023C0000001002D0000002D0000002D0000002D58
:1023D0000001002C0000002C0000002C0000002C4C
:1023E0000001002B0000002B0000002B0000002B40
:1023F0000001002A0000002A0000002A0000002A34
:102400000001002900000029000000290000002927
:10241000000000290001002800000028000000281A
:10242000000000280000002800010027000000270D
:102430000000002700000027000000270001002600
:1024400000000026000000260000002600000026F4
:1024500000010025000000250000002500000025E7
:1024600000000025000000250001002400000024D9
:1024700000000024000000240000002400010023CC
:1024800000000023000000230000002300000023C0
:1024900000000023000000230001002200000022B1
:1024A00000000022000000220000002200000022A4
:1024B0000001002100000021000000210000002197
:1024C0000000002100000021000000210001002088
:1024D000000000200000002000000020000000207C
:1024E0000000002000000020000000200001001F6C
:1024F0000000001F0000001F0000001F0000001F60
:102500000000001F0000001F0001001E0000001E50
:102510000000001E0000001E00000024F4D4305013
:10252000C38E20C2A24017828B7011127A910D8146
:102530006CD90AA861E108C7586607615143061EB5
:102540004B5D05C145A7041A411104093D9803716B
:102550003931034036DB0265339102D430540280B6
:102560002E1D02632CEE01752AC501B028A00110B2
:102570002781018F2564012B244B01E0223401AC1B
:10258000211F018D200D01801FFC00841EED00978E
:102590001DDF00B81CD200E61BC600201BBC006477
:1025A0001AB200B219A8000A19A0006A189900D13D
:1025B00017910040178B00B516840031167E00B3CA
:1025C0001579003A157300C7146F0058146A00EEAD
:1025D0001366008813630025135E00C7125B006C4E
:1025E00012570015125400C111510070114F0021F3
:1025F000114B00D61049008D1047004610440002D0
:10260000104200C00F4000800F3E00420F3C000609
:102610000F3B00CB0E3800930E37005C0E350027C1
:102620000E3400F30D3200C10D3100900D3000600A
:102630000D2E00320D2D00050D2C00D90C2B00AEF7
:102640000C2900850C29005C0C2700350C27000E96
:102650000C2600E80B2400C40B2400A00B23007DF3
:102660000B23005A0B2100390B2100180B2000F816
:102670000A1F00D90A1E00BB0A1E009D0A1D008009
:102680000A1D00630A1C00470A1B002C0A1B0011CC
:102690000A1A00F7091A00DD091900C4091900AB6C
:1026A000091900920917007B091800630917004CEB
:1026B00009160036091600200916000A091500F54A
:1026C000081500E0081400CC081400B8081400A491
:1026D000081400900813007D0812006B08130058BE
:1026E00008120046081200340811002308110012D5
:1026F00008110001081100F0071000E0071000D0D9
:10270000071000C0071000B0070F00A107100091CC
:10271000070E0083070F0074070F0065070E0057B0
:10272000070E0049070E003B070D002E070E002084
:10273000070D0013070D0006070D00F9060C00ED4C
:10274000060D00E0060C00D4060C00C8060C00BC08
:10275000060C00B0060C00A4060B0099060C008DB8
:10276000060B0082060B0077060B006C060B00615F
:10277000060A0057060B004C060A0042060A0038FB
:10278000060A002E060A0024060A001A060A00108D
:1027900006090007060A00FD050900F4050900EB1B
:1027A000050900E2050900D9050900D0050900C79F
:1027B000050900BE050900B5050800AD050800A51E
:1027C0000509009C050800940508008C0508008494
:1027D0000508007C050800740508006C0507006505
:1027E0000508005D050700560508004E050700476F
:1027F0000507004005080038050700310507002AD5
:10280000050700230507001C050600160507000F35
:102810000507000805060002050700FB040600F591
:10282000040700EE040600E8040600E2040700DBEB
:10283000040600D5040600CF040600C9040600C340
:10284000040600BD040600B7040600B1040500AC90
:10285000040600A6040600A00405009B04060095DB
:10286000040500900406008A040500850405008024
:102870000406007A04050075040500700405006B69
:1028800004050066040500610405005C04050057AA
:10289000040500520405004D0405004804050043EA
:1028A0000405003E0404003A040500350405003028
:1028B0000404002C04050027040400230405001E62
:1028C0000404001A04040016040500110404000D99
:1028D000040400090405000404040000040400FCCE
:1028E000030400F8030400F4030400F0030400EC04
:1028F000030400E8030400E4030400E0030400DC34
:10290000030400D8030400D4030400D0030400CC63
:10291000030400C8030300C5030300256C642E25CF
:10292000696D004D61726C696E20322E302E395FF8
:102930004457372E342E3600417869732000206DBD
:10294000696E3A00206D61783A0046415354005355
:102950004C4F5700DE2B0500000601000400060165
:10296000000605000000060004005A5F53544F5053
:102970005F50494E005A5F535445505F50494E00D6
:102980005A5F4D494E5F50494E005A5F454E414295
:102990004C455F50494E005A5F4449525F50494E82
:1029A00000595F53544F505F50494E00595F535484
:1029B00045505F50494E00595F4D494E5F50494E5A
:1029C00000595F454E41424C455F50494E00595FAA
:1029D0004449525F50494E00585F53544F505F5026
:1029E000494E00585F535445505F50494E00585F60
:1029F0004D494E5F50494E00585F454E41424C454F
:102A00005F50494E00585F4449525F50494E005351
:102A10005549434944455F50494E00534552564F2E
:102A2000335F50494E00534552564F325F50494E26
:102A300000534552564F315F50494E005345525650
:102A40004F305F50494E00534453530053445F444A
:102A500045544543545F50494E004D4F53464554ED
:102A60005F435F50494E004D4F534645545F425FB0
:102A700050494E004D4F534645545F415F50494EBB
:102A80000054454D505F305F43535F50494E004CFA
:102A900045445F50494E004845415445525F4245C8
:102AA000445F50494E004845415445525F305F50A5
:102AB000494E0046494C5F52554E4F55545F504960
:102AC0004E0046414E5F50494E0045315F535445DC
:102AD000505F50494E0045315F454E41424C455F85
:102AE00050494E0045315F4449525F50494E0045C0
:102AF000315F43535F50494E0045305F535445505A
:102B00005F50494E0045305F454E41424C455F5055
:102B1000494E0045305F4449525F50494E0042459E
:102B2000455045525F50494E004156525F53535FE6
:102B300050494E004156525F53434B5F50494E003F
:102B40004156525F4D4F53495F50494E00415652D6
:102B50005F4D49534F5F50494E0054454D505F42C1
:102B600045445F50494E0054454D505F315F5049D8
:102B70004E0054454D505F305F50494E0046494C21
:102B800057494454485F50494E005458443200520B
:102B90005844320054584430005258443000434F97
:102BA0004D4D554E49434154494F4E0044525952A0
:102BB000554E004552524F525300494E464F004524
:102BC00043484F004572726F722077726974696E64
:102BD0006720746F20454550524F4D210A0036370B
:102BE00026033C3D380E2E303E131A1C180A4309AA
:102BF0000844000153544F505045442E2000507259
:102C0000696E7465722073746F707065642064758A
:102C10006520746F206572726F72732E204669781A
:102C200020746865206572726F7220616E64207511
:102C30007365204D39393920746F20726573746162
:102C400072742E202854656D70657261747572659A
:102C50002069732072657365742E20536574206932
:102C60007420616674657220726573746172746930
:102C70006E67290A004E6F20436865636B73756D3C
:102C80002077697468206C696E65206E756D626569
:102C9000722C204C617374204C696E653A20004E92
:102CA0006F20436865636B73756D20776974682066
:102CB0006C696E65206E756D6265722C204C617357
:102CC00074204C696E653A2000636865636B7375A8
:102CD0006D206D69736D617463682C204C61737431
:102CE000204C696E653A20004C696E65204E756D0A
:102CF000626572206973206E6F74204C617374205A
:102D00004C696E65204E756D6265722B312C204CBE
:102D1000617374204C696E653A20004D313130008A
:102D200053657269616C20737461747573206D6989
:102D3000736D617463680A00776169740A005344B3
:102D40002072656164206572726F720A0021212011
:102D50004B494C4C20636175736564206279207423
:102D60006F6F206D75636820696E61637469766545
:102D70002074696D65202D2063757272656E7420F4
:102D8000636F6D6D616E643A2000486F74656E64A8
:102D90002049646C652054696D656F757400486FD7
:102DA00074656E642049646C652054696D656F7547
:102DB000740A003D3D6F6E46696C616D656E7452BC
:102DC000756E6F75743D3D007061757365004D36AD
:102DD0003030002066696C616D656E745F72756E6F
:102DE0006F7574200066696C616D656E745F7275D5
:102DF0006E6F757420540046696C616D656E745217
:102E0000756E6F75742054004D3130303053006250
:102E10007573793A2070617573656420666F7220EE
:102E2000696E7075740A00627573793A2070617505
:102E300073656420666F7220757365720A0062752F
:102E400073793A2070726F63657373696E670A00F5
:102E500025533A202553002A2A2A6B696C6C2A2AAA
:102E60002A00706F7765726F6666004B494C4C455F
:102E7000442E20005072696E7465722068616C7413
:102E800065642E206B696C6C28292063616C6C650D
:102E900064210A0053544F505045442E2000507274
:102EA000696E7465722073746F70706564206475E8
:102EB0006520746F206572726F72732E2046697878
:102EC00020746865206572726F7220616E6420756F
:102ED0007365204D39393920746F207265737461C0
:102EE00072742E202854656D7065726174757265F8
:102EF0002069732072657365742E20536574206990
:102F0000742061667465722072657374617274698D
:102F10006E67290A006563686F3A004572726F72C6
:102F20003A00204A0020204D343231204900202030
:102F300047323920493939390A00556E6966696561
:102F40006420426564204C6576656C696E6700613B
:102F500063746976650A00696E00002053797374A2
:102F6000656D2076312E303120002020207C0A0033
:102F70004E414E0020202E20202000207C00206684
:102F80006F7220004C43443A0A004353563A0A00F9
:102F90003A0A0A000A42656420546F706F677261D2
:102FA000706879205265706F72740050726F626938
:102FB0006E67204661696C65640A0050726F6269D1
:102FC0006E67204661696C656400205A3A200020D3
:102FD000593A200042656420583A20004732384C64
:102FE000300047323800446F6E652E0A003F496E4C
:102FF00076616C69642073746F7261676520736CAD
:103000006F742E0A3F557365203020746F20003F87
:10301000454550524F4D2073746F72616765206E45
:103020006F7420617661696C61626C652E0A004480
:103030006F6E652E0A003F496E76616C696420737D
:10304000746F7261676520736C6F742E0A3F5573DD
:1030500065203020746F20003F454550524F4D2071
:1030600073746F72616765206E6F74206176616939
:103070006C61626C652E0A003F5034206973206FCA
:103080006E6C7920617661696C61626C652077682D
:10309000656E20616E204C43442069732070726518
:1030A00073656E742E0A003F5032206973206F6E74
:1030B0006C7920617661696C61626C652077686506
:1030C0006E20616E204C43442069732070726573DA
:1030D000656E742E0A00292E0A0A0050726F62690A
:1030E0006E672061726F756E642028004D6573688D
:1030F00020696E76616C6964617465642E2050721B
:103100006F62696E67206D6573682E0A004D657386
:1031100068207A65726F65642E0A00446566617581
:103120006C742073746F7261676520736C6F7420A8
:10313000302073656C65637465642E0A004170709D
:103140006C79696E6720746573742070617474653E
:10315000726E2E0A0A003F496E76616C69642028FF
:1031600051292074657374207061747465726E2EB9
:1031700020283020746F2032290A0A0020696E76D8
:10318000616C6964617465642E0A0A004C6F636146
:1031900074696F6E7300456E74697265204D657356
:1031A00068005374616E646172642044657669617D
:1031B00074696F6E3A20004D65616E204D657368CD
:1031C000204865696768743A200023206F66207381
:1031D000616D706C65733A200050726F62696E6742
:1031E00020506F696E740025532025692F256900D2
:1031F0002E0A002F0050726F62696E67206D657332
:103200006820706F696E742000496E76616C696425
:10321000206D617020747970652E0A0A003F28467F
:10322000296164652068656967687420666F72202B
:10323000426564204C6576656C20436F72726563ED
:1032400074696F6E206E6F7420706C617573696243
:103250006C652E0A0A003F43616E27742061637417
:10326000697661746520616E642064656163746968
:1032700076617465206174207468652073616D6582
:103280002074696D652E0A0A00426F746820582008
:10329000262059206C6F636174696F6E73206D75A1
:1032A0007374206265207370656369666965642E56
:1032B0000A0A003F496E76616C696420677269642E
:1032C0002073697A6520284A2920737065636966CE
:1032D0006965642028322D39292E0A0A003F2850BA
:1032E00029686173652076616C756520696E766109
:1032F0006C69642028302D36292E0A0A003F285692
:10330000296572626F7365206C6576656C20696DE6
:10331000706C61757369626C652028302D34292EBC
:103320000A0A003F285229657065746974696F6ED6
:1033300020636F756E7420696E76616C69642028F5
:10334000312B292E0A0A00652960295B2956295D3F
:103350000A0062656420706C616E65206E6F726D2C
:10336000616C203D205B00436F756C64206E6F7450
:1033700020636F6D706C657465204C53462100436B
:103380006F727265637465645F5A3D002553202532
:10339000692F2569000A0A002F0054696C74696E50
:1033A00067206D65736820706F696E7420003F45FB
:1033B00072726F722070726F62696E6720706F69CF
:1033C0006E742E2041626F7274696E67206F706533
:1033D000726174696F6E2E0A00436F727265637456
:1033E00065645F5A3D00255320332F330054696CC8
:1033F00074696E67206D6573682028332F33290A3E
:1034000000436F727265637465645F5A3D002553B3
:1034100020322F330054696C74696E67206D6573B8
:10342000682028322F33290A00436F727265637453
:1034300065645F5A3D0054696C74696E6720506F13
:10344000696E7400255320312F330054696C746900
:103450006E67206D6573682028312F33290A006458
:103460006F6E650A00496E73756666696369656E9D
:103470007420646174610A000000803F66667242D5
:103480006666F042CCCC334366666F43008095435A
:103490000000803F666672426666F042CCCC3343E1
:1034A00066666F43008095434578747261706F6CF7
:1034B0006174696E67206D6573682E2E2E00212160
:1034C0002053544F502063616C6C656420626563C7
:1034D00061757365206F6620424C546F7563682078
:1034E0006572726F72202D20726573746172742020
:1034F00077697468204D3939390A002121205354E5
:103500004F502063616C6C65642062656361757304
:1035100065206F6620424C546F7563682065727237
:103520006F72202D207265737461727420776974D4
:1035300068204D3939390A002F2F616374696F6E25
:103540003A006E6F74696669636174696F6E20001A
:1035500070726F6D70745F00656E6400486F7465A3
:103560006E6420746F6F20636F6C640A0053656E25
:1035700064204D31303820746F20726573756D652D
:103580000A00496E736572742066696C616D656EC0
:103590007420616E642073656E64204D3130380A8A
:1035A0000052656865617420446F6E6500526568FD
:1035B000656174696E672E2E2E00526568656174B0
:1035C000004865617465722054696D656F7574009B
:1035D00053656E64204D31303820746F206865610A
:1035E00074206E6F7A7A6C650A004E6F7A7A6C6519
:1035F000205061726B656400706175736564005082
:10360000617573650057616974696E6720666F72D2
:10361000206865617475702E0A004C656176696E6C
:103620006720473236003F53706563696669656499
:1036300020582C5920636F6F7264696E6174652025
:103640006F7574206F6620626F756E64732E0A004A
:103650003F28522965706561742076616C7565201C
:103660006E6F7420706C61757369626C653B206D60
:10367000757374206265206174206C6561737420B9
:10368000312E0A003F2852296570656174206D75DE
:103690007374206265207370656369666965642070
:1036A0007768656E206E6F74207573696E67206130
:1036B0006E204C43442E0A003F537065636966696F
:1036C0006564206E6F7A7A6C652074656D706572C2
:1036D0006174757265206E6F7420706C61757369AA
:1036E000626C652E0A003F537065636966696564A4
:1036F0002066696C616D656E742073697A65206EF1
:103700006F7420706C61757369626C652E0A003F7E
:10371000537065636966696564207072696D6520C0
:103720006C656E677468206E6F7420706C61757361
:1037300069626C652E0A003F5072696D65206C6588
:103740006E677468206D7573742062652073706590
:10375000636966696564207768656E206E6F7420A2
:103760007573696E6720616E204C43442E0A003FDA
:10377000537065636966696564206E6F7A7A6C65FB
:103780002073697A65206E6F7420706C617573693F
:10379000626C652E0A003F52657472616374696FD2
:1037A0006E204D756C7469706C696572206D7573EF
:1037B00074206265207370656369666965642E0AAA
:1037C000003F537065636966696564205265747271
:1037D000616374696F6E204D756C7469706C696596
:1037E00072206E6F7420706C61757369626C652EE7
:1037F0000A003F537065636966696564206C61798E
:10380000657220686569676874206E6F7420706CDB
:1038100061757369626C652E0A0043292E0A003FA8
:1038200053706563696669656420626564207465C8
:103830006D7065726174757265206E6F7420706C46
:1038400061757369626C65202834302D004732360B
:10385000207374617274696E672E2E2E0A004F46B3
:10386000460A0046616465204865696768742000FF
:10387000426564204C6576656C696E672000466120
:10388000696C656420746F20656E61626C652042AE
:103890006564204C6576656C696E670A00496E76D2
:1038A000616C6964206D6573682E0A0076616C69CD
:1038B000640A53746F7261676520736C6F743A2089
:1038C00000696E004D65736820697320003F557371
:1038D00065203020746F20003F496E76616C69640A
:1038E0002073746F7261676520736C6F742E0A00A9
:1038F0003F454550524F4D2073746F72616765208C
:103900006E6F7420617661696C61626C652E0A006D
:103910004D65736820706F696E74206F7574206FC9
:10392000662072616E67650A004D34323120696E1F
:10393000636F727265637420706172616D65746526
:10394000722075736167650A0020440020204D32A3
:103950003030205300202844697361626C6564290B
:103960003A0046696C616D656E74207365747469A4
:103970006E67730020204D3230312058004D617841
:1039800020416363656C65726174696F6E20287590
:103990006E6974732F7332290020204D323033202A
:1039A00058004D61782066656564726174657320A6
:1039B00028756E6974732F73290020520020204DE2
:1039C000323034205000416363656C657261746904
:1039D0006F6E2028756E6974732F733229202850FA
:1039E0003C7072696E742D616363656C3E20523C5D
:1039F000726574726163742D616363656C3E2054FB
:103A00003C74726176656C2D616363656C3E290060
:103A10005741524E494E4721204C6F77205A204A39
:103A200065726B206D6179206C65616420746F2014
:103A3000756E77616E746564207061757365732E41
:103A40000A0020540020530020204D3230352042FF
:103A500000416476616E6365642028423C6D696E46
:103A60005F7365676D656E745F74696D655F7573AF
:103A70003E20533C6D696E5F666565647261746576
:103A80003E20543C6D696E5F74726176656C5F6652
:103A9000656564726174653E20583C6D61785F6A4B
:103AA00065726B3E20593C6D61785F6A65726B3E52
:103AB000205A3C6D61785F6A65726B3E20453C6DB3
:103AC00061785F6A65726B3E2900204400204900DE
:103AD00020204D333031205000486F74656E6420D3
:103AE0005049440020440020490020204D33303408
:103AF000205000426564205049440050574D3A2000
:103B0000202534640050574D3A202025346400505D
:103B1000574D3A20202534640050574D3A20202537
:103B200034640050574D3A20202534640050574DDE
:103B30003A20202534640050574D3A202025346423
:103B40000050574D3A20202534640050574D3A20FC
:103B5000202534640050574D3A202025346400500D
:103B6000574D3A20202534640050574D3A202025E7
:103B700034640050574D3A20202534640050574D8E
:103B80003A20202534640050574D3A2020253464D3
:103B90000050574D3A2020253464003A2000202060
:103BA0002020434F4D002020206E6F6E2D737461D6
:103BB0006E646172642050574D206D6F6465002003
:103BC0002020636F6D7061726520696E746572721A
:103BD00075707420656E61626C6564002020206FD2
:103BE000766572666C6F7720696E74657272757037
:103BF0007420656E61626C6564003A2000202020AC
:103C00002054494D534B00423A200020202020549C
:103C100043435200413A2000202020205443435285
:103C2000002020202043533A200020202020574706
:103C30004D3A200050574D3A20202534640050570B
:103C40004D3A2020253464004700480000008800D9
:103C50008A008C00B300B400000098009A009C0019
:103C6000A800AA00AC0028012A012C012020202055
:103C700054494D455200440045006E0080008100CB
:103C80006F00B000B1007000900091007100A000C2
:103C9000A100720020012101730020697320616C72
:103CA000736F207469656420746F20746869732071
:103CB00070696E0054494D45523143000A202E0070
:103CC0002020002020506F72743A20002020200015
:103CD000202020416E616C6F6720696E203D202599
:103CE000356C64003C756E757365642F756E6B6E14
:103CF0006F776E3E00202841253264292020002560
:103D00003364200050494E3A20004F75747075742A
:103D1000203D2000496E70757420203D2000416ECA
:103D2000616C6F6720696E203D2025356C640070E2
:103D3000726F7465637465642000202841253264C5
:103D400029202000253364200050494E3A20009954
:103D50002B0001942B01018F2B11018A2B10017D67
:103D60002B3B00722B4300672B45005A2B44004D20
:103D70002B3201402B3301342B3401292B35011E0A
:103D80002B2501132B1C01052B1801F92A1A01EF11
:103D90002A2C01E42A2201D62A1E01CA2A2401C2A1
:103DA0002A0901B32A0201A62A0A01972A08018FCB
:103DB0002A0D01812A4201742A0A01672A07015A41
:103DC0002A08014C2A3101472A35013C2A0B0131CE
:103DD0002A0601262A05011B2A04010F2A0C0105C7
:103DE0002A3701F8292601EE290301E3293601D8F3
:103DF000290301CE293D01C1293801B7290E01ACA3
:103E0000293C01A1290E01972930018A293E018010
:103E100029130175292E016A291301446F6E652E3D
:103E20000A0050756C73696E6720202000556E740F
:103E30006F7563686564200066616C736500464158
:103E4000494C3A204E6F207472696767657220642E
:103E5000657465637465640A004641494C3A204EB6
:103E60006F697365206465746563746564202D20D3
:103E7000706C656173652072652D72756E20746556
:103E800073740A002064657465637465642E0A00A7
:103E90003D20424C546F7563682070726520563324
:103EA0002E3120286F7220636F6D70617469626CAF
:103EB0006529003D205A20536572766F2050726F3D
:103EC0006265003D20424C546F7563682056332E66
:103ED000310020282B2F2D20346D73293A20003AF1
:103EE0002033306D73206F72206D6F72650A002E63
:103EF0002050756C7365207769647468002A2A20E5
:103F0000506C6561736520747269676765722070B3
:103F1000726F62652077697468696E203330207330
:103F20006563202A2A0A004641494C3A20424C54F3
:103F30004F55434820656E61626C6564202D2053A7
:103F40006574207570207468697320646576696390
:103F500065206173206120536572766F2050726F07
:103F60006265207769746820494E56455254494E1F
:103F7000472073657420746F202774727565272E2F
:103F80000A0020204445504C4F5945442073746129
:103F900074653A204C4F5720286C6F676963203056
:103FA000290020204445504C4F59454420737461EA
:103FB00074653A204849474820286C6F6769632038
:103FC0003129003D204D656368616E6963616C2035
:103FD0005377697463682064657465637465640A03
:103FE000005741524E494E473A20494E5645525489
:103FF000494E472073657474696E672070726F62F2
:1040000061626C79206261636B77617264732E0AFE
:10401000002E204465706C6F7920262073746F77B2
:1040200020342074696D65730A003D20424C546F42
:1040300075636820436C617373696320312E322C81
:1040400020312E332C20536D61727420312E302C90
:1040500020322E302C20322E322C20332E302C20A9
:10406000332E312064657465637465642E0A002EF6
:1040700020436865636B20666F7220424C544F5535
:1040800043480A002E205A5F4D494E5F454E445327
:10409000544F505F494E56455254494E473A2000BE
:1040A0002E2050726F6265205A5F4D494E5F504915
:1040B0004E3A20002C2073746F7720616E676C6518
:1040C0003A202020002C206465706C6F7920616E8E
:1040D000676C653A2000536572766F2070726F626C
:1040E0006520746573740A2E207573696E67206984
:1040F0006E6465783A2020004D343320576169742E
:104100002043616C6C6564004D34332057616974E1
:104110002043616C6C6564005761746368696E6705
:104120002070696E730A0064697300656E006162D5
:104130006C65640A00656E6473746F70206D6F6ED9
:1041400069746F72200020580020204D61783A2059
:1041500000200020204D696E3A2000203B200020E6
:10416000204D323131205300203B002055002020CB
:104170004D363033204C0046696C616D656E74209D
:104180006C6F61642F756E6C6F6164004D323453D7
:10419000256C6454256C64004739322E39452573EB
:1041A0000047314625640047315A25734636303082
:1041B0000047315825735925734633303030004D50
:1041C000313036502569532569004D31303953253A
:1041D00069004D323030442573004739322E395A48
:1041E0002573004D3432305325635A25730047320E
:1041F00038523058590047315A257346363030000E
:104200004739322E395A2573004739322E39453015
:10421000004D313039532569004D3139305325690E
:10422000004D343230205330205A30003D3D4F6E27
:10423000506F7765724C6F7373526573756D653D22
:104240003D00203B200020204D34313320530050CE
:104250006F7765722D6C6F7373207265636F76650F
:104260007279004F4646004F4E00203B20486F7346
:10427000742068616E646C696E672000203B204D7D
:104280006F646520006D6D00203B2044697374618C
:104290006E6365200046696C616D656E7420727591
:1042A0006E6F757420003B200020496E76616C694A
:1042B00064206578747275646572200047322F47F8
:1042C000332062616420706172616D657465727320
:1042D0000A00536C6565702E2E2E005A2050726FA6
:1042E00062652050617374204265640A005A205050
:1042F000726F626520506173742042656400205AB9
:104300003A200020593A200042656420583A2000A3
:104310004D65736820706F696E74206F7574206FBF
:10432000662072616E67650A004D302053746F70AD
:10433000004D312053746F7000436C69636B2074BF
:104340006F20526573756D652E2E2E004E6F204DB9
:104350006F76652E00456E642066696C65206C6919
:1043600073740A00426567696E2066696C65206C2B
:104370006973740A004E6F206D656469610A0052AA
:104380006573756D696E6720534400286E6F2066F3
:10439000696C65290043757272656E742066696C7C
:1043A000653A20005072696E742074696D653A2018
:1043B000003F43616E6E6F7420777269746520747C
:1043C0006F20494E5055540A00496E76616C6964FD
:1043D0002050696E204D6F64650A000A5374617441
:1043E000733A2046696C616D656E742075736564FF
:1043F0003A20002C204C6F6E67657374206A6F62E0
:104400003A2000546F74616C2074696D653A200025
:1044100053746174733A20002C204661696C6564A2
:104420003A20002C2046696E69736865643A200062
:104430005072696E74733A200053746174733A2039
:10444000006F6B006F666600BF2BBA2BB32BAC2BD3
:104450009E2B44454255473A004D3131332053009D
:10446000544D33442031305350726F5632204F46F2
:10447000462E002F2F0046523A0020466C6F773AA6
:10448000200050726F7465637465642050696E0A11
:10449000003A200020536572766F2000206F7574FB
:1044A000206F662072616E67650A00536572766FD1
:1044B000200050726F6265204F6666736574205AE3
:1044C0000050726F6265204F6666736574205A00F3
:1044D00064697300656E0043290A0061626C65645B
:1044E00020286D696E2074656D702000436F6C64C8
:1044F0002065787472756465732061726520005060
:104500004944204175746F74756E650050494420AC
:104510004175746F74756E65206661696C656421A0
:1045200020426164206865617465722069640A00D4
:10453000424C546F756368204853206D6F6465204A
:10454000004F666673657473204170706C696564B2
:10455000004572723A20546F6F20666172210054D8
:104560006F6F206661722066726F6D20726566657E
:1045700072656E636520706F696E740A0045455000
:10458000524F4D204F4B0A004D383400446F6E653A
:10459000207072696E74696E672066696C650A00C6
:1045A0004D3737004D3331000A20696E6974207A27
:1045B00070726F62655F7A6F6666736574203D2006
:1045C000003D3D6F6E436F6E666967757261746919
:1045D0006F6E53746F7265526561643D3D00454571
:1045E00050524F4D20496E697469616C697A6564F7
:1045F0000A004D65736820736176656420696E20DA
:10460000736C6F7420003F556E61626C6520746F2F
:104610002073617665206D65736820646174612E16
:104620000A0020736C6F743D00206D6573686573BC
:104630005F656E643D004532454E443D00206D652A
:10464000736820736C6F747320617661696C61624A
:104650006C652E0A003F496E76616C696420736C4C
:104660006F742E0A004D657368206C6F6164656419
:104670002066726F6D20736C6F7420003F556E6101
:10468000626C6520746F206C6F6164206D65736867
:1046900020646174612E0A0048617264636F64650E
:1046A000642044656661756C742053657474696E2A
:1046B0006773204C6F616465640020286D6D29006C
:1046C000203B204C6576656C696E67200020204D8C
:1046D000343230205300556E696669656420426546
:1046E00064204C6576656C696E670046696C616D27
:1046F000656E742072756E6F75742073656E736F5E
:104700007200206D65736865732E0A0A0045455076
:10471000524F4D2063616E20686F6C6420004163CE
:1047200074697665204D65736820536C6F74200042
:1047300020204D3134392043203B20556E6974735D
:1047400020696E2043656C736975730A0054656D4A
:10475000706572617475726520556E69747300209E
:1047600020473231203B004C696E65617220556EE6
:10477000697473003F4D65736820746F6F206269C0
:104780006720666F7220454550524F4D2E0A0045F6
:104790004550524F4D206461746173697A6520659C
:1047A00072726F722E0A0053657474696E672056B8
:1047B0006F6C756D65204F6E203A200053657474E0
:1047C000696E67205374616E646279204F6E203A7F
:1047D000200053657474696E6720566F6C756D6543
:1047E000203A200053657474696E6720526F7461BB
:1047F00074696F6E203A200053657474696E672087
:104800005374616E6462792054696D65203A2000AA
:1048100053657474696E67205374616E64627920A5
:104820003A200053657474696E6720427269676844
:10483000746E657373203A20004C6F6164696E6713
:10484000204457494E204C43442073657474696E6C
:10485000672066726F6D20454550524F4D0A0044E7
:10486000697363617264696E67204457494E204CD6
:1048700043442073657474696E672066726F6D209F
:10488000454550524F4D202D2073657474696E67F5
:10489000732076657273696F6E20696E636F7272D2
:1048A0006563740A0044697363617264696E6720AA
:1048B0004457494E204C43442073657474696E67B5
:1048C0002066726F6D20454550524F4D202D20734C
:1048D000697A6520696E636F72726563740A005548
:1048E000424C2072657365740A00206C6F616465C8
:1048F000642066726F6D2073746F726167652E0A33
:10490000004D657368200053746F72656420736591
:104910007474696E67732072657472696576656414
:1049200000290A002062797465733B20637263205A
:10493000002073746F7265642073657474696E67A8
:104940007320726574726965766564202800454538
:1049500050524F4D20435243204572726F720020D7
:104960002863616C63756C6174656429210A002099
:10497000213D2000454550524F4D20435243206D6C
:1049800069736D61746368202D202873746F72657C
:10499000642920002053697A653A2000496E6465D5
:1049A000783A20000000FA430000FA43000020415A
:1049B00000008C420000A0420000A0420000C8435A
:1049C00000000C43EE020000EE0200006400000054
:1049D0003C000000454550524F4D205665727369AA
:1049E0006F6E204572726F7200204D61726C696E3D
:1049F0003D563837290A00454550524F4D207665BF
:104A00007273696F6E206D69736D617463682028BD
:104A1000454550524F4D3D0024F4D43050C38E20B4
:104A2000C2A24017828B7011127A910D816CD90A43
:104A3000A861E108C7586607615143061E4B5D0532
:104A4000C145A7041A411104093D98037139310386
:104A50004036DB0265339102D4305402802E1D02B1
:104A6000632CEE01752AC501B028A0011027810131
:104A70008F2564012B244B01E0223401AC211F015E
:104A80008D200D01801FFC00841EED00971DDF00AE
:104A9000B81CD200E61BC600201BBC00641AB20082
:104AA000B219A8000A19A0006A189900D11791003C
:104AB00040178B00B516840031167E00B3157900BF
:104AC0003A157300C7146F0058146A00EE1366009D
:104AD0008813630025135E00C7125B006C12570039
:104AE00015125400C111510070114F0021114B00DB
:104AF000D61049008D1047004610440002104200B5
:104B0000C00F4000800F3E00420F3C00060F3B00EC
:104B1000CB0E3800930E37005C0E3500270E3400A4
:104B2000F30D3200C10D3100900D3000600D2E00EC
:104B3000320D2D00050D2C00D90C2B00AE0C2900D8
:104B4000850C29005C0C2700350C27000E0C260074
:104B5000E80B2400C40B2400A00B23007D0B2300D2
:104B60005A0B2100390B2100180B2000F80A1F00F6
:104B7000D90A1E00BB0A1E009D0A1D00800A1D00E6
:104B8000630A1C00470A1B002C0A1B00110A1A00AA
:104B9000F7091A00DD091900C4091900AB09190049
:104BA000920917007B091800630917004C091600C9
:104BB00036091600200916000A091500F508150027
:104BC000E0081400CC081400B8081400A40814006D
:104BD000900813007D0812006B081300580812009B
:104BE00046081200340811002308110012081100B1
:104BF00001081100F0071000E0071000D0071000B6
:104C0000C0071000B0070F00A107100091070E00A9
:104C100083070F0074070F0065070E0057070E008B
:104C200049070E003B070D002E070E0020070D0060
:104C300013070D0006070D00F9060C00ED060D0028
:104C4000E0060C00D4060C00C8060C00BC060C00E4
:104C5000B0060C00A4060B0099060C008D060B0094
:104C600082060B0077060B006C060B0061060A003B
:104C700057060B004C060A0042060A0038060A00D6
:104C80002E060A0024060A001A060A001006090069
:104C900007060A00FD050900F4050900EB050900F7
:104CA000E2050900D9050900D0050900C70509007A
:104CB000BE050900B5050800AD050800A5050900F9
:104CC0009C050800940508008C0508008405080070
:104CD0007C050800740508006C05070065050800E0
:104CE0005D050700560508004E050700470507004B
:104CF0004005080038050700310507002A050700B0
:104D0000230507001C050600160507000F05070010
:104D10000805060002050700FB040600F50407006D
:104D2000EE040600E8040600E2040700DB040600C7
:104D3000D5040600CF040600C9040600C30406001B
:104D4000BD040600B7040600B1040500AC0406006B
:104D5000A6040600A00405009B04060095040500B7
:104D6000900406008A0405008504050080040600FE
:104D70007A04050075040500700405006B04050045
:104D800066040500610405005C0405005704050085
:104D9000520405004D0405004804050043040500C5
:104DA0003E0404003A040500350405003004040004
:104DB0002C04050027040400230405001E0404003D
:104DC0001A04040016040500110404000D04040074
:104DD000090405000404040000040400FC030400AA
:104DE000F8030400F4030400F0030400EC030400DF
:104DF000E8030400E4030400E0030400DC0304000F
:104E0000D8030400D4030400D0030400CC0304003E
:104E1000C8030300C503030024F404D9201BC40CF9
:104E20005C0E9804C4095F0265077101F405F9007E
:104E3000FB04B30048048700C10369005803550010
:104E400003034500BE023A008402310053022A00E7
:104E50002902250004022000E4011C00C8011900F9
:104E6000AF011700980114008401130071011000B4
:104E70006101100051010E0043010D0036010B00CD
:104E80002B010B0020010B00150109000C0109008A
:104E900003010800FB000800F3000800EB00070016
:104EA000E4000600DE000600D8000600D20006007E
:104EB000CC000500C7000500C2000500BD000400CD
:104EC000B9000400B5000400B1000400AD00040006
:104ED000A9000400A5000300A20003009F00040035
:104EE0009B0003009800030095000200930003005C
:104EF000900003008D0002008B0003008800020078
:104F00008600020084000300810002007F0002008E
:104F10007D0002007B0002007900020077000100A2
:104F200076000200740002007200010071000200AD
:104F30006F0002006D0001006C0002006A000100B9
:104F400069000200670001006600010065000100C1
:104F500064000200620001006100010060000100C5
:104F60005F0002005D0001005C0001005B000100C9
:104F70005A000100590001005800010057000100CB
:104F800056000100550001005400010053000000CC
:104F900053000100520001005100010050000100C7
:104FA0004F0001004E0000004E0001004D000100C6
:104FB0004C0001004B0000004B0001004A000100C2
:104FC00049000100480000004800010047000100BE
:104FD00046000000460001004500000045000100B9
:104FE00044000100430000004300010042000000B3
:104FF00042000100410000004100010040000100AA
:105000003F0000003F0001003E0000003E000100A4
:105010003D0000003D0001003C0000003C0000009D
:105020003C0001003B0000003B0001003A00000092
:105030003A0001003900000039000100380000008A
:105040003800000038000100370000003700010080
:105050003600000036000000360001003500000078
:10506000350000003500010034000000340000006D
:105070003400010033000000330000003300010061
:105080003200000032000000320001003100000058
:10509000310000003100010030000000300000004D
:1050A000300001002F0000002F0000002F00000042
:1050B0002F0001002E0000002E0000002E00010035
:1050C0002D0000002D0000002D0000002D0001002B
:1050D0002C0000002C0000002C0000002C0001001F
:1050E0002B0000002B0000002B0000002B00010013
:1050F0002A0000002A0000002A0000002A00010007
:1051000029000000290000002900000029000000FB
:1051100029000100280000002800000028000000ED
:1051200028000000280001002700000027000000E0
:1051300027000000270000002700010026000000D3
:1051400026000000260000002600000026000100C6
:1051500025000000250000002500000025000000BB
:1051600025000000250001002400000024000000AC
:10517000240000002400000024000100230000009F
:105180002300000023000000230000002300000093
:105190002300000023000100220000002200000084
:1051A0002200000022000000220000002200010076
:1051B000210000002100000021000000210000006B
:1051C000210000002100000021000100200000005B
:1051D000200000002000000020000000200000004F
:1051E0002000000020000000200001001F0000003F
:1051F0001F0000001F0000001F0000001F00000033
:105200001F0000001F0001001E0000001E00000023
:105210001E0000001E000000393000003325000091
:1052200087190000B00F0000DB080000BD0400007B
:10523000740200003F01000020436F756E74205817
:105240003A0023646566696E652044454641554CC5
:10525000545F0000626564004B6420004B692000CD
:105260004B7020005049442074756E696E6720644D
:105270006F6E6500504944204175746F74756E659A
:105280002066696E697368656421205075742074A6
:105290006865206C617374204B702C204B69206111
:1052A0006E64204B6420636F6E7374616E74732040
:1052B00066726F6D2062656C6F7720696E746F2007
:1052C000436F6E66696775726174696F6E2E680AE6
:1052D00000504944204175746F74756E6520666195
:1052E000696C6564212074696D656F75740A00418D
:1052F00075746F74756E65206661696C65642120D4
:1053000054696D656F75742E005049442041757461
:105310006F74756E65206661696C656421205465E3
:105320006D706572617475726520746F6F20686945
:1053300067680A00504944204379636C657300250F
:10534000532025692F256900204B643A2000204B0B
:10535000693A2000204B703A200020436C6173733F
:10536000696320504944200A00204E6F206F766503
:105370007273686F6F740A002054753A2000204BD6
:10538000753A2000206D61783A2000206D696E3AF0
:10539000200020643A200020626961733A200048AE
:1053A000656174696E672E2E2E0050494420417548
:1053B000746F74756E652073746172740A00417540
:1053C000746F74756E65206661696C65642E205417
:1053D000656D706572617475726520746F6F206899
:1053E0006967682E00504944204175746F74756E6A
:1053F00065206661696C6564212054656D70657215
:10540000617475726520746F6F20686967680A003F
:10541000426564004531004500626564002C2073DC
:10542000797374656D2073746F70706564212048A2
:1054300065617465725F49443A200048656174692A
:105440006E67204661696C65640048656174696EC9
:1054500067206661696C6564004D313132205368A4
:105460007574646F776E001000C90210012C014042
:1054700001220170011801B0010E01F00104015078
:1054800002FA00B002F0003003E600D003DC009026
:1054900004D2007005C800A006BE000008B400B029
:1054A00009AA00D00BA000600E960060118C0000CD
:1054B00015820020197800C01D6E00A0226400B083
:1054C000275A00902C500000314600E0343C001078
:1054D000383200903A2800603C1E00A03D14008045
:1054E0003E0A00203F00004572723A204D41585458
:1054F000454D50004D415854454D502074726967D8
:105500006765726564004572723A204D494E544594
:105510004D50004D494E54454D5020747269676797
:105520006572656400544845524D414C2052554EB9
:105530004157415900546865726D616C2052756E17
:1055400061776179000A0A0020205A5F4D494E3A7E
:10555000002020595F4D494E3A002020585F4D49A8
:105560004E3A00202F002042403A0020403A0020CE
:10557000573A0020573A00496E76616C696420659D
:10558000787472756465720A007C3C3E5E2B3D3F08
:105590002F5B5D3B2C2A225C0043616E6E6F742092
:1055A0006F70656E2073756264697220004D65646A
:1055B000696120496E6974204661696C005344201A
:1055C00063617264206F6B0A006F70656E526F6F5B
:1055D00074206661696C65640A00766F6C756D6530
:1055E0002E696E6974206661696C65640A004E6F8D
:1055F00020534420636172640A000A4D3234004D26
:105600003233202573002E0A006F70656E206661AC
:10561000696C65642C2046696C653A200046696CAB
:10562000652073656C65637465640A002053697A4C
:10563000653A200046696C65206F70656E65643A56
:105640002000454E4420535542524F5554494E4533
:105650000A002220706F73002220706172656E74E0
:105660003A2200535542524F5554494E452043412A
:105670004C4C207461726765743A22005375626302
:10568000616C6C204F766572666C6F77004578634D
:105690006565646564206D617820535542524F55AD
:1056A00054494E452064657074683A002E0A0044DF
:1056B000656C6574696F6E206661696C65642C2029
:1056C00046696C653A200046696C652064656C65C6
:1056D0007465643A005344207072696E74696E6731
:1056E000206279746520004E6F74205344207072DC
:1056F000696E74696E670A002F6175746F25632E79
:10570000670057726974696E6720746F2066696CF0
:10571000653A2000667265736800646F696E6700A1
:105720002066696C653A20004E6F7720002020507B
:105730006C616E6E657242756666657242797465FB
:10574000733A20002046726565204D656D6F727951
:105750003A200020436F6D70696C65643A20417097
:105760007220323820323032320A00204C61737499
:1057700020557064617465643A20323032322D30C5
:10578000342D3033207C20417574686F723A205478
:10579000696E794D616368696E657333440A004DC3
:1057A00061726C696E20322E302E395F4457372E6D
:1057B000342E360A0020536F66747761726520526A
:1057C000657365740A00205761746368646F6720AD
:1057D00052657365740A002042726F776E206F7590
:1057E000742052657365740A002045787465726E82
:1057F000616C2052657365740A00506F776572554D
:10580000700A0073746172740A004739310A4731B3
:105810005A350A4739300A4D38340A4D313034533D
:10582000300A4D3134305330004D31303031006565
:1058300072726F722077726974696E6720746F205C
:1058400066696C650A00446F6E6520736176696EE7
:10585000672066696C652E0A004D323900456E641A
:1058600073746F70730025532025632025632025F2
:105870006320256300205A3A0020593A0020583A04
:1058800000656E6473746F7073206869743A2000E9
:1058900000002100240027002A002D0030003300E2
:1058A00001010000040107010A0100002200250097
:1058B00028002B002E0031003400020100000501F9
:1058C00008010B01000020002300260029002C0005
:1058D0002F00320000010000030106010901050547
:1058E0000505070508080808020202020A0A080856
:1058F0000404040401010101010101010303030384
:1059000003030303040707070C0C0C0C0C0C0C0C12
:105910000202020206060606060606060B0B0B0B23
:105920000B0B0B0B01021020200808102040102048
:105930004080020102010804020101020408102053
:105940004080804020100804020180040201804051
:1059500020100804020108040201010204081020BA
:105960004080010204081020408000000A0B020958
:105970000C0D0E08070304010000000000000000E9
:105980000000000000000000000000000000000017
:1059900000000000000012111000000000000000D4
:1059A00000000000000000000000000000000000F7
:1059B000726573756D6564004469736D6973730016
:1059C000526573756D696E670073686F77006275F5
:1059D00074746F6E00626567696E0044697361621A
:1059E0006C6552756E6F75740050757267654D6F9A
:1059F00072650050617573656400436F6E74696E03
:105A00007565004C6F61642046696C616D656E74EC
:105A10002054004C6F61642046696C616D656E7442
:105A200000496E736572742066696C616D656E7491
:105A300020616E642073656E64204D3130380A0039
:105A400020204D323036205800486F6D65206F663B
:105A500066736574004361703A00434F4E46494790
:105A60005F4558504F5254004D4541545041434BAF
:105A700000434F4F4C45525F54454D5045524154A1
:105A8000555245004348414D4245525F54454D50A3
:105A90004552415455524500424142595354455094
:105AA00050494E470041524353004D4F54494F4EC9
:105AB0005F4D4F44455300544845524D414C5F5053
:105AC000524F54454354494F4E00455854454E4457
:105AD00045445F4D323000435553544F4D5F464966
