:100000000C9441340C9481340C9481340C948134DC
:100010000C9481340C9481340C9481340C9481348C
:100020000C9481340C9481340C9481340C9481347C
:100030000C9481340C9481340C9481340C9481346C
:100040000C9481340C9463D40C9481340C948134DA
:100050000C9481340C9476C20C9481340C940DB0C1
:100060000C9481340C94B3640C94A9640C94813482
:100070000C9481340C9481340C9481340C9481342C
:100080000C9481340C9481340C9481340C9481341C
:100090000C9481340C9481340C9481340C9481340C
:1000A0000C9481340C9481340C9481340C948134FC
:1000B0000C9481340C9481340C9481340C948134EC
:1000C0000C9481340C9481340C9481340C94044E3F
:1000D0000C94CE4D0C9481340C9481340C94813466
:1000E0000C948134084AD73B3BCE016E84BCBFFDE3
:1000F000C12F3D6C74319ABD56833DDA3D00C77FF8
:1001000011BED9E4BB4C3E916BAAAABE0000008090
:100110003F05A84CCDB2D44EB93836A9020C50B91F
:10012000918688083CA6AAAA2ABE000000803F0744
:10013000634236B79BD8A71A39685618AEBAAB5582
:100140008C1D3CB7CC5763BD6DEDFD753EF6177247
:1001500031BF000000803F08000000BE9224491219
:100160003EABAAAA2ABECDCCCC4C3E00000080BE3D
:10017000ABAAAAAA3E00000000BF000000803F001A
:1001800000000000084178D3BB4387D1133D190E0E
:100190003CC3BD4282AD2B3E68EC8276BED98FE176
:1001A000A93E4C80EFFFBE01C4FF7F3F000000006E
:1001B00000000C94214D0C9449650C94D94C0C947E
:1001C000358D0C94FD4C0C94DB4C0C94B74C0C947A
:1001D000F2AE0D94DC240C948F4E0C946CA60C940F
:1001E0006F650D9492620D9492240C94218C0C9462
:1001F000A64E0C94E38C0C941D8C0C94B94C0C946E
:10020000138C0D946F110C94D48B0C9476A60D94D2
:10021000F3240C94FF4C0C94424E0C9477650D948F
:10022000EA6E0C94AA4E0C9454A60C94C04E0C94F6
:10023000FF8C0D9441250D948B330C94994C0D94A7
:10024000895F0D9409270C9421350D940A110D94A2
:1002500076330D94CD240C947FA70D9494110C94B7
:1002600020650C94964E0C94AE4E0C94A24E0C94B9
:100270001D460C945D650C943E650C948D4C0D945C
:100280009E620C94A18C0C94BD8C0C9462AE0C9468
:10029000108C0C94714E0C94B54E0C9462A60C9478
:1002A0002F650D949A5F0D947F5F0C9468A60C9453
:1002B000AB850C944AA60C94098C0D94055F0D94A3
:1002C000C2260D9488330D948D5F0D947F330D9469
:1002D000C0100C9435A60C944F8D0C94F1640D94C1
:1002E000DA5D0D94E5100D945B5F0C9450A60C94B0
:1002F0000C8C0C9443A60C943BA60D948E330D9459
:100300004A110C942B8C0D94D9240D9494330C9495
:100310003FA60C94FDA60C94DD4C0C94068C0D9419
:1003200098260C94628C0C94C84E0D94725E0D94B9
:100330009A330C94D58C0C94804E0D94645F0C947D
:100340005EA60D9482330D94C1240C94234D0D941C
:10035000D7260D94D0240D94CC6E0C94A6850D94C4
:100360007E100D94DD620C94178C0C944D650C94EA
:1003700047A60C94288D0D94E65E0C94254D0C94A4
:10038000014D0D943D250C9451650D9485330C94CD
:100390001FAF0C949A4E0C94278C0C947AA60C9454
:1003A00075A60C940D8D0C94BAAD0D94D25E0D947F
:1003B000045E0C94E0AE0C94C98C0C9470A60D9461
:1003C000C7240D946D5F0D94B9110D9403120D9413
:1003D000DE110C94F18C0C94E2860D94D3240C94D1
:1003E0005BAD0D94DF240D94565D0C94F0840C9459
:1003F000FF8B0C943EAD0D94C4240D9497330D9453
:100400008F5F0D949B5E0C94F7840D94475F0C9462
:100410009E4E0D94D1620C94028C0C9442AF0C94BD
:1004200003AE0C94E7860C9447AE0C9480A70C9412
:10043000AF8C0D94765F0C9459650C9464650D94A3
:1004400091330C9455650D94CA240C945AA60D94BE
:10045000525F0C9445650D94665C0C94248C0C944E
:10046000428D0D94F8620D94E9620D947C330C94E6
:10047000898C0D94D6240C942E8C0C94938C0C9413
:100480001A8C0C94CF8B0C941B8D0C94EE860D94CF
:10049000AF5E0D94A55C0D94C2624E414E494E492B
:1004A0005459494E46CDCCCC3D0AD7233C17B7D141
:1004B0003877CC2B329595E6241FB14F0A000020E7
:1004C000410000C84200401C4620BCBE4CCA1B0E66
:1004D0005AAEC59D7400407A10F35A00A0724E18AF
:1004E000090010A5D4E80000E87648170000E40BE6
:1004F00054020000CA9A3B000000E1F505000080AC
:10050000969800000040420F000000A08601000005
:1005100000102700000000E8030000000064000055
:100520000000000A00000000000100000000002C94
:1005300076D888DC674F0823DFC1DFAE59E1B1B759
:1005400096E5E3E453C63AE651997696E8E6C28426
:1005500026EB898C9B62ED407C6FFCEFBC9C9F403E
:10056000F2BAA56FA5F490055A2AF75C936B6CF963
:10057000676DC11BFCE0E40D47FEF520E6B500D039
:10058000ED902E0300943577050080841E0800004E
:10059000204E0A000000C80C333333330F986E121C
:1005A000831141EF8D2114893BE65516CFFEE6DB22
:1005B00018D1844B381BF77C1D901DA4BBE424206C
:1005C0003284725E228100C9F124ECA1E53D2750FE
:1005D00072696E7465722073746F707065642064E4
:1005E000756520746F206572726F72732E20466974
:1005F0007820746865206572726F7220616E642065
:10060000757365204D39393920746F2072657374A4
:100610006172742E202854656D70657261747572F4
:10062000652069732072657365742E20536574208C
:100630006974206166746572207265737461727486
:10064000696E67290A001000C90210012C014001DF
:10065000220170011801B0010E01F00104015002E5
:10066000FA00B002F0003003E600D003DC00900492
:10067000D2007005C800A006BE000008B400B00992
:10068000AA00D00BA000600E960060118C0000152F
:10069000820020197800C01D6E00A0226400B027DF
:1006A0005A00902C500000314600E0343C001038D5
:1006B0003200903A2800603C1E00A03D1400803EAD
:1006C0000A00203F00006001F4017001EA0190017E
:1006D000E001B001D601D001CC010002C20130021C
:1006E000B8016002AE019002A401D0029A01200379
:1006F000900170038601C0037C0130047201A004E4
:10070000680120055E01B005540160064A0120071A
:100710004001F0073601F0082C01100A2201500BAD
:100720001801C00C0E01500E04013010FA00201206
:10073000F0005014E600C016DC007019D200501C06
:10074000C800501FBE007022B400B025AA00F028D7
:10075000A000202C9600302F8C0010328200A03494
:100760007800F0366E00E0386400803A5A00403B72
:100770005500E03B5000F03C4600C03D3C00603E70
:100780003200E03E2800303F1E00503F1900703F0D
:100790001400A03F0A00C03F0000D03FF6FFE03F3A
:1007A000ECFF24F404D9201BC40C5C0E9804C4098B
:1007B0005F0265077101F405F900FB04B30048040A
:1007C0008700C10369005803550003034500BE02BA
:1007D0003A008402310053022A0029022500040253
:1007E0002000E4011C00C8011900AF0117009801A6
:1007F0001400840113007101100061011000510107
:100800000E0043010D0036010B002B010B002001EF
:100810000B00150109000C01090003010800FB0091
:100820000800F3000800EB000700E4000600DE000B
:100830000600D8000600D2000600CC000500C70064
:100840000500C2000500BD000400B9000400B500A9
:100850000400B1000400AD000400A9000400A500DC
:100860000300A20003009F0004009B000300980007
:1008700003009500020093000300900003008D0028
:1008800002008B0003008800020086000200840042
:100890000300810002007F0002007D0002007B0057
:1008A0000200790002007700010076000200740067
:1008B000020072000100710002006F0002006D0072
:1008C00001006C0002006A0001006900020067007C
:1008D0000100660001006500010064000200620082
:1008E000010061000100600001005F0002005D0086
:1008F00001005C0001005B0001005A00010059008A
:100900000100580001005700010056000100550089
:100910000100540001005300000053000100520088
:10092000010051000100500001004F0001004E0085
:1009300000004E0001004D0001004C0001004B0082
:1009400000004B0001004A0001004900010048007E
:10095000000048000100470001004600000046007A
:100960000100450000004500010044000100430073
:10097000000043000100420000004200010041006D
:10098000000041000100400001003F0000003F0066
:1009900001003E0000003E0001003D0000003D005F
:1009A00001003C0000003C0000003C0001003B0056
:1009B00000003B0001003A0000003A00010039004D
:1009C0000000390001003800000038000000380045
:1009D000010037000000370001003600000036003B
:1009E0000000360001003500000035000000350031
:1009F0000100340000003400000034000100330026
:100A0000000033000000330001003200000032001B
:100A10000000320001003100000031000000310010
:100A200001003000000030000000300001002F0005
:100A300000002F0000002F0000002F0001002E00FA
:100A400000002E0000002E0001002D0000002D00EF
:100A500000002D0000002D0001002C0000002C00E3
:100A600000002C0000002C0001002B0000002B00D7
:100A700000002B0000002B0001002A0000002A00CB
:100A800000002A0000002A000100290000002900BF
:100A900000002900000029000000290001002800B2
:100AA00000002800000028000000280000002800A6
:100AB0000100270000002700000027000000270099
:100AC000000027000100260000002600000026008C
:100AD000000026000000260001002500000025007F
:100AE0000000250000002500000025000000250072
:100AF0000100240000002400000024000000240065
:100B00000000240001002300000023000000230057
:100B10000000230000002300000023000000230049
:100B2000010022000000220000002200000022003C
:100B3000000022000000220001002100000021002E
:100B40000000210000002100000021000000210021
:100B50000000210001002000000020000000200013
:100B60000000200000002000000020000000200005
:100B70000000200001001F0000001F0000001F00F7
:100B800000001F0000001F0000001F0000001F00E9
:100B900001001E0000001E0000001E0000001E00DC
:100BA000000024F4D43050C38E20C2A24017828BA0
:100BB0007011127A910D816CD90AA861E108C758A9
:100BC0006607615143061E4B5D05C145A7041A41E6
:100BD0001104093D9803713931034036DB02653356
:100BE0009102D4305402802E1D02632CEE01752A2E
:100BF000C501B028A001102781018F2564012B2495
:100C00004B01E0223401AC211F018D200D01801F1A
:100C1000FC00841EED00971DDF00B81CD200E61B0F
:100C2000C600201BBC00641AB200B219A8000A1941
:100C3000A0006A189900D117910040178B00B516D3
:100C4000840031167E00B31579003A157300C7147D
:100C50006F0058146A00EE136600881363002513B2
:100C60005E00C7125B006C12570015125400C111D0
:100C7000510070114F0021114B00D61049008D100A
:100C800047004610440002104200C00F4000800F91
:100C90003E00420F3C00060F3B00CB0E3800930E87
:100CA00037005C0E3500270E3400F30D3200C10D05
:100CB0003100900D3000600D2E00320D2D00050D1D
:100CC0002C00D90C2B00AE0C2900850C29005C0CE3
:100CD0002700350C27000E0C2600E80B2400C40B5F
:100CE0002400A00B23007D0B23005A0B2100390B9D
:100CF0002100180B2000F80A1F00D90A1E00BB0AA9
:100D00001E009D0A1D00800A1D00630A1C00470A80
:100D10001B002C0A1B00110A1A00F7091A00DD0932
:100D20001900C4091900AB091900920917007B09C1
:100D30001800630917004C0916003609160020092F
:100D400016000A091500F5081500E0081400CC0883
:100D50001400B8081400A4081400900813007D08BB
:100D600012006B08130058081200460812003408DD
:100D70001100230811001208110001081100F007EA
:100D80001000E0071000D0071000C0071000B007E7
:100D90000F00A107100091070E0083070F007407D2
:100DA0000F0065070E0057070E0049070E003B07AE
:100DB0000D002E070E0020070D0013070D0006077B
:100DC0000D00F9060C00ED060D00E0060C00D4063F
:100DD0000C00C8060C00BC060C00B0060C00A406F3
:100DE0000B0099060C008D060B0082060B0077069F
:100DF0000B006C060B0061060A0057060B004C0640
:100E00000A0042060A0038060A002E060A002406D6
:100E10000A001A060A001006090007060A00FD0566
:100E20000900F4050900EB050900E2050900D905F0
:100E30000900D0050900C7050900BE050900B50570
:100E40000800AD050800A50509009C0508009405EB
:100E500008008C050800840508007C05080074055E
:100E600008006C050700650508005D0507005605CC
:100E700008004E0507004705070040050800380533
:100E80000700310507002A050700230507001C0598
:100E90000600160507000F050700080506000205F5
:100EA0000700FB040600F5040700EE040600E80452
:100EB0000600E2040700DB040600D5040600CF04A8
:100EC0000600C9040600C3040600BD040600B704FA
:100ED0000600B1040500AC040600A6040600A00448
:100EE00005009B04060095040500900406008A0492
:100EF000050085040500800406007A0405007504D9
:100F00000500700405006B0405006604050061041B
:100F100005005C04050057040500520405004D045B
:100F2000050048040500430405003E0404003A049B
:100F3000050035040500300404002C0405002704D6
:100F40000400230405001E0404001A04040016040F
:100F50000500110404000D04040009040500040444
:100F6000040000040400FC030400F8030400F4037C
:100F70000400F0030400EC030400E8030400E403AD
:100F80000400E0030400DC030400D8030400D403DD
:100F90000400D0030400CC030400C8030300C5030D
:100FA0000300726F746174696F6E206D6174726991
:100FB000783A0A0024F404D9201BC40C5C0E98046F
:100FC000C4095F0265077101F405F900FB04B30071
:100FD00048048700C1036900580355000303450016
:100FE000BE023A008402310053022A002902250081
:100FF00004022000E4011C00C8011900AF01170021
:1010000098011400840113007101100061011000A7
:1010100051010E0043010D0036010B002B010B00A6
:1010200020010B00150109000C0109000301080053
:10103000FB000800F3000800EB000700E4000600D6
:10104000DE000600D8000600D2000600CC00050035
:10105000C7000500C2000500BD000400B90004007F
:10106000B5000400B1000400AD000400A9000400B4
:10107000A5000300A20003009F0004009B000300E2
:101080009800030095000200930003009000030005
:101090008D0002008B000300880002008600020021
:1010A00084000300810002007F0002007D00020036
:1010B0007B00020079000200770001007600020048
:1010C0007400020072000100710002006F00020053
:1010D0006D0001006C0002006A000100690002005E
:1010E0006700010066000100650001006400020065
:1010F0006200010061000100600001005F00020069
:101100005D0001005C0001005B0001005A0001006D
:10111000590001005800010057000100560001006D
:10112000550001005400010053000000530001006D
:101130005200010051000100500001004F00010069
:101140004E0000004E0001004D0001004C00010067
:101150004B0000004B0001004A0001004900010063
:101160004800000048000100470001004600000060
:101170004600010045000000450001004400010058
:101180004300000043000100420000004200010053
:101190004100000041000100400001003F0000004C
:1011A0003F0001003E0000003E0001003D00000045
:1011B0003D0001003C0000003C0000003C0001003C
:1011C0003B0000003B0001003A0000003A00010033
:1011D000390000003900010038000000380000002C
:1011E0003800010037000000370001003600000021
:1011F0003600000036000100350000003500000018
:10120000350001003400000034000000340001000B
:101210003300000033000000330001003200000002
:1012200032000000320001003100000031000000F7
:1012300031000100300000003000000030000100EB
:101240002F0000002F0000002F0000002F000100E1
:101250002E0000002E0000002E0001002D000000D6
:101260002D0000002D0000002D0001002C000000CA
:101270002C0000002C0000002C0001002B000000BE
:101280002B0000002B0000002B0001002A000000B2
:101290002A0000002A0000002A00010029000000A6
:1012A0002900000029000000290000002900010099
:1012B000280000002800000028000000280000008E
:1012C0002800010027000000270000002700000080
:1012D0002700000027000100260000002600000073
:1012E0002600000026000000260001002500000066
:1012F000250000002500000025000000250000005A
:10130000250001002400000024000000240000004B
:10131000240000002400010023000000230000003E
:101320002300000023000000230000002300000031
:101330002300010022000000220000002200000023
:101340002200000022000000220001002100000015
:101350002100000021000000210000002100000009
:1013600021000000210001002000000020000000FA
:1013700020000000200000002000000020000000ED
:1013800020000000200001001F0000001F000000DE
:101390001F0000001F0000001F0000001F000000D1
:1013A0001F0001001E0000001E0000001E000000C3
:1013B0001E00000024F4D43050C38E20C2A2401777
:1013C000828B7011127A910D816CD90AA861E108A3
:1013D000C7586607615143061E4B5D05C145A7040A
:1013E0001A411104093D9803713931034036DB027B
:1013F00065339102D4305402802E1D02632CEE011D
:10140000752AC501B028A001102781018F2564012C
:101410002B244B01E0223401AC211F018D200D0152
:10142000801FFC00841EED00971DDF00B81CD20059
:10143000E61BC600201BBC00641AB200B219A8004B
:101440000A19A0006A189900D117910040178B0063
:10145000B516840031167E00B31579003A15730075
:10146000C7146F0058146A00EE13660088136300F7
:1014700025135E00C7125B006C1257001512540052
:10148000C111510070114F0021114B00D6104900BD
:101490008D1047004610440002104200C00F40006B
:1014A000800F3E00420F3C00060F3B00CB0E380081
:1014B000930E37005C0E3500270E3400F30D32001A
:1014C000C10D3100900D3000600D2E00320D2D0049
:1014D000050D2C00D90C2B00AE0C2900850C290021
:1014E0005C0C2700350C27000E0C2600E80B2400AE
:1014F000C40B2400A00B23007D0B23005A0B2100FA
:10150000390B2100180B2000F80A1F00D90A1E0011
:10151000BB0A1E009D0A1D00800A1D00630A1C00F4
:10152000470A1B002C0A1B00110A1A00F7091A00AF
:10153000DD091900C4091900AB0919009209170047
:101540007B091800630917004C09160036091600BC
:10155000200916000A091500F5081500E008140016
:10156000CC081400B8081400A40814009008130054
:101570007D0812006B08130058081200460812007C
:10158000340811002308110012081100010811008D
:10159000F0071000E0071000D0071000C00710008F
:1015A000B0070F00A107100091070E0083070F007E
:1015B00074070F0065070E0057070E0049070E005D
:1015C0003B070D002E070E0020070D0013070D002E
:1015D00006070D00F9060C00ED060D00E0060C00F4
:1015E000D4060C00C8060C00BC060C00B0060C00AB
:1015F000A4060B0099060C008D060B0082060B005A
:1016000077060B006C060B0061060A0057060B00FC
:101610004C060A0042060A0038060A002E060A0096
:1016200024060A001A060A001006090007060A0026
:10163000FD050900F4050900EB050900E2050900B4
:10164000D9050900D0050900C7050900BE05090034
:10165000B5050800AD050800A50509009C050800B2
:10166000940508008C050800840508007C05080026
:10167000740508006C050700650508005D05070096
:10168000560508004E0507004705070040050800FD
:1016900038050700310507002A0507002305070064
:1016A0001C050600160507000F05070008050600C3
:1016B00002050700FB040600F5040700EE0406001F
:1016C000E8040600E2040700DB040600D504060077
:1016D000CF040600C9040600C3040600BD040600CA
:1016E000B7040600B1040500AC040600A604060019
:1016F000A00405009B040600950405009004060064
:101700008A04050085040500800406007A040500AB
:1017100075040500700405006B04050066040500EF
:10172000610405005C04050057040500520405002F
:101730004D04050048040500430405003E04040070
:101740003A04050035040500300404002C040500AB
:1017500027040400230405001E0404001A040400E6
:1017600016040500110404000D040400090405001A
:101770000404040000040400FC030400F803040053
:10178000F4030400F0030400EC030400E803040085
:10179000E4030400E0030400DC030400D8030400B5
:1017A000D4030400D0030400CC030400C8030300E6
:1017B000C503030024F404D9201BC40C5C0E980458
:1017C000C4095F0265077101F405F900FB04B30069
:1017D00048048700C103690058035500030345000E
:1017E000BE023A008402310053022A002902250079
:1017F00004022000E4011C00C8011900AF01170019
:10180000980114008401130071011000610110009F
:1018100051010E0043010D0036010B002B010B009E
:1018200020010B00150109000C010900030108004B
:10183000FB000800F3000800EB000700E4000600CE
:10184000DE000600D8000600D2000600CC0005002D
:10185000C7000500C2000500BD000400B900040077
:10186000B5000400B1000400AD000400A9000400AC
:10187000A5000300A20003009F0004009B000300DA
:1018800098000300950002009300030090000300FD
:101890008D0002008B000300880002008600020019
:1018A00084000300810002007F0002007D0002002E
:1018B0007B00020079000200770001007600020040
:1018C0007400020072000100710002006F0002004B
:1018D0006D0001006C0002006A0001006900020056
:1018E000670001006600010065000100640002005D
:1018F0006200010061000100600001005F00020061
:101900005D0001005C0001005B0001005A00010065
:101910005900010058000100570001005600010065
:101920005500010054000100530000005300010065
:101930005200010051000100500001004F00010061
:101940004E0000004E0001004D0001004C0001005F
:101950004B0000004B0001004A000100490001005B
:101960004800000048000100470001004600000058
:101970004600010045000000450001004400010050
:10198000430000004300010042000000420001004B
:101990004100000041000100400001003F00000044
:1019A0003F0001003E0000003E0001003D0000003D
:1019B0003D0001003C0000003C0000003C00010034
:1019C0003B0000003B0001003A0000003A0001002B
:1019D0003900000039000100380000003800000024
:1019E0003800010037000000370001003600000019
:1019F0003600000036000100350000003500000010
:101A00003500010034000000340000003400010003
:101A100033000000330000003300010032000000FA
:101A200032000000320001003100000031000000EF
:101A300031000100300000003000000030000100E3
:101A40002F0000002F0000002F0000002F000100D9
:101A50002E0000002E0000002E0001002D000000CE
:101A60002D0000002D0000002D0001002C000000C2
:101A70002C0000002C0000002C0001002B000000B6
:101A80002B0000002B0000002B0001002A000000AA
:101A90002A0000002A0000002A000100290000009E
:101AA0002900000029000000290000002900010091
:101AB0002800000028000000280000002800000086
:101AC0002800010027000000270000002700000078
:101AD000270000002700010026000000260000006B
:101AE000260000002600000026000100250000005E
:101AF0002500000025000000250000002500000052
:101B00002500010024000000240000002400000043
:101B10002400000024000100230000002300000036
:101B20002300000023000000230000002300000029
:101B3000230001002200000022000000220000001B
:101B4000220000002200000022000100210000000D
:101B50002100000021000000210000002100000001
:101B600021000000210001002000000020000000F2
:101B700020000000200000002000000020000000E5
:101B800020000000200001001F0000001F000000D6
:101B90001F0000001F0000001F0000001F000000C9
:101BA0001F0001001E0000001E0000001E000000BB
:101BB0001E00000024F4D43050C38E20C2A240176F
:101BC000828B7011127A910D816CD90AA861E1089B
:101BD000C7586607615143061E4B5D05C145A70402
:101BE0001A411104093D9803713931034036DB0273
:101BF00065339102D4305402802E1D02632CEE0115
:101C0000752AC501B028A001102781018F25640124
:101C10002B244B01E0223401AC211F018D200D014A
:101C2000801FFC00841EED00971DDF00B81CD20051
:101C3000E61BC600201BBC00641AB200B219A80043
:101C40000A19A0006A189900D117910040178B005B
:101C5000B516840031167E00B31579003A1573006D
:101C6000C7146F0058146A00EE13660088136300EF
:101C700025135E00C7125B006C125700151254004A
:101C8000C111510070114F0021114B00D6104900B5
:101C90008D1047004610440002104200C00F400063
:101CA000800F3E00420F3C00060F3B00CB0E380079
:101CB000930E37005C0E3500270E3400F30D320012
:101CC000C10D3100900D3000600D2E00320D2D0041
:101CD000050D2C00D90C2B00AE0C2900850C290019
:101CE0005C0C2700350C27000E0C2600E80B2400A6
:101CF000C40B2400A00B23007D0B23005A0B2100F2
:101D0000390B2100180B2000F80A1F00D90A1E0009
:101D1000BB0A1E009D0A1D00800A1D00630A1C00EC
:101D2000470A1B002C0A1B00110A1A00F7091A00A7
:101D3000DD091900C4091900AB091900920917003F
:101D40007B091800630917004C09160036091600B4
:101D5000200916000A091500F5081500E00814000E
:101D6000CC081400B8081400A4081400900813004C
:101D70007D0812006B081300580812004608120074
:101D80003408110023081100120811000108110085
:101D9000F0071000E0071000D0071000C007100087
:101DA000B0070F00A107100091070E0083070F0076
:101DB00074070F0065070E0057070E0049070E0055
:101DC0003B070D002E070E0020070D0013070D0026
:101DD00006070D00F9060C00ED060D00E0060C00EC
:101DE000D4060C00C8060C00BC060C00B0060C00A3
:101DF000A4060B0099060C008D060B0082060B0052
:101E000077060B006C060B0061060A0057060B00F4
:101E10004C060A0042060A0038060A002E060A008E
:101E200024060A001A060A001006090007060A001E
:101E3000FD050900F4050900EB050900E2050900AC
:101E4000D9050900D0050900C7050900BE0509002C
:101E5000B5050800AD050800A50509009C050800AA
:101E6000940508008C050800840508007C0508001E
:101E7000740508006C050700650508005D0507008E
:101E8000560508004E0507004705070040050800F5
:101E900038050700310507002A050700230507005C
:101EA0001C050600160507000F05070008050600BB
:101EB00002050700FB040600F5040700EE04060017
:101EC000E8040600E2040700DB040600D50406006F
:101ED000CF040600C9040600C3040600BD040600C2
:101EE000B7040600B1040500AC040600A604060011
:101EF000A00405009B04060095040500900406005C
:101F00008A04050085040500800406007A040500A3
:101F100075040500700405006B04050066040500E7
:101F2000610405005C040500570405005204050027
:101F30004D04050048040500430405003E04040068
:101F40003A04050035040500300404002C040500A3
:101F500027040400230405001E0404001A040400DE
:101F600016040500110404000D0404000904050012
:101F70000404040000040400FC030400F80304004B
:101F8000F4030400F0030400EC030400E80304007D
:101F9000E4030400E0030400DC030400D8030400AD
:101FA000D4030400D0030400CC030400C8030300DE
:101FB000C50303001000C90210012C0140012201D9
:101FC00070011801B0010E01F00104015002FA0085
:101FD000B002F0003003E600D003DC009004D20031
:101FE0007005C800A006BE000008B400B009AA0031
:101FF000D00BA000600E960060118C0000158200CE
:1020000020197800C01D6E00A0226400B0275A007D
:10201000902C500000314600E0343C001038320073
:10202000903A2800603C1E00A03D1400803E0A004B
:10203000203F00006001F4017001EA019001E0011D
:10204000B001D601D001CC010002C2013002B801BA
:102050006002AE019002A401D0029A012003900117
:1020600070038601C0037C0130047201A004680182
:1020700020055E01B005540160064A0120074001B9
:10208000F0073601F0082C01100A2201500B18014C
:10209000C00C0E01500E04013010FA002012F000A6
:1020A0005014E600C016DC007019D200501CC800A5
:1020B000501FBE007022B400B025AA00F028A00076
:1020C000202C9600302F8C0010328200A034780033
:1020D000F0366E00E0386400803A5A00403B55000C
:1020E000E03B5000F03C4600C03D3C00603E32000A
:1020F000E03E2800303F1E00503F1900703F1400A2
:10210000A03F0A00C03F0000D03FF6FFE03FECFFD9
:102110005A5F6D6F76655F636F6D700A00616C73F7
:102120006F20656E61626C6564290A00206E6F74B1
:102130002064697361626C65642E20536861726506
:10214000642077697468002E0A0024F404D9201BE7
:10215000C40C5C0E9804C4095F0265077101F405A4
:10216000F900FB04B30048048700C1036900580369
:10217000550003034500BE023A00840231005302B9
:102180002A002902250004022000E4011C00C801E5
:102190001900AF01170098011400840113007101A8
:1021A00010006101100051010E0043010D003601C5
:1021B0000B002B010B0020010B00150109000C0185
:1021C000090003010800FB000800F3000800EB0011
:1021D0000700E4000600DE000600D8000600D2007A
:1021E0000600CC000500C7000500C2000500BD00C8
:1021F0000400B9000400B5000400B1000400AD0003
:102200000400A9000400A5000300A20003009F0031
:1022100004009B0003009800030095000200930057
:102220000300900003008D0002008B000300880073
:1022300002008600020084000300810002007F008B
:1022400002007D0002007B0002007900020077009E
:1022500001007600020074000200720001007100AB
:1022600002006F0002006D0001006C0002006A00B5
:1022700001006900020067000100660001006500BE
:1022800001006400020062000100610001006000C2
:1022900001005F0002005D0001005C0001005B00C6
:1022A00001005A00010059000100580001005700C8
:1022B00001005600010055000100540001005300C8
:1022C00000005300010052000100510001005000C5
:1022D00001004F0001004E0000004E0001004D00C3
:1022E00001004C0001004B0000004B0001004A00BF
:1022F00001004900010048000000480001004700BB
:1023000001004600000046000100450000004500B5
:1023100001004400010043000000430001004200AE
:1023200000004200010041000000410001004000A7
:1023300001003F0000003F0001003E0000003E00A1
:1023400001003D0000003D0001003C0000003C0099
:1023500000003C0001003B0000003B0001003A008F
:1023600000003A0001003900000039000100380087
:10237000000038000000380001003700000037007E
:102380000100360000003600000036000100350074
:10239000000035000000350001003400000034006A
:1023A000000034000100330000003300000033005F
:1023B0000100320000003200000032000100310054
:1023C000000031000000310001003000000030004A
:1023D0000000300001002F0000002F0000002F003F
:1023E00000002F0001002E0000002E0000002E0033
:1023F00001002D0000002D0000002D0000002D0028
:1024000001002C0000002C0000002C0000002C001B
:1024100001002B0000002B0000002B0000002B000F
:1024200001002A0000002A0000002A0000002A0003
:1024300001002900000029000000290000002900F7
:1024400000002900010028000000280000002800EA
:1024500000002800000028000100270000002700DD
:1024600000002700000027000000270001002600D0
:1024700000002600000026000000260000002600C4
:1024800001002500000025000000250000002500B7
:1024900000002500000025000100240000002400A9
:1024A000000024000000240000002400010023009C
:1024B0000000230000002300000023000000230090
:1024C0000000230000002300010022000000220081
:1024D0000000220000002200000022000000220074
:1024E0000100210000002100000021000000210067
:1024F0000000210000002100000021000100200058
:10250000000020000000200000002000000020004B
:1025100000002000000020000000200001001F003B
:1025200000001F0000001F0000001F0000001F002F
:1025300000001F0000001F0001001E0000001E0020
:1025400000001E0000001E00000024F4D43050C320
:102550008E20C2A24017828B7011127A910D816C6D
:10256000D90AA861E108C7586607615143061E4BA6
:102570005D05C145A7041A411104093D980371394D
:1025800031034036DB0265339102D4305402802E91
:102590001D02632CEE01752AC501B028A001102789
:1025A00081018F2564012B244B01E0223401AC21F1
:1025B0001F018D200D01801FFC00841EED00971D62
:1025C000DF00B81CD200E61BC600201BBC00641A4A
:1025D000B200B219A8000A19A0006A189900D11710
:1025E000910040178B00B516840031167E00B3159C
:1025F00079003A157300C7146F0058146A00EE137F
:1026000066008813630025135E00C7125B006C121E
:10261000570015125400C111510070114F002111C3
:102620004B00D61049008D104700461044000210A0
:102630004200C00F4000800F3E00420F3C00060FDA
:102640003B00CB0E3800930E37005C0E3500270E92
:102650003400F30D3200C10D3100900D3000600DDB
:102660002E00320D2D00050D2C00D90C2B00AE0CC8
:102670002900850C29005C0C2700350C27000E0C66
:102680002600E80B2400C40B2400A00B23007D0BC4
:1026900023005A0B2100390B2100180B2000F80AE7
:1026A0001F00D90A1E00BB0A1E009D0A1D00800AD9
:1026B0001D00630A1C00470A1B002C0A1B00110A9C
:1026C0001A00F7091A00DD091900C4091900AB093D
:1026D0001900920917007B091800630917004C09BB
:1026E000160036091600200916000A091500F5081B
:1026F0001500E0081400CC081400B8081400A40861
:102700001400900813007D0812006B08130058088D
:1027100012004608120034081100230811001208A4
:10272000110001081100F0071000E0071000D007A9
:102730001000C0071000B0070F00A107100091079C
:102740000E0083070F0074070F0065070E00570780
:102750000E0049070E003B070D002E070E00200754
:102760000D0013070D0006070D00F9060C00ED061D
:102770000D00E0060C00D4060C00C8060C00BC06D8
:102780000C00B0060C00A4060B0099060C008D0688
:102790000B0082060B0077060B006C060B0061062F
:1027A0000A0057060B004C060A0042060A003806CB
:1027B0000A002E060A0024060A001A060A0010065D
:1027C000090007060A00FD050900F4050900EB05EC
:1027D0000900E2050900D9050900D0050900C7056F
:1027E0000900BE050900B5050800AD050800A505EE
:1027F00009009C050800940508008C050800840564
:1028000008007C050800740508006C0507006505D4
:1028100008005D050700560508004E05070047053E
:1028200007004005080038050700310507002A05A4
:102830000700230507001C050600160507000F0505
:1028400007000805060002050700FB040600F50462
:102850000700EE040600E8040600E2040700DB04BB
:102860000600D5040600CF040600C9040600C30410
:102870000600BD040600B7040600B1040500AC0460
:102880000600A6040600A00405009B0406009504AB
:102890000500900406008A040500850405008004F4
:1028A00006007A04050075040500700405006B0439
:1028B000050066040500610405005C04050057047A
:1028C0000500520405004D040500480405004304BA
:1028D00005003E0404003A040500350405003004F8
:1028E00004002C04050027040400230405001E0432
:1028F00004001A04040016040500110404000D0469
:102900000400090405000404040000040400FC039E
:102910000400F8030400F4030400F0030400EC03D3
:102920000400E8030400E4030400E0030400DC0303
:102930000400D8030400D4030400D0030400CC0333
:102940000400C8030300C5030300256C642E256939
:102950006D004D61726C696E20322E302E395F44ED
:1029600057372E342E3600417869732000206D6968
:102970006E3A00206D61783A004641535400534C42
:102980004F57000D2C050000060100040006010051
:102990000605000000060004005A5F53544F505FC4
:1029A00050494E005A5F535445505F50494E005AAB
:1029B0005F4D494E5F50494E005A5F454E41424C73
:1029C000455F50494E005A5F4449525F50494E009E
:1029D000595F53544F505F50494E00595F5354450F
:1029E000505F50494E00595F4D494E5F50494E006F
:1029F000595F454E41424C455F50494E00595F4436
:102A000049525F50494E00585F53544F505F5049F0
:102A10004E00585F535445505F50494E00585F4D2B
:102A2000494E5F50494E00585F454E41424C455F0C
:102A300050494E00585F4449525F50494E0053552B
:102A400049434944455F50494E00534552564F3320
:102A50005F50494E00534552564F325F50494E0029
:102A6000534552564F315F50494E00534552564FD1
:102A7000305F50494E00534453530053445F444524
:102A8000544543545F50494E004D4F534645545FA3
:102A9000435F50494E004D4F534645545F425F508F
:102AA000494E004D4F534645545F415F50494E00DB
:102AB00054454D505F305F43535F50494E004C4585
:102AC000445F50494E004845415445525F42454499
:102AD0005F50494E004845415445525F305F504970
:102AE0004E0046494C5F52554E4F55545F50494E2B
:102AF0000046414E5F50494E0045315F53544550AA
:102B00005F50494E0045315F454E41424C455F5054
:102B1000494E0045315F4449525F50494E004531AE
:102B20005F43535F50494E0045305F535445505FFB
:102B300050494E0045305F454E41424C455F50493B
:102B40004E0045305F4449525F50494E0042454572
:102B50005045525F50494E004156525F53535F50AB
:102B6000494E004156525F53434B5F50494E00411E
:102B700056525F4D4F53495F50494E004156525F88
:102B80004D49534F5F50494E0054454D505F4245AB
:102B9000445F50494E0054454D505F315F50494E9F
:102BA0000054454D505F305F50494E0046494C57E8
:102BB000494454485F50494E0054584432005258DA
:102BC00044320054584430005258443000434F4D72
:102BD0004D554E49434154494F4E00445259525568
:102BE0004E004552524F525300494E464F00454306
:102BF000484F004572726F722077726974696E6710
:102C000020746F20454550524F4D210A003637261B
:102C1000033C3D380E2E303E121A1C180A43090898
:102C200044000153544F505045442E2000507269C7
:102C30006E7465722073746F70706564206475655E
:102C400020746F206572726F72732E20466978202F
:102C5000746865206572726F7220616E642075738E
:102C600065204D39393920746F2072657374617233
:102C7000742E202854656D706572617475726520BC
:102C800069732072657365742E20536574206974AE
:102C90002061667465722072657374617274696E06
:102CA00067290A004E6F20436865636B73756D205A
:102CB00077697468206C696E65206E756D626572E7
:102CC0002C204C617374204C696E653A20004E6F65
:102CD00020436865636B73756D2077697468206C39
:102CE000696E65206E756D6265722C204C6173741F
:102CF000204C696E653A2000636865636B73756D7F
:102D0000206D69736D617463682C204C617374204D
:102D10004C696E653A20004C696E65204E756D6297
:102D20006572206973206E6F74204C617374204C3F
:102D3000696E65204E756D6265722B312C204C6179
:102D40007374204C696E653A20004D313130005368
:102D5000657269616C20737461747573206D697339
:102D60006D617463680A00776169740A00534420D6
:102D700072656164206572726F720A002121204BB6
:102D8000494C4C2063617573656420627920746FCF
:102D90006F206D75636820696E6163746976652064
:102DA00074696D65202D2063757272656E74206381
:102DB0006F6D6D616E643A2000486F74656E6420BB
:102DC00049646C652054696D656F757400486F7453
:102DD000656E642049646C652054696D656F757417
:102DE0000A003D3D6F6E46696C616D656E7452758B
:102DF0006E6F75743D3D007061757365004D3630C2
:102E000030002066696C616D656E745F72756E6FFF
:102E10007574200066696C616D656E745F72756EA5
:102E20006F757420540046696C616D656E745275DF
:102E30006E6F75742054004D313030305300627520
:102E400073793A2070617573656420666F722069CA
:102E50006E7075740A00627573793A2070617573CB
:102E6000656420666F7220757365720A00627573FF
:102E7000793A2070726F63657373696E670A002513
:102E8000533A202553002A2A2A6B696C6C2A2A2A75
:102E900000706F7765726F6666004B494C4C454415
:102EA0002E20005072696E7465722068616C7465C2
:102EB000642E206B696C6C28292063616C6C6564DE
:102EC000210A006563686F3A004572726F723A00BA
:102ED000204A0020204D3432312049002020473242
:102EE0003920493939390A00556E696669656420A7
:102EF000426564204C6576656C696E670061637439
:102F00006976650A00696E00002053797374656DF7
:102F10002076312E303120002020207C0A004E41C6
:102F20004E0020202E20202000207C0020666F7282
:102F300020004C43443A0A004353563A0A003A0AE6
:102F40000A000A42656420546F706F67726170688E
:102F500079205265706F72740050726F62696E678B
:102F6000204661696C65640A0050726F62696E6721
:102F7000204661696C656400205A3A200020593A65
:102F8000200042656420583A20004732384C300017
:102F900047323800446F6E652E0A003F496E7661F5
:102FA0006C69642073746F7261676520736C6F74F1
:102FB0002E0A3F557365203020746F20003F454531
:102FC00050524F4D2073746F72616765206E6F743D
:102FD00020617661696C61626C652E0A00446F6ED7
:102FE000652E0A003F496E76616C69642073746FC8
:102FF0007261676520736C6F742E0A3F557365208C
:103000003020746F20003F454550524F4D2073745F
:103010006F72616765206E6F7420617661696C61A3
:10302000626C652E0A003F5034206973206F6E6C0D
:103030007920617661696C61626C65207768656E84
:1030400020616E204C434420697320707265736563
:103050006E742E0A003F5032206973206F6E6C79B7
:1030600020617661696C61626C65207768656E20AD
:10307000616E204C43442069732070726573656EE5
:10308000742E0A00292E0A0A0050726F62696E6758
:103090002061726F756E642028004D657368206929
:1030A0006E76616C6964617465642E2050726F6223
:1030B000696E67206D6573682E0A004D6573682020
:1030C0007A65726F65642E0A0044656661756C747A
:1030D0002073746F7261676520736C6F7420302089
:1030E00073656C65637465642E0A004170706C7959
:1030F000696E672074657374207061747465726E94
:103100002E0A0A003F496E76616C696420285129B5
:103110002074657374207061747465726E2E20283B
:103120003020746F2032290A0A0020696E76616CA3
:103130006964617465642E0A0A004C6F6361746986
:103140006F6E7300456E74697265204D657368001B
:103150005374616E64617264204465766961746958
:103160006F6E3A20004D65616E204D657368204892
:1031700065696768743A200023206F662073616D6B
:10318000706C65733A200050726F62696E672050F0
:103190006F696E740025532025692F2569002E0A5A
:1031A000002F0050726F62696E67206D6573682032
:1031B000706F696E742000496E76616C6964206D71
:1031C000617020747970652E0A0A003F28462961D3
:1031D00064652068656967687420666F722042655F
:1031E00064204C6576656C20436F72726563746908
:1031F0006F6E206E6F7420706C61757369626C65A0
:103200002E0A0A003F43616E277420616374697659
:1032100061746520616E64206465616374697661C0
:103220007465206174207468652073616D65207415
:10323000696D652E0A0A00426F74682058202620A6
:1032400059206C6F636174696F6E73206D75737450
:10325000206265207370656369666965642E0A0A79
:10326000003F496E76616C696420677269642073FF
:10327000697A6520284A29207370656369666965E3
:10328000642028322D39292E0A0A003F2850296847
:103290006173652076616C756520696E76616C6915
:1032A000642028302D36292E0A0A003F2856296529
:1032B00072626F7365206C6576656C20696D706CE9
:1032C00061757369626C652028302D34292E0A0AD5
:1032D000003F285229657065746974696F6E2063B8
:1032E0006F756E7420696E76616C69642028312B6D
:1032F000292E0A0A0094298F298A2985295D0A0026
:1033000062656420706C616E65206E6F726D616CB9
:10331000203D205B00436F756C64206E6F742063EA
:103320006F6D706C657465204C53462100436F725D
:103330007265637465645F5A3D0025532025692FCB
:103340002569000A0A002F0054696C74696E6720B1
:103350006D65736820706F696E7420003F457272EE
:103360006F722070726F62696E6720706F696E7421
:103370002E2041626F7274696E67206F7065726192
:1033800074696F6E2E0A00436F72726563746564B0
:103390005F5A3D00255320332F330054696C746904
:1033A0006E67206D6573682028332F33290A004328
:1033B0006F727265637465645F5A3D0025532032F5
:1033C0002F330054696C74696E67206D65736820D3
:1033D00028322F33290A00436F7272656374656463
:1033E0005F5A3D0054696C74696E6720506F696E56
:1033F0007400255320312F330054696C74696E6753
:10340000206D6573682028312F33290A00646F6EA0
:10341000650A00496E73756666696369656E742036
:10342000646174610A000000803F666672426666ED
:10343000F042CCCC334366666F4300809543000076
:10344000803F666672426666F042CCCC3343666665
:103450006F43008095434578747261706F6C61743E
:10346000696E67206D6573682E2E2E002F2F6163A5
:1034700074696F6E3A006E6F74696669636174692E
:103480006F6E200070726F6D70745F00656E640007
:10349000486F74656E6420746F6F20636F6C640A8C
:1034A0000053656E64204D31303820746F20726592
:1034B00073756D650A00496E736572742066696C78
:1034C000616D656E7420616E642073656E64204D5D
:1034D0003130380A0052656865617420446F6E654A
:1034E00000526568656174696E672E2E2E00526504
:1034F00068656174004865617465722054696D6522
:103500006F75740053656E64204D31303820746FD0
:103510002068656174206E6F7A7A6C650A004E6F60
:103520007A7A6C65205061726B65640070617573A6
:1035300065640050617573650057616974696E67F1
:1035400020666F72206865617475702E0A004C6584
:103550006176696E6720473236003F537065636954
:103560006669656420582C5920636F6F7264696EB8
:10357000617465206F7574206F6620626F756E646C
:10358000732E0A003F2852296570656174207661A8
:103590006C7565206E6F7420706C61757369626CF8
:1035A000653B206D757374206265206174206C65C5
:1035B00061737420312E0A003F28522965706561BD
:1035C00074206D757374206265207370656369661D
:1035D000696564207768656E206E6F742075736905
:1035E0006E6720616E204C43442E0A003F53706585
:1035F000636966696564206E6F7A7A6C65207465AC
:103600006D7065726174757265206E6F7420706C78
:1036100061757369626C652E0A003F53706563695A
:10362000666965642066696C616D656E7420736996
:103630007A65206E6F7420706C61757369626C6559
:103640002E0A003F53706563696669656420707275
:10365000696D65206C656E677468206E6F7420708C
:103660006C61757369626C652E0A003F5072696DFA
:1036700065206C656E677468206D75737420626573
:1036800020737065636966696564207768656E207C
:103690006E6F74207573696E6720616E204C4344B1
:1036A0002E0A003F537065636966696564206E6F1A
:1036B0007A7A6C652073697A65206E6F7420706CFD
:1036C00061757369626C652E0A003F5265747261A0
:1036D0006374696F6E204D756C7469706C69657286
:1036E000206D757374206265207370656369666907
:1036F00065642E0A003F53706563696669656420DE
:1037000052657472616374696F6E204D756C746973
:10371000706C696572206E6F7420706C617573696E
:10372000626C652E0A003F53706563696669656463
:10373000206C6179657220686569676874206E6FB6
:103740007420706C61757369626C652E0A00432980
:103750002E0A003F5370656369666965642062657F
:10376000642074656D7065726174757265206E6F2A
:103770007420706C61757369626C65202834302D1B
:1037800000473236207374617274696E672E2E2E74
:103790000A004F46460A004661646520486569672D
:1037A00068742000426564204C6576656C696E67BC
:1037B00020004661696C656420746F20656E6162EB
:1037C0006C6520426564204C6576656C696E670A9D
:1037D00000496E76616C6964206D6573682E0A001D
:1037E00076616C69640A53746F7261676520736CEB
:1037F0006F743A2000696E004D657368206973200C
:10380000003F557365203020746F20003F496E766D
:10381000616C69642073746F7261676520736C6F8B
:10382000742E0A003F454550524F4D2073746F72FD
:10383000616765206E6F7420617661696C61626C8E
:10384000652E0A0020440020204D323030205300E5
:10385000202844697361626C6564293A0046696C8A
:10386000616D656E742073657474696E6773002092
:10387000204D3230312058004D617820416363651E
:103880006C65726174696F6E2028756E6974732F30
:103890007332290020204D3230332058004D61789A
:1038A000206665656472617465732028756E69743D
:1038B000732F73290020520020204D3230342050C5
:1038C00000416363656C65726174696F6E20287571
:1038D0006E6974732F7332292028503C7072696EA0
:1038E000742D616363656C3E20523C726574726135
:1038F00063742D616363656C3E20543C7472617621
:10390000656C2D616363656C3E29005741524E49D9
:103910004E4721204C6F77205A204A65726B206DEC
:103920006179206C65616420746F20756E77616EBB
:10393000746564207061757365732E0A00205400ED
:1039400020530020204D3230352042004164766102
:103950006E6365642028423C6D696E5F7365676DB8
:10396000656E745F74696D655F75733E20533C6D61
:10397000696E5F66656564726174653E20543C6D76
:10398000696E5F74726176656C5F666565647261AD
:1039900074653E20583C6D61785F6A65726B3E20AD
:1039A000593C6D61785F6A65726B3E205A3C6D616F
:1039B000785F6A65726B3E20453C6D61785F6A6531
:1039C000726B3E290020440020490020204D3330F6
:1039D00031205000486F74656E64205049440020C7
:1039E000440020490020204D3330342050004265EF
:1039F00064205049440050574D3A2020253464003B
:103A000050574D3A20202534640050574D3A20201D
:103A10002534640050574D3A202025346400505717
:103A20004D3A20202534640050574D3A202025344B
:103A3000640050574D3A20202534640050574D3AC9
:103A400020202534640050574D3A2020253464004E
:103A500050574D3A20202534640050574D3A2020CD
:103A60002534640050574D3A2020253464005057C7
:103A70004D3A20202534640050574D3A20202534FB
:103A8000640050574D3A20202534640050574D3A79
:103A90002020253464003A200020202020434F4D70
:103AA000002020206E6F6E2D7374616E64617264ED
:103AB0002050574D206D6F646500202020636F6D8E
:103AC0007061726520696E746572727570742065BC
:103AD0006E61626C6564002020206F766572666C92
:103AE0006F7720696E7465727275707420656E618F
:103AF000626C6564003A20002020202054494D5318
:103B00004B00423A200020202020544343520041E1
:103B10003A2000202020205443435200202020201F
:103B200043533A20002020202057474D3A20005090
:103B3000574D3A20202534640050574D3A20202517
:103B400034640047004800000088008A008C00B3FD
:103B500000B400000098009A009C00A800AA00ACE5
:103B60000028012A012C012020202054494D4552D3
:103B700000440045006E00800081006F00B000B17D
:103B8000007000900091007100A000A10072002060
:103B9000012101730020697320616C736F207469C7
:103BA000656420746F20746869732070696E0054B6
:103BB000494D45523143000A202E0020200020208C
:103BC000506F72743A200020202000202020416E87
:103BD000616C6F6720696E203D2025356C64003C68
:103BE000756E757365642F756E6B6E6F776E3E00C4
:103BF00020284125326429202000253364200050EC
:103C0000494E3A20004F7574707574203D2000496C
:103C10006E70757420203D2000416E616C6F6720CE
:103C2000696E203D2025356C640070726F74656389
:103C30007465642000202841253264292020002555
:103C40003364200050494E3A2000C82B0001C32B9A
:103C50000101BE2B1101B92B1001AC2B3B00A12B94
:103C60004300962B4500892B44007C2B32016F2B9F
:103C70003301632B3401582B35014D2B2501422B89
:103C80001C01342B1801282B1A011E2B2C01132B7D
:103C90002201052B1E01F92A2401F12A0901E22A39
:103CA0000201D52A0A01C62A0801BE2A0D01B02A3E
:103CB0004201A32A0A01962A0701892A08017B2AC0
:103CC0003101762A35016B2A0B01602A0601552A3B
:103CD00005014A2A04013E2A0C01342A3701272A09
:103CE00026011D2A0301122A3601072A0301FD2994
:103CF0003D01F0293801E6290E01DB293C01D029DC
:103D00000E01C6293001B9293E01AF291201A429AB
:103D10002E0199291201446F6E652E0A0050756CB0
:103D200073696E6720202000556E746F7563686537
:103D3000642000534552564F206E6F742073657493
:103D40002075702E0A004D3433205761697420436A
:103D5000616C6C6564004D34332057616974204395
:103D6000616C6C6564005761746368696E6720708C
:103D7000696E730A0064697300656E0061626C6548
:103D8000640A00656E6473746F70206D6F6E697481
:103D90006F72200020580020204D61783A200020CA
:103DA0000020204D696E3A2000203B200020204D4D
:103DB000323131205300203B0020550020204D3669
:103DC0003033204C0046696C616D656E74206C6FF9
:103DD00061642F756E6C6F6164004D323453256CD5
:103DE0006454256C64004739322E394525730047E9
:103DF000314625640047315A257346363030004736
:103E0000315825735925734633303030004D3130E9
:103E100036502569532569004D31303953256900E5
:103E20004D323030442573004739322E395A2573CC
:103E3000004D3432305325635A25730047323852CF
:103E40003058590047315A257346363030004739CB
:103E5000322E395A2573004739322E394530004DFC
:103E6000313039532569004D313930532569004DC2
:103E7000343230205330205A30003D3D4F6E506F69
:103E80007765724C6F7373526573756D653D3D0058
:103E9000203B200020204D343133205300506F77D9
:103EA00065722D6C6F7373207265636F76657279BE
:103EB000004F4646004F4E00203B20486F73742051
:103EC00068616E646C696E672000203B204D6F64F2
:103ED0006520006D6D00203B2044697374616E6342
:103EE00065200046696C616D656E742072756E6F39
:103EF000757420003B200020496E76616C69642057
:103F00006578747275646572200047322F473320DC
:103F100062616420706172616D65746572730A001C
:103F2000536C6565702E2E2E005A2050726F62659C
:103F30002050617374204265640A005A2050726FE9
:103F4000626520506173742042656400205A3A20F3
:103F50000020593A200042656420583A20004D65FF
:103F6000736820706F696E74206F7574206F66209F
:103F700072616E67650A004D302053746F70004D9A
:103F8000312053746F7000436C69636B20746F2031
:103F9000526573756D652E2E2E004E6F204D6F7617
:103FA000652E00456E642066696C65206C697374CB
:103FB0000A00426567696E2066696C65206C6973EA
:103FC000740A004E6F206D656469610A0052657362
:103FD000756D696E6720534400286E6F2066696CAA
:103FE00065290043757272656E742066696C653A66
:103FF00020005072696E742074696D653A20003F2C
:1040000043616E6E6F7420777269746520746F20DF
:10401000494E5055540A00496E76616C69642050CF
:10402000696E204D6F64650A000A53746174733AB7
:104030002046696C616D656E7420757365643A2005
:10404000002C204C6F6E67657374206A6F623A2093
:1040500000546F74616C2074696D653A200053746C
:104060006174733A20002C204661696C65643A20C3
:10407000002C2046696E69736865643A20005072AE
:10408000696E74733A200053746174733A20006F40
:104090006B006F666600EE2BE92BE22BDB2BCD2B42
:1040A00044454255473A004D313133205300544D79
:1040B0003344203130532050726F204F46462E003B
:1040C0002F2F0046523A0020466C6F773A2000505E
:1040D000726F7465637465642050696E0A00507273
:1040E0006F6265204F6666736574205A0050726F68
:1040F0006265204F6666736574205A0064697300B8
:10410000656E0043290A0061626C656420286D6950
:104110006E2074656D702000436F6C642065787448
:1041200072756465732061726520005049442041B6
:1041300075746F74756E6500504944204175746FD5
:1041400074756E65206661696C65642120426164E6
:10415000206865617465722069640A004D65736842
:1041600020706F696E74206F7574206F66207261A5
:104170006E67650A004D34323120696E636F72726A
:1041800065637420706172616D657465722075730A
:104190006167650A004F66667365747320417070CD
:1041A0006C696564004572723A20546F6F206661D5
:1041B000722100546F6F206661722066726F6D20ED
:1041C0007265666572656E636520706F696E740AEC
:1041D00000454550524F4D204F4B0A004D3834009A
:1041E000446F6E65207072696E74696E67206669CF
:1041F0006C650A004D3737004D3331000A20696E77
:104200006974207A70726F62655F7A6F6666736533
:1042100074203D20003D3D6F6E436F6E666967758B
:10422000726174696F6E53746F7265526561643D3B
:104230003D00454550524F4D20496E697469616C8F
:10424000697A65640A004D657368207361766564F8
:1042500020696E20736C6F7420003F556E61626C34
:104260006520746F2073617665206D6573682064C6
:104270006174612E0A0020736C6F743D00206D65BF
:10428000736865735F656E643D004532454E443D1D
:1042900000206D65736820736C6F747320617661A4
:1042A000696C61626C652E0A003F496E76616C69CB
:1042B0006420736C6F742E0A004D657368206C6FF8
:1042C000616465642066726F6D20736C6F7420008A
:1042D0003F556E61626C6520746F206C6F61642065
:1042E0006D65736820646174612E0A0048617264B0
:1042F000636F6465642044656661756C7420536502
:104300007474696E6773204C6F6164656400202863
:104310006D6D2900203B204C6576656C696E6720C9
:104320000020204D343230205300556E6966696597
:104330006420426564204C6576656C696E67004652
:10434000696C616D656E742072756E6F7574207323
:10435000656E736F7200206D65736865732E0A0A4F
:1043600000454550524F4D2063616E20686F6C646C
:104370002000416374697665204D65736820536C35
:104380006F74200020204D3134392043203B2055CC
:104390006E69747320696E2043656C736975730A66
:1043A0000054656D706572617475726520556E6933
:1043B0007473002020473231203B004C696E6561E8
:1043C0007220556E697473003F4D65736820746F79
:1043D0006F2062696720666F7220454550524F4DCD
:1043E0002E0A00454550524F4D2064617461736937
:1043F0007A65206572726F722E0A00536574746953
:104400006E6720566F6C756D65204F6E203A2000E8
:1044100053657474696E67205374616E64627920A9
:104420004F6E203A200053657474696E6720566F92
:104430006C756D65203A200053657474696E672051
:10444000526F746174696F6E203A20005365747402
:10445000696E67205374616E6462792054696D657A
:10446000203A200053657474696E67205374616E3E
:10447000646279203A200053657474696E67204243
:1044800072696768746E657373203A20004C6F61BF
:1044900064696E67204457494E204C43442073653D
:1044A0007474696E672066726F6D20454550524F77
:1044B0004D0A0044697363617264696E67204457F2
:1044C000494E204C43442073657474696E672066BE
:1044D000726F6D20454550524F4D202D20736574ED
:1044E00074696E67732076657273696F6E20696E8A
:1044F000636F72726563740A004469736361726406
:10450000696E67204457494E204C434420736574BC
:1045100074696E672066726F6D20454550524F4D2D
:10452000202D2073697A6520696E636F72726563EE
:10453000740A0055424C2072657365740A00206C41
:104540006F616465642066726F6D2073746F726151
:1045500067652E0A004D657368200053746F72659D
:10456000642073657474696E677320726574726910
:104570006576656400290A002062797465733B20C2
:1045800063726320002073746F72656420736574B6
:1045900074696E67732072657472696576656420EC
:1045A0002800454550524F4D2043524320457272DA
:1045B0006F7200202863616C63756C617465642997
:1045C000210A0020213D2000454550524F4D2043F7
:1045D0005243206D69736D61746368202D202873C8
:1045E000746F7265642920002053697A653A20004F
:1045F000496E6465783A20000000FA430000FA43EF
:104600000000204100008C420000A0420000A042B7
:104610000000C84300000C43EE020000EE02000060
:10462000640000003C000000454550524F4D2056AC
:10463000657273696F6E204572726F7200204D61F2
:10464000726C696E3D563837290A00454550524F05
:104650004D2076657273696F6E206D69736D61743C
:1046600063682028454550524F4D3D0024F4D43016
:1046700050C38E20C2A24017828B7011127A910D06
:10468000816CD90AA861E108C758660761514306E1
:104690001E4B5D05C145A7041A411104093D98034D
:1046A000713931034036DB0265339102D430540254
:1046B000802E1D02632CEE01752AC501B028A001D1
:1046C000102781018F2564012B244B01E022340146
:1046D000AC211F018D200D01801FFC00841EED0008
:1046E000971DDF00B81CD200E61BC600201BBC00D3
:1046F000641AB200B219A8000A19A0006A18990039
:10470000D117910040178B00B516840031167E003A
:10471000B31579003A157300C7146F0058146A0076
:10472000EE1366008813630025135E00C7125B005A
:104730006C12570015125400C111510070114F0036
:1047400021114B00D61049008D104700461044003F
:1047500002104200C00F4000800F3E00420F3C009C
:10476000060F3B00CB0E3800930E37005C0E350071
:10477000270E3400F30D3200C10D3100900D3000D2
:10478000600D2E00320D2D00050D2C00D90C2B00D4
:10479000AE0C2900850C29005C0C2700350C270085
:1047A0000E0C2600E80B2400C40B2400A00B2300F1
:1047B0007D0B23005A0B2100390B2100180B200020
:1047C000F80A1F00D90A1E00BB0A1E009D0A1D0020
:1047D000800A1D00630A1C00470A1B002C0A1B00EC
:1047E000110A1A00F7091A00DD091900C409190095
:1047F000AB091900920917007B091800630917001B
:104800004C09160036091600200916000A09150081
:10481000F5081500E0081400CC081400B8081400CE
:10482000A4081400900813007D0812006B08130000
:10483000580812004608120034081100230811001D
:104840001208110001081100F0071000E007100025
:10485000D0071000C0071000B0070F00A10710001C
:1048600091070E0083070F0074070F0065070E0005
:1048700057070E0049070E003B070D002E070E00DC
:1048800020070D0013070D0006070D00F9060C00A8
:10489000ED060D00E0060C00D4060C00C8060C0066
:1048A000BC060C00B0060C00A4060B0099060C0018
:1048B0008D060B0082060B0077060B006C060B00C2
:1048C00061060A0057060B004C060A0042060A0061
:1048D00038060A002E060A0024060A001A060A00F4
:1048E0001006090007060A00FD050900F405090085
:1048F000EB050900E2050900D9050900D00509000A
:10490000C7050900BE050900B5050800AD0508008A
:10491000A50509009C050800940508008C05080001
:10492000840508007C050800740508006C05070074
:10493000650508005D050700560508004E050700DF
:104940004705070040050800380507003105070046
:104950002A050700230507001C05060016050700A9
:104960000F0507000805060002050700FB04060006
:10497000F5040700EE040600E8040600E204070060
:10498000DB040600D5040600CF040600C9040600B7
:10499000C3040600BD040600B7040600B104050008
:1049A000AC040600A6040600A00405009B04060053
:1049B00095040500900406008A040500850405009E
:1049C000800406007A0405007504050070040500E3
:1049D0006B04050066040500610405005C04050025
:1049E00057040500520405004D0405004804050065
:1049F000430405003E0404003A04050035040500A4
:104A0000300404002C0405002704040023040500DE
:104A10001E0404001A040400160405001104040016
:104A20000D0404000904050004040400000404004B
:104A3000FC030400F8030400F4030400F003040082
:104A4000EC030400E8030400E4030400E0030400B2
:104A5000DC030400D8030400D4030400D0030400E2
:104A6000CC030400C8030300C503030024F404D9E5
:104A7000201BC40C5C0E9804C4095F026507710119
:104A8000F405F900FB04B30048048700C103690082
:104A90005803550003034500BE023A00840231006A
:104AA00053022A002902250004022000E4011C0010
:104AB000C8011900AF011700980114008401130008
:104AC000710110006101100051010E0043010D0041
:104AD00036010B002B010B0020010B001501090012
:104AE0000C01090003010800FB000800F3000800A6
:104AF000EB000700E4000600DE000600D800060018
:104B0000D2000600CC000500C7000500C200050069
:104B1000BD000400B9000400B5000400B1000400A9
:104B2000AD000400A9000400A5000300A2000300DA
:104B30009F0004009B000300980003009500020002
:104B400093000300900003008D0002008B0003001F
:104B50008800020086000200840003008100020039
:104B60007F0002007D0002007B000200790002004D
:104B7000770001007600020074000200720001005C
:104B8000710002006F0002006D0001006C00020065
:104B90006A00010069000200670001006600010070
:104BA0006500010064000200620001006100010074
:104BB000600001005F0002005D0001005C00010078
:104BC0005B0001005A00010059000100580001007B
:104BD000570001005600010055000100540001007B
:104BE0005300000053000100520001005100010079
:104BF000500001004F0001004E0000004E00010077
:104C00004D0001004C0001004B0000004B00010072
:104C10004A0001004900010048000000480001006E
:104C2000470001004600000046000100450000006A
:104C30004500010044000100430000004300010062
:104C4000420000004200010041000000410001005C
:104C5000400001003F0000003F0001003E00000056
:104C60003E0001003D0000003D0001003C0000004E
:104C70003C0000003C0001003B0000003B00010044
:104C80003A0000003A00010039000000390001003C
:104C90003800000038000000380001003700000034
:104CA0003700010036000000360000003600010029
:104CB0003500000035000000350001003400000020
:104CC0003400000034000100330000003300000015
:104CD0003300010032000000320000003200010009
:104CE0003100000031000000310001003000000000
:104CF00030000000300001002F0000002F000000F5
:104D00002F0000002F0001002E0000002E000000E8
:104D10002E0001002D0000002D0000002D000000DD
:104D20002D0001002C0000002C0000002C000000D1
:104D30002C0001002B0000002B0000002B000000C5
:104D40002B0001002A0000002A0000002A000000B9
:104D50002A000100290000002900000029000000AD
:104D600029000000290001002800000028000000A0
:104D70002800000028000000280001002700000093
:104D80002700000027000000270000002700010086
:104D9000260000002600000026000000260000007B
:104DA000260001002500000025000000250000006D
:104DB000250000002500000025000100240000005F
:104DC0002400000024000000240000002400010052
:104DD0002300000023000000230000002300000047
:104DE0002300000023000000230001002200000037
:104DF000220000002200000022000000220000002B
:104E0000220001002100000021000000210000001C
:104E1000210000002100000021000000210001000D
:104E20002000000020000000200000002000000002
:104E300020000000200000002000000020000100F1
:104E40001F0000001F0000001F0000001F000000E6
:104E50001F0000001F0000001F0001001E000000D6
:104E60001E0000001E0000001E000000393000007F
:104E70003325000087190000B00F0000DB08000098
:104E8000BD040000740200003F01000020436F7564
:104E90006E7420583A0023646566696E6520444547
:104EA0004641554C545F0000626564004B6420002D
:104EB0004B6920004B7020005049442074756E6986
:104EC0006E6720646F6E6500504944204175746FB1
:104ED00074756E652066696E69736865642120501B
:104EE000757420746865206C617374204B702C207D
:104EF0004B6920616E64204B6420636F6E73746134
:104F00006E74732066726F6D2062656C6F772069B6
:104F10006E746F20436F6E66696775726174696F36
:104F20006E2E680A00504944204175746F74756E86
:104F300065206661696C6564212074696D656F75B3
:104F4000740A004175746F74756E65206661696CD2
:104F50006564212054696D656F75742E0050494455
:104F6000204175746F74756E65206661696C656447
:104F7000212054656D706572617475726520746F5F
:104F80006F20686967680A00504944204379636C60
:104F900065730025532025692F256900204B643A4D
:104FA0002000204B693A2000204B703A200020431B
:104FB0006C617373696320504944200A00204E6F6E
:104FC000206F76657273686F6F740A002054753AAB
:104FD0002000204B753A2000206D61783A20002097
:104FE0006D696E3A200020643A2000206269617386
:104FF0003A200048656174696E672E2E2E00504974
:1050000044204175746F74756E6520737461727499
:105010000A004175746F74756E65206661696C6510
:10502000642E2054656D70657261747572652074AC
:105030006F6F20686967682E00504944204175747D
:105040006F74756E65206661696C656421205465B6
:105050006D706572617475726520746F6F20686918
:1050600067680A0042656400453100450062656476
:10507000002C2073797374656D2073746F70706584
:105080006421204865617465725F49443A20004894
:10509000656174696E67204661696C656400486586
:1050A0006174696E67206661696C6564004D3131B9
:1050B000322053687574646F776E001000C9021057
:1050C000012C014001220170011801B0010E01F014
:1050D0000104015002FA00B002F0003003E600D0F3
:1050E00003DC009004D2007005C800A006BE0000DA
:1050F00008B400B009AA00D00BA000600E960060B2
:10510000118C000015820020197800C01D6E00A0CF
:10511000226400B0275A00902C500000314600E075
:10512000343C0010383200903A2800603C1E00A049
:105130003D1400803E0A00203F00004572723A2074
:105140004D415854454D50004D415854454D502007
:10515000747269676765726564004572723A204DC2
:10516000494E54454D50004D494E54454D502074C4
:10517000726967676572656400544845524D414CD9
:105180002052554E4157415900546865726D616C0B
:105190002052756E61776179000A0A0020205A5FFB
:1051A0004D494E3A002020595F4D494E3A0020208B
:1051B000585F4D494E3A00202F002042403A0020CF
:1051C000403A0020573A0020573A00496E76616C09
:1051D00069642065787472756465720A007C3C3E6F
:1051E0005E2B3D3F2F5B5D3B2C2A225C0043616EB2
:1051F0006E6F74206F70656E2073756264697220C3
:10520000004D6564696120496E6974204661696C6E
:105210000053442063617264206F6B0A006F7065F5
:105220006E526F6F74206661696C65640A00766FF8
:105230006C756D652E696E6974206661696C656454
:105240000A004E6F20534420636172640A000A4DC5
:105250003234004D3233202573002E0A006F706502
:105260006E206661696C65642C2046696C653A2025
:105270000046696C652073656C65637465640A003B
:105280002053697A653A200046696C65206F706525
:105290006E65643A2000454E4420535542524F55A6
:1052A00054494E450A002220706F7300222070611D
:1052B00072656E743A2200535542524F5554494E0E
:1052C000452043414C4C207461726765743A22005A
:1052D00053756263616C6C204F766572666C6F7794
:1052E000004578636565646564206D617820535579
:1052F00042524F5554494E452064657074683A00D7
:105300002E0A0044656C6574696F6E206661696C75
:1053100065642C2046696C653A200046696C6520FE
:1053200064656C657465643A005344207072696EFC
:1053300074696E67206279746520004E6F74205323
:1053400044207072696E74696E670A002F6175740B
:105350006F25632E670057726974696E6720746FDA
:105360002066696C653A2000667265736800646F38
:10537000696E67002066696C653A20004E6F772081
:10538000002020506C616E6E6572427566666572B3
:1053900042797465733A20002046726565204D6538
:1053A0006D6F72793A200020436F6D70696C65648F
:1053B0003A2041707220323820323032320A0020D6
:1053C0004C61737420557064617465643A203230A6
:1053D00032322D30342D3033207C20417574686F8B
:1053E000723A2054696E794D616368696E657333F2
:1053F000440A004D61726C696E20322E302E395F86
:105400004457372E342E360A0020536F6674776166
:1054100072652052657365740A0020576174636871
:10542000646F672052657365740A002042726F775B
:105430006E206F75742052657365740A002045787C
:105440007465726E616C2052657365740A00506FEA
:1054500077657255700A0073746172740A00473977
:10546000310A47315A350A4739300A4D38340A4D26
:1054700031303453300A4D3134305330004D3130F7
:105480003031006572726F722077726974696E676D
:1054900020746F2066696C650A00446F6E65207326
:1054A0006176696E672066696C652E0A004D323937
:1054B00000456E6473746F7073002553202563205C
:1054C000256320256320256300205A3A0020593A9D
:1054D0000020583A00656E6473746F7073206869B9
:1054E000743A200000002100240027002A002D002B
:1054F0003000330001010000040107010A0100002F
:105500002200250028002B002E003100340002016B
:105510000000050108010B01000020002300260007
:1055200029002C002F0032000001000003010601B9
:105530000901050505050705080808080202020219
:105540000A0A08080404040401010101010101011F
:105550000303030303030303040707070C0C0C0CEA
:105560000C0C0C0C020202020606060606060606D3
:105570000B0B0B0B0B0B0B0B010210202008081060
:1055800020401020408002010201080402010102B3
:10559000040810204080804020100804020180048C
:1055A00002018040201008040201080402010102E7
:1055B00004081020408001020408102040800000F0
:1055C0000A0B02090C0D0E0807030401000000007D
:1055D00000000000000000000000000000000000CB
:1055E0000000000000000000000012111000000088
:1055F00000000000000000000000000000000000AB
:1056000000000000FFFFFF726573756D6564004464
:1056100069736D69737300526573756D696E6700A8
:1056200073686F7700627574746F6E006265676986
:105630006E0044697361626C6552756E6F757400BB
:1056400050757267654D6F72650050617573656462
:1056500000436F6E74696E7565004C6F616420461F
:10566000696C616D656E742054004C6F61642046F6
:10567000696C616D656E7400496E73657274206645
:10568000696C616D656E7420616E642073656E6413
:10569000204D3130380A0020204D3230362058005D
:1056A000486F6D65206F6666736574004361703A7C
:1056B00000434F4E4649475F4558504F5254004DA6
:1056C0004541545041434B00434F4F4C45525F546A
:1056D000454D5045524154555245004348414D4275
:1056E00045525F54454D5045524154555245004234
:1056F0004142595354455050494E4700415243533B
:10570000004D4F54494F4E5F4D4F44455300544850
:1057100045524D414C5F50524F54454354494F4EB2
:1057200000455854454E4445445F4D323000435582
:1057300053544F4D5F4649524D574152455F555066
:105740004C4F4144004C464E5F5752495445004C23
:105750004F4E475F46494C454E414D4500415554DB
:105760004F5245504F52545F53445F535441545528
:10577000530053445F5752495445005245504541E8
:1057800054004D554C54495F564F4C554D450053B0
:1057900044434152440050524F4D50545F53555072
:1057A000504F525400484F53545F414354494F4E59
:1057B0005F434F4D4D414E445300454D4552474583
:1057C0004E43595F50415253455200434153455F48
:1057D0004C494748545F4252494748544E455353F9
:1057E00000544F47474C455F4C494748545300537A
:1057F0004F4654574152455F504F5745520042550E
:10580000494C445F50455243454E54004C45564523
:105810004C494E475F44415441005A5F50524F42F9
:10582000450052554E4F5554004155544F4C455626
:10583000454C005052494E545F4A4F420050524F1F
:105840004752455353004155544F5245504F5254BF
:105850005F54454D50004155544F5245504F52549E
:105860005F504F5300564F4C554D455452494300DD
:10587000454550524F4D0042494E4152595F4649AD
:105880004C455F5452414E53464552005345524990
:10589000414C5F584F4E5F584F4646004649524D67
:1058A000574152455F4E414D453A4D61726C696EAC
:1058B00020322E302E395F4457372E342E36205466
:1058C0004D33442053534D444E552028417072208F
:1058D000323820323032322030313A31303A3535B8
:1058E0002920534F555243455F434F44455F55521E
:1058F0004C3A68747470733A2F2F676974687562D4
:105900002E636F6D2F496E73616E69747941757482
:105910006F6D6174696F6E2F4D61726C696E2F745B
:105920007265652F437265616C6974794477696E3D
:105930005F322E302050524F544F434F4C5F5645EC
:105940005253494F4E3A312E30204D414348494E33
:10595000455F545950453A544D334420313053201B
:1059600050726F2045585452554445525F434F552D
:105970004E543A3120555549443A63656465326165
:1059800032662D343161322D343734382D3962315D
:10599000322D6335356336326633363766660A0034
:1059A000290A0020746F20003F5A206F7574206F01
:1059B000662072616E6765202800290A0020746FD6
:1059C00020003F59206F7574206F662072616E67EA
:1059D0006520282D00290A0020746F20003F5820E0
:1059E0006F7574206F662072616E676520282D00C8
:1059F000203B0020204D3835312058005A2D507260
:105A00006F6265204F66667365740043616E6E6FEA
:105A100074206F70656E2073756264697220002552
:105A200069730025696D2025697300256968202543
:105A3000696D202569730025696420256968202522
:105A4000696D202569730025697920256964202501
:105A500069682025696D2025697300436F6F6C6943
:105A60006E672E2E2E00453120255300426564209E
:105A7000436F6F6C696E672E2E2E0042656420485E
:105A8000656174696E672E2E2E003D3D4477696E08
:105A900020496E697420436F6D706C6574653D3D7F
:105AA00000202D206434200064333A2000202D2073
:105AB0006432200064313A2000202D206C656E2075
:105AC0000056502072656365697665643A200077F8
:105AD000616974776179203D3D0020202A2A2A2AB5
