:100000000C948F150C94C8150C94C8150C94C81535
:100010000C94C8150C94C8150C94C8150C94C815EC
:100020000C94C8150C94C8150C94C8150C94C815DC
:100030000C94C8150C942B290C94C8150C94C81555
:100040000C9400280C94C8150C9497B90C94C815FE
:100050000C94998A0C948F8A0C94C8150C94C8152A
:100060000C94C8150C94C8150C94C8150C94C8159C
:100070000C94C8150C94C8150C94C8150C94C8158C
:100080000C94C8150C94C8150C94C8154E414E49D3
:100090004E495459494E46CDCCCC3D0AD7233C1746
:1000A000B7D13877CC2B329595E6241FB14F0A0093
:1000B0000020410000C84200401C4620BCBE4CCA83
:1000C0001B0E5AAEC59D7400407A10F35A00A07200
:1000D0004E18090010A5D4E80000E8764817000083
:1000E000E40B54020000CA9A3B000000E1F5050051
:1000F0000080969800000040420F000000A086019A
:10010000000000102700000000E803000000006469
:1001100000000000000A00000000000100000000D4
:10012000002C76D888DC674F0823DFC1DFAE59E1A9
:10013000B1B796E5E3E453C63AE651997696E8E618
:10014000C28426EB898C9B62ED407C6FFCEFBC9CEB
:100150009F40F2BAA56FA5F490055A2AF75C936BFD
:100160006CF9676DC11BFCE0E40D47FEF520E6B5B8
:1001700000D0ED902E0300943577050080841E0892
:100180000000204E0A000000C80C333333330F98B0
:100190006E12831141EF8D2114893BE65516CFFE77
:1001A000E6DB18D1844B381BF77C1D901DA4BBE403
:1001B00024203284725E228100C9F124ECA1E53D45
:1001C0002741425300504C410063616E63656C00EF
:1001D0005072696E742041626F72746564004D32B2
:1001E000350050617573696E672E2E2E007265732F
:1001F000756D65004D32340046696C2E204469618E
:100200002E004F6666004F6E004520696E206D6DB2
:100210005E3300452073746570732F6D6D005A2036
:1002200053746570732F6D6D00592053746570732E
:100230002F6D6D00582053746570732F6D6D0041E4
:100240006476616E6365642053657474696E677368
:100250000046696C616D656E740053746570732F30
:100260006D6D00436F6E66696775726174696F6E5C
:10027000004C6576656C696E6720446F6E65210081
:100280004D6F7665205A004732395631004E6578F9
:100290007420506F696E74002569202F2025750029
:1002A000473239563100436C69636B20746F2042CA
:1002B0006567696E00486F6D696E672058595A000E
:1002C00053746F72652053657474696E6773004C64
:1002D0006F61642053657474696E6773004F66665E
:1002E000004F6E00426564204C6576656C696E67F0
:1002F000004C6576656C20426564004D6F74696FD3
:100300006E00526573746F72652044656661756C2A
:100310007473004C6F61642053657474696E677305
:100320000053746F72652053657474696E6773004F
:10033000416476616E6365642053657474696E67A9
:1003400073004D61696E004D3139305335350A47C0
:1003500032380A4732390A4D3430300A4D313034A0
:10036000533231350A4732380A4D31303953323140
:10037000350A4D34323053310A4731583130305913
:1003800031303046353030300A47315A300A4D3539
:1003900030300A4D37370A4D3131372053657420DC
:1003A0005A204F6666736574004D313036533132D2
:1003B000380A4D3330334338533231354530550ADE
:1003C0004D3530300A4D3131372050494420547575
:1003D0006E6520446F6E65004D3139305335350AF6
:1003E0004D313034533231350A4732380A473239C9
:1003F0004C310A4731205831303059313030463590
:100400003030300A47315A30004D3530300A4D31E6
:1004100031372053657474696E67732053746F723B
:1004200065640053746F72652053657474696E67F8
:1004300073005072657020666F72205A2041646AA2
:10044000757374005049442054756E65005365748B
:100450007570004D61696E003F004261636B00532F
:10046000746F70004D323200417474616368204DC6
:1004700065646961004D3231005072696E742066A6
:10048000726F6D204D656469610052656C656173C2
:1004900065204D65646961004C6576656C696E67C1
:1004A00020546F6F6C7300436F6E6669677572617D
:1004B00074696F6E0054656D7065726174757265F4
:1004C000004D6F74696F6E00537461727420486FD1
:1004D0007374205072696E7400526573756D652077
:1004E0005072696E740054756E650053746F70209D
:1004F0005072696E74005061757365205072696E38
:100500007400496E666F2053637265656E004361C7
:100510006E6E6F7420656E746572207375626469A7
:10052000723A200002202E2E000152656672657319
:1005300068004D61696E002100486F74656E64202B
:10054000746F6F20636F6C64004261636B00507264
:100550006F63656564004D6F74696F6E0044697305
:1005600061626C65205374657070657273004D38FC
:100570003400426564204C6576656C696E670041A5
:1005800075746F20486F6D6500473238004D6169A2
:100590006E005072656865617420242042656400B5
:1005A00050726568656174202420456E640054654E
:1005B0006D706572617475726500C501C101436F2C
:1005C0006F6C646F776E005072656865617420248B
:1005D0000046616E20537065656400426564004E9C
:1005E0006F7A7A6C65004D61696E00546F74616C4E
:1005F000004261627973746570205A00466C6F77AF
:100600000046616E20537065656400426564004E6B
:100610006F7A7A6C65005370656564004D61696E30
:1006200000486F6D696E67204661696C6564006F94
:1006300070656E00545249474745524544003A2080
:10064000007A5F6D696E00795F6D696E00785F6D2D
:10065000696E005265706F7274696E6720656E64B2
:1006600073746F70207374617475730A0020746FF3
:100670006F206C6F6E6720657874727573696F6E2A
:100680002070726576656E7465640A0020636F6C15
:100690006420657874727573696F6E207072657608
:1006A000656E7465640A0000000000000000000030
:1006B0000000005761726E696E673A20486F6D697D
:1006C0006E672042756D702044697669736F722081
:1006D0003C20310A0002020400809D4300009B433D
:1006E0000000C8430000004100000041000000403D
:1006F00000809D4300009B430000C84300000000B1
:10070000000000000000000053657474696E677398
:100710002053746F72656400454550524F4D204917
:100720006E697469616C697A65640A000000FA4355
:100730000000FA4300002041000096420000A04261
:100740000000A0420000C8430000BE42DC050000DB
:10075000DC050000640000004B00000024F4D430ED
:1007600050C38E20C2A24017828B7011127A910D55
:10077000816CD90AA861E108C75866076151430630
:100780001E4B5D05C145A7041A411104093D98039C
:10079000713931034036DB0265339102D4305402A3
:1007A000802E1D02632CEE01752AC501B028A00120
:1007B000102781018F2564012B244B01E022340195
:1007C000AC211F018D200D01801FFC00841EED0057
:1007D000971DDF00B81CD200E61BC600201BBC0022
:1007E000641AB200B219A8000A19A0006A18990088
:1007F000D117910040178B00B516840031167E008A
:10080000B31579003A157300C7146F0058146A00C5
:10081000EE1366008813630025135E00C7125B00A9
:100820006C12570015125400C111510070114F0085
:1008300021114B00D61049008D104700461044008E
:1008400002104200C00F4000800F3E00420F3C00EB
:10085000060F3B00CB0E3800930E37005C0E3500C0
:10086000270E3400F30D3200C10D3100900D300021
:10087000600D2E00320D2D00050D2C00D90C2B0023
:10088000AE0C2900850C29005C0C2700350C2700D4
:100890000E0C2600E80B2400C40B2400A00B230040
:1008A0007D0B23005A0B2100390B2100180B20006F
:1008B000F80A1F00D90A1E00BB0A1E009D0A1D006F
:1008C000800A1D00630A1C00470A1B002C0A1B003B
:1008D000110A1A00F7091A00DD091900C4091900E4
:1008E000AB091900920917007B091800630917006A
:1008F0004C09160036091600200916000A091500D1
:10090000F5081500E0081400CC081400B80814001D
:10091000A4081400900813007D0812006B0813004F
:10092000580812004608120034081100230811006C
:100930001208110001081100F0071000E007100074
:10094000D0071000C0071000B0070F00A10710006B
:1009500091070E0083070F0074070F0065070E0054
:1009600057070E0049070E003B070D002E070E002B
:1009700020070D0013070D0006070D00F9060C00F7
:10098000ED060D00E0060C00D4060C00C8060C00B5
:10099000BC060C00B0060C00A4060B0099060C0067
:1009A0008D060B0082060B0077060B006C060B0011
:1009B00061060A0057060B004C060A0042060A00B0
:1009C00038060A002E060A0024060A001A060A0043
:1009D0001006090007060A00FD050900F4050900D4
:1009E000EB050900E2050900D9050900D005090059
:1009F000C7050900BE050900B5050800AD050800DA
:100A0000A50509009C050800940508008C05080050
:100A1000840508007C050800740508006C050700C3
:100A2000650508005D050700560508004E0507002E
:100A30004705070040050800380507003105070095
:100A40002A050700230507001C05060016050700F8
:100A50000F0507000805060002050700FB04060055
:100A6000F5040700EE040600E8040600E2040700AF
:100A7000DB040600D5040600CF040600C904060006
:100A8000C3040600BD040600B7040600B104050057
:100A9000AC040600A6040600A00405009B040600A2
:100AA00095040500900406008A04050085040500ED
:100AB000800406007A040500750405007004050032
:100AC0006B04050066040500610405005C04050074
:100AD00057040500520405004D04050048040500B4
:100AE000430405003E0404003A04050035040500F3
:100AF000300404002C04050027040400230405002E
:100B00001E0404001A040400160405001104040065
:100B10000D0404000904050004040400000404009A
:100B2000FC030400F8030400F4030400F0030400D1
:100B3000EC030400E8030400E4030400E003040001
:100B4000DC030400D8030400D4030400D003040031
:100B5000CC030400C8030300C503030024F404D934
:100B6000201BC40C5C0E9804C4095F026507710168
:100B7000F405F900FB04B30048048700C1036900D1
:100B80005803550003034500BE023A0084023100B9
:100B900053022A002902250004022000E4011C005F
:100BA000C8011900AF011700980114008401130057
:100BB000710110006101100051010E0043010D0090
:100BC00036010B002B010B0020010B001501090061
:100BD0000C01090003010800FB000800F3000800F5
:100BE000EB000700E4000600DE000600D800060067
:100BF000D2000600CC000500C7000500C2000500B9
:100C0000BD000400B9000400B5000400B1000400F8
:100C1000AD000400A9000400A5000300A200030029
:100C20009F0004009B000300980003009500020051
:100C300093000300900003008D0002008B0003006E
:100C40008800020086000200840003008100020088
:100C50007F0002007D0002007B000200790002009C
:100C600077000100760002007400020072000100AB
:100C7000710002006F0002006D0001006C000200B4
:100C80006A000100690002006700010066000100BF
:100C900065000100640002006200010061000100C3
:100CA000600001005F0002005D0001005C000100C7
:100CB0005B0001005A0001005900010058000100CA
:100CC00057000100560001005500010054000100CA
:100CD00053000000530001005200010051000100C8
:100CE000500001004F0001004E0000004E000100C6
:100CF0004D0001004C0001004B0000004B000100C2
:100D00004A000100490001004800000048000100BD
:100D100047000100460000004600010045000000B9
:100D200045000100440001004300000043000100B1
:100D300042000000420001004100000041000100AB
:100D4000400001003F0000003F0001003E000000A5
:100D50003E0001003D0000003D0001003C0000009D
:100D60003C0000003C0001003B0000003B00010093
:100D70003A0000003A00010039000000390001008B
:100D80003800000038000000380001003700000083
:100D90003700010036000000360000003600010078
:100DA000350000003500000035000100340000006F
:100DB0003400000034000100330000003300000064
:100DC0003300010032000000320000003200010058
:100DD000310000003100000031000100300000004F
:100DE00030000000300001002F0000002F00000044
:100DF0002F0000002F0001002E0000002E00000038
:100E00002E0001002D0000002D0000002D0000002C
:100E10002D0001002C0000002C0000002C00000020
:100E20002C0001002B0000002B0000002B00000014
:100E30002B0001002A0000002A0000002A00000008
:100E40002A000100290000002900000029000000FC
:100E500029000000290001002800000028000000EF
:100E600028000000280000002800010027000000E2
:100E700027000000270000002700000027000100D5
:100E800026000000260000002600000026000000CA
:100E900026000100250000002500000025000000BC
:100EA00025000000250000002500010024000000AE
:100EB00024000000240000002400000024000100A1
:100EC0002300000023000000230000002300000096
:100ED0002300000023000000230001002200000086
:100EE000220000002200000022000000220000007A
:100EF000220001002100000021000000210000006C
:100F0000210000002100000021000000210001005C
:100F10002000000020000000200000002000000051
:100F20002000000020000000200000002000010040
:100F30001F0000001F0000001F0000001F00000035
:100F40001F0000001F0000001F0001001E00000025
:100F50001E0000001E0000001E00000004370000FC
:100F60001E290000511B000058100000100900004D
:100F7000CC040000780200004101000020436F759E
:100F80006E7420583A0042656400453100450062A5
:100F90006564002C2073797374656D2073746F70B1
:100FA00070656421204865617465725F49443A2028
:100FB0000048656174696E67204661696C6564000C
:100FC00048656174696E67206661696C6564004D8F
:100FD0003131322053687574646F776E001000C928
:100FE0000210012C014001220170011801B0010E14
:100FF00001F00104015002FA00B002F0003003E6F3
:1010000000D003DC009004D2007005C800A006BE2A
:10101000000008B400B009AA00D00BA000600E9632
:101020000060118C000015820020197800C01D6E30
:1010300000A0226400B0275A00902C5000003146D6
:1010400000E0343C0010383200903A2800603C1E2A
:1010500000A03D1400803E0A00203F00004572724F
:101060003A204D415854454D50004D415854454D3E
:101070005020747269676765726564004572723AE0
:10108000204D494E54454D50004D494E54454D500C
:101090002074726967676572656400544845524DF3
:1010A000414C2052554E4157415900546865726D6C
:1010B000616C2052756E61776179000A0A00202008
:1010C0005A5F4D494E3A002020595F4D494E3A0033
:1010D0002020585F4D494E3A00202F002042403AD0
:1010E0000020403A007C3C3E5E2B3D3F2F5B5D3B49
:1010F0002C2A225C005A5F53544F505F50494E00D7
:101100005A5F535445505F50494E005A5F4D494E07
:101110005F50494E005A5F454E41424C455F504931
:101120004E005A5F4449525F50494E00595F535434
:101130004F505F50494E00595F535445505F5049DE
:101140004E00595F4D494E5F50494E00595F454E24
:1011500041424C455F50494E00595F4449525F50EF
:10116000494E00585F53544F505F50494E00585FEE
:10117000535445505F50494E00585F4D494E5F50A3
:10118000494E00585F454E41424C455F50494E0024
:10119000585F4449525F50494E0053445353004CEA
:1011A00043445F53445353004C43445F50494E53B0
:1011B0005F5253004C43445F50494E535F454E418C
:1011C000424C45004C43445F50494E535F44340009
:1011D0004845415445525F4245445F50494E00489E
:1011E00045415445525F305F50494E0046414E5F85
:1011F00050494E0045305F535445505F50494E00B2
:1012000045305F454E41424C455F50494E004530A8
:101210005F4449525F50494E00444F474C43445F3E
:1012200053434B00444F474C43445F4D4F53490099
:1012300042544E5F454E430042544E5F454E32008D
:1012400042544E5F454E31004245455045525F5035
:10125000494E004156525F53535F50494E0041562C
:10126000525F53434B5F50494E004156525F4D4FC2
:1012700053495F50494E004156525F4D49534F5FAD
:1012800050494E0054454D505F4245445F50494ED1
:101290000054454D505F305F50494E005458443023
:1012A000005258443000434F4D4D554E4943415430
:1012B000494F4E0044525952554E004552524F52DA
:1012C0005300494E464F004543484F000F150E123C
:1012D00016170E1303021A1401000E0D18040C1930
:1012E0000001506C65617365205265736574005030
:1012F00052494E5445522048414C544544002553D0
:101300003A20255300706F7765726F6666004B490F
:101310004C4C45442E20005072696E7465722068F2
:10132000616C7465642E206B696C6C282920636184
:101330006C6C6564210A006563686F3A00457272DF
:101340006F723A0042696C696E656172204C657615
:10135000656C696E6720477269643A0A007374614C
:10136000727400477269642070726F62696E6720E0
:10137000646F6E652E0A0069646C650A00206F66F2
:101380002000706F696E7420004D616E75616C2075
:1013900047323920004D616E75616C20473239202B
:1013A00061626F727465640A002028445259525574
:1013B0004E2900473239204175746F204265642000
:1013C0004C6576656C696E67003F20284C2C522C6A
:1013D000462C4229206F7574206F6620626F756EEF
:1013E00064732E0A003F2856296572626F73652068
:1013F0006C6576656C20696D706C61757369626C83
:10140000652028302D34292E0A00426164205A209C
:1014100076616C75650A004E6F2062696C696E6555
:10142000617220677269640A004732384C300020CC
:10143000530020204D3230352042005741524E4952
:101440004E4721204C6F77205A204A65726B206DE1
:101450006179206C65616420746F20756E77616EB0
:10146000746564207061757365732E0A0050574D62
:101470003A20202534640050574D3A20202534640A
:101480000050574D3A20202534640050574D3A20E3
:10149000202534640050574D3A20202534640050F4
:1014A000574D3A20202534640050574D3A202025CE
:1014B00034640050574D3A2020253464003A20000F
:1014C00020202020434F4D002020206E6F6E2D7372
:1014D00074616E646172642050574D206D6F646555
:1014E00000202020636F6D7061726520696E7465E5
:1014F000727275707420656E61626C656400202084
:10150000206F766572666C6F7720696E7465727293
:1015100075707420656E61626C6564003A2000200D
:1015200020202054494D534B00423A2000202020D7
:10153000205443435200413A2000202020205443AD
:101540004352002020202043533A20002020202016
:1015500057474D3A200050574D3A2020253464001B
:1015600050574D3A202025346400470048000000C1
:1015700088008A000000B300B400000098009A00C0
:1015800000002020202054494D45520044004500D1
:101590006E00800081006F00B000B100700090000C
:1015A000910071002020002020506F72743A2000BA
:1015B00020202000202020416E616C6F6720696E22
:1015C000203D2025356C64003C756E757365642F75
:1015D000756E6B6E6F776E3E002028412532642950
:1015E000202000253364200050494E3A20004F75DA
:1015F00074707574203D2000496E70757420203D14
:101600002000416E616C6F6720696E203D2025359A
:101610006C640070726F74656374656420002028C8
:101620004125326429202000253364200050494E92
:101630003A2000A11208019C12090191121800849D
:10164000121900771206016A1205015E1207015392
:1016500012040148121B0140120B0138120A01301A
:1016600012100124120501191207010E12000100C7
:10167000120E01F4110101EC110401DF110D01D072
:10168000110C01C4111E01B4111101A8111C019FFC
:10169000111F019A111F019011150183110E01797B
:1016A0001112016E110F0163111201591117014C32
:1016B000110E0142111301371116012C11130122D1
:1016C00011020115111A010B11140100110301F58A
:1016D000101401446F6E652E0A0050756C73696EAC
:1016E0006720202000556E746F7563686564200064
:1016F000534552564F206E6F742073657420757079
:101700002E0A005761746368696E672070696E7392
:101710000A0064697300656E0061626C65640A00AA
:10172000656E6473746F70206D6F6E69746F722074
:10173000002E0A00206E6F742064697361626C650C
:10174000642E205368617265642077697468002094
:10175000496E76616C69642065787472756465722F
:101760002000536C6565702E2E2E004D6573682029
:10177000706F696E74206F7574206F662072616E71
:1017800067650A00436C69636B20746F2052657350
:10179000756D652E2E2E00616C736F20656E616213
:1017A0006C6564290A004E6F204D6F76652E0045EA
:1017B0006E642066696C65206C6973740A0042650A
:1017C00067696E2066696C65206C6973740A004EE7
:1017D0006F206D656469610A00706175736500282A
:1017E0006E6F2066696C65290043757272656E7450
:1017F0002066696C653A20005344207072696E74EB
:10180000696E67206279746520004E6F74205344BE
:10181000207072696E74696E670A002E0A00446552
:101820006C6574696F6E206661696C65642C204616
:10183000696C653A200046696C652064656C657466
:1018400065643A002569730025696D202569730078
:101850002569682025696D20256973002569642044
:101860002569682025696D2025697300256979201F
:10187000256964202569682025696D202569730024
:101880005072696E742074696D653A20003F43613F
:101890006E6E6F7420777269746520746F20494E84
:1018A0005055540A00496E76616C69642050696E27
:1018B000204D6F64650A006F6B006F666600C7128B
:1018C000C212BB12B412A61244454255473A005305
:1018D000755065522043522D3130204F46462E0020
:1018E00020204D39322058004649524D574152452B
:1018F0005F4E414D453A4D61726C696E20322E301B
:101900002E395F4457372E342E3620544D33442021
:101910004F534D444E4220284170722032382032BD
:101920003032322030313A34393A32392920534F6B
:10193000555243455F434F44455F55524C3A687496
:101940007470733A2F2F6769746875622E636F6DB8
:101950002F496E73616E6974794175746F6D61742E
:10196000696F6E2F4D61726C696E2F747265652F91
:10197000437265616C6974794477696E5F322E30A9
:101980002050524F544F434F4C5F56455253494F8E
:101990004E3A312E30204D414348494E455F54590F
:1019A00050453A53755065522043522D31302045F1
:1019B000585452554445525F434F554E543A312086
:1019C000555549443A63656465326132662D343158
:1019D00061322D343734382D396231322D6335354B
:1019E0006336326633363766660A002F2F004D3174
:1019F000343520533C696E6465783E206F757420E1
:101A00006F662072616E67652028302D31290A00CB
:101A100020440020204D32303020530020204D3211
:101A2000303120580020450020204D3230332058DE
:101A30000020540020520020204D3230342050002D
:101A400020204D323036205800205A0020590020E6
:101A5000580020204D61783A2000200020204D6958
:101A60006E3A2000203B200020204D32313120539F
:101A70000046523A0020466C6F773A200050726F51
:101A80007465637465642050696E0A00426162790E
:101A900073746570205A0020440020490020204DB6
:101AA00033303120500064697300656E0043290AA9
:101AB0000061626C656420286D696E2074656D70CC
:101AC0002000436F6C6420657874727564657320C0
:101AD00061726520004F4646004F4E00426564200B
:101AE0004C6576656C696E6720004661696C65645B
:101AF00020746F20656E61626C6520426564204CC5
:101B00006576656C696E670A00496E76616C69641A
:101B1000206D6573682E0A004D34323120696E6382
:101B20006F727265637420706172616D6574657245
:101B30002075736167650A004D65736820706F6971
:101B40006E74206F7574206F662072616E67650A0F
:101B5000004F666673657473204170706C696564CC
:101B6000004572723A20546F6F20666172210054F2
:101B70006F6F206661722066726F6D207265666598
:101B800072656E636520706F696E740A004545501A
:101B9000524F4D204F4B0A004D383400446F6E6554
:101BA000207072696E74696E672066696C650A00E0
:101BB0004D3737004D333100496E76616C696420D2
:101BC00065787472756465720A0020573A00436F35
:101BD0006F6C696E672E2E2E004531202553002034
:101BE000573A0042656420436F6F6C696E672E2E12
:101BF0002E004265642048656174696E672E2E2E42
:101C00000023646566696E652044454641554C5421
:101C10005F004B6420004B6920004B70200050494E
:101C200044204175746F74756E652066696E6973C2
:101C3000686564212050757420746865206C617338
:101C400074204B702C204B6920616E64204B642003
:101C5000636F6E7374616E74732066726F6D206251
:101C6000656C6F7720696E746F20436F6E6669676D
:101C700075726174696F6E2E680A00504944204184
:101C800075746F74756E65206661696C656421207A
:101C900074696D656F75740A00504944204175740C
:101CA0006F74756E65206661696C6564212054658A
:101CB0006D706572617475726520746F6F206869EC
:101CC00067680A00504944204379636C65730025B6
:101CD000532025692F256900204B643A2000204BB2
:101CE000693A2000204B703A200020436C617373E6
:101CF000696320504944200A002054753A2000208E
:101D00004B753A2000206D61783A2000206D696E95
:101D10003A200020643A200020626961733A200072
:101D200048656174696E672E2E2E0050494420412B
:101D300075746F74756E652073746172740A0050E7
:101D40004944204175746F74756E65206661696CD5
:101D50006564212054656D706572617475726520CB
:101D6000746F6F20686967680A00504944204175A4
:101D7000746F74756E6500504944204175746F74BA
:101D8000756E65206661696C65642120426164201E
:101D90006865617465722069640A004572723A2050
:101DA0007574663820666F6E74206E6F7420696E6D
:101DB000697469616C697A65642E004572723A20B3
:101DC0007574663820666F6E74206E6F7420696E4D
:101DD000697469616C697A65642E004572723A2093
:101DE0007574663820666F6E74206E6F7420696E2D
:101DF000697469616C697A65642E002568753A2595
:101E0000303268750025303268753A253032687591
:101E100000253032687527253032687500256875D1
:101E2000642025303268753A253032687500426585
:101E30006400456E636C6F7375726500202020200E
:101E4000202020002020202000657272001FE0204A
:101E500010201020101020102020102010303008EA
:101E600040048003003FFFF038007030FC3020FC5D
:101E7000102078102030102C00D02E31D02F7BD0A5
:101E80002F7BD02E31D02C00D02030102078102085
:101E9000FC1030FC303800703FFFF03FFFF038009E
:101EA000703186302387102787902F87D02F03D05B
:101EB0002030102078102078102030102F03D02FE1
:101EC00087D02787902387103186303800703FFFF6
:101ED000F00410400208200208200410400820806E
:101EE0001041001041000820800410400000001F35
:101EF000FFF81FFFF8000C0F00FE07022503BB01CF
:101F00007FFE08FE08FE05080806000040F0C888AD
:101F100088987810050808060000C0F88888888826
:101F200088F80505050600012030F830200508086E
:101F30000600002070F820202020E0050909060096
:101F4000FF2070A8A8B88888702007050507000141
:101F5000D86C366CD80509090600FFF8A88888886F
:101F60008888A8F8050A0A0600FE205050505088BC
:101F7000A8A8887003030306000340A040FFFFFFEA
:101F8000FFFFFFFFFFFFFFFFFFFFFFFFFFFFFFFF61
:101F9000FFFFFF0000000605FF01070706020080A3
:101FA000808080800080030303060105A0A0A005B7
:101FB000060606000050F85050F8500509090600C2
:101FC000FF2070A8A07028A8702005070706000051
:101FD000C8C8102040989805070706000040A0A038
:101FE00040A8906801030306020580808003090968
:101FF0000601FF2040408080804040200309090600
:1020000001FF804040202020404080050707060057
:102010000020A8702070A8200505050600012020DA
:10202000F820200203030601FFC0408005010106DD
:102030000003F8020202060100C0C00507070600FF
:102040000008101020404080050707060000708837
:1020500098A8C8887003070706010040C0404040A8
:1020600040E0050707060000708808102040F805CA
:102070000707060000F808103008887005070706F3
:10208000000010305090F81010050707060000F807
:1020900080F008088870050707060000304080F0CF
:1020A000888870050707060000F808101020202017
:1020B0000507070600007088887088887005070784
:1020C0000600007088887808106002050506010087
:1020D000C0C000C0C00206060601FFC0C000C0406C
:1020E000800305050601012040804020050303060A
:1020F0000002F800F8030505060101804020408039
:10210000050707060000708810202000200507073B
:102110000600007088B8A8B88070050707060000A0
:10212000708888F8888888050707060000F0484806
:10213000704848F005070706000070888080808896
:1021400070050707060000F04848484848F00507B2
:1021500007060000F88080F08080F8050707060079
:1021600000F88080F08080800507070600007088F6
:102170008080988870050707060000888888F8889E
:102180008888030707060100E04040404040E00522
:1021900007070600003810101010906005070706AA
:1021A00000008890A0C0A090880507070600008066
:1021B0008080808080F805070706000088D8A888FE
:1021C0008888880507070600008888C8A898888836
:1021D000050707060000708888888888700507074B
:1021E000060000F08888F080808005070706000060
:1021F00070888888A89068050707060000F088881E
:10220000F0A0908805070706000070888070088895
:1022100070050707060000F8202020202020050771
:1022200007060000888888888888700507070600E8
:102230000088888888505020050707060000888895
:102240008888A8A8500507070600008888502050F5
:102250008888050707060000888850202020200570
:102260000707060000F80810204080F80309090657
:1022700001FFE080808080808080E0050707060005
:1022800000804040201010080309090601FFE020EB
:10229000202020202020E005030306000520508890
:1022A0000501010600FEF803030306010580402036
:1022B0000505050600007008788878050707060000
:1022C000008080F0888888F0050505060000708091
:1022D00080887005070706000008087888888878D5
:1022E0000505050600007088F080700507070600E8
:1022F00000304840E04040400507070600FE708877
:1023000088887808700507070600008080F08888B4
:1023100088880307070601004000C0404040E004F1
:1023200009090601FE10003010101010906005071A
:102330000706000080808890E09088030707060168
:1023400000C04040404040E0050505060000D0A820
:10235000A8A8A8050505060000B0C8888888050556
:102360000506000070888888700507070600FEF0E3
:10237000888888F080800507070600FE78888888AE
:10238000780808050505060000B0C88080800505AE
:102390000506000078807008F00507070600002099
:1023A00020F8202020180505050600008888889858
:1023B0006805050506000088888850200505050683
:1023C00000008888A8A85005050506000088502050
:1023D00050880507070600FE888888502040800541
:1023E0000505060000F8102040F80309090601FF62
:1023F0002040404080404040200109090602FF8003
:1024000080808080808080800309090601FF8040F1
:102410004040204040408005030306000248A89049
:10242000FF43616E6E6F74206F70656E207375620E
:10243000646972200053442063617264206F6B0AE8
:10244000006F70656E526F6F74206661696C6564B1
:102450000A00766F6C756D652E696E697420666111
:10246000696C65640A004E6F205344206361726496
:102470000A000A4D3234004D3233202573002E0AF3
:10248000006F70656E206661696C65642C2046691A
:102490006C653A200046696C652073656C656374F1
:1024A00065640A002053697A653A200046696C65C4
:1024B000206F70656E65643A2000454E4420535588
:1024C00042524F5554494E450A002220706F730006
:1024D0002220706172656E743A2200535542524F49
:1024E0005554494E452043414C4C207461726765F8
:1024F000743A220053756263616C6C204F7665728A
:10250000666C6F77004578636565646564206D610E
:102510007820535542524F5554494E4520646570BA
:1025200074683A0057726974696E6720746F206628
:10253000696C653A2000667265736800646F696E45
:1025400067002066696C653A20004E6F7720002F87
:102550006175746F25632E67006001F4017001EAF4
:10256000019001E001B001D601D001CC010002C20E
:10257000013002B8016002AE019002A401D0029ABB
:10258000012003900170038601C0037C01300472B6
:1025900001A004680120055E01B005540160064AEF
:1025A0000120074001F0073601F0082C01100A2233
:1025B00001500B1801C00C0E01500E04013010FA2E
:1025C000002012F0005014E600C016DC007019D292
:1025D00000501CC800501FBE007022B400B025AAD5
:1025E00000F028A000202C9600302F8C00103282A2
:1025F00000A0347800F0366E00E0386400803A5A6B
:1026000000403B5500E03B5000F03C4600C03D3CE4
:1026100000603E3200E03E2800303F1E00503F196F
:1026200000703F1400A03F0A00C03F0000D03FF6FA
:10263000FFE03FECFF2020506C616E6E65724275CA
:102640006666657242797465733A20002046726549
:1026500065204D656D6F72793A200020436F6D7073
:10266000696C65643A204170722032382032303211
:10267000320A00204C617374205570646174656483
:102680003A20323032322D30342D3033207C20410C
:102690007574686F723A2054696E794D6163686928
:1026A0006E657333440A004D61726C696E20322E80
:1026B000302E395F4457372E342E360A0020536FA0
:1026C0006674776172652052657365740A002057DD
:1026D00061746368646F672052657365740A0020D3
:1026E00042726F776E206F75742052657365740A3D
:1026F000002045787465726E616C20526573657454
:102700000A00506F77657255700A007374617274B5
:102710000A004739310A47315A350A4739300A4DDC
:1027200038340A4D31303453300A4D31343053305F
:10273000004D31303031006F6B006572726F722066
:1027400077726974696E6720746F2066696C650AB8
:1027500000446F6E6520736176696E672066696CF0
:10276000652E0A00456E6473746F707300255320E4
:10277000256320256320256320256300205A3A0025
:1027800020593A0020583A00656E6473746F707374
:10279000206869743A200000002100240027002AE4
:1027A0000000002200250028002B0000002000234C
:1027B00000260029000202020202020202040404AE
:1027C00004040404040303030303030303010101DA
:1027D00001010101010102040810204080010204EE
:1027E0000810204080010204081020408080402012
:1027F0001008040201004D6F76652025736D6D0091
:102800004D6F766520302E316D6D004D6F766520F1
:10281000316D6D004D6F76652031306D6D004D6FFF
:1028200076652041786973004D6F76652045787430
:102830007275646572004D6F7665205A004D6F7633
:10284000652059004D6F76652058005072696E748E
:102850002066726F6D204D6564696100FFFFFF2285
:102860000A00556E6B6E6F776E20636F6D6D616ED3
:10287000643A2022004572726F722077726974691F
:102880006E6720746F20454550524F4D210A004D10
:102890006564696120496E73657274656400486F90
:1028A00074656E642049646C652054696D656F754C
:1028B0007400486F74656E642049646C65205469C7
:1028C0006D656F75740A002121204B494C4C2063C3
:1028D000617573656420627920746F6F206D756314
:1028E0006820696E6163746976652074696D65201E
:1028F0002D2063757272656E7420636F6D6D616EED
:10290000643A200053544F505045442E20005072DA
:10291000696E7465722073746F707065642064757D
:102920006520746F206572726F72732E204669780D
:1029300020746865206572726F7220616E64207504
:102940007365204D39393920746F20726573746155
:1029500072742E202854656D70657261747572658D
:102960002069732072657365742E20536574206925
:102970007420616674657220726573746172746923
:102980006E67290A004E6F20436865636B73756D2F
:102990002077697468206C696E65206E756D62655C
:1029A000722C204C617374204C696E653A20004D86
:1029B0003239004E6F20436865636B73756D207705
:1029C000697468206C696E65206E756D6265722C25
:1029D000204C617374204C696E653A200063686511
:1029E000636B73756D206D69736D617463682C2002
:1029F0004C617374204C696E653A20004C696E65B9
:102A0000204E756D626572206973206E6F74204C64
:102A1000617374204C696E65204E756D6265722B12
:102A2000312C204C617374204C696E653A20004D46
:102A30003131300053657269616C20737461747553
:102A400073206D69736D617463680A00534420726A
:102A5000656164206572726F720A0020746F6F2066
:102A60006C6F6E6720657874727573696F6E207015
:102A7000726576656E7465640A0020636F6C64200D
:102A8000657874727573696F6E2070726576656EA5
:102A90007465640A00486F6D65202573257325737E
:102AA0002046697273740020453A00205A3A00208B
:102AB000593A00583A006F6B0A00526573656E64AC
:102AC0003A2000000000010200090A000000000492
:102AD00003080700000000000000000000000000E4
:102AE00000000053755065522043522D3130205262
:102AF000656164792E005072696E74696E672E2E5E
:102B00002E005072696E7420506175736564002FD9
:102B10002F616374696F6E3A0000B4D94FE01124DD
:102B20001FBECFEFD0E4DEBFCDBF84B78093D918EE
:102B300014BE0FB6F894A8958091600088618093C8
:102B40006000109260000FBE12E0A0E0B1E0E8EE7D
:102B5000FCED01E00BBF02C007900D92A037B1075A
:102B6000D9F728E1A0E7B2E001C01D92A93DB20764
:102B7000E1F715E1CEE8D5E104C02197FE010E94FE
:102B8000D6EBCD38D107C9F70E948BDA0C9467EEEB
:102B90000C9400000F931F93CF93DF93CDB7DEB754
:102BA00060970FB6F894DEBF0FBECDBF8C01DC017D
:102BB000ED91FC910280F381E02DBE016F5F7F4FAC
:102BC0000995882309F464C08981807CC9F56F81E7
:102BD000637070E0762F6627770F770F8885B4E0F3
:102BE0008B9FC0011124682B792B8985829586954E
:102BF00086958370682B6F5F7F4F90E080E02A8519
:102C00002370220F3B8537FB332730F9232B3E817E
:102C10003F70230F3327331F2750310904C0660F3D
:102C2000771F881F991F2A95D2F760960FB6F894E0
:102C3000DEBF0FBECDBFDF91CF911F910F910895E1
:102C4000803419F568856695669570E090E080E0BF
:102C5000CB01772766272A85622B098510E0102F84
:102C60000027012E000C220B330B602B712B822BC3
:102C7000932B6F5F7F4F8F4F9F4F4AE0660F771FF9
:102C8000881F991F4A95D1F7D0CF8BE0F801848334
:102C900060E070E0CB01C9CF0895FC018281089506
:102CA000CF93DF93C091FE06D091FF0681E0CE3135
:102CB000D105E4F020E030E040E05FE36091FA0607
:102CC0007091FB068091FC069091FD060E94E8EB56
:102CD0000E94DDEC6C1B7D0B77FF03C07195619545
:102CE000710981E0633071050CF080E0DF91CF91D4
:102CF0000895FC0190E1ADEEB3E001900D929A953C
:102D0000E1F70895CF92DF92EF92FF928091BD029A
:102D1000882309F457C0C090B902D090BA02E0905D
:102D2000BB02F090BC0220E030E0A901C701B6016F
:102D30000E94F1E4882309F445C020E030E040E03F
:102D40005FE3C701B6010E9457E59B01AC010E94F9
:102D500057E52BED3FE049E450E40E9457E59B0125
:102D6000AC0160E070E080E89FE30E946BEC6B01D7
:102D70007C01C092A302D092A402E092A502F0923C
:102D8000A60260910E0170910F01072E000C880BB6
:102D9000990B0E94F8E42AE037ED43E25CE30E94DD
:102DA00057E5A70196010E9457E560935E01709375
:102DB0005F018093600190936101FF90EF90DF903D
:102DC000CF900895C12CD12C80E8E82E8FE3F82E07
:102DD000D0CFFC017081472F50E0062E02C05595E0
:102DE00047950A94E2F740FF14C04091860350E0F3
:102DF000062E02C0559547950A94E2F740FF09C098
:102E000021E030E001C0220F6A95EAF720952723E0
:102E1000208308958F929F92AF92BF92CF92DF92BC
:102E2000EF92FF92CF93FC01C080D180E280F380CB
:102E300020E030E040E251E4C701B6010E9457E5CE
:102E400020E030E04AE754E40E9457E54B015C0182
:102E500020E030E0A901C701B6010E94F1E420E0C2
:102E600030E040EA50E487FF04C020E030E040EA70
:102E700050ECC501B4010E94E8EB20E030E040E2F4
:102E800051E40E946BEC0E94DDEC6B017C018BE253
:102E9000F7FE09C0F094E094D094C094C11CD11CFA
:102EA000E11CF11C8DE280937B02C701B60120E199
:102EB00037E240E050E00E94B7EB8AE0882E912C88
:102EC000A12CB12CCA01B901A50194010E94B7EB54
:102ED000605D60937C02C701B60128EE33E040E0FC
:102EE00050E00E94B7EBCA01B901A50194010E940C
:102EF000B7EB605D60937D028EE280937E02C70136
:102F0000B60124E630E040E050E00E94B7EBCA0191
:102F1000B901A50194010E94B7EB605D60937F0247
:102F2000C701B601A50194010E94B7EBC62FCA01E3
:102F3000B901A50194010E94B7EB605D6093800226
:102F4000C05DC09381028BE792E0CF91FF90EF903C
:102F5000DF90CF90BF90AF909F908F9008958F9209
:102F60009F92AF92BF92CF92DF92EF92FF92CF9358
:102F7000C62FFC01C080D180E280F38020E030E0E9
:102F800040E251E4C701B6010E9457E520E030E07D
:102F90004AE754E40E9457E54B015C0120E030E031
:102FA000A901C701B6010E94F1E420E030E040EA47
:102FB00050E487FF04C020E030E040EA50ECC50157
:102FC000B4010E94E8EB20E030E040E251E40E94CE
:102FD0006BEC0E94DDEC6B017C01C114D104E104B7
:102FE000F10409F456C0F7FE09C0F094E094D094BF
:102FF000C094C11CD11CE11CF11CCDE2C0937C0229
:10300000C701B60128EE33E040E050E00E94B7EB84
:103010008AE0882E912CA12CB12CCA01B901A501FE
:1030200094010E94B7EB605D60937D028EE2809315
:103030007E02C701B60124E630E040E050E00E9485
:10304000B7EBCA01B901A50194010E94B7EB605D1D
:1030500060937F02C701B601A50194010E94B7EBFE
:10306000C62FCA01B901A50194010E94B7EB605DAA
:1030700060938002C05DC09381028CE792E0CF91A3
:10308000FF90EF90DF90CF90BF90AF909F908F9088
:103090000895C0E2B3CF8F929F92AF92BF92CF922A
:1030A000DF92EF92FF92FC01C080D180E280F3803A
:1030B00020E030E040E251E4C701B6010E9457E54C
:1030C00020E030E040E251E40E9457E54B015C0112
:1030D00020E030E0A901C701B6010E94F1E420E040
:1030E00030E040EA50E487FF04C020E030E040EAEE
:1030F00050ECC501B4010E94E8EB20E030E040E272
:1031000051E40E946BEC0E94DDEC9B018BE237FFE7
:1031100005C022273327261B370B8DE280937C02C4
:10312000C90168EE73E00E94A3EBCB01EAE0F0E096
:10313000BF010E94A3EB805D80937D02C90164E61C
:1031400070E00E94A3EBCB01BF010E94A3EB805D66
:1031500080937E02C901BF010E94A3EB282FCB01FF
:10316000BF010E94A3EB805D80937F028EE280937B
:103170008002205D209381028CE792E0FF90EF9027
:10318000DF90CF90BF90AF909F908F900895282FA1
:1031900081E3243609F080E280937E0290E22A30B7
:1031A00040F03AE0822F632F0E9475EB0E9475EB8E
:1031B000905D90937F02822F6AE00E9475EB905D94
:1031C0009093800285E2809381028EE792E00895D9
:1031D00060910E0170910F01072E000C880B990B66
:1031E0000E94F8E42AE037ED43E25CE30E9457E5F1
:1031F0002091A3023091A4024091A5025091A60211
:103200000E9457E560935E0170935F0180936001B7
:10321000909361010895CF93DF93EC01CB01BA0144
:103220000E94F8E429EC38EC48EC5EE30E946BEC79
:1032300020E030E040E05FE30E94E8EB0E94E4EC35
:103240006883DF91CF9108950E94F8E429EC38EC6F
:1032500048EC5EE30E946BEC20E030E040E05FE38E
:103260000E94E8EB0E94E4EC24E6629FC001112476
:1032700081589F4F6FEF70E00E94A3EB862F0C9454
:10328000C718CF93DF93EC01CB01BA010E94F8E499
:103290000E94DDEC79836883DF91CF91089580915E
:1032A000DA06811104C08091A30680934007089537
:1032B0008091A7178823C1F081508093A717E2E07F
:1032C000F6E1882351F08150990B2BE1289FF00102
:1032D000299FF00D1124E756F94E8BE1A7EEB5E1D9
:1032E00001900D928A95E1F72091A717211105C051
:1032F0008091B11780648093B11781E090E0A0E0E5
:10330000B0E0211103C080E090E0DC018093D006A2
:103310009093D106A093D206B093D3061092CB0619
:1033200081E08093CD0683E08093570108958F92CA
:103330009F92AF92BF92CF92DF92EF92FF92CF9384
:103340006B017C0120E030E0A9010E94F1E487FDDF
:10335000C3C06DEB77E386E095E3A70196010E9479
:10336000E8EB6B017C0120E030E0A9010E94F1E470
:1033700087FFB7C0C701B601905820E030E040E2B7
:1033800051E40E9457E520E030E040E251E40E9421
:1033900057E520E030E040EA50E40E94E8EB20E00E
:1033A00030E040E251E40E946BEC0E94DDEC6B01E6
:1033B0007C0160E280EAC81686E8D80681E0E8066B
:1033C000F1048CF0C701B60120EA36E841E050E094
:1033D0000E94B7EBCA01B9012AE030E040E050E0BA
:1033E0000E94B7EB605D60937B0260E280E1C816EB
:1033F00087E2D806E104F1048CF0C701B60120E1B0
:1034000037E240E050E00E94B7EBCA01B9012AE080
:1034100030E040E050E00E94B7EB605D60937C02DA
:1034200060E288EEC81683E0D806E104F1048CF06F
:10343000C701B60128EE33E040E050E00E94B7EB50
:10344000CA01B9012AE030E040E050E00E94B7EB49
:10345000605D60937D0260E284E6C816D104E104F9
:10346000F1048CF0C701B60124E630E040E050E002
:103470000E94B7EBCA01B9012AE030E040E050E019
:103480000E94B7EB605D60937E028AE0882E912CEB
:10349000A12CB12CC701B601A50194010E94B7EB84
:1034A000C62FCA01B901A50194010E94B7EB605D66
:1034B00060937F028EE280938002C05DC0938102A0
:1034C0008BE792E0CF91FF90EF90DF90CF90BF908D
:1034D000AF909F908F9008956DEB77E386E095EB2A
:1034E0003CCF20E030E040E251E4C701B60149CFD3
:1034F000CF93DF93EC01CB01BA010E94F8E420E006
:1035000030E040E251E40E946BEC688379838A8367
:103510009B83DF91CF9108950E94F8E420E030E092
:1035200040E251E40E946BEC0C949719CF93DF9327
:10353000EC01CB01BA010E94F8E420E030E04AE758
:1035400054E40E946BEC688379838A839B83DF91C8
:10355000CF910895CF92DF92EF92FF92CF93DF93B6
:1035600000D000D0CDB7DEB70E94F8E420E030E014
:103570004AE754E40E946BEC6B017C0120E030E0F0
:10358000A9010E94F1E42DEB37E346E055E387FF04
:1035900004C02DEB37E346E055EBC701B6010E94AE
:1035A000E8EB69837A838B839C8360E2CE0101968A
:1035B0000E94AF170F900F900F900F90DF91CF9157
:1035C000FF90EF90DF90CF90089580913216909108
:1035D0003316891B8F7089F480919715813069F0BB
:1035E0009091B11792FB882780F992FF07C097FB53
:1035F000882780F991E08927089581E00895CF9385
:10360000DF93C091FE06D091FF06209729F16091CB
:10361000FA067091FB068091FC069091FD060E94CF
:10362000DDEC6E5F7F4F24976C177D07ACF47093D1
:103630001904609318040E9419B9605A75418F4F9C
:103640009F4F60931A0470931B0480931C04909303
:103650001D04DF91CF91089510921A0410921B045B
:1036600010921C0410921D04F4CF0C94FF1ACF93F7
:10367000DF93EC018D810E94508B60E08B81DF91A4
:10368000CF910C9446B7DF92EF92FF920F931F9366
:10369000CF93DF938C01C62FD22FF32EE42ED52E9D
:1036A0000E94371B0E9475B98C2F80640E94448B46
:1036B0008D2D0E94448B8E2D0E94448B8F2D0E9455
:1036C000448B8D2F0E94448B87E8C11101C085E98E
:1036D0000E94448BCC3011F40E94498BC0E00E94C0
:1036E000498BF801868387FF04C0CF3F11F0CF5F7D
:1036F000F6CFDF91CF911F910F91FF90EF90DF9068
:10370000089561E0FC0183810E9446B78FEF0C941D
:10371000448B0F931F93CF938C010E94371B0E9401
:1037200075B9C82F882371F08DEF0E94448B0E94D9
:1037300075B9C82FC8010E94811B8C2FCF911F9192
:103740000F91089582E1F8018483F4CF8F929F92C4
:10375000AF92BF92CF92DF92EF92FF920F931F939F
:10376000CF93DF93EC016A017B01590120E030E047
:10377000A90167E30E94431BA501980167E1CE01FF
:103780000E94431B811127C08F81833039F089E06B
:10379000CC0CDD1CEE1CFF1C8A95D1F7A70196010D
:1037A00069E1CE010E94431B11E0882319F010E06B
:1037B00087E08C83CE010E94811B812FDF91CF9106
:1037C0001F910F91FF90EF90DF90CF90BF90AF903F
:1037D0009F908F90089589E08C8310E0EBCFCF937A
:1037E000DF93EC016EBDFA01CA019E5F0DB407FEC6
:1037F000FDCF20812EBD0DB407FEFDCF21812EBD52
:103800003296E817F90791F70DB407FEFDCF8FEF59
:103810000E94448B8FEF0E94448B0E94498B8E83C1
:103820008F71853049F083E18C83CE010E94811B2A
:1038300080E0DF91CF91089581E0FBCF0F931F933C
:10384000CF93DF93EC018B010E94371B0E9475B967
:1038500081110CC085E18C8310E0CE010E94811B98
:10386000812FDF91CF911F910F910895A8016CEFE7
:10387000CE010E94EF1B182F882361F3EECF0F9328
:103880001F93CF93DF93EC0189018F81833039F04F
:1038900089E0440F551F661F771F8A95D1F79A015B
:1038A000AB0168E1CE010E94431B81112AC0A8012F
:1038B0006EEFCE010E94EF1B182F8823B1F00E94FB
:1038C00075B9182F8823D1F020E030E0A9016DE010
:1038D000CE010E94431B882321F086E18C8310E0F7
:1038E00004C00E94498B8111F8CFCE010E94811B38
:1038F000812FDF91CF911F910F91089587E18C83E4
:10390000F4CF86E0EBCF1F93CF93DF93EC010E94BF
:10391000371B20E030E0A9016CE0CE010E94431B80
:1039200011E0882319F010E083E08C83CE010E941F
:10393000811B812FDF91CF911F9108951F93CF930A
:10394000DF93EC018F81833039F089E0440F551FFC
:10395000661F771F8A95D1F79A01AB0162E1CE010C
:103960000E94431B11E0882319F010E085E08C834E
:10397000CE010E94811B812FDF91CF911F9108956D
:103980008F929F92AF92BF92EF92FF920F931F93ED
:10399000CF93DF938C01EB017A010E9419B94B019F
:1039A0005C012CE2820E21E0921EA11CB11C0E943F
:1039B000498BF80186838F3F69F40E9419B9681911
:1039C00079098A099B0997FDF2CF81E1F801848387
:1039D000C0E021C08E3F71F5F1E0EF1AF1088FEFE2
:1039E0008EBDFE012FEF0DB407FEFDCF8EB5819386
:1039F0002EBDCF018C1B9D0B8E159F05A0F30DB422
:103A000007FEFDCF8EB5CE0DDF1D88830E94498B4A
:103A10000E94498BC1E0C8010E94811B8C2FDF915D
:103A2000CF911F910F91FF90EF90BF90AF909F901B
:103A30008F9008958FE0CACF0F931F93CF93DF939A
:103A4000EC018B010E94371B40E052E0B801CE012F
:103A5000DF91CF911F910F910C94C01C0F931F9376
:103A6000CF93DF93EC0189018F81833039F089E0B6
:103A7000440F551F661F771F8A95D1F79A01AB0136
:103A800061E1CE010E94431B81110AC040E052E077
:103A9000B801CE01DF91CF911F910F910C94C01C02
:103AA00084E08C83CE010E94811B80E0DF91CF9166
:103AB0001F910F9108958F929F92AF92BF92CF92D4
:103AC000DF92EF92FF920F931F93CF93DF93EC015E
:103AD000162F1F821C824B830E9419B96B017C0137
:103AE00020EDC20E27E0D21EE11CF11CA89561E07A
:103AF0008B810E9446B761E08B810E9427B8249A8F
:103B0000279A2698259A81E00E94508B85E08D8324
:103B10000E94508B0AE08FEF0E94448B0150D9F72E
:103B2000A89520E030E0A90160E0CE010E94431B8F
:103B30008E83813081F00E9419B96C197D098E093C
:103B40009F0997FDEECF81E08C83CE010E94811BFF
:103B50001A8280E06AC0A8952AEA31E040E050E08D
:103B600068E0CE010E94431B853041F581E08F83E0
:103B7000A8958F81812C912C5401823029F4812CBD
:103B8000912CA12C80E4B82E20E030E0A90167E35D
:103B9000CE010E94431BA501940169E2CE010E945F
:103BA000431B8E838823F1F00E9419B96C197D099B
:103BB0008E099F0997FDE8CF8AE0C6CF04E00E94F6
:103BC000498B8E830150D9F78A3A11F482E0CFCF26
:103BD0000E9419B96C197D098E099F0997FDBCCF08
:103BE00082E0B2CF8F818230C1F420E030E0A901C1
:103BF0006AE3CE010E94431B882311F088E0A4CF22
:103C00000E94498B807C803C11F483E08F830E946A
:103C1000498B0E94498B0E94498BCE010E94811BD7
:103C200081E08A83173070F41D83DF91CF911F915B
:103C30000F91FF90EF90DF90CF90BF90AF909F904B
:103C40008F90089588E18C8384CF0F931F93CF9337
:103C5000DF93EC018B0120E030E0A90169E00E94D4
:103C6000431B81110AC040E150E0B801CE01DF9151
:103C7000CF911F910F910C94C01C80E18C83CE01D9
:103C80000E94811B80E0DF91CF911F910F910895D9
:103C9000CF93C82FCB010E94677F8EE396E00E94EE
:103CA000677F8FE296E0CC2311F084E396E00E94D8
:103CB000677F8AE0CF910C94567F9091A70281E0B4
:103CC00089270C94BC734091220321E042276CE0C9
:103CD00070E00C94DBB34091220321E0422764E0C2
:103CE00070E00C94DBB34091220321E0422761E0B5
:103CF00070E00C94DBB34091220321E0422761E0A5
:103D000070E00C94DBB34091220321E0422768E08D
:103D100070E00C94DBB34091220321E042276CE079
:103D200070E00C94DBB341E061E070E00C94DBB335
:103D30004091220321E042270C94DBB36CE070E059
:103D40000C94B1B864E070E00C94B1B861E070E03C
:103D50000C94B1B861E070E00C94B1B86CE070E024
:103D60000C94B1B8CF93DF938091321690913316B3
:103D7000891B80958F7019F40E9476C5F5CF8091CC
:103D800032168F5F8F70A09132169BE4A99FD001ED
:103D90001124FD01ED5AF84FEF0119929A95E9F7B8
:103DA00098E09083A859B84F90E1E4E3F6E10190E0
:103DB0000D929A95E1F720913216909133162913BE
:103DC00003C094E690932F1680933216DF91CF9123
:103DD0000C94907620E030E0A901BC018CE49CE0DA
:103DE0000C9428D7CF93DF93CDB7DEB720E24F8175
:103DF00058856E818D810E9490B4DF91CF91089596
:103E00006091A3068FEF0C942CC58091A306682FB8
:103E10000C942CC56FEF8091A3060C942CC56DEA11
:103E20007FE482E00C9460D762EB7FE481E00C9445
:103E300060D767EB7FE480E00C9460D76BEE74E5AD
:103E400083E00C9460D70F931F9307E315E029E3F9
:103E500035E042EB59E469E475E08EE495E00E94B8
:103E600012BC1F910F9108950F931F9308E514E062
:103E70002BEE34E04EE053E66AE574E08FE594E023
:103E80000E9412BC1F910F9108951092CB060C94C2
:103E90006DC04FE350E064E674E082E696E00C9477
:103EA0004DEE80915701882341F060916A03709133
:103EB0006B0341E081E00C942BB40895CF93809183
:103EC0006C15C1E08823C9F080916D1590916E1535
:103ED0004091641550916515609166157091671554
:103EE000DC01ED91FC910288F389E02D24E633E1B9
:103EF0000995C82F811104C0C0E08C2FCF9108957F
:103F0000409168155091691560916A1570916B1513
:103F10004115510561057105B9F080916D159091BC
:103F20006E15DC01ED91FC910288F389E02D24E609
:103F300033E10995882301F31092681510926915F1
:103F400010926A1510926B1510926C15D6CFCF9205
:103F5000DF92EF92FF92CF936B017C01C42F80918F
:103F6000641590916515A0916615B09167158C1533
:103F70009D05AE05BF0529F10E945E1F811108C095
:103F8000C0E08C2FCF91FF90EF90DF90CF900895FD
:103F900080916D1590916E15DC01ED91FC9100887A
:103FA000F189E02D24E633E1B701A60109958823C4
:103FB00039F3C0926415D0926515E0926615F092BF
:103FC0006715CC2321F081E080936C15DACFC1E036
:103FD000D8CFCF92DF92EF92FF920F931F93CF93A0
:103FE000DF93FC0181859285A385B4850196A11D8F
:103FF000B11D84179507A607B70750F480E0DF913D
:10400000CF911F910F91FF90EF90DF90CF90089587
:1040100087898031A9F5BB27A72F962F852FC388C5
:10402000D488E588F6888C0D9D1DAE1DBF1DE90165
:104030006A017B018F014091641550916515609173
:1040400066157091671584179507A607B70749F598
:10405000F8018789803169F5B701A60155276627E0
:104060007727440F551F4C595C4EFA01808191818E
:10407000B0E0A0E088839983AA83BB8381E0BFCFAF
:10408000803209F0BBCFC388D488E588F688DB018D
:10409000CA01C7E0B695A79597958795CA95D1F7B8
:1040A000C2CF40E0BC01CD010E94A71F8111D0CF3B
:1040B000A5CFB701A6014F77552766277727440F6D
:1040C000551F440F551F4C595C4EFA018081918158
:1040D000A281B381BF70CECF4F925F926F927F92D9
:1040E000AF92BF92CF92DF92EF92FF920F931F9306
:1040F000CF93DF9300D000D0CDB7DEB78C014983DA
:104100005A836B837C835901C12CD12C7601412CBD
:1041100082E0582E612C712C49815A816B817C81FF
:104120009E012F5F3F4FC8010E94E91F882319F1AC
:10413000F8018585A301920104C0220F331F441F9B
:10414000551F8A95D2F7DA01C901C80ED91EEA1E99
:10415000FB1E49815A816B817C8187898031F1F412
:1041600081E0483F5F4F61057105B0F2F501C08203
:10417000D182E282F3820F900F900F900F90DF9127
:10418000CF911F910F91FF90EF90DF90CF90BF9054
:10419000AF907F906F905F904F90089581E0483F7F
:1041A0005F4F6F4F7F4008F4B7CFE0CF8F929F9261
:1041B000AF92BF92CF92DF92EF92FF920F931F9335
:1041C000CF93DF93EC018B8181110EC080E0DF91F2
:1041D000CF911F910F91FF90EF90DF90CF90BF9004
:1041E000AF909F908F90089509891A892B893C89F7
:1041F000041715072607370748F34A015B01823089
:1042000031F488869986AA86BB8681E0E0CF811446
:104210009104A104B10449F4188619861A861B86F4
:104220001C821D821E821F82F0CF088519852A8577
:104230003B85E98DFA8D858590E00996B901A80145
:104240004150510961097109082E04C0769567959E
:10425000579547950A94D2F775016401E1E0CE1AAB
:10426000D108E108F10804C0F694E794D794C79404
:104270008A95D2F7C416D506E606F70620F0012B7C
:10428000022B032B11F58D899E89AF89B88D8C8304
:104290009D83AE83BF838E010C5F1F4FC114D10479
:1042A000E104F10409F4ADCF4C815D816E817F8121
:1042B0009801898D9A8D0E94E91F91E0C91AD10851
:1042C000E108F1088111EACF81CFC41AD50AE60AC4
:1042D000F70AE1CF2F923F924F925F926F927F92B7
:1042E0008F929F92AF92BF92CF92DF92EF92FF9206
:1042F0000F931F93CF93DF93EC014B017A018B81D6
:10430000811115C08FEF9FEFDF91CF911F910F911A
:10431000FF90EF90DF90CF90BF90AF909F908F90E5
:104320007F906F905F904F903F902F90089589817C
:1043300080FFE8CF89899A89AB89BC8948855985EE
:104340006A857B85841B950BA60BB70BA70170E0D4
:1043500060E084179507A607B70708F47C0167019A
:104360001E0124E0220E311CC114D10409F4A9C09D
:10437000488559856A857B855A0181E0B822898DF7
:104380009A8D2A013B0129E07694679457944794CB
:104390002A95D1F72B81FC01223081F5628D738D36
:1043A000848D958D640D751D861D971D00E012E0AE
:1043B0000A191B09C016D10608F486010115E2E0AE
:1043C0001E0771F440906415509065156090661555
:1043D00070906715641575058605970509F04EC040
:1043E00040E00E94A71F882309F48CCFB5016C59C7
:1043F0007C4EA801C4010E940AEE52C014811150E3
:104400001421A114B10471F411110CC0452B462BD9
:10441000472B51F58D899E89AF89B88D8C839D83FB
:10442000AE83BF83E98DFA8D4C805D806E807F8086
:1044300022E0421A510861087108858504C0440CC5
:10444000551C661C771C8A95D2F786859785A089AE
:10445000B189480E591E6A1E7B1EC301B201610F4D
:10446000711D811D911DA2CF4C815D816E817F8167
:1044700091010E94E91F8111D5CF44CFA0916D1504
:10448000B0916E15ED91FC9111970088F189E02DA6
:104490009401AB01BC01CD010995882309F432CF09
:1044A000800E911E88859985AA85BB85800F911FF6
:1044B000A11DB11D88879987AA87BB87C01AD10A19
:1044C00053CFC70121CF0F931F93CF93DF93FC01ED
:1044D0002381222331F080E0DF91CF911F910F9152
:1044E00008958B01EC01FB018789803139F582E069
:1044F0008B831D8A1E8A1F8A188E808D918DB0E055
:10450000A0E025E0880F991FAA1FBB1F2A95D1F7AD
:10451000898B9A8BAB8BBC8B1A8F098F81E0898337
:10452000188619861A861B861C821D821E821F828F
:10453000188A1C861D861E861F86CECF803259F6AD
:1045400083E08B83428D538D648D758D4D8B5E8B97
:104550006F8B788F9E012F5E3F4FC8010E946C20A9
:104560008111DACFB8CFCF93DF93EC01462F4170A2
:104570006C857D858E859F850E94A71F882351F0BD
:10458000888920E2829FC00111248C599C4EDF91C2
:10459000CF91089590E080E0FACFCF93DF93EC01C4
:1045A0008B81882349F1898187FF22C061E0CE0198
:1045B0000E94B322FC01892BF9F08081853EE1F055
:1045C0008B81823040F489899A89AB89BC89848F38
:1045D000958FA68FB78F8D899E89938F828F8D89B6
:1045E0009E89AF89B88DB58BA48B89818F7789839C
:1045F000DF91CF910C945E1F81E0888380E0DF9192
:10460000CF910895CF93DF93EC010E94CD221B82BE
:10461000DF91CF910895CF93DF93EB01FC012381CC
:10462000211104C080E0DF91CF9108952250223003
:1046300028F48FE28883198281E0F5CF60E00E9440
:10464000B322009779F3DC0160E080E09EE22D91D7
:10465000203299F0883031F49E01260F311DF90186
:1046600090836F5F9E01260F311DAD0141505109AE
:10467000FA014081F90140836F5F8F5F8B3039F71A
:10468000FE01E60FF11D1082D7CF3F924F925F924D
:104690006F927F928F929F92AF92BF92CF92DF9252
:1046A000EF92FF920F931F93CF93DF93CDB7DEB7B7
:1046B0002C970FB6F894DEBF0FBECDBF5C01DC01B6
:1046C00059968D909C90F40181859285A385B4853F
:1046D0009C01AD012F5F3F4F4F4F5F4F29873A87B6
:1046E0004B875C87D50114964D905D906D907C90C2
:1046F0001797411451046104710409F459C0BFEFC4
:104700004B1A5B0A6B0A7B0A312C730162011D8212
:104710001E821F821886F40181859285A385B48547
:104720002D813E814F815885281739074A075B073D
:1047300008F056C089859A85AB85BC858C159D058A
:10474000AE05BF0550F482E0C82ED12CE12CF12C2F
:1047500092E0492E512C612C712C9E012F5F3F4F0E
:10476000B701A601C4010E94E91F8823C9F189810C
:104770009A81AB81BC81892B8A2B8B2B01F126017D
:1047800037019FEF491A590A690A790A2D813E813A
:104790004F8158852F5F3F4F4F4F5F4F2D833E8393
:1047A0004F8358873FEFC31AD30AE30AF30AB3CF04
:1047B000408051806280738033243394A6CFC41428
:1047C000D504E604F70411F70FEF1FEF2FEF3FE0DA
:1047D000B701A601C4010E9406C4782E81111AC037
:1047E000712C872D2C960FB6F894DEBF0FBECDBF6F
:1047F000DF91CF911F910F91FF90EF90DF90CF90BD
:10480000BF90AF909F908F907F906F905F904F90F0
:104810003F900895F5014481558166817781411566
:1048200051056105710539F097018601C4010E94A7
:1048300006C48823A9F2D5011496CD92DD92ED929B
:10484000FC921797332051F0D701C6010196A11DA4
:10485000B11DF40180839183A283B383F50185891F
:104860009689A789B08D892B8A2B8B2B09F0B9CF1C
:10487000C58AD68AE78AF08E818180688183B1CF2C
:1048800040E050E0BA010C94D620FC0123812111B4
:104890000C94022308952F923F924F925F926F9251
:1048A0007F928F929F92AF92BF92CF92DF92EF92C0
:1048B000FF920F931F93CF93DF93CDB7DEB7C4540E
:1048C000D1090FB6F894DEBF0FBECDBF7C014B01FE
:1048D0005A01222E19821C821C8E1F8E61157105B1
:1048E00011F410E0B3C1DC0113968C918111F9CF62
:1048F000FA0180818B018F32D1F4DB0113968C9108
:1049000013978250823060F059966D917C91CE0160
:104910004C960E9463228E01045E1F4F882309F388
:10492000C5015C010196F50120812F32D1F39E0172
:104930002F5F3F4F6901290130E2332E2496CFAE1D
:1049400024972596DFAE25973E013CE1630E711C4E
:1049500022963FAE229721963FAE21973FAE3EAEC4
:104960003DAE3CAE3BAE3AAE39AE38AE3FAA950155
:1049700090E047E0D9018D91882361F18F3251F1A8
:104980008E3239F44A3009F4ACCF98E04AE09D0108
:10499000F1CFE5EEF0E12491222321F0319682134C
:1049A000FACF9FCF491708F49CCF813208F499CFF2
:1049B0008F3709F496CF3FE9380F3A3108F420EEEB
:1049C000E7E3F0E0EC0FFD1FE90FF11D820F80839C
:1049D0009F5FDDCF8FA9803209F483CF5901D901C0
:1049E0008C912F5F3F4F8F32C9F38823A9F00815B0
:1049F000190519F0C8010E94022324969FAD24973F
:104A000025968FAD25974C145D0411F4962D872DB6
:104A10008601C92ED82E9CCFF801818D928DD701A9
:104A20005A969C938E935997C8010E944024C12C9A
:104A3000F80180859185A285B38541895289638972
:104A4000748984179507A607B70708F053C025E0B7
:104A5000B695A795979587952A95D1F7F82FFF706A
:104A6000DF2ED80113968C91823008F43ACF41E0C2
:104A700050E0BE016E5B7F4FC8010E946A21019722
:104A800009F02FCFF80180859185A285B3854F96D7
:104A9000A11DB11D80879187A287B387F0E2DF9EB9
:104AA000B00111246C597C4E6115710509F419CFC0
:104AB000DB018C91882341F0853E09F04DC0CC206C
:104AC00029F0CC24C394B4CFC1100EC080916415DA
:104AD00090916515A0916615B0916715F7018487CF
:104AE0009587A687B787D08ADB018C918111E9CFA2
:104AF000CC24C394822D8274823409F0F2CECC206F
:104B000009F4C7C0F701D08861E0C7010E94B32251
:104B1000009709F4E6CE20E2DC011D922A95E9F720
:104B20002BE0FE01F796DC0101900D922A95E1F74A
:104B300021E238E2FC01318B208B40E058E05787BE
:104B40004687338B228B318F208F578B468B0E9469
:104B50005E1F81110AC0C5CE4BE050E0CE01C79662
:104B60000E94FDED892B09F063CF2D2D30E0F90176
:104B7000B5E0EE0FFF1FBA95E1F7DF01AC59BC4E6F
:104B80001B968C91817121F0822D827109F020C1D8
:104B9000D70159968D919C915A97409164155091E7
:104BA000651560916615709167151C964D935D9320
:104BB0006D937C931F975096DC925097EC59FC4E66
:104BC00084889588B12CA12C540199248824559669
:104BD0008D929D92AD92BC925897428D538D70E00C
:104BE00060E0482959296A297B2955964D935D93A0
:104BF0006D937C935897A5E0220F331FAA95E1F798
:104C0000D901AC59BC4E1B962C91287109F0D2C029
:104C1000848D958DA68DB78DF701818B928BA38B9B
:104C2000B48B81E08383822D8F70F701818314829E
:104C3000158216821782108611861286138611E05D
:104C400024FE04C0C7010E9498C4182FCE014C96C0
:104C50000E944524CE0101960E944524812FCC5B01
:104C6000DF4F0FB6F894DEBF0FBECDBFDF91CF91FF
:104C70001F910F91FF90EF90DF90CF90BF90AF907A
:104C80009F908F907F906F905F904F903F902F906C
:104C90000895D80113968C911397823009F421CE90
:104CA00051968D919D910D90BC91A02D803E9F4F6E
:104CB000AF41B10508F015CEC8010E9445238823F5
:104CC00009F40FCE0E945E1F882309F40ACED80192
:104CD0005996ED91FC915A9714968D909D90AD90B8
:104CE000BC901797B2E08B1A9108A108B10885858E
:104CF00004C0880C991CAA1CBB1C8A95D2F7868517
:104D00009785A089B189880E991EAA1EBB1E81E0D5
:104D100080936C158092641590926515A09266152B
:104D2000B0926715E4E6F3E180E092E0DF019C01D8
:104D30001D9221503040E1F7DD24D394D8015996DB
:104D4000ED91FC918481D816C0F480916D159091FD
:104D50006E15DC01ED91FC910288F389E02D24E6CB
:104D600033E1B501A4014D0D511D611D711D099562
:104D7000882309F4B6CDD394E1CF258580E092E075
:104D8000A0E0B0E004C0880F991FAA1FBB1F2A959E
:104D9000D2F7F8014189528963897489840F951F7C
:104DA000A61FB71F818B928BA38BB48B84E693E1F4
:104DB000D12CB1CE203161F497012F5E3F4F0E947C
:104DC0006C20882329F084E0D70113968C932BCF95
:104DD000D70113961C9285CD682F70E090E080E09B
:104DE0000C942BB18F929F92AF92BF92CF92DF9291
:104DF000EF92FF92CF936B017C01C42F20E030E053
:104E0000A9010E94F1E487FF07C08DE20E94567F4E
:104E1000F7FAF094F7F8F0942BE037ED43EA5BE310
:104E2000C23021F02FE632E143E05AE3C701B60178
:104E30000E94E8EB6B017C010E94E4EC4B015C01F9
:104E40000E94F6E49B01AC01C701B6010E94E7EBAA
:104E50006B017C01C501B4010E942BB18EE20E945E
:104E6000567FC150E8F020E030E040E251E4C70155
:104E7000B6010E9457E56B017C010E94E4EC4B01F6
:104E80005C010E942BB1C501B4010E94F6E49B01B4
:104E9000AC01C701B6010E94E7EB6B017C01E1CFD9
:104EA000CF91FF90EF90DF90CF90BF90AF909F9009
:104EB0008F900895EF92FF920F931F93CF937B01F2
:104EC0008A01C2E48F3F09F0C4E580E20E94567F68
:104ED0008C2F0E94567F8AE30E94567FF7016081E3
:104EE00071818281938142E00E94F22689ED90E1F6
:104EF0000E94677FF801608171818281938142E025
:104F00000E94F22662E070E080E090E0CF911F9175
:104F10000F91FF90EF900C947EB81F93CF93DF9387
:104F2000CDB7DEB728970FB6F894DEBF0FBECDBF62
:104F3000182F6091FE067091FF06072E000C880B5B
:104F4000990B0E94F8E46D837E838F83988780910C
:104F5000FA069091FB06A091FC06B091FD068983AC
:104F60009A83AB83BC83AE014B5F5F4FBE016F5F23
:104F70007F4F80E80E945A276091F3067091F406F3
:104F8000072E000C880B990B0E94F8E46D837E833A
:104F90008F8398878091EF069091F006A091F1069B
:104FA000B091F20689839A83AB83BC83AE014B5FD9
:104FB0005F4FBE016F5F7F4F8FEF0E945A27609156
:104FC000F5061F3F39F087E11802F0011124EA507D
:104FD000F94F628570E081EE90E10E94D589609181
:104FE000F50670E08CED90E10E94D58928960FB609
:104FF000F894DEBF0FBECDBFDF91CF911F91089512
:105000000F930FB70F9300916E000D7F00936E000A
:1050100078940F930BB70F930CB70F921F922F93A7
:105020003F934F935F936F937F938F939F93AF9330
:10503000BF93EF93FF9311240E947663FF91EF914A
:10504000BF91AF919F918F917F916F915F914F91A0
:105050003F912F911F900F900CBF0F910BBF0F919D
:105060000260F89400936E000F910FBF0F91189596
:10507000CF93DF93E6EFF6E01186108610921A04C4
:1050800010921B0410921C0410921D0412865D984D
:10509000CBEED6E0198618860E948B671A865C983C
:1050A000DF91CF9108958F929F92AF92BF92CF924E
:1050B000DF92EF92FF920F931F93CF93DF93B0E2B3
:1050C000A0E06A2F70E0AB014B0F511D559547953D
:1050D000411119C0EFEDFFE065917491072E000CAE
:1050E000880B990B0E94F8E4DF91CF911F910F91EB
:1050F000FF90EF90DF90CF90BF90AF909F908F90F8
:105100000895B42FE0CFA41711F0B41303C0EBE55A
:10511000F0E1E2CF9A0121503109220F331F220F13
:10512000331FF901E352F04FE590F490F901EF518C
:10513000F04FC591D4918E159F0518F3A42FC81771
:10514000D90708F4BECFF901E152F04F059114914F
:10515000F901ED51F04FC590D4908E199F09BC0113
:1051600090E080E00E94F6E44B015C01B601601B18
:10517000710B072E000C880B990B0E94F8E49B0121
:10518000AC01C501B4010E9457E54B015C01CE1989
:10519000DF09BE0190E080E00E94F6E49B01AC01D3
:1051A000C501B4010E946BEC6B017C01B801110FC9
:1051B000880B990B0E94F8E49B01AC01C701B60172
:1051C0000E94E8EB91CFCF92DF92EF92FF92CF93C4
:1051D000DF93EC01C880D980EA80FB808CE79FE0F8
:1051E0000E94677FC701B6010E944B72CC80DD80B0
:1051F000EE80FF808FEA9AE20E94677FC701B601C6
:105200000E944B72C884D984EA84FB848BEA9AE2B8
:105210000E94677FC701B6010E944B728AE0DF914E
:10522000CF91FF90EF90DF90CF900C94567FBC0110
:105230002091DE033091DF034091DE035091DF03C4
:105240002417350731F481E02617370709F080E08D
:1052500008959A01F1CF0F930FB70F9300916E004D
:105260000F930D7F00936E0000916F000D7F0093F0
:105270006F000F930BB70F930CB70F921F922F93E2
:105280003F934F935F936F937F938F939F93AF93CE
:10529000BF93EF93FF9311240E94B12DFF91EF91E3
:1052A000BF91AF919F918F917F916F915F914F913E
:1052B0003F912F911F900F900CBF0F910BBF0F913B
:1052C0000260F89400936F000F9100936E000F91AD
:1052D0000FBF0F91189500C000C08091530680FF4A
:1052E0001FC0459A8FEF809394038091530681FFEE
:1052F0001AC0479A8FEF809395038091530682FFDF
:1053000015C02A988FEF809396038091530683FFF0
:1053100010C0289A8FEF8093970300C000C00895B3
:10532000459881E0E0CF479881E0E5CF2A9A81E077
:10533000EACF289881E0EFCF80912303982F977FC1
:1053400090932303982F937081E011F080E00895EB
:105350005E9A08955E98809123038860809323036A
:105360000895E82FF0E021E030E0082E02C0220F7F
:10537000331F0A94E2F720953095909123039223EE
:1053800090932303E153FE4F2081922321E019F0F3
:1053900020E0822F0895813079F038F08230C9F70B
:1053A000159A909152069B7F04C05E9A9091520686
:1053B0009E7F90935206EDCF5E9A909152069D7F0C
:1053C000F8CF80E00E94B12981E00E94B12982E0FB
:1053D0000E94B1290C949C29813079F070F08230C0
:1053E00071F021E030E001C0220F8A95EAF7809148
:1053F0002303822B8093230308955E98F2CF1598A0
:10540000F0CFCF93DF938091A802811119C0C09192
:105410001001D0911101219720E030E040E05FE3DE
:105420006091FA067091FB068091FC069091FD0652
:105430000E94E8EB0E94DDEC21E06C177D070CF088
:1054400020E0822FDF91CF910895AF92BF92CF924B
:10545000DF92EF92FF920F931F93CF93DF93C4E0FD
:10546000DCE008E217E084E1A82E8CE0B82EC12C25
:10547000D12C7601C39469917991899199910E9477
:10548000F6E4288939894A895B890E9457E50E9498
:10549000E4ECF80161937193819391938F01C616A7
:1054A000D706E806F90610F46B017C01AC16BD06C0
:1054B00011F76FEF7FEFCB01A70196010E9439EB47
:1054C000209338073093390740933A0750933B07AE
:1054D000DF91CF911F910F91FF90EF90DF90CF90D0
:1054E000BF90AF9008950F931F93CF93DF9308E180
:1054F0001CE0C1E4D7E0F801219131914191519133
:105500008F0160E070E080E89FE30E946BEC69939C
:10551000799389939993F7E0C135DF0761F70E948A
:10552000B7B3DF91CF911F910F910C94252A0C9462
:10553000732A0C94732A0C94732A0C94732A9091F6
:10554000321680913316981306C0809151079091BE
:105550005207892B19F00E9476C5F1CF08959091DA
:10556000321680913316981308C08091510790919C
:105570005207892B11F40C94E1290E9476C5EFCFD4
:10558000CF93DF932091A702222379F0EC010E94B0
:10559000E1739B01AC01688579858A859B850E94B2
:1055A000E7EB688779878A879B87DF91CF9108959A
:1055B000CF93DF932091A702222379F0EC010E9480
:1055C000E1739B01AC01688579858A859B850E9482
:1055D000E8EB688779878A879B87DF91CF91089569
:1055E0004F925F926F927F928F929F92AF92BF92F3
:1055F000CF92DF92EF92FF920F931F93CF93DF939F
:10560000CDB7DEB76A970FB6F894DEBF0FBECDBF39
:105610009A8F898F5B018A01DC01D6966D917D910D
:105620008D919C91D9970E94F6E46B017C01F50164
:1056300020813181428153810E9457E50E9454ECC0
:105640002B013C01D8012D913D914D915C91C701F9
:10565000B6010E9457E50E9454EC4B015C01C30166
:10566000B2010E94E4EC698B7A8B8B8B9C8B683740
:1056700071058105910540F428E730E040E050E0F5
:10568000298B3A8B4B8B5C8BC501B4010E94E4ECF7
:105690006D877E878F87988B6837710581059105A7
:1056A00040F488E790E0A0E0B0E08D879E87AF8768
:1056B000B88BE98DFA8DEE5BFF4F208131814281FD
:1056C000538129833A834B835C83CA01B9010E94C9
:1056D000F8E42B013C0169897A898B899C890E94B5
:1056E000F6E469877A878B879C8720E030E0A90100
:1056F000C301B2010E94F1E4882309F43BC1A70170
:105700009601C701B6010E9457E54B015C0129854E
:105710003A854B855C85CA01B9010E9457E59B011A
:10572000AC01C501B4010E94E7EB4B015C01A30190
:105730009201C301B2010E94E8EB9B01AC01C501DB
:10574000B4010E946BEC0E9454EC0E94E4EC6D8367
:105750007E838F83988769817A818B819C819095E4
:105760008095709561957F4F8F4F9F4F0E94F8E411
:105770004B015C016D857E858F8598890E94F6E4DA
:1057800069837A838B839C8320E030E0A901C50183
:10579000B4010E94F1E4882309F4F0C029813A8120
:1057A0004B815C81CA01B9010E9457E56D8B7E8BEC
:1057B0008F8B988FA7019601C701B6010E9457E50C
:1057C0009B01AC016D897E898F89988D0E94E7EBE2
:1057D0006B017C01A5019401C501B4010E94E8EBB5
:1057E0009B01AC01C701B6010E946BEC0E9413ED56
:1057F000A98DBA8D95968D909D90AD90BC909897FF
:10580000750164012D813E814F815885C21AD30AEA
:10581000E40AF50A0E94E4ECC61AD70AE80AF90A73
:10582000F7FE6EC020E030E0A901C301B2010E9482
:10583000F1E4882309F4A6C0C501B4010E94F6E48E
:105840006B017C01A3019201C301B2010E94E8EB4C
:105850009B01AC01C701B6010E9457E56B017C01B9
:1058600029853A854B855C85CA01B9010E9457E5B7
:105870009B01AC01C701B6010E94E7EB6B017C0103
:1058800029813A814B815C81CA01B9010E9457E5A7
:105890009B01AC01C701B6010E94E8EB6B017C01E2
:1058A00020E030E040E850E4C301B2010E9457E537
:1058B0009B01AC01C701B6010E946BEC0E9454EC45
:1058C0006B017C0120E030E0A9010E946BED18160D
:1058D0001CF0C12CD12C7601C701B6010E94E4EC6A
:1058E0006D837E838F83988786169706A806B906F0
:1058F00020F48D829E82AF82B886C12CD12C760195
:105900008D819E81AF81B885E98DFA8D81A792A79F
:10591000A3A7B4A7C80ED91EEA1EFB1EC5A6D6A60D
:10592000E7A6F0AA29893A894B895C8922AF33AF6F
:1059300044AF55AFFE962D853E854F85588920830F
:105940003183428353836A960FB6F894DEBF0FBE4D
:10595000CDBFDF91CF911F910F91FF90EF90DF901E
:10596000CF90BF90AF909F908F907F906F905F90FF
:105970004F90089560E070E0CB01E5CE60E070E00C
:10598000CB0134CF60E070E0CB0198CF90916F00F5
:1059900081E091FD02C080E0089590916F009D7FAD
:1059A00090936F000895CF93C82F0E94C62C94E067
:1059B000C99F90011124F901EF51FC4F23513C4F35
:1059C000D9014D915D916D917C91408351836283AA
:1059D000738391E09093E003882319F0CF910C94A6
:1059E0009076CF910895CF93DF9380917F03329B80
:1059F0004BC0816080937F0380917F03339B46C0BF
:105A0000826080937F0380917F03349B41C08460D8
:105A100080937F03C091D103C0FF10C080915306D3
:105A200080FF0CC080917F0380FF08C08091A20698
:105A300081608093A20680E00E94D32CC1FF10C039
:105A40008091530681FF0CC080917F0381FF08C0C5
:105A50008091A20682608093A20681E00E94D32CEE
:105A6000C2FF18C08091530682FF14C080917F034B
:105A700082FF10C08091A20684608093A20682E01B
:105A8000DF91CF910C94D32C8E7FB4CF8D7FB9CF83
:105A90008B7FBECFDF91CF9108950E94C62C1092CC
:105AA0003C0710923D0710923E0710923F0781116C
:105AB0000C94907608950F931F93809132169091D5
:105AC0003316891B8F7009F449C090912F169923C2
:105AD00061F0833040F48FEF890F29F080932F1607
