:100000000C943F290C947F290C947F290C947F2910
:100010000C947F290C947F290C947F290C947F29C0
:100020000C947F290C947F290C947F290C947F29B0
:100030000C947F290C947F290C947F290C947F29A0
:100040000C947F290D942E050C947F290C947F2904
:100050000C947F290D94B6030C947F290D94C567E9
:100060000C947F290C94165B0C940C5B0C947F29E8
:100070000C947F290C947F290C947F290C947F2960
:100080000C94BA480C947F290C947F290C947F29F6
:100090000C947F290C947F290C947F290C947F2940
:1000A0000C947F290C947F290C948C480C947F2904
:1000B0000C947F290C947F290C947F290C947F2920
:1000C0000C947F290C947F290C947F290C947F2910
:1000D0000C947F290C947F290C947F290C947F2900
:1000E0000C947F29084AD73B3BCE016E84BCBFFDF0
:1000F000C12F3D6C74319ABD56833DDA3D00C77FF8
:1001000011BED9E4BB4C3E916BAAAABE0000008090
:100110003F05A84CCDB2D44EB93836A9020C50B91F
:10012000918688083CA6AAAA2ABE000000803F004B
:100130000C94F65E0C94AC5B0C9420480C949FE2FB
:100140000C94FCBD0C9410A30C9490460C949FE965
:100150000C94659E0C946E460C944BA40C94835D99
:100160000C94839E0C94519E0C94D85D0C94CF5E9D
:100170000C944AC00D94F06F0C946FA00C94D1D8DD
:100180000C94E2B90C94BD5D0C94BD2B0D94923D82
:100190000C9407A50C946D9F0C94F1A20C9479A17A
:1001A0000C943FE20C9407D90C940DD90C9494A1B3
:1001B0000C947ACE0C9401D90C9496A80C9463BD3F
:1001C0000C9419D90C94035F0C9468A00D94673DAE
:1001D0000C94475E0C94DDD80D94EE3D0C94E1A791
:1001E0000C9403AB0C94B45B0C9449A70C9445A7F6
:1001F0000C9430CA0C94BC5B0C94A1A80C9447A43A
:100200000C94CE5D0C94CB5D0C94165E0C945DEC5E
:100210000C94DBB80C94D9BE0C944BA80C948B9B1B
:100220000C9451C50C94B2460C94D39E0C9493E953
:100230000C94B35D0C941EBC0C94E3A20C9464A0CB
:100240000C94545B0C94EBE20C948CA00C94569F91
:100250000C9432A80C946F9E0C94F7A20C9443D586
:100260000C94A0F00C94A15B0D947F3D0C9439A7E5
:100270000C94CDE10C94AE9B0D94853D0D945C3DAA
:100280000C94C22E0C94B6460C94ABA00C943DA7D3
:100290000C949CA00C94F5D80C94C75B0C9400AB08
:1002A0000C944A460C94E3D20C9439E90C9484EFF4
:1002B0000C94E3EF0C94059F0C940AD70C9431A78F
:1002C0000C94715E0C94DB5D0D94933D0C9471ABBA
:1002D0000C94C15E0C94A55E0C94E3A00C94D0A980
:1002E0000C94BA5D0C94242F0D94973D0C9461F0FE
:1002F0000C94C45D0C940BAB0C94D4CB0C94FE9B6F
:100300000C946A460C945CEC0C94992B0C946BF155
:100310000C94A6A00D94583D0C945FD90D94C03D4B
:100320000C9499AB0C9481290C943EC20C947DA83A
:100330000C9476A10C94ACA20C94ECB50C94F1B591
:100340000D94ED3D0C949F2F0C943F9F0C94885D71
:100350000C9443A40C946C460C94FDAA0C943B485A
:100360000C9467AF0C94C05B0C94E2ED0C9441A725
:100370000C944AA10C94925B0C9485A40C94F6A95D
:100380000C94D6A90C94FB9E0C94E9290C9474ABA4
:100390000C94774C0C94895E0C943D5E0C943D9EBD
:1003A0000C94C75D0C94B35E0C94CEEE0C94E3D821
:1003B0000C940AA80C94E6AA0C94179C0D94523D38
:1003C0000C94A85B0C9463EF0C9449CD0D94893D7B
:1003D0000C9413D90C94F9A20C94D55D0C9472B0C2
:1003E0000C943EBB0D94643D0C94BEE20C9445C746
:1003F0000C94CFDC0C9461A10C94EDA20C94359F6D
:100400000C94FBD80D94603D0C949BD90C948D9E5C
:100410000C94BAAD0C945BC50C9460EC0C94F6B5DE
:100420000C9464A80C9497A00C94EFD80C94D15D14
:100430000C94FBA20C94B0400C94635E0C94FAAA4A
:100440000C94C8EF0D94713D0C945EE20C946BB665
:100450000D940E700C94DAEB0C94D7D80C94E6291A
:100460000C94A39E0C9470A20C94DC5E0C94F7AADE
:100470000C94219F0C94C05D0C9406AB0C94835B90
:100480000C94F5A20C9473C50C94B79B0C942DA7F7
:100490000C94F4AA0C947D5E0C9492460C94B65D78
:1004A0000C9410AB0C94C59E0C94EBEE0C94DA5BA0
:1004B0000C9429A70C940AAA0D94973E0C9429A297
:1004C0000C94992E0C9435A70C9473A10C94B446FB
:1004D0000C94E79E0C94E25D0C94F3A20C94B79EEE
:1004E0000C94E7B50C9402A80C940DAB0C948429E1
:1004F0000D946D3D0C94975E0C94ECE10C94139F5D
:100500000C9433A10C9448460C942A460C94FFA9F1
:100510000D94773D0D948D3D0C9413AB0C94A1A0DC
:100520000C9471480C94B0C30C9470A10C9466A206
:100530000C9425A70C94EEB20C94B85B0C948DE946
:100540000C94E95E0C94D25B0C94555E0C94DF5DC8
:100550000C948E460C9473F00C941E460D947B3DC7
:100560000C9456480C94B05B0C94C4BC0C94F1AA47
:100570000C94E9D80C94EFA24E414E494E4954597F
:10058000494E46CDCCCC3D0AD7233C17B7D138775E
:10059000CC2B329595E6241FB14F0A000020410074
:1005A00000C84200401C4620BCBE4CCA1B0E5AAEBE
:1005B000C59D7400407A10F35A00A0724E180900CD
:1005C00010A5D4E80000E87648170000E40B5402B8
:1005D0000000CA9A3B000000E1F5050000809698F3
:1005E00000000040420F000000A086010000001043
:1005F0002700000000E80300000000640000000085
:10060000000A00000000000100000000002C76D865
:1006100088DC674F0823DFC1DFAE59E1B1B796E54B
:10062000E3E453C63AE651997696E8E6C28426EBAF
:10063000898C9B62ED407C6FFCEFBC9C9F40F2BAC2
:10064000A56FA5F490055A2AF75C936B6CF9676D5A
:10065000C11BFCE0E40D47FEF520E6B500D0ED90AF
:100660002E0300943577050080841E080000204E7C
:100670000A000000C80C333333330F986E12831115
:1006800041EF8D2114893BE65516CFFEE6DB18D1EC
:10069000844B381BF77C1D901DA4BBE424203284BE
:1006A000725E228100C9F124ECA1E53D275A5F5317
:1006B000544F505F50494E005A5F535445505F505D
:1006C000494E005A5F4D494E5F50494E005A5F45B2
:1006D0004E41424C455F50494E005A5F4449525F7B
:1006E00050494E00595F53544F505F50494E005986
:1006F0005F535445505F50494E00595F4D494E5F1E
:1007000050494E00595F454E41424C455F50494E5D
:1007100000595F4449525F50494E00585F53544F4F
:10072000505F50494E00585F535445505F50494EFA
:1007300000585F4D494E5F50494E00585F454E414D
:10074000424C455F50494E00585F4449525F504902
:100750004E00535549434944455F50494E00534567
:1007600052564F335F50494E00534552564F325FF9
:1007700050494E00534552564F315F50494E005339
:100780004552564F305F50494E0053445353005327
:10079000445F4445544543545F50494E004D4F53C8
:1007A0004645545F435F50494E004D4F53464554B4
:1007B0005F425F50494E004D4F534645545F415F85
:1007C00050494E0054454D505F305F43535F504990
:1007D0004E004C45445F50494E004C43445F5049E5
:1007E0004E535F5253004C43445F50494E535F4554
:1007F0004E41424C45004C43445F50494E535F4488
:1008000037004C43445F50494E535F4436004C43DD
:10081000445F50494E535F4435004C43445F504958
:100820004E535F4434004B494C4C5F50494E004896
:1008300045415445525F4245445F50494E0048454A
:10084000415445525F305F50494E0046494C5F521B
:10085000554E4F55545F50494E0046414E5F5049EA
:100860004E0045315F535445505F50494E0045316D
:100870005F454E41424C455F50494E0045315F4413
:1008800049525F50494E0045315F43535F50494ED6
:100890000045305F535445505F50494E0045305F2E
:1008A000454E41424C455F50494E0045305F4449FA
:1008B000525F50494E00444F474C43445F53434BB3
:1008C00000444F474C43445F4D4F53490042544E00
:1008D0005F454E430042544E5F454E435F454E00D8
:1008E00042544E5F454E320042544E5F454E3100F9
:1008F0004245455045525F50494E004156525F5364
:10090000535F50494E004156525F53434B5F50492D
:100910004E004156525F4D4F53495F50494E004182
:1009200056525F4D49534F5F50494E0054454D500C
:100930005F4245445F50494E0054454D505F315F22
:1009400050494E0054454D505F305F50494E00466F
:10095000494C57494454485F50494E00545844301C
:10096000005258443000434F4D4D554E4943415479
:10097000494F4E0044525952554E004552524F5223
:100980005300494E464F004543484F004572726F31
:10099000722077726974696E6720746F20454550C4
:1009A000524F4D210A00363726033C3D380E2E307B
:1009B0003E121A1C180A43090844000153544F50B0
:1009C0005045442E20005072696E74657220737415
:1009D0006F707065642064756520746F2065727235
:1009E0006F72732E20466978207468652065727274
:1009F0006F7220616E6420757365204D393939201E
:100A0000746F20726573746172742E202854656D42
:100A100070657261747572652069732072657365A3
:100A2000742E205365742069742061667465722089
:100A300072657374617274696E67290A004E6F2063
:100A4000436865636B73756D2077697468206C69A2
:100A50006E65206E756D6265722C204C617374201A
:100A60004C696E653A20004E6F20436865636B7376
:100A7000756D2077697468206C696E65206E756D80
:100A80006265722C204C617374204C696E653A204B
:100A900000636865636B73756D206D69736D617458
:100AA00063682C204C617374204C696E653A200099
:100AB0004C696E65204E756D626572206973206E9B
:100AC0006F74204C617374204C696E65204E756D97
:100AD0006265722B312C204C617374204C696E65F9
:100AE0003A20004D3131300053657269616C2073DA
:100AF0007461747573206D69736D617463680A0045
:100B0000776169740A0053442072656164206572DC
:100B1000726F720A00486F74656E642049646C6578
:100B20002054696D656F757400486F74656E64203C
:100B300049646C652054696D656F75740A002121E4
:100B4000204B494C4C2063617573656420627920A9
:100B50004B494C4C20627574746F6E2F70696E0A2D
:100B6000002121204B494C4C206361757365642042
:100B7000627920746F6F206D75636820696E6163A0
:100B8000746976652074696D65202D2063757272B5
:100B9000656E7420636F6D6D616E643A20007061E4
:100BA000757365004D363030002066696C616D6587
:100BB0006E745F72756E6F7574200066696C616D1E
:100BC000656E745F72756E6F757420540046696C43
:100BD000616D656E7452756E6F75742054004D654D
:100BE0006469612052656D6F766564004D65646966
:100BF0006120496E736572746564004D3130303028
:100C00005300627573793A2070617573656420666C
:100C10006F7220696E7075740A00627573793A207C
:100C200070617573656420666F7220757365720AF2
:100C300000627573793A2070726F63657373696EC1
:100C4000670A00506C6561736520526573657400B6
:100C50005052494E5445522048414C544544002579
:100C6000533A20255300706F7765726F6666004BAC
:100C7000494C4C45442E20005072696E74657220B8
:100C800068616C7465642E206B696C6C2829206324
:100C9000616C6C6564210A0053544F505045442EDA
:100CA00020005072696E7465722073746F70706585
:100CB000642064756520746F206572726F72732E84
:100CC0002046697820746865206572726F722061B1
:100CD0006E6420757365204D39393920746F207228
:100CE0006573746172742E202854656D706572612D
:100CF000747572652069732072657365742E205354
:100D000065742069742061667465722072657374FD
:100D1000617274696E67290A006563686F3A0045FD
:100D200072726F723A0042696C696E656172204C32
:100D30006576656C696E6720477269643A0A0021BE
:100D4000212053544F502063616C6C6564206265B0
:100D50006361757365206F6620424C546F756368DC
:100D6000206572726F72202D2072657374617274C7
:100D70002077697468204D3939390A0021212053C0
:100D8000544F502063616C6C6564206265636175CB
:100D90007365206F6620424C546F756368206572DE
:100DA000726F72202D20726573746172742077697E
:100DB0007468204D3939390A005072696E74696E51
:100DC00067204F626A656374002553202569002FF0
:100DD0002F616374696F6E3A007374617274006E90
:100DE0006F74696669636174696F6E200070726FF9
:100DF0006D70745F00656E6400486F74656E64208A
:100E0000746F6F20636F6C640A0053656E64204DCD
:100E100031303820746F20726573756D650A004932
:100E20006E736572742066696C616D656E742061A5
:100E30006E642073656E64204D3130380A0052654F
:100E40006865617420446F6E650052656865617401
:100E5000696E672E2E2E00526568656174004865C4
:100E6000617465722054696D656F75740053656EA9
:100E700064204D31303820746F2068656174206EB5
:100E80006F7A7A6C650A004E6F7A7A6C65205061D1
:100E9000726B656400706175736564005061757391
:100EA00065004732362043616E63656C65640047B8
:100EB00032362048656174696E67204E6F7A7A6CAD
:100EC00065004732362048656174696E6720426567
:100ED000640057616974696E6720666F7220686587
:100EE000617475702E0A004669786564204C656EE1
:100EF000677468205072696D6500446F6E6520509C
:100F000072696D696E67004D616E75616C207072FB
:100F1000696D696E672E2E2E004C656176696E676D
:100F200020473236003F5370656369666965642007
:100F3000582C5920636F6F7264696E617465206FFD
:100F40007574206F6620626F756E64732E0A003FA1
:100F500028522965706561742076616C7565206E14
:100F60006F7420706C61757369626C653B206D7580
:100F70007374206265206174206C65617374203124
:100F80002E0A003F537065636966696564206E6F61
:100F90007A7A6C652074656D7065726174757265BE
:100FA000206E6F7420706C61757369626C652E0AB7
:100FB000003F5370656369666965642066696C61AA
:100FC0006D656E742073697A65206E6F7420706C25
:100FD00061757369626C652E0A003F5370656369C1
:100FE00066696564207072696D65206C656E6774F2
:100FF00068206E6F7420706C61757369626C652E09
:101000000A003F537065636966696564206E6F7A94
:101010007A6C652073697A65206E6F7420706C61DC
:10102000757369626C652E0A003F52657472616364
:1010300074696F6E204D756C7469706C696572208F
:101040006D75737420626520737065636966696588
:10105000642E0A003F5370656369666965642052B7
:10106000657472616374696F6E204D756C7469701C
:101070006C696572206E6F7420706C617573696243
:101080006C652E0A003F537065636966696564206C
:101090006C6179657220686569676874206E6F7429
:1010A00020706C61757369626C652E0A0043292E8D
:1010B0000A003F5370656369666965642062656410
:1010C0002074656D7065726174757265206E6F74E1
:1010D00020706C61757369626C65202834302D0056
:1010E000473236207374617274696E672E2E2E0A31
:1010F000004F46460A004661646520486569676896
:10110000742000426564204C6576656C696E6720CA
:10111000004661696C656420746F20656E61626C65
:101120006520426564204C6576656C696E670A00CF
:10113000496E76616C6964206D6573682E0A005093
:10114000726F62696E6720506F696E74002553205C
:1011500025692F2569002E0A002F0050726F6269E1
:101160006E67206D65736820706F696E7420002053
:101170002844525952554E2900473239204175743E
:101180006F20426564204C6576656C696E67003F30
:1011900020284C2C522C462C4229206F7574206F2D
:1011A0006620626F756E64732E0A003F28562965AB
:1011B00072626F7365206C6576656C20696D706C0A
:1011C00061757369626C652028302D34292E0A0000
:1011D000426164205A2076616C75650A004E6F206A
:1011E00062696C696E65617220677269640A0020C9
:1011F000440020204D3230302053002028446973B1
:1012000061626C6564293A0046696C616D656E7453
:101210002073657474696E67730020204D3230311D
:101220002058004D617820416363656C657261747C
:10123000696F6E2028756E6974732F7332290020D0
:10124000204D3230332058004D617820666565644A
:1012500072617465732028756E6974732F73290029
:1012600020520020204D323034205000416363650D
:101270006C65726174696F6E2028756E6974732F66
:101280007332292028503C7072696E742D6163633B
:10129000656C3E20523C726574726163742D6163AB
:1012A00063656C3E20543C74726176656C2D61639D
:1012B00063656C3E29005741524E494E4721204CF0
:1012C0006F77205A204A65726B206D6179206C65BA
:1012D000616420746F20756E77616E746564207030
:1012E00061757365732E0A0020540020530020207E
:1012F0004D323035204200416476616E6365642072
:1013000028423C6D696E5F7365676D656E745F74CE
:10131000696D655F75733E20533C6D696E5F6665F0
:101320006564726174653E20543C6D696E5F7472D1
:101330006176656C5F66656564726174653E2058B0
:101340003C6D61785F6A65726B3E20593C6D6178D7
:101350005F6A65726B3E205A3C6D61785F6A6572A8
:101360006B3E20453C6D61785F6A65726B3E29007B
:1013700020440020490020204D33303120500048C7
:101380006F74656E64205049440020440020490079
:1013900020204D33303420500042656420504944B1
:1013A0000050574D3A20202534640050574D3A20C4
:1013B000202534640050574D3A20202534640050D5
:1013C000574D3A20202534640050574D3A202025AF
:1013D00034640050574D3A20202534640050574D56
:1013E0003A20202534640050574D3A20202534649B
:1013F0000050574D3A20202534640050574D3A2074
:10140000202534640050574D3A2020253464005084
:10141000574D3A20202534640050574D3A2020255E
:1014200034640050574D3A20202534640050574D05
:101430003A20202534640050574D3A20202534644A
:10144000003A200020202020434F4D002020206E15
:101450006F6E2D7374616E646172642050574D20FD
:101460006D6F646500202020636F6D706172652070
:10147000696E7465727275707420656E61626C65F8
:1014800064002020206F766572666C6F7720696E2D
:101490007465727275707420656E61626C6564004B
:1014A0003A20002020202054494D534B00423A203E
:1014B00000202020205443435200413A20002020A5
:1014C000202054434352002020202043533A200040
:1014D0002020202057474D3A200050574D3A2020D9
:1014E0002534640050574D3A2020253464004700CD
:1014F0004800000088008A008C00B300B40000009F
:1015000098009A009C00A800AA00AC0028012A01BB
:101510002C012020202054494D4552004400450014
:101520006E00800081006F00B000B100700090007C
:1015300091007100A000A100720020012101730040
:1015400020697320616C736F207469656420746F07
:1015500020746869732070696E0054494D4552319A
:1015600043000A202E002020002020506F72743A81
:10157000200020202000202020416E616C6F672019
:10158000696E203D2025356C64003C756E75736571
:10159000642F756E6B6E6F776E3E0020284125328A
:1015A0006429202000253364200050494E3A200051
:1015B0004F7574707574203D2000496E70757420ED
:1015C000203D2000416E616C6F6720696E203D20D8
:1015D00025356C640070726F7465637465642000F7
:1015E0002028412532642920200025336420005022
:1015F000494E3A2000610900015C0901014F093B95
:101600000044094300390945002C0944001F0932F0
:10161000011209330106093401FB083501F00825E0
:1016200001E8081F01E0082101D5081D01CD0823AC
:1016300001C1083301B6083401AB081C019D08182C
:101640000191081A0187082C017C0822016E081EEE
:1016500001620824015A0809014B0802013E080AE8
:10166000012F080801260829011A0817010E081978
:101670000102081B01F6071D01E6071101DA071038
:1016800001D2070D01C4074201B7070A01AA0707E3
:10169000019D0708018F0731018A0735017F070B7C
:1016A0000174070601690705015E07040152070C72
:1016B00001480737013B072601310703012607369A
:1016C000011B07030111073D0104073801FA060E4B
:1016D00001EF063C01E4060E01DA063001CD063EBC
:1016E00001C3061201B8062E01AD061201446F6E49
:1016F000652E0A0050756C73696E672020200055B6
:101700006E746F7563686564200066616C73650054
:101710004641494C3A204E6F207472696767657282
:101720002064657465637465640A004641494C3AF7
:10173000204E6F6973652064657465637465642009
:101740002D20706C656173652072652D72756E2039
:10175000746573740A002064657465637465642E2F
:101760000A003D20424C546F7563682070726520FA
:1017700056332E3120286F7220636F6D706174694B
:10178000626C6529003D205A20536572766F2050A7
:10179000726F6265003D20424C546F75636820563D
:1017A000332E310020282B2F2D20346D73293A2021
:1017B000003A2033306D73206F72206D6F72650AAE
:1017C000002E2050756C7365207769647468002A58
:1017D0002A20506C65617365207472696767657251
:1017E0002070726F62652077697468696E2033308B
:1017F00020736563202A2A0A004641494C3A204258
:101800004C544F55434820656E61626C6564202DD1
:101810002053657420757020746869732064657640
:10182000696365206173206120536572766F205073
:10183000726F6265207769746820494E564552542C
:10184000494E472073657420746F20277472756544
:10185000272E0A0020204445504C4F594544207300
:10186000746174653A204C4F5720286C6F67696328
:101870002030290020204445504C4F5945442073C6
:10188000746174653A204849474820286C6F67693D
:1018900063203129003D204D656368616E69636195
:1018A0006C2053776974636820646574656374653C
:1018B000640A005741524E494E473A20494E564518
:1018C0005254494E472073657474696E6720707274
:1018D0006F6261626C79206261636B7761726473BD
:1018E0002E0A002E204465706C6F792026207374B8
:1018F0006F7720342074696D65730A003D20424C77
:10190000546F75636820436C617373696320312E73
:10191000322C20312E332C20536D61727420312EE5
:10192000302C20322E302C20322E322C20332E30F0
:101930002C20332E312064657465637465642E0A2F
:10194000002E20436865636B20666F7220424C5402
:101950004F5543480A002E205A5F4D494E5F454E71
:101960004453544F505F494E56455254494E473A9E
:1019700020002E2050726F6265205A5F4D494E5FE5
:1019800050494E3A20002C2073746F7720616E67A7
:101990006C653A202020002C206465706C6F7920E3
:1019A000616E676C653A2000536572766F207072C5
:1019B0006F626520746573740A2E207573696E6793
:1019C00020696E6465783A2020004D3433205761D9
:1019D00069742043616C6C65640057617463686965
:1019E0006E672070696E730A0064697300656E002B
:1019F00061626C65640A00656E6473746F70206D5B
:101A00006F6E69746F72200020580020204D61783D
:101A10003A2000200020204D696E3A2000203B2013
:101A20000020204D323131205300536F6674206501
:101A30006E6473746F7073003F43616E6E6F7420D9
:101A4000777269746520746F20494E5055540A00AE
:101A5000496E76616C69642050696E204D6F6465D3
:101A60000A00203B0020550020204D363033204C0A
:101A70000046696C616D656E74206C6F61642F75D2
:101A80006E6C6F6164004D323453256C6454256C68
:101A900064004739322E39452573004731462564A5
:101AA0000047315A25734636303000473158257388
:101AB0005925734633303030004D3130365025696A
:101AC000532569004D313039532569004D3230308E
:101AD000442573004739322E395A2573004D34326C
:101AE000305325635A257300473238523058590015
:101AF00047315A257346363030004739322E395A2D
:101B00002573004739322E394530004D3130395375
:101B10002569004D313930532569004D343230206C
:101B20005330205A3000203B200020204D343133E8
:101B3000205300506F7765722D6C6F737320726540
:101B4000636F76657279004F4646004F4E00203B2A
:101B500020486F73742068616E646C696E67200042
:101B6000203B204D6F646520006D6D00203B2044BC
:101B7000697374616E6365200046696C616D656EA2
:101B8000742072756E6F757420003B200020496EC2
:101B900076616C6964206578747275646572200082
:101BA00047322F47332062616420706172616D6536
:101BB000746572730A00536C6565702E2E2E005A80
:101BC0002050726F62652050617374204265640A10
:101BD000005A2050726F6265205061737420426514
:101BE00064004732384C3000205A3A200020593ADD
:101BF000200042656420583A20004D6573682070CB
:101C00006F696E74206F7574206F662072616E67E5
:101C1000650A004D302053746F70004D31205374AD
:101C20006F7000436C69636B20746F20526573752D
:101C30006D652E2E2E004E6F204D6F76652E004561
:101C40006E642066696C65206C6973740A00426575
:101C500067696E2066696C65206C6973740A004E52
:101C60006F206D656469610A00526573756D696EF8
:101C70006720534400286E6F2066696C6529004315
:101C8000757272656E742066696C653A20005072D8
:101C9000696E742074696D653A20000A537461742A
:101CA000733A2046696C616D656E74207573656466
:101CB0003A20002C204C6F6E67657374206A6F6247
:101CC0003A2000546F74616C2074696D653A20008D
:101CD00053746174733A20002C204661696C65640A
:101CE0003A20002C2046696E69736865643A2000CA
:101CF0005072696E74733A200053746174733A20A1
:101D0000006F6B006F666600870982097B097409A2
:101D1000660944454255473A004D3131332053005E
:101D2000333030205375506552204F46462E002FD9
:101D30002F004D31343520533C696E6465783E2068
:101D40006F7574206F662072616E67652028302D74
:101D500031290A0046523A0020466C6F773A20003B
:101D600050726F7465637465642050696E0A003A3E
:101D7000200020536572766F2000206F7574206FED
:101D8000662072616E67650A00536572766F200087
:101D900064697300656E0043290A0061626C6564C2
:101DA00020286D696E2074656D702000436F6C642F
:101DB00020657874727564657320617265200042D5
:101DC0004C546F756368204853206D6F6465200024
:101DD0004D34323120696E636F72726563742070A6
:101DE0006172616D657465722075736167650A0063
:101DF0004D65736820706F696E74206F7574206F05
:101E0000662072616E67650A004F6666736574735B
:101E1000204170706C696564004572723A20546F9D
:101E20006F206661722100546F6F206661722066B8
:101E3000726F6D207265666572656E636520706F86
:101E4000696E740A00454550524F4D204F4B0A00B1
:101E50002E0A002028302D313029002076616C7543
:101E600065206F7574206F662072616E6765004132
:101E70006476616E6365204B3D004D383400446FDD
:101E80006E65207072696E74696E672066696C6534
:101E90000A004D3737004D33310020204D323036A7
:101EA000205800486F6D65206F6666736574004347
:101EB00061703A00434F4E4649475F4558504F5274
:101EC00054004D4541545041434B00434F4F4C4506
:101ED000525F54454D504552415455524500434878
:101EE000414D4245525F54454D5045524154555223
:101EF0004500424142595354455050494E470041D4
:101F0000524353004D4F54494F4E5F4D4F4445533C
:101F100000544845524D414C5F50524F5445435434
:101F2000494F4E00455854454E4445445F4D32306C
:101F300000435553544F4D5F4649524D574152450A
:101F40005F55504C4F4144004C464E5F57524954E8
:101F500045004C4F4E475F46494C454E414D45006C
:101F60004155544F5245504F52545F53445F535460
:101F7000415455530053445F57524954450052450C
:101F800050454154004D554C54495F564F4C554DAA
:101F900045005344434152440050524F4D50545F0A
:101FA000535550504F525400484F53545F4143547F
:101FB000494F4E5F434F4D4D414E445300454D45B3
:101FC0005247454E43595F50415253455200434199
:101FD00053455F4C494748545F4252494748544E25
:101FE00045535300544F47474C455F4C494748546D
:101FF0005300534F4654574152455F504F57455237
:10200000004255494C445F50455243454E54004CA4
:102010004556454C494E475F44415441005A5F5034
:10202000524F42450052554E4F5554004155544F62
:102030004C4556454C005052494E545F4A4F420061
:1020400050524F4752455353004155544F524550FB
:102050004F52545F54454D50004155544F524550D6
:102060004F52545F504F5300564F4C554D455452AC
:10207000494300454550524F4D0042494E41525947
:102080005F46494C455F5452414E534645520053BA
:10209000455249414C5F584F4E5F584F46460046A7
:1020A00049524D574152455F4E414D453A4D61723F
:1020B0006C696E20322E302E395F4457372E342E05
:1020C0003620544D33442053534D4442422028413E
:1020D000707220323820323032322030323A33348B
:1020E0003A31372920534F555243455F434F4445BA
:1020F0005F55524C3A68747470733A2F2F67697445
:102100006875622E636F6D2F496E73616E697479A5
:102110004175746F6D6174696F6E2F4D61726C697A
:102120006E2F747265652F437265616C69747944B2
:1021300077696E5F322E302050524F544F434F4CD0
:102140005F56455253494F4E3A312E30204D414350
:1021500048494E455F545950453A33303020537505
:102160005065522045585452554445525F434F558F
:102170004E543A3120555549443A6365646532619D
:1021800032662D343161322D343734382D39623195
:10219000322D6335356336326633363766660A006C
:1021A00050726F6265204F6666736574205A0050E6
:1021B000726F6265204F6666736574205A00290A43
:1021C0000020746F20003F5A206F7574206F6620C6
:1021D00072616E6765202800290A0020746F200054
:1021E0003F59206F7574206F662072616E6765209D
:1021F000282D00290A0020746F20003F58206F7599
:1022000074206F662072616E676520282D00203B68
:102210000020204D3835312058005A2D50726F6201
:1022200065204F66667365740043616E6E6F74203F
:102230006F70656E20737562646972200025697322
:102240000025696D20256973002569682025696D61
:102250002025697300256964202569682025696D3A
:10226000202569730025697920256964202569681E
:102270002025696D2025697300436F6F6C696E6757
:102280002E2E2E0045312025530042656420436FD9
:102290006F6C696E672E2E2E004265642048656162
:1022A00074696E672E2E2E0023646566696E652044
:1022B00044454641554C545F00626564004B6420C0
:1022C000004B6920004B7020005049442074756E0B
:1022D000696E6720646F6E650050494420417574D3
:1022E0006F74756E652066696E6973686564212018
:1022F00050757420746865206C617374204B702C69
:10230000204B6920616E64204B6420636F6E737490
:10231000616E74732066726F6D2062656C6F7720DA
:10232000696E746F20436F6E666967757261746958
:102330006F6E2E680A00504944204175746F7475A1
:102340006E65206661696C6564212074696D656FD6
:1023500075740A004175746F74756E6520666169E5
:102360006C6564212054696D656F75742E00504949
:1023700044204175746F74756E65206661696C6583
:1023800064212054656D7065726174757265207486
:102390006F6F20686967680A005049442043796379
:1023A0006C65730025532025692F256900204B6437
:1023B0003A2000204B693A2000204B703A20002040
:1023C000436C617373696320504944200A00204EB6
:1023D0006F206F76657273686F6F740A0020547592
:1023E0003A2000204B753A2000206D61783A200099
:1023F000206D696E3A200020643A200020626961F5
:10240000733A200048656174696E672E2E2E005065
:102410004944204175746F74756E652073746172E0
:10242000740A004175746F74756E65206661696C1D
:1024300065642E2054656D706572617475726520D7
:10244000746F6F20686967682E0050494420417599
:10245000746F74756E65206661696C6564212054C3
:10246000656D706572617475726520746F6F206838
:102470006967680A00504944204175746F74756E2D
:102480006500504944204175746F74756E6520660F
:1024900061696C65642120426164206865617465CE
:1024A000722069640A004572723A20757466382099
:1024B000666F6E74206E6F7420696E697469616CEA
:1024C000697A65642E004572723A20757466382008
:1024D000666F6E74206E6F7420696E697469616CCA
:1024E000697A65642E004572723A207574663820E8
:1024F000666F6E74206E6F7420696E697469616CAA
:10250000697A65642E002568753A25303268750051
:1025100025303268753A25303268750025303268CA
:10252000752725303268750025687564202530329E
:1025300068753A253032687500000C0F00FE0702FE
:102540002503BB017FFE08FE08FE05080806000003
:1025500040F0C88888987810050808060000C0F880
:102560008888888888F80505050600012030F8303D
:10257000200508080600002070F820202020E00533
:1025800009090600FF2070A8A8B8888870200705F0
:1025900005070001D86C366CD80509090600FFF85C
:1025A000A88888888888A8F8050A0A0600FE2050AE
:1025B00050505088A8A8887003030306000340A069
:1025C00040FFFFFFFFFFFFFFFFFFFFFFFFFFFFFFDA
:1025D000FFFFFFFFFFFFFF0000000605FF010707E9
:1025E00006020080808080800080030303060105CE
:1025F000A0A0A005060606000050F85050F85005AF
:1026000009090600FF2070A8A07028A870200507FF
:1026100007060000C8C81020409898050707060064
:102620000040A0A040A89068010303060205808036
:10263000800309090601FF2040408080804040203F
:102640000309090601FF804040202020404080050A
:10265000070706000020A8702070A82005050506C1
:1026600000012020F820200203030601FFC0408063
:10267000050101060003F8020202060100C0C005C0
:1026800007070600000810102040408005070706D5
:102690000000708898A8C8887003070706010040EA
:1026A000C040404040E00507070600007088081061
:1026B0002040F8050707060000F808103008887069
:1026C00005070706000010305090F81010050707A6
:1026D000060000F880F0080888700507070600006B
:1026E000304080F0888870050707060000F8081061
:1026F0001020202005070706000070888870888851
:1027000070050707060000708888780810600205C9
:1027100005060100C0C000C0C00206060601FFC0D9
:10272000C000C04080030505060101204080402014
:10273000050303060002F800F80305050601018001
:102740004020408005070706000070881020200008
:10275000200507070600007088B8A8B88070050734
:1027600007060000708888F8888888050707060033
:1027700000F04848704848F00507070600007088D8
:102780008080808870050707060000F048484848A8
:1027900048F0050707060000F88080F08080F80503
:1027A0000707060000F88080F08080800507070694
:1027B00000007088808098887005070706000088F0
:1027C0008888F8888888030707060100E0404040B1
:1027D0004040E00507070600003810101010906018
:1027E0000507070600008890A0C0A090880507078D
:1027F000060000808080808080F8050707060000C2
:1028000088D8A8888888880507070600008888C8AF
:10281000A898888805070706000070888888888837
:1028200070050707060000F08888F08080800507A3
:102830000706000070888888A890680507070600CA
:1028400000F08888F0A090880507070600007088CF
:102850008070088870050707060000F820202020F7
:10286000202005070706000088888888888870056A
:10287000070706000088888888505020050707064B
:10288000000088888888A8A85005070706000088E7
:102890008850205088880507070600008888502047
:1028A000202020050707060000F80810204080F8C7
:1028B0000309090601FFE080808080808080E005B8
:1028C0000707060000804040201010080309090691
:1028D00001FFE020202020202020E0050303060047
:1028E000052050880501010600FEF80303030601D8
:1028F00005804020050505060000700878887805E9
:1029000007070600008080F0888888F00505050626
:1029100000007080808870050707060000080878AE
:10292000888888780505050600007088F0807005A5
:102930000707060000304840E04040400507070612
:1029400000FE7088888878087005070706000080F8
:1029500080F0888888880307070601004000C0408F
:102960004040E00409090601FE100030101010106C
:10297000906005070706000080808890E09088033B
:102980000707060100C04040404040E0050505063D
:102990000000D0A8A8A8A8050505060000B0C888B2
:1029A0008888050505060000708888887005070777
:1029B0000600FEF0888888F080800507070600FE84
:1029C00078888888780808050505060000B0C88062
:1029D000808005050506000078807008F00507076F
:1029E0000600002020F8202020180505050600001C
:1029F0008888889868050505060000888888502022
:102A00000505050600008888A8A8500505050600EC
:102A10000088502050880507070600FE88888850E7
:102A2000204080050505060000F8102040F8030945
:102A3000090601FF20404040804040402001090934
:102A40000602FF80808080808080808003090906E4
:102A500001FF8040404020404040800503030600C5
:102A60000248A890FF554E4C4F41442046494C41E6
:102A70004D454E54004C4F41442046494C414D4534
:102A80004E540046494C414D454E54204348414E1A
:102A900047450042656400456E636C6F73757265EF
:102AA00000202020202020200020202020006572EF
:102AB00072001FE020102010201010201020201085
:102AC000201030300840048003001FE03FF03FF04A
:102AD0003FF01FE01FE03FF03FF03FF00FC00780E6
:102AE00003003FFFF038007030FC3020FC102078ED
:102AF000102030102C00D02E31D02F7BD02F7BD047
:102B00002E31D02C00D020301020781020FC103036
:102B1000FC303800703FFFF03FFFF0380070318626
:102B2000302387102787902F87D02F03D020301095
:102B30002078102078102030102F03D02F87D02736
:102B400087902387103186303800703FFFF01FFFD9
:102B5000F81FFFF80410400208200208200410406B
:102B6000082080104100104100082080041040001F
:102B700000001FFFF81FFFF8FFFFFF8000018E001D
:102B8000E19F01F19381399F81F99F81F99FB9F903
:102B90008F28F18038018000019FFFF99174999B83
:102BA00006A99B54A99B56A99B54999FFFF9FFFF27
:102BB000FF63616E63656C005072696E74204162E0
:102BC0006F727465640055492041626F7274656468
:102BD000004D323520500A4D323400526573756D08
:102BE00065005549205061757365005061757369C2
:102BF0006E672E2E2E00726573756D65004D323432
:102C00000000FE0003FF8007C7C00701E00000E0EE
:102C10000000F00000700400700E00701F00703F94
:102C200080F00E00E00F01E007C7C003FF8000FE48
:102C30000000FE0003FF8007C7C00F01E00E00E0A8
:102C40003F80F01F00700E007004007000007000E4
:102C500000F00000E00701E007C7C003FF8000FEAE
:102C6000000E000E000E000E000E000E000E000EF4
:102C7000007FC03F801F000E00040004000E001FF4
:102C8000003F807FC00E000E000E000E000E000EF2
:102C9000000E000E00FFFFFF7F80FFC0FFC0FFC0DF
:102CA0007F807F80FFC0FFC0FFC03F001E000C0080
:102CB00050726F6265205A204F66667365740052C9
:102CC000756E6F75742044697374206D6D004D6F5F
:102CD00074696F6E20456E636F6465720053656E34
:102CE000736F72204C6F770053656E736F7220485C
:102CF000696768004E6F2053656E736F720052757E
:102D00006E6F75742053656E736F720052756E6FBF
:102D10007574204D6F6465004C6F6164206D6D00AB
:102D2000556E6C6F6164206D6D0046696C2E204499
:102D300069612E004520696E206D6D5E330041642F
:102D400076616E6365204B004D3330332055312062
:102D50004525692053256900504944204175746F09
:102D600074756E65202A005049442D44202A005075
:102D700049442D49202A005049442D50202A002042
:102D8000082046616374002008204D617800200807
:102D9000204D696E004F6666004F6E004175746F7E
:102DA00074656D70004D696E2054726176656C209B
:102DB00056656C004D696E2056656C6F6369747959
:102DC000004D617820452056656C004D6178205A91
:102DD0002056656C004D617820592056656C004D79
:102DE000617820582056656C004D6178204520415F
:102DF0006363656C004D6178205A20416363656CA4
:102E0000004D6178205920416363656C004D617805
:102E1000205820416363656C0054726176656C20B4
:102E2000416363656C005265747261637420416331
:102E300063656C00416363656C004D6178204520DB
:102E40004A65726B004D6178205A204A65726B00AA
:102E50004D61782059204A65726B004D6178205889
:102E6000204A65726B0050726F6265205A204F666F
:102E7000667365740050726F62652059204F6666F4
:102E80007365740050726F62652058204F666673D8
:102E9000657400452073746570732F6D6D005A2042
:102EA00053746570732F6D6D005920537465707382
:102EB0002F6D6D00582053746570732F6D6D004138
:102EC0006476616E6365642053657474696E6773BC
:102ED000003F0043616E63656C00496E6974004D8C
:102EE00034323800496E697469616C697A652045CD
:102EF0004550524F4D0046696C616D656E740054CB
:102F0000656D706572617475726500537465707378
:102F10002F6D6D0050726F6265204F666673657429
:102F200073004A65726B00416363656C657261741E
:102F3000696F6E0056656C6F6369747900536574D0
:102F400020486F6D65204F66667365747300436F2C
:102F50006E66696775726174696F6E003F004E65D9
:102F6000787420506F696E7400446F6E65004E6512
:102F7000787400486F6D696E672058595A003F0099
:102F800043616E63656C204F626A656374004E4FE7
:102F9000005945530043616E63656C204F626A655A
:102FA0006374203D004D61696E0048696768205375
:102FB000706565640053572D4D6F64650053746FE1
:102FC00077004465706C6F790053656C662D5465AD
:102FD000737400526573657400426564004E6F7AC5
:102FE0007A6C650046616E20537065656400436FBE
:102FF0006E66696775726174696F6E00526573748D
:103000006F72652044656661756C7473004C6F6106
:10301000642053657474696E67730053746F7265CE
:103020002053657474696E677300507265686561DA
:1030300074202420436F6E6600506F776572204FB6
:103040007574616765004F6666004F6E0052756E5D
:103050006F75742053656E736F7200424C546F75B8
:1030600063680050726F6265205A204F6666736510
:103070007400416476616E6365642053657474699D
:103080006E6773004D61696E004D373032205425F4
:1030900064004D36303020423020542564004D37D6
:1030A0003032203B2564004D3730312054256400F8
:1030B0004D373032004D373031004D363030204200
:1030C00030004D61696E00436F6E74696E75650006
:1030D0004F6666004F6E0052756E6F7574205365B3
:1030E0006E736F72005075726765206D6F72650048
:1030F000524553554D45204F5054494F4E533A0079
:103100005052494E54205041555345440020204EC2
:103110006F7A7A6C653A20005061726B696E672E27
:103120002E2E0000005761697420666F7200666978
:103130006C616D656E74206368616E676500746FA5
:10314000207374617274005761697420666F720035
:1031500066696C616D656E7420756E6C6F6164007C
:10316000004E6F7A7A6C652068656174696E6700DD
:10317000506C6561736520776169742E2E2E000096
:10318000507265737320627574746F6E00746F2073
:1031900068656174206E6F7A7A6C650000496E73A1
:1031A0006572742066696C616D656E7400616E6431
:1031B00020707265737320627574746F6E00746F23
:1031C00020636F6E74696E7565005761697420665F
:1031D0006F720066696C616D656E74206C6F6164FE
:1031E0000000507265737320427574746F6E0074C2
:1031F0006F20726573756D65207072696E74000062
:103200005761697420666F72207072696E74007401
:103210006F20726573756D652E2E2E0000576169E3
:103220007420666F720066696C616D656E742070E3
:103230007572676500003E2000256C642E25696D5F
:1032400000457874727564656420546F74616C0015
:103250003E20004C6F6E67657374204A6F62205485
:10326000696D65003E20005072696E742054696D6E
:103270006500436F6D706C65746564003A200050A2
:1032800072696E7420436F756E74003A2000313598
:10329000300035004245443A204154432031303417
:1032A00047542D320052756E6177617920576174F1
:1032B00063683A204F4E004D61782054656D700070
:1032C000343530004D696E2054656D700035004511
:1032D000313A20536C696365456E6720343530C2DE
:1032E000B043005053550047656E657269630050E6
:1032F000726F746F636F6C00312E300042617564C1
:103300000032353030303000437265616C69747959
:1033100033442052414D50530042696C696E6561DF
:1033200072204C6576656C696E67004578747275BD
:103330006465727300310074696E796D61636869E8
:103340006E657333642E636F6D00333030205375B8
:1033500050655200323032322D30342D303300324D
:103360002E302E395F4457372E342E36004D617281
:103370006C696E005072696E74657220537461746A
:103380007300546865726D6973746F727300426F75
:1033900061726420496E666F005072696E74657266
:1033A00020496E666F004D61696E004D31303030DE
:1033B0000053746F70205072696E7400526573759B
:1033C0006D65205072696E7400506F776572204F82
:1033D0007574616765004D3139305335350A4732B0
:1033E000380A4732390A4D3430300A4D31303453BF
:1033F0003231350A4732380A4D313039533231359E
:103400000A4D34323053310A473158313030593156
:10341000303046353030300A47315A300A4D353079
:10342000300A4D37370A4D31313720536574205AF1
:10343000204F6666736574004D3130365331323833
:103440000A4D3330334338533231354530550A4D08
:103450003530300A4D313137205049442054756E93
:103460006520446F6E65004D3139305335350A4D56
:10347000313034533231350A4732380A4732394C09
:10348000310A4731205831303059313030463530EB
:1034900030300A47315A30004D3530300A4D313125
:1034A000372053657474696E67732053746F726547
:1034B000640053746F72652053657474696E67732A
:1034C000005072657020666F72205A2041646A75E0
:1034D0007374005049442054756E650053657475CB
:1034E00070004D61696E003F004261636B00537470
:1034F0006F70004E6F204D65646961005072696E97
:10350000742066726F6D204D656469610043686167
:103510006E6765204D65646961004D32310041621E
:103520006F7574205072696E746572004368616EC5
:1035300067652046696C616D656E74004C657665E3
:103540006C696E6720546F6F6C7300436F6E6669B1
:103550006775726174696F6E0054656D7065726134
:1035600074757265004D6F74696F6E00537461728B
:103570007420486F7374205072696E7400526573C2
:10358000756D65205072696E740043616E63656C81
:10359000204F626A6563740054756E650053746FE2
:1035A00070205072696E740050617573652050729E
:1035B000696E7400496E666F2053637265656E00B4
:1035C0003F005374617274205072696E74004361DD
:1035D0006E63656C005072696E740043616E6E6F4D
:1035E0007420656E746572207375626469723A2026
:1035F0000002202E2E004D61696E002100486F747C
:10360000656E6420746F6F20636F6C640042616349
:103610006B0050726F6365656400536F667420457C
:103620006E6473746F7073004D6F74696F6E0044D5
:10363000697361626C6520537465707065727300A4
:103640004D383400426564205472616D6D696E6757
:10365000004661646520486569676874004F666666
:10366000004F6E00426564204C6576656C696E673C
:10367000004C6576656C20426564004732394E0027
:103680004732385A004732385900486F6D6520403C
:103690000047323858004175746F20486F6D6500DF
:1036A000473238004D61696E00507265686561741B
:1036B000202420426564005072656865617420248E
:1036C00020456E640054656D706572617475726535
:1036D00000436F6F6C646F776E0050726568656150
:1036E0007420240046616E20537065656400426555
:1036F00064004E6F7A7A6C65004D61696E0050729D
:103700006F6265205A204F66667365740041647667
:10371000616E6365204B00466C6F770046616E20DA
:10372000537065656400426564004E6F7A7A6C651B
:10373000005370656564004D61696E00486F6D6986
:103740006E67204661696C65640050524553454E72
:1037500054004F5554006F70656E005452494747EE
:1037600045524544003A20004D4F54494F4E203AAF
:1037700020004F46460A003A200066696C616D657C
:103780006E74007A5F6D696E00795F6D696E0078A6
:103790005F6D696E005265706F7274696E67206547
:1037A0006E6473746F70207374617475730A002093
:1037B000746F6F206C6F6E672065787472757369B3
:1037C0006F6E2070726576656E7465640A002063A2
:1037D0006F6C6420657874727573696F6E20707297
:1037E0006576656E7465640A00486F6D65202573A3
:1037F00025732573204669727374005761726E6970
:103800006E673A20486F6D696E672042756D702053
:1038100044697669736F72203C20310A0002020409
:1038200000000000000000000000000000809D4338
:1038300000009B430000C84300000041000000411D
:1038400000000040FFFFFF00000001000000010039
:10385000008000555555000000400033333300AA66
:10386000AA2A004992240000002000C7711C009978
:10387000991900D1451700555515003BB113002487
:1038800049120011111100000010000F0F0F00E38A
:10389000380E0043790D00CCCC0C00C3300C00E88E
:1038A000A20B0064210B00AAAA0A00703D0A009D29
:1038B000D80900427B090092240900DCD308008863
:1038C0008808001042080000000800F0C1070087C7
:1038D00087070075500700711C07003EEB0600A12A
:1038E000BC06006990060066660600703E06006130
:1038F00018060017F4050074D105005BB00500B28E
:10390000900500627205005555050078390500B82C
:103910001E0500050505004EEC040087D40400A137
:10392000BD040090A7040049920400C17D0400EE8C
:10393000690400C7560400444404005C32040008D3
:1039400021040041100400000004003FF00300F8CF
:10395000E0030026D20300C3C30300CCB503003A42
:10396000A803000A9B0300388E0300C08103009F58
:10397000750300D0690300505E03001D530300343B
:10398000480300913D030033330300162903003838
:103990001F030097150300300C0300030303000B03
:1039A000FA020049F10200BAE802005CE002002DD0
:1039B000D802002DD0020059C80200B0C002003168
:1039C000B90200DAB10200AAAA0200A0A30200BC58
:1039D0009C0200FA9502005C8F0200DF88020082E0
:1039E000820200457C020027760200277002004315
:1039F0006A02007C640200D05E02003F590200C8E7
:103A0000530200FFFDFCFAF8F6F4F2F0EEECEAE9FE
:103A1000E7E5E3E1E0DEDCDAD9D7D5D4D2D0CFCD0B
:103A2000CBCAC8C7C5C3C2C0BFBDBCBAB9B7B6B49C
:103A3000B3B2B0AFADACAAA9A8A6A5A4A2A1A09EFE
:103A40009D9C9A99989795949392908F8E8D8B8A3E
:103A50008988878684838281807F7E7D7B7A79785E
:103A600077767574737271706F6E6D6C6B6A69685E
:103A700067666564636261605F5E5D5C5B5A59584E
:103A8000585756555453525150504F4E4D4C4B4A27
:103A90004A4948474646454443424241403F3E3EEC
:103AA0003D3C3B3B3A3938383736353534333232A2
:103AB0003130302F2E2E2D2C2B2B2A292928272749
:103AC00026252524232322212120201F1E1E1D1CE4
:103AD0001C1B1B1A19191818171616151514131371
:103AE00012121111100F0F0E0E0D0D0C0C0B0A0AF5
:103AF000090908080707060605050404030302026E
:103B000001000000809D4300009B430000C843006B
:103B1000000000000000000000000053657474699C
:103B20006E67732053746F72656400290A00206207
:103B3000797465733B206372632000536574746904
:103B40006E67732053746F7265642028004545507A
:103B5000524F4D20496E697469616C697A65640AD7
:103B60000048617264636F646564204465666175D2
:103B70006C742053657474696E6773204C6F616454
:103B800065640020286D6D2900203B204C6576651A
:103B90006C696E67200020204D3432302053004184
:103BA00075746F20426564204C6576656C696E673C
:103BB0000020460020480020204D3134352053009D
:103BC0004D6174657269616C2068656174757020FF
:103BD000706172616D65746572730020204D3930BB
:103BE00030204B004C696E65617220416476616ED5
:103BF00063650046696C616D656E742072756E6FE9
:103C000075742073656E736F7200204A0020204720
:103C10003239205720490020204D313439204320AB
:103C20003B20556E69747320696E2043656C73691F
:103C300075730A0054656D706572617475726520E4
:103C4000556E697473002020473231203B004C6967
:103C50006E65617220556E69747300454550524F10
:103C60004D206461746173697A65206572726F7248
:103C70002E0A0053746F7265642073657474696EE4
:103C800067732072657472696576656400290A003D
:103C90002062797465733B20637263200020737423
:103CA0006F7265642073657474696E6773207265E2
:103CB00074726965766564202800454550524F4D01
:103CC00020435243204572726F7200202863616C5A
:103CD00063756C6174656429210A0020213D200010
:103CE000454550524F4D20435243206D69736D61DD
:103CF000746368202D202873746F72656429200016
:103D00002053697A653A2000496E6465783A20004C
:103D10000000FA430000FA430000204100009642F0
:103D20000000A0420000A0420000C8430000BE42C4
:103D3000DC050000DC050000640000004B00000012
:103D4000454550524F4D2056657273696F6E204540
:103D500072726F7200204D61726C696E3D56383719
:103D6000290A00454550524F4D2076657273696FA0
:103D70006E206D69736D61746368202845455052EB
:103D80004F4D3D0024F4D43050C38E20C2A24017C2
:103D9000828B7011127A910D816CD90AA861E108A9
:103DA000C7586607615143061E4B5D05C145A70410
:103DB0001A411104093D9803713931034036DB0281
:103DC00065339102D4305402802E1D02632CEE0123
:103DD000752AC501B028A001102781018F25640133
:103DE0002B244B01E0223401AC211F018D200D0159
:103DF000801FFC00841EED00971DDF00B81CD20060
:103E0000E61BC600201BBC00641AB200B219A80051
:103E10000A19A0006A189900D117910040178B0069
:103E2000B516840031167E00B31579003A1573007B
:103E3000C7146F0058146A00EE13660088136300FD
:103E400025135E00C7125B006C1257001512540058
:103E5000C111510070114F0021114B00D6104900C3
:103E60008D1047004610440002104200C00F400071
:103E7000800F3E00420F3C00060F3B00CB0E380087
:103E8000930E37005C0E3500270E3400F30D320020
:103E9000C10D3100900D3000600D2E00320D2D004F
:103EA000050D2C00D90C2B00AE0C2900850C290027
:103EB0005C0C2700350C27000E0C2600E80B2400B4
:103EC000C40B2400A00B23007D0B23005A0B210000
:103ED000390B2100180B2000F80A1F00D90A1E0018
:103EE000BB0A1E009D0A1D00800A1D00630A1C00FB
:103EF000470A1B002C0A1B00110A1A00F7091A00B6
:103F0000DD091900C4091900AB091900920917004D
:103F10007B091800630917004C09160036091600C2
:103F2000200916000A091500F5081500E00814001C
:103F3000CC081400B8081400A4081400900813005A
:103F40007D0812006B081300580812004608120082
:103F50003408110023081100120811000108110093
:103F6000F0071000E0071000D0071000C007100095
:103F7000B0070F00A107100091070E0083070F0084
:103F800074070F0065070E0057070E0049070E0063
:103F90003B070D002E070E0020070D0013070D0034
:103FA00006070D00F9060C00ED060D00E0060C00FA
:103FB000D4060C00C8060C00BC060C00B0060C00B1
:103FC000A4060B0099060C008D060B0082060B0060
:103FD00077060B006C060B0061060A0057060B0003
:103FE0004C060A0042060A0038060A002E060A009D
:103FF00024060A001A060A001006090007060A002D
:10400000FD050900F4050900EB050900E2050900BA
:10401000D9050900D0050900C7050900BE0509003A
:10402000B5050800AD050800A50509009C050800B8
:10403000940508008C050800840508007C0508002C
:10404000740508006C050700650508005D0507009C
:10405000560508004E050700470507004005080003
:1040600038050700310507002A050700230507006A
:104070001C050600160507000F05070008050600C9
:1040800002050700FB040600F5040700EE04060025
:10409000E8040600E2040700DB040600D50406007D
:1040A000CF040600C9040600C3040600BD040600D0
:1040B000B7040600B1040500AC040600A60406001F
:1040C000A00405009B04060095040500900406006A
:1040D0008A04050085040500800406007A040500B2
:1040E00075040500700405006B04050066040500F6
:1040F000610405005C040500570405005204050036
:104100004D04050048040500430405003E04040076
:104110003A04050035040500300404002C040500B1
:1041200027040400230405001E0404001A040400EC
:1041300016040500110404000D0404000904050020
:104140000404040000040400FC030400F803040059
:10415000F4030400F0030400EC030400E80304008B
:10416000E4030400E0030400DC030400D8030400BB
:10417000D4030400D0030400CC030400C8030300EC
:10418000C503030024F404D9201BC40C5C0E98045E
:10419000C4095F0265077101F405F900FB04B3006F
:1041A00048048700C1036900580355000303450014
:1041B000BE023A008402310053022A00290225007F
:1041C00004022000E4011C00C8011900AF0117001F
:1041D00098011400840113007101100061011000A6
:1041E00051010E0043010D0036010B002B010B00A5
:1041F00020010B00150109000C0109000301080052
:10420000FB000800F3000800EB000700E4000600D4
:10421000DE000600D8000600D2000600CC00050033
:10422000C7000500C2000500BD000400B90004007D
:10423000B5000400B1000400AD000400A9000400B2
:10424000A5000300A20003009F0004009B000300E0
:104250009800030095000200930003009000030003
:104260008D0002008B00030088000200860002001F
:1042700084000300810002007F0002007D00020034
:104280007B00020079000200770001007600020046
:104290007400020072000100710002006F00020051
:1042A0006D0001006C0002006A000100690002005C
:1042B0006700010066000100650001006400020063
:1042C0006200010061000100600001005F00020067
:1042D0005D0001005C0001005B0001005A0001006C
:1042E000590001005800010057000100560001006C
:1042F000550001005400010053000000530001006C
:104300005200010051000100500001004F00010067
:104310004E0000004E0001004D0001004C00010065
:104320004B0000004B0001004A0001004900010061
:10433000480000004800010047000100460000005E
:104340004600010045000000450001004400010056
:104350004300000043000100420000004200010051
:104360004100000041000100400001003F0000004A
:104370003F0001003E0000003E0001003D00000043
:104380003D0001003C0000003C0000003C0001003A
:104390003B0000003B0001003A0000003A00010031
:1043A000390000003900010038000000380000002A
:1043B000380001003700000037000100360000001F
:1043C0003600000036000100350000003500000016
:1043D000350001003400000034000000340001000A
:1043E0003300000033000000330001003200000001
:1043F00032000000320001003100000031000000F6
:1044000031000100300000003000000030000100E9
:104410002F0000002F0000002F0000002F000100DF
:104420002E0000002E0000002E0001002D000000D4
:104430002D0000002D0000002D0001002C000000C8
:104440002C0000002C0000002C0001002B000000BC
:104450002B0000002B0000002B0001002A000000B0
:104460002A0000002A0000002A00010029000000A4
:104470002900000029000000290000002900010097
:10448000280000002800000028000000280000008C
:10449000280001002700000027000000270000007E
:1044A0002700000027000100260000002600000071
:1044B0002600000026000000260001002500000064
:1044C0002500000025000000250000002500000058
:1044D000250001002400000024000000240000004A
:1044E000240000002400010023000000230000003D
:1044F0002300000023000000230000002300000030
:104500002300010022000000220000002200000021
:104510002200000022000000220001002100000013
:104520002100000021000000210000002100000007
:1045300021000000210001002000000020000000F8
:1045400020000000200000002000000020000000EB
:1045500020000000200001001F0000001F000000DC
:104560001F0000001F0000001F0000001F000000CF
:104570001F0001001E0000001E0000001E000000C1
:104580001E000000232C0000B82200005618000076
:104590003A0F0000B8080000B104000071020000EA
:1045A0003E01000020436F756E7420583A0042654A
:1045B00064004531004500626564002C2073797306
:1045C00074656D2073746F70706564212048656137
:1045D0007465725F49443A200048656174696E678A
:1045E000204661696C65640048656174696E672086
:1045F0006661696C6564004D3131322053687574B1
:10460000646F776E001000C90210012C0140012276
:104610000170011801B0010E01F00104015002FA0D
:1046200000B002F0003003E600D003DC009004D2BA
:10463000007005C800A006BE000008B400B009AABA
:1046400000D00BA000600E960060118C0000158257
:104650000020197800C01D6E00A0226400B0275A07
:1046600000902C500000314600E0343C00103832FD
:1046700000903A2800603C1E00A03D1400803E0AD5
:1046800000203F00004572723A204D415854454D7C
:1046900050004D415854454D50207472696767650C
:1046A000726564004572723A204D494E54454D5032
:1046B000004D494E54454D502074726967676572CC
:1046C000656400544845524D414C2052554E415767
:1046D000415900546865726D616C2052756E617746
:1046E0006179000A0A0020205A5F4D494E3A0020A5
:1046F00020595F4D494E3A002020585F4D494E3AAF
:1047000000202F002042403A0020403A0020573A33
:104710000020573A00496E76616C696420657874B0
:1047200072756465720A007C3C3E5E2B3D3F2F5BD8
:104730005D3B2C2A225C0043616E6E6F74206F70AB
:10474000656E2073756264697220004D65646961ED
:1047500020496E6974204661696C0053442063618E
:104760007264206F6B0A006F70656E526F6F7420F9
:104770006661696C65640A00766F6C756D652E699B
:104780006E6974206661696C65640A004E6F20531F
:104790004420636172640A000A4D3234004D3233A2
:1047A000202573002E0A006F70656E206661696CAB
:1047B00065642C2046696C653A200046696C65206A
:1047C00073656C65637465640A002053697A653AA1
:1047D000200046696C65206F70656E65643A200044
:1047E000454E4420535542524F5554494E450A00B8
:1047F0002220706F73002220706172656E743A22FD
:1048000000535542524F5554494E452043414C4C5C
:10481000207461726765743A220053756263616C3B
:104820006C204F766572666C6F77004578636565BE
:10483000646564206D617820535542524F55544948
:104840004E452064657074683A002E0A0044656C19
:104850006574696F6E206661696C65642C204669B9
:104860006C653A200046696C652064656C6574650A
:10487000643A005344207072696E74696E672062F6
:1048800079746520004E6F74205344207072696EF5
:1048900074696E670A002F6175746F25632E670057
:1048A00041425300504C410057726974696E672051
:1048B000746F2066696C653A2000667265736800E3
:1048C000646F696E67002066696C653A20004E6F00
:1048D000772000FD55555555555FFFFFFFFFFFFF42
:1048E000FFFFFFFE00000000003FFFFFFFFFFFFF94
:1048F000FFFFFFFD000007FFFFFFFFFFFFFFFFFFC0
:10490000FFFFFFFE07C00555555555555FFFFFFFDB
:10491000FFFFFFFC0A200600000000003FFFFFFF32
:10492000FFFFFFFE141005000007FFFFFFFFFFFF62
:10493000FFFFFFFC28080607C00555555555555F74
:10494000FFFFFFFE5404040A200600000000003FA1
:10495000FFFFFFFC600406141005000007FFFFFFC7
:10496000FFFFFFFE50040428080607C005555555F3
:1049700055555FFC6004065404040A20060000003C
:1049800000003FFE54041C600406141005000000E3
:1049900000001FFC28082E50040428080607C00049
:1049A00001F03FFE1410546004065404040A200071
:1049B00002081FFC0A206654041C60040614100040
:1049C00005043FFE07C05428082E500404280800A0
:1049D0000A021FFC00002E14105460040654040048
:1049E00015013FFE00001C0A206654041C600400F0
:1049F00018011FFC00000607C05428082E500400B0
:104A000014013FFE00000400002E14105460040046
:104A100018011FFCFFFFFE00001C0A206654041C46
:104A200015013FFED5555400000607C05428082A3A
:104A30000A021FFC84104600000400002E141051CE
:104A400005043FFEC41044FFFFFE00001C0A206165
:104A500002881FFC841046D5555400000607C0513B
:104A600001F03FFE84104484104600000400002A38
:104A700000001FFCC41046C41044FFFFFE00001CD1
:104A800000003FFE841044841046D55554000000B9
:104A900000001FFCD55556841044841046000000C9
:104AA00000003FFCFFFFFCC41046C41044FFFFFFA2
:104AB000FFFF9FFE000006841044841046D5555524
:104AC0005555BFFD555554D5555684104484104155
:104AD00004109FFFFFFFFCFFFFFCC41046C4104101
:104AE0000411BFFFFFFFFE00000684104484104144
:104AF00004109FFFFFFFFD555554D55556841041B6
:104B000004109FFFFFFFFFFFFFFCFFFFFCC41041ED
:104B10000411BFFFFFFFFFFFFFFE000006841041EE
:104B200004109FFFFFFFFFFFFFFD555554D555555E
:104B30005555BFFFFFFFFFFFFFFFFFFFFCFFFFFF1C
:104B4000FFFF9FFFFFFFFFFFFFFFFFFFFE000000D3
:104B500000003FFFFFFFFFFFFFFFFFFFFD55555523
:104B600055555FFFFFFFFFFFFFFFFFFFFFFFFFFF49
:104B7000FFFFFFFFFFFFFFFFFFFFFFFFFFFFFFFF45
:104B8000FFFFFFFFFFFFFFFFFFFFFFFFFFFFFFFF35
:104B9000FFFFFFFFFFFFFFFFFFFFFFFFFFFFFFFF25
:104BA000FFFFFFE02EFB7DFBFBCFC1DFBB3EC0E183
:104BB000FE3C1FFDEE7B39F9F3CF9EDFBB3EDFDE0F
:104BC000FCDDE7FDEE3BBBF9EBD7BF5FBB5EDFDE95
:104BD000FDEDF7FDEEBBD3FAEBB73FDFBB4EDFDFFA
:104BE000FFCDF3FDEEDBC7FAEBBB7FC03B6EC0E34E
:104BF000FF1DF3FDEECBEFFADBBB7FDFBB66DFF81B
:104C0000FFCDF3FDEEEBEFFB5B033F5FBB76DFFE1B
:104C10007FEDF3FDEEF3EFFB5B79BEDFBB7ADFDE0A
:104C20007DEDF7FDEEF3EFFBBAFD9EDFBB7CDFDE33
:104C3000FDCDE7FDEEFBEFFBBAFDC1DFBB7EC0E0C3
:104C4000FE1C1F6D61726C696E66772E6F72670055
:104C5000322E302E395F4457372E342E36001FFF48
:104C6000FFFFFFFFFF600000000001FF40000000A9
:104C70000000FF8000000000007F83CF00000C30A8
:104C80003F87FF80000C301F867980000C000F8C5E
:104C900030C7838C30E78C30CFC7CC31F38C30DC1D
:104CA000ECEC33B98C30D86C6C33198C30D06C0C84
:104CB00033198C30D86C0C33198C30DC6C0E3B19EA
:104CC0008C30CF7C079F198C30C77C038F19400034
:104CD0000000000002600000000000061FFFFFFF50
:104CE000FFFFF86001F4017001EA019001E001B0FA
:104CF00001D601D001CC010002C2013002B801602E
:104D000002AE019002A401D0029A0120039001702A
:104D1000038601C0037C0130047201A004680120F5
:104D2000055E01B005540160064A0120074001F00C
:104D3000073601F0082C01100A2201500B1801C09F
:104D40000C0E01500E04013010FA002012F0005039
:104D500014E600C016DC007019D200501CC80050C8
:104D60001FBE007022B400B025AA00F028A00020C9
:104D70002C9600302F8C0010328200A0347800F086
:104D8000366E00E0386400803A5A00403B5500E03F
:104D90003B5000F03C4600C03D3C00603E3200E02D
:104DA0003E2800303F1E00503F1900703F1400A005
:104DB0003F0A00C03F0000D03FF6FFE03FECFF207D
:104DC00020506C616E6E65724275666665724279DE
:104DD0007465733A20002046726565204D656D6FDD
:104DE00072793A200020436F6D70696C65643A20D7
:104DF00041707220323820323032320A00204C6149
:104E0000737420557064617465643A2032303232B4
:104E10002D30342D3033207C20417574686F723A08
:104E20002054696E794D616368696E657333440A15
:104E3000004D61726C696E20322E302E395F4457FE
:104E4000372E342E360A0020536F667477617265F0
:104E50002052657365740A00205761746368646F3B
:104E6000672052657365740A002042726F776E2066
:104E70006F75742052657365740A002045787465F7
:104E8000726E616C2052657365740A00506F7765AD
:104E90007255700A0073746172740A004739310ADE
:104EA00047315A350A4739300A4D38340A4D3130C6
:104EB0003453300A4D3134305330004D31303031BD
:104EC000006572726F722077726974696E67207400
:104ED0006F2066696C650A00446F6E6520736176A9
:104EE000696E672066696C652E0A004D323900458F
:104EF0006E6473746F7073002553202563202563DF
:104F000020256320256300205A3A0020593A0020CA
:104F1000583A00656E6473746F7073206869743AF0
:104F2000200000002100240027002A002D0030006E
:104F3000330001010000040107010A010000220002
:104F4000250028002B002E00310034000201000053
:104F5000050108010B0100002000230026002900A4
:104F60002C002F003200000100000301060109019E
:104F700005050505070508080808020202020A0AD5
:104F800008080404040401010101010101010303F3
:104F9000030303030303040707070C0C0C0C0C0C9E
:104FA0000C0C0202020206060606060606060B0B9B
:104FB0000B0B0B0B0B0B01021020200808102040DC
:104FC00010204080020102010804020101020408CD
:104FD000102040808040201008040201800402015B
:104FE00080402010080402010804020101020408A4
:104FF00010204080010204081020408000000A0BAD
:1050000002090C0D0E080703040100000000000057
:105010000000000000000000000000000000000090
:10502000000000000000000012111000000000004D
:105030000000000000000000000000000000000070
:105040000000004D6F76652025736D6D004D6F7605
:105050006520302E316D6D004D6F766520316D6DA0
:10506000004D6F76652031306D6D004D6F76652097
:1050700041786973004D6F76652045787472756468
:105080006572004D6F7665205A004D6F7665205928
:10509000004D6F7665205800A448A0484368616EB3
:1050A00067652046696C616D656E7400556E6C6F46
:1050B00061642046696C616D656E74004C6F61645B
:1050C0002046696C616D656E74005072656865613B
:1050D0007420437573746F6D0050726568656174F8
:1050E0002024004261636B005072696E7420667206
:1050F0006F6D204D656469610050726F62696E6703
:10510000204661696C65640A0050726F62696E675F
:10511000204661696C656400205A3A200020593AA3
:10512000200042656420583A2000726573756D65F1
:1051300064004469736D69737300526573756D69BA
:105140006E670073686F7700627574746F6E0062CB
:105150006567696E0044697361626C6552756E6F54
:1051600075740050757267654D6F7265005061759A
:1051700073656400436F6E74696E7565004C6F6192
:10518000642046696C616D656E74205400496E73CD
:105190006572742066696C616D656E7420616E6401
:1051A0002073656E64204D3130380A00220A0055A4
:1051B0006E6B6E6F776E20636F6D6D616E643A20FB
:1051C00022002042002050006F6B00204500205A32
:1051D0000020590020204D3932205800537465704A
:1051E000732070657220756E69740020746F6F2073
:1051F0006C6F6E6720657874727573696F6E20705E
:10520000726576656E7465640A0020636F6C642055
:10521000657874727573696F6E2070726576656EED
:105220007465640A0020453A00205A3A0020593A31
:1052300000583A006F6B0A00526573656E643A203D
:1052400000333030205375506552205265616479C7
:105250002E005072696E74696E672E2E2E00507289
:10526000696E7420506175736564006E6F74696651
:1052700069636174696F6E2000002802BA0011240E
:105280001FBECFEFD1E2DEBFCDBF00E00CBF84B7C1
:105290008093761B14BE0FB6F894A8958091600099
:1052A000886180936000109260000FBE14E0A0E05F
:1052B000B2E0E4E3F1E103E00BBF02C007900D921E
:1052C000AC32B107D9F72BE1ACE2B4E001C01D92DA
:1052D000A637B207E1F719E2CEE3D9E200E006C053
:1052E00021970109802FFE010F94FB84CD33D10754
:1052F00080E00807A9F70F9435710D9488880C9405
:105300000000FC0184910895FC01808108951198AA
:1053100000C09091020187FD9095917090930001DB
:10532000119A00C000C0119800C09091020186FD42
:105330009095917090930001119A00C000C011984F
:1053400000C09091020185FD9095917090930001AD
:10535000119A00C000C0119800C09091020184FD14
:105360009095917090930001119A00C000C011981F
:1053700000C09091020183FD90959170909300017F
:10538000119A00C000C0119800C09091020182FDE6
:105390009095917090930001119A00C000C01198EF
:1053A00000C09091020181FD909591709093000151
:1053B000119A00C000C0119800C080910201817054
:1053C00080930001119A00C000C0089590E080E031
:1053D0000895CF93DF93C0912409D091250981E0EE
:1053E000CE31D105E4F020E030E040E05FE36091B1
:1053F00020097091210980912209909123090F942D
:1054000004850F9470866C1B7D0B77FF03C071952C
:105410006195710981E0633071050CF080E0DF91E6
:10542000CF910895CF93DF93DB01F9019C919130E7
:10543000C1F0943080F094509C938830D1F48081F6
:105440009181009771F0019791838083480F591FD4
:10545000EA01188206C08C3539F49C5F9C93943025
:1054600041F4DF91CF9108958B3339F781E08C932C
:10547000F8CF20813181B9016F5F7F4F71836083E5
:10548000420F531FEA018883808191818F359105F6
:105490006CF7E7CF0F931F9381E00091671910918C
:1054A00068192091691930916A19409163195091D6
:1054B000641960916519709166190417150726071C
:1054C000370708F480E01F910F91089590E080E085
:1054D00008952091C205833021F425FD0CC024FDE0
:1054E0000CC030E0A90102C0559547958A95E2F7B6
:1054F000CA018170089581E0089580E00895809147
:10550000E10584FD0BC08091E30587FD07C0909104
:10551000E405937081E019F480E0089581E0089536
:10552000082E000C990BFC01E059F04BE491EE239E
:1055300091F0F0E0EE0FFF1FEA5AF04BA591B49105
:105540002C918A54904BFC018491282381E090E0B7
:1055500021F480E0089580E090E00895082E000C8A
:10556000990BFC01E059F04BE491F0E0EE0FFF1FC6
:10557000EE5DF04BA591B4912C918A54904BFC01B7
:105580008491822391E009F490E0892F0895CF92CD
:10559000DF92EF92FF92CF93DF93EC01CC80DD801E
:1055A000EE80FF8027E137EB41ED58EBC701B601F4
:1055B0000F94648787FD23C023E030E04BE953E478
:1055C000C701B6010F94127E1816CCF0C880D9809E
:1055D000EA80FB8027E137EB41ED58EBC701B601CC
:1055E0000F94648787FD0BC0C1E023E030E84DE9EC
:1055F00053E4C701B6010F94127E18160CF4C0E0F4
:105600008C2FDF91CF91FF90EF90DF90CF90089596
:10561000BC01990F880B990B0F94197E2091CD0630
:105620003091CE064091CF065091D0060F94787EEF
:105630002091C5063091C6064091C7065091C80614
:105640000F9404850895BC01990F880B990B0F9452
:10565000197E2091C9063091CA064091CB0650911F
:10566000CC060F94787E2091C1063091C2064091FD
:10567000C3065091C4060F94048508952FEB280F9C
:105680002A3108F047C0E22FF0E08091E1059091C7
:10569000E205A091E305B091E40504C0B695A79595
:1056A000979587952A95D2F780FD02C0817008955D
:1056B000ED53FA4FE081EE2341F180916C0A909115
:1056C0006D0AE80FF92FF11D808190ED980F9A3047
:1056D00030F08E3251F4818180538A3098F4F09307
:1056E000B305E093B20581E008958D3211F08B325D
:1056F00049F4818190ED980F9A3088F38E3211F43D
:105700008281EACFF0E0E0E0EACF1092B305109298
:10571000B205E9CF80E008950E943E2B882341F036
:1057200081E02091B2053091B305232B09F480E08C
:1057300008951092660A8091500790915107A091A8
:105740005207B091530780934C0790934D07A09355
:105750004E07B0934F070895E6EAF9E09491981741
:1057600039F0319699E0EC3BF907C1F780E00895F4
:1057700081E00895269A2E9A0895BF92CF92DF92E3
:10578000EF92FF920F931F93CF93DF936B01E90189
:105790004A3009F4EAC0453109F092C0DB011296A3
:1057A000ED91FC911281C681D78180910201809593
:1057B00082708093000100C0000086E290E00197B3
:1057C000F0F7012F0295007F20E1B22EB10E88EF95
:1057D0000E94872900C0000086E290E00197F0F760
:1057E000103208F0ACC0812F807780680E94872932
:1057F000802F0E94872900C0000086E290E0019778
:10580000F0F780E80E94872980E00E94872900C085
:10581000000086E290E00197F0F78AEF0E94872966
:1058200000C0000086E290E00197F0F77E01B0E151
:10583000EB0EF11C8881807F0E94872989918295D7
:10584000807F0E948729CE15DF05A1F700C00000E8
:1058500086E290E00197F0F71F5F005F1B11B7CF62
:1058600080910201827080930001D6011296ED9121
:10587000FC9180819281980F92832181921708F088
:1058800003C294819F5F94839381890F821710F0E4
:105890008FEF820F8383458150E0440F551F70E0E6
:1058A00060E0868197810F94348881E0DF91CF9109
:1058B0001F910F91FF90EF90DF90CF90BF900895D0
:1058C000FB0102811381423309F4E0C108F4E8C10D
:1058D000463409F4D5C1473409F4DDC14B3329F707
:1058E00089812B81D80112966C91129713964C9155
:1058F000213009F41AC2233009F0FBC138EF380F08
:10590000582F91E0431708F490E041E0531708F056
:1059100040E031E0561708F430E0592F542B35237E
:1059200019F4942309F4C1CFFA8030E0F901E65468
:10593000FD4FD0802A543D4FF901E080F3C180EE45
:10594000810F8068807F0E948729812F8295807FC8
:105950000E94872900C0000086E290E00197F0F7DE
:1059600080E80E94872980E850CF80910101826001
:1059700080930101809102018270809300018091E7
:105980000101816080930101809102018170809307
:105990000001099A119A809102018095827080938A
:1059A000000100C0000086E290E00197F0F788E770
:1059B00090E0CEE9DFE0FE013197F1F70197D9F7EA
:1059C00088EF0E94872900C0000086E290E00197DE
:1059D000F0F780E20E94872980E00E94872900C0BA
:1059E000000086E290E00197F0F780E00E948729AE
:1059F00080E80E94872900C0000086E290E00197BD
:105A0000F0F780E00E94872980E10E94872900C08A
:105A1000000086E290E00197F0F7CE010197F1F7E0
:105A2000CE010197F1F7CE010197F1F7CE01019771
:105A3000F1F7CE010197F1F7CE010197F1F7CE0111
:105A40000197F1F7CE010197F1F7CE010197F1F738
:105A5000CE010197F1F7CE010197F1F7CE01019741
:105A6000F1F7CE010197F1F7CE010197F1F72197F8
:105A7000F1F780E20E94872980E40E94872900C014
:105A8000000086E290E00197F0F780E20E9487290B
:105A900080E60E94872900C0000086E290E001971E
:105AA000F0F7D0E0C0E08C2F807780680E948729D3
:105AB0008D2F0E94872900C0000086E290E00197A8
:105AC000F0F780E80E94872980E00E94872900C0C3
:105AD000000086E290E00197F0F78AEF0E948729A4
