:100000000C94353E0C94753E0C94753E0C94753EE4
:100010000C94753E0C94753E0C94753E0C94753E94
:100020000C94753E0C94753E0C94753E0C94753E84
:100030000C94753E0C94753E0C94753E0C94753E74
:100040000C94753E0C94C2F10C94753E0C94753E64
:100050000C94753E0C9449F00C94753E0D9429B6A1
:100060000C94753E0D946D620D9463620C94753E14
:100070000C94753E0C94753E0C94753E0C94753E34
:100080000D942B500C94753E0C94753E0C94753E5B
:100090000C94753E0C94753E0C94753E0C94753E14
:1000A0000C94753E0C94753E0D94FD4F0C94753E6A
:1000B0000C94753E0C94753E0C94753E0C94753EF4
:1000C0000C94753E0C94753E0C94753E0C94753EE4
:1000D0000C94753E0C94753E0C94753E0C94753ED4
:1000E0000C94753E084AD73B3BCE016E84BCBFFDE5
:1000F000C12F3D6C74319ABD56833DDA3D00C77FF8
:1001000011BED9E4BB4C3E916BAAAABE0000008090
:100110003F05A84CCDB2D44EB93836A9020C50B91F
:10012000918688083CA6AAAA2ABE000000803F0744
:10013000634236B79BD8A71A39685618AEBAAB5582
:100140008C1D3CB7CC5763BD6DEDFD753EF6177247
:1001500031BF000000803F08000000BE9224491219
:100160003EABAAAA2ABECDCCCC4C3E00000080BE3D
:10017000ABAAAAAA3E00000000BF000000803F001A
:1001800000000000084178D3BB4387D1133D190E0E
:100190003CC3BD4282AD2B3E68EC8276BED98FE176
:1001A000A93E4C80EFFFBE01C4FF7F3F000000006E
:1001B00000000C941ADD0C9428960C94A0E00D9489
:1001C000418F0C9493A00D947B900C9471910C949E
:1001D00073BE0C9457D00D9407630C9433A40C9405
:1001E000CEAB0C9400470C947BBE0C945CCA0C9470
:1001F00084DA0D946E8E0C945A8E0C943E8F0C946F
:10020000409B0C94E1A60D94DA620D94DD4D0D94A3
:100210000F630C94E1C00D945D8F0D9493880D9441
:10022000C08E0C94E9A90C94949C0C94F2CB0C9481
:1002300022A40C94B6AB0C94B3D30D94DF4D0C9464
:1002400036900C94DC8F0D944F8F0D948C8E0C9403
:10025000F5900D94E23B0C942F9F0C9468900C94B5
:10026000F3A00D94608E0D9401910C9462DA0D94BC
:10027000C88B0D947F8E0C943C920C94B54A0C94D0
:10028000228F0C9483A50D94F8620D94254E0C9446
:100290008DA30C9450C20C946FBE0C9462BB0D9451
:1002A0009E8B0D948C880D94D64A0C9461C30C944B
:1002B00081900C94DFB60C94D4DA0C948C8E0D944F
:1002C000034E0D94234E0D94403A0D94A6900D9438
:1002D0005D8E0C9457A80C944AA50C94AEB50D9461
:1002E000AD8F0C947AA70C94689D0C946BBE0C9403
:1002F0003AC60C9458940D945D3A0C9488A30C94CF
:1003000081DA0D94718E0D9442890D94678E0D944F
:1003100053400C9457DA0C941FAA0C94348C0C9410
:10032000D1A90C9454BB0C947B9D0C945DE10C946E
:100330007CDA0D947B8E0C94E9970D94FF620C94FB
:10034000ACAB0D94BB4D0C9497DC0D94338F0D9496
:100350001E630C9404470C94A8DF0D948F4D0C94ED
:10036000E59C0D94A7900C948BDF0C941F9F0C942C
:1003700075910D94938F0C940A8C0D9431630C94A9
:10038000F2470C949F8B0C9428E20C94188F0C94D9
:100390003AAA0C9467BE0D94A1900C944F900C94C3
:1003A000A08E0C945F420C949F540D9429630C947E
:1003B000DDA90D94868F0C94C8D80D94F5BF0C94CC
:1003C000349F0D9466900C94EA420D94C18B0D9469
:1003D00070900D9474900C94C1AC0D94278F0C9474
:1003E00019AA0C9456BB0D94D7BF0C9474A00C940E
:1003F000773E0D942D8E0C94C7980D94FF8E0D941E
:10040000AB900D9413630C945A8F0D94E1350C94BA
:1004100060BB0C94E28E0D94AB910C9433C50C949C
:100420001D900D9402910D94C74F0C947EDA0C949C
:10043000CABE0C94C8A90C9477DA0C94459B0D9411
:100440000B630C9474DA0C940DAA0C941DDD0D94BE
:10045000E24F0D94828E0D941B8F0C94F08E0C94B1
:1004600013AA0C9431A10C9401AA0D948B900C94B6
:100470006FA00C9464BB0C94F53E0C9419DD0C94A5
:1004800030E10C943EBD0C9487BE0C944A9B0C94B6
:10049000C5A30C946E910C94FA470D94798F0D942A
:1004A000F18E0C945ABB0C946BDA0D946C900C94F6
:1004B000CFA30C949FDE0D946D8A0C9420E00C94D5
:1004C000C3B20C94FBA90C9478A50C946AA00D946B
:1004D00093900C941EE10C94718F0D946B8F0D947E
:1004E000DB4D0C940ECD0C94B2540C94E6960D9406
:1004F00085900C94308F0C9458BB0D94858E0C9481
:1005000007AD0C940BAD0D94B94D0C9461A50C94F2
:10051000FB8F0C946EDA0D9499900C94CB8B0D9408
:100520009D900C94C28B0D94758E0C9489980C94AC
:100530007FBE0C9468DA0C9484AC0C9477950C9480
:10054000D8AD0C94C19A0D94014E0C94CBAC0C9484
:1005500041E00D9478900D946A8E0D94898E0D94DF
:10056000AB620D94E7560C9442A60D94274E0C9462
:1005700065A00C94EFA90D94E78E0D94914F0C9407
:100580004DD60C94048F0C9483BE0C944AAC0C94FE
:10059000AA8E0C943FA00C9463930C94D18F0C946E
:1005A000D58F0C94CEA90D94328E0C946E8E0C9433
:1005B0007A3E0C9421980C94DADA0C94833F0C94D4
:1005C00083A30D94648E0C94D7A90C945CBB0C94FB
:1005D00037D10C941B8C0D940D8F0C94D48E0C94ED
:1005E000E6DA0D9403630C948BBE0C94E3A90D948E
:1005F000A08F0C9477BE0C94C0490C94828E0C94FE
:10060000F23E0D9481900C9485E00C944DAF0C94C7
:10061000F1B00C94BF900C9407AA0D948F900C9499
:100620005EBB0D9443530D9417630D94FF4D0C94D2
:10063000DED80C94AFC80D94D4900C94CBA90C9434
:1006400012A10D94788E0D94E9620C9460A00C9424
:100650007B5B0C9408470D94AC4F0C94C08E0C94AB
:1006600088420D949B4D0C9471DA0C94F5A90C946E
:1006700010C70C94FC490C949A9C0C94B2A00C9456
:10068000888F0C9465DA0C9459D44E414E494E49EA
:100690005459494E46CDCCCC3D0AD7233C17B7D14F
:1006A0003877CC2B329595E6241FB14F0A000020F5
:1006B000410000C84200401C4620BCBE4CCA1B0E74
:1006C0005AAEC59D7400407A10F35A00A0724E18BD
:1006D000090010A5D4E80000E87648170000E40BF4
:1006E00054020000CA9A3B000000E1F505000080BA
:1006F000969800000040420F000000A08601000014
:1007000000102700000000E8030000000064000063
:100710000000000A00000000000100000000002CA2
:1007200076D888DC674F0823DFC1DFAE59E1B1B767
:1007300096E5E3E453C63AE651997696E8E6C28434
:1007400026EB898C9B62ED407C6FFCEFBC9C9F404C
:10075000F2BAA56FA5F490055A2AF75C936B6CF971
:10076000676DC11BFCE0E40D47FEF520E6B500D047
:10077000ED902E0300943577050080841E0800005C
:10078000204E0A000000C80C333333330F986E122A
:10079000831141EF8D2114893BE65516CFFEE6DB30
:1007A00018D1844B381BF77C1D901DA4BBE424207A
:1007B0003284725E228100C9F124ECA1E53D275A02
:1007C0005F53544F505F50494E005A5F5354455049
:1007D0005F50494E005A5F4D494E5F50494E005A96
:1007E0005F454E41424C455F50494E005A5F444977
:1007F000525F50494E00595F53544F505F50494E1D
:1008000000595F535445505F50494E00595F4D4960
:100810004E5F50494E00595F454E41424C455F5036
:10082000494E00595F4449525F50494E00585F534A
:10083000544F505F50494E00585F535445505F50DD
:10084000494E00585F4D494E5F50494E00585F4534
:100850004E41424C455F50494E00585F4449525FFB
:1008600050494E00535549434944455F50494E0055
:10087000534552564F335F50494E00534552564FE1
:10088000325F50494E00534552564F315F50494EEA
:1008900000534552564F305F50494E005344535316
:1008A0000053445F4445544543545F50494E004D06
:1008B0004F534645545F435F50494E004D4F53469A
:1008C00045545F425F50494E004D4F534645545F7B
:1008D000415F50494E0054454D505F305F43535F78
:1008E00050494E004C45445F50494E004C43445FD4
:1008F00050494E535F5253004C43445F50494E534E
:100900005F454E41424C45004C43445F50494E5375
:100910005F4437004C43445F50494E535F443600B8
:100920004C43445F50494E535F4435004C43445F51
:1009300050494E535F4434004B494C4C5F50494E34
:10094000004845415445525F4245445F50494E007E
:100950004845415445525F305F50494E0046494C2E
:100960005F52554E4F55545F50494E0046414E5FC1
:1009700050494E0045315F535445505F50494E0039
:1009800045315F454E41424C455F50494E0045312F
:100990005F4449525F50494E0045315F43535F50B9
:1009A000494E0045305F535445505F50494E004515
:1009B000305F454E41424C455F50494E0045305FE7
:1009C0004449525F50494E00444F474C43445F53A3
:1009D000434B00444F474C43445F4D4F5349004203
:1009E000544E5F454E430042544E5F454E435F4573
:1009F0004E0042544E5F454E320042544E5F454ECB
:100A000031004245455045525F50494E00415652D3
:100A10005F53535F50494E004156525F53434B5F03
:100A200050494E004156525F4D4F53495F50494E19
:100A3000004156525F4D49534F5F50494E00544557
:100A40004D505F4245445F50494E0054454D505F04
:100A5000315F50494E0054454D505F305F50494E14
:100A60000046494C57494454485F50494E00545839
:100A70004430005258443000434F4D4D554E494389
:100A80004154494F4E0044525952554E004552521E
:100A90004F525300494E464F004543484F002020D7
:100AA0002000202020416E616C6F6720696E203D20
:100AB0002025356C64003C756E757365642F756E0A
:100AC0006B6E6F776E3E002028412532642920200E
:100AD00000253364200050494E3A20004F75747051
:100AE0007574203D2000496E70757420203D2000F3
:100AF000416E616C6F6720696E203D2025356C6406
:100B00000070726F7465637465642000202841254D
:100B1000326429202000253364200050494E3A20B9
:100B200000730A00016E0A0101610A3B00560A4384
:100B3000004B0A45003E0A4400310A3201240A33C0
:100B400001180A34010D0A3501020A2501FA091FAC
:100B500001F2092101E7091D01DF092301D309334E
:100B600001C8093401BD091C01AF091801A3091A04
:100B70000199092C018E09220180091E01740924A2
:100B8000016C0909015D09020150090A01410908C6
:100B900001380929012C0917012009190114091B21
:100BA0000108091D01F8081101EC081001E4080D05
:100BB00001D6084201C9080A01BC080701AF0808AC
:100BC00001A10831019C08350191080B0186080636
:100BD000017B0805017008040164080C015A0837FC
:100BE000014D08260143080301380836012D08038A
:100BF0000123083D01160838010C080E0101083CCC
:100C000001F6070E01EC073001DF073E01D507139F
:100C100001CA072E01BF071301446F6E652E0A003B
:100C200050756C73696E6720202000556E746F7567
:100C300063686564200066616C7365004641494CD9
:100C40003A204E6F2074726967676572206465741C
:100C500065637465640A004641494C3A204E6F69E9
:100C60007365206465746563746564202D20706C01
:100C7000656173652072652D72756E20746573747D
:100C80000A002064657465637465642E0A003D2063
:100C9000424C546F756368207072652056332E3154
:100CA00020286F7220636F6D70617469626C6529B2
:100CB000003D205A20536572766F2050726F626536
:100CC000003D20424C546F7563682056332E31002E
:100CD00020282B2F2D20346D73293A20003A203301
:100CE000306D73206F72206D6F72650A002E205078
:100CF000756C7365207769647468002A2A20506CCB
:100D00006561736520747269676765722070726FC0
:100D100062652077697468696E203330207365637B
:100D2000202A2A0A004641494C3A20424C544F5549
:100D3000434820656E61626C6564202D20536574A4
:100D40002075702074686973206465766963652016
:100D50006173206120536572766F2050726F6265F7
:100D6000207769746820494E56455254494E4720B1
:100D700073657420746F202774727565272E0A00BE
:100D800020204445504C4F5945442073746174658C
:100D90003A204C4F5720286C6F6769632030290038
:100DA00020204445504C4F5945442073746174656C
:100DB0003A204849474820286C6F676963203129E9
:100DC000003D204D656368616E6963616C205377F7
:100DD000697463682064657465637465640A0057A8
:100DE00041524E494E473A20494E56455254494E7B
:100DF000472073657474696E672070726F626162F8
:100E00006C79206261636B77617264732E0A002EC5
:100E1000204465706C6F7920262073746F772034BE
:100E20002074696D65730A003D20424C546F7563F0
:100E30006820436C617373696320312E322C20313A
:100E40002E332C20536D61727420312E302C2032C1
:100E50002E302C20322E322C20332E302C20332ECC
:100E6000312064657465637465642E0A002E204326
:100E70006865636B20666F7220424C544F5543483F
:100E80000A002E205A5F4D494E5F454E4453544F41
:100E9000505F494E56455254494E473A20002E2045
:100EA00050726F6265205A5F4D494E5F50494E3A0D
:100EB00020002C2073746F7720616E676C653A2078
:100EC0002020002C206465706C6F7920616E676C47
:100ED000653A2000536572766F2070726F626520EC
:100EE000746573740A2E207573696E6720696E6469
:100EF00065783A2020004D343320576169742043CF
:100F0000616C6C6564005761746368696E6720701A
:100F1000696E730A0064697300656E0061626C65D6
:100F2000640A00656E6473746F70206D6F6E69740F
:100F30006F72200020580020204D61783A20002058
:100F40000020204D696E3A2000203B200020204DDB
:100F50003231312053003F43616E6E6F74207772DF
:100F600069746520746F20494E5055540A00496ECB
:100F700076616C69642050696E204D6F64650A006B
:100F8000203B0020550020204D363033204C0046B9
:100F9000696C616D656E74206C6F61642F756E6C29
:100FA0006F6164004D323453256C6454256C6400C9
:100FB0004739322E394525730047314625640047AD
:100FC000315A25734636303000473158257359253C
:100FD000734633303030004D31303650256953255B
:100FE00069004D313039532569004D323030442588
:100FF00073004739322E395A2573004D343230533D
:1010000025635A257300473238523058590047310A
:101010005A257346363030004739322E395A2573F7
:10102000004739322E394530004D3130395325696A
:10103000004D313930532569004D34323020533062
:10104000205A3000203B200020204D3431332053E3
:1010500000506F7765722D6C6F7373207265636FCC
:1010600076657279004F4646004F4E00203B20487F
:101070006F73742068616E646C696E672000203B3A
:10108000204D6F646520006D6D00203B2044697326
:1010900074616E6365200046696C616D656E7420D5
:1010A00072756E6F757420003B200020496E76616A
:1010B0006C696420657874727564657220004732CB
:1010C0002F47332062616420706172616D657465C1
:1010D00072730A00536C6565702E2E2E005A2050D4
:1010E000726F62652050617374204265640A005A11
:1010F0002050726F626520506173742042656400F5
:10110000205A3A200020593A200042656420583A7B
:1011100020004D65736820706F696E74206F757460
:10112000206F662072616E67650A004D302053742F
:101130006F70004D312053746F7000436C69636BA6
:1011400020746F20526573756D652E2E2E004E6FC4
:10115000204D6F76652E00456E642066696C6520B3
:101160006C6973740A00426567696E2066696C6514
:10117000206C6973740A004E6F206D656469610AA2
:1011800000526573756D696E6720534400286E6F59
:101190002066696C65290043757272656E742066FD
:1011A000696C653A20005072696E742074696D65CF
:1011B0003A20000A53746174733A2046696C616D79
:1011C000656E7420757365643A20002C204C6F6E38
:1011D00067657374206A6F623A2000546F74616CA3
:1011E0002074696D653A200053746174733A20006D
:1011F0002C204661696C65643A20002C2046696E9B
:1012000069736865643A20005072696E74733A209D
:101210000053746174733A20006F6B006F66660050
:10122000990A940A8D0A860A780A44454255473A33
:10123000004D313133205300544D3344204352315B
:10124000305632204F46462E002F2F004D31343578
:1012500020533C696E6465783E206F7574206F661C
:101260002072616E67652028302D31290A004652B0
:101270003A0020466C6F773A200050726F746563B5
:101280007465642050696E0A003A2000205365722C
:10129000766F2000206F7574206F662072616E6714
:1012A000650A00536572766F200050726F62652088
:1012B0004F6666736574205A0050726F6265204FE6
:1012C0006666736574205A0064697300656E004336
:1012D000290A0061626C656420286D696E2074655E
:1012E0006D702000436F6C6420657874727564655E
:1012F00073206172652000424C546F75636820480A
:1013000053206D6F646520004F66667365747320AB
:101310004170706C696564004572723A20546F6F59
:10132000206661722100546F6F20666172206672C0
:101330006F6D207265666572656E636520706F699A
:101340006E740A00454550524F4D204F4B0A004DD8
:10135000383400446F6E65207072696E74696E6710
:101360002066696C650A004D3737004D3331002027
:10137000204D323036205800486F6D65206F66660C
:10138000736574004361703A00434F4E4649475FAE
:101390004558504F5254004D4541545041434B0025
:1013A000434F4F4C45525F54454D50455241545563
:1013B0005245004348414D4245525F54454D5045CA
:1013C00052415455524500424142595354455050A0
:1013D000494E470041524353004D4F54494F4E5FD1
:1013E0004D4F44455300544845524D414C5F505277
:1013F0004F54454354494F4E00455854454E44457B
:10140000445F4D323000435553544F4D5F4649526F
:101410004D574152455F55504C4F4144004C464E4C
:101420005F5752495445004C4F4E475F46494C4523
:101430004E414D45004155544F5245504F52545F17
:1014400053445F5354415455530053445F575249DA
:10145000544500524550454154004D554C54495F48
:10146000564F4C554D450053444341524400505251
:101470004F4D50545F535550504F525400484F53A6
:10148000545F414354494F4E5F434F4D4D414E448D
:101490005300454D455247454E43595F50415253C5
:1014A000455200434153455F4C494748545F4252BF
:1014B000494748544E45535300544F47474C455FA6
:1014C0004C494748545300534F4654574152455F87
:1014D000504F574552004255494C445F5045524386
:1014E000454E54004C4556454C494E475F44415487
:1014F00041005A5F50524F42450052554E4F55548D
:10150000004155544F4C4556454C005052494E549D
:101510005F4A4F420050524F475245535300415586
:10152000544F5245504F52545F54454D5000415511
:10153000544F5245504F52545F504F5300564F4CEA
:10154000554D455452494300454550524F4D004278
:10155000494E4152595F46494C455F5452414E53A2
:101560004645520053455249414C5F584F4E5F58D3
:101570004F4646004649524D574152455F4E414DF8
:10158000453A4D61726C696E20322E302E395F44BF
:1015900057372E342E3620544D33442053534D4468
:1015A00042552028417072203238203230323220A9
:1015B00030303A35303A31312920534F5552434576
:1015C0005F434F44455F55524C3A68747470733AA8
:1015D0002F2F6769746875622E636F6D2F496E7364
:1015E000616E6974794175746F6D6174696F6E2F86
:1015F0004D61726C696E2F747265652F43726561FF
:101600006C6974794477696E5F322E302050524F86
:10161000544F434F4C5F56455253494F4E3A312E2B
:1016200030204D414348494E455F545950453A5446
:101630004D33442043523130563220455854525590
:101640004445525F434F554E543A31205555494415
:101650003A63656465326132662D343161322D340E
:101660003734382D396231322D6335356336326681
:1016700033363766660A00290A0020746F20003F5F
:101680005A206F7574206F662072616E676520281E
:1016900000290A0020746F20003F59206F757420C4
:1016A0006F662072616E676520282D00290A002070
:1016B000746F20003F58206F7574206F6620726130
:1016C0006E676520282D00203B0020204D383531E5
:1016D0002058005A2D50726F6265204F6666736500
:1016E000740043616E6E6F74206F70656E20737549
:1016F0006264697220002569730025696D2025697F
:1017000073002569682025696D20256973002569A6
:1017100064202569682025696D2025697300256985
:101720007920256964202569682025696D2025694F
:101730007300436F6F6C696E672E2E2E004531204B
:1017400025530042656420436F6F6C696E672E2ECF
:101750002E004265642048656174696E672E2E2EE6
:101760000023646566696E652044454641554C54C6
:101770005F00626564004B6420004B6920004B7081
:1017800020005049442074756E696E6720646F6E46
:101790006500504944204175746F74756E6520660C
:1017A000696E69736865642120507574207468657A
:1017B000206C617374204B702C204B6920616E6427
:1017C000204B6420636F6E7374616E747320667255
:1017D0006F6D2062656C6F7720696E746F20436F48
:1017E0006E66696775726174696F6E2E680A005063
:1017F0004944204175746F74756E65206661696C2B
:101800006564212074696D656F75740A0041757493
:101810006F74756E65206661696C6564212054691A
:101820006D656F75742E00504944204175746F7456
:10183000756E65206661696C6564212054656D7004
:101840006572617475726520746F6F20686967686E
:101850000A00504944204379636C65730025532086
:1018600025692F256900204B643A2000204B693AF6
:101870002000204B703A200020436C617373696331
:1018800020504944200A00204E6F206F7665727305
:10189000686F6F740A002054753A2000204B753A27
:1018A0002000206D61783A2000206D696E3A20009A
:1018B00020643A200020626961733A200048656123
:1018C00074696E672E2E2E00504944204175746F46
:1018D00074756E652073746172740A004175746F5B
:1018E00074756E65206661696C65642E2054656D43
:1018F000706572617475726520746F6F20686967B6
:10190000682E00504944204175746F74756E6520CF
:101910006661696C6564212054656D7065726174DF
:1019200075726520746F6F20686967680A00504996
:1019300044204175746F74756E65005049442041B0
:1019400075746F74756E65206661696C65642120BD
:10195000426164206865617465722069640A0045AB
:1019600072723A207574663820666F6E74206E6FDE
:101970007420696E697469616C697A65642E0045CA
:1019800072723A207574663820666F6E74206E6FBE
:101990007420696E697469616C697A65642E0045AA
:1019A00072723A207574663820666F6E74206E6F9E
:1019B0007420696E697469616C697A65642E0025AA
:1019C00068753A25303268750025303268753A25D9
:1019D00030326875002530326875272530326875D9
:1019E00000256875642025303268753A25303268E4
:1019F000750042656400456E636C6F7375726500B7
:101A0000202020202020200020202020006572722D
:101A1000001FE02010201020101020102020102087
:101A20001030300840048003001FE03FF03FF03FDB
:101A3000F01FE01FE03FF03FF03FF00FC0078003D2
:101A4000003FFFF038007030FC3020FC1020781090
:101A50002030102C00D02E31D02F7BD02F7BD02ED9
:101A600031D02C00D020301020781020FC1030FC19
:101A7000303800703FFFF03FFFF0380070318630A3
:101A80002387102787902F87D02F03D02030102056
:101A900078102078102030102F03D02F87D0278780
:101AA000902387103186303800703FFFF01FFFF819
:101AB0001FFFF8041040020820020820041040080C
:101AC00020801041001041000820800410400000D8
:101AD000001FFFF81FFFF8FFFFFF8000018E00E1ED
:101AE0009F01F19381399F81F99F81F99FB9F98F06
:101AF00028F18038018000019FFFF99174999B06BD
:101B0000A99B54A99B56A99B54999FFFF9FFFFFFDE
:101B1000544D334420435231305632205265616473
:101B2000792E005072696E74696E672E2E2E0063D6
:101B3000616E63656C005072696E742041626F72F1
:101B40007465640055492041626F72746564004D8C
:101B5000323520500A4D3234005072696E74205074
:101B6000617573656400526573756D650055492034
:101B700050617573650050617573696E672E2E2E06
:101B800000726573756D65004D32340000FE000310
:101B9000FF8007C7C00701E00000E00000F0000080
:101BA000700400700E00701F00703F80F00E00E0A7
:101BB0000F01E007C7C003FF8000FE0000FE000326
:101BC000FF8007C7C00F01E00E00E03F80F01F005C
:101BD000700E00700400700000700000F00000E063
:101BE0000701E007C7C003FF8000FE000E000E00E3
:101BF0000E000E000E000E000E000E007FC03F8093
:101C00001F000E00040004000E001F003F807FC074
:101C10000E000E000E000E000E000E000E000E0054
:101C2000FFFFFF7F80FFC0FFC0FFC07F807F80FF7E
:101C3000C0FFC0FFC03F001E000C0050726F626505
:101C4000205A204F666673657400000C0F00FE0773
:101C5000022503BB017FFE08FE08FE0508080600FA
:101C60000040F0C88888987810050808060000C071
:101C7000F88888888888F80505050600012030F86E
:101C800030200508080600002070F820202020E001
:101C90000509090600FF2070A8A8B88888702007E9
:101CA0000505070001D86C366CD80509090600FF48
:101CB000F8A88888888888A8F8050A0A0600FE20FF
:101CC0005050505088A8A8887003030306000340B2
:101CD000A040FFFFFFFFFFFFFFFFFFFFFFFFFFFF32
:101CE000FFFFFFFFFFFFFFFF0000000605FF0107EA
:101CF00007060200808080808000800303030601C5
:101D000005A0A0A005060606000050F85050F850A7
:101D10000509090600FF2070A8A07028A8702005FA
:101D20000707060000C8C810204098980507070656
:101D3000000040A0A040A8906801030306020580AF
:101D400080800309090601FF2040408080804040D8
:101D5000200309090601FF804040202020404080E8
:101D600005070706000020A8702070A820050505BB
:101D70000600012020F820200203030601FFC040D6
:101D800080050101060003F8020202060100C0C03E
:101D900005070706000008101020404080050707CF
:101DA000060000708898A8C888700307070601001D
:101DB00040C040404040E00507070600007088082A
:101DC000102040F8050707060000F80810300888C2
:101DD0007005070706000010305090F81010050736
:101DE00007060000F880F00808887005070706005D
:101DF00000304080F0888870050707060000F8086A
:101E000010102020200507070600007088887088C1
:101E1000887005070706000070888878081060023F
:101E20000505060100C0C000C0C00206060601FF8D
:101E3000C0C000C04080030505060101204080406D
:101E400020050303060002F800F80305050601015A
:101E50008040204080050707060000708810202081
:101E600000200507070600007088B8A8B880700534
:101E70000707060000708888F88888880507070625
:101E80000000F04848704848F00507070600007059
:101E9000888080808870050707060000F048484861
:101EA0004848F0050707060000F88080F08080F8B9
:101EB000050707060000F88080F08080800507078E
:101EC000060000708880809888700507070600006B
:101ED000888888F8888888030707060100E0404062
:101EE000404040E005070706000038101010109031
:101EF000600507070600008890A0C0A0908805072D
:101F000007060000808080808080F80507070600B3
:101F10000088D8A888888888050707060000888870
:101F2000C8A89888880507070600007088888888F0
:101F30008870050707060000F08888F0808080051B
:101F4000070706000070888888A8906805070706BC
:101F50000000F08888F0A090880507070600007050
:101F6000888070088870050707060000F820202088
:101F70002020200507070600008888888888887048
:101F80000507070600008888888850502005070745
:101F900006000088888888A8A85005070706000062
:101FA00088885020508888050707060000888850D8
:101FB00020202020050707060000F8081020408098
:101FC000F80309090601FFE080808080808080E0BE
:101FD000050707060000804040201010080309098B
:101FE0000601FFE020202020202020E0050303063A
:101FF00000052050880501010600FEF803030306D2
:1020000001058040200505050600007008788878E5
:102010000507070600008080F0888888F005050520
:102020000600007080808870050707060000080819
:1020300078888888780505050600007088F080702B
:10204000050707060000304840E04040400507070C
:102050000600FE708888887808700507070600006B
:102060008080F0888888880307070601004000C048
:10207000404040E00409090601FE10003010101035
:1020800010906005070706000080808890E0908827
:10209000030707060100C04040404040E005050539
:1020A000060000D0A8A8A8A8050505060000B0C82D
:1020B00088888805050506000070888888700507EF
:1020C000070600FEF0888888F08080050707060074
:1020D000FE78888888780808050505060000B0C8DD
:1020E00080808005050506000078807008F00507EF
:1020F000070600002020F82020201805050506000E
:10210000008888889868050505060000888888503A
:10211000200505050600008888A8A85005050506C5
:10212000000088502050880507070600FE88888830
:1021300050204080050505060000F8102040F803F7
:1021400009090601FF20404040804040402001092D
:10215000090602FF808080808080808080030909DA
:102160000601FF80404040204040408005030306B8
:10217000000248A890FF554E4C4F41442046494C20
:10218000414D454E54004C4F41442046494C414D31
:10219000454E540046494C414D454E54204348411C
:1021A0004E47450052756E6F7574204469737420F4
:1021B0006D6D004D6F74696F6E20456E636F646561
:1021C000720053656E736F72204C6F770053656EAB
:1021D000736F722048696768004E6F2053656E7395
:1021E0006F720052756E6F75742053656E736F72E7
:1021F0000052756E6F7574204D6F6465004C6F6191
:1022000064206D6D00556E6C6F6164206D6D0046CD
:10221000696C2E204469612E004520696E206D6D29
:102220005E33004D3330332055312045256920532E
:10223000256900504944204175746F74756E65209E
:102240002A005049442D44202A005049442D492059
:102250002A005049442D50202A002008204661635E
:1022600074002008204D6178002008204D696E0020
:102270004F6666004F6E004175746F74656D700037
:102280004D696E2054726176656C2056656C004D08
:10229000696E2056656C6F63697479004D617820B2
:1022A000452056656C004D6178205A2056656C00BB
:1022B0004D617820592056656C004D61782058207A
:1022C00056656C004D6178204520416363656C0064
:1022D0004D6178205A20416363656C004D61782020
:1022E0005920416363656C004D617820582041633B
:1022F00063656C0054726176656C20416363656C44
:10230000005265747261637420416363656C0041BF
:102310006363656C004D61782045204A65726B00EF
:102320004D6178205A204A65726B004D61782059C2
:10233000204A65726B004D61782058204A65726BA7
:102340000050726F6265205A204F66667365740094
:1023500050726F62652059204F6666736574005035
:10236000726F62652058204F666673657400452061
:1023700073746570732F6D6D005A2053746570739C
:102380002F6D6D00592053746570732F6D6D00585B
:102390002053746570732F6D6D00416476616E63B8
:1023A00065642053657474696E6773003F00436110
:1023B0006E63656C00496E6974004D3432380049B3
:1023C0006E697469616C697A6520454550524F4D5C
:1023D0000046696C616D656E740054656D70657260
:1023E00061747572650053746570732F6D6D005064
:1023F000726F6265204F666673657473004A65721A
:102400006B00416363656C65726174696F6E005641
:10241000656C6F636974790053657420486F6D65EE
:10242000204F66667365747300436F6E66696775E7
:10243000726174696F6E003F004E65787420506F52
:10244000696E7400446F6E65004E657874003F00DD
:1024500043616E63656C204F626A656374004E4F22
:10246000005945530043616E63656C204F626A6595
:102470006374203D004D61696E00486967682053B0
:10248000706565640053572D4D6F64650053746F1C
:1024900077004465706C6F790053656C662D5465E8
:1024A000737400526573657400426564004E6F7A00
:1024B0007A6C650046616E20537065656400436FF9
:1024C0006E66696775726174696F6E0052657374C8
:1024D0006F72652044656661756C7473004C6F6142
:1024E000642053657474696E67730053746F72650A
:1024F0002053657474696E67730050726568656116
:1025000074202420436F6E6600506F776572204FF1
:102510007574616765004F6666004F6E0052756E98
:102520006F75742053656E736F7200424C546F75F3
:1025300063680050726F6265205A204F666673654B
:102540007400416476616E636564205365747469D8
:102550006E6773004D61696E004D3730322054252F
:1025600064004D36303020423020542564004D3711
:102570003032203B2564004D373031205425640033
:102580004D373032004D373031004D36303020423B
:1025900030004D61696E00436F6E74696E75650041
:1025A0004F6666004F6E0052756E6F7574205365EE
:1025B0006E736F72005075726765206D6F72650083
:1025C000524553554D45204F5054494F4E533A00B4
:1025D0005052494E54205041555345440020204EFE
:1025E0006F7A7A6C653A20005061726B696E672E63
:1025F0002E2E0000005761697420666F72006669B4
:102600006C616D656E74206368616E676500746FE0
:10261000207374617274005761697420666F720070
:1026200066696C616D656E7420756E6C6F616400B7
:10263000004E6F7A7A6C652068656174696E670018
:10264000506C6561736520776169742E2E2E0000D1
:10265000507265737320627574746F6E00746F20AE
:1026600068656174206E6F7A7A6C650000496E73DC
:102670006572742066696C616D656E7400616E646C
:1026800020707265737320627574746F6E00746F5E
:1026900020636F6E74696E7565005761697420669A
:1026A0006F720066696C616D656E74206C6F616439
:1026B0000000507265737320427574746F6E0074FD
:1026C0006F20726573756D65207072696E7400009D
:1026D0005761697420666F72207072696E7400743D
:1026E0006F20726573756D652E2E2E00005761691F
:1026F0007420666F720066696C616D656E7420701F
:102700007572676500003E2000256C642E25696D9A
:1027100000457874727564656420546F74616C0050
:102720003E20004C6F6E67657374204A6F622054C0
:10273000696D65003E20005072696E742054696DA9
:102740006500436F6D706C65746564003A200050DD
:1027500072696E7420436F756E74003A20003135D3
:10276000300035004245443A204154432031303452
:1027700047542D320052756E61776179205761742C
:1027800063683A204F4E004D61782054656D7000AB
:10279000333135004D696E2054656D70003500454C
:1027A000313A204550434F53203130304B00505385
:1027B000550047656E657269630050726F746F6390
:1027C0006F6C00312E30004261756400323530305C
:1027D000303000437265616C697479334420524132
:1027E0004D505300556E69666965642042656420EA
:1027F0004C6576656C696E670045787472756465C2
:10280000727300310074696E796D616368696E6519
:102810007333642E636F6D00544D33442043523143
:1028200030563200323032322D30342D30330032D7
:102830002E302E395F4457372E342E36004D6172BC
:102840006C696E005072696E7465722053746174A5
:102850007300546865726D6973746F727300426FB0
:1028600061726420496E666F005072696E746572A1
:1028700020496E666F004D61696E004D3130303019
:102880000053746F70205072696E740052657375D6
:102890006D65205072696E7400506F776572204FBD
:1028A0007574616765004D3139305335350A4732EB
:1028B000380A47323950310A47323950330A4732E1
:1028C0003953310A47323953300A47323946302EAC
:1028D000300A473239410A4D313034533231350AEA
:1028E0004732380A4D313039533231350A47315881
:1028F0003135305931353046353030300A47315A6C
:10290000300A4D3530300A4D3430300A4D37370AF1
:102910004D31313720536574205A204F66667365F8
:1029200074004D313036533132380A4D3330334331
:1029300038533231354530550A4D3530300A4D3136
:102940003137205049442054756E6520446F6E65C0
:10295000004D3139305335350A4D31303453323131
:10296000350A4732380A4732394C310A4731205844
:102970003130305931303046353030300A47315AF5
:1029800030004D3530300A4D313137205365747485
:10299000696E67732053746F7265640053746F724D
:1029A000652053657474696E67730050726570209A
:1029B000666F72205A2041646A75737400504944EE
:1029C0002054756E65005365747570004D61696EB5
:1029D000003F004261636B0053746F70004E6F20C4
:1029E0004D65646961005072696E742066726F6D26
:1029F000204D65646961004368616E6765204D65BF
:102A0000646961004D32310041626F75742050720B
:102A1000696E746572004368616E67652046696C13
:102A2000616D656E74004C6576656C696E672054E7
:102A30006F6F6C7300436F6E66696775726174695E
:102A40006F6E0054656D7065726174757265004DCE
:102A50006F74696F6E00537461727420486F737481
:102A6000205072696E7400526573756D65205072E6
:102A7000696E740043616E63656C204F626A6563C2
:102A8000740054756E650053746F70205072696ED7
:102A900074005061757365205072696E7400496EE0
:102AA000666F2053637265656E003F0053746172F8
:102AB00074205072696E740043616E63656C0050DF
:102AC00072696E740043616E6E6F7420656E74651A
:102AD00072207375626469723A200002202E2E0003
:102AE0004D61696E002100486F74656E6420746FDB
:102AF0006F20636F6C64004261636B0050726F63A0
:102B0000656564004F6666004F6E00536F66742003
:102B1000456E6473746F7073004D6F74696F6E00EF
:102B200044697361626C652053746570706572737B
:102B3000004D383400426564205472616D6D696ED9
:102B40006700556E696669656420426564204C655E
:102B500076656C696E67004732385A0047323859DB
:102B600000486F6D65204000473238580041757449
:102B70006F20486F6D65004D61696E005072656829
:102B80006561742024204265640050726568656147
:102B900074202420456E640054656D706572617404
:102BA00075726500436F6F6C646F776E005072656D
:102BB0006865617420240046616E20537065656409
:102BC00000426564004E6F7A7A6C65004D61696EF3
:102BD0000050726F6265205A204F666673657400FC
:102BE000466C6F770046616E2053706565640042E5
:102BF0006564004E6F7A7A6C650053706565640099
:102C00004D61696E005A2056616C75650047323817
:102C10000A4D313930205325690A4D31303920535E
:102C200025690A47323920503100426564205465D5
:102C30006D7000486F74656E642054656D70002E71
:102C40002569004732395036432D00486569676869
:102C50007420416D6F756E740041646A75737420E1
:102C60004D657368204865696768740046696E65DC
:102C70002054756E6520436C6F7365737400473222
:102C8000395034540046696E652054756E65204194
:102C90006C6C0047323950345254004732380A477E
:102CA000323643504825694225690056616C696493
:102CB00061746520437573746F6D204D6573680092
:102CC0004732380A473236435049310056616C6901
:102CD00064617465204D657368202824290047329B
:102CE000380A47323643504930004C6576656C20CF
:102CF0004D657368005369646520506F696E747325
:102D00000047726964204D657368204C6576656C78
:102D1000696E6700332D506F696E74204C6576655F
:102D20006C696E67004732394A3000473239503398
:102D300052432E2569004D616E75616C2046696CA9
:102D40006C2D696E00473239503242543000536D59
:102D50006172742046696C6C2D696E00473239507F
:102D60003354300046696C6C2D696E20416D6F756F
:102D70006E74004D65736820696E76616C6964617C
:102D80007465642E0A00496E666F20536372656530
:102D90006E00496E76616C696461746520436C6F86
:102DA00073657374004732394900496E76616C6906
:102DB0006461746520416C6C00436F6E74696E755C
:102DC0006520426564204D65736800473239503193
:102DD000430046696C6C2D696E204D657368004236
:102DE00075696C6420436F6C64204D65736800479F
:102DF00032394E5031004275696C642043757374EA
:102E00006F6D204D657368004732380A4D31393097
:102E100049310A4D31303949310A47323950310A86
:102E20004D31303453300A4D313430533000427517
:102E3000696C64204D657368202824290047323866
:102E40000A4D31393049300A4D31303949300A475D
:102E5000323950310A4D31303453300A4D3134302B
:102E6000533000473239256325690A4D3131372007
:102E7000004D657368202569204C6F6164656400AE
:102E80004D65736820256920536176656400536140
:102E9000766520426564204D657368004C6F6164FF
:102EA00020426564204D657368004D656D6F7279D1
:102EB00020536C6F74004E6F2053746F726167659E
:102EC000004732395034582573592573522569000B
:102ED000202D2D2D2D2D005A3A00593A00486F6DA6
:102EE000696E672058595A00473238004F6666208D
:102EF0005072696E746572204261636B7570004731
:102F00003239532D31004F757470757420666F72AD
:102F100020435356004732395431004F7574707551
:102F20007420666F7220486F7374004732395430D2
:102F3000004D657368204C6576656C696E67004569
:102F4000646974204D6573680056616C69646174CE
:102F500065204D657368004D616E75616C6C7920FC
:102F60004275696C64204D65736800473239493990
:102F700039390A4732395032425430004275696C4F
:102F800064204D65736800372E20536176652042BA
:102F90006564204D65736800362E2046696E652095
:102FA00054756E6520416C6C004732395034525470
:102FB00000352E2056616C6964617465204D65731F
:102FC0006800342E2046696E652054756E65204178
:102FD0006C6C004732395034525400332E20566105
:102FE0006C6964617465204D65736800322E2053EE
:102FF0006D6172742046696C6C2D696E00473239C0
:103000005033543000312E204275696C6420436F78
:103010006C64204D657368004732394E503100555D
:103020006E696669656420426564204C6576656CEE
:10303000696E67004F75747075742055424C204955
:103040006E666F00473239570055424C20546F6FFF
:103050006C73004F7574707574204D657368204DE6
:103060006170004D6573682053746F72616765000D
:103070004D657368204564697400537465702D4212
:10308000792D537465702055424C0046616465206B
:103090004865696768740041637469766174652086
:1030A00055424C004732394100446561637469768A
:1030B0006174652055424C0047323944004D6F74AD
:1030C000696F6E004732394A256900486F6D696E35
:1030D00067204661696C65640050524553454E5403
:1030E000004F5554006F70656E0054524947474574
:1030F000524544003A20004D4F54494F4E203A204B
:10310000004F46460A003A200066696C616D656EA4
:1031100074007A5F6D696E00795F6D696E00785F2B
:103120006D696E005265706F7274696E6720656EAE
:103130006473746F70207374617475730A00207403
:103140006F6F206C6F6E6720657874727573696F2E
:103150006E2070726576656E7465640A0020636F18
:103160006C6420657874727573696F6E2070726517
:1031700076656E7465640A00486F6D652025732559
:10318000732573204669727374005761726E696E9D
:10319000673A20486F6D696E672042756D702044F4
:1031A000697669736F72203C20310A0002020400C4
:1031B000000000000000000000000000809D4300AF
:1031C000009B430000C84300000041000000410094
:1031D000000040FFFFFF00000001000000010000B0
:1031E0008000555555000000400033333300AAAA33
:1031F0002A004992240000002000C7711C00999900
:103200001900D1451700555515003BB1130024494D
:10321000120011111100000010000F0F0F00E33811
:103220000E0043790D00CCCC0C00C3300C00E8A29A
:103230000B0064210B00AAAA0A00703D0A009DD869
:103240000900427B090092240900DCD30800888829
:1032500008001042080000000800F0C1070087873E
:10326000070075500700711C07003EEB0600A1BC6B
:1032700006006990060066660600703E060061184A
:10328000060017F4050074D105005BB00500B2908C
:103290000500627205005555050078390500B81E15
:1032A0000500050505004EEC040087D40400A1BD0F
:1032B000040090A7040049920400C17D0400EE6957
:1032C0000400C7560400444404005C320400082192
:1032D000040041100400000004003FF00300F8E087
:1032E000030026D20300C3C30300CCB503003AA8F1
:1032F00003000A9B0300388E0300C08103009F7502
:103300000300D0690300505E03001D5303003448DE
:103310000300913D03003333030016290300381FD7
:10332000030097150300300C0300030303000BFA9E
:10333000020049F10200BAE802005CE002002DD868
:1033400002002DD0020059C80200B0C0020031B9FD
:103350000200DAB10200AAAA0200A0A30200BC9CEB
:103360000200FA9502005C8F0200DF880200828270
:103370000200457C02002776020027700200436AA3
:1033800002007C640200D05E02003F590200C85374
:103390000200FFFDFCFAF8F6F4F2F0EEECEAE9E7E1
:1033A000E5E3E1E0DEDCDAD9D7D5D4D2D0CFCDCB9E
:1033B000CAC8C7C5C3C2C0BFBDBCBAB9B7B6B4B32B
:1033C000B2B0AFADACAAA9A8A6A5A4A2A1A09E9D8B
:1033D0009C9A99989795949392908F8E8D8B8A89C9
:1033E00088878684838281807F7E7D7B7A797877E7
:1033F000767574737271706F6E6D6C6B6A696867E5
:10340000666564636261605F5E5D5C5B5A595858D3
:103410005756555453525150504F4E4D4C4B4A4AAB
:103420004948474646454443424241403F3E3E3D6F
:103430003C3B3B3A39383837363535343332323124
:1034400030302F2E2E2D2C2B2B2A292928272726CA
:10345000252524232322212120201F1E1E1D1C1C64
:103460001B1B1A19191818171616151514131312F1
:10347000121111100F0F0E0E0D0D0C0C0B0A0A0974
:1034800009080807070606050504040303020201EC
:10349000000000809D4300009B430000C8430000E3
:1034A0000000000000000000000053657474696EA5
:1034B00067732053746F72656400290A0020627973
:1034C0007465733B20637263200053657474696E86
:1034D00067732053746F726564202800454550520D
:1034E0004F4D20496E697469616C697A65640A00A0
:1034F0004D65736820736176656420696E20736C16
:103500006F7420003F556E61626C6520746F20738C
:10351000617665206D65736820646174612E0A00B0
:1035200020736C6F743D00206D65736865735F6513
:103530006E643D004532454E443D00206D65736824
:1035400020736C6F747320617661696C61626C6565
:103550002E0A003F496E76616C696420736C6F744B
:103560002E0A004D657368206C6F61646564206687
:10357000726F6D20736C6F7420003F556E61626CCA
:103580006520746F206C6F6164206D6573682064C2
:103590006174612E0A0048617264636F646564201F
:1035A00044656661756C742053657474696E6773E5
:1035B000204C6F616465640020286D6D2900203BFC
:1035C000204C6576656C696E67200020204D343292
:1035D00030205300556E6966696564204265642039
:1035E0004C6576656C696E670020460020480020B7
:1035F000204D3134352053004D6174657269616C22
:103600002068656174757020706172616D657465A4
:1036100072730046696C616D656E742072756E6FB1
:1036200075742073656E736F7200206D65736865C5
:10363000732E0A0A00454550524F4D2063616E209B
:10364000686F6C642000416374697665204D657312
:103650006820536C6F74200020204D313439204392
:10366000203B20556E69747320696E2043656C732E
:103670006975730A0054656D706572617475726561
:1036800020556E697473002020473231203B004C76
:10369000696E65617220556E697473003F4D657384
:1036A0006820746F6F2062696720666F72204545DD
:1036B00050524F4D2E0A00454550524F4D206461E7
:1036C000746173697A65206572726F722E0A005593
:1036D000424C2072657365740A00206C6F616465EA
:1036E000642066726F6D2073746F726167652E0A55
:1036F000004D657368200053746F726564207365B4
:103700007474696E67732072657472696576656436
:1037100000290A002062797465733B20637263207C
:10372000002073746F7265642073657474696E67CA
:10373000732072657472696576656420280045455A
:1037400050524F4D20435243204572726F720020F9
:103750002863616C63756C6174656429210A0020BB
:10376000213D2000454550524F4D20435243206D8E
:1037700069736D61746368202D202873746F72659E
:10378000642920002053697A653A2000496E6465F7
:10379000783A20000000FA430000FA43000020417C
:1037A000000096420000A0420000A0420000C84372
:1037B0000000BA42DC050000DC05000064000000E7
:1037C0004B000000454550524F4D205665727369BD
:1037D0006F6E204572726F7200204D61726C696E5F
:1037E0003D563837290A00454550524F4D207665E1
:1037F0007273696F6E206D69736D617463682028E0
:10380000454550524F4D3D0024F4D43050C38E20D6
:10381000C2A24017828B7011127A910D816CD90A65
:10382000A861E108C7586607615143061E4B5D0554
:10383000C145A7041A411104093D980371393103A8
:103840004036DB0265339102D4305402802E1D02D3
:10385000632CEE01752AC501B028A0011027810153
:103860008F2564012B244B01E0223401AC211F0180
:103870008D200D01801FFC00841EED00971DDF00D0
:10388000B81CD200E61BC600201BBC00641AB200A4
:10389000B219A8000A19A0006A189900D11791005E
:1038A00040178B00B516840031167E00B3157900E1
:1038B0003A157300C7146F0058146A00EE136600BF
:1038C0008813630025135E00C7125B006C1257005B
:1038D00015125400C111510070114F0021114B00FD
:1038E000D61049008D1047004610440002104200D7
:1038F000C00F4000800F3E00420F3C00060F3B000F
:10390000CB0E3800930E37005C0E3500270E3400C6
:10391000F30D3200C10D3100900D3000600D2E000E
:10392000320D2D00050D2C00D90C2B00AE0C2900FA
:10393000850C29005C0C2700350C27000E0C260096
:10394000E80B2400C40B2400A00B23007D0B2300F4
:103950005A0B2100390B2100180B2000F80A1F0018
:10396000D90A1E00BB0A1E009D0A1D00800A1D0008
:10397000630A1C00470A1B002C0A1B00110A1A00CC
:10398000F7091A00DD091900C4091900AB0919006B
:10399000920917007B091800630917004C091600EB
:1039A00036091600200916000A091500F508150049
:1039B000E0081400CC081400B8081400A40814008F
:1039C000900813007D0812006B08130058081200BD
:1039D00046081200340811002308110012081100D3
:1039E00001081100F0071000E0071000D0071000D8
:1039F000C0071000B0070F00A107100091070E00CC
:103A000083070F0074070F0065070E0057070E00AD
:103A100049070E003B070D002E070E0020070D0082
:103A200013070D0006070D00F9060C00ED060D004A
:103A3000E0060C00D4060C00C8060C00BC060C0006
:103A4000B0060C00A4060B0099060C008D060B00B6
:103A500082060B0077060B006C060B0061060A005D
:103A600057060B004C060A0042060A0038060A00F8
:103A70002E060A0024060A001A060A00100609008B
:103A800007060A00FD050900F4050900EB05090019
:103A9000E2050900D9050900D0050900C70509009C
:103AA000BE050900B5050800AD050800A50509001B
:103AB0009C050800940508008C0508008405080092
:103AC0007C050800740508006C0507006505080002
:103AD0005D050700560508004E050700470507006D
:103AE0004005080038050700310507002A050700D2
:103AF000230507001C050600160507000F05070033
:103B00000805060002050700FB040600F50407008F
:103B1000EE040600E8040600E2040700DB040600E9
:103B2000D5040600CF040600C9040600C30406003D
:103B3000BD040600B7040600B1040500AC0406008D
:103B4000A6040600A00405009B04060095040500D9
:103B5000900406008A040500850405008004060020
:103B60007A04050075040500700405006B04050067
:103B700066040500610405005C04050057040500A7
:103B8000520405004D0405004804050043040500E7
:103B90003E0404003A040500350405003004040026
:103BA0002C04050027040400230405001E0404005F
:103BB0001A04040016040500110404000D04040096
:103BC000090405000404040000040400FC030400CC
:103BD000F8030400F4030400F0030400EC03040001
:103BE000E8030400E4030400E0030400DC03040031
:103BF000D8030400D4030400D0030400CC03040061
:103C0000C8030300C503030024F404D9201BC40C1B
:103C10005C0E9804C4095F0265077101F405F900A0
:103C2000FB04B30048048700C10369005803550032
:103C300003034500BE023A008402310053022A0009
:103C40002902250004022000E4011C00C80119001B
:103C5000AF011700980114008401130071011000D6
:103C60006101100051010E0043010D0036010B00EF
:103C70002B010B0020010B00150109000C010900AC
:103C800003010800FB000800F3000800EB00070038
:103C9000E4000600DE000600D8000600D2000600A0
:103CA000CC000500C7000500C2000500BD000400EF
:103CB000B9000400B5000400B1000400AD00040028
:103CC000A9000400A5000300A20003009F00040057
:103CD0009B0003009800030095000200930003007E
:103CE000900003008D0002008B000300880002009A
:103CF0008600020084000300810002007F000200B1
:103D00007D0002007B0002007900020077000100C4
:103D100076000200740002007200010071000200CF
:103D20006F0002006D0001006C0002006A000100DB
:103D300069000200670001006600010065000100E3
:103D400064000200620001006100010060000100E7
:103D50005F0002005D0001005C0001005B000100EB
:103D60005A000100590001005800010057000100ED
:103D700056000100550001005400010053000000EE
:103D800053000100520001005100010050000100E9
:103D90004F0001004E0000004E0001004D000100E8
:103DA0004C0001004B0000004B0001004A000100E4
:103DB00049000100480000004800010047000100E0
:103DC00046000000460001004500000045000100DB
:103DD00044000100430000004300010042000000D5
:103DE00042000100410000004100010040000100CC
:103DF0003F0000003F0001003E0000003E000100C7
:103E00003D0000003D0001003C0000003C000000BF
:103E10003C0001003B0000003B0001003A000000B4
:103E20003A000100390000003900010038000000AC
:103E300038000000380001003700000037000100A2
:103E4000360000003600000036000100350000009A
:103E5000350000003500010034000000340000008F
:103E60003400010033000000330000003300010083
:103E7000320000003200000032000100310000007A
:103E8000310000003100010030000000300000006F
:103E9000300001002F0000002F0000002F00000064
:103EA0002F0001002E0000002E0000002E00010057
:103EB0002D0000002D0000002D0000002D0001004D
:103EC0002C0000002C0000002C0000002C00010041
:103ED0002B0000002B0000002B0000002B00010035
:103EE0002A0000002A0000002A0000002A00010029
:103EF000290000002900000029000000290000001E
:103F0000290001002800000028000000280000000F
:103F10002800000028000100270000002700000002
:103F200027000000270000002700010026000000F5
:103F300026000000260000002600000026000100E8
:103F400025000000250000002500000025000000DD
:103F500025000000250001002400000024000000CE
:103F600024000000240000002400010023000000C1
:103F700023000000230000002300000023000000B5
:103F800023000000230001002200000022000000A6
:103F90002200000022000000220000002200010098
:103FA000210000002100000021000000210000008D
:103FB000210000002100000021000100200000007D
:103FC0002000000020000000200000002000000071
:103FD0002000000020000000200001001F00000061
:103FE0001F0000001F0000001F0000001F00000055
:103FF0001F0000001F0001001E0000001E00000046
:104000001E0000001E0000003930000033250000B3
:1040100087190000B00F0000DB080000BD0400009D
:10402000740200003F01000020436F756E74205839
:104030003A00426564004531004500626564002C29
:104040002073797374656D2073746F70706564216B
:10405000204865617465725F49443A200048656193
:1040600074696E67204661696C65640048656174B7
:10407000696E67206661696C6564004D313132207C
:1040800053687574646F776E001000C90210012CBC
:10409000014001220170011801B0010E01F001047C
:1040A000015002FA00B002F0003003E600D003DC59
:1040B000009004D2007005C800A006BE000008B43D
:1040C00000B009AA00D00BA000600E960060118C11
:1040D000000015820020197800C01D6E00A0226427
:1040E00000B0275A00902C500000314600E0343CCC
:1040F0000010383200903A2800603C1E00A03D14A9
:1041000000803E0A00203F00004572723A204D4177
:104110005854454D50004D415854454D50207472EF
:1041200069676765726564004572723A204D494E51
:1041300054454D50004D494E54454D5020747269C0
:1041400067676572656400544845524D414C205282
:10415000554E4157415900546865726D616C20524B
:10416000756E61776179000A0A0020205A5F4D4917
:104170004E3A002020595F4D494E3A002020585FAA
:104180004D494E3A00202F002042403A0020403A4C
:104190000020573A0020573A00496E76616C6964F6
:1041A0002065787472756465720A007C3C3E5E2BF3
:1041B0003D3F2F5B5D3B2C2A225C0043616E6E6F9E
:1041C00074206F70656E2073756264697220004D93
:1041D0006564696120496E6974204661696C0053A9
:1041E000442063617264206F6B0A006F70656E52C9
:1041F0006F6F74206661696C65640A00766F6C7518
:104200006D652E696E6974206661696C65640A006B
:104210004E6F20534420636172640A000A4D3234A9
:10422000004D3233202573002E0A006F70656E201A
:104230006661696C65642C2046696C653A200046AD
:10424000696C652073656C65637465640A0020534E
:10425000697A653A200046696C65206F70656E6505
:10426000643A2000454E4420535542524F5554491C
:104270004E450A002220706F730022207061726523
:104280006E743A2200535542524F5554494E4520C0
:1042900043414C4C207461726765743A2200537537
:1042A0006263616C6C204F766572666C6F77004557
:1042B00078636565646564206D617820535542526A
:1042C0004F5554494E452064657074683A0070013A
:1042D0002C0190012701B0012201C0011D01F00154
:1042E00018011002130130020E0160020901900250
:1042F0000401C002FF000003FA004003F500800340
:10430000F000D003EB002004E6007004E100E004BC
:10431000DC004005D700C005D2004006CD00D00625
:10432000C8008007C3003008BE00F008B900C0090B
:10433000B400B00AAF00B00BAA00D00CA500000E6C
:10434000A000500F9B00C010960050129100001466
:104350008C00C0158700B0178200B0197D00D01BFB
:104360007800001E730040206E0090226900F02447
:10437000640040275F0090295A00E02B5500102E62
:10438000500020304B0010324600E03341009035A1
:104390003C001037370070383200A0392D00B03A99
:1043A0002800A03B2300603C1E00103D1900903DFA
:1043B0001400103E0F00703E0A00C03E0500003F92
:1043C0000000403FFBFF803FF6FFC03FF1FF1000C1
:1043D000C90210012C014001220170011801B00135
:1043E0000E01F00104015002FA00B002F0003003A7
:1043F000E600D003DC009004D2007005C800A006DF
:10440000BE000008B400B009AA00D00BA000600EE6
:10441000960060118C000015820020197800C01DE4
:104420006E00A0226400B0275A00902C500000318A
:104430004600E0343C0010383200903A2800603CDE
:104440001E00A03D1400803E0A00203F000024F41E
:1044500004D9201BC40C5C0E9804C4095F026507D4
:104460007101F405F900FB04B30048048700C1039F
:1044700069005803550003034500BE023A00840258
:10448000310053022A002902250004022000E40121
:104490001C00C8011900AF01170098011400840125
:1044A0001300710110006101100051010E00430161
:1044B0000D0036010B002B010B0020010B00150134
:1044C00009000C01090003010800FB000800F300CB
:1044D0000800EB000700E4000600DE000600D8003C
:1044E0000600D2000600CC000500C7000500C2008F
:1044F0000500BD000400B9000400B5000400B100CF
:104500000400AD000400A9000400A5000300A200FF
:1045100003009F0004009B00030098000300950027
:10452000020093000300900003008D0002008B0046
:10453000030088000200860002008400030081005E
:1045400002007F0002007D0002007B000200790073
:104550000200770001007600020074000200720081
:104560000100710002006F0002006D0001006C008C
:1045700002006A0001006900020067000100660095
:10458000010065000100640002006200010061009A
:104590000100600001005F0002005D0001005C009E
:1045A00001005B0001005A000100590001005800A1
:1045B00001005700010056000100550001005400A1
:1045C000010053000000530001005200010051009F
:1045D0000100500001004F0001004E0000004E009D
:1045E00001004D0001004C0001004B0000004B0099
:1045F00001004A0001004900010048000000480095
:10460000010047000100460000004600010045008F
:104610000000450001004400010043000000430089
:104620000100420000004200010041000000410082
:104630000100400001003F0000003F0001003E007B
:1046400000003E0001003D0000003D0001003C0074
:1046500000003C0000003C0001003B0000003B006B
:1046600001003A0000003A00010039000000390062
:104670000100380000003800000038000100370059
:104680000000370001003600000036000000360050
:104690000100350000003500000035000100340045
:1046A000000034000000340001003300000033003B
:1046B0000000330001003200000032000000320030
:1046C0000100310000003100000031000100300025
:1046D000000030000000300001002F0000002F001B
:1046E00000002F0000002F0001002E0000002E000F
:1046F00000002E0001002D0000002D0000002D0004
:1047000000002D0001002C0000002C0000002C00F7
:1047100000002C0001002B0000002B0000002B00EB
:1047200000002B0001002A0000002A0000002A00DF
:1047300000002A00010029000000290000002900D3
:1047400000002900000029000100280000002800C6
:1047500000002800000028000000280001002700B9
:1047600000002700000027000000270000002700AD
:1047700001002600000026000000260000002600A0
:104780000000260001002500000025000000250093
:104790000000250000002500000025000100240085
:1047A0000000240000002400000024000000240079
:1047B000010023000000230000002300000023006C
:1047C000000023000000230000002300010022005D
:1047D0000000220000002200000022000000220051
:1047E0000000220001002100000021000000210043
:1047F0000000210000002100000021000000210035
:104800000100200000002000000020000000200027
:104810000000200000002000000020000000200018
:1048200001001F0000001F0000001F0000001F000B
:1048300000001F0000001F0000001F0001001E00FC
:1048400000001E0000001E0000001E00000024F4F6
:10485000D43050C38E20C2A24017828B7011127ABE
:10486000910D816CD90AA861E108C75866076151AA
:1048700043061E4B5D05C145A7041A411104093DBD
:104880009803713931034036DB0265339102D4302D
:104890005402802E1D02632CEE01752AC501B0283A
:1048A000A001102781018F2564012B244B01E022F8
:1048B0003401AC211F018D200D01801FFC00841EDE
:1048C000ED00971DDF00B81CD200E61BC600201BC0
:1048D000BC00641AB200B219A8000A19A0006A1834
:1048E0009900D117910040178B00B516840031163E
:1048F0007E00B31579003A157300C7146F00581481
:104900006A00EE1366008813630025135E00C71269
:104910005B006C12570015125400C1115100701148
:104920004F0021114B00D61049008D104700461052
:10493000440002104200C00F4000800F3E00420FB2
:104940003C00060F3B00CB0E3800930E37005C0E88
:104950003500270E3400F30D3200C10D3100900DEB
:104960003000600D2E00320D2D00050D2C00D90CED
:104970002B00AE0C2900850C29005C0C2700350C9F
:1049800027000E0C2600E80B2400C40B2400A00B0B
:1049900023007D0B23005A0B2100390B2100180B3B
:1049A0002000F80A1F00D90A1E00BB0A1E009D0A3B
:1049B0001D00800A1D00630A1C00470A1B002C0A08
:1049C0001B00110A1A00F7091A00DD091900C409B1
:1049D0001900AB091900920917007B091800630937
:1049E00017004C09160036091600200916000A099E
:1049F0001500F5081500E0081400CC081400B808EC
:104A00001400A4081400900813007D0812006B081D
:104A10001300580812004608120034081100230839
:104A200011001208110001081100F0071000E00742
:104A30001000D0071000C0071000B0070F00A1073A
:104A4000100091070E0083070F0074070F00650721
:104A50000E0057070E0049070E003B070D002E07FA
:104A60000E0020070D0013070D0006070D00F906C4
:104A70000C00ED060D00E0060C00D4060C00C80684
:104A80000C00BC060C00B0060C00A4060B00990636
:104A90000C008D060B0082060B0077060B006C06DF
:104AA0000B0061060A0057060B004C060A0042067E
:104AB0000A0038060A002E060A0024060A001A0612
:104AC0000A001006090007060A00FD050900F405A2
:104AD0000900EB050900E2050900D9050900D00528
:104AE0000900C7050900BE050900B5050800AD05A8
:104AF0000800A50509009C050800940508008C0520
:104B00000800840508007C050800740508006C0591
:104B10000700650508005D050700560508004E05FD
:104B20000700470507004005080038050700310564
:104B300007002A050700230507001C0506001605C7
:104B400007000F0507000805060002050700FB0423
:104B50000600F5040700EE040600E8040600E2047F
:104B60000700DB040600D5040600CF040600C904D4
:104B70000600C3040600BD040600B7040600B10425
:104B80000500AC040600A6040600A00405009B0472
:104B9000060095040500900406008A0405008504BB
:104BA0000500800406007A04050075040500700401
:104BB00005006B04050066040500610405005C0443
:104BC000050057040500520405004D040500480483
:104BD0000500430405003E0404003A0405003504C2
:104BE0000500300404002C040500270404002304FD
:104BF00005001E0404001A04040016040500110434
:104C000004000D0404000904050004040400000469
:104C10000400FC030400F8030400F4030400F003A0
:104C20000400EC030400E8030400E4030400E003D0
:104C30000400DC030400D8030400D4030400D00300
:104C40000400CC030400C8030300C5030300726F13
:104C5000746174696F6E206D61747269783A0A00CC
:104C600024F404D9201BC40C5C0E9804C4095F0210
:104C700065077101F405F900FB04B30048048700DF
:104C8000C10369005803550003034500BE023A0002
:104C90008402310053022A00290225000402200068
:104CA000E4011C00C8011900AF01170098011400AD
:104CB00084011300710110006101100051010E0008
:104CC00043010D0036010B002B010B0020010B00EE
:104CD000150109000C01090003010800FB00080090
:104CE000F3000800EB000700E4000600DE00060009
:104CF000D8000600D2000600CC000500C700050061
:104D0000C2000500BD000400B9000400B5000400A5
:104D1000B1000400AD000400A9000400A5000300D8
:104D2000A20003009F0004009B0003009800030002
:104D30009500020093000300900003008D00020024
:104D40008B0003008800020086000200840003003C
:104D5000810002007F0002007D0002007B00020053
:104D60007900020077000100760002007400020062
:104D700072000100710002006F0002006D0001006E
:104D80006C0002006A000100690002006700010077
:104D9000660001006500010064000200620001007D
:104DA00061000100600001005F0002005D00010081
:104DB0005C0001005B0001005A0001005900010085
:104DC0005800010057000100560001005500010085
:104DD0005400010053000000530001005200010084
:104DE00051000100500001004F0001004E00000082
:104DF0004E0001004D0001004C0001004B0000007E
:104E00004B0001004A000100490001004800000079
:104E10004800010047000100460000004600010074
:104E2000450000004500010044000100430000006F
:104E30004300010042000000420001004100000068
:104E400041000100400001003F0000003F00010060
:104E50003E0000003E0001003D0000003D0001005A
:104E60003C0000003C0000003C0001003B00000052
:104E70003B0001003A0000003A0001003900000048
:104E8000390001003800000038000000380001003F
:104E90003700000037000100360000003600000037
:104EA000360001003500000035000000350001002B
:104EB0003400000034000000340001003300000022
:104EC0003300000033000100320000003200000017
:104ED000320001003100000031000000310001000B
:104EE0003000000030000000300001002F00000002
:104EF0002F0000002F0000002F0001002E000000F6
:104F00002E0000002E0001002D0000002D000000EA
:104F10002D0000002D0001002C0000002C000000DE
:104F20002C0000002C0001002B0000002B000000D2
:104F30002B0000002B0001002A0000002A000000C6
:104F40002A0000002A0001002900000029000000BA
:104F500029000000290000002900010028000000AD
:104F600028000000280000002800000028000100A0
:104F70002700000027000000270000002700000095
:104F80002700010026000000260000002600000087
:104F9000260000002600010025000000250000007A
:104FA000250000002500000025000000250001006C
:104FB0002400000024000000240000002400000061
:104FC0002400010023000000230000002300000053
:104FD0002300000023000000230000002300010044
:104FE0002200000022000000220000002200000039
:104FF000220000002200010021000000210000002A
:10500000210000002100000021000000210000001C
:10501000210001002000000020000000200000000E
:105020002000000020000000200000002000000000
:10503000200001001F0000001F0000001F000000F2
:105040001F0000001F0000001F0000001F000100E3
:105050001E0000001E0000001E0000001E000000D8
:1050600024F4D43050C38E20C2A24017828B70111A
:10507000127A910D816CD90AA861E108C7586607B8
:10508000615143061E4B5D05C145A7041A41110439
:10509000093D9803713931034036DB0265339102D3
:1050A000D4305402802E1D02632CEE01752AC501F6
:1050B000B028A001102781018F2564012B244B010A
:1050C000E0223401AC211F018D200D01801FFC0066
:1050D000841EED00971DDF00B81CD200E61BC60041
:1050E000201BBC00641AB200B219A8000A19A00063
:1050F0006A189900D117910040178B00B5168400EB
:1051000031167E00B31579003A157300C7146F008D
:1051100058146A00EE1366008813630025135E00BE
:10512000C7125B006C12570015125400C1115100D8
:1051300070114F0021114B00D61049008D1047000F
:105140004610440002104200C00F4000800F3E0095
:10515000420F3C00060F3B00CB0E3800930E370089
:105160005C0E3500270E3400F30D3200C10D310006
:10517000900D3000600D2E00320D2D00050D2C001D
:10518000D90C2B00AE0C2900850C29005C0C2700E3
:10519000350C27000E0C2600E80B2400C40B24005D
:1051A000A00B23007D0B23005A0B2100390B21009B
:1051B000180B2000F80A1F00D90A1E00BB0A1E00A7
:1051C0009D0A1D00800A1D00630A1C00470A1B007F
:1051D0002C0A1B00110A1A00F7091A00DD09190030
:1051E000C4091900AB091900920917007B091800BE
:1051F000630917004C09160036091600200916002D
:105200000A091500F5081500E0081400CC08140080
:10521000B8081400A4081400900813007D081200B8
:105220006B081300580812004608120034081100D9
:10523000230811001208110001081100F0071000E6
:10524000E0071000D0071000C0071000B0070F00E3
:10525000A107100091070E0083070F0074070F00CD
:1052600065070E0057070E0049070E003B070D00AB
:105270002E070E0020070D0013070D0006070D0076
:10528000F9060C00ED060D00E0060C00D4060C003B
:10529000C8060C00BC060C00B0060C00A4060B00EF
:1052A00099060C008D060B0082060B0077060B009A
:1052B0006C060B0061060A0057060B004C060A003C
:1052C00042060A0038060A002E060A0024060A00D2
:1052D0001A060A001006090007060A00FD05090063
:1052E000F4050900EB050900E2050900D9050900EC
:1052F000D0050900C7050900BE050900B50508006D
:10530000AD050800A50509009C05080094050800E6
:105310008C050800840508007C0508007405080059
:105320006C050700650508005D05070056050800C7
:105330004E0507004705070040050800380507002F
:10534000310507002A050700230507001C05060094
:10535000160507000F0507000805060002050700EF
:10536000FB040600F5040700EE040600E80406004E
:10537000E2040700DB040600D5040600CF040600A3
:10538000C9040600C3040600BD040600B7040600F5
:10539000B1040500AC040600A6040600A004050044
:1053A0009B04060095040500900406008A0405008D
:1053B00085040500800406007A04050075040500D4
:1053C000700405006B040500660405006104050017
:1053D0005C04050057040500520405004D04050057
:1053E00048040500430405003E0404003A04050097
:1053F00035040500300404002C04050027040400D3
:10540000230405001E0404001A0404001604050009
:10541000110404000D040400090405000404040040
:1054200000040400FC030400F8030400F403040077
:10543000F0030400EC030400E8030400E4030400A8
:10544000E0030400DC030400D8030400D4030400D8
:10545000D0030400CC030400C8030300C503030009
:1054600024F404D9201BC40C5C0E9804C4095F0208
:1054700065077101F405F900FB04B30048048700D7
:10548000C10369005803550003034500BE023A00FA
:105490008402310053022A00290225000402200060
:1054A000E4011C00C8011900AF01170098011400A5
:1054B00084011300710110006101100051010E0000
:1054C00043010D0036010B002B010B0020010B00E6
:1054D000150109000C01090003010800FB00080088
:1054E000F3000800EB000700E4000600DE00060001
:1054F000D8000600D2000600CC000500C700050059
:10550000C2000500BD000400B9000400B50004009D
:10551000B1000400AD000400A9000400A5000300D0
:10552000A20003009F0004009B00030098000300FA
:105530009500020093000300900003008D0002001C
:105540008B00030088000200860002008400030034
:10555000810002007F0002007D0002007B0002004B
:10556000790002007700010076000200740002005A
:1055700072000100710002006F0002006D00010066
:105580006C0002006A00010069000200670001006F
:105590006600010065000100640002006200010075
:1055A00061000100600001005F0002005D00010079
:1055B0005C0001005B0001005A000100590001007D
:1055C000580001005700010056000100550001007D
:1055D000540001005300000053000100520001007C
:1055E00051000100500001004F0001004E0000007A
:1055F0004E0001004D0001004C0001004B00000076
:105600004B0001004A000100490001004800000071
:10561000480001004700010046000000460001006C
:105620004500000045000100440001004300000067
:105630004300010042000000420001004100000060
:1056400041000100400001003F0000003F00010058
:105650003E0000003E0001003D0000003D00010052
:105660003C0000003C0000003C0001003B0000004A
:105670003B0001003A0000003A0001003900000040
:105680003900010038000000380000003800010037
:10569000370000003700010036000000360000002F
:1056A0003600010035000000350000003500010023
:1056B000340000003400000034000100330000001A
:1056C000330000003300010032000000320000000F
:1056D0003200010031000000310000003100010003
:1056E0003000000030000000300001002F000000FA
:1056F0002F0000002F0000002F0001002E000000EE
:105700002E0000002E0001002D0000002D000000E2
:105710002D0000002D0001002C0000002C000000D6
:105720002C0000002C0001002B0000002B000000CA
:105730002B0000002B0001002A0000002A000000BE
:105740002A0000002A0001002900000029000000B2
:1057500029000000290000002900010028000000A5
:105760002800000028000000280000002800010098
:10577000270000002700000027000000270000008D
:10578000270001002600000026000000260000007F
:105790002600000026000100250000002500000072
:1057A0002500000025000000250000002500010064
:1057B0002400000024000000240000002400000059
:1057C000240001002300000023000000230000004B
:1057D000230000002300000023000000230001003C
:1057E0002200000022000000220000002200000031
:1057F0002200000022000100210000002100000022
:105800002100000021000000210000002100000014
:105810002100010020000000200000002000000006
:1058200020000000200000002000000020000000F8
:10583000200001001F0000001F0000001F000000EA
:105840001F0000001F0000001F0000001F000100DB
:105850001E0000001E0000001E0000001E000000D0
:1058600024F4D43050C38E20C2A24017828B701112
:10587000127A910D816CD90AA861E108C7586607B0
:10588000615143061E4B5D05C145A7041A41110431
:10589000093D9803713931034036DB0265339102CB
:1058A000D4305402802E1D02632CEE01752AC501EE
:1058B000B028A001102781018F2564012B244B0102
:1058C000E0223401AC211F018D200D01801FFC005E
:1058D000841EED00971DDF00B81CD200E61BC60039
:1058E000201BBC00641AB200B219A8000A19A0005B
:1058F0006A189900D117910040178B00B5168400E3
:1059000031167E00B31579003A157300C7146F0085
:1059100058146A00EE1366008813630025135E00B6
:10592000C7125B006C12570015125400C1115100D0
:1059300070114F0021114B00D61049008D10470007
:105940004610440002104200C00F4000800F3E008D
:10595000420F3C00060F3B00CB0E3800930E370081
:105960005C0E3500270E3400F30D3200C10D3100FE
:10597000900D3000600D2E00320D2D00050D2C0015
:10598000D90C2B00AE0C2900850C29005C0C2700DB
:10599000350C27000E0C2600E80B2400C40B240055
:1059A000A00B23007D0B23005A0B2100390B210093
:1059B000180B2000F80A1F00D90A1E00BB0A1E009F
:1059C0009D0A1D00800A1D00630A1C00470A1B0077
:1059D0002C0A1B00110A1A00F7091A00DD09190028
:1059E000C4091900AB091900920917007B091800B6
:1059F000630917004C091600360916002009160025
:105A00000A091500F5081500E0081400CC08140078
:105A1000B8081400A4081400900813007D081200B0
:105A20006B081300580812004608120034081100D1
:105A3000230811001208110001081100F0071000DE
:105A4000E0071000D0071000C0071000B0070F00DB
:105A5000A107100091070E0083070F0074070F00C5
:105A600065070E0057070E0049070E003B070D00A3
:105A70002E070E0020070D0013070D0006070D006E
:105A8000F9060C00ED060D00E0060C00D4060C0033
:105A9000C8060C00BC060C00B0060C00A4060B00E7
:105AA00099060C008D060B0082060B0077060B0092
:105AB0006C060B0061060A0057060B004C060A0034
:105AC00042060A0038060A002E060A0024060A00CA
:105AD0001A060A001006090007060A00FD0509005B
