:100000000C94D5170C940E180C940E180C940E1812
:100010000C940E180C940E180C940E180C940E18C8
:100020000C940E180C940E180C940E180C940E18B8
:100030000C940E180C948C790C940E180C940E18C9
:100040000C9461780C940E180C941AD50C940E181C
:100050000C94D93E0C94CF3E0C940E180C940E18B0
:100060000C940E180C940E180C940E180C940E1878
:100070000C940E180C940E180C940E180C940E1868
:100080000C9465320C940E180C940E184E414E4987
:100090004E495459494E46CDCCCC3D0AD7233C1746
:1000A000B7D13877CC2B329595E6241FB14F0A0093
:1000B0000020410000C84200401C4620BCBE4CCA83
:1000C0001B0E5AAEC59D7400407A10F35A00A07200
:1000D0004E18090010A5D4E80000E8764817000083
:1000E000E40B54020000CA9A3B000000E1F5050051
:1000F0000080969800000040420F000000A086019A
:10010000000000102700000000E803000000006469
:1001100000000000000A00000000000100000000D4
:10012000002C76D888DC674F0823DFC1DFAE59E1A9
:10013000B1B796E5E3E453C63AE651997696E8E618
:10014000C28426EB898C9B62ED407C6FFCEFBC9CEB
:100150009F40F2BAA56FA5F490055A2AF75C936BFD
:100160006CF9676DC11BFCE0E40D47FEF520E6B5B8
:1001700000D0ED902E0300943577050080841E0892
:100180000000204E0A000000C80C333333330F98B0
:100190006E12831141EF8D2114893BE65516CFFE77
:1001A000E6DB18D1844B381BF77C1D901DA4BBE403
:1001B00024203284725E228100C9F124ECA1E53D45
:1001C000275A5F53544F505F50494E005A5F535463
:1001D00045505F50494E005A5F4D494E5F50494E61
:1001E000005A5F454E41424C455F50494E005A5FB0
:1001F0004449525F50494E00595F53544F505F502D
:10020000494E00595F535445505F50494E00595F65
:100210004D494E5F50494E00595F454E41424C4555
:100220005F50494E00595F4449525F50494E005853
:100230005F53544F505F50494E00585F53544550E0
:100240005F50494E00585F4D494E5F50494E00582F
:100250005F454E41424C455F50494E00585F44490E
:10026000525F50494E00534552564F305F50494EF1
:100270000053445353004C43445F53445353004C86
:1002800043445F50494E535F5253004C43445F50C8
:10029000494E535F454E41424C45004C43445F50EC
:1002A000494E535F4434004845415445525F4245EE
:1002B000445F50494E004845415445525F305F50BD
:1002C000494E0046414E5F50494E0045305F535401
:1002D00045505F50494E0045305F454E41424C45C8
:1002E0005F50494E0045305F4449525F50494E00CF
:1002F000444F474C43445F53434B00444F474C43A8
:10030000445F4D4F53490042544E5F454E430042B7
:10031000544E5F454E320042544E5F454E310041CF
:1003200056525F53535F50494E004156525F5343FC
:100330004B5F50494E004156525F4D4F53495F50FD
:10034000494E004156525F4D49534F5F50494E0050
:1003500054454D505F4245445F50494E0054454D11
:10036000505F305F50494E0054584430005258445A
:100370003000434F4D4D554E49434154494F4E0077
:1003800044525952554E004552524F525300494E15
:10039000464F004543484F000F150E1216170E1317
:1003A00003021A1401000E0D18040C190001535415
:1003B0004F505045442E20005072696E7465722073
:1003C00073746F707065642064756520746F206548
:1003D00072726F72732E204669782074686520658A
:1003E00072726F7220616E6420757365204D3939A9
:1003F0003920746F20726573746172742E202854D2
:10040000656D7065726174757265206973207265BF
:100410007365742E20536574206974206166746559
:10042000722072657374617274696E67290A004E76
:100430006F20436865636B73756D207769746820FE
:100440006C696E65206E756D6265722C204C6173EF
:1004500074204C696E653A20004E6F2043686563D6
:100460006B73756D2077697468206C696E65206E9A
:10047000756D6265722C204C617374204C696E65D9
:100480003A2000636865636B73756D206D69736DE9
:10049000617463682C204C617374204C696E653AFA
:1004A00020004C696E65204E756D6265722069731F
:1004B000206E6F74204C617374204C696E65204E01
:1004C000756D6265722B312C204C617374204C6900
:1004D0006E653A20004D3131300053657269616CB0
:1004E00020737461747573206D69736D61746368D2
:1004F0000A0053442072656164206572726F720A4B
:10050000002121204B494C4C2063617573656420A8
:10051000627920746F6F206D75636820696E616306
:10052000746976652074696D65202D20637572721B
:10053000656E7420636F6D6D616E643A2000486F64
:1005400074656E642049646C652054696D656F75CF
:100550007400486F74656E642049646C652054694A
:100560006D656F75740A004D6564696120496E732D
:10057000657274656400506C6561736520526573C3
:100580006574005052494E5445522048414C5445E0
:10059000440025533A20255300706F7765726F66CB
:1005A00066004B494C4C45442E20005072696E74D5
:1005B00065722068616C7465642E206B696C6C28B0
:1005C000292063616C6C6564210A0053544F5050BC
:1005D00045442E20005072696E7465722073746FEA
:1005E000707065642064756520746F206572726F29
:1005F00072732E2046697820746865206572726F68
:100600007220616E6420757365204D39393920740C
:100610006F20726573746172742E202854656D703A
:100620006572617475726520697320726573657493
:100630002E2053657420697420616674657220727F
:10064000657374617274696E67290A006563686F07
:100650003A004572726F723A004F4646004F4E00A4
:1006600042696C696E656172204C6576656C696E75
:100670006720477269643A0A0021212053544F5081
:100680002063616C6C6564206265636175736520CD
:100690006F6620424C546F756368206572726F728A
:1006A000202D2072657374617274207769746820DC
:1006B0004D3939390A0021212053544F50206361AC
:1006C0006C6C65642062656361757365206F66207C
:1006D000424C546F756368206572726F72202D20D2
:1006E000726573746172742077697468204D39394A
:1006F000390A00737461727400426564204C657637
:10070000656C696E6720004661696C656420746F72
:1007100020656E61626C6520426564204C6576657B
:100720006C696E670A00496E76616C6964206D655C
:1007300073682E0A0050726F62696E6720506F698D
:100740006E740025532025692F2569002E0A002F7D
:100750000050726F62696E67206D65736820706FFC
:10076000696E742000202844525952554E29004782
:100770003239204175746F20426564204C6576657E
:100780006C696E67003F20284C2C522C462C422965
:10079000206F7574206F6620626F756E64732E0A09
:1007A000003F2856296572626F7365206C65766517
:1007B0006C20696D706C61757369626C652028309E
:1007C0002D34292E0A00426164205A2076616C750E
:1007D000650A004E6F2062696C696E656172206700
:1007E0007269640A0020530020204D3230352042C7
:1007F000005741524E494E4721204C6F77205A20D6
:100800004A65726B206D6179206C65616420746F3C
:1008100020756E77616E74656420706175736573A1
:100820002E0A0050574D3A20202534640050574D71
:100830003A20202534640050574D3A202025346456
:100840000050574D3A20202534640050574D3A202F
:10085000202534640050574D3A2020253464005040
:10086000574D3A20202534640050574D3A2020251A
:100870003464003A200020202020434F4D002020E7
:10088000206E6F6E2D7374616E64617264205057B8
:100890004D206D6F646500202020636F6D70617264
:1008A0006520696E7465727275707420656E616220
:1008B0006C6564002020206F766572666C6F77200F
:1008C000696E7465727275707420656E61626C65B4
:1008D00064003A20002020202054494D534B004210
:1008E0003A2000202020205443435200413A200067
:1008F0002020202054434352002020202043533AFC
:1009000020002020202057474D3A200050574D3AD4
:1009100020202534640050574D3A202025346400AF
:1009200047004800000088008A000000B300B400BF
:10093000000098009A0000002020202054494D45D6
:100940005200440045006E00800081006F00B0003E
:10095000B100700090009100710020200020205014
:100960006F72743A200020202000202020416E6108
:100970006C6F6720696E203D2025356C64003C75E6
:100980006E757365642F756E6B6E6F776E3E0020AB
:100990002841253264292020002533642000504955
:1009A0004E3A20004F7574707574203D2000496EDA
:1009B00070757420203D2000416E616C6F67206966
:1009C0006E203D2025356C640070726F7465637411
:1009D0006564200020284125326429202000253329
:1009E00064200050494E3A20006D03080168030955
:1009F000015D031800500319004303060136030587
:100A0000012A0307011F03040117030B010F030A47
:100A10000107031001FB020501F0020701E50200D6
:100A200001D7020E01CB020101C3020401B6020D7F
:100A300001A7020C019B021E018B0211017F021C07
:100A40000176021F0171021F0166021B015C021583
:100A5000014F020E01450212013A020F012F02124C
:100A6000012502170118020E010E021301030216DE
:100A700001F8011301EE010201E1011A01D701148D
:100A800001CC010301C1011401446F6E652E0A00FF
:100A900050756C73696E6720202000556E746F75F9
:100AA00063686564200066616C7365004641494C6B
:100AB0003A204E6F207472696767657220646574AE
:100AC00065637465640A004641494C3A204E6F697B
:100AD0007365206465746563746564202D20706C93
:100AE000656173652072652D72756E20746573740F
:100AF0000A002064657465637465642E0A003D20F5
:100B0000424C546F756368207072652056332E31E5
:100B100020286F7220636F6D70617469626C652943
:100B2000003D205A20536572766F2050726F6265C7
:100B3000003D20424C546F7563682056332E3100BF
:100B400020282B2F2D20346D73293A20003A203392
:100B5000306D73206F72206D6F72650A002E205009
:100B6000756C7365207769647468002A2A20506C5C
:100B70006561736520747269676765722070726F52
:100B800062652077697468696E203330207365630D
:100B9000202A2A0A004641494C3A20424C544F55DB
:100BA000434820656E61626C6564202D2053657436
:100BB00020757020746869732064657669636520A8
:100BC0006173206120536572766F2050726F626589
:100BD000207769746820494E56455254494E472043
:100BE00073657420746F202774727565272E0A0050
:100BF00020204445504C4F5945442073746174651E
:100C00003A204C4F5720286C6F67696320302900C9
:100C100020204445504C4F594544207374617465FD
:100C20003A204849474820286C6F6769632031297A
:100C3000003D204D656368616E6963616C20537788
:100C4000697463682064657465637465640A005739
:100C500041524E494E473A20494E56455254494E0C
:100C6000472073657474696E672070726F62616289
:100C70006C79206261636B77617264732E0A002E57
:100C8000204465706C6F7920262073746F77203450
:100C90002074696D65730A003D20424C546F756382
:100CA0006820436C617373696320312E322C2031CC
:100CB0002E332C20536D61727420312E302C203253
:100CC0002E302C20322E322C20332E302C20332E5E
:100CD000312064657465637465642E0A002E2043B8
:100CE0006865636B20666F7220424C544F554348D1
:100CF0000A002E205A5F4D494E5F454E4453544FD3
:100D0000505F494E56455254494E473A20002E20D6
:100D100050726F6265205A5F4D494E5F50494E3A9E
:100D200020002C2073746F7720616E676C653A2009
:100D30002020002C206465706C6F7920616E676CD8
:100D4000653A2000536572766F2070726F6265207D
:100D5000746573740A2E207573696E6720696E64FA
:100D600065783A2020005761746368696E67207067
:100D7000696E730A0064697300656E0061626C6578
:100D8000640A00656E6473746F70206D6F6E6974B1
:100D90006F7220002E0A00206E6F742064697361E8
:100DA000626C65642E205368617265642077697493
:100DB000680020580020204D61783A200020002053
:100DC000204D696E3A2000203B200020204D32311A
:100DD0003120530020496E76616C69642065787417
:100DE00072756465722000536C6565702E2E2E003E
:100DF0005A2050726F62652050617374204265649E
:100E00000A005A2050726F6265205061737420424C
:100E10006564004732384C3000205A3A200020598F
:100E20003A200042656420583A20004D65736820DE
:100E3000706F696E74206F7574206F662072616EBA
:100E400067650A00436C69636B20746F2052657399
:100E5000756D652E2E2E00616C736F20656E61625C
:100E60006C6564290A004E6F204D6F76652E004533
:100E70006E642066696C65206C6973740A00426553
:100E800067696E2066696C65206C6973740A004E30
:100E90006F206D656469610A007061757365002873
:100EA0006E6F2066696C65290043757272656E7499
:100EB0002066696C653A20005344207072696E7434
:100EC000696E67206279746520004E6F7420534408
:100ED000207072696E74696E670A002E0A0044659C
:100EE0006C6574696F6E206661696C65642C204660
:100EF000696C653A200046696C652064656C6574B0
:100F000065643A002569730025696D2025697300C1
:100F10002569682025696D2025697300256964208D
:100F20002569682025696D20256973002569792068
:100F3000256964202569682025696D20256973006D
:100F40005072696E742074696D653A20003F436188
:100F50006E6E6F7420777269746520746F20494ECD
:100F60005055540A00496E76616C69642050696E70
:100F7000204D6F64650A006F6B006F666600930317
:100F80008E0387038003720344454255473A00535A
:100F9000755065522043522D3130204F46462E0069
:100FA00020204D39322058004649524D5741524574
:100FB0005F4E414D453A4D61726C696E20322E3064
:100FC0002E395F4457372E342E3620544D3344206B
:100FD0004F534D4442422028417072203238203213
:100FE0003032322030313A30383A30332920534FC2
:100FF000555243455F434F44455F55524C3A6874E0
:101000007470733A2F2F6769746875622E636F6D01
:101010002F496E73616E6974794175746F6D617477
:10102000696F6E2F4D61726C696E2F747265652FDA
:10103000437265616C6974794477696E5F322E30F2
:101040002050524F544F434F4C5F56455253494FD7
:101050004E3A312E30204D414348494E455F545958
:1010600050453A53755065522043522D313020453A
:10107000585452554445525F434F554E543A3120CF
:10108000555549443A63656465326132662D3431A1
:1010900061322D343734382D396231322D63353594
:1010A0006336326633363766660A002F2F004D31BD
:1010B000343520533C696E6465783E206F7574202A
:1010C0006F662072616E67652028302D31290A0015
:1010D00020440020204D32303020530020204D325B
:1010E000303120580020450020204D323033205828
:1010F0000020540020520020204D32303420500077
:1011000020204D32303620580046523A0020466C9E
:101110006F773A200050726F746563746564205075
:10112000696E0A003A200020536572766F20002015
:101130006F7574206F662072616E67650A00536573
:1011400072766F200050726F6265204F666673651D
:1011500074205A0050726F6265204F666673657422
:10116000205A0020440020490020204D33303120F7
:10117000500064697300656E0043290A0061626C67
:10118000656420286D696E2074656D702000436F62
:101190006C64206578747275646573206172652073
:1011A00000424C546F756368204853206D6F64652E
:1011B00020004D34323120696E636F727265637442
:1011C00020706172616D6574657220757361676509
:1011D0000A004D65736820706F696E74206F7574B6
:1011E000206F662072616E67650A004F66667365E0
:1011F0007473204170706C696564004572723A20A6
:10120000546F6F206661722100546F6F20666172A7
:101210002066726F6D207265666572656E6365200B
:10122000706F696E740A00454550524F4D204F4B08
:101230000A004D383400446F6E65207072696E7418
:10124000696E672066696C650A004D3737004D335B
:101250003100496E76616C696420657874727564DA
:1012600065720A0020286D6D2900203B00205A007D
:1012700020590020204D383531205800290A0020FF
:10128000746F20003F5A206F7574206F6620726162
:101290006E6765202800290A0020746F20003F59DE
:1012A000206F7574206F662072616E676520282D2F
:1012B00000290A0020746F20003F58206F757420A9
:1012C0006F662072616E676520282D0020573A00F6
:1012D000436F6F6C696E672E2E2E004531202553AB
:1012E0000020573A0042656420436F6F6C696E6757
:1012F0002E2E2E004265642048656174696E672E4B
:101300002E2E0023646566696E652044454641556E
:101310004C545F004B6420004B6920004B70200050
:10132000504944204175746F74756E652066696E0E
:101330006973686564212050757420746865206C39
:10134000617374204B702C204B6920616E64204BBC
:101350006420636F6E7374616E74732066726F6D58
:101360002062656C6F7720696E746F20436F6E66C4
:10137000696775726174696F6E2E680A005049441E
:10138000204175746F74756E65206661696C656463
:10139000212074696D656F75740A005049442041BD
:1013A00075746F74756E65206661696C6564212063
:1013B00054656D706572617475726520746F6F200D
:1013C000686967680A00504944204379636C657313
:1013D0000025532025692F256900204B643A200001
:1013E000204B693A2000204B703A200020436C616A
:1013F0007373696320504944200A002054753A20D1
:1014000000204B753A2000206D61783A2000206D55
:10141000696E3A200020643A200020626961733AC4
:10142000200048656174696E672E2E2E0050494475
:10143000204175746F74756E652073746172740ADF
:1014400000504944204175746F74756E6520666163
:10145000696C6564212054656D7065726174757284
:101460006520746F6F20686967680A0050494420DE
:101470004175746F74756E650050494420417574F0
:101480006F74756E65206661696C656421204261C8
:1014900064206865617465722069640A004572722F
:1014A0003A207574663820666F6E74206E6F7420F3
:1014B000696E697469616C697A65642E004572723F
:1014C0003A207574663820666F6E74206E6F7420D3
:1014D000696E697469616C697A65642E004572721F
:1014E0003A207574663820666F6E74206E6F7420B3
:1014F000696E697469616C697A65642E0025687526
:101500003A25303268750025303268753A25303218
:1015100068750025303268752725303268750025DA
:101520006875642025303268753A25303268750058
:1015300042656400456E636C6F73757265002020B0
:101540002020202020002020202000657272001F13
:10155000E02010201020101020102020102010302B
:10156000300840048003003FFFF038007030FC304A
:1015700020FC102078102030102C00D02E31D02FDD
:101580007BD02F7BD02E31D02C00D0203010207873
:101590001020FC1030FC303800703FFFF03FFFF0AF
:1015A0003800703186302387102787902F87D02FFF
:1015B00003D02030102078102078102030102F0316
:1015C000D02F87D02787902387103186303800703E
:1015D0003FFFF004104002082002082004104008D9
:1015E00020801041001041000820800410400000BD
:1015F000001FFFF81FFFF8000C0F00FE0702250375
:10160000BB017FFE08FE08FE05080806000040F04A
:10161000C88888987810050808060000C0F88888EF
:10162000888888F80505050600012030F830200577
:1016300008080600002070F820202020E005090995
:101640000600FF2070A8A8B8888870200705050745
:101650000001D86C366CD80509090600FFF8A88887
:1016600088888888A8F8050A0A0600FE205050508D
:101670005088A8A8887003030306000340A040FF19
:10168000FFFFFFFFFFFFFFFFFFFFFFFFFFFFFFFF6A
:10169000FFFFFFFFFF0000000605FF01070706022E
:1016A0000080808080800080030303060105A0A0E5
:1016B000A005060606000050F85050F8500509092C
:1016C0000600FF2070A8A07028A870200507070654
:1016D0000000C8C810204098980507070600004081
:1016E000A0A040A890680103030602058080800343
:1016F00009090601FF204040808080404020030906
:10170000090601FF80404020202040408005070757
:1017100006000020A8702070A8200505050600011D
:101720002020F820200203030601FFC040800501AD
:1017300001060003F8020202060100C0C005070707
:101740000600000810102040408005070706000032
:10175000708898A8C8887003070706010040C04039
:10176000404040E005070706000070880810204050
:10177000F8050707060000F808103008887005070C
:101780000706000010305090F810100507070600FB
:1017900000F880F008088870050707060000304050
:1017A00080F0888870050707060000F808101020F0
:1017B000202005070706000070888870888870055B
:1017C0000707060000708888780810600205050683
:1017D0000100C0C000C0C00206060601FFC0C00074
:1017E000C04080030505060101204080402005031C
:1017F00003060002F800F8030505060101804020F9
:101800004080050707060000708810202000200592
:1018100007070600007088B8A8B88070050707069B
:101820000000708888F8888888050707060000F09F
:101830004848704848F00507070600007088808017
:10184000808870050707060000F04848484848F0BF
:10185000050707060000F88080F08080F80507077C
:10186000060000F88080F0808080050707060000F1
:10187000708880809888700507070600008888882F
:10188000F8888888030707060100E0404040404090
:10189000E0050707060000381010101090600507DB
:1018A000070600008890A0C0A090880507070600E2
:1018B00000808080808080F805070706000088D8B7
:1018C000A8888888880507070600008888C8A8981F
:1018D0008888050707060000708888888888700552
:1018E0000707060000F08888F0808080050707065B
:1018F000000070888888A89068050707060000F037
:101900008888F0A09088050707060000708880701E
:10191000088870050707060000F8202020202020F6
:1019200005070706000088888888888870050707EB
:1019300006000088888888505020050707060000A8
:1019400088888888A8A8500507070600008888505E
:10195000205088880507070600008888502020202E
:1019600020050707060000F80810204080F803094A
:10197000090601FFE080808080808080E005070705
:10198000060000804040201010080309090601FFEE
:10199000E020202020202020E00503030600052071
:1019A00050880501010600FEF803030306010580C7
:1019B00040200505050600007008788878050707AF
:1019C0000600008080F0888888F005050506000084
:1019D00070808088700507070600000808788888EE
:1019E00088780505050600007088F08070050707F7
:1019F000060000304840E04040400507070600FE72
:101A0000708888887808700507070600008080F0D5
:101A1000888888880307070601004000C0404040CE
:101A2000E00409090601FE1000301010101090604B
:101A300005070706000080808890E090880307076C
:101A4000060100C04040404040E00505050600009A
:101A5000D0A8A8A8A8050505060000B0C8888888F1
:101A600005050506000070888888700507070600D0
:101A7000FEF0888888F080800507070600FE7888D9
:101A80008888780808050505060000B0C8808080B1
:101A900005050506000078807008F00507070600B8
:101AA000002020F820202018050505060000888861
:101AB0008898680505050600008888885020050577
:101AC000050600008888A8A85005050506000088BE
:101AD000502050880507070600FE8888885020405F
:101AE00080050505060000F8102040F803090906E6
:101AF00001FF20404040804040402001090906028B
:101B0000FF8080808080808080800309090601FF3B
:101B100080404040204040408005030306000248CA
:101B2000A890FF41425300504C410063616E6365D1
:101B30006C005072696E742041626F72746564004B
:101B40004D32350050617573696E672E2E2E00720E
:101B50006573756D65004D32340050726F6265209B
:101B60005A204F66667365740046696C2E2044697E
:101B7000612E004F6666004F6E004520696E206D35
:101B80006D5E3300452073746570732F6D6D005A60
:101B90002053746570732F6D6D00592053746570F8
:101BA000732F6D6D00582053746570732F6D6D0029
:101BB000416476616E6365642053657474696E6711
:101BC000730046696C616D656E7400537465707363
:101BD0002F6D6D00436F6E66696775726174696F12
:101BE0006E004F6666004F6E00486967682053704C
:101BF0006565640053572D4D6F64650053746F77AE
:101C0000004465706C6F790053656C662D54657384
:101C10007400526573657400436F6E666967757210
:101C20006174696F6E00526573746F7265204465EC
:101C30006661756C7473004C6F61642053657474D5
:101C4000696E67730053746F7265205365747469AD
:101C50006E677300424C546F7563680050726F6218
:101C600065205A204F666673657400416476616E24
:101C70006365642053657474696E6773004D6169B0
:101C80006E004D3139305335350A4732380A473204
:101C9000390A4D3430300A4D313034533231350A3F
:101CA0004732380A4D313039533231350A4D3432EA
:101CB0003053310A473158313030593130304635A0
:101CC0003030300A47315A300A4D3530300A4D37FE
:101CD000370A4D31313720536574205A204F6666DC
:101CE000736574004D313036533132380A4D33301C
:101CF000334338533231354530550A4D3530300A8B
:101D00004D313137205049442054756E6520446F61
:101D10006E65004D3139305335350A4D313034530D
:101D20003231350A4732380A4732394C310A4731A5
:101D300020583130305931303046353030300A4754
:101D4000315A30004D3530300A4D3131372053652E
:101D50007474696E67732053746F72656400537492
:101D60006F72652053657474696E67730050726595
:101D70007020666F72205A2041646A757374005037
:101D800049442054756E65005365747570004D614B
:101D9000696E003F004261636B0053746F70004DC9
:101DA000323200417474616368204D65646961007A
:101DB0004D3231005072696E742066726F6D204D25
:101DC000656469610052656C65617365204D656489
:101DD0006961004C6576656C696E6720546F6F6C45
:101DE0007300436F6E66696775726174696F6E0028
:101DF00054656D7065726174757265004D6F7469BC
:101E00006F6E00537461727420486F737420507247
:101E1000696E7400526573756D65205072696E74D9
:101E20000054756E650053746F70205072696E7443
:101E3000005061757365205072696E7400496E665A
:101E40006F2053637265656E0043616E6E6F742020
:101E5000656E746572207375626469723A2000025F
:101E6000202E2E000152656672657368004D61690F
:101E70006E002100486F74656E6420746F6F20637C
:101E80006F6C64004261636B0050726F63656564E0
:101E9000004D6F74696F6E0044697361626C6520F8
:101EA0005374657070657273004D383400417574F9
:101EB0006F20486F6D6500473238004D61696E00D4
:101EC0005072656865617420242042656400507218
:101ED0006568656174202420456E640054656D70EA
:101EE0006572617475726500271B231B436F6F6CED
:101EF000646F776E005072656865617420240046D7
:101F0000616E20537065656400426564004E6F7AAF
:101F10007A6C65004D61696E0050726F6265205A7F
:101F2000204F666673657400466C6F770046616E7D
:101F300020537065656400426564004E6F7A7A6C68
:101F400065005370656564004D61696E00486F6D92
:101F5000696E67204661696C6564006F70656E002C
:101F6000545249474745524544003A20007A5F6D34
:101F7000696E00795F6D696E00785F6D696E005201
:101F800065706F7274696E6720656E6473746F70CC
:101F9000207374617475730A0020746F6F206C6F06
:101FA0006E6720657874727573696F6E20707265E4
:101FB00076656E7465640A0020636F6C64206578D2
:101FC00074727573696F6E2070726576656E746574
:101FD000640A00486F6D65202573257325732046BC
:101FE00069727374005761726E696E673A20486F48
:101FF0006D696E672042756D702044697669736FF4
:1020000072203C20310A000202040000000000009F
:1020100000000000000000809D4300009B43000082
:10202000C843000000410000004100000040008063
:102030009D4300009B430000C843000000000000D7
:1020400000000000000053657474696E67732053CC
:10205000746F72656400454550524F4D20496E695A
:102060007469616C697A65640A000000FA430000D3
:10207000FA4300002041000096420000A042000008
:10208000A0420000C8430000BE42DC050000DC05A1
:102090000000640000004B00000024F4D43050C362
:1020A0008E20C2A24017828B7011127A910D816C22
:1020B000D90AA861E108C7586607615143061E4B5B
:1020C0005D05C145A7041A411104093D9803713902
:1020D00031034036DB0265339102D4305402802E46
:1020E0001D02632CEE01752AC501B028A00110273E
:1020F00081018F2564012B244B01E0223401AC21A6
:102100001F018D200D01801FFC00841EED00971D16
:10211000DF00B81CD200E61BC600201BBC00641AFE
:10212000B200B219A8000A19A0006A189900D117C4
:10213000910040178B00B516840031167E00B31550
:1021400079003A157300C7146F0058146A00EE1333
:1021500066008813630025135E00C7125B006C12D3
:10216000570015125400C111510070114F00211178
:102170004B00D61049008D10470046104400021055
:102180004200C00F4000800F3E00420F3C00060F8F
:102190003B00CB0E3800930E37005C0E3500270E47
:1021A0003400F30D3200C10D3100900D3000600D90
:1021B0002E00320D2D00050D2C00D90C2B00AE0C7D
:1021C0002900850C29005C0C2700350C27000E0C1B
:1021D0002600E80B2400C40B2400A00B23007D0B79
:1021E00023005A0B2100390B2100180B2000F80A9C
:1021F0001F00D90A1E00BB0A1E009D0A1D00800A8E
:102200001D00630A1C00470A1B002C0A1B00110A50
:102210001A00F7091A00DD091900C4091900AB09F1
:102220001900920917007B091800630917004C096F
:10223000160036091600200916000A091500F508CF
:102240001500E0081400CC081400B8081400A40815
:102250001400900813007D0812006B081300580842
:102260001200460812003408110023081100120859
:10227000110001081100F0071000E0071000D0075E
:102280001000C0071000B0070F00A1071000910751
:102290000E0083070F0074070F0065070E00570735
:1022A0000E0049070E003B070D002E070E00200709
:1022B0000D0013070D0006070D00F9060C00ED06D2
:1022C0000D00E0060C00D4060C00C8060C00BC068D
:1022D0000C00B0060C00A4060B0099060C008D063D
:1022E0000B0082060B0077060B006C060B006106E4
:1022F0000A0057060B004C060A0042060A00380680
:102300000A002E060A0024060A001A060A00100611
:10231000090007060A00FD050900F4050900EB05A0
:102320000900E2050900D9050900D0050900C70523
:102330000900BE050900B5050800AD050800A505A2
:1023400009009C050800940508008C050800840518
:1023500008007C050800740508006C050700650589
:1023600008005D050700560508004E0507004705F3
:1023700007004005080038050700310507002A0559
:102380000700230507001C050600160507000F05BA
:1023900007000805060002050700FB040600F50417
:1023A0000700EE040600E8040600E2040700DB0470
:1023B0000600D5040600CF040600C9040600C304C5
:1023C0000600BD040600B7040600B1040500AC0415
:1023D0000600A6040600A00405009B040600950460
:1023E0000500900406008A040500850405008004A9
:1023F00006007A04050075040500700405006B04EE
:10240000050066040500610405005C04050057042E
:102410000500520405004D0405004804050043046E
:1024200005003E0404003A040500350405003004AC
:1024300004002C04050027040400230405001E04E6
:1024400004001A04040016040500110404000D041D
:102450000400090405000404040000040400FC0353
:102460000400F8030400F4030400F0030400EC0388
:102470000400E8030400E4030400E0030400DC03B8
:102480000400D8030400D4030400D0030400CC03E8
:102490000400C8030300C503030024F404D9201B6F
:1024A000C40C5C0E9804C4095F0265077101F40551
:1024B000F900FB04B30048048700C1036900580316
:1024C000550003034500BE023A0084023100530266
:1024D0002A002902250004022000E4011C00C80192
:1024E0001900AF0117009801140084011300710155
:1024F00010006101100051010E0043010D00360172
:102500000B002B010B0020010B00150109000C0131
:10251000090003010800FB000800F3000800EB00BD
:102520000700E4000600DE000600D8000600D20026
:102530000600CC000500C7000500C2000500BD0074
:102540000400B9000400B5000400B1000400AD00AF
:102550000400A9000400A5000300A20003009F00DE
:1025600004009B0003009800030095000200930004
:102570000300900003008D0002008B000300880020
:1025800002008600020084000300810002007F0038
:1025900002007D0002007B0002007900020077004B
:1025A0000100760002007400020072000100710058
:1025B00002006F0002006D0001006C0002006A0062
:1025C000010069000200670001006600010065006B
:1025D000010064000200620001006100010060006F
:1025E00001005F0002005D0001005C0001005B0073
:1025F00001005A0001005900010058000100570075
:102600000100560001005500010054000100530074
:102610000000530001005200010051000100500071
:1026200001004F0001004E0000004E0001004D006F
:1026300001004C0001004B0000004B0001004A006B
:102640000100490001004800000048000100470067
:102650000100460000004600010045000000450062
:10266000010044000100430000004300010042005B
:102670000000420001004100000041000100400054
:1026800001003F0000003F0001003E0000003E004E
:1026900001003D0000003D0001003C0000003C0046
:1026A00000003C0001003B0000003B0001003A003C
:1026B00000003A0001003900000039000100380034
:1026C000000038000000380001003700000037002B
:1026D0000100360000003600000036000100350021
:1026E0000000350000003500010034000000340017
:1026F000000034000100330000003300000033000C
:102700000100320000003200000032000100310000
:1027100000003100000031000100300000003000F6
:102720000000300001002F0000002F0000002F00EB
:1027300000002F0001002E0000002E0000002E00DF
:1027400001002D0000002D0000002D0000002D00D4
:1027500001002C0000002C0000002C0000002C00C8
:1027600001002B0000002B0000002B0000002B00BC
:1027700001002A0000002A0000002A0000002A00B0
:1027800001002900000029000000290000002900A4
:102790000000290001002800000028000000280097
:1027A000000028000000280001002700000027008A
:1027B000000027000000270000002700010026007D
:1027C0000000260000002600000026000000260071
:1027D0000100250000002500000025000000250064
:1027E0000000250000002500010024000000240056
:1027F0000000240000002400000024000100230049
:10280000000023000000230000002300000023003C
:10281000000023000000230001002200000022002D
:102820000000220000002200000022000000220020
:102830000100210000002100000021000000210013
:102840000000210000002100000021000100200004
:1028500000002000000020000000200000002000F8
:1028600000002000000020000000200001001F00E8
:1028700000001F0000001F0000001F0000001F00DC
:1028800000001F0000001F0001001E0000001E00CD
:1028900000001E0000001E000000043700001E297A
:1028A0000000511B00005810000010090000CC046B
:1028B0000000780200004101000020436F756E7433
:1028C00020583A0042656400453100450062656465
:1028D000002C2073797374656D2073746F7070654C
:1028E0006421204865617465725F49443A2000485C
:1028F000656174696E67204661696C65640048654E
:102900006174696E67206661696C6564004D313180
:10291000322053687574646F776E001000C902101E
:10292000012C014001220170011801B0010E01F0DB
:102930000104015002FA00B002F0003003E600D0BA
:1029400003DC009004D2007005C800A006BE0000A1
:1029500008B400B009AA00D00BA000600E96006079
:10296000118C000015820020197800C01D6E00A097
:10297000226400B0275A00902C500000314600E03D
:10298000343C0010383200903A2800603C1E00A011
:102990003D1400803E0A00203F00004572723A203C
:1029A0004D415854454D50004D415854454D5020CF
:1029B000747269676765726564004572723A204D8A
:1029C000494E54454D50004D494E54454D5020748C
:1029D000726967676572656400544845524D414CA1
:1029E0002052554E4157415900546865726D616CD3
:1029F0002052756E61776179000A0A0020205A5FC3
:102A00004D494E3A002020595F4D494E3A00202052
:102A1000585F4D494E3A00202F002042403A002096
:102A2000403A007C3C3E5E2B3D3F2F5B5D3B2C2AB9
:102A3000225C0043616E6E6F74206F70656E207350
:102A40007562646972200053442063617264206F70
:102A50006B0A006F70656E526F6F74206661696CEF
:102A600065640A00766F6C756D652E696E697420F9
:102A70006661696C65640A004E6F2053442063618F
:102A800072640A000A4D3234004D3233202573003F
:102A90002E0A006F70656E206661696C65642C207B
:102AA00046696C653A200046696C652073656C6503
:102AB000637465640A002053697A653A20004669A8
:102AC0006C65206F70656E65643A2000454E442049
:102AD000535542524F5554494E450A002220706FBB
:102AE00073002220706172656E743A220053554261
:102AF000524F5554494E452043414C4C207461720D
:102B00006765743A220053756263616C6C204F767E
:102B10006572666C6F7700457863656564656420EF
:102B20006D617820535542524F5554494E452064AB
:102B3000657074683A0057726974696E6720746FC3
:102B40002066696C653A2000667265736800646F80
:102B5000696E67002066696C653A20004E6F7720C9
:102B6000002F6175746F25632E670070012C019032
:102B7000012701B0012201C0011D01F0011801105F
:102B800002130130020E016002090190020401C02B
:102B900002FF000003FA004003F5008003F000D0BC
:102BA00003EB002004E6007004E100E004DC0040D8
:102BB00005D700C005D2004006CD00D006C8008071
:102BC00007C3003008BE00F008B900C009B400B067
:102BD0000AAF00B00BAA00D00CA500000EA0005058
:102BE0000F9B00C01096005012910000148C00C082
:102BF000158700B0178200B0197D00D01B78000047
:102C00001E730040206E0090226900F02464004092
:102C1000275F0090295A00E02B5500102E5000200D
:102C2000304B0010324600E033410090353C00103C
:102C300037370070383200A0392D00B03A2800A094
:102C40003B2300603C1E00103D1900903D14001015
:102C50003E0F00703E0A00C03E0500003F000040ED
:102C60003FFBFF803FF6FFC03FF1FF2020506C612B
:102C70006E6E657242756666657242797465733A06
:102C800020002046726565204D656D6F72793A208F
:102C90000020436F6D70696C65643A20417072204A
:102CA000323820323032320A00204C6173742055A1
:102CB0007064617465643A20323032322D30342DC4
:102CC0003033207C20417574686F723A2054696EED
:102CD000794D616368696E657333440A004D6172B2
:102CE0006C696E20322E302E395F4457372E342EC9
:102CF000360A0020536F66747761726520526573DF
:102D000065740A00205761746368646F67205265B8
:102D10007365740A002042726F776E206F7574209D
:102D200052657365740A002045787465726E616C33
:102D30002052657365740A00506F77657255700A8A
:102D40000073746172740A004739310A47315A3589
:102D50000A4739300A4D38340A4D31303453300A7D
:102D60004D3134305330004D31303031006F6B0015
:102D70006572726F722077726974696E6720746F02
:102D80002066696C650A00446F6E65207361766920
:102D90006E672066696C652E0A004D323900456EFB
:102DA0006473746F7073002553202563202563209E
:102DB000256320256300205A3A0020593A00205804
:102DC0003A00656E6473746F7073206869743A209A
:102DD0000000002100240027002A00000022002516
:102DE0000028002B000000200023002600290002FC
:102DF00002020202020202040404040404040403A2
:102E000003030303030303010101010101010101A4
:102E100002040810204080010204081020408001B4
:102E200002040810204080804020100804020100A5
:102E30004D6F76652025736D6D004D6F7665203082
:102E40002E316D6D004D6F766520316D6D004D6FCB
:102E500076652031306D6D004D6F76652041786963
:102E600073004D6F766520457874727564657200E5
:102E70004D6F7665205A004D6F76652059004D6F75
:102E800076652058005072696E742066726F6D20EE
:102E90004D6564696100FFFFFF50726F62696E6784
:102EA000204661696C65640A0050726F62696E67E2
:102EB000204661696C656400205A3A200020593A26
:102EC000200042656420583A2000220A00556E6BAB
:102ED0006E6F776E20636F6D6D616E643A202200B5
:102EE0004572726F722077726974696E6720746FB1
:102EF00020454550524F4D210A0020746F6F206CC1
:102F00006F6E6720657874727573696F6E2070726A
:102F10006576656E7465640A0020636F6C64206575
:102F20007874727573696F6E2070726576656E74F1
:102F300065640A0020453A00205A3A0020593A00B8
:102F4000583A006F6B0A00526573656E643A200050
:102F5000000000010200090A000000000403080745
:102F60000000000000000000000000000000000061
:102F700053755065522043522D31302052656164A3
:102F8000792E005072696E74696E672E2E2E005075
:102F900072696E7420506175736564002F2F6163D0
:102FA00074696F6E3A0056E683ED11241FBECFEFB1
:102FB000D0E4DEBFCDBF84B78093C01814BE0FB677
:102FC000F894A895809160008861809360001092C9
:102FD00060000FBE12E0A0E0B1E0E0E5F7EF01E035
:102FE0000BBF02C007900D92A23DB107D9F728E1AF
:102FF000A2EDB2E001C01D92A03CB207E1F717E1DB
:10300000C4EDD7E104C02197FE010E9412F9C33D2F
:10301000D107C9F70E9445E70C949BFB0C94000074
:10302000FC0184910895FC0180810895009751F07E
:10303000FC0180E09191992331F0907C9038D1F39C
:103040008F5FF8CF80E00895119800C087FD43C0DE
:10305000419800C0119A00C000C0119800C086FDC0
:1030600046C0419800C0119A00C000C0119800C02D
:1030700085FD3BC0419800C0119A00C000C0119866
:1030800000C084FD30C0419800C0119A00C000C04B
:10309000119800C083FD25C0419800C0119A00C05E
:1030A00000C0119800C082FD1AC0419800C0119A5A
:1030B00000C000C0119800C081FD0FC0419800C041
:1030C000119A00C000C0119800C0419800C0119A28
:1030D00000C000C00895419ABCCF419AF0CF419AF8
:1030E000E5CF419ADACF419ACFCF419AC4CF419AE6
:1030F000B9CF90E080E00895CF93DF93C091170798
:10310000D091180781E0CE31D105E4F020E030E025
:1031100040E05FE3609113077091140780911507F9
:10312000909116070E941CF90E9411FA6C1B7D0BEE
:1031300077FF03C071956195710981E06330710576
:103140000CF080E0DF91CF910895CF93DF93DB0106
:10315000F9019C919130C1F0943080F094509C938F
:103160008830D1F480819181009771F0019791832B
:103170008083480F591FEA01188206C08C3539F444
:103180009C5F9C93943041F4DF91CF9108958B33F1
:1031900039F781E08C93F8CF20813181B9016F5FDD
:1031A0007F4F71836083420F531FEA0188838081C0
:1031B00091818F3591056CF7E7CF0F931F9381E0D5
:1031C00000911A1810911B1820911C1830911D188D
:1031D000409116185091171860911818709119188D
:1031E000041715072607370708F480E01F910F9191
:1031F000089520912504833021F425FD0CC024FD81
:103200000CC030E0A90102C0559547958A95E2F7B8
:10321000CA018170089581E0089580E00895082E24
:10322000000C990BFC01E151F24DE491EE2391F079
:10323000F0E0EE0FFF1FEB51F24DA591B4912C91F0
:10324000815F914DFC018491282381E090E021F47D
:1032500080E0089580E090E00895082E000C990B1E
:10326000FC01E151F24DE491F0E0EE0FFF1FEF524F
:10327000F24DA591B4912C91815F914DFC01849107
:10328000822391E009F490E0892F0895CF93C1E063
:1032900020E030E0A9016091B1047091B204809106
:1032A000B3049091B4040E9425F2811101C0C0E0E2
:1032B0008C2FCF910895E8E9F3E09491981739F0B5
:1032C000319693E0EE3AF907C1F780E0089581E086
:1032D0000895CF93DF93C0911707D09118072097D7
:1032E00029F160911307709114078091150790914F
:1032F00016070E9411FA6E5F7F4F24976C177D07A7
:10330000ACF470932505609324050E94A6D4605EFA
:1033100070448D4F9F4F60932605709327058093CF
:10332000280590932905DF91CF91089510922605E5
:10333000109227051092280510922905F4CFBF920C
:10334000CF92DF92EF92FF920F931F93CF93DF9371
:103350006B01E9014A3009F4E1C0453109F089C047
:10336000DB011296ED91FC911281C681D781139AEF
:1033700000C0000086E290E00197F0F7012F02956F
:10338000007F20E1B22EB10E88EF0E94241800C009
:10339000000086E290E00197F0F7103208F0A8C034
:1033A000812F807780680E942418802F0E94241823
:1033B00000C0000086E290E00197F0F780E80E94EC
:1033C000241880E00E94241800C0000086E290E0EB
:1033D0000197F0F78AEF0E94241800C0000086E2EF
:1033E00090E00197F0F77E01B0E1EB0EF11C8881CF
:1033F000807F0E94241889918295807F0E942418E2
:10340000CE15DF05A1F700C0000086E290E001972D
:10341000F0F71F5F005F1B11B7CF1398D60112960C
:10342000ED91FC9180819281980F92832181921776
:1034300008F0BAC194819F5F94839381890F8217AA
:1034400010F08FEF820F8383458150E0440F551FAA
:1034500070E060E0868197810E9447FB81E0DF9108
:10346000CF911F910F91FF90EF90DF90CF90BF9081
:103470000895FB0102811381423309F497C108F4D6
:103480009FC1463409F48CC1473409F494C14B33CD
:1034900029F789812B81D80112967C911297139676
:1034A0003C91213009F4D1C1233009F0B2C148EF79
:1034B000480F582F91E0341708F490E031E054178A
:1034C00008F030E0492F432B61E0571708F460E023
:1034D000462319F4932309F4C1CFFA8030E0F901AF
:1034E000E658FE4FD0802A583E4FF901E080AAC12D
:1034F00080EE810F8068807F0E942418812F829542
:10350000807F0E94241800C0000086E290E00197AE
:10351000F0F780E80E94241880E854CF0B9A1398A3
:10352000399A4198099A119A139A00C0000086E2CC
:1035300090E00197F0F788E790E0CEE9DFE0FE0148
:103540003197F1F70197D9F788EF0E94241800C04E
:10355000000086E290E00197F0F780E20E942418D4
:1035600080E00E94241800C0000086E290E00197ED
:10357000F0F780E00E94241880E80E94241800C020
:10358000000086E290E00197F0F780E00E942418A6
:1035900080E10E94241800C0000086E290E00197BC
:1035A000F0F7CE010197F1F7CE010197F1F7CE01C7
:1035B0000197F1F7CE010197F1F7CE010197F1F7ED
:1035C000CE010197F1F7CE010197F1F7CE010197F6
:1035D000F1F7CE010197F1F7CE010197F1F7CE0196
:1035E0000197F1F7CE010197F1F7CE010197F1F7BD
:1035F000CE010197F1F72197F1F780E20E9424189C
:1036000080E40E94241800C0000086E290E0019748
:10361000F0F780E20E94241880E60E94241800C07F
:10362000000086E290E00197F0F7D0E0C0E08C2F38
:10363000807780680E9424188D2F0E94241800C073
:10364000000086E290E00197F0F780E80E942418DD
:1036500080E00E94241800C0000086E290E00197FC
:10366000F0F78AEF0E94241800C0000086E290E084
:103670000197F0F780E2119800C0419800C0119ABC
:1036800000C000C0119800C0419800C0119A00C04D
:1036900000C0119800C0419800C0119A00C000C03D
:1036A000119800C0419800C0119A00C000C0119844
:1036B00000C0419800C0119A00C000C0119800C01D
:1036C000419800C0119A00C000C0119800C04198F4
:1036D00000C0119A00C000C0119800C0419800C0FD
:1036E000119A00C000C0119800C0419800C0119A02
:1036F00000C000C0119800C0419800C0119A00C0DD
:1037000000C0119800C0419800C0119A00C000C0CC
:10371000119800C0419800C0119A00C000C01198D3
:1037200000C0419800C0119A00C000C0119800C0AC
:10373000419800C0119A00C000C0119800C0419883
:1037400000C0119A00C000C0119800C0419800C08C
:10375000119A00C000C000C00000E6E2F0E031971E
:10376000F0F7815009F087CF88EF0E94241800C03D
:10377000000086E290E00197F0F7CF5FD05FC032A3
:1037800009F055CF80E00E94241880EC0E94241894
:1037900000C0000086E290E00197F0F713985ECE3B
:1037A000F801858188835ACE80E059CEB901C801DD
:1037B0000E9464D553CED80111968C9188834ECE49
:1037C000443191F0473109F049CE1882D801129660
:1037D0008C911297898315968C91159781508A83C5
:1037E00013968C918B833ACED80115964C911597F0
:1037F00050E0440F551F70E060E016968D919C914B
:103800000E9447FBF80112828081815083831482D9
:1038100025CE381708F422CE871708F41FCEFA8079
:10382000E12CD12C243070F459CEBE01C8010E9485
:1038300064D5898198819D0D98838E0D8983FF0CB5
:1038400009F40CCEF7FEF6CFF0CF58E0580F482F12
:1038500031CE20912D04022E000C330B821713065B
:1038600041F080932D0467EF75E18AEC96E10C94AA
:1038700034D90895EF92FF920F931F93CF93DF9364
:10388000EC018B017A018A859B858617970731F0B9
:10389000888199810E9434D91B870A87B701888162
:1038A00099810E94FBCF2E813F81820F932F911D22
:1038B0009F838E8390E080E0DF91CF911F910F91E5
:1038C000FF90EF9008959F92AF92BF92CF92DF92B8
:1038D000EF92FF920F931F93CF93DF93EC018B0135
:1038E000942EA52E8A859B858617970731F08881AF
:1038F00099810E9434D91B870A878885998501960A
:1039000049F5BC800A818E81080FC880D980D60114
:103910005596ED91FC91C6010995B80EE92CFA2C4B
:1039200010E0F70121917F01211127C08E819F8135
:10393000810F911D9F838E8390E080E0DF91CF9176
:103940001F910F91FF90EF90DF90CF90BF90AF90BD
:103950009F9008950E811F81692D7A2D888199810C
:103960000E94FBCF800F912F911D28853985281744
:10397000390738F681E090E0E1CF4B2D602FC6018A
:103980000E948CD9080F180FCCCFDF92EF92FF92D4
:103990000F931F93CF93DF93EC01D62E1CAD0BAD8D
:1039A0007C0184E0E80EF11CE98DFA8DC7010995D0
:1039B000412F480F2D2D602FC7010E948CD99BAD40
:1039C000890F8BAF81E090E0DF91CF911F910F9134
:1039D000FF90EF90DF9008952F923F924F925F9269
:1039E0006F927F928F929F92AF92BF92CF92DF920F
:1039F000EF92FF920F931F93CF93DF93162F072F12
:103A0000242EFC0180809180A280B380C501B40186
:103A100020E13EE040E050E00E946DF8E22ED32E1F
:103A2000C22FD32F8CE3482E512C612C712CC50151
:103A3000B401A30192010E946DF8C62E372ECA016F
:103A4000B901A30192010E946DF8F62E772E222073
:103A500059F1C501B40120E831E541E050E00E9490
:103A60006DF869017F92FF92CE0168E170E00E94DB
:103A7000EAF89F938F933F932F938FE195E19F9364
:103A80008F930F931F930E94BCF1EDB7FEB73A9648
:103A90000FB6F894FEBF0FBEEDBF88E0FAE0CF1678
:103AA000D104C8F089E017C0209741F53F92CF922A
:103AB0007F936F9383E195E19F938F930F931F9370
:103AC0000E94BCF18DB79EB708960FB6F8949EBFC2
:103AD0000FBE8DBF85E0DF91CF911F910F91FF90B9
:103AE000EF90DF90CF90BF90AF909F908F907F909E
:103AF0006F905F904F903F902F900895C436D105FE
:103B0000A8F47F936F93DF92EF9287E095E19F9304
:103B10008F930F931F930E94BCF1EDB7FEB73896B9
:103B20000FB6F894FEBF0FBEEDBFD4CF7F936F9357
:103B3000DF92EF928DEF94E19F938F930F931F93FA
:103B40000E94BCF18DB79EB708960FB6F8949EBF41
:103B50000FBE8DBF86E0BFCFBC01990F880B990BBC
:103B60000C9448C9EF92FF920F931F93CF937C015F
:103B70000091280410912904C0E0F701EC0FF11D19
:103B80006081662351F0062E000C770BC8010E945D
:103B900061FB892B49F4CF5FF0CF80E0CF911F917B
:103BA0000F91FF90EF90089581E0F8CF682F880F74
:103BB000770B80912804909129040E9461FBFC01FD
:103BC00081E0309709F480E0309781F0918120ED19
:103BD000290F2A3030F09E3251F4928190539A305E
:103BE00098F43196F0932004E0931F0408959D32D9
:103BF00011F09B3249F4928120ED290F2A3088F38D
:103C00009E3211F49381EACFF0E0E0E0EBCFCF9267
:103C1000DF92FF920F931F93CF93DF9385E40E946F
:103C2000D61D68E0F62E811101C0F12C0091280408
:103C30001091290468E570E0C8010E9461FBEC0165
:103C400069E570E0C8010E9461FB6C016AE570E003
:103C5000C8010E9461FB21E030E0CD2811F430E082
:103C600020E0220F331F41E050E0892B11F450E097
:103C700040E0CA01880F991F880F991F822B21E00D
:103C800030E0CD2B09F420E0822B8F29DF91CF91FA
:103C90001F910F91FF90DF90CF9008950E94D61D45
:103CA000882341F081E020911F0430912004232BD0
:103CB00009F480E0089583EF96E00C94CBC6CF938F
:103CC000DF9300D000D0CDB7DEB780E090E0A0EA6F
:103CD000B0E489839A83AB83BC8361E0CE01019613
:103CE0000E948A880F900F900F900F90DF91CF91D4
:103CF000089580911F0490912004009731F04AE0CC
:103D000050E070E060E00C9447F060E070E0CB01C0
:103D1000089580911F0490912004009731F04AE0AB
:103D200050E070E060E00C9419EF60E070E0CB01CF
:103D300008950E94891E97FD0CC00E94891E6F3F46
:103D400071058105910509F034F40E94891E862FC2
:103D5000089580E008958FEF0895CF93C62F0E94B5
:103D60004E1E882319F0CF910C94991E8C2FCF9161
:103D7000089580911F0490912004892B41F00E94A6
:103D8000991E91E0811101C090E0892F089591E082
:103D9000FCCFCF93DF93C82FD62F0E944E1E8823CF
:103DA00021F0DF91CF910C94B91E8C2F0E94D61D6B
:103DB000811101C08D2FDF91CF9108950E94891E3E
:103DC000CB010895CF93DF93EB010E944E1E882311
:103DD00021F0DF91CF910C94DE1ECE01DF91CF91C7
:103DE00008950F931F93CF9380911F049091200407
:103DF0000097E9F0FC018F01C1912C2F2F7D81F0FC
:103E0000C53411F0C536B9F7F801108270E060E0F2
:103E10000E94BBEDF801C083CF911F910F910895CF
:103E200070E060E0CF911F910F910C94BBED60E0CA
:103E300070E0CB01F1CFCF92DF92EF92FF926A0157
:103E40007B010E944E1E882331F0FF90EF90DF909F
:103E5000CF900C94F11EC701B601FF90EF90DF9058
:103E6000CF900895CF92DF92EF92FF92CF93C82F19
:103E70000E94A6D46B017C0124EA30E74DE75FE3A2
:103E800060911A0170911B0180911C0190911D019C
:103E90000E9425F287FD18C08AEF90E0A0E0B0E014
:103EA0008C0D9D1DAE1DBF1D8093690490936A0407
:103EB000A0936B04B0936C04C0931801CF91FF9052
:103EC000EF90DF90CF90089580E090E0DC01E8CFA4
:103ED000FC01A081B1811C92A281B3818C918F5F82
:103EE0008C930280F381E02D90818CE0989F800D6F
:103EF0001124E6ECF6E113AE84AF0895CF938091E0
:103F00003004811154C010920117109202171092C0
:103F100003171092CF161092CE161092D11610924F
:103F2000D0161092D31681E08093D21682E280934D
:103F3000D4161092D9161092D816EDEEF6E12BEFAA
:103F400036E18FEF81932E173F07E1F7C1E0C09371
:103F5000EA1629EA38EB3093E0162093DF16C09377
:103F6000E1161092E2161092E31690E49093E41694
:103F70001092E51628EA38EB3093FC162093FB16D6
:103F800020E131E03093CD162093CC169EE1909342
:103F9000F11691E19093F2169CE19093EF168093C5
:103FA000EE168093ED160E94C9D5C093300481E0CF
:103FB00080932F048EE395E1909311168093101651
:103FC000109213161092121653985B9A52985A9A9E
:103FD0003898409A0E948FB410927904CF910C9433
:103FE0000AC8FC0180E0309749F09491992331F0A0
:103FF000907C903809F08F5F3196F7CF0895AF929B
:10400000BF92CF92DF92EF92FF920F931F93CF93C5
:10401000DF93EC015B018A01FB01099587FD16C066
:10402000C82ED12CF12CE12C2196F801C082D1822E
:10403000E282F382CE01DF91CF911F910F91FF9029
:10404000EF90DF90CF90BF90AF900895982F907E23
:10405000903CA9F48F7190E0B0E0A0E06C017D018C
:1040600056E0CC0CDD1CEE1CFF1C5A95D1F7CE019E
:104070000196F50109958F73C82A2296D6CF982FFD
:10408000907F903E11F58F7090E0B0E0A0E06C0161
:104090007D0136E0CC0CDD1CEE1CFF1C3A95D1F7FF
:1040A000CE010196F50109958F73C82A46E0CC0C24
:1040B000DD1CEE1CFF1C4A95D1F7CE010296F501DE
:1040C00009958F73C82A2396B0CF982F987F903F79
:1040D00079F5877090E0B0E0A0E06C017D0186E0AA
:1040E000CC0CDD1CEE1CFF1C8A95D1F7CE0101968D
:1040F000F50109958F73C82A96E0CC0CDD1CEE1CE7
:10410000FF1C9A95D1F7CE010296F50109958F73A0
:10411000C82A26E0CC0CDD1CEE1CFF1C2A95D1F72A
:10412000CE010396F50109958F73C82A24967DCF99
:10413000982F907C903841F4807C803869F42196E7
:10414000CE01F5010995F8CF8E7F8D3F28F021969D
:10415000CE01F5010995F8CFC12CD12C760165CFA0
:104160009CE0899F802D112491E0980F90932E045C
:104170002CE0280F2093540730E02E5F3F4F4091F2
:10418000FE164217130619F014F080E008952091EE
:1041900000179217D0F7662341F08E5F0E94F5D684
:1041A000809154078E5F0E94F5D6809154079091BC
:1041B000FE16891750F32091001790912E042917AD
:1041C00020F3109201178093021781E00895CF9297
:1041D000DF92EF92FF920F931F93CF93DF93CDB7B0
:1041E000DEB72C970FB6F894DEBF0FBECDBF6F3F82
:1041F00071058105910509F0D0F486EC96E10E94E5
:10420000C51CE091CE16F091CF163196849190E0C6
:104210002C960FB6F894DEBF0FBECDBFDF91CF91C5
:104220001F910F91FF90EF90DF90CF900895F09045
:104230000117E090021720912F0421110FC04DEDBE
:1042400054E16E2D8F2D0E94F8D990E080E0F80E99
:10425000F0920117E09202179927DACFC090CE169C
:10426000D090CF162AEC36E13A8329832F2D30E007
:104270003C832B832E2D30E03E832D8318861F82B6
:104280002FEF3FEF3A8729871C861B8603E61CE148
:104290009E012F5F3F4FAB01BC01C6010E94DAC6F1
:1042A000B6018AEC96E10E9434D98F819885CFCFF0
:1042B000CF92DF92EF92FF920F931F93CF93DF93F2
:1042C000CDB7DEB72C970FB6F894DEBF0FBECDBFCB
:1042D000F0900117E090021720912F0421111DC0CA
:1042E0004DEB54E16E2D8F2D0E94F8D990E080E0C7
:1042F000F80EF0920117E092021799272C960FB64C
:10430000F894DEBF0FBECDBFDF91CF911F910F910B
:10431000FF90EF90DF90CF900895C090CE16D09090
:10432000CF162AEC36E13A8329832F2D30E03C83E7
:104330002B832E2D30E03E832D8318861F827A87B3
:1043400069871C861B8603E61CE19E012F5F3F4F99
:1043500040E158E1BC01C6010E949EC7B6018AEC4B
:1043600096E10E9434D98F819885C2CF8F929F9217
:10437000AF92BF92CF92DF92EF92FF920F931F9373
:10438000CF93DF9300D000D0CDB7DEB77C01062FEE
:104390005A01122F862F660F990B9C012E583E4F03
:1043A000690186E0882E912C11160CF040C0AE01F8
:1043B0004F5F5F4F60E178E1C7010E94FF1F7C0102
:1043C00069817A818B819C816115710581059105D7
:1043D00071F16D3371058105910509F462C06E3785
:1043E00071058105910509F45CC06A32710581058A
:1043F000910579F507FF12C084E395E10E3F11F0B6
:1044000080E395E136E01302B00111240E945821A7
:1044100066E070E00E94FEF8161B73C065E470E071
:1044200080E090E00E94E7201150E9F510E0812F34
:104430000F900F900F900F90DF91CF911F910F91E0
:10444000FF90EF90DF90CF90BF90AF909F908F90B4
:104450000895643271058105910579F4A114B104C0
:10446000E1F0E6E01E02B0011124C5010E945821CE
:10447000B4010E94FEF8161B97CF603471058105C8
:10448000910559F41150F6016081062E000C770B4E
:10449000880B990B0E94E72087CF0E94E7201150DC
:1044A00083CF07FDA9CF61E089819A81AB81BC816F
:1044B000CD97A105B10509F460E0600F6A30ACF05A
:1044C0001150862F6AE00E94DCF8092F682F880FB0
:1044D000770B605D7F4F072E000C880B990B0E94B5
:1044E000E720112309F4A2CF602F062E000C770BD2
:1044F000605D7F4F072E000C880B990B0E94E72010
:104500001150112309F492CF86E01802B001112452
:10451000C7010E94582166E070E00E94FEF8161B59
:1045200086CFCF92DF92EF92FF920F931F93CF939C
:10453000DF93CDB7DEB72C970FB6F894DEBF0FBE72
:10454000CDBFF0900117E090021720912F042111A8
:104550001DC04DE954E16E2D8F2D0E94F8D990E0D9
:1045600080E0F80EF0920117E092021799272C963E
:104570000FB6F894DEBF0FBECDBFDF91CF911F9174
:104580000F91FF90EF90DF90CF900895C090CE16DE
:10459000D090CF162AEC36E13A8329832F2D30E0D4
:1045A0003C832B832E2D30E03E832D8318861F8283
:1045B0007A8769871C861B8603E61CE19E012F5FB4
:1045C0003F4F43E158E1BC01C6010E949EC7B601BE
:1045D0008AEC96E10E9434D98F819885C2CF6FEF23
:1045E0007FEF0C949122AF92BF92CF92DF92EF9225
:1045F000FF920F931F93CF93DF935C016B010E9497
:10460000F11FE82EC6010E941618F12C03E110E0FC
:10461000081B1109C5E20E151F050CF4CFE18C2F04
:1046200090E09C012E5F3F4F4091FE16421713060B
:1046300009F0CCF5099720910017281719069CF16D
:1046400040915607509157076091550710920117F6
:10465000C093021725E1C5010E94B621D1E0C11423
:10466000D104B1F06AE370E080E090E00E94E720BE
:104670000E151F05D4F4C45F8091FE16C81740F0D4
:10468000209100174C2F4950550B241715067CF428
:10469000DF91CF911F910F91FF90EF90DF90CF901E
:1046A000BF90AF900895D0E0DACFDD2389F3802F5B
:1046B000880F080F000F00930117C093021760E2E4
:1046C00070E080E090E00E94E720C601DF91CF918A
:1046D0001F910F91FF90EF90DF90CF90BF90AF9020
:1046E0000C94EF228F929F92AF92BF92CF92DF9263
:1046F000EF92FF920F931F93CF93DF93CDB7DEB767
:104700002C970FB6F894DEBF0FBECDBF982F862F23
:104710005A017901D02E692F0E94B020882309F414
:1047200089C010912F04C701002381F10E94F11F5D
:10473000C82E8090CE169090CF16111143C01FEF57
:1047400023E12C1940915607509157076091550766
:10475000C5010E94B621CC2009F46CC0B6E08B9F45
:10476000500111246AE370E080E090E00E94E720AD
:1047700057E0A516B10408F442C060E270E080E0A2
:1047800090E00E94E720A81AB90AF2CF0E941618FA
:10479000C82E8090CE169090CF16112381F2FE0184
:1047A00033968AE0DF011D928A95E9F78AEC96E15B
:1047B0009A8389830AE31CE19E012F5F3F4F43E107
:1047C00058E112C0FE0133968AE0DF011D928A95FE
:1047D000E9F78AEC96E19A8389830AE31CE19E015A
:1047E0002F5F3F4F40E158E1B701C4010E949EC7CF
:1047F000B4018AEC96E10E9434D91F81A1CF409187
:104800005407212F30E0A6E0CA9EC00111242E5F7C
:104810003F4F281739070CF49C0180E8821B8093D6
:10482000011740930217DD20C1F06FEF7FEFC70142
:104830000E9458212C960FB6F894DEBF0FBECDBF54
:10484000DF91CF911F910F91FF90EF90DF90CF906C
:10485000BF90AF909F908F900895C7010E94EF2264
:10486000E9CF0C9448C90F931F93CF93109227045C
:10487000109226042FE320932C0410922B04109204
:104880002A049C01F90190812F5F3F4F9032D1F3B0
:104890009E34C9F4818190ED980F9A3020F08D32CA
:1048A00011F08B3281F432969F012F5F3F4F808150
:1048B00080538A3008F468C09F012F5F3F4F80818A
:1048C000803209F463C0F0936307E09362078F01BD
:1048D0000F5F1F4FC0816AE270E0C8010E9461FB58
:1048E000009731F0FC01319780818032E1F3118231
:1048F000CD3429F0C43519F0C73409F041C0F801AE
:1049000080810F5F1F4F8032D1F380538A30C0F512
:10491000C0932C0430E020E06AE0AF014F5F5F4FAE
:10492000629FC001639F900D11249C0120533109A7
:104930008081280F311D87FD3A95FA0180818053CF
:104940008A3058F330932B0420932A04CA01FC01C7
:10495000019640814032D9F3F0932904E093280472
:10496000CD3401F52E31310539F090F42731310580
:1049700019F02C313105B1F4F0932704E0932604AB
:10498000CF911F910F910895F9018ECFF90194CF26
:104990002537310538F02737310570F3203A83E0A9
:1049A000380751F350E040E0CF0101966081662363
:1049B00009F45AC0613291F4CD3481F420323105CA
:1049C00069F4909327048093260463E270E00E94C8
:1049D00061FB0097A9F2FC011082D2CFFC01DF013C
:1049E0008D91803271F090ED980F9A3008F18E32EF
:1049F00051F4918190539A30D8F041155105E1F46A
:104A000014C0FD01ECCF8D3211F08B3259F491813D
:104A100060ED690F6A3060F09E3221F4928190530C
:104A20009A3030F04115510519F4AF014150510948
:104A300081548A3108F4B8CFDF01FD018D918823BC
:104A400009F4B2CF90ED980F9A30B8F393ED980F28
:104A5000923098F38B3289F3CF01019660816032F6
:104A600009F0A2CFFC01F8CF50932704409326040D
:104A700087CFFC01659175918591949108958091FE
:104A80005907882319F080E00E94318F80E0089553
:104A9000CF93C82F882321F00E9446198823D9F08C
:104AA0008091A7048C17B9F00E94007B8091A70425
:104AB000882349F08AE99CE00E943B7B1092A7047E
:104AC000CF910C94628981E08093A7048AE99CE0ED
:104AD0000E94237BF5CFCF9108954F925F926F9202
:104AE0007F928F929F92AF92BF92CF92DF92EF927E
:104AF000FF920F931F93CF93DF93EC012091A904B2
:104B00003091AA044091AB045091AC046881798142
:104B10008A819B810E941BF96B017C012091AD046D
:104B20003091AE044091AF045091B0046C817D810E
:104B30008E819F810E941BF94B015C01A7019601A8
:104B400060911704709118048091190490911A04CF
:104B50000E9425F2882309F450C0C0921704D09215
:104B60001804E0921904F0921A0420910F04309175
:104B700010044091110450911204C701B6010E9423
:104B80008BF22B013C010E9447FA6B017C0120E073
:104B900030E0A9010E9425F287FD70C020E030E0DE
:104BA00040E450E4C701B6010E949FFA18162CF4A5
:104BB000C12CD12CC0E4EC2EFE2CA7019601C30120
:104BC000B2010E941BF9609307047093080480935C
:104BD000090490930A04C701B6010E9411FA609378
:104BE0000504062E000C770B6F5F7F4F6430710554
:104BF00014F064E070E060930304D091010410911C
:104C00000504A501940160911B0470911C0480911E
:104C10001D0490911E040E9425F2811133C0D1130E
:104C200081C02091E9033091EA034091EB03509158
:104C3000EC0360910704709108048091090490913D
:104C40000A040E948BF22091ED033091EE03409113
:104C5000EF035091F0030E941CF9DF91CF911F9157
:104C60000F91FF90EF90DF90CF90BF90AF909F900B
:104C70008F907F906F905F904F900895C12CD12CB2
:104C800076019BCF80921B0490921C04A0921D047D
:104C9000B0921E0420911304309114044091150425
:104CA00050911604C501B4010E948BF24B015C01C6
:104CB0000E9447FA6B017C0120E030E0A9010E94CC
:104CC00025F287FDF3C020E030E040E450E4C70166
:104CD000B6010E949FFA18162CF4C12CD12CB0E416
:104CE000EB2EFE2CA7019601C501B4010E941BF911
:104CF00060930B0470930C0480930D0490930E0446
:104D0000C701B6010E9411FA60930604062E000C3A
:104D1000770B6F5F7F4F6430710514F064E070E0D3
:104D200060930404C0910604D11305C0809102046D
:104D30008C1709F470C0809105049091060490933B
:104D40000204809301040C2E000CDD0B25E01203FD
:104D5000C0011124FC01EC0FFD1FEE0FFF1FEE0F31
:104D6000FF1FE254FB4F2081318142815381209308
:104D7000FD033093FE034093FF0350930004009122
:104D80000404002E000C110BFC01E00FF11FEE0FCC
:104D9000FF1FEE0FFF1FE254FB4F60817181828184
:104DA00093810E941BF96093F9037093FA03809337
:104DB000FB039093FC032091030435E02303F001EF
:104DC0001124CE0FDF1FCC0FDD1FCC0FDD1FC2540F
:104DD000DB4F288139814A815B812093F503309331
:104DE000F6034093F7035093F803E00FF11FEE0F23
:104DF000FF1FEE0FFF1FE254FB4F60817181828124
:104E000093810E941BF96093F1037093F2038093E6
:104E1000F3039093F40380900B0490900C04A09003
:104E20000D04B0900E042091F9033091FA034091E3
:104E3000FB035091FC03C501B4010E948BF2209149
:104E4000FD033091FE034091FF03509100040E9446
:104E50001CF96B017C01C092ED03D092EE03E0924D
:104E6000EF03F092F0032091F1033091F2034091AF
:104E7000F3035091F403C501B4010E948BF2209119
:104E8000F5033091F6034091F7035091F8030E9427
:104E90001CF9A70196010E941BF96093E903709326
:104EA000EA038093EB039093EC03BBCEC12CD12C8F
:104EB000760118CFE7E1F4E080EF9FEFA9E7B4ECCB
:104EC00084839583A683B78380839183A283B383EE
:104ED000E1E0F4E08DE98183808308958F929F92D1
:104EE000AF92BF92CF92DF92EF92FF92FC0198E0D7
:104EF000A1EBB4E001900D929A95E1F788E0FB01F7
:104F0000A9EAB4E001900D928A95E1F7C090B1044E
:104F1000D090B204E090B304F090B40420E030E00C
:104F2000A901C701B6010E9425F28823E1F1A7017A
:104F3000960160E070E080E89FE30E949FF96B01BA
:104F40007C018090B5049090B604A090B704B09016
:104F5000B80420E030E0A901C501B4010E9425F2A7
:104F6000882329F1A501940160E070E080E89FE3C7
:104F70000E949FF9C0920F04D0921004E092110495
:104F8000F092120460931304709314048093150438
:104F900090931604FF90EF90DF90CF90BF90AF906A
:104FA0009F908F900895C12CD12C7601CACF60E0DC
:104FB00070E0CB01DFCF1092AD041092AE041092DE
:104FC000AF041092B0041092A9041092AA04109297
:104FD000AB041092AC041092B5041092B604109277
:104FE000B7041092B8041092B1041092B204109257
:104FF000B3041092B404EEEBF4E022E235E080E07A
:1050000090E0A0ECBFE780839183A283B383848385
:105010009583A683B78380879187A287B387848788
:105020009587A687B787808B918BA28BB38B74965D
:105030002E173F0741F70895EFE6F0E08081826088
:10504000808308954F925F926F927F928F929F928A
:10505000AF92BF92CF92DF92EF92FF92CF93DF9306
:1050600000D000D0CDB7DEB70E94A6D46B017C0182
:10507000809118018F3FC1F10E94A6D480906904ED
:1050800090906A04A0906B04B0906C046819790940
:105090008A099B0997FD28C08091B2169091B3169A
:1050A0008F5F8F70891701F1E0911801E43008F0EB
:1050B000DCC024E0E29FF0011124E258FE4F808121
:1050C0009181A281B38189839A83AB83BC8320E0E1
:1050D00030E0A901BE016F5F7F4F8AE99CE00E942A
:1050E000EBCA8FEF809318010E948FB480917A04ED
:1050F00082FFC4C08091780481111DC091E090931B
:10510000780480917F04892780933C0710927F0464
:1051100083E08093550110927A040E94A6D46C50CB
:105120007E4F8F4F9F4F60937B0470937C048093DE
:105130007D0490937E048091740490917504A091F5
:105140007604B0917704A7019601281B390B4A0B0E
:105150005B0BDA01C901B7FF05C080918204882387
:1051600009F4DCC1D701C6018C599F4FAF4FBF4F27
:105170008093740490937504A0937604B09377049D
:1051800060917904062E000C770B77FF03C07195B0
:10519000619571099091790480917304981371C09D
:1051A000633008F06EC01092790480917904809386
:1051B0007304643008F075C080913C078111F8C019
:1051C0008091C4169091C51687509B4241F48091FE
:1051D0001901882309F403C18150809319010E94A9
:1051E000297D80908A0790908B07A0908C07B090C3
:1051F0008D0781110E941C28D501C4013AE0B695A3
:10520000A795979587953A95D1F7009741E0A40720
:10521000B10520F08FEF9FEFA0E0B0E09695879565
:10522000209155012111EDC0309182043111A2C1AC
:105230008091C4169091C51687509B4209F481C194
:1052400080913D0781117DC180916F049091700420
:10525000A0917104B0917204C81AD90AEA0AFB0A33
:10526000F7FC7DC10E940C9D7AC1809156019091FE
:105270005701A0915801B091590125CF109278049F
:105280005ACF633009F091CF8091790487FD07C030
:1052900081E0880F880F8093790464E086CF8FEFD8
:1052A000F8CF80915307812C912C5401839488234B
:1052B00009F459C080904F0790905007A090510773
:1052C000B090520781149104A104B10409F482C082
:1052D00070E090E080E00E942AF220E030E040E8B8
:1052E0005EE30E948BF22B013C01C701B6016819F5
:1052F00079098A099B090E942AF29B01AC01C3012A
:10530000B2010E949FF920E030E04AE754E40E9495
:105310008BF22B013C0120E030E042E053E40E949C
:105320009FFAE4E68E2E912CA12CB12C87FF04C0AD
:10533000812C912C5401839420E030E040EA52E427
:10534000C301B2010E949FFA87FD05C06AE0862E64
:10535000912CA12CB12CC0924F07D0925007E09213
:105360005107F0925207A09179040A2E000CBB0B52
:10537000A50194010E94B9F824E030E040E050E03B
:105380000E948FF88091430790914407A0914507B0
:10539000B0914607820F931FA41FB51F8093430748
:1053A00090934407A0934507B09346071092790461
:1053B000D701C6018856954CAF4FBF4F80936F04FD
:1053C00090937004A0937104B093720481E0809371
:1053D0005501F6CE812C912C54018394BCCF8CE0E6
:1053E0008093190180916D0490916E04009729F0CB
:1053F000019790936E0480936D0481E08093550132
:10540000EECE009741F040916D0450916E04481724
:10541000590708F00DCF8091820481111DC0223000
:1054200038F0243008F44CC0243011F410925501A7
:1054300080910317811105C081E0809303170E94BA
:10544000C9D58091CC169091CD160E94A2D581E04D
:10545000809342078093820483E00E94291C81E0AC
:105460008093EA16E091C416F091C5160995109242
:10547000420780918204811127C010923C078091DD
:10548000C4169091C51687509B4209F0D9CE0E9450
:10549000A6D4DC01CB018C199D09AE09BF0980900F
:1054A0006D0490906E04B12CA12C88169906AA0662
:1054B000BB0608F0BDCE90936E0480936D04B8CE09
:1054C00081E080935501B4CF8AEC96E10E9402D925
:1054D00091E0811101C090E090938204882369F2E9
:1054E0008091C4169091C51687509B42B9F40E94D2
:1054F000A6D4DC01CB018C199D09AE09BF09C0906F
:105500006D04D0906E04F12CE12CC816D906EA0681
:10551000FB0620F490936E0480936D040F900F901F
:105520000F900F90DF91CF91FF90EF90DF90CF9091
:10553000BF90AF909F908F907F906F905F904F90B3
:10554000089548E9C40E4AE3D41EE11CF11CC09240
:105550006F04D0927004E0927104F0927204809112
:1055600082048111DBCF809155018130B9F6109210
:105570005501D4CF009709F46FCF45CF80915F07D5
:1055800090916007892B79F480915F079091600773
:10559000892B49F420915F073091600781E0232B2C
:1055A00019F480E0089581E00895CF92DF92EF92A0
:1055B000FF926B017C0183E3C816D104E104F1047E
:1055C00070F082E3C81AD108E108F10862E370E0E4
:1055D00080E090E00E940BD40E943195ECCFC7018F
:1055E000B6010E940BD4FF90EF90DF90CF900C9407
:1055F000319590911E1894FB882780F994FF06C07E
:1056000081E090911916911101C080E008954F92A8
:105610005F926F927F928F929F92AF92BF92CF9242
:10562000DF92EF92FF920F931F93CF93DF93CDB74B
:10563000DEB72C970FB6F894DEBF0FBECDBF109229
:105640005307E091E215F091E315309721F00995A9
:1056500081110E940AC880913C0710923C07882360
:10566000F9F020E040E070E060E08AEA91EB0E940F
:10567000BA9B2C960FB6F894DEBF0FBECDBFDF915C
:10568000CF911F910F91FF90EF90DF90CF90BF903F
:10569000AF909F908F907F906F905F904F90089504
:1056A00020911E0130911F01409143075091440702
:1056B000CA01820F931F2436310509F0EAC347302F
:1056C000510544F006978A3091050CF0F1C38AE049
:1056D00090E0F8C306964A3F5F4FACF380914207D3
:1056E000882309F4BBC12091AA0C3091AB0C4091E6
:1056F000AC0C5091AD0C60919A0C70919B0C809108
:105700009C0C90919D0C0E941CF94B015C01209116
:10571000AE0C3091AF0C4091B00C5091B10C609137
:105720009E0C70919F0C8091A00C9091A10C0E94F6
:105730001CF969877A878B879C872091B20C3091FE
:10574000B30C4091B40C5091B50C6091A20C7091C7
:10575000A30C8091A40C9091A50C0E941CF92B0124
:105760003C0120E030E040E251E40E948BF220E076
:1057700030E048EC52E40E948BF26B017C0120E0A7
:1057800030E0A901C301B2010E9425F220E030E01F
:1057900040EA50EC87FD04C020E030E040EA50E4ED
:1057A000C701B6010E941CF920E030E040E251E45C
:1057B0000E949FF90E9411FA2B013C0180E277FEC2
:1057C00009C07094609450944094411C511C611C19
:1057D000711C8DE28093470760E2F0E14F16F7E21B
:1057E0005F06610471048CF0C301B20120E137E26D
:1057F00040E050E00E948FF8CA01B9012AE030E091
:1058000040E050E00E948FF8605D6093480760E2DE
:1058100028EE421623E05206610471048CF0C301A5
:10582000B20128EE33E040E050E00E948FF8CA0158
:10583000B9012AE030E040E050E00E948FF8605D5E
:1058400060934907C301B20124E630E040E050E034
:105850000E948FF88AE0C82ED12CE12CF12CCA01CD
:10586000B901A70196010E948FF8605D60934A0715
:10587000C301B201A70196010E948FF8162FCA0139
:10588000B901A70196010E948FF8112309F42AC3D8
:105890008EE280934B07605D60934C07105D109320
:1058A0004D0767E477E081E694E00E946CFB20E01E
:1058B00030E0A901C501B4010E9425F220E030E0EA
:1058C00040E05FEB87FD04C020E030E040E05FE3B4
:1058D000C501B4010E941CF90E9411FACB010E947B
:1058E0002B92BC018CE594E00E946CFB20E030E040
:1058F000A90169857A858B859C850E9425F220E027
:1059000030E040E05FEB87FD04C020E030E040E0A5
:105910005FE369857A858B859C850E941CF90E94CE
:1059200011FACB010E942B92BC0187E594E00E9402
:105930006CFB0E94B2AC7C010E948F914B015C0118
:105940008D829E82AF82B886162F809117018E15A8
:10595000E1F0E0921701C70164E670E00E94EAF806
:1059600028E4269FC001279F900D1124BC0190E0E0
:1059700080E00E942AF22AE037ED43E25CE30E94D5
:105980008BF20E9418FA6093560480911601181742
:1059900009F464C08092160141E060E8861661E572
:1059A000960661E0A606B10408F440E066E474E0FF
:1059B000CE0105960E94EC1C982F990F990F891B18
:1059C000855A80934504882D837009F047C0209143
:1059D0004104309142044091430450914404211504
:1059E00031054105510509F08FC20E948F914B018D
:1059F0005C010E94B2ACFC01009799F0A0E1B7E213
:105A0000A81BB90BA50194010E94AEF89F0150E0BC
:105A100040E00E946DF8211531054105510509F05E
:105A200073C2E114F104A9F0A0E1B7E2AE19BF0915
:105A30002D813E814F8158850E94AEF8970150E03C
:105A400040E00E946DF8211531054105510509F02E
:105A50005BC2109237048BE5809336040E94A6D473
:105A600000913204109133042091340430913504B4
:105A70006B017C01C01AD10AE20AF30A9701860180
:105A800037FD11C0209131042095209331046A54D0
:105A90007C4F8F4F9F4F60933204709333048093F9
:105AA000340490933504F090310481E00E94291C65
:105AB0008091FE16843160F480910017883040F0A8
:105AC00003ED15E12CE043E068E080E50E9441D65B
:105AD0008091FE168431A0F480910017823080F00E
