:100000000C9487260C94C7260C94C7260C94C726FC
:100010000C94C7260C94C7260C94C7260C94C726AC
:100020000C94C7260C94C7260C94C7260C94C7269C
:100030000C94C7260C94C7260C94C7260C94C7268C
:100040000C94C7260C94AFEB0C94C7260C94C726CF
:100050000C94C7260C944AEA0C94C7260D94BE4E05
:100060000C94C7260C94BB4E0C94B14E0C94C7262E
:100070000C94C7260C94C7260C94C7260C94C7264C
:100080000C94C7260C94C7260C94C7260C94C7263C
:100090000C94C7260C94C7260C94C7260C94C7262C
:1000A0000C94C7260C94C7260C94C7260C94C7261C
:1000B0000C94C7260C94C7260C94C7260C94C7260C
:1000C0000C94C7260C94C7260C94C7260C94C726FC
:1000D0000C94C7260C94C7260C94C7260C94C726EC
:1000E0000C94C726084AD73B3BCE016E84BCBFFDAB
:1000F000C12F3D6C74319ABD56833DDA3D00C77FF8
:1001000011BED9E4BB4C3E916BAAAABE0000008090
:100110003F05A84CCDB2D44EB93836A9020C50B91F
:10012000918688083CA6AAAA2ABE000000803F004B
:100130000C940BDA0C94A9D30C94CED00C9413D954
:100140000D9422290C9451970C94AB8C0C949ABD6D
:100150000C9480510C9417950D9450290C94374FA2
:100160000C94DD8C0C94E7A70C94B2BD0C94514F09
:100170000C946ED70C94158D0C942FD40C94654F61
:100180000C945B510C94A8520C947E8E0C948EBDF2
:100190000C94F93E0C941FDB0C94DADC0C94249044
:1001A0000C945B910C945F510C944D970D945A1ADA
:1001B0000C94CADB0C94FD9A0C946ED00D94FD281F
:1001C0000C946B980D947D290C94A6290C94EB90BB
:1001D0000C94FA510C9425AD0C9482980C948E5288
:1001E0000C94638D0C942CD40C94049C0C94228F4E
:1001F0000C947F4F0C9487510C9428510C948B9441
:100200000C94F98A0C94FD970C9468D80C9401D73F
:100210000C940A9C0C94F38C0C94C3A30C94179C20
:100220000C94284F0C941A9C0D94F0280C948B8FEE
:100230000C9419C70C94C8D10C94D33E0C94C48D63
:100240000C9458DD0C943C520D943C1F0C94A99FC7
:100250000C943D970C94858D0C9423C70C94E990D5
:100260000C94A29E0C9476510C94464F0C94A7903B
:100270000C94ED900C94E2C10C9458510C941EF126
:100280000C941B3F0C94EF900C94019C0C94FE8EEC
:100290000C94F7AE0C9473510C94ACBD0C94B7B4A1
:1002A0000D9415290C9401D90C94718D0D94272966
:1002B0000C9465C70C9426DD0C94138E0C94B38DAE
:1002C0000C943F980C94B53E0C94E9DC0C94CC262D
:1002D0000C94C9260C949C8D0C943F3F0C94C92817
:1002E0000D947E290C9439970C943FDD0C943D3F7E
:1002F0000C940D9C0C94069B0C94774F0C94E0BDD1
:100300000C9445970D9401290C942D510C9427DBE6
:100310000C94A0BD0C94FCCF0C941E8F0C948BD726
:100320000C94AC8E0C94F78E0C94CABD0C942CB922
:100330000C948FBE0D940D1C0C94129C0C94625165
:100340000C94C4BD0C9474520C94A09C0C94CFDB00
:100350000D940B290C9461900C946B900C947A5131
:100360000C9494BD0D94E2280C94E2510C946C51C1
:100370000C9440D90C94078F0C9458520C941D3F48
:100380000C94ED9B0D94F7280C94998A0C94849905
:100390000C94F38E0C9408520C9484510C947B9C16
:1003A0000C9481520C941EC70C9485940C9440912B
:1003B0000D9407290C94768F0C942BBB0C942AA3D4
:1003C0000C94D38C0C948BA20C9416520C94E4DCF9
:1003D0000C94A0A40C945D4F0C94E7900C944A529A
:1003E0000D94725A0C941A8F0D946E1A0C94F73E59
:1003F0000C9465510C9414430C94E08A0C94193FAE
:100400000D94040C0C944D4F0C94A3EA0C940DDD48
:100410000C94958E0C94DFDC0C94B1D50C94E2B165
:100420000C9405A10D944C1A0C94E5900C94DED616
:100430000C94413F0C94C78D0C9469510C94F1902D
:100440000C9441970D9423290C94AB900C94078B3A
:100450000C94D53E0D940F290C9459970C940FDBF6
:100460000C947D510C9466520C94238D0C945A8FED
:100470000C944D390C9449970C94048F0C94DD9A8C
:100480000C94BEBD0D94E8280C94648F0C94D6BDDA
:100490000D9419290C94F3900C9422520C94F94E5B
:1004A0000C94C8980C949B520C94789C0C9486B332
:1004B0000D94F4280C94718F0C94A6BD0C942BD43D
:1004C0000C946C4F0C94BF8C0C9403D80C94558DE9
:1004D0000C9492A90C94A93E0C9488A90C94E5A1C3
:1004E0000C94AFD00C94F53E0C94B7AB0C942B2924
:1004F0000C9411A60D94BA1D0D94EC280C944FD0B9
:100500000C94BB510D941D290C942E520C94018F08
:100510000C94A0280C9483D80C94FB9B0C944B8DCA
:100520000C94FE9B0D94545A0C94149C0C94119BA7
:100530000C9470510C94378D0C9408980C9435974A
:100540000C94554F0C9455970C94AEBE0D94272ADD
:100550000C94614F0C94079C0C941E980C9424D816
:100560000C94B8BD0C94078D0C94F89B0C941BBE96
:100570000C94EEDC0C947C280C94D0BD0C94EC51C3
:100580000C94594F4E414E494E495459494E46CD0F
:10059000CCCC3D0AD7233C17B7D13877CC2B32953A
:1005A00095E6241FB14F0A000020410000C8420018
:1005B000401C4620BCBE4CCA1B0E5AAEC59D7400E2
:1005C000407A10F35A00A0724E18090010A5D4E822
:1005D0000000E87648170000E40B54020000CA9AB5
:1005E0003B000000E1F50500008096980000004007
:1005F000420F000000A0860100000010270000004C
:1006000000E803000000006400000000000A000091
:100610000000000100000000002C76D888DC674F45
:100620000823DFC1DFAE59E1B1B796E5E3E453C675
:100630003AE651997696E8E6C28426EB898C9B626D
:10064000ED407C6FFCEFBC9C9F40F2BAA56FA5F417
:1006500090055A2AF75C936B6CF9676DC11BFCE03F
:10066000E40D47FEF520E6B500D0ED902E03009492
:100670003577050080841E080000204E0A00000027
:10068000C80C333333330F986E12831141EF8D2131
:1006900014893BE65516CFFEE6DB18D1844B381B98
:1006A000F77C1D901DA4BBE424203284725E22815D
:1006B00000C9F124ECA1E53D275A5F53544F505F28
:1006C00050494E005A5F535445505F50494E005AAE
:1006D0005F4D494E5F50494E005A5F454E41424C76
:1006E000455F50494E005A5F4449525F50494E00A1
:1006F000595F53544F505F50494E00595F53544512
:10070000505F50494E00595F4D494E5F50494E0071
:10071000595F454E41424C455F50494E00595F4438
:1007200049525F50494E00585F53544F505F5049F3
:100730004E00585F535445505F50494E00585F4D2E
:10074000494E5F50494E00585F454E41424C455F0F
:1007500050494E00585F4449525F50494E0053552E
:1007600049434944455F50494E00534552564F3323
:100770005F50494E00534552564F325F50494E002C
:10078000534552564F315F50494E00534552564FD4
:10079000305F50494E00534453530053445F444527
:1007A000544543545F50494E004D4F534645545FA6
:1007B000435F50494E004D4F534645545F425F5092
:1007C000494E004D4F534645545F415F50494E00DE
:1007D00054454D505F305F43535F50494E004C4588
:1007E000445F50494E004C43445F50494E535F5262
:1007F00053004C43445F50494E535F454E41424C79
:1008000045004C43445F50494E535F4437004C43CE
:10081000445F50494E535F4436004C43445F504957
:100820004E535F4435004C43445F50494E535F4440
:1008300034004B494C4C5F50494E004845415445AB
:10084000525F4245445F50494E004845415445522D
:100850005F305F50494E0046494C5F52554E4F55F0
:10086000545F50494E0046414E5F50494E0045315D
:100870005F535445505F50494E0045315F454E41EE
:10088000424C455F50494E0045315F4449525F50EC
:10089000494E0045315F43535F50494E0045305F3C
:1008A000535445505F50494E0045305F454E4142DC
:1008B0004C455F50494E0045305F4449525F5049B6
:1008C0004E00444F474C43445F53434B00444F4713
:1008D0004C43445F4D4F53490042544E5F454E4395
:1008E0000042544E5F454E435F454E0042544E5FBA
:1008F000454E320042544E5F454E31004245455010
:1009000045525F50494E004156525F53535F504924
:100910004E004156525F53434B5F50494E00415683
:10092000525F4D4F53495F50494E004156525F4D03
:1009300049534F5F50494E0054454D505F42454426
:100940005F50494E0054454D505F315F50494E0055
:1009500054454D505F305F50494E0046494C574911
:100960004454485F50494E00545844300052584453
:100970003000434F4D4D554E49434154494F4E0071
:1009800044525952554E004552524F525300494E0F
:10099000464F004543484F004572726F7220777290
:1009A0006974696E6720746F20454550524F4D2120
:1009B0000A00363726033C3D380E2E303E121A1CF4
:1009C000180A43090844000153544F505045442E1F
:1009D00020005072696E7465722073746F70706558
:1009E000642064756520746F206572726F72732E57
:1009F0002046697820746865206572726F72206184
:100A00006E6420757365204D39393920746F2072FA
:100A10006573746172742E202854656D70657261FF
:100A2000747572652069732072657365742E205326
:100A300065742069742061667465722072657374D0
:100A4000617274696E67290A004E6F20436865639E
:100A50006B73756D2077697468206C696E65206EA4
:100A6000756D6265722C204C617374204C696E65E3
:100A70003A20004E6F20436865636B73756D207775
:100A8000697468206C696E65206E756D6265722C84
:100A9000204C617374204C696E653A200063686570
:100AA000636B73756D206D69736D617463682C2061
:100AB0004C617374204C696E653A20004C696E6518
:100AC000204E756D626572206973206E6F74204CC4
:100AD000617374204C696E65204E756D6265722B72
:100AE000312C204C617374204C696E653A20004DA6
:100AF0003131300053657269616C207374617475B3
:100B000073206D69736D617463680A00776169743D
:100B10000A0053442072656164206572726F720A24
:100B200000486F74656E642049646C652054696D7B
:100B3000656F757400486F74656E642049646C65F8
:100B40002054696D656F75740A002121204B494C52
:100B50004C20636175736564206279204B494C4C6D
:100B600020627574746F6E2F70696E0A00212120E7
:100B70004B494C4C20636175736564206279207425
:100B80006F6F206D75636820696E61637469766547
:100B90002074696D65202D2063757272656E7420F6
:100BA000636F6D6D616E643A2000706175736500EE
:100BB0004D363030002066696C616D656E745F7211
:100BC000756E6F7574200066696C616D656E745F1B
:100BD00072756E6F757420540046696C616D656E38
:100BE0007452756E6F75742054004D656469612090
:100BF00052656D6F766564004D6564696120496E6C
:100C0000736572746564004D313030305300627525
:100C100073793A2070617573656420666F7220691C
:100C20006E7075740A00627573793A20706175731D
:100C3000656420666F7220757365720A0062757351
:100C4000793A2070726F63657373696E670A00503A
:100C50006C65617365205265736574005052494E2E
:100C60005445522048414C5445440025533A2025D0
:100C70005300706F7765726F6666004B494C4C4548
:100C8000442E20005072696E7465722068616C7425
:100C900065642E206B696C6C28292063616C6C651F
:100CA00064210A006563686F3A004572726F723A98
:100CB0000042696C696E656172204C6576656C698D
:100CC0006E6720477269643A0A005072696E7469EF
:100CD0006E67204F626A65637400255320256900A2
:100CE0002F2F616374696F6E3A00737461727400C0
:100CF0006E6F74696669636174696F6E20007072EB
:100D00006F6D70745F00656E6400486F74656E642B
:100D100020746F6F20636F6C640A0053656E6420EB
:100D20004D31303820746F20726573756D650A001F
:100D3000496E736572742066696C616D656E7420AE
:100D4000616E642073656E64204D3130380A005244
:100D5000656865617420446F6E6500526568656101
:100D600074696E672E2E2E005265686561740048A6
:100D700065617465722054696D656F7574005365A3
:100D80006E64204D31303820746F206865617420A6
:100D90006E6F7A7A6C650A004E6F7A7A6C652050B5
:100DA00061726B6564007061757365640050617594
:100DB0007365004732362043616E63656C6564007D
:100DC0004732362048656174696E67204E6F7A7AC3
:100DD0006C65004732362048656174696E67204251
:100DE00065640057616974696E6720666F72206878
:100DF00065617475702E0A004669786564204C65DB
:100E00006E677468205072696D6500446F6E65206E
:100E10005072696D696E67004D616E75616C20700E
:100E200072696D696E672E2E2E004C656176696E53
:100E30006720473236003F537065636966696564B1
:100E400020582C5920636F6F7264696E617465203D
:100E50006F7574206F6620626F756E64732E0A0062
:100E60003F28522965706561742076616C75652034
:100E70006E6F7420706C61757369626C653B206D78
:100E8000757374206265206174206C6561737420D1
:100E9000312E0A003F537065636966696564206E90
:100EA0006F7A7A6C652074656D70657261747572A5
:100EB00065206E6F7420706C61757369626C652E4D
:100EC0000A003F5370656369666965642066696CF2
:100ED000616D656E742073697A65206E6F74207021
:100EE0006C61757369626C652E0A003F53706563AF
:100EF0006966696564207072696D65206C656E67EE
:100F00007468206E6F7420706C61757369626C65B3
:100F10002E0A003F537065636966696564206E6FD1
:100F20007A7A6C652073697A65206E6F7420706CB4
:100F300061757369626C652E0A003F526574726157
:100F40006374696F6E204D756C7469706C6965723D
:100F5000206D7573742062652073706563696669BE
:100F600065642E0A003F5370656369666965642095
:100F700052657472616374696F6E204D756C74692B
:100F8000706C696572206E6F7420706C6175736926
:100F9000626C652E0A003F5370656369666965641B
:100FA000206C6179657220686569676874206E6F6E
:100FB0007420706C61757369626C652E0A00432938
:100FC0002E0A003F53706563696669656420626537
:100FD000642074656D7065726174757265206E6FE2
:100FE0007420706C61757369626C65202834302DD3
:100FF00000473236207374617274696E672E2E2E2C
:101000000A004F46460A00466164652048656967E4
:1010100068742000426564204C6576656C696E6773
:1010200020004661696C656420746F20656E6162A2
:101030006C6520426564204C6576656C696E670A54
:1010400000496E76616C6964206D6573682E0A00D4
:10105000477269642070726F62696E6720646F6E98
:10106000652E0A0069646C650A00206F66200070B6
:101070006F696E7420004D616E75616C2047323966
:1010800020004D616E75616C204732392061626FBE
:10109000727465640A00202844525952554E290042
:1010A000473239204175746F20426564204C657663
:1010B000656C696E67003F20284C2C522C462C42F0
:1010C00029206F7574206F6620626F756E64732EB1
:1010D0000A003F2856296572626F7365206C657639
:1010E000656C20696D706C61757369626C65202830
:1010F000302D34292E0A00426164205A2076616C1A
:1011000075650A004E6F2062696C696E65617220B8
:10111000677269640A004732384C3000204400206E
:10112000204D323030205300202844697361626CB6
:101130006564293A0046696C616D656E742073655B
:101140007474696E67730020204D3230312058006E
:101150004D617820416363656C65726174696F6E7F
:101160002028756E6974732F7332290020204D3248
:1011700030332058004D6178206665656472617473
:1011800065732028756E6974732F732900205200CF
:1011900020204D323034205000416363656C65720D
:1011A0006174696F6E2028756E6974732F733229AC
:1011B0002028503C7072696E742D616363656C3ECB
:1011C00020523C726574726163742D616363656C57
:1011D0003E20543C74726176656C2D616363656C6E
:1011E0003E29005741524E494E4721204C6F7720EF
:1011F0005A204A65726B206D6179206C65616420AC
:10120000746F20756E77616E74656420706175739C
:1012100065732E0A0020540020530020204D3230E8
:1012200035204200416476616E6365642028423C4B
:101230006D696E5F7365676D656E745F74696D650A
:101240005F75733E20533C6D696E5F6665656472C1
:101250006174653E20543C6D696E5F7472617665A1
:101260006C5F66656564726174653E20583C6D61B3
:10127000785F6A65726B3E20593C6D61785F6A6584
:10128000726B3E205A3C6D61785F6A65726B3E20DE
:10129000453C6D61785F6A65726B3E2900204400B1
:1012A00020490020204D333031205000486F7465B4
:1012B0006E64205049440020440020490020204D05
:1012C0003330342050004265642050494400505768
:1012D0004D3A20202534640050574D3A20202534C3
:1012E000640050574D3A20202534640050574D3A41
:1012F00020202534640050574D3A202025346400C6
:1013000050574D3A20202534640050574D3A202044
:101310002534640050574D3A20202534640050573E
:101320004D3A20202534640050574D3A2020253472
:10133000640050574D3A20202534640050574D3AF0
:1013400020202534640050574D3A20202534640075
:1013500050574D3A20202534640050574D3A2020F4
:101360002534640050574D3A2020253464003A203B
:101370000020202020434F4D002020206E6F6E2D36
:101380007374616E646172642050574D206D6F6498
:101390006500202020636F6D7061726520696E7436
:1013A00065727275707420656E61626C6564002090
:1013B00020206F766572666C6F7720696E74657237
:1013C0007275707420656E61626C6564003A20000D
:1013D0002020202054494D534B00423A2000202029
:1013E00020205443435200413A2000202020205422
:1013F000434352002020202043533A200020202045
:101400002057474D3A200050574D3A20202534644C
:101410000050574D3A202025346400470048000012
:101420000088008A008C00B300B400000098009A85
:10143000009C00A800AA00AC0028012A012C012071
:1014400020202054494D455200440045006E008044
:101450000081006F00B000B1007000900091007139
:1014600000A000A100720020012101730020697317
:1014700020616C736F207469656420746F207468D8
:1014800069732070696E0054494D45523143000A1A
:10149000202E002020002020506F72743A2000205F
:1014A000202000202020416E616C6F6720696E2033
:1014B0003D2025356C64003C756E757365642F7531
:1014C0006E6B6E6F776E3E002028412532642920B6
:1014D0002000253364200050494E3A20004F757497
:1014E000707574203D2000496E70757420203D2079
:1014F00000416E616C6F6720696E203D2025356C60
:10150000640070726F746563746564200020284104
:1015100025326429202000253364200050494E3AAA
:1015200020006D090001680901015B093B005009B9
:10153000430045094500380944002B0932011E09C2
:1015400033011209340107093501FC082501F408AB
:101550001F01EC082101E1081D01D9082301CD0874
:101560003301C2083401B7081C01A90818019D08FD
:101570001A0193082C01880822017A081E016E08BE
:10158000240166080901570802014A080A013B08BC
:10159000080132082901260817011A0819010E0846
:1015A0001B0102081D01F2071101E6071001DE0709
:1015B0000D01D0074201C3070A01B6070701A907B9
:1015C00008019B073101960735018B070B01800746
:1015D0000601750705016A0704015E070C0154073F
:1015E0003701470726013D07030132073601270768
:1015F00003011D073D011007380106070E01FB0618
:101600003C01F0060E01E6063001D9063E01CF0688
:101610001201C4062E01B9061201446F6E652E0A2E
:101620000050756C73696E6720202000556E746FD2
:1016300075636865642000534552564F206E6F7481
:10164000207365742075702E0A004D343320576165
:1016500069742043616C6C656400576174636869E8
:101660006E672070696E730A0064697300656E00AE
:1016700061626C65640A00656E6473746F70206DDE
:101680006F6E69746F72200020580020204D6178C1
:101690003A2000200020204D696E3A2000203B2097
:1016A0000020204D323131205300536F6674206585
:1016B0006E6473746F707300203B0020550020200F
:1016C0004D363033204C0046696C616D656E742078
:1016D0006C6F61642F756E6C6F6164004D323453B2
:1016E000256C6454256C64004739322E39452573C6
:1016F0000047314625640047315A2573463630305D
:101700000047315825735925734633303030004D2A
:10171000313036502569532569004D313039532514
:1017200069004D323030442573004739322E395A22
:101730002573004D3432305325635A2573004732E8
:1017400038523058590047315A25734636303000E8
:101750004739322E395A2573004739322E394530F0
:10176000004D313039532569004D313930532569E9
:10177000004D343230205330205A3000203B2000BE
:1017800020204D343133205300506F7765722D6C1B
:101790006F7373207265636F76657279004F46468A
:1017A000004F4E00203B20486F73742068616E64C8
:1017B0006C696E672000203B204D6F646520006DD2
:1017C0006D00203B2044697374616E6365200046A0
:1017D000696C616D656E742072756E6F7574200032
:1017E0003B200020496E76616C69642065787472D4
:1017F00075646572200047322F4733206261642090
:10180000706172616D65746572730A00536C656511
:10181000702E2E2E004D65736820706F696E7420D7
:101820006F7574206F662072616E67650A004D30B7
:101830002053746F70004D312053746F7000436CEF
:1018400069636B20746F20526573756D652E2E2E43
:10185000004E6F204D6F76652E00456E64206669E0
:101860006C65206C6973740A00426567696E206656
:10187000696C65206C6973740A004E6F206D656435
:1018800069610A00526573756D696E672053440083
:10189000286E6F2066696C65290043757272656EEB
:1018A000742066696C653A20005072696E74207409
:1018B000696D653A20003F43616E6E6F74207772E8
:1018C00069746520746F20494E5055540A00496E62
:1018D00076616C69642050696E204D6F64650A0002
:1018E0000A53746174733A2046696C616D656E7455
:1018F00020757365643A20002C204C6F6E67657309
:1019000074206A6F623A2000546F74616C207469AD
:101910006D653A200053746174733A20002C2046A0
:1019200061696C65643A20002C2046696E697368B1
:1019300065643A20005072696E74733A20005374E3
:101940006174733A20006F6B006F66660093098EB6
:101950000987098009720944454255473A004D31CB
:101960003133205300544D334420435231305632EA
:10197000204F46462E002F2F004D31343520533C4A
:10198000696E6465783E206F7574206F66207261A1
:101990006E67652028302D31290A0046523A002012
:1019A000466C6F773A200050726F7465637465649B
:1019B0002050696E0A004261627973746570205A22
:1019C0000064697300656E0043290A0061626C65FA
:1019D0006420286D696E2074656D702000436F6C03
:1019E0006420657874727564657320617265200087
:1019F0004D34323120696E636F727265637420708A
:101A00006172616D657465722075736167650A0046
:101A10004D65736820706F696E74206F7574206FE8
:101A2000662072616E67650A004F6666736574733F
:101A3000204170706C696564004572723A20546F81
:101A40006F206661722100546F6F2066617220669C
:101A5000726F6D207265666572656E636520706F6A
:101A6000696E740A00454550524F4D204F4B0A0095
:101A70004D383400446F6E65207072696E74696E03
:101A8000672066696C650A004D3737004D333100B9
:101A900020204D323036205800486F6D65206F662B
:101AA00066736574004361703A00434F4E46494780
:101AB0005F4558504F5254004D4541545041434B9F
:101AC00000434F4F4C45525F54454D504552415491
:101AD000555245004348414D4245525F54454D5093
:101AE0004552415455524500424142595354455084
:101AF00050494E470041524353004D4F54494F4EB9
:101B00005F4D4F44455300544845524D414C5F5042
:101B1000524F54454354494F4E00455854454E4446
:101B200045445F4D323000435553544F4D5F464955
:101B3000524D574152455F55504C4F4144004C4621
:101B40004E5F5752495445004C4F4E475F46494CF3
:101B5000454E414D45004155544F5245504F52540A
:101B60005F53445F5354415455530053445F57529D
:101B700049544500524550454154004D554C544937
:101B80005F564F4C554D450053444341524400501D
:101B9000524F4D50545F535550504F525400484F80
:101BA00053545F414354494F4E5F434F4D4D414E57
:101BB000445300454D455247454E43595F504152AD
:101BC00053455200434153455F4C494748545F4297
:101BD00052494748544E45535300544F47474C458C
:101BE0005F4C494748545300534F46545741524560
:101BF0005F504F574552004255494C445F50455243
:101C000043454E54004C4556454C494E475F444170
:101C10005441005A5F50524F42450052554E4F5565
:101C200054004155544F4C4556454C005052494E76
:101C3000545F4A4F420050524F4752455353004160
:101C400055544F5245504F52545F54454D500041EA
:101C500055544F5245504F52545F504F5300564FBA
:101C60004C554D455452494300454550524F4D0047
:101C700042494E4152595F46494C455F5452414E8C
:101C8000534645520053455249414C5F584F4E5FB1
:101C9000584F4646004649524D574152455F4E41C6
:101CA0004D453A4D61726C696E20322E302E395F8F
:101CB0004457372E342E3620544D33442053534D41
:101CC000444E422028417072203238203230323265
:101CD0002030303A33313A31342920534F55524372
:101CE000455F434F44455F55524C3A687474707376
:101CF0003A2F2F6769746875622E636F6D2F496E76
:101D000073616E6974794175746F6D6174696F6E1A
:101D10002F4D61726C696E2F747265652F43726509
:101D2000616C6974794477696E5F322E302050524D
:101D30004F544F434F4C5F56455253494F4E3A31E3
:101D40002E30204D414348494E455F545950453A45
:101D5000544D33442043523130563220455854526A
:101D6000554445525F434F554E543A3120555549DD
:101D7000443A63656465326132662D343161322DD7
:101D8000343734382D396231322D6335356336328C
:101D90006633363766660A0043616E6E6F74206F75
:101DA00070656E2073756264697220002569730026
:101DB00025696D20256973002569682025696D20D6
:101DC00025697300256964202569682025696D20CF
:101DD00025697300256979202569642025696820B3
:101DE00025696D2025697300436F6F6C696E672EDE
:101DF0002E2E0045312025530042656420436F6F2D
:101E00006C696E672E2E2E004265642048656174F1
:101E1000696E672E2E2E0023646566696E65204408
:101E2000454641554C545F00626564004B64200098
:101E30004B6920004B7020005049442074756E6936
:101E40006E6720646F6E6500504944204175746F61
:101E500074756E652066696E6973686564212050CB
:101E6000757420746865206C617374204B702C202D
:101E70004B6920616E64204B6420636F6E737461E4
:101E80006E74732066726F6D2062656C6F77206967
:101E90006E746F20436F6E66696775726174696FE7
:101EA0006E2E680A00504944204175746F74756E37
:101EB00065206661696C6564212074696D656F7564
:101EC000740A004175746F74756E65206661696C83
:101ED0006564212054696D656F75742E0050494406
:101EE000204175746F74756E65206661696C6564F8
:101EF000212054656D706572617475726520746F10
:101F00006F20686967680A00504944204379636C10
:101F100065730025532025692F256900204B643AFD
:101F20002000204B693A2000204B703A20002043CB
:101F30006C617373696320504944200A00204E6F1E
:101F4000206F76657273686F6F740A002054753A5B
:101F50002000204B753A2000206D61783A20002047
:101F60006D696E3A200020643A2000206269617336
:101F70003A200048656174696E672E2E2E00504924
:101F800044204175746F74756E652073746172744A
:101F90000A004175746F74756E65206661696C65C1
:101FA000642E2054656D706572617475726520745D
:101FB0006F6F20686967682E00504944204175742E
:101FC0006F74756E65206661696C65642120546567
:101FD0006D706572617475726520746F6F206869C9
:101FE00067680A00504944204175746F74756E65C6
:101FF00000504944204175746F74756E65206661A8
:10200000696C656421204261642068656174657251
:102010002069640A004572723A2075746638206639
:102020006F6E74206E6F7420696E697469616C697B
:102030007A65642E004572723A207574663820669F
:102040006F6E74206E6F7420696E697469616C695B
:102050007A65642E004572723A207574663820667F
:102060006F6E74206E6F7420696E697469616C693B
:102070007A65642E002568753A253032687500252A
:10208000303268753A25303268750025303268750F
:102090002725303268750025687564202530326840
:1020A000753A253032687500000C0F00FE070225D6
:1020B00003BB017FFE08FE08FE050808060000407D
:1020C000F0C88888987810050808060000C0F888CD
:1020D00088888888F80505050600012030F830203A
:1020E0000508080600002070F820202020E00509DF
:1020F000090600FF2070A8A8B88888702007050589
:10210000070001D86C366CD80509090600FFF8A84D
:102110008888888888A8F8050A0A0600FE2050509A
:10212000505088A8A8887003030306000340A0400D
:10213000FFFFFFFFFFFFFFFFFFFFFFFFFFFFFFFFAF
:10214000FFFFFFFFFFFF0000000605FF0107070676
:10215000020080808080800080030303060105A0C8
:10216000A0A005060606000050F85050F8500509DA
:10217000090600FF2070A8A07028A8702005070796
:10218000060000C8C8102040989805070706000000
:1021900040A0A040A890680103030602058080804B
:1021A0000309090601FF2040408080804040200351
:1021B00009090601FF80404020202040408005079B
:1021C0000706000020A8702070A82005050506005D
:1021D000012020F820200203030601FFC0408005F3
:1021E0000101060003F8020202060100C0C0050753
:1021F0000706000008101020404080050707060071
:1022000000708898A8C8887003070706010040C0BE
:1022100040404040E0050707060000708808102095
:1022200040F8050707060000F80810300888700518
:10223000070706000010305090F810100507070639
:102240000000F880F00808887005070706000030D5
:102250004080F0888870050707060000F808101015
:102260002020200507070600007088887088887085
:1022700005070706000070888878081060020505C9
:10228000060100C0C000C0C00206060601FFC0C0B3
:1022900000C0408003050506010120408040200564
:1022A0000303060002F800F803050506010180405B
:1022B00020408005070706000070881020200020BD
:1022C0000507070600007088B8A8B88070050707E2
:1022D000060000708888F8888888050707060000CF
:1022E000F04848704848F0050707060000708880ED
:1022F00080808870050707060000F0484848484875
:10230000F0050707060000F88080F08080F80507D8
:1023100007060000F88080F080808005070706002F
:1023200000708880809888700507070600008888FC
:1023300088F8888888030707060100E0404040408D
:1023400040E00507070600003810101010906005E7
:1023500007070600008890A0C0A090880507070620
:102360000000808080808080F805070706000088D4
:10237000D8A8888888880507070600008888C8A824
:102380009888880507070600007088888888887004
:10239000050707060000F08888F0808080050707A1
:1023A00006000070888888A8906805070706000066
:1023B000F08888F0A09088050707060000708880E4
:1023C00070088870050707060000F82020202020EC
:1023D0002005070706000088888888888870050718
:1023E00007060000888888885050200507070600E7
:1023F0000088888888A8A8500507070600008888F4
:102400005020508888050707060000888850202043
:102410002020050707060000F80810204080F80378
:1024200009090601FFE080808080808080E0050748
:10243000070600008040402010100803090906012B
:10244000FFE020202020202020E0050303060005D7
:102450002050880501010600FEF80303030601056C
:10246000804020050505060000700878887805077B
:10247000070600008080F0888888F00505050600C2
:1024800000708080887005070706000008087888BB
:102490008888780505050600007088F080700507BB
:1024A00007060000304840E04040400507070600AE
:1024B000FE7088888878087005070706000080800D
:1024C000F0888888880307070601004000C0404064
:1024D00040E00409090601FE1000301010101090B1
:1024E0006005070706000080808890E09088030759
:1024F00007060100C04040404040E00505050600D9
:1025000000D0A8A8A8A8050505060000B0C88888BE
:10251000880505050600007088888870050707068D
:1025200000FEF0888888F080800507070600FE78A6
:10253000888888780808050505060000B0C88080EE
:102540008005050506000078807008F0050707067D
:1025500000002020F820202018050505060000882E
:102560008888986805050506000088888850200539
:1025700005050600008888A8A85005050506000086
:1025800088502050880507070600FE88888850205C
:102590004080050505060000F8102040F8030909F1
:1025A0000601FF20404040804040402001090906CC
:1025B00002FF80808080808080808003090906017E
:1025C000FF80404040204040408005030306000259
:1025D00048A890FF554E4C4F41442046494C414D30
:1025E000454E54004C4F41442046494C414D454EC8
:1025F000540046494C414D454E54204348414E47B6
:10260000450042656400456E636C6F7375726500CA
:102610002020202020202000202020200065727211
:10262000001FE0201020102010102010202010206B
:102630001030300840048003001FE03FF03FF03FBF
:10264000F01FE01FE03FF03FF03FF00FC0078003B6
:10265000003FFFF038007030FC3020FC1020781074
:102660002030102C00D02E31D02F7BD02F7BD02EBD
:1026700031D02C00D020301020781020FC1030FCFD
:10268000303800703FFFF03FFFF038007031863087
:102690002387102787902F87D02F03D0203010203A
:1026A00078102078102030102F03D02F87D0278764
:1026B000902387103186303800703FFFF01FFFF8FD
:1026C0001FFFF804104002082002082004104008F0
:1026D00020801041001041000820800410400000BC
:1026E000001FFFF81FFFF8FFFFFF8000018E00E1D1
:1026F0009F01F19381399F81F99F81F99FB9F98FEA
:1027000028F18038018000019FFFF99174999B06A0
:10271000A99B54A99B56A99B54999FFFF9FFFFFFC2
:1027200063616E63656C005072696E742041626F04
:10273000727465640055492041626F72746564006B
:102740004D323520500A4D323400526573756D6537
:102750000055492050617573650050617573696E4D
:10276000672E2E2E00726573756D65004D32340034
:1027700052756E6F75742044697374206D6D004DD1
:102780006F74696F6E20456E636F64657200536588
:102790006E736F72204C6F770053656E736F72208B
:1027A00048696768004E6F2053656E736F72005200
:1027B000756E6F75742053656E736F720052756E0F
:1027C0006F7574204D6F6465004C6F6164206D6D92
:1027D00000556E6C6F6164206D6D0046696C2E2033
:1027E0004469612E004520696E206D6D5E33004D99
:1027F0003330332055312045256920532569005059
:102800004944204175746F74756E65202A005049E3
:10281000442D44202A005049442D49202A00504983
:10282000442D50202A0020082046616374002008AF
:10283000204D6178002008204D696E004F666600CB
:102840004F6E004175746F74656D70004D696E2038
:1028500054726176656C2056656C004D696E205629
:10286000656C6F63697479004D6178204520566509
:102870006C004D6178205A2056656C004D617820BF
:10288000592056656C004D617820582056656C00C3
:102890004D6178204520416363656C004D6178206F
:1028A0005A20416363656C004D6178205920416373
:1028B00063656C004D6178205820416363656C004E
:1028C00054726176656C20416363656C0052657477
:1028D0007261637420416363656C00416363656C7E
:1028E000004D61782045204A65726B004D6178206B
:1028F0005A204A65726B004D61782059204A6572F2
:102900006B004D61782058204A65726B004520733A
:10291000746570732F6D6D005A2053746570732F3A
:102920006D6D00592053746570732F6D6D005820C4
:1029300053746570732F6D6D00416476616E6365CD
:10294000642053657474696E6773003F0043616E61
:1029500063656C00496E6974004D34323800496E0D
:10296000697469616C697A6520454550524F4D0024
:1029700046696C616D656E740054656D7065726159
:10298000747572650053746570732F6D6D004A65C0
:10299000726B00416363656C65726174696F6E0090
:1029A00056656C6F636974790053657420486F6D68
:1029B00065204F66667365747300436F6E66696762
:1029C00075726174696F6E003F004E6578742050B7
:1029D0006F696E7400446F6E65004E657874004CCC
:1029E0006576656C696E6720446F6E6521004D6F7A
:1029F0007665205A004732395631004E657874208A
:102A0000506F696E74002569202F202575004732AC
:102A100039563100436C69636B20746F20426567DF
:102A2000696E00486F6D696E672058595A005A20C8
:102A300056616C756500496E646578205900496E71
:102A400064657820580053746F7265205365747400
:102A5000696E6773004C6F61642053657474696EAE
:102A6000677300426564205472616D6D696E670022
:102A70004661646520486569676874004F66660052
:102A80004F6E00426564204C6576656C696E670028
:102A900045646974204D657368004C6576656C20EB
:102AA000426564004D6F74696F6E003F0043616E54
:102AB00063656C204F626A656374004E4F00594530
:102AC000530043616E63656C204F626A65637420D6
:102AD0003D004D61696E00426564004E6F7A7A6C0C
:102AE000650046616E20537065656400436F6E66D5
:102AF000696775726174696F6E00526573746F7285
:102B0000652044656661756C7473004C6F61642068
:102B100053657474696E67730053746F72652053E4
:102B2000657474696E6773005072656865617420BE
:102B30002420436F6E6600506F776572204F757466
:102B4000616765004F6666004F6E0052756E6F7567
:102B5000742053656E736F7200416476616E6365B5
:102B6000642053657474696E6773004D61696E000B
:102B70004D37303220542564004D363030204230FD
:102B800020542564004D373032203B2564004D37FA
:102B9000303120542564004D373032004D3730310C
:102BA000004D363030204230004D61696E00436F79
:102BB0006E74696E7565004F6666004F6E005275E3
:102BC0006E6F75742053656E736F72005075726707
:102BD00065206D6F726500524553554D45204F502D
:102BE00054494F4E533A005052494E54205041558B
:102BF0005345440020204E6F7A7A6C653A2000508D
:102C000061726B696E672E2E2E0000005761697429
:102C100020666F720066696C616D656E7420636812
:102C2000616E676500746F20737461727400576120
:102C3000697420666F720066696C616D656E7420E0
:102C4000756E6C6F616400004E6F7A7A6C652068F7
:102C5000656174696E6700506C65617365207761AA
:102C600069742E2E2E000050726573732062757485
:102C7000746F6E00746F2068656174206E6F7A7A6D
:102C80006C650000496E736572742066696C616DD5
:102C9000656E7400616E6420707265737320627576
:102CA00074746F6E00746F20636F6E74696E7565F7
:102CB000005761697420666F720066696C616D65AA
:102CC0006E74206C6F6164000050726573732042F3
:102CD0007574746F6E00746F20726573756D652006
:102CE0007072696E7400005761697420666F72209B
:102CF0007072696E7400746F20726573756D652EE5
:102D00002E2E00005761697420666F720066696C30
:102D1000616D656E7420707572676500003E2000FD
:102D2000256C642E25696D00457874727564656440
:102D300020546F74616C003E20004C6F6E676573A9
:102D400074204A6F622054696D65003E2000507205
:102D5000696E742054696D6500436F6D706C6574A5
:102D60006564003A20005072696E7420436F756E7E
:102D700074003A20003135300035004245443A2095
:102D80004154432031303447542D320052756E6126
:102D90007761792057617463683A204F4E004D6126
:102DA000782054656D7000333135004D696E2054C4
:102DB000656D7000350045313A204550434F532032
:102DC0003130304B005053550047656E6572696372
:102DD0000050726F746F636F6C00312E300042616F
:102DE00075640032353030303000437265616C6993
:102DF000747933442052414D50530042696C696EDE
:102E0000656172204C6576656C696E670045787403
:102E100072756465727300310074696E796D6163F7
:102E200068696E657333642E636F6D00544D33446F
:102E30002043523130563200323032322D30342D70
:102E4000303300322E302E395F4457372E342E3631
:102E5000004D61726C696E005072696E746572200B
:102E6000537461747300546865726D6973746F7222
:102E70007300426F61726420496E666F0050726920
:102E80006E74657220496E666F004D61696E004D0B
:102E9000313030300053746F70205072696E74009E
:102EA000526573756D65205072696E7400506F774E
:102EB0006572204F7574616765004D313930533547
:102EC000350A4732380A4732390A4D3430300A4D14
:102ED000313034533231350A4732380A4D313039C6
:102EE000533231350A4D34323053310A473158317B
:102EF00030305931303046353030300A47315A3071
:102F00000A4D3530300A4D37370A4D3131372053AD
:102F10006574205A204F6666736574004D313036F3
:102F2000533132380A4D333033433853323135451B
:102F300030550A4D3530300A4D3131372050494433
:102F40002054756E6520446F6E65004D31393053E5
:102F500035350A4D313034533231350A4732380A6B
:102F60004732394C310A47312058313030593130ED
:102F70003046353030300A47315A30004D35303028
:102F80000A4D3131372053657474696E677320536D
:102F9000746F7265640053746F7265205365747446
:102FA000696E6773005072657020666F72205A20D8
:102FB00041646A757374005049442054756E65000D
:102FC0005365747570004D61696E003F0042616326
:102FD0006B0053746F70004E6F204D656469610023
:102FE0005072696E742066726F6D204D6564696100
:102FF000004368616E6765204D65646961004D320C
:10300000310041626F7574205072696E7465720090
:103010004368616E67652046696C616D656E74001A
:103020004C6576656C696E6720546F6F6C730043F6
:103030006F6E66696775726174696F6E0054656D55
:103040007065726174757265004D6F74696F6E00A2
:10305000537461727420486F7374205072696E7477
:1030600000526573756D65205072696E740043611E
:103070006E63656C204F626A6563740054756E659B
:103080000053746F70205072696E740050617573D4
:1030900065205072696E7400496E666F20536372CA
:1030A00065656E003F005374617274205072696EE2
:1030B000740043616E63656C005072696E74004306
:1030C000616E6E6F7420656E7465722073756264D4
:1030D00069723A200002202E2E004D61696E002197
:1030E00000486F74656E6420746F6F20636F6C644A
:1030F000004261636B0050726F63656564004F66E8
:1031000066004F6E00536F667420456E6473746F73
:103110007073004D6F74696F6E0044697361626C07
:1031200065205374657070657273004D38340042C9
:103130006564204C6576656C696E67004732385A65
:10314000004732385900486F6D65204000473238DB
:1031500058004175746F20486F6D65004732380024
:103160004D61696E0050726568656174202420426B
:1031700065640050726568656174202420456E6442
:103180000054656D706572617475726500436F6F90
:103190006C646F776E0050726568656174202400FE
:1031A00046616E20537065656400426564004E6F31
:1031B0007A7A6C65004D61696E00546F74616C00C1
:1031C0004261627973746570205A00466C6F7700B3
:1031D00046616E20537065656400426564004E6F01
:1031E0007A7A6C65005370656564004D61696E00A4
:1031F000486F6D696E67204661696C656400505266
:103200004553454E54004F5554006F70656E005441
:103210005249474745524544003A20004D4F5449D2
:103220004F4E203A20004F46460A003A2000666979
:103230006C616D656E74007A5F6D696E00795F6DAB
:10324000696E00785F6D696E005265706F727469A7
:103250006E6720656E6473746F702073746174752B
:10326000730A0020746F6F206C6F6E67206578742E
:10327000727573696F6E2070726576656E746564C1
:103280000A0020636F6C6420657874727573696FCF
:103290006E2070726576656E7465640A00000000C9
:1032A0000000000000000000005761726E696E6748
:1032B0003A20486F6D696E672042756D70204469D1
:1032C0007669736F72203C20310A0002020400808C
:1032D0009D4300009B430000C843000000410000E4
:1032E000004100000040000000010000000100005B
:1032F0008000555555000000400033333300AAAA22
:103300002A004992240000002000C7711C009999EE
:103310001900D1451700555515003BB1130024493C
:10332000120011111100000010000F0F0F00E33800
:103330000E0043790D00CCCC0C00C3300C00E8A289
:103340000B0064210B00AAAA0A00703D0A009DD858
:103350000900427B090092240900DCD30800888818
:1033600008001042080000000800F0C1070087872D
:10337000070075500700711C07003EEB0600A1BC5A
:1033800006006990060066660600703E0600611839
:10339000060017F4050074D105005BB00500B2907B
:1033A0000500627205005555050078390500B81E04
:1033B0000500050505004EEC040087D40400A1BDFE
:1033C000040090A7040049920400C17D0400EE6946
:1033D0000400C7560400444404005C320400082181
:1033E000040041100400000004003FF00300F8E076
:1033F000030026D20300C3C30300CCB503003AA8E0
:1034000003000A9B0300388E0300C08103009F75F0
:103410000300D0690300505E03001D5303003448CD
:103420000300913D03003333030016290300381FC6
:10343000030097150300300C0300030303000BFA8D
:10344000020049F10200BAE802005CE002002DD857
:1034500002002DD0020059C80200B0C0020031B9EC
:103460000200DAB10200AAAA0200A0A30200BC9CDA
:103470000200FA9502005C8F0200DF88020082825F
:103480000200457C02002776020027700200436A92
:1034900002007C640200D05E02003F590200C85363
:1034A0000200FFFDFCFAF8F6F4F2F0EEECEAE9E7D0
:1034B000E5E3E1E0DEDCDAD9D7D5D4D2D0CFCDCB8D
:1034C000CAC8C7C5C3C2C0BFBDBCBAB9B7B6B4B31A
:1034D000B2B0AFADACAAA9A8A6A5A4A2A1A09E9D7A
:1034E0009C9A99989795949392908F8E8D8B8A89B8
:1034F00088878684838281807F7E7D7B7A797877D6
:10350000767574737271706F6E6D6C6B6A696867D3
:10351000666564636261605F5E5D5C5B5A595858C2
:103520005756555453525150504F4E4D4C4B4A4A9A
:103530004948474646454443424241403F3E3E3D5E
:103540003C3B3B3A39383837363535343332323113
:1035500030302F2E2E2D2C2B2B2A292928272726B9
:10356000252524232322212120201F1E1E1D1C1C53
:103570001B1B1A19191818171616151514131312E0
:10358000121111100F0F0E0E0D0D0C0C0B0A0A0963
:1035900009080807070606050504040303020201DB
:1035A000000000809D4300009B430000C8430000D2
:1035B0000000000000000000000053657474696E94
:1035C00067732053746F72656400290A0020627962
:1035D0007465733B20637263200053657474696E75
:1035E00067732053746F72656420280045455052FC
:1035F0004F4D20496E697469616C697A65640A008F
:1036000048617264636F6465642044656661756CCB
:10361000742053657474696E6773204C6F616465C0
:10362000640020286D6D2900203B204C6576656C78
:10363000696E67200020204D3432302053004175E0
:10364000746F20426564204C6576656C696E670016
:1036500020460020480020204D3134352053004DB5
:103660006174657269616C20686561747570207041
:103670006172616D65746572730046696C616D6538
:103680006E742072756E6F75742073656E736F72D1
:1036900000204A00202047323920572049002020AE
:1036A0004D3134392043203B20556E6974732069B5
:1036B0006E2043656C736975730A0054656D70659F
:1036C00072617475726520556E69747300202047AD
:1036D0003231203B004C696E65617220556E697411
:1036E0007300454550524F4D206461746173697A8F
:1036F00065206572726F722E0A0053746F72656472
:103700002073657474696E6773207265747269657D
:1037100076656400290A002062797465733B206332
:10372000726320002073746F726564207365747413
:10373000696E6773207265747269657665642028A6
:1037400000454550524F4D20435243204572726F01
:103750007200202863616C63756C61746564292153
:103760000A0020213D2000454550524F4D20435234
:1037700043206D69736D61746368202D2028737414
:103780006F7265642920002053697A653A200049E8
:103790006E6465783A20000000FA430000FA4300A6
:1037A000002041000096420000A0420000A042001C
:1037B00000C8430000BA42DC050000DC05000064DC
:1037C0000000004B000000454550524F4D2056650B
:1037D0007273696F6E204572726F7200204D617254
:1037E0006C696E3D563837290A00454550524F4D99
:1037F0002076657273696F6E206D69736D61746395
:10380000682028454550524F4D3D0024F4D4305097
:10381000C38E20C2A24017828B7011127A910D8143
:103820006CD90AA861E108C7586607615143061EB2
:103830004B5D05C145A7041A411104093D98037168
:103840003931034036DB0265339102D430540280B3
:103850002E1D02632CEE01752AC501B028A00110AF
:103860002781018F2564012B244B01E0223401AC18
:10387000211F018D200D01801FFC00841EED00978B
:103880001DDF00B81CD200E61BC600201BBC006474
:103890001AB200B219A8000A19A0006A189900D13A
:1038A00017910040178B00B516840031167E00B3C7
:1038B0001579003A157300C7146F0058146A00EEAA
:1038C0001366008813630025135E00C7125B006C4B
:1038D00012570015125400C111510070114F0021F0
:1038E000114B00D61049008D1047004610440002CD
:1038F000104200C00F4000800F3E00420F3C000607
:103900000F3B00CB0E3800930E37005C0E350027BE
:103910000E3400F30D3200C10D3100900D30006007
:103920000D2E00320D2D00050D2C00D90C2B00AEF4
:103930000C2900850C29005C0C2700350C27000E93
:103940000C2600E80B2400C40B2400A00B23007DF0
:103950000B23005A0B2100390B2100180B2000F813
:103960000A1F00D90A1E00BB0A1E009D0A1D008006
:103970000A1D00630A1C00470A1B002C0A1B0011C9
:103980000A1A00F7091A00DD091900C4091900AB69
:10399000091900920917007B091800630917004CE8
:1039A00009160036091600200916000A091500F547
:1039B000081500E0081400CC081400B8081400A48E
:1039C000081400900813007D0812006B08130058BB
:1039D00008120046081200340811002308110012D2
:1039E00008110001081100F0071000E0071000D0D6
:1039F000071000C0071000B0070F00A107100091CA
:103A0000070E0083070F0074070F0065070E0057AD
:103A1000070E0049070E003B070D002E070E002081
:103A2000070D0013070D0006070D00F9060C00ED49
:103A3000060D00E0060C00D4060C00C8060C00BC05
:103A4000060C00B0060C00A4060B0099060C008DB5
:103A5000060B0082060B0077060B006C060B00615C
:103A6000060A0057060B004C060A0042060A0038F8
:103A7000060A002E060A0024060A001A060A00108A
:103A800006090007060A00FD050900F4050900EB18
:103A9000050900E2050900D9050900D0050900C79C
:103AA000050900BE050900B5050800AD050800A51B
:103AB0000509009C050800940508008C0508008491
:103AC0000508007C050800740508006C0507006502
:103AD0000508005D050700560508004E050700476C
:103AE0000507004005080038050700310507002AD2
:103AF000050700230507001C050600160507000F33
:103B00000507000805060002050700FB040600F58E
:103B1000040700EE040600E8040600E2040700DBE8
:103B2000040600D5040600CF040600C9040600C33D
:103B3000040600BD040600B7040600B1040500AC8D
:103B4000040600A6040600A00405009B04060095D8
:103B5000040500900406008A040500850405008021
:103B60000406007A04050075040500700405006B66
:103B700004050066040500610405005C04050057A7
:103B8000040500520405004D0405004804050043E7
:103B90000405003E0404003A040500350405003025
:103BA0000404002C04050027040400230405001E5F
:103BB0000404001A04040016040500110404000D96
:103BC000040400090405000404040000040400FCCB
:103BD000030400F8030400F4030400F0030400EC01
:103BE000030400E8030400E4030400E0030400DC31
:103BF000030400D8030400D4030400D0030400CC61
:103C0000030400C8030300C503030024F404D920FF
:103C10001BC40C5C0E9804C4095F0265077101F4B3
:103C200005F900FB04B30048048700C1036900588C
:103C300003550003034500BE023A008402310053DD
:103C4000022A002902250004022000E4011C00C809
:103C5000011900AF011700980114008401130071CD
:103C60000110006101100051010E0043010D0036EA
:103C7000010B002B010B0020010B00150109000CAA
:103C800001090003010800FB000800F3000800EB35
:103C9000000700E4000600DE000600D8000600D29F
:103CA000000600CC000500C7000500C2000500BDED
:103CB000000400B9000400B5000400B1000400AD28
:103CC000000400A9000400A5000300A20003009F57
:103CD0000004009B0003009800030095000200937D
:103CE000000300900003008D0002008B0003008899
:103CF0000002008600020084000300810002007FB1
:103D00000002007D0002007B0002007900020077C3
:103D100000010076000200740002007200010071D0
:103D20000002006F0002006D0001006C0002006ADA
:103D300000010069000200670001006600010065E3
:103D400000010064000200620001006100010060E7
:103D50000001005F0002005D0001005C0001005BEB
:103D60000001005A000100590001005800010057ED
:103D700000010056000100550001005400010053ED
:103D800000000053000100520001005100010050EA
:103D90000001004F0001004E0000004E0001004DE8
:103DA0000001004C0001004B0000004B0001004AE4
:103DB00000010049000100480000004800010047E0
:103DC00000010046000000460001004500000045DB
:103DD00000010044000100430000004300010042D4
:103DE00000000042000100410000004100010040CD
:103DF0000001003F0000003F0001003E0000003EC7
:103E00000001003D0000003D0001003C0000003CBE
:103E10000000003C0001003B0000003B0001003AB4
:103E20000000003A000100390000003900010038AC
:103E300000000038000000380001003700000037A3
:103E40000001003600000036000000360001003599
:103E5000000000350000003500010034000000348F
:103E60000000003400010033000000330000003384
:103E70000001003200000032000000320001003179
:103E8000000000310000003100010030000000306F
:103E9000000000300001002F0000002F0000002F64
:103EA0000000002F0001002E0000002E0000002E58
:103EB0000001002D0000002D0000002D0000002D4D
:103EC0000001002C0000002C0000002C0000002C41
:103ED0000001002B0000002B0000002B0000002B35
:103EE0000001002A0000002A0000002A0000002A29
:103EF000000100290000002900000029000000291D
:103F0000000000290001002800000028000000280F
:103F10000000002800000028000100270000002702
:103F200000000027000000270000002700010026F5
:103F300000000026000000260000002600000026E9
:103F400000010025000000250000002500000025DC
:103F500000000025000000250001002400000024CE
:103F600000000024000000240000002400010023C1
:103F700000000023000000230000002300000023B5
:103F800000000023000000230001002200000022A6
:103F90000000002200000022000000220000002299
:103FA000000100210000002100000021000000218C
:103FB000000000210000002100000021000100207D
:103FC0000000002000000020000000200000002071
:103FD0000000002000000020000000200001001F61
:103FE0000000001F0000001F0000001F0000001F55
:103FF0000000001F0000001F0001001E0000001E46
:104000000000001E0000001E0000003930000033D8
:1040100025000087190000B00F0000DB080000BD7C
:10402000040000740200003F01000020436F756E21
:104030007420583A004265640045310045006265CD
:1040400064002C2073797374656D2073746F7070C5
:10405000656421204865617465725F49443A2000B7
:1040600048656174696E67204661696C65640048E3
:10407000656174696E67206661696C6564004D31C5
:1040800031322053687574646F776E001000C90276
:1040900010012C014001220170011801B0010E0134
:1040A000F00104015002FA00B002F0003003E60013
:1040B000D003DC009004D2007005C800A006BE004A
:1040C0000008B400B009AA00D00BA000600E960052
:1040D00060118C000015820020197800C01D6E0050
:1040E000A0226400B0275A00902C500000314600F6
:1040F000E0343C0010383200903A2800603C1E004A
:10410000A03D1400803E0A00203F00004572723A34
:10411000204D415854454D50004D415854454D5047
:1041200020747269676765726564004572723A202F
:104130004D494E54454D50004D494E54454D50202B
:1041400074726967676572656400544845524D41F1
:104150004C2052554E4157415900546865726D616B
:104160006C2052756E61776179000A0A0020205A2E
:104170005F4D494E3A002020595F4D494E3A00208C
:1041800020585F4D494E3A00202F002042403A000F
:1041900020403A0020573A0020573A00496E766195
:1041A0006C69642065787472756465720A007C3C81
:1041B0003E5E2B3D3F2F5B5D3B2C2A225C00436122
:1041C0006E6E6F74206F70656E20737562646972B5
:1041D00020004D6564696120496E697420466169FB
:1041E0006C0053442063617264206F6B0A006F702F
:1041F000656E526F6F74206661696C65640A007643
:104200006F6C756D652E696E6974206661696C6589
:10421000640A004E6F20534420636172640A000AEE
:104220004D3234004D32332025730041425300504B
:104230004C41002E0A006F70656E206661696C65E6
:10424000642C2046696C653A200046696C652073D1
:10425000656C65637465640A002053697A653A2069
:104260000046696C65206F70656E65643A20004594
:104270004E4420535542524F5554494E450A002250
:1042800020706F73002220706172656E743A220094
:10429000535542524F5554494E452043414C4C20B2
:1042A0007461726765743A220053756263616C6C65
:1042B000204F766572666C6F77004578636565643C
:1042C0006564206D617820535542524F5554494ED4
:1042D000452064657074683A002E0A0044656C6578
:1042E00074696F6E206661696C65642C2046696C28
:1042F000653A200046696C652064656C6574656488
:104300003A005344207072696E74696E6720627956
:10431000746520004E6F74205344207072696E746F
:10432000696E670A002F6175746F25632E670057E9
:10433000726974696E6720746F2066696C653A20D3
:1043400000667265736800646F696E670020666955
:104350006C653A20004E6F772000FD555555555538
:104360005FFFFFFFFFFFFFFFFFFFFE0000000000F9
:104370003FFFFFFFFFFFFFFFFFFFFD000007FFFF05
:10438000FFFFFFFFFFFFFFFFFFFFFE07C0055555C3
:104390005555555FFFFFFFFFFFFFFC0A2006000099
:1043A0000000003FFFFFFFFFFFFFFE1410050000AD
:1043B00007FFFFFFFFFFFFFFFFFFFC28080607C006
:1043C0000555555555555FFFFFFFFE5404040A205F
:1043D0000600000000003FFFFFFFFC600406141011
:1043E00005000007FFFFFFFFFFFFFE500404280841
:1043F0000607C00555555555555FFC600406540425
:10440000040A200600000000003FFE54041C600463
:104410000614100500000000001FFC28082E5004A0
:104420000428080607C00001F03FFE141054600481
:10443000065404040A200002081FFC0A20665404E3
:104440001C60040614100005043FFE07C054280831
:104450002E5004042808000A021FFC00002E14102D
:104460005460040654040015013FFE00001C0A209D
:104470006654041C60040018011FFC00000607C0FD
:104480005428082E50040014013FFE0000040000D0
:104490002E14105460040018011FFCFFFFFE0000E2
:1044A0001C0A206654041C15013FFED5555400001B
:1044B0000607C05428082A0A021FFC841046000080
:1044C0000400002E14105105043FFEC41044FFFFE9
:1044D000FE00001C0A206102881FFC841046D5558E
:1044E0005400000607C05101F03FFE8410448410C0
:1044F0004600000400002A00001FFCC41046C4103F
:1045000044FFFFFE00001C00003FFE8410448410A6
:1045100046D5555400000000001FFCD555568410A8
:104520004484104600000000003FFCFFFFFCC41064
:1045300046C41044FFFFFFFFFF9FFE0000068410EB
:1045400044841046D555555555BFFD555554D55540
:104550005684104484104104109FFFFFFFFCFFFFAE
:10456000FCC41046C410410411BFFFFFFFFE000051
:104570000684104484104104109FFFFFFFFD555531
:1045800054D5555684104104109FFFFFFFFFFFFFD5
:10459000FCFFFFFCC410410411BFFFFFFFFFFFFF42
:1045A000FE00000684104104109FFFFFFFFFFFFF85
:1045B000FD555554D555555555BFFFFFFFFFFFFF1E
:1045C000FFFFFFFCFFFFFFFFFF9FFFFFFFFFFFFF5E
:1045D000FFFFFFFE00000000003FFFFFFFFFFFFFA7
:1045E000FFFFFFFD55555555555FFFFFFFFFFFFFCF
:1045F000FFFFFFFFFFFFFFFFFFFFFFFFFFFFFFFFCB
:10460000FFFFFFFFFFFFFFFFFFFFFFFFFFFFFFFFBA
:10461000FFFFFFFFFFFFFFFFFFFFFFFFFFFFFFFFAA
:10462000FFFFFFFFFFFFFFFFFFFFE02EFB7DFBFB18
:10463000CFC1DFBB3EC0E1FE3C1FFDEE7B39F9F38D
:10464000CF9EDFBB3EDFDEFCDDE7FDEE3BBBF9EBE3
:10465000D7BF5FBB5EDFDEFDEDF7FDEEBBD3FAEB50
:10466000B73FDFBB4EDFDFFFCDF3FDEEDBC7FAEB7D
:10467000BB7FC03B6EC0E3FF1DF3FDEECBEFFADB6B
:10468000BB7FDFBB66DFF8FFCDF3FDEEEBEFFB5B3F
:10469000033F5FBB76DFFE7FEDF3FDEEF3EFFB5BE9
:1046A00079BEDFBB7ADFDE7DEDF7FDEEF3EFFBBA1F
:1046B000FD9EDFBB7CDFDEFDCDE7FDEEFBEFFBBA51
:1046C000FDC1DFBB7EC0E0FE1C1F6D61726C696EB8
:1046D00066772E6F726700322E302E395F4457375F
:1046E0002E342E36001FFFFFFFFFFFFF600000008B
:1046F0000001FF400000000000FF800000000000FB
:104700007F83CF00000C303F87FF80000C301F8676
:104710007980000C000F8C30C7838C30E78C30CF51
:10472000C7CC31F38C30DCECEC33B98C30D86C6C0A
:1047300033198C30D06C0C33198C30D86C0C331985
:104740008C30DC6C0E3B198C30CF7C079F198C3081
:10475000C77C038F194000000000000260000000C9
:104760000000061FFFFFFFFFFFF870012C01900102
:104770002701B0012201C0011D01F0011801100242
:10478000130130020E016002090190020401C0020F
:10479000FF000003FA004003F5008003F000D0039F
:1047A000EB002004E6007004E100E004DC004005BA
:1047B000D700C005D2004006CD00D006C800800753
:1047C000C3003008BE00F008B900C009B400B00A48
:1047D000AF00B00BAA00D00CA500000EA000500F37
:1047E0009B00C01096005012910000148C00C01560
:1047F0008700B0178200B0197D00D01B7800001E22
:10480000730040206E0090226900F024640040276D
:104810005F0090295A00E02B5500102E50002030E8
:104820004B0010324600E033410090353C00103719
:10483000370070383200A0392D00B03A2800A03B74
:104840002300603C1E00103D1900903D1400103EF6
:104850000F00703E0A00C03E0500003F0000403FD0
:10486000FBFF803FF6FFC03FF1FF2020506C616EE0
:104870006E657242756666657242797465733A2038
:10488000002046726565204D656D6F72793A200093
:1048900020436F6D70696C65643A204170722032FC
:1048A0003820323032320A00204C61737420557047
:1048B00064617465643A20323032322D30342D30E8
:1048C00033207C20417574686F723A2054696E7988
:1048D0004D616368696E657333440A004D61726CA3
:1048E000696E20322E302E395F4457372E342E36E3
:1048F0000A0020536F667477617265205265736594
:10490000740A00205761746368646F67205265738E
:1049100065740A002042726F776E206F75742052A2
:10492000657365740A002045787465726E616C2049
:1049300052657365740A00506F77657255700A008E
:1049400073746172740A004739310A47315A350A63
:104950004739300A4D38340A4D31303453300A4D1E
:104960003134305330004D31303031006572726F68
:10497000722077726974696E6720746F2066696C43
:10498000650A00446F6E6520736176696E67206604
:10499000696C652E0A004D323900456E6473746F80
:1049A000707300255320256320256320256320256F
:1049B0006300205A3A0020593A0020583A00656EA8
:1049C0006473746F7073206869743A20000000216A
:1049D00000240027002A002D0030003300010100D0
:1049E00000040107010A0100002200250028002B15
:1049F000002E003100340002010000050108010B07
:104A000001000020002300260029002C002F003286
:104A10000000010000030106010901050505050765
:104A20000508080808020202020A0A080804040429
:104A30000401010101010101010303030303030355
:104A400003040707070C0C0C0C0C0C0C0C020202E4
:104A50000206060606060606060B0B0B0B0B0B0BD7
:104A60000B01021020200808102040102040800276
:104A700001020108040201010204081020408080A4
:104A80004020100804020180040201804020100828
:104A90000402010804020101020408102040800100
:104AA0000204081020408000000A0B02090C0D0EC1
:104AB00008070304010000000000000000000000DF
:104AC00000000000000000000000000000000000E6
:104AD00000000012111000000000000000000000A3
:104AE00000000000000000000000000000004D6F0A
:104AF00076652025736D6D004D6F766520302E3103
:104B00006D6D004D6F766520316D6D004D6F766572
:104B10002031306D6D004D6F7665204178697300EE
:104B20004D6F7665204578747275646572004D6FBF
:104B30007665205A004D6F76652059004D6F766579
:104B40002058002F422B424368616E6765204669FA
:104B50006C616D656E7400556E6C6F6164204669A2
:104B60006C616D656E74004C6F61642046696C61A8
:104B70006D656E740050726568656174204375736D
:104B8000746F6D0050726568656174202400426125
:104B9000636B005072696E742066726F6D204D6594
:104BA00064696100FFFFFF726573756D65640044A1
:104BB00069736D69737300526573756D696E670013
:104BC00073686F7700627574746F6E0062656769F1
:104BD0006E0044697361626C6552756E6F75740026
:104BE00050757267654D6F726500506175736564CD
:104BF00000436F6E74696E7565004C6F616420468A
:104C0000696C616D656E74205400496E73657274D1
:104C10002066696C616D656E7420616E64207365D9
:104C20006E64204D3130380A00220A00556E6B6EDA
:104C30006F776E20636F6D6D616E643A2022002085
:104C400042002050006F6B00204500205A00205980
:104C50000020204D39322058005374657073207045
:104C6000657220756E69740020746F6F206C6F6EB2
:104C70006720657874727573696F6E2070726576DF
:104C8000656E7465640A0020636F6C6420657874D7
:104C9000727573696F6E2070726576656E74656487
:104CA0000A00486F6D6520257325732573204669BA
:104CB0007273740020453A00205A3A0020593A0095
:104CC000583A006F6B0A00526573656E643A2000B3
:104CD000544D334420435231305632205265616482
:104CE000792E005072696E74696E672E2E2E0050F8
:104CF00072696E7420506175736564006E6F7469BB
:104D00006669636174696F6E2000F001920211247C
:104D10001FBECFEFD1E2DEBFCDBF00E00CBF84B736
:104D20008093741A14BE0FB6F894A8958091600011
:104D3000886180936000109260000FBE13E0A0E0D5
:104D4000B2E0EEEAF4EE02E00BBF02C007900D9273
:104D5000A23BB107D9F72AE1A2EBB3E001C01D9253
:104D6000A437B207E1F716E2C6E8D6E200E006C0D3
:104D700021970109802FFE010F94B86EC538D10725
:104D800080E00807A9F70F94785B0D9445720C94A6
:104D9000000090E080E00895CF93DF93C0912C094C
:104DA000D0912D0981E0CE31D105E4F020E030E052
:104DB00040E05FE3609128097091290980912A09F8
:104DC00090912B090F94C16E0F942D706C1B7D0B6D
:104DD00077FF03C071956195710981E063307105BA
:104DE0000CF080E0DF91CF910895CF93DF93DB014A
:104DF000F9019C919130C1F0943080F094509C93D3
:104E00008830D1F480819181009771F0019791836E
:104E10008083480F591FEA01188206C08C3539F487
:104E20009C5F9C93943041F4DF91CF9108958B3334
:104E300039F781E08C93F8CF20813181B9016F5F20
:104E40007F4F71836083420F531FEA018883808103
:104E500091818F3591056CF7E7CF0F931F9381E018
:104E600000915B1810915C1820915D1830915E18CC
:104E700040915718509158186091591870915A18CC
:104E8000041715072607370708F480E01F910F91D4
:104E9000089590E080E008952091DA05833021F4B0
:104EA00025FD0CC024FD0CC030E0A90102C05595C1
:104EB00047958A95E2F7CA018170089581E00895C7
:104EC00080E008958091F50584FD0BC08091F70581
:104ED00087FD07C09091F805937081E019F480E098
:104EE000089581E00895082E000C990BFC01E55E01
:104EF000F54BE491EE2391F0F0E0EE0FFF1FEF5F32
:104F0000F54BA591B4912C918F59954BFC0184914F
:104F1000282381E090E021F480E0089580E090E093
:104F20000895082E000C990BFC01E55EF54BE49109
:104F3000F0E0EE0FFF1FE353F64BA591B4912C91D7
:104F40008F59954BFC018491822391E009F490E004
:104F5000892F0895CF92DF92EF92FF92CF93DF9344
:104F6000EC01CC80DD80EE80FF8027E137EB41ED66
:104F700058EBC701B6010F94217187FD23C023E0D0
:104F800030E04BE953E4C701B6010F94CF67181620
:104F9000CCF0C880D980EA80FB8027E137EB41ED77
:104FA00058EBC701B6010F94217187FD0BC0C1E01A
:104FB00023E030E84DE953E4C701B6010F94CF6711
:104FC00018160CF4C0E08C2FDF91CF91FF90EF907A
:104FD000DF90CF900895BC01990F880B990B0F9427
:104FE000D6672091ED063091EE064091EF06509184
:104FF000F0060F9435682091E5063091E606409161
:10500000E7065091E8060F94C16E0895BC01990F10
:10501000880B990B0F94D6672091E9063091EA0628
:105020004091EB065091EC060F9435682091E10613
:105030003091E2064091E3065091E4060F94C16E70
:1050400008952FEB280F2A3108F047C0E22FF0E037
:105050008091F5059091F605A091F705B091F805BE
:1050600004C0B695A795979587952A95D2F780FDA8
:1050700002C081700895E552FA4FE081EE2341F1BC
:105080008091700A9091710AE80FF92FF11D8081CB
:1050900090ED980F9A3030F08E3251F48181805328
:1050A0008A3098F4F093CB05E093CA0581E0089527
:1050B0008D3211F08B3249F4818190ED980F9A3046
:1050C00088F38E3211F48281EACFF0E0E0E0EACF9B
:1050D0001092CB051092CA05E9CF80E008950E9496
:1050E0002128882341F081E02091CA053091CB0529
:1050F000232B09F480E0089510926A0A80916F07CB
:1051000090917007A0917107B091720780936B071F
:1051100090936C07A0936D07B0936E070895E2EB30
:10512000F9E09491981739F0319699E0E83CF90745
:10513000C1F780E0089581E00895269A2E9A089597
:10514000EF92FF920F931F93CF93DF93EC018B01AC
:105150007A018A859B858617970731F08881998126
:105160000F94F1501B870A87B701888199810F94AA
:10517000B7432E813F81820F932F911D9F838E8392
:1051800090E080E0DF91CF911F910F91FF90EF9021
:1051900008959F92AF92BF92CF92DF92EF92FF92CB
:1051A0000F931F93CF93DF93EC018B01942EA52EC9
:1051B0008A859B858617970731F0888199810F949E
:1051C000F1501B870A8788859985019649F5BC802F
:1051D0000A818E81080FC880D980D6015596ED913D
:1051E000FC91C6011995B80EE92CFA2C10E0F701D4
:1051F00021917F01211127C08E819F81810F911DF7
:105200009F838E8390E080E0DF91CF911F910F917B
:10521000FF90EF90DF90CF90BF90AF909F90089558
:105220000E811F81692D7A2D888199810F94B74352
:10523000800F912F911D288539852817390738F659
:1052400081E090E0E1CF4B2D602FC6010F944951D2
:10525000080F180FCCCFDF92EF92FF920F931F939E
:10526000CF93DF93EC01D62E1CAD0BAD7C0184E017
:10527000E80EF11CE98DFA8DC7011995412F480FF1
:105280002D2D602FC7010F9449519BAD890F8BAF16
:1052900081E090E0DF91CF911F910F91FF90EF900F
:1052A000DF9008950F931F9380932E02803208F0B1
:1052B00046C090911306891724F091E0980F9093BF
:1052C000130641E050E0082E02C0440F551F0A9417
:1052D000E2F7052E000C660B770B00910F0610917C
:1052E00010062091110630911206402351236223AB
:1052F000732391E0452B462B472B09F490E09093C4
:10530000A71187FD1FC0282F082E000C330B3F93D9
:105310008F938AEC9CE09F938F938AED9CE09F9300
:105320008F931F920E9479D38DB79EB707960FB6C1
:10533000F8949EBF0FBE8DBF1F910F9108951092DC
:10534000A711DFCF1F910F910D947652CF93DF936A
:10535000C0912C09D0912D09209729F1609128093D
:105360007091290980912A0990912B090F942D7031
:105370006E5F7F4F24976C177D07ACF470937A07AC
:10538000609379070F942949605E70448D4F9F4F59
:1053900060937B0770937C0780937D0790937E07D3
:1053A000DF91CF91089510927B0710927C071092A5
:1053B0007D0710927E07F4CFAB01BC0140935B18D0
:1053C00050935C1860935D1870935E1884EC99E1BB
:1053D0000C9499E1BC01990F880B990B0D94293B12
:1053E0002F923F924F925F926F927F928F929F92F5
:1053F000AF92BF92CF92DF92EF92FF921F93CF9323
:10540000DF93CDB7DEB72C970FB6F894DEBF0FBE93
:10541000CDBF7A011901DC012D913D914D915C9137
:105420002D833E834F835887FB01408051806280EB
:1054300073808090F2119090F311A090F411B090CD
:10544000F511A50194016D817E818F8198850F945E
:10545000CF6781110EC011E0A30192016091F61196
:105460007091F7118091F8119091F9110F94CF6715
:10547000811110E0D1012D913D914D915C912987D1
:105480003A874B875C87F701C080D180E280F38048
:1054900020910A0230910B0240910C0250910D02B2
:1054A000C701B6010F94CF67882309F44EC0C0929C
:1054B0000A02D0920B02E0920C02F0920D0280914F
:1054C000FE119091FF11A0910012B0910112409134
:1054D000F6115091F7116091F8117091F9118092C5
:1054E000280A9092290AA0922A0AB0922B0A409385
:1054F0002C0A50932D0A60932E0A70932F0AC092A3
:10550000300AD092310AE092320AF092330A809344
:10551000340A9093350AA093360AB093370A20E0F4
:1055200030E040E05FE36091D5117091D611809139
:10553000D7119091D8110F94356869837A838B8342
:105540009C83CE0101960F9426192D813E814F81B7
:1055500058852093280A3093290A40932A0A5093A9
:105560002B0A40922C0A50922D0A60922E0A7092B9
:105570002F0AD1012D913D914D915C916091340A9A
:105580007091350A8091360A9091370A0F94C16E56
:105590006093340A7093350A8093360A9093370AE1
:1055A00011112FC020E030E0A90169857A858B8533
:1055B0009C850F94CF67811133C060E070E088EC68
:1055C00092E469837A838B839C83CE0101960F9446
:1055D00026192C960FB6F894DEBF0FBECDBFDF9113
:1055E000CF911F91FF90EF90DF90CF90BF90AF9041
:1055F0009F908F907F906F905F904F903F902F90F3
:1056000008952AEF3EE74AE25FE36091D911709175
:10561000DA118091DB119091DC110F943568D1CFB4
:1056200060E070E080EA91E4CCCF8091CA0590916F
:10563000CB05009731F04AE050E070E060E00D9457
:10564000EA6560E070E0CB01089580917A0A82FFFC
:105650000BC063E683EB9DE00E944FBE0F9435497B
:105660000E9428C781E0089580E008958091CA05CE
:105670009091CB05009731F04AE050E070E060E097
:105680000D94BC6460E070E0CB010895CF93DF938C
:10569000EB010E946F28882319F00E94362BEB0142
:1056A000CE01DF91CF9108950E94362B97FD0CC05B
:1056B0000E94362B6F3F71058105910509F034F486
:1056C0000E94362B862F089580E008958FEF08956D
:1056D000CF93C62F0E946F28882319F0CF910C9486
:1056E000542B8C2FCF9108958091CA059091CB05B2
:1056F000892B41F00E94542B91E0811101C090E070
:10570000892F089591E0FCCFCF93DF93C82FD62F38
:105710000E946F28882321F0DF91CF910C94742B85
:105720008C2F0E942128811101C08D2FDF91CF91F4
:1057300008950E94362BCB010895CF93DF9390916B
:10574000A81193FD56C0C82F89E40E946F288823B2
:1057500009F452C00E94542B90E01816190614F454
:1057600081E090E026E0289FF001299FF00D1124B0
:10577000E55CF64F82819381D0E08C38910514F07E
:105780008CE890E090932D0980932C090E94A62923
:1057900060912C0970912D09072E000C880B990B34
:1057A0000F94D667209128093091290940912A0940
:1057B00050912B090F94217160E018168CF488E049
:1057C0009EE10E944FBE61E06C278C2F0F94E70989
:1057D000CC2349F060E08D2FDF91CF910C942BE723
:1057E00089EF9DE1EECF8CEC96E2909320178093A9
:1057F0001F17DF91CF91089583E50E946F28D82F5E
:10580000811107C0CC23A9F382E50E946F28882369
:1058100081F30E94992BB1CFCF93DF93EB010E94CC
:105820006F28882321F0DF91CF910C94992BCE0122
:10583000DF91CF9108950F931F93CF938091CA0565
:105840009091CB050097E9F0FC018F01C1912C2FBD
:105850002F7D81F0C53411F0C536B9F7F8011082FB
:1058600070E060E00F945E63F801C083CF911F91F8
:105870000F91089570E060E0CF911F910F910D940A
:105880005E6360E070E0CB01F1CFCF92DF92EF92E8
:10589000FF926A017B010E946F28882331F0FF90FC
:1058A000EF90DF90CF900C941B2CC701B601FF90B6
:1058B000EF90DF90CF900895119800C09091020171
:1058C00087FD9095917090930001119A00C000C0DF
:1058D000119800C09091020186FD9095917090936F
:1058E0000001119A00C000C0119800C090910201FF
:1058F00085FD9095917090930001119A00C000C0B1
:10590000119800C09091020184FD90959170909340
:105910000001119A00C000C0119800C090910201CE
:1059200083FD9095917090930001119A00C000C082
:10593000119800C09091020182FD90959170909312
:105940000001119A00C000C0119800C0909102019E
:1059500081FD9095917090930001119A00C000C054
:10596000119800C080910201817080930001119A0A
:1059700000C000C0089520E030E040E05FE36091A7
:105980004C0A70914D0A80914E0A90914F0A0F94E3
:10599000C16E0F942D70CB0108952F923F924F92BC
:1059A0005F926F927F928F929F92AF92BF92CF92AF
:1059B000DF92EF92FF920F931F93CF93DF93162FF7
:1059C000072F242EFC0180809180A280B380C50126
:1059D000B40120E13EE040E050E00F94136EE22E6F
:1059E000D32EC22FD32F8CE3482E512C612C712C37
:1059F000C501B401A30192010F94136EC62E372E78
:105A0000CA01B901A30192010F94136EF62E772EED
:105A1000222059F1C501B40120E831E541E050E010
:105A20000F94136E69017F92FF92CE0168E170E0DE
:105A30000F94906E9F938F933F932F9387E990E2FB
:105A40009F938F930F931F930F946667EDB7FEB7E5
:105A50003A960FB6F894FEBF0FBEEDBF88E0FAE0AD
:105A6000CF16D104C8F089E017C0209741F53F92C6
:105A7000CF927F936F938BE890E29F938F930F93D6
:105A80001F930F9466678DB79EB708960FB6F8946C
:105A90009EBF0FBE8DBF85E0DF91CF911F910F910B
:105AA000FF90EF90DF90CF90BF90AF909F908F903E
:105AB0007F906F905F904F903F902F900895C436E5
:105AC000D105A8F47F936F93DF92EF928FE790E276
:105AD0009F938F930F931F930F946667EDB7FEB755
