:100000000C94A63A0C94E63A0C94E63A0C94E63A30
:100010000C94E63A0C94E63A0C94E63A0C94E63AE0
:100020000C94E63A0C94E63A0C94E63A0C94E63AD0
:100030000C94E63A0C94E63A0C94E63A0C94E63AC0
:100040000C94E63A0D94072E0C94E63A0C94E63A9A
:100050000C94E63A0D94A82C0C94E63A0D949E95D7
:100060000C94E63A0C94EC790C94E2790C94E63A10
:100070000C94E63A0C94E63A0C94E63A0C94E63A80
:100080000C94E63A0C94E63A0C94E63A0C94E63A70
:100090000C94E63A0C94E63A0C94E63A0C94E63A60
:1000A0000C94E63A0C94E63A0C94E63A0C94E63A50
:1000B0000C94E63A0C94E63A0C94E63A0C94E63A40
:1000C0000C94E63A0C94E63A0C94E63A0C94E63A30
:1000D0000C94E63A0C94E63A0C94E63A0C94E63A20
:1000E0000C94E63A084AD73B3BCE016E84BCBFFD78
:1000F000C12F3D6C74319ABD56833DDA3D00C77FF8
:1001000011BED9E4BB4C3E916BAAAABE0000008090
:100110003F05A84CCDB2D44EB93836A9020C50B91F
:10012000918688083CA6AAAA2ABE000000803F0744
:10013000634236B79BD8A71A39685618AEBAAB5582
:100140008C1D3CB7CC5763BD6DEDFD753EF6177247
:1001500031BF000000803F08000000BE9224491219
:100160003EABAAAA2ABECDCCCC4C3E00000080BE3D
:10017000ABAAAAAA3E00000000BF000000803F001A
:1001800000000000084178D3BB4387D1133D190E0E
:100190003CC3BD4282AD2B3E68EC8276BED98FE176
:1001A000A93E4C80EFFFBE01C4FF7F3F000000006E
:1001B00000000C948C7C0C941DD20C942B7D0C9420
:1001C00066CE0C9440E70C946ECE0C949D7C0C94FF
:1001D000A47C0C9422FC0C94FEC90C94897C0D9494
:1001E0002F120C94F4D50C94A2CF0C9484550C943B
:1001F0009CD10D94BC1D0D940D6F0C94907C0C94AF
:1002000020D80C9428CE0C94827A0D940D700C9406
:1002100069C90C9444CF0D94E76E0C94D9CC0C941E
:1002200007CD0D94071C0C948E7A0C949A7C0C9438
:10023000F5670C94D3C60D9447120C94897D0C94E9
:10024000B1F20C94B27D0C94E1D40C94E9D40C94EA
:10025000C0C80C946AC60D9479190D944D120C9473
:1002600033CB0C94F1E70D947D1D0C94B3D20C9418
:100270003FD70C9453D80C940DCD0C94DDD40D9431
:10028000DD6E0C94F3C90C94A5CD0C94D1CE0D94D5
:10029000F16E0C9412D60C94EED70C94D2EC0C9414
:1002A00059D80D94C20B0C9447C60D94C86E0C948B
:1002B00012CA0D94F6100D9411120C94F0420C9485
:1002C000AED50C943F680C940DCA0C94687A0C94CB
:1002D00099FF0C948CCC0C94D5D40C943B680C9462
:1002E000B07A0C9428EC0C9474CE0C94967A0C94FE
:1002F000F8FD0C94E5D40D941C060D94E41C0C94AC
:10030000D4C80D94096F0C94B87C0D9410130C9400
:10031000F7670D94BA9F0D9437110D9403170D9440
:10032000A01C0C941D7D0C9452C90C94137D0D944B
:1003300029120C94BF7D0C94ACE80D94ED6E0C94D6
:100340000ACD0C94ECD50C946D7D0C94E2CD0C94FC
:1003500048D80C94A0C80C9429610C94E2C80C9461
:10036000C7420C943D680C94AACA0C9422C90C9400
:1003700080C90C9407D80C947B7D0D94CE6E0C94A0
:10038000EDD40C9452430C9434700C942CCE0D94F8
:10039000D7100C947DCC0D94FF6E0C9473C60C9406
:1003A00037EC0C94F0C80D94D26E0C941BD60D94BF
:1003B000366F0C9442D70C94B57C0C94D9CE0C9427
:1003C000A3FF0C946BD70C9410CD0C9404C90C941F
:1003D000BAC60C94D4F90C94597A0D94F56E0C9419
:1003E00061680C9478CC0C94937C0D94FE1A0C9458
:1003F000ECCD0C94FE3A0C943CF20D9453120C94F8
:10040000C4CC0C94B17C0C9489E10C943BF90C9411
:1004100068CE0C946ACE0C945F7D0C94013B0C94D6
:100420001B680D9478040C9470CE0C94D2D10D946A
:10043000DA6E0C9416F70D9441120C94BAF50C94E4
:1004400078C80C94D7670C945CE40C94EB3F0D9443
:1004500065100C94AAC80C9472D80D94036F0C9478
:10046000E5D60D943B120C9417680C9463680C94B9
:10047000D5CE0C948FD50D947C190C9487CC0C940C
:100480005BCC0D94D4120D94F6180C94986C0C94CB
:1004900075D80C94A57D0D94086F0C94F1D40D942F
:1004A00015170C9419680C9420F10D94636F0C943B
:1004B000AB7C0C9468D80C948CD70D94646F0C941E
:1004C00032EC0C945F680C9494D70D9463130C94E5
:1004D00015490C945BD70C948DDE0C9458E30D9465
:1004E0001D120C949D7A0C94F7C90D949C9F0C944A
:1004F00026D60C94597C0D9435120C9456D80C9435
:10050000F6F70C94BBFF0C942A7A0C9430C90C9427
:10051000A87A0C94EF5B0C946FD80C94B53F0D94B3
:10052000871E0D947F1C0C948A7A0C94A77C0C94E3
:10053000977D0C9472CE0C94CB670C947E7A0C94BD
:10054000927A0C9439CB0D94D66E0C94EC7C0C946E
:10055000BDD90C94D5D70C942ECB0C942DEC0C94C7
:1005600065D80D9484100C94A17C0C946DD80C94D7
:100570009CF80C945FD80C943EC90C94777A0C9438
:10058000BCD70C94F5D40C94443C0C94397D0C9459
:1005900029CB0C94867A0C94F0CC0C94B1FA0D947F
:1005A0008F1D0C94913F0D948D010C94CC7D0C9477
:1005B000633B0C94477D0D94D00D0C9424E60C9471
:1005C000967C0C94D1D40C94B3F40D94E36E0D94FA
:1005D00056110C945E7C0C94D9D40C94AE7C0C9483
:1005E000D4DB0D94FB6E0D944D070C948AEF0C94A4
:1005F00043DD0D9478190D94FF1C0C94537D0D94DC
:100600007F130C94D97D0C9465E00C9418C90D945B
:1006100009170C947FEE0D9423120C9462D80C945D
:100620008CC80C94663B0C942FE50D9417120C9417
:100630006CCE0D94B3160C9482CC0D945A130D9479
:10064000EA1B0C9454DF0C945CD84E414E494E4941
:100650005459494E46CDCCCC3D0AD7233C17B7D18F
:100660003877CC2B329595E6241FB14F0A00002035
:10067000410000C84200401C4620BCBE4CCA1B0EB4
:100680005AAEC59D7400407A10F35A00A0724E18FD
:10069000090010A5D4E80000E87648170000E40B34
:1006A00054020000CA9A3B000000E1F505000080FA
:1006B000969800000040420F000000A08601000054
:1006C00000102700000000E80300000000640000A4
:1006D0000000000A00000000000100000000002CE3
:1006E00076D888DC674F0823DFC1DFAE59E1B1B7A8
:1006F00096E5E3E453C63AE651997696E8E6C28475
:1007000026EB898C9B62ED407C6FFCEFBC9C9F408C
:10071000F2BAA56FA5F490055A2AF75C936B6CF9B1
:10072000676DC11BFCE0E40D47FEF520E6B500D087
:10073000ED902E0300943577050080841E0800009C
:10074000204E0A000000C80C333333330F986E126A
:10075000831141EF8D2114893BE65516CFFEE6DB70
:1007600018D1844B381BF77C1D901DA4BBE42420BA
:100770003284725E228100C9F124ECA1E53D27504C
:1007800072696E7465722073746F70706564206432
:10079000756520746F206572726F72732E204669C2
:1007A0007820746865206572726F7220616E6420B3
:1007B000757365204D39393920746F2072657374F3
:1007C0006172742E202854656D7065726174757243
:1007D000652069732072657365742E2053657420DB
:1007E00069742061667465722072657374617274D5
:1007F000696E67290A001000C90210012C0140012E
:10080000220170011801B0010E01F0010401500233
:10081000FA00B002F0003003E600D003DC009004E0
:10082000D2007005C800A006BE000008B400B009E0
:10083000AA00D00BA000600E960060118C0000157D
:10084000820020197800C01D6E00A0226400B0272D
:100850005A00902C500000314600E0343C00103823
:100860003200903A2800603C1E00A03D1400803EFB
:100870000A00203F00006001F4017001EA019001CC
:10088000E001B001D601D001CC010002C20130026A
:10089000B8016002AE019002A401D0029A012003C7
:1008A000900170038601C0037C0130047201A00432
:1008B000680120055E01B005540160064A01200769
:1008C0004001F0073601F0082C01100A2201500BFC
:1008D0001801C00C0E01500E04013010FA00201255
:1008E000F0005014E600C016DC007019D200501C55
:1008F000C800501FBE007022B400B025AA00F02826
:10090000A000202C9600302F8C0010328200A034E2
:100910007800F0366E00E0386400803A5A00403BC0
:100920005500E03B5000F03C4600C03D3C00603EBE
:100930003200E03E2800303F1E00503F1900703F5B
:100940001400A03F0A00C03F0000D03FF6FFE03F88
:10095000ECFF24F404D9201BC40C5C0E9804C409D9
:100960005F0265077101F405F900FB04B300480458
:100970008700C10369005803550003034500BE0208
:100980003A008402310053022A00290225000402A1
:100990002000E4011C00C8011900AF0117009801F4
:1009A0001400840113007101100061011000510155
:1009B0000E0043010D0036010B002B010B0020013E
:1009C0000B00150109000C01090003010800FB00E0
:1009D0000800F3000800EB000700E4000600DE005A
:1009E0000600D8000600D2000600CC000500C700B3
:1009F0000500C2000500BD000400B9000400B500F8
:100A00000400B1000400AD000400A9000400A5002A
:100A10000300A20003009F0004009B000300980055
:100A200003009500020093000300900003008D0076
:100A300002008B0003008800020086000200840090
:100A40000300810002007F0002007D0002007B00A5
:100A500002007900020077000100760002007400B5
:100A6000020072000100710002006F0002006D00C0
:100A700001006C0002006A000100690002006700CA
:100A800001006600010065000100640002006200D0
:100A9000010061000100600001005F0002005D00D4
:100AA00001005C0001005B0001005A0001005900D8
:100AB00001005800010057000100560001005500D8
:100AC00001005400010053000000530001005200D7
:100AD000010051000100500001004F0001004E00D4
:100AE00000004E0001004D0001004C0001004B00D1
:100AF00000004B0001004A000100490001004800CD
:100B000000004800010047000100460000004600C8
:100B100001004500000045000100440001004300C1
:100B200000004300010042000000420001004100BB
:100B3000000041000100400001003F0000003F00B4
:100B400001003E0000003E0001003D0000003D00AD
:100B500001003C0000003C0000003C0001003B00A4
:100B600000003B0001003A0000003A00010039009B
:100B70000000390001003800000038000000380093
:100B80000100370000003700010036000000360089
:100B9000000036000100350000003500000035007F
:100BA0000100340000003400000034000100330074
:100BB000000033000000330001003200000032006A
:100BC000000032000100310000003100000031005F
:100BD00001003000000030000000300001002F0054
:100BE00000002F0000002F0000002F0001002E0049
:100BF00000002E0000002E0001002D0000002D003E
:100C000000002D0000002D0001002C0000002C0031
:100C100000002C0000002C0001002B0000002B0025
:100C200000002B0000002B0001002A0000002A0019
:100C300000002A0000002A0001002900000029000D
:100C40000000290000002900000029000100280000
:100C500000002800000028000000280000002800F4
:100C600001002700000027000000270000002700E7
:100C700000002700010026000000260000002600DA
:100C800000002600000026000100250000002500CD
:100C900000002500000025000000250000002500C0
:100CA00001002400000024000000240000002400B3
:100CB00000002400010023000000230000002300A6
:100CC0000000230000002300000023000000230098
:100CD000010022000000220000002200000022008B
:100CE000000022000000220001002100000021007D
:100CF0000000210000002100000021000000210070
:100D00000000210001002000000020000000200061
:100D10000000200000002000000020000000200053
:100D20000000200001001F0000001F0000001F0045
:100D300000001F0000001F0000001F0000001F0037
:100D400001001E0000001E0000001E0000001E002A
:100D5000000024F4D43050C38E20C2A24017828BEE
:100D60007011127A910D816CD90AA861E108C758F7
:100D70006607615143061E4B5D05C145A7041A4134
:100D80001104093D9803713931034036DB026533A4
:100D90009102D4305402802E1D02632CEE01752A7C
:100DA000C501B028A001102781018F2564012B24E3
:100DB0004B01E0223401AC211F018D200D01801F69
:100DC000FC00841EED00971DDF00B81CD200E61B5E
:100DD000C600201BBC00641AB200B219A8000A1990
:100DE000A0006A189900D117910040178B00B51622
:100DF000840031167E00B31579003A157300C714CC
:100E00006F0058146A00EE13660088136300251300
:100E10005E00C7125B006C12570015125400C1111E
:100E2000510070114F0021114B00D61049008D1058
:100E300047004610440002104200C00F4000800FDF
:100E40003E00420F3C00060F3B00CB0E3800930ED5
:100E500037005C0E3500270E3400F30D3200C10D53
:100E60003100900D3000600D2E00320D2D00050D6B
:100E70002C00D90C2B00AE0C2900850C29005C0C31
:100E80002700350C27000E0C2600E80B2400C40BAD
:100E90002400A00B23007D0B23005A0B2100390BEB
:100EA0002100180B2000F80A1F00D90A1E00BB0AF7
:100EB0001E009D0A1D00800A1D00630A1C00470ACF
:100EC0001B002C0A1B00110A1A00F7091A00DD0981
:100ED0001900C4091900AB091900920917007B0910
:100EE0001800630917004C0916003609160020097E
:100EF00016000A091500F5081500E0081400CC08D2
:100F00001400B8081400A4081400900813007D0809
:100F100012006B081300580812004608120034082B
:100F20001100230811001208110001081100F00738
:100F30001000E0071000D0071000C0071000B00735
:100F40000F00A107100091070E0083070F00740720
:100F50000F0065070E0057070E0049070E003B07FC
:100F60000D002E070E0020070D0013070D000607C9
:100F70000D00F9060C00ED060D00E0060C00D4068D
:100F80000C00C8060C00BC060C00B0060C00A40641
:100F90000B0099060C008D060B0082060B007706ED
:100FA0000B006C060B0061060A0057060B004C068E
:100FB0000A0042060A0038060A002E060A00240625
:100FC0000A001A060A001006090007060A00FD05B5
:100FD0000900F4050900EB050900E2050900D9053F
:100FE0000900D0050900C7050900BE050900B505BF
:100FF0000800AD050800A50509009C05080094053A
:1010000008008C050800840508007C0508007405AC
:1010100008006C050700650508005D05070056051A
:1010200008004E0507004705070040050800380581
:101030000700310507002A050700230507001C05E6
:101040000600160507000F05070008050600020543
:101050000700FB040600F5040700EE040600E804A0
:101060000600E2040700DB040600D5040600CF04F6
:101070000600C9040600C3040600BD040600B70448
:101080000600B1040500AC040600A6040600A00496
:1010900005009B04060095040500900406008A04E0
:1010A000050085040500800406007A040500750427
:1010B0000500700405006B0405006604050061046A
:1010C00005005C04050057040500520405004D04AA
:1010D000050048040500430405003E0404003A04EA
:1010E000050035040500300404002C040500270425
:1010F0000400230405001E0404001A04040016045E
:101100000500110404000D04040009040500040492
:10111000040000040400FC030400F8030400F403CA
:101120000400F0030400EC030400E8030400E403FB
:101130000400E0030400DC030400D8030400D4032B
:101140000400D0030400CC030400C8030300C5035B
:10115000030024F404D9201BC40C5C0E9804C409B9
:101160005F0265077101F405F900FB04B300480450
:101170008700C10369005803550003034500BE0200
:101180003A008402310053022A0029022500040299
:101190002000E4011C00C8011900AF0117009801EC
:1011A000140084011300710110006101100051014D
:1011B0000E0043010D0036010B002B010B00200136
:1011C0000B00150109000C01090003010800FB00D8
:1011D0000800F3000800EB000700E4000600DE0052
:1011E0000600D8000600D2000600CC000500C700AB
:1011F0000500C2000500BD000400B9000400B500F0
:101200000400B1000400AD000400A9000400A50022
:101210000300A20003009F0004009B00030098004D
:1012200003009500020093000300900003008D006E
:1012300002008B0003008800020086000200840088
:101240000300810002007F0002007D0002007B009D
:1012500002007900020077000100760002007400AD
:10126000020072000100710002006F0002006D00B8
:1012700001006C0002006A000100690002006700C2
:1012800001006600010065000100640002006200C8
:10129000010061000100600001005F0002005D00CC
:1012A00001005C0001005B0001005A0001005900D0
:1012B00001005800010057000100560001005500D0
:1012C00001005400010053000000530001005200CF
:1012D000010051000100500001004F0001004E00CC
:1012E00000004E0001004D0001004C0001004B00C9
:1012F00000004B0001004A000100490001004800C5
:1013000000004800010047000100460000004600C0
:1013100001004500000045000100440001004300B9
:1013200000004300010042000000420001004100B3
:10133000000041000100400001003F0000003F00AC
:1013400001003E0000003E0001003D0000003D00A5
:1013500001003C0000003C0000003C0001003B009C
:1013600000003B0001003A0000003A000100390093
:10137000000039000100380000003800000038008B
:101380000100370000003700010036000000360081
:101390000000360001003500000035000000350077
:1013A000010034000000340000003400010033006C
:1013B0000000330000003300010032000000320062
:1013C0000000320001003100000031000000310057
:1013D00001003000000030000000300001002F004C
:1013E00000002F0000002F0000002F0001002E0041
:1013F00000002E0000002E0001002D0000002D0036
:1014000000002D0000002D0001002C0000002C0029
:1014100000002C0000002C0001002B0000002B001D
:1014200000002B0000002B0001002A0000002A0011
:1014300000002A0000002A00010029000000290005
:1014400000002900000029000000290001002800F8
:1014500000002800000028000000280000002800EC
:1014600001002700000027000000270000002700DF
:1014700000002700010026000000260000002600D2
:1014800000002600000026000100250000002500C5
:1014900000002500000025000000250000002500B8
:1014A00001002400000024000000240000002400AB
:1014B000000024000100230000002300000023009E
:1014C0000000230000002300000023000000230090
:1014D0000100220000002200000022000000220083
:1014E0000000220000002200010021000000210075
:1014F0000000210000002100000021000000210068
:101500000000210001002000000020000000200059
:10151000000020000000200000002000000020004B
:101520000000200001001F0000001F0000001F003D
:1015300000001F0000001F0000001F0000001F002F
:1015400001001E0000001E0000001E0000001E0022
:10155000000024F4D43050C38E20C2A24017828BE6
:101560007011127A910D816CD90AA861E108C758EF
:101570006607615143061E4B5D05C145A7041A412C
:101580001104093D9803713931034036DB0265339C
:101590009102D4305402802E1D02632CEE01752A74
:1015A000C501B028A001102781018F2564012B24DB
:1015B0004B01E0223401AC211F018D200D01801F61
:1015C000FC00841EED00971DDF00B81CD200E61B56
:1015D000C600201BBC00641AB200B219A8000A1988
:1015E000A0006A189900D117910040178B00B5161A
:1015F000840031167E00B31579003A157300C714C4
:101600006F0058146A00EE136600881363002513F8
:101610005E00C7125B006C12570015125400C11116
:10162000510070114F0021114B00D61049008D1050
:1016300047004610440002104200C00F4000800FD7
:101640003E00420F3C00060F3B00CB0E3800930ECD
:1016500037005C0E3500270E3400F30D3200C10D4B
:101660003100900D3000600D2E00320D2D00050D63
:101670002C00D90C2B00AE0C2900850C29005C0C29
:101680002700350C27000E0C2600E80B2400C40BA5
:101690002400A00B23007D0B23005A0B2100390BE3
:1016A0002100180B2000F80A1F00D90A1E00BB0AEF
:1016B0001E009D0A1D00800A1D00630A1C00470AC7
:1016C0001B002C0A1B00110A1A00F7091A00DD0979
:1016D0001900C4091900AB091900920917007B0908
:1016E0001800630917004C09160036091600200976
:1016F00016000A091500F5081500E0081400CC08CA
:101700001400B8081400A4081400900813007D0801
:1017100012006B0813005808120046081200340823
:101720001100230811001208110001081100F00730
:101730001000E0071000D0071000C0071000B0072D
:101740000F00A107100091070E0083070F00740718
:101750000F0065070E0057070E0049070E003B07F4
:101760000D002E070E0020070D0013070D000607C1
:101770000D00F9060C00ED060D00E0060C00D40685
:101780000C00C8060C00BC060C00B0060C00A40639
:101790000B0099060C008D060B0082060B007706E5
:1017A0000B006C060B0061060A0057060B004C0686
:1017B0000A0042060A0038060A002E060A0024061D
:1017C0000A001A060A001006090007060A00FD05AD
:1017D0000900F4050900EB050900E2050900D90537
:1017E0000900D0050900C7050900BE050900B505B7
:1017F0000800AD050800A50509009C050800940532
:1018000008008C050800840508007C0508007405A4
:1018100008006C050700650508005D050700560512
:1018200008004E0507004705070040050800380579
:101830000700310507002A050700230507001C05DE
:101840000600160507000F0507000805060002053B
:101850000700FB040600F5040700EE040600E80498
:101860000600E2040700DB040600D5040600CF04EE
:101870000600C9040600C3040600BD040600B70440
:101880000600B1040500AC040600A6040600A0048E
:1018900005009B04060095040500900406008A04D8
:1018A000050085040500800406007A04050075041F
:1018B0000500700405006B04050066040500610462
:1018C00005005C04050057040500520405004D04A2
:1018D000050048040500430405003E0404003A04E2
:1018E000050035040500300404002C04050027041D
:1018F0000400230405001E0404001A040400160456
:101900000500110404000D0404000904050004048A
:10191000040000040400FC030400F8030400F403C2
:101920000400F0030400EC030400E8030400E403F3
:101930000400E0030400DC030400D8030400D40323
:101940000400D0030400CC030400C8030300C50353
:10195000030024F404D9201BC40C5C0E9804C409B1
:101960005F0265077101F405F900FB04B300480448
:101970008700C10369005803550003034500BE02F8
:101980003A008402310053022A0029022500040291
:101990002000E4011C00C8011900AF0117009801E4
:1019A0001400840113007101100061011000510145
:1019B0000E0043010D0036010B002B010B0020012E
:1019C0000B00150109000C01090003010800FB00D0
:1019D0000800F3000800EB000700E4000600DE004A
:1019E0000600D8000600D2000600CC000500C700A3
:1019F0000500C2000500BD000400B9000400B500E8
:101A00000400B1000400AD000400A9000400A5001A
:101A10000300A20003009F0004009B000300980045
:101A200003009500020093000300900003008D0066
:101A300002008B0003008800020086000200840080
:101A40000300810002007F0002007D0002007B0095
:101A500002007900020077000100760002007400A5
:101A6000020072000100710002006F0002006D00B0
:101A700001006C0002006A000100690002006700BA
:101A800001006600010065000100640002006200C0
:101A9000010061000100600001005F0002005D00C4
:101AA00001005C0001005B0001005A0001005900C8
:101AB00001005800010057000100560001005500C8
:101AC00001005400010053000000530001005200C7
:101AD000010051000100500001004F0001004E00C4
:101AE00000004E0001004D0001004C0001004B00C1
:101AF00000004B0001004A000100490001004800BD
:101B000000004800010047000100460000004600B8
:101B100001004500000045000100440001004300B1
:101B200000004300010042000000420001004100AB
:101B3000000041000100400001003F0000003F00A4
:101B400001003E0000003E0001003D0000003D009D
:101B500001003C0000003C0000003C0001003B0094
:101B600000003B0001003A0000003A00010039008B
:101B70000000390001003800000038000000380083
:101B80000100370000003700010036000000360079
:101B9000000036000100350000003500000035006F
:101BA0000100340000003400000034000100330064
:101BB000000033000000330001003200000032005A
:101BC000000032000100310000003100000031004F
:101BD00001003000000030000000300001002F0044
:101BE00000002F0000002F0000002F0001002E0039
:101BF00000002E0000002E0001002D0000002D002E
:101C000000002D0000002D0001002C0000002C0021
:101C100000002C0000002C0001002B0000002B0015
:101C200000002B0000002B0001002A0000002A0009
:101C300000002A0000002A000100290000002900FD
:101C400000002900000029000000290001002800F0
:101C500000002800000028000000280000002800E4
:101C600001002700000027000000270000002700D7
:101C700000002700010026000000260000002600CA
:101C800000002600000026000100250000002500BD
:101C900000002500000025000000250000002500B0
:101CA00001002400000024000000240000002400A3
:101CB0000000240001002300000023000000230096
:101CC0000000230000002300000023000000230088
:101CD000010022000000220000002200000022007B
:101CE000000022000000220001002100000021006D
:101CF0000000210000002100000021000000210060
:101D00000000210001002000000020000000200051
:101D10000000200000002000000020000000200043
:101D20000000200001001F0000001F0000001F0035
:101D300000001F0000001F0000001F0000001F0027
:101D400001001E0000001E0000001E0000001E001A
:101D5000000024F4D43050C38E20C2A24017828BDE
:101D60007011127A910D816CD90AA861E108C758E7
:101D70006607615143061E4B5D05C145A7041A4124
:101D80001104093D9803713931034036DB02653394
:101D90009102D4305402802E1D02632CEE01752A6C
:101DA000C501B028A001102781018F2564012B24D3
:101DB0004B01E0223401AC211F018D200D01801F59
:101DC000FC00841EED00971DDF00B81CD200E61B4E
:101DD000C600201BBC00641AB200B219A8000A1980
:101DE000A0006A189900D117910040178B00B51612
:101DF000840031167E00B31579003A157300C714BC
:101E00006F0058146A00EE136600881363002513F0
:101E10005E00C7125B006C12570015125400C1110E
:101E2000510070114F0021114B00D61049008D1048
:101E300047004610440002104200C00F4000800FCF
:101E40003E00420F3C00060F3B00CB0E3800930EC5
:101E500037005C0E3500270E3400F30D3200C10D43
:101E60003100900D3000600D2E00320D2D00050D5B
:101E70002C00D90C2B00AE0C2900850C29005C0C21
:101E80002700350C27000E0C2600E80B2400C40B9D
:101E90002400A00B23007D0B23005A0B2100390BDB
:101EA0002100180B2000F80A1F00D90A1E00BB0AE7
:101EB0001E009D0A1D00800A1D00630A1C00470ABF
:101EC0001B002C0A1B00110A1A00F7091A00DD0971
:101ED0001900C4091900AB091900920917007B0900
:101EE0001800630917004C0916003609160020096E
:101EF00016000A091500F5081500E0081400CC08C2
:101F00001400B8081400A4081400900813007D08F9
:101F100012006B081300580812004608120034081B
:101F20001100230811001208110001081100F00728
:101F30001000E0071000D0071000C0071000B00725
:101F40000F00A107100091070E0083070F00740710
:101F50000F0065070E0057070E0049070E003B07EC
:101F60000D002E070E0020070D0013070D000607B9
:101F70000D00F9060C00ED060D00E0060C00D4067D
:101F80000C00C8060C00BC060C00B0060C00A40631
:101F90000B0099060C008D060B0082060B007706DD
:101FA0000B006C060B0061060A0057060B004C067E
:101FB0000A0042060A0038060A002E060A00240615
:101FC0000A001A060A001006090007060A00FD05A5
:101FD0000900F4050900EB050900E2050900D9052F
:101FE0000900D0050900C7050900BE050900B505AF
:101FF0000800AD050800A50509009C05080094052A
:1020000008008C050800840508007C05080074059C
:1020100008006C050700650508005D05070056050A
:1020200008004E0507004705070040050800380571
:102030000700310507002A050700230507001C05D6
:102040000600160507000F05070008050600020533
:102050000700FB040600F5040700EE040600E80490
:102060000600E2040700DB040600D5040600CF04E6
:102070000600C9040600C3040600BD040600B70438
:102080000600B1040500AC040600A6040600A00486
:1020900005009B04060095040500900406008A04D0
:1020A000050085040500800406007A040500750417
:1020B0000500700405006B0405006604050061045A
:1020C00005005C04050057040500520405004D049A
:1020D000050048040500430405003E0404003A04DA
:1020E000050035040500300404002C040500270415
:1020F0000400230405001E0404001A04040016044E
:102100000500110404000D04040009040500040482
:10211000040000040400FC030400F8030400F403BA
:102120000400F0030400EC030400E8030400E403EB
:102130000400E0030400DC030400D8030400D4031B
:102140000400D0030400CC030400C8030300C5034B
:1021500003001000C90210012C014001220170018E
:102160001801B0010E01F00104015002FA00B002A2
:10217000F0003003E600D003DC009004D2007005CC
:10218000C800A006BE000008B400B009AA00D00B29
:10219000A000600E960060118C00001582002019CE
:1021A0007800C01D6E00A0226400B0275A00902C59
:1021B000500000314600E0343C0010383200903AC4
:1021C0002800603C1E00A03D1400803E0A00203F15
:1021D00000006001F4017001EA019001E001B0012A
:1021E000D601D001CC010002C2013002B801600268
:1021F000AE019002A401D0029A0120039001700365
:102200008601C0037C0130047201A004680120052E
:102210005E01B005540160064A0120074001F00745
:102220003601F0082C01100A2201500B1801C00CD5
:102230000E01500E04013010FA002012F00050146C
:10224000E600C016DC007019D200501CC800501FF8
:10225000BE007022B400B025AA00F028A000202CF7
:102260009600302F8C0010328200A0347800F036B7
:102270006E00E0386400803A5A00403B5500E03B75
:102280005000F03C4600C03D3C00603E3200E03E65
:102290002800303F1E00503F1900703F1400A03F3F
:1022A0000A00C03F0000D03FF6FFE03FECFF5A5F5E
:1022B0006D6F76655F636F6D700A00616C736F2080
:1022C000656E61626C6564290A00206E6F7420641B
:1022D000697361626C65642E205368617265642065
:1022E00077697468002E0A00004732385800473278
:1022F0003859004732385A004D3834004732395087
:1023000034525400473239503454004732380A4767
:10231000323643504930004732380A47323643504C
:102320004931004732394A3000473239503354304E
:10233000004732395032425430004732380A4D316A
:10234000393049300A4D31303949300A4732395035
:10235000310A4D31303453300A4D3134305330006E
:102360004732380A4D31393049310A4D3130394917
:10237000310A47323950310A4D31303453300A4D29
:102380003134305330004732394E50310047323902
:102390005031430047323949004732395430004701
:1023A0003239543100473239532D310047323949DF
:1023B0003939390A473239503242543000473239BC
:1023C0004E50310047323950335430004732395083
:1023D0003452540047323950345254004732394451
:1023E000004732394100473239570041786973203C
:1023F00000206D696E3A00206D61783A000C270567
:1024000000000601000400060100060500000006A9
:102410000004005A5F53544F505F50494E005A5FBA
:10242000535445505F50494E005A5F4D494E5F50DE
:10243000494E005A5F454E41424C455F50494E005F
:102440005A5F4449525F50494E00595F53544F50B0
:102450005F50494E00595F535445505F50494E00FC
:10246000595F4D494E5F50494E00595F454E4142BC
:102470004C455F50494E00595F4449525F50494EA8
:1024800000585F53544F505F50494E00585F5354AB
:1024900045505F50494E00585F4D494E5F50494E80
:1024A00000585F454E41424C455F50494E00585FD1
:1024B0004449525F50494E00535549434944455F92
:1024C00050494E00534552564F335F50494E0053CA
:1024D0004552564F325F50494E00534552564F3188
:1024E0005F50494E00534552564F305F50494E00A1
:1024F000534453530053445F4445544543545F5041
:10250000494E004D4F534645545F435F50494E007E
:102510004D4F534645545F425F50494E004D4F5317
:102520004645545F415F50494E0054454D505F3021
:102530005F43535F50494E004C45445F50494E0045
:102540004C43445F50494E535F5253004C43445FE9
:1025500050494E535F454E41424C45004C43445F09
:1025600050494E535F4437004C43445F50494E53EB
:102570005F4436004C43445F50494E535F4435003E
:102580004C43445F50494E535F4434004B494C4CDC
:102590005F50494E004845415445525F4245445FB3
:1025A00050494E004845415445525F305F50494EB6
:1025B0000046494C5F52554E4F55545F50494E00AE
:1025C00046414E5F50494E0045315F535445505F80
:1025D00050494E0045315F454E41424C455F5049A0
:1025E0004E0045315F4449525F50494E0045315FCE
:1025F00043535F50494E0045305F535445505F5040
:10260000494E0045305F454E41424C455F50494E72
:102610000045305F4449525F50494E00444F474C9B
:1026200043445F53434B00444F474C43445F4D4F3B
:1026300053490042544E5F454E430042544E5F455D
:102640004E435F454E0042544E5F454E3200425469
:102650004E5F454E31004245455045525F50494E10
:10266000004156525F53535F50494E004156525FEE
:1026700053434B5F50494E004156525F4D4F5349B3
:102680005F50494E004156525F4D49534F5F50498C
:102690004E0054454D505F4245445F50494E0054F2
:1026A000454D505F315F50494E0054454D505F30AD
:1026B0005F50494E0046494C57494454485F504981
:1026C0004E0054584430005258443000434F4D4D52
:1026D000554E49434154494F4E0044525952554E6C
:1026E000004552524F525300494E464F0045434811
:1026F0004F004572726F722077726974696E67203D
:10270000746F20454550524F4D210A00363726033D
:102710003C3D380E2E303E121A1C180A430908445C
:10272000000153544F505045442E20005072696EA2
:102730007465722073746F707065642064756520B1
:10274000746F206572726F72732E204669782074E0
:102750006865206572726F7220616E6420757365A2
:10276000204D39393920746F207265737461727429
:102770002E202854656D70657261747572652069CC
:10278000732072657365742E2053657420697420FC
:1027900061667465722072657374617274696E67C4
:1027A000290A004E6F20436865636B73756D20774F
:1027B000697468206C696E65206E756D6265722C37
:1027C000204C617374204C696E653A20004E6F2076
:1027D000436865636B73756D2077697468206C69F5
:1027E0006E65206E756D6265722C204C617374206D
:1027F0004C696E653A2000636865636B73756D2084
:102800006D69736D617463682C204C617374204C26
:10281000696E653A20004C696E65204E756D626583
:1028200072206973206E6F74204C617374204C6940
:102830006E65204E756D6265722B312C204C617374
:1028400074204C696E653A20004D3131300053657B
:102850007269616C20737461747573206D69736D36
:10286000617463680A00776169740A0053442072D6
:10287000656164206572726F720A00486F74656EDC
:10288000642049646C652054696D656F75740048F7
:102890006F74656E642049646C652054696D656F62
:1028A00075740A002121204B494C4C2063617573DB
:1028B0006564206279204B494C4C20627574746FBA
:1028C0006E2F70696E0A002121204B494C4C206309
:1028D000617573656420627920746F6F206D756314
:1028E0006820696E6163746976652074696D65201E
:1028F0002D2063757272656E7420636F6D6D616EED
:10290000643A20007061757365004D3630300020E8
:1029100066696C616D656E745F72756E6F7574203B
:102920000066696C616D656E745F72756E6F75744B
:1029300020540046696C616D656E7452756E6F75DA
:10294000742054004D656469612052656D6F766531
:1029500064004D6564696120496E736572746564D5
:10296000004D313030305300627573793A20706118
:102970007573656420666F7220696E7075740A00E5
:10298000627573793A2070617573656420666F7241
:1029900020757365720A00627573793A2070726FE0
:1029A00063657373696E670A00506C6561736520B7
:1029B0005265736574005052494E54455220484147
:1029C0004C5445440025533A20255300706F7765D9
:1029D000726F6666004B494C4C45442E2000507285
:1029E000696E7465722068616C7465642E206B6911
:1029F0006C6C28292063616C6C6564210A00656336
:102A0000686F3A004572726F723A00204A002020C7
:102A10004D3432312049002020473239204939399C
:102A2000390A00556E696669656420426564204C08
:102A30006576656C696E67006163746976650A0026
:102A4000696E00002053797374656D2076312E30E5
:102A50003120002020207C0A004E414E0020202EF4
:102A600020202000207C0020666F7220004C434410
:102A70003A0A004353563A0A003A0A0A000A4265E3
:102A80006420546F706F677261706879205265704E
:102A90006F7274004732384C3000446F6E652E0AF6
:102AA000003F496E76616C69642073746F72616770
:102AB0006520736C6F742E0A3F5573652030207447
:102AC0006F20003F454550524F4D2073746F726127
:102AD0006765206E6F7420617661696C61626C65F8
:102AE0002E0A00446F6E652E0A003F496E76616CB7
:102AF00069642073746F7261676520736C6F742EE4
:102B00000A3F557365203020746F20003F454550C3
:102B1000524F4D2073746F72616765206E6F742021
:102B2000617661696C61626C652E0A0047323920FA
:102B300050322066696E69736865642E0A005859C0
:102B4000206F757473696465207072696E74616258
:102B50006C65207261646975732E0A003F4572725C
:102B60006F7220696E20427573696E6573732043BE
:102B7000617264206D6561737572656D656E742E2A
:102B80000A004D616E75616C6C792070726F6269BC
:102B90006E6720756E726561636861626C65207036
:102BA0006F696E74732E0A004D657368207A6572C2
:102BB0006F65642E0A0044656661756C74207374D9
:102BC0006F7261676520736C6F7420302073656C61
:102BD00065637465642E0A004170706C79696E6774
:102BE0002074657374207061747465726E2E0A0AA5
:102BF000003F496E76616C69642028512920746514
:102C00007374207061747465726E2E202830207485
:102C10006F2032290A0A0020696E76616C6964614E
:102C20007465642E0A0A004C6F636174696F6E7379
:102C300000456E74697265204D6573680053746158
:102C40006E6461726420446576696174696F6E3A7E
:102C500020004D65616E204D657368204865696789
:102C600068743A200023206F662073616D706C6574
:102C7000733A200020616E642074616B65206120CE
:102C80006D6561737572656D656E742E0A006D6D8C
:102C900020746869636B2E0A00427573696E6573F0
:102CA000732043617264206973200052656D6F76F2
:102CB000652026204D65617375726520426564004C
:102CC00052656D6F7665207368696D00506C616345
:102CD00065207368696D20756E646572206E6F7A09
:102CE0007A6C65000A4D657368206F6E6C79207090
:102CF00061727469616C6C7920706F70756C61744D
:102D000065642E0A004D65736820506F696E7420EB
:102D10004D656173757265642061743A20004D657C
:102D20006173757265004D65617375726500506CF5
:102D3000616365205368696D2026204D6561737558
:102D4000726500506C616365205368696D202620B0
:102D50004D656173757265004D6F76696E6720749D
:102D60006F206E657874004D6573682045646974E2
:102D7000696E672053746F7070656400446F6E6590
:102D80002045646974696E67204D6573680A004464
:102D90006F6E652045646974696E67204D65736860
:102DA0000046696E652054756E696E67204D6573C7
:102DB000680028582C5929206F7574736964652040
:102DC0007072696E7461626C65207261646975739A
:102DD0002E0A004F6666736574206F7574206F66E7
:102DE00020626F756E64732E20283020746F20313E
:102DF000306D6D290A0A00496E76616C6964206D38
:102E0000617020747970652E0A0A003F2846296196
:102E100064652068656967687420666F7220426522
:102E200064204C6576656C20436F727265637469CB
:102E30006F6E206E6F7420706C61757369626C6563
:102E40002E0A0A003F43616E27742061637469761D
:102E500061746520616E6420646561637469766184
:102E60007465206174207468652073616D652074D9
:102E7000696D652E0A0A00426F746820582026206A
:102E800059206C6F636174696F6E73206D75737414
:102E9000206265207370656369666965642E0A0A3D
:102EA00000473239204A20616374696F6E20726571
:102EB00071756972657320612070726F62652E0A88
:102EC0000A003F285029686173652076616C75653A
:102ED00020696E76616C69642028302D36292E0AAF
:102EE0000A00473239205031207265717569726568
:102EF0007320612070726F62652E0A0A003F2856A7
:102F0000296572626F7365206C6576656C20696DEA
:102F1000706C61757369626C652028302D34292EC0
:102F20000A0A003F285229657065746974696F6EDA
:102F300020636F756E7420696E76616C69642028F9
:102F4000312B292E0A0A00446F696E6720473239F7
:102F5000000E2409240424FF23646F6E650A0049CF
:102F60006E73756666696369656E74206461746109
:102F70000A000000803F666672426666F042CCCC72
:102F8000334366666F43008095430000803F66666A
:102F900072426666F042CCCC334366666F43008073
:102FA00095434578747261706F6C6174696E6720C7
:102FB0006D6573682E2E2E005072696E74696E678F
:102FC000204F626A656374002553202569002F2F06
:102FD000616374696F6E3A007374617274006E6F2E
:102FE00074696669636174696F6E200070726F6DD9
:102FF00070745F00656E6400486F74656E64207461
:103000006F6F20636F6C640A0053656E64204D31EE
:10301000303820746F20726573756D650A00496ED3
:10302000736572742066696C616D656E7420616E83
:10303000642073656E64204D3130380A0052656833
:1030400065617420446F6E650052656865617469DE
:103050006E672E2E2E0052656865617400486561AA
:103060007465722054696D656F75740053656E6484
:10307000204D31303820746F2068656174206E6F88
:103080007A7A6C650A004E6F7A7A6C6520506172AC
:103090006B6564007061757365640050617573657C
:1030A000004732362043616E63656C6564004732C9
:1030B000362048656174696E67204E6F7A7A6C6558
:1030C000004732362048656174696E672042656446
:1030D0000057616974696E6720666F722068656168
:1030E0007475702E0A004669786564204C656E67B9
:1030F0007468205072696D6500446F6E652050726F
:10310000696D696E67004D616E75616C20707269E2
:103110006D696E672E2E2E004C656176696E672094
:10312000473236003F5370656369666965642058AD
:103130002C5920636F6F7264696E617465206F75BE
:1031400074206F6620626F756E64732E0A003F28CC
:10315000522965706561742076616C7565206E6FAB
:103160007420706C61757369626C653B206D75735A
:1031700074206265206174206C6561737420312E47
:103180000A003F537065636966696564206E6F7AF3
:103190007A6C652074656D706572617475726520F6
:1031A0006E6F7420706C61757369626C652E0A00B5
:1031B0003F5370656369666965642066696C616D1B
:1031C000656E742073697A65206E6F7420706C610F
:1031D000757369626C652E0A003F5370656369669A
:1031E000696564207072696D65206C656E677468CE
:1031F000206E6F7420706C61757369626C652E0A45
:10320000003F537065636966696564206E6F7A7A02
:103210006C652073697A65206E6F7420706C6175BF
:103220007369626C652E0A003F5265747261637443
:10323000696F6E204D756C7469706C696572206D74
:10324000757374206265207370656369666965646F
:103250002E0A003F53706563696669656420526594
:103260007472616374696F6E204D756C7469706CF3
:10327000696572206E6F7420706C61757369626C21
:10328000652E0A003F537065636966696564206C4A
:103290006179657220686569676874206E6F742053
:1032A000706C61757369626C652E0A0043292E0A81
:1032B000003F5370656369666965642062656420D8
:1032C00074656D7065726174757265206E6F7420BF
:1032D000706C61757369626C65202834302D00470D
:1032E0003236207374617274696E672E2E2E0A0056
:1032F0004F46460A00466164652048656967687400
:103300002000426564204C6576656C696E6720001C
:103310004661696C656420746F20656E61626C65DE
:1033200020426564204C6576656C696E670A0049C9
:103330006E76616C6964206D6573682E0A00766133
:103340006C69640A53746F7261676520736C6F7483
:103350003A2000696E004D65736820697320003F54
:10336000557365203020746F20003F496E76616C84
:1033700069642073746F7261676520736C6F742E5B
:103380000A003F454550524F4D2073746F7261677C
:1033900065206E6F7420617661696C61626C652E68
:1033A0000A0020440020204D3230302053002028D5
:1033B00044697361626C6564293A0046696C616DA9
:1033C000656E742073657474696E67730020204D98
:1033D0003230312058004D617820416363656C655F
:1033E000726174696F6E2028756E6974732F733201
:1033F000290020204D3230332058004D617820665E
:1034000065656472617465732028756E6974732FC5
:1034100073290020520020204D32303420500041CA
:103420006363656C65726174696F6E2028756E697F
:1034300074732F7332292028503C7072696E742D7A
:10344000616363656C3E20523C72657472616374A3
:103450002D616363656C3E20543C74726176656CCB
:103460002D616363656C3E29005741524E494E47BA
:1034700021204C6F77205A204A65726B206D61794C
:10348000206C65616420746F20756E77616E746561
:1034900064207061757365732E0A002054002053F8
:1034A0000020204D323035204200416476616E6349
:1034B00065642028423C6D696E5F7365676D656E5B
:1034C000745F74696D655F75733E20533C6D696E02
:1034D0005F66656564726174653E20543C6D696E1B
:1034E0005F74726176656C5F666565647261746550
:1034F0003E20583C6D61785F6A65726B3E20593C96
:103500006D61785F6A65726B3E205A3C6D61785FD1
:103510006A65726B3E20453C6D61785F6A65726BCF
:103520003E290020440020490020204D3330312026
:103530005000486F74656E64205049440020440078
:1035400020490020204D3330342050004265642053
:103550005049440050574D3A2020253464005057BC
:103560004D3A20202534640050574D3A2020253410
:10357000640050574D3A20202534640050574D3A8E
:1035800020202534640050574D3A20202534640013
:1035900050574D3A20202534640050574D3A202092
:1035A0002534640050574D3A20202534640050578C
:1035B0004D3A20202534640050574D3A20202534C0
:1035C000640050574D3A20202534640050574D3A3E
:1035D00020202534640050574D3A202025346400C3
:1035E00050574D3A20202534640050574D3A202042
:1035F000253464003A200020202020434F4D002035
:1036000020206E6F6E2D7374616E64617264205041
:10361000574D206D6F646500202020636F6D7061D1
:10362000726520696E7465727275707420656E6162
:10363000626C6564002020206F766572666C6F771F
:1036400020696E7465727275707420656E61626C4B
:103650006564003A20002020202054494D534B003F
:10366000423A2000202020205443435200413A2077
:103670000020202020544343520020202020435388
:103680003A20002020202057474D3A200050574D27
:103690003A20202534640050574D3A2020253464C8
:1036A0000047004800000088008A008C00B300B486
:1036B00000000098009A009C00A800AA00AC002816
:1036C000012A012C012020202054494D455200445C
:1036D0000045006E00800081006F00B000B10070F6
:1036E00000900091007100A000A100720020012153
:1036F00001730020697320616C736F2074696564C5
:1037000020746F20746869732070696E0054494D8D
:1037100045523143000A202E002020002020506F07
:1037200072743A200020202000202020416E616C1D
:103730006F6720696E203D2025356C64003C756EF6
:10374000757365642F756E6B6E6F776E3E00202803
:103750004125326429202000253364200050494E41
:103760003A20004F7574707574203D2000496E70CA
:10377000757420203D2000416E616C6F6720696E7A
:10378000203D2025356C640070726F74656374652C
:10379000642000202841253264292020002533643C
:1037A000200050494E3A2000C7260001C2260101E0
:1037B000B5263B00AA2643009F26450092264400DA
:1037C00085263201782633016C26340161263501C5
:1037D000562625014E261F01462621013B261D01A6
:1037E00033262301272633011C26340111261C0110
:1037F00003261801F7251A01ED252C01E2252201E7
:10380000D4251E01C8252401C0250901B1250201C6
:10381000A4250A01952508018C2529018025170179
:103820007425190168251B015C251D014C2511011A
:103830004025100138250D012A2542011D250A01C8
:103840001025070103250801F5243101F024350175
:10385000E5240B01DA240601CF240501C424040168
:10386000B8240C01AE243701A124260197240301BA
:103870008C2436018124030177243D016A24380118
:1038800060240E0155243C014A240E0140243001DD
:1038900033243E01292412011E242E011324120177
:1038A000446F6E652E0A0050756C73696E67202038
:1038B0002000556E746F756368656420005345522F
:1038C000564F206E6F74207365742075702E0A0039
:1038D0004D343320576169742043616C6C6564001A
:1038E0005761746368696E672070696E730A00645B
:1038F000697300656E0061626C65640A00656E64E0
:1039000073746F70206D6F6E69746F722000205831
:103910000020204D61783A2000200020204D696E63
:103920003A2000203B200020204D3231312053002E
:10393000203B0020550020204D363033204C0046DF
:10394000696C616D656E74206C6F61642F756E6C4F
:103950006F6164004D323453256C6454256C6400EF
:103960004739322E394525730047314625640047D3
:10397000315A257346363030004731582573592562
:10398000734633303030004D313036502569532581
:1039900069004D313039532569004D3230304425AE
:1039A00073004739322E395A2573004D3432305363
:1039B00025635A2573004732385230585900473131
:1039C0005A257346363030004739322E395A25731E
:1039D000004739322E394530004D31303953256991
:1039E000004D313930532569004D34323020533089
:1039F000205A3000203B200020204D34313320530A
:103A000000506F7765722D6C6F7373207265636FF2
:103A100076657279004F4646004F4E00203B2048A5
:103A20006F73742068616E646C696E672000203B60
:103A3000204D6F646520006D6D00203B204469734C
:103A400074616E6365200046696C616D656E7420FB
:103A500072756E6F757420003B200020496E766190
:103A60006C696420657874727564657220004732F1
:103A70002F47332062616420706172616D657465E7
:103A800072730A00536C6565702E2E2E004D65739F
:103A90006820706F696E74206F7574206F66207275
:103AA000616E67650A004D302053746F70004D31B0
:103AB0002053746F7000436C69636B20746F2052E5
:103AC0006573756D652E2E2E004E6F204D6F7665D9
:103AD0002E00456E642066696C65206C6973740AFB
:103AE00000426567696E2066696C65206C69737455
:103AF0000A004E6F206D656469610A005265737536
:103B00006D696E6720534400286E6F2066696C658E
:103B1000290043757272656E742066696C653A207F
:103B2000005072696E742074696D653A20003F43DD
:103B3000616E6E6F7420777269746520746F2049AE
:103B40004E5055540A00496E76616C696420506984
:103B50006E204D6F64650A000A53746174733A20D5
:103B600046696C616D656E7420757365643A2000FA
:103B70002C204C6F6E67657374206A6F623A200068
:103B8000546F74616C2074696D653A2000537461E0
:103B900074733A20002C204661696C65643A2000F9
:103BA0002C2046696E69736865643A20005072691A
:103BB0006E74733A200053746174733A20006F6B13
:103BC000006F666600ED26E826E126DA26CC26445C
:103BD000454255473A004D313133205300544D335F
:103BE0004420435231305632204F46462E002F2F6C
:103BF000004D31343520533C696E6465783E206F4A
:103C00007574206F662072616E67652028302D31D3
:103C1000290A0046523A0020466C6F773A2000503D
:103C2000726F7465637465642050696E0A00426146
:103C3000627973746570205A0064697300656E0060
:103C400043290A0061626C656420286D696E2074E6
:103C5000656D702000436F6C6420657874727564C4
:103C600065732061726520004D65736820706F690F
:103C70006E74206F7574206F662072616E67650ABE
:103C8000004D34323120696E636F72726563742047
:103C9000706172616D657465722075736167650A24
:103CA000004F666673657473204170706C6965645B
:103CB000004572723A20546F6F2066617221005481
:103CC0006F6F206661722066726F6D207265666527
:103CD00072656E636520706F696E740A00454550A9
:103CE000524F4D204F4B0A004D383400446F6E65E3
:103CF000207072696E74696E672066696C650A006F
:103D00004D3737004D33310020204D3230362058AA
:103D100000486F6D65206F6666736574004361705F
:103D20003A00434F4E4649475F4558504F52540062
:103D30004D4541545041434B00434F4F4C45525F1A
:103D400054454D5045524154555245004348414D0C
:103D50004245525F54454D504552415455524500DD
:103D6000424142595354455050494E4700415243F5
:103D700053004D4F54494F4E5F4D4F4445530054EF
:103D80004845524D414C5F50524F54454354494F62
:103D90004E00455854454E4445445F4D3230004333
:103DA0005553544F4D5F4649524D574152455F550B
:103DB000504C4F4144004C464E5F575249544500C9
:103DC0004C4F4E475F46494C454E414D450041558D
:103DD000544F5245504F52545F53445F53544154D3
:103DE00055530053445F575249544500524550457E
:103DF0004154004D554C54495F564F4C554D45006C
:103E00005344434152440050524F4D50545F535518
:103E100050504F525400484F53545F414354494F00
:103E20004E5F434F4D4D414E445300454D45524723
:103E3000454E43595F50415253455200434153450B
:103E40005F4C494748545F4252494748544E455396
:103E50005300544F47474C455F4C49474854530023
:103E6000534F4654574152455F504F5745520042B9
:103E700055494C445F50455243454E54004C4556BD
:103E8000454C494E475F44415441005A5F50524FA0
:103E900042450052554E4F5554004155544F4C45E4
:103EA00056454C005052494E545F4A4F42005052C2
:103EB0004F4752455353004155544F5245504F526E
:103EC000545F54454D50004155544F5245504F5248
:103ED000545F504F5300564F4C554D455452494333
:103EE00000454550524F4D0042494E4152595F46A0
:103EF000494C455F5452414E53464552005345523A
:103F000049414C5F584F4E5F584F46460046495214
:103F10004D574152455F4E414D453A4D61726C6976
:103F20006E20322E302E395F4457372E342E3620F5
:103F3000544D33442053534D444E55202841707204
:103F400020323820323032322030323A33373A3170
:103F5000372920534F555243455F434F44455F55E2
:103F6000524C3A68747470733A2F2F67697468758D
:103F7000622E636F6D2F496E73616E69747941753E
:103F8000746F6D6174696F6E2F4D61726C696E2F05
:103F9000747265652F437265616C697479447769E1
:103FA0006E5F322E302050524F544F434F4C5F566D
:103FB000455253494F4E3A312E30204D41434849E6
:103FC0004E455F545950453A544D33442043523185
:103FD0003056322045585452554445525F434F5550
:103FE0004E543A3120555549443A6365646532610F
:103FF00032662D343161322D343734382D39623107
:10400000322D6335356336326633363766660A00DD
:1040100043616E6E6F74206F70656E20737562649D
:10402000697220002569730025696D202569730078
:104030002569682025696D2025697300256964203C
:104040002569682025696D20256973002569792017
:10405000256964202569682025696D20256973001C
:10406000436F6F6C696E672E2E2E004531202553ED
:104070000042656420436F6F6C696E672E2E2E00C0
:104080004265642048656174696E672E2E2E002398
:10409000646566696E652044454641554C545F0031
:1040A000626564004B6420004B6920004B70200067
:1040B0005049442074756E696E6720646F6E6500A8
:1040C000504944204175746F74756E652066696E41
:1040D0006973686564212050757420746865206C6C
:1040E000617374204B702C204B6920616E64204BEF
:1040F0006420636F6E7374616E74732066726F6D8B
:104100002062656C6F7720696E746F20436F6E66F6
:10411000696775726174696F6E2E680A0050494450
:10412000204175746F74756E65206661696C656495
:10413000212074696D656F75740A004175746F7420
:10414000756E65206661696C6564212054696D65D2
:104150006F75742E00504944204175746F74756EEC
:1041600065206661696C6564212054656D706572B7
:10417000617475726520746F6F20686967680A00E2
:10418000504944204379636C6573002553202569A9
:104190002F256900204B643A2000204B693A20000B
:1041A000204B703A200020436C6173736963205088
:1041B0004944200A00204E6F206F76657273686F45
:1041C0006F740A002054753A2000204B753A200085
:1041D000206D61783A2000206D696E3A20002064DD
:1041E0003A200020626961733A2000486561746971
:1041F0006E672E2E2E00504944204175746F7475E1
:104200006E652073746172740A004175746F747501
:104210006E65206661696C65642E2054656D7065FD
:1042200072617475726520746F6F20686967682E9B
:1042300000504944204175746F74756E6520666145
:10424000696C6564212054656D7065726174757266
:104250006520746F6F20686967680A0050494420C0
:104260004175746F74756E650050494420417574D2
:104270006F74756E65206661696C656421204261AA
:1042800064206865617465722069640A0045727211
:104290003A207574663820666F6E74206E6F7420D5
:1042A000696E697469616C697A65642E0045727221
:1042B0003A207574663820666F6E74206E6F7420B5
:1042C000696E697469616C697A65642E0045727201
:1042D0003A207574663820666F6E74206E6F742095
:1042E000696E697469616C697A65642E0025687508
:1042F0003A25303268750025303268753A253032FB
:1043000068750025303268752725303268750025BC
:104310006875642025303268753A2530326875003A
:1043200042656400456E636C6F7375726500202092
:104330002020202020002020202000657272001FF5
:10434000E02010201020101020102020102010300D
:10435000300840048003001FE03FF03FF03FF01FB3
:10436000E01FE03FF03FF03FF00FC0078003003F49
:10437000FFF038007030FC3020FC10207810203026
:10438000102C00D02E31D02F7BD02F7BD02E31D0CF
:104390002C00D020301020781020FC1030FC303859
:1043A00000703FFFF03FFFF0380070318630238708
:1043B000102787902F87D02F03D02030102078101F
:1043C0002078102030102F03D02F87D027879023FC
:1043D00087103186303800703FFFF01FFFF81FFF55
:1043E000F804104002082002082004104008208031
:1043F0001041001041000820800410400000001F00
:10440000FFF81FFFF8FFFFFF8000018E00E19F0112
:10441000F19381399F81F99F81F99FB9F98F28F133
:104420008038018000019FFFF99174999B06A99B38
:1044300054A99B56A99B54999FFFF9FFFFFF000CBD
:104440000F00FE07022503BB017FFE08FE08FE05E4
:10445000080806000040F0C8888898781005080809
:10446000060000C0F88888888888F80505050600D9
:10447000012030F830200508080600002070F820E0
:10448000202020E00509090600FF2070A8A8B888B0
:10449000887020070505070001D86C366CD805091F
:1044A000090600FFF8A88888888888A8F8050A0AFD
:1044B0000600FE205050505088A8A88870030303BF
:1044C00006000340A040FFFFFFFFFFFFFFFFFFFFCD
:1044D000FFFFFFFFFFFFFFFFFFFFFFFF00000006E2
:1044E00005FF0107070602008080808080008003AE
:1044F0000303060105A0A0A005060606000050F86B
:104500005050F8500509090600FF2070A8A0702837
:10451000A87020050707060000C8C810204098981A
:1045200005070706000040A0A040A890680103030B
:104530000602058080800309090601FF20404080B3
:1045400080804040200309090601FF804040202070
:104550002040408005070706000020A8702070A8B2
:10456000200505050600012020F82020020303068F
:1045700001FFC04080050101060003F802020206A7
:104580000100C0C0050707060000081010204040C9
:1045900080050707060000708898A8C88870030780
:1045A0000706010040C040404040E0050707060004
:1045B00000708808102040F8050707060000F8087A
:1045C000103008887005070706000010305090F87A
:1045D0001010050707060000F880F008088870052D
:1045E0000707060000304080F0888870050707063E
:1045F0000000F808101020202005070706000070B2
:104600008888708888700507070600007088887899
:10461000081060020505060100C0C000C0C0020607
:10462000060601FFC0C000C0408003050506010169
:104630002040804020050303060002F800F803052F
:104640000506010180402040800507070600007034
:104650008810202000200507070600007088B8A8F1
:10466000B88070050707060000708888F888888879
:10467000050707060000F04848704848F00507079E
:10468000060000708880808088700507070600009B
:10469000F04848484848F0050707060000F88080C1
:1046A000F08080F8050707060000F88080F0808021
:1046B00080050707060000708880809888700507CD
:1046C00007060000888888F888888803070706019D
:1046D00000E04040404040E0050707060000381079
:1046E00010101090600507070600008890A0C0A079
:1046F0009088050707060000808080808080F8058C
:10470000070706000088D8A8888888880507070654
:1047100000008888C8A898888805070706000070E8
:10472000888888888870050707060000F08888F068
:1047300080808005070706000070888888A8906838
:10474000050707060000F08888F0A0908805070795
:104750000600007088807008887005070706000052
:10476000F8202020202020050707060000888888E0
:104770008888887005070706000088888888505058
:104780002005070706000088888888A8A850050724
:104790000706000088885020508888050707060013
:1047A0000088885020202020050707060000F80810
:1047B00010204080F80309090601FFE08080808016
:1047C000808080E005070706000080404020101030
:1047D000080309090601FFE020202020202020E016
:1047E0000503030600052050880501010600FEF8B8
:1047F000030303060105804020050505060000703F
:10480000087888780507070600008080F088888887
:10481000F005050506000070808088700507070612
:10482000000008087888888878050505060000706B
:1048300088F08070050707060000304840E04040DF
:10484000400507070600FE7088888878087005070D
:10485000070600008080F088888888030707060123
:10486000004000C0404040E00409090601FE10007D
:104870003010101010906005070706000080808837
:1048800090E09088030707060100C0404040404088
:10489000E0050505060000D0A8A8A8A8050505069E
:1048A0000000B0C888888805050506000070888863
:1048B00088700507070600FEF0888888F08080056C
:1048C00007070600FE788888887808080505050629
:1048D0000000B0C880808005050506000078807063
:1048E00008F00507070600002020F8202020180502
:1048F00005050600008888889868050505060000FB
:1049000088888850200505050600008888A8A850DA
:104910000505050600008850205088050707060099
:10492000FE88888850204080050505060000F810A4
:104930002040F80309090601FF2040404080404024
:1049400040200109090602FF8080808080808080ED
:10495000800309090601FF8040404020404040801C
:1049600005030306000248A890FF554E4C4F4144F2
:104970002046494C414D454E54004C4F4144204641
:10498000494C414D454E540046494C414D454E54CD
:10499000204348414E474500544D33442043523153
:1049A0003056322052656164792E005072696E74FF
:1049B000696E672E2E2E0063616E63656C00507207
:1049C000696E742041626F727465640055492041BC
:1049D000626F72746564004D323520500A4D323476
:1049E000005072696E742050617573656400526581
:1049F00073756D6500554920506175736500506190
:104A00007573696E672E2E2E00726573756D650065
:104A10004D32340052756E6F757420446973742082
:104A20006D6D004D6F74696F6E20456E636F6465C8
:104A3000720053656E736F72204C6F770053656E12
:104A4000736F722048696768004E6F2053656E73FC
:104A50006F720052756E6F75742053656E736F724E
:104A60000052756E6F7574204D6F6465004C6F61F8
:104A700064206D6D00556E6C6F6164206D6D004635
:104A8000696C2E204469612E004520696E206D6D91
:104A90005E33004D33303320553120452569205396
:104AA000256900504944204175746F74756E652006
:104AB0002A005049442D44202A005049442D4920C1
:104AC0002A005049442D50202A00200820466163C6
:104AD00074002008204D6178002008204D696E0088
:104AE0004F6666004F6E004175746F74656D70009F
:104AF0004D696E2054726176656C2056656C004D70
:104B0000696E2056656C6F63697479004D61782019
:104B1000452056656C004D6178205A2056656C0022
:104B20004D617820592056656C004D6178205820E1
:104B300056656C004D6178204520416363656C00CB
:104B40004D6178205A20416363656C004D61782087
:104B50005920416363656C004D61782058204163A2
:104B600063656C0054726176656C20416363656CAB
:104B7000005265747261637420416363656C004127
:104B80006363656C004D61782045204A65726B0057
:104B90004D6178205A204A65726B004D617820592A
:104BA000204A65726B004D61782058204A65726B0F
:104BB00000452073746570732F6D6D005A20537417
:104BC0006570732F6D6D00592053746570732F6D70
:104BD0006D00582053746570732F6D6D00416476BD
:104BE000616E6365642053657474696E6773003F1A
:104BF0000043616E63656C00496E6974004D343228
:104C00003800496E697469616C697A652045455060
:104C1000524F4D0046696C616D656E740054656D50
:104C200070657261747572650053746570732F6D71
:104C30006D004A65726B00416363656C65726174F7
:104C4000696F6E0056656C6F6369747900536574A3
:104C500020486F6D65204F66667365747300436FFF
:104C60006E66696775726174696F6E003F004E65AC
:104C7000787420506F696E7400446F6E65004E65E5
:104C80007874003F0043616E63656C204F626A6513
:104C90006374004E4F005945530043616E63656C69
:104CA000204F626A656374203D004D61696E004269
:104CB0006564004E6F7A7A6C650046616E205370B1
:104CC00065656400436F6E66696775726174696FCC
:104CD0006E00526573746F72652044656661756C11
:104CE0007473004C6F61642053657474696E6773EC
:104CF0000053746F72652053657474696E67730036
:104D000050726568656174202420436F6E660050A0
:104D10006F776572204F7574616765004F66660036
:104D20004F6E0052756E6F75742053656E736F729F
:104D300000416476616E6365642053657474696EC6
:104D40006773004D61696E004D3730322054256421
:104D5000004D36303020423020542564004D37302D
:104D600032203B2564004D37303120542564004DFE
:104D7000373032004D373031004D36303020423040
:104D8000004D61696E00436F6E74696E7565004F0A
:104D90006666004F6E0052756E6F75742053656EB7
:104DA000736F72005075726765206D6F7265005287
:104DB0004553554D45204F5054494F4E533A00509E
:104DC00052494E54205041555345440020204E6FC7
:104DD0007A7A6C653A20005061726B696E672E2E8C
:104DE0002E0000005761697420666F720066696C5E
:104DF000616D656E74206368616E676500746F2015
:104E00007374617274005761697420666F72006612
:104E1000696C616D656E7420756E6C6F6164000005
:104E20004E6F7A7A6C652068656174696E670050B0
:104E30006C6561736520776169742E2E2E000050B9
:104E40007265737320627574746F6E00746F20687E
:104E5000656174206E6F7A7A6C650000496E7365C7
:104E600072742066696C616D656E7400616E642099
:104E7000707265737320627574746F6E00746F2046
:104E8000636F6E74696E7565005761697420666F33
:104E9000720066696C616D656E74206C6F61640090
:104EA00000507265737320427574746F6E00746F76
:104EB00020726573756D65207072696E740000579D
:104EC00061697420666F72207072696E7400746F0D
:104ED00020726573756D652E2E2E00005761697402
:104EE00020666F720066696C616D656E7420707506
:104EF00072676500003E2000256C642E25696D00F8
:104F0000457874727564656420546F74616C003EFA
:104F100020004C6F6E67657374204A6F622054697D
:104F20006D65003E20005072696E742054696D6595
:104F300000436F6D706C65746564003A20005072B8
:104F4000696E7420436F756E74003A2000313530FD
:104F50000035004245443A20415443203130344723
:104F6000542D320052756E617761792057617463F8
:104F7000683A204F4E004D61782054656D700034C2
:104F80003530004D696E2054656D70003500453137
:104F90003A20536C696365456E6720343530C2B082
:104FA00043005053550047656E6572696300507247
:104FB0006F746F636F6C00312E3000426175640056
:104FC00032353030303000437265616C697479334A
:104FD000442052414D505300556E69666965642006
:104FE000426564204C6576656C696E67004578742F
:104FF00072756465727300310074696E796D6163F6
:1050000068696E657333642E636F6D00544D33446D
:105010002043523130563200323032322D30342D6E
:10502000303300322E302E395F4457372E342E362F
:10503000004D61726C696E005072696E7465722009
:10504000537461747300546865726D6973746F7220
:105050007300426F61726420496E666F005072691E
:105060006E74657220496E666F004D61696E004D09
:10507000313030300053746F70205072696E74009C
:10508000526573756D65205072696E7400506F774C
:105090006572204F7574616765004D313930533545
:1050A000350A4732380A47323950310A47323950C7
:1050B000330A47323953310A47323953300A4732BB
:1050C0003946302E300A473239410A4D3130345397
:1050D0003231350A4732380A4D31303953323135A1
:1050E0000A47315831353059313530463530303056
:1050F0000A47315A300A4D3530300A4D3430300AC3
:105100004D37370A4D31313720536574205A204FBF
:105110006666736574004D313036533132380A4D4E
:105120003330334338533231354530550A4D3530FD
:10513000300A4D313137205049442054756E652076
:10514000446F6E65004D3139305335350A4D31307D
:1051500034533231350A4732380A4732394C310A32
:1051600047312058313030593130304635303030C9
:105170000A47315A30004D3530300A4D3131372031
:1051800053657474696E67732053746F726564003D
:1051900053746F72652053657474696E6773005041
:1051A00072657020666F72205A2041646A7573744C
:1051B000005049442054756E650053657475700045
:1051C0004D61696E003F004261636B0053746F7004
:1051D000004E6F204D65646961005072696E7420E5
:1051E00066726F6D204D65646961004368616E672A
:1051F00065204D65646961004D32310041626F7513
:1052000074205072696E746572004368616E6765E0
:105210002046696C616D656E74004C6576656C69DD
:105220006E6720546F6F6C7300436F6E66696775AD
:10523000726174696F6E0054656D7065726174752A
:105240007265004D6F74696F6E00537461727420E3
:10525000486F7374205072696E7400526573756D77
:1052600065205072696E740043616E63656C204FF7
:10527000626A6563740054756E650053746F7020C4
:105280005072696E74005061757365205072696E5A
:105290007400496E666F2053637265656E003F004F
:1052A0005374617274205072696E740043616E634E
:1052B000656C005072696E740043616E6E6F74208D
:1052C000656E746572207375626469723A200002BB
:1052D000202E2E004D61696E002100486F74656EAE
:1052E0006420746F6F20636F6C64004261636B00B5
:1052F00050726F63656564004F6666004F6E0053C1
:105300006F667420456E6473746F7073004D6F74B4
:10531000696F6E0044697361626C652053746570D7
:1053200070657273004D38340042656420547261B8
:105330006D6D696E6700556E6966696564204265CA
:1053400064204C6576656C696E67004732385A0098
:105350004732385900486F6D652040004732385851
:10536000004175746F20486F6D65004D61696E0076
:105370005072656865617420242042656400507233
:105380006568656174202420456E640054656D7005
:105390006572617475726500436F6F6C646F776ED0
:1053A000005072656865617420240046616E205368
:1053B0007065656400426564004E6F7A7A6C6500C2
:1053C0004D61696E00546F74616C00426162797363
:1053D000746570205A00466C6F770046616E2053EA
:1053E0007065656400426564004E6F7A7A6C650092
:1053F0005370656564004D61696E0000FE0003FF37
:105400008007C7C00701E00000E00000F000007066
:105410000400700E00701F00703F80F00E00E00F5F
:1054200001E007C7C003FF8000FE0000FE0003FF8D
:105430008007C7C00F01E00E00E03F80F01F007042
:105440000E00700400700000700000F00000E00723
:1054500001E007C7C003FF8000FE000E000E000E33
:10546000000E000E000E000E000E007FC03F801FD9
:10547000000E00040004000E001F003F807FC00EDD
:10548000000E000E000E000E000E000E000E00FFBB
:10549000FFFF7F80FFC0FFC0FFC07F807F80FFC015
:1054A000FFC0FFC03F001E000C005A2056616C7503
:1054B00065004732380A4D313930205325690A4D8D
:1054C000313039205325690A4732392050310042A2
:1054D00065642054656D7000486F74656E64205477
:1054E000656D70002E2569004732395036432D0016
:1054F00048656967687420416D6F756E740041641A
:105500006A757374204D65736820486569676874AF
:105510000046696E652054756E6520436C6F736537
:105520007374004732395034540046696E65205414
:10553000756E6520416C6C0047323950345254000E
:105540004732380A473236435048256942256900B8
:1055500056616C696461746520437573746F6D2066
:105560004D657368004732380A4732364350493137
:105570000056616C6964617465204D65736820280C
:105580002429004732380A47323643504930004C0C
:105590006576656C204D65736800536964652050BD
:1055A0006F696E74730047726964204D657368207B
:1055B0004C6576656C696E6700332D506F696E744B
:1055C000204C6576656C696E67004732394A300059
:1055D000473239503352432E2569004D616E756153
:1055E0006C2046696C6C2D696E004732395032422E
:1055F000543000536D6172742046696C6C2D696E75
:1056000000473239503354300046696C6C2D696E56
:1056100020416D6F756E74004D65736820696E76FC
:10562000616C6964617465642E0A00496E666F205E
:1056300053637265656E00496E76616C696461746E
:105640006520436C6F7365737400473239490049B4
:105650006E76616C696461746520416C6C00436FA7
:105660006E74696E756520426564204D65736800CF
:105670004732395031430046696C6C2D696E204DBC
:10568000657368004275696C6420436F6C64204DDB
:10569000657368004732394E5031004275696C6459
:1056A00020437573746F6D204D6573680047323801
:1056B0000A4D31393049310A4D31303949310A47C3
:1056C000323950310A4D31303453300A4D31343093
:1056D0005330004275696C64204D6573682028243E
:1056E00029004732380A4D31393049300A4D3130BE
:1056F0003949300A47323950310A4D31303453304C
:105700000A4D313430533000473239256325690A58
:105710004D31313720004D657368202569204C6F6D
:1057200061646564004D6573682025692053617666
:105730006564005361766520426564204D65736839
:10574000004C6F616420426564204D657368004DB4
:10575000656D6F727920536C6F74004E6F205374B7
:105760006F72616765004732395034582573592587
:105770007352256900202D2D2D2D2D005A3A0059E8
:105780003A00486F6D696E672058595A00473238A1
:10579000004F6666205072696E74657220426163C4
:1057A0006B757000473239532D31004F7574707529
:1057B0007420666F722043535600473239543100CB
:1057C0004F757470757420666F7220486F73740023
:1057D0004732395430004D657368204C6576656CEE
:1057E000696E670045646974204D65736800566191
:1057F0006C6964617465204D657368004D616E75F8
:10580000616C6C79204275696C64204D6573680029
:10581000473239493939390A4732395032425430DE
:10582000004275696C64204D65736800372E205303
:1058300061766520426564204D65736800362E20D0
:1058400046696E652054756E6520416C6C00473268
:10585000395034525400352E2056616C696461749D
:1058600065204D65736800342E2046696E652054AE
:10587000756E6520416C6C004732395034525400CB
:10588000332E2056616C6964617465204D657368C0
:1058900000322E20536D6172742046696C6C2D6944
:1058A0006E004732395033543000312E2042756932
:1058B0006C6420436F6C64204D6573680047323917
:1058C0004E503100556E69666965642042656420FA
:1058D0004C6576656C696E67004F757470757420E1
:1058E00055424C20496E666F004732395700554289
:1058F0004C20546F6F6C73004F7574707574204D2D
:10590000657368204D6170004D6573682053746F36
:1059100072616765004D6573682045646974005362
:105920007465702D42792D537465702055424C007A
:1059300046616465204865696768740041637469FD
:10594000766174652055424C004732394100446508
:1059500061637469766174652055424C0047323941
:1059600044004D6F74696F6E004732394A256900F3
:10597000486F6D696E67204661696C6564005052BE
:105980004553454E54004F5554006F70656E00549A
:105990005249474745524544003A20004D4F54492B
:1059A0004F4E203A20004F46460A003A20006669D2
:1059B0006C616D656E74007A5F6D696E00795F6D04
:1059C000696E00785F6D696E005265706F72746900
:1059D0006E6720656E6473746F7020737461747584
:1059E000730A0020746F6F206C6F6E672065787487
:1059F000727573696F6E2070726576656E7465641A
:105A00000A0020636F6C6420657874727573696F27
:105A10006E2070726576656E7465640A0000000021
:105A20000000000000000000005761726E696E67A0
:105A30003A20486F6D696E672042756D7020446929
:105A40007669736F72203C20310A000202040080E4
:105A50009D4300009B430000C8430000004100003C
:105A600000410000004000000001000000010000B3
:105A70008000555555000000400033333300AAAA7A
:105A80002A004992240000002000C7711C00999947
:105A90001900D1451700555515003BB11300244995
:105AA000120011111100000010000F0F0F00E33859
:105AB0000E0043790D00CCCC0C00C3300C00E8A2E2
:105AC0000B0064210B00AAAA0A00703D0A009DD8B1
:105AD0000900427B090092240900DCD30800888871
