:100000000C94EC260C942C270C942C270C942C2765
:100010000C942C270C942C270C942C270C942C2714
:100020000C942C270C942C270C942C270C942C2704
:100030000C942C270C942C270C942C270C942C27F4
:100040000C942C270C947EEF0C942C270C942C27CA
:100050000C942C270C9419EE0C942C270D94FD5520
:100060000C942C270C9432440C9428440C942C2788
:100070000C942C270C942C270C942C270C942C27B4
:100080000C942C270C942C270C942C270C942C27A4
:100090000C942C270C942C270C942C270C942C2794
:1000A0000C942C270C942C270C942C270C942C2784
:1000B0000C942C270C942C270C942C270C942C2774
:1000C0000C942C270C942C270C942C270C942C2764
:1000D0000C942C270C942C270C942C270C942C2754
:1000E0000C942C27084AD73B3BCE016E84BCBFFD45
:1000F000C12F3D6C74319ABD56833DDA3D00C77FF8
:1001000011BED9E4BB4C3E916BAAAABE0000008090
:100110003F05A84CCDB2D44EB93836A9020C50B91F
:10012000918688083CA6AAAA2ABE000000803F004B
:100130000C9482870C948BC20C94EDB00C94DA3939
:100140000C94E8B00C94EC820D94632D0C949CB24A
:100150000C94E5DC0D946C250C94B4B20C94CCB2E8
:100160000C94E0460C9478870C949F800C94D68372
:100170000C943CD90D94482D0C94D6DC0C949F44DF
:100180000C94EE870C9490390C947C870C9425A8E1
:100190000D943D220C942ABC0C9424860C94168158
:1001A0000C94FDD80C94038F0C94D4440C9423DB52
:1001B0000C94FC8D0C94FFD70C9490B20C94F2B07C
:1001C0000D94914F0C94EE440C9425C80C947044FB
:1001D0000C94E2820C94CB850C949F460C9432478D
:1001E0000C942E870C9424870C9408810C94AE8474
:1001F0000C94C4440C9442390C94FB460C94CE826B
:100200000D94AF1E0C9471470C94738D0C94EC8577
:100210000C943A8A0C94F6440C94608D0C94B23988
:100220000C945F900C94B6390D940A500C9475841C
:100230000D94402D0C949DB30C94B7A60C9464D8E7
:100240000C9407DA0C946A870C9421A80C94F1465C
:100250000C947E870C9429A80C94D48D0C94FCBD2E
:100260000C9438B10D9408600D94EE4F0C945A83A1
:100270000C9496B20C94B4390C94A5D30C94D185FB
:100280000C94638D0C9409DD0C94BD850C943DA8F1
:100290000C94D0440C94548D0C94D3870C9472EE2F
:1002A0000C94BCC30C9497970C9480830C94768D1B
:1002B0000C94BAB20D94772D0C945A8D0C94FDD6F3
:1002C0000C9424830C943BDD0C944E860C9417A460
:1002D0000C94668D0C944CCC0C94F6B60C9454DDB6
:1002E0000C94BA820C94D6390C9428D40C9492397C
:1002F0000D94A1110C9465A60C94DAD60C94848705
:100300000C94EB470C94708D0C94C8850C946E394A
:100310000C944E390C9412480C941BDB0C94778B84
:100320000C9402830C94408A0C94F88C0C94939C4B
:100330000C94A8B20C94E7460D94E94F0C942DA8A8
:100340000C947CA60C94F4460C94CC440C94EBA630
:100350000C9485CA0C9405480C94E3440C947FD803
:100360000C94188D0C946C390C9435A80C94C185A0
:100370000C9441A80C9419A80C946AD70D940050C1
:100380000C943F910C94C2830C940FD90C94E6808A
:100390000C94D49C0C94FF800D94692D0C945947B7
:1003A0000C9487D70D944B2D0C946E8D0D94155095
:1003B0000C94D9460D94712D0C94C6DB0C94DC443E
:1003C0000C94C8440C94F4A40C94D2460C94BB93A3
:1003D0000C948D470C9439A80C9439860C94C0B2B7
:1003E0000D941C200C94A5470D94362D0D94512D81
:1003F0000C94EADC0C94DFA20D94EA230C9486871B
:100400000C94E3460C94A2B20C94F39C0C94E786F3
:100410000C94ED460C94498D0C94DD470C946E873A
:100420000C94D1280C948E390C94CBDB0C94178847
:100430000C94CE850C94FE460C94D8440C94218DDB
:100440000C94BA3D0C94ADD50C9431A80C94C9937E
:100450000C94E7C00C9434860D943C2D0C942584A8
:100460000C948D8B0C94E6330C94CF470D947B2D1C
:100470000C942BD40C94C6B20C94EF830D94A42D41
:100480000C94749C0C94AB830C9422DD0C94948398
:100490000C94AEB20C94EA460D94BD1E0C945D8D86
:1004A0000C94E5910C9472830C949DA60C94D8B294
:1004B0000C9409290C941F480D94AC4F0C94D6460B
:1004C0000C94AE440C94F4F40C9499470D94552D6F
:1004D0000C94A0880C940BDB0C94F3B50C94BD44E5
:1004E0000C9446830C9432830C94DBDC0C947A8756
:1004F0000C947EA30C94C1470D946D2D0C9420A2F6
:100500000D94FA4F0C94E4850D945F2D0C94168392
:100510000D945B2D0C94E0DC0C94698D0C94D383CA
:100520000C94A4460D94442D0C9497840C94BCBA5E
:100530000D94D22D0C941DA80C94219C0C946483D2
:100540000C94CF460C94D78D0C94B3470C94D2B234
:100550000C9480870C9463470C9420D80C9463947B
:100560000C946C8B0C94E8850C947F470C94F847A2
:100570000D94D12D0D94EA5F0D94762D0C94D839FD
:100580000C94E3B00C9497B80C9479880C94F746CB
:100590000C94578D0C942E270C9427D40C94DC4685
:1005A0000C9444944E414E494E495459494E46CDBF
:1005B000CCCC3D0AD7233C17B7D13877CC2B32951A
:1005C00095E6241FB14F0A000020410000C84200F8
:1005D000401C4620BCBE4CCA1B0E5AAEC59D7400C2
:1005E000407A10F35A00A0724E18090010A5D4E802
:1005F0000000E87648170000E40B54020000CA9A95
:100600003B000000E1F505000080969800000040E6
:10061000420F000000A0860100000010270000002B
:1006200000E803000000006400000000000A000071
:100630000000000100000000002C76D888DC674F25
:100640000823DFC1DFAE59E1B1B796E5E3E453C655
:100650003AE651997696E8E6C28426EB898C9B624D
:10066000ED407C6FFCEFBC9C9F40F2BAA56FA5F4F7
:1006700090055A2AF75C936B6CF9676DC11BFCE01F
:10068000E40D47FEF520E6B500D0ED902E03009472
:100690003577050080841E080000204E0A00000007
:1006A000C80C333333330F986E12831141EF8D2111
:1006B00014893BE65516CFFEE6DB18D1844B381B78
:1006C000F77C1D901DA4BBE424203284725E22813D
:1006D00000C9F124ECA1E53D275A5F53544F505F08
:1006E00050494E005A5F535445505F50494E005A8E
:1006F0005F4D494E5F50494E005A5F454E41424C56
:10070000455F50494E005A5F4449525F50494E0080
:10071000595F53544F505F50494E00595F535445F1
:10072000505F50494E00595F4D494E5F50494E0051
:10073000595F454E41424C455F50494E00595F4418
:1007400049525F50494E00585F53544F505F5049D3
:100750004E00585F535445505F50494E00585F4D0E
:10076000494E5F50494E00585F454E41424C455FEF
:1007700050494E00585F4449525F50494E0053550E
:1007800049434944455F50494E00534552564F3303
:100790005F50494E00534552564F325F50494E000C
:1007A000534552564F315F50494E00534552564FB4
:1007B000305F50494E00534453530053445F444507
:1007C000544543545F50494E004D4F534645545F86
:1007D000435F50494E004D4F534645545F425F5072
:1007E000494E004D4F534645545F415F50494E00BE
:1007F00054454D505F305F43535F50494E004C4568
:10080000445F50494E004C43445F50494E535F5241
:1008100053004C43445F50494E535F454E41424C58
:1008200045004C43445F50494E535F4437004C43AE
:10083000445F50494E535F4436004C43445F504937
:100840004E535F4435004C43445F50494E535F4420
:1008500034004B494C4C5F50494E0048454154458B
:10086000525F4245445F50494E004845415445520D
:100870005F305F50494E0046494C5F52554E4F55D0
:10088000545F50494E0046414E5F50494E0045313D
:100890005F535445505F50494E0045315F454E41CE
:1008A000424C455F50494E0045315F4449525F50CC
:1008B000494E0045315F43535F50494E0045305F1C
:1008C000535445505F50494E0045305F454E4142BC
:1008D0004C455F50494E0045305F4449525F504996
:1008E0004E00444F474C43445F53434B00444F47F3
:1008F0004C43445F4D4F534900444F474C43445F82
:10090000435300444F474C43445F41300042544EF0
:100910005F454E430042544E5F454E320042544EB6
:100920005F454E31004245455045525F50494E00AB
:100930004156525F53535F50494E004156525F53E8
:10094000434B5F50494E004156525F4D4F53495FF4
:1009500050494E004156525F4D49534F5F50494EEA
:100960000054454D505F4245445F50494E00544548
:100970004D505F315F50494E0054454D505F305FE0
:1009800050494E0046494C57494454485F50494EDF
:100990000054584430005258443000434F4D4D5598
:1009A0004E49434154494F4E0044525952554E000E
:1009B0004552524F525300494E464F004543484F0F
:1009C000004572726F722077726974696E67207465
:1009D0006F20454550524F4D210A00363726033CC3
:1009E0003D380E2E303E121A1C180A4309084400E6
:1009F0000153544F505045442E20005072696E747C
:100A000065722073746F70706564206475652074FE
:100A10006F206572726F72732E2046697820746839
:100A200065206572726F7220616E64207573652037
:100A30004D39393920746F20726573746172742E68
:100A4000202854656D7065726174757265206973D4
:100A50002072657365742E2053657420697420615B
:100A6000667465722072657374617274696E672949
:100A70000A004E6F20436865636B73756D2077695C
:100A80007468206C696E65206E756D6265722C20CD
:100A90004C617374204C696E653A20004E6F2043A0
:100AA0006865636B73756D2077697468206C696E17
:100AB00065206E756D6265722C204C617374204CDC
:100AC000696E653A2000636865636B73756D206DB0
:100AD00069736D617463682C204C617374204C6978
:100AE0006E653A20004C696E65204E756D626572C8
:100AF000206973206E6F74204C617374204C696E92
:100B000065204E756D6265722B312C204C617374BB
:100B1000204C696E653A20004D31313000536572CA
:100B200069616C20737461747573206D69736D6194
:100B30007463680A00776169740A0053442072651F
:100B40006164206572726F720A00486F74656E642A
:100B50002049646C652054696D656F757400486F39
:100B600074656E642049646C652054696D656F75A9
:100B7000740A002121204B494C4C20636175736538
:100B800064206279204B494C4C20627574746F6EFE
:100B90002F70696E0A002121204B494C4C20636163
:100BA0007573656420627920746F6F206D7563685A
:100BB00020696E6163746976652074696D65202DA6
:100BC0002063757272656E7420636F6D6D616E6403
:100BD0003A20007061757365004D36303000206634
:100BE000696C616D656E745F72756E6F75742000EF
:100BF00066696C616D656E745F72756E6F75742079
:100C0000540046696C616D656E7452756E6F7574D3
:100C10002054004D656469612052656D6F7665648E
:100C2000004D6564696120496E7365727465640086
:100C30004D313030305300627573793A20706175F0
:100C400073656420666F7220696E7075740A006245
:100C50007573793A2070617573656420666F7220D0
:100C6000757365720A00627573793A2070726F63EA
:100C7000657373696E670A00506C65617365205215
:100C800065736574005052494E5445522048414C9A
:100C90005445440025533A20255300706F77657200
:100CA0006F6666004B494C4C45442E2000507269DB
:100CB0006E7465722068616C7465642E206B696C5B
:100CC0006C28292063616C6C6564210A0065636887
:100CD0006F3A004572726F723A0042696C696E65D4
:100CE0006172204C6576656C696E67204772696435
:100CF0003A0A005072696E74696E67204F626A65C5
:100D00006374002553202569002F2F616374696F78
:100D10006E3A007374617274006E6F746966696311
:100D20006174696F6E200070726F6D70745F006522
:100D30006E6400486F74656E6420746F6F20636F1B
:100D40006C640A0053656E64204D31303820746F36
:100D500020726573756D650A00496E736572742043
:100D600066696C616D656E7420616E642073656E7A
:100D700064204D3130380A00526568656174204442
:100D80006F6E6500526568656174696E672E2E2E00
:100D9000005265686561740048656174657220542D
:100DA000696D656F75740053656E64204D31303820
:100DB00020746F2068656174206E6F7A7A6C650AA2
:100DC000004E6F7A7A6C65205061726B65640070BA
:100DD0006175736564005061757365004732362034
:100DE00043616E63656C6564004732362048656117
:100DF00074696E67204E6F7A7A6C650047323620D0
:100E000048656174696E6720426564005761697462
:100E1000696E6720666F72206865617475702E0A4E
:100E2000004669786564204C656E6774682050726E
:100E3000696D6500446F6E65205072696D696E67FB
:100E4000004D616E75616C207072696D696E672E00
:100E50002E2E004C656176696E6720473236003F62
:100E600053706563696669656420582C5920636F07
:100E70006F7264696E617465206F7574206F66208F
:100E8000626F756E64732E0A003F28522965706583
:100E900061742076616C7565206E6F7420706C6172
:100EA000757369626C653B206D7573742062652093
:100EB0006174206C6561737420312E0A003F537099
:100EC00065636966696564206E6F7A7A6C65207403
:100ED000656D7065726174757265206E6F742070D7
:100EE0006C61757369626C652E0A003F53706563AF
:100EF00069666965642066696C616D656E742073EE
:100F0000697A65206E6F7420706C61757369626CAC
:100F1000652E0A003F5370656369666965642070D9
:100F200072696D65206C656E677468206E6F7420E1
:100F3000706C61757369626C652E0A003F53706551
:100F4000636966696564206E6F7A7A6C652073697F
:100F50007A65206E6F7420706C61757369626C6560
:100F60002E0A003F52657472616374696F6E204D82
:100F7000756C7469706C696572206D75737420622C
:100F800065207370656369666965642E0A003F5366
:100F90007065636966696564205265747261637423
:100FA000696F6E204D756C7469706C696572206E26
:100FB0006F7420706C61757369626C652E0A003FF6
:100FC000537065636966696564206C617965722038
:100FD000686569676874206E6F7420706C617573E2
:100FE00069626C652E0A0043292E0A003F53706522
:100FF000636966696564206265642074656D706507
:10100000726174757265206E6F7420706C61757397
:1010100069626C65202834302D00473236207374A5
:10102000617274696E672E2E2E0A004F46460A00C2
:10103000466164652048656967687420004265649C
:10104000204C6576656C696E6720004661696C6549
:101050006420746F20656E61626C65204265642057
:101060004C6576656C696E670A00496E76616C69DD
:1010700064206D6573682E0A00477269642070727F
:101080006F62696E6720646F6E652E0A0069646C1A
:10109000650A00206F662000706F696E7420004D35
:1010A000616E75616C2047323920004D616E75614B
:1010B0006C204732392061626F727465640A0020C7
:1010C0002844525952554E290047323920417574EF
:1010D0006F20426564204C6576656C696E67003FE1
:1010E00020284C2C522C462C4229206F7574206FDE
:1010F0006620626F756E64732E0A003F285629655C
:1011000072626F7365206C6576656C20696D706CBA
:1011100061757369626C652028302D34292E0A00B0
:10112000426164205A2076616C75650A004E6F201A
:1011300062696C696E65617220677269640A004752
:1011400032384C300020440020204D3230302053C3
:1011500000202844697361626C6564293A0046691D
:101160006C616D656E742073657474696E6773006D
:1011700020204D3230312058004D6178204163638A
:10118000656C65726174696F6E2028756E69747321
:101190002F7332290020204D3230332058004D610A
:1011A00078206665656472617465732028756E6960
:1011B00074732F73290020520020204D32303420C8
:1011C0005000416363656C65726174696F6E2028BD
:1011D000756E6974732F7332292028503C707269C0
:1011E0006E742D616363656C3E20523C726574724F
:1011F0006163742D616363656C3E20543C7472615D
:1012000076656C2D616363656C3E29005741524ED3
:10121000494E4721204C6F77205A204A65726B2037
:101220006D6179206C65616420746F20756E7761E3
:101230006E746564207061757365732E0A002054A6
:101240000020530020204D3230352042004164768A
:10125000616E6365642028423C6D696E5F736567EB
:101260006D656E745F74696D655F75733E20533C88
:101270006D696E5F66656564726174653E20543C9D
:101280006D696E5F74726176656C5F6665656472C8
:101290006174653E20583C6D61785F6A65726B3E93
:1012A00020593C6D61785F6A65726B3E205A3C6DD7
:1012B00061785F6A65726B3E20453C6D61785F6A5C
:1012C00065726B3E290020440020490020204D33E8
:1012D0003031205000486F74656E642050494400DE
:1012E00020440020490020204D333034205000425B
:1012F0006564205049440050574D3A2020253464FD
:101300000050574D3A20202534640050574D3A2064
:10131000202534640050574D3A2020253464005075
:10132000574D3A20202534640050574D3A2020254F
:1013300034640050574D3A20202534640050574DF6
:101340003A20202534640050574D3A20202534643B
:101350000050574D3A20202534640050574D3A2014
:10136000202534640050574D3A2020253464005025
:10137000574D3A20202534640050574D3A202025FF
:1013800034640050574D3A20202534640050574DA6
:101390003A2020253464003A200020202020434FAA
:1013A0004D002020206E6F6E2D7374616E6461722B
:1013B000642050574D206D6F646500202020636FBE
:1013C0006D7061726520696E7465727275707420DB
:1013D000656E61626C6564002020206F76657266C0
:1013E0006C6F7720696E7465727275707420656EAB
:1013F00061626C6564003A20002020202054494D31
:10140000534B00423A2000202020205443435200F6
:10141000413A200020202020544343520020202025
:101420002043533A20002020202057474D3A2000E7
:1014300050574D3A20202534640050574D3A202013
:101440002534640047004800000088008A008C00B2
:10145000B300B400000098009A009C00A800AA0005
:10146000AC0028012A012C012020202054494D45A0
:101470005200440045006E00800081006F00B00003
:10148000B1007000900091007100A000A1007200F6
:1014900020012101730020697320616C736F207437
:1014A00069656420746F20746869732070696E00C8
:1014B00054494D45523143000A202E00202000207F
:1014C00020506F72743A20002020200020202041FC
:1014D0006E616C6F6720696E203D2025356C64005D
:1014E0003C756E757365642F756E6B6E6F776E3EAF
:1014F0000020284125326429202000253364200063
:1015000050494E3A20004F7574707574203D20008C
:10151000496E70757420203D2000416E616C6F67CC
:1015200020696E203D2025356C640070726F7465F3
:10153000637465642000202841253264292020003E
:10154000253364200050494E3A200096090001914D
:1015500009010184093B00790943006E09450061D6
:1015600009440054093201470933013B0934013071
:10157000093501250925011D091F01150921010D45
:1015800009230103091B01F9081901ED083301E2E0
:10159000083401D7081C01C9081801BD081A01B395
:1015A000082C01A80822019A081E018E0824018631
:1015B000080901770802016A080A015B080801525C
:1015C000082901460817013A0819012E081B0122B3
:1015D000081D011208110106081001FE070D01F097
:1015E000074201E3070A01D6070701C9070801BB43
:1015F000073101B6073501AB070B01A007060195BE
:101600000705018A0704017E070C0174073701678B
:101610000726015D07030152073601470703013D15
:10162000073D013007380126070E011B073C01105A
:10163000070E0106073001F9063E01EF061201E42C
:10164000062E01D9061201446F6E652E0A005075F0
:101650006C73696E6720202000556E746F75636827
:1016600065642000534552564F206E6F7420736599
:10167000742075702E0A004D343320576169742030
:1016800043616C6C6564005761746368696E6720C0
:1016900070696E730A0064697300656E0061626C44
:1016A00065640A00656E6473746F70206D6F6E6997
:1016B000746F72200020580020204D61783A20007D
:1016C000200020204D696E3A2000203B2000202081
:1016D0004D323131205300536F667420656E647350
:1016E000746F707300203B0020550020204D363071
:1016F00033204C0046696C616D656E74206C6F61BF
:10170000642F756E6C6F6164004D323453256C64C8
:1017100054256C64004739322E3945257300473112
:101720004625640047315A2573463630300047312C
:101730005825735925734633303030004D313036DB
:10174000502569532569004D313039532569004DC5
:10175000323030442573004739322E395A25730010
:101760004D3432305325635A257300473238523096
:1017700058590047315A25734636303000473932C0
:101780002E395A2573004739322E394530004D31F4
:101790003039532569004D313930532569004D34B6
:1017A0003230205330205A3000203B200020204D82
:1017B000343133205300506F7765722D6C6F737323
:1017C000207265636F76657279004F4646004F4E12
:1017D00000203B20486F73742068616E646C696EF2
:1017E000672000203B204D6F646520006D6D002058
:1017F0003B2044697374616E6365200046696C61C7
:101800006D656E742072756E6F757420003B2000DC
:1018100020496E76616C69642065787472756465C0
:1018200072200047322F473320626164207061725A
:10183000616D65746572730A00536C6565702E2E58
:101840002E004D65736820706F696E74206F75741B
:10185000206F662072616E67650A004D30205374F8
:101860006F70004D312053746F7000436C69636B6F
:1018700020746F20526573756D652E2E2E004E6F8D
:10188000204D6F76652E00456E642066696C65207C
:101890006C6973740A00426567696E2066696C65DD
:1018A000206C6973740A004E6F206D656469610A6B
:1018B00000526573756D696E6720534400286E6F22
:1018C0002066696C65290043757272656E742066C6
:1018D000696C653A20005072696E742074696D6598
:1018E0003A20003F43616E6E6F74207772697465B1
:1018F00020746F20494E5055540A00496E76616C31
:1019000069642050696E204D6F64650A000A537443
:101910006174733A2046696C616D656E74207573ED
:1019200065643A20002C204C6F6E67657374206AE2
:101930006F623A2000546F74616C2074696D653A6F
:10194000200053746174733A20002C204661696C46
:1019500065643A20002C2046696E69736865643AB4
:1019600020005072696E74733A200053746174736E
:101970003A20006F6B006F666600BC09B709B009BA
:10198000A9099B0944454255473A004D313133205E
:10199000530053755065522043522D3230204F462C
:1019A000462E002F2F004D31343520533C696E6494
:1019B00065783E206F7574206F662072616E676572
:1019C0002028302D31290A0046523A0020466C6FFB
:1019D000773A200050726F746563746564205069B3
:1019E0006E0A004261627973746570205A006469FE
:1019F0007300656E0043290A0061626C65642028EB
:101A00006D696E2074656D702000436F6C64206595
:101A1000787472756465732061726520004D34328C
:101A20003120696E636F72726563742070617261D8
:101A30006D657465722075736167650A004D657325
:101A40006820706F696E74206F7574206F662072E5
:101A5000616E67650A004F66667365747320417036
:101A6000706C696564004572723A20546F6F20662D
:101A700061722100546F6F206661722066726F6D13
:101A8000207265666572656E636520706F696E743D
:101A90000A00454550524F4D204F4B0A002E0A0078
:101AA0002028302D313029002076616C7565206F3B
:101AB0007574206F662072616E676500416476619F
:101AC0006E6365204B3D004D383400446F6E6520D9
:101AD0007072696E74696E672066696C650A004D84
:101AE0003737004D33310020204D3230362058003A
:101AF000486F6D65206F6666736574004361703A68
:101B000000434F4E4649475F4558504F5254004D91
:101B10004541545041434B00434F4F4C45525F5455
:101B2000454D5045524154555245004348414D4260
:101B300045525F54454D504552415455524500421F
:101B40004142595354455050494E47004152435326
:101B5000004D4F54494F4E5F4D4F4445530054483C
:101B600045524D414C5F50524F54454354494F4E9E
:101B700000455854454E4445445F4D32300043556E
:101B800053544F4D5F4649524D574152455F555052
:101B90004C4F4144004C464E5F5752495445004C0F
:101BA0004F4E475F46494C454E414D4500415554C7
:101BB0004F5245504F52545F53445F535441545514
:101BC000530053445F5752495445005245504541D4
:101BD00054004D554C54495F564F4C554D4500539C
:101BE00044434152440050524F4D50545F5355505E
:101BF000504F525400484F53545F414354494F4E45
:101C00005F434F4D4D414E445300454D455247456E
:101C10004E43595F50415253455200434153455F33
:101C20004C494748545F4252494748544E455353E4
:101C300000544F47474C455F4C4947485453005365
:101C40004F4654574152455F504F574552004255F9
:101C5000494C445F50455243454E54004C4556450F
:101C60004C494E475F44415441005A5F50524F42E5
:101C7000450052554E4F5554004155544F4C455612
:101C8000454C005052494E545F4A4F420050524F0B
:101C90004752455353004155544F5245504F5254AB
:101CA0005F54454D50004155544F5245504F52548A
:101CB0005F504F5300564F4C554D455452494300C9
:101CC000454550524F4D0042494E4152595F464999
:101CD0004C455F5452414E5346455200534552497C
:101CE000414C5F584F4E5F584F4646004649524D53
:101CF000574152455F4E414D453A4D61726C696E98
:101D000020322E302E395F4457372E342E36205451
:101D10004D33442032454D444E42202841707220BC
:101D2000323820323032322030323A30363A3032A5
:101D30002920534F555243455F434F44455F555209
:101D40004C3A68747470733A2F2F676974687562BF
:101D50002E636F6D2F496E73616E6974794175746E
:101D60006F6D6174696F6E2F4D61726C696E2F7447
:101D70007265652F437265616C6974794477696E29
:101D80005F322E302050524F544F434F4C5F5645D8
:101D90005253494F4E3A312E30204D414348494E1F
:101DA000455F545950453A53755065522043522D62
:101DB00032302045585452554445525F434F554E9A
:101DC000543A3120555549443A636564653261326D
:101DD000662D343161322D343734382D3962313249
:101DE0002D6335356336326633363766660A002032
:101DF000204D3235302043004C434420436F6E74F5
:101E0000726173740043616E6E6F74206F70656EE3
:101E10002073756264697220002569730025696DFD
:101E200020256973002569682025696D202569735F
:101E300000256964202569682025696D202569735E
:101E40000025697920256964202569682025696D48
:101E50002025697300436F6F6C696E672E2E2E000C
:101E600045312025530042656420436F6F6C696ED5
:101E7000672E2E2E004265642048656174696E6786
:101E80002E2E2E00554E4C4F41442046494C414D7C
:101E9000454E54004C4F41442046494C414D454E1F
:101EA000540046494C414D454E54204348414E470D
:101EB000450023646566696E652044454641554C7E
:101EC000545F00626564004B6420004B6920004B46
:101ED0007020005049442074756E696E6720646FED
:101EE0006E6500504944204175746F74756E6520AD
:101EF00066696E6973686564212050757420746822
:101F000065206C617374204B702C204B6920616ECE
:101F100064204B6420636F6E7374616E747320660B
:101F2000726F6D2062656C6F7720696E746F2043ED
:101F30006F6E66696775726174696F6E2E680A00EC
:101F4000504944204175746F74756E6520666169EF
:101F50006C6564212074696D656F75740A00417544
:101F6000746F74756E65206661696C6564212054B8
:101F7000696D656F75742E00504944204175746F0A
:101F800074756E65206661696C6564212054656DA9
:101F9000706572617475726520746F6F206869670F
:101FA000680A00504944204379636C6573002553E7
:101FB0002025692F256900204B643A2000204B69B9
:101FC0003A2000204B703A200020436C6173736903
:101FD0006320504944200A00204E6F206F766572BE
:101FE00073686F6F740A002054753A2000204B7597
:101FF0003A2000206D61783A2000206D696E3A2009
:102000000020643A200020626961733A200048652C
:102010006174696E672E2E2E0050494420417574FC
:102020006F74756E652073746172740A0041757403
:102030006F74756E65206661696C65642E205465E9
:102040006D706572617475726520746F6F20686958
:1020500067682E00504944204175746F74756E6531
:10206000206661696C6564212054656D70657261DC
:102070007475726520746F6F20686967680A005014
:102080004944204175746F74756E65005049442051
:102090004175746F74756E65206661696C65642145
:1020A00020426164206865617465722069640A0079
:1020B0004572723A207574663820666F6E74206EB1
:1020C0006F7420696E697469616C697A65642E0049
:1020D0004572723A207574663820666F6E74206E91
:1020E0006F7420696E697469616C697A65642E0029
:1020F0004572723A207574663820666F6E74206E71
:102100006F7420696E697469616C697A65642E0008
:102110002568753A25303268750025303268753A81
:1021200025303268750025303268752725303268D1
:102130007500256875642025303268753A2530327F
:10214000687500FFE0FFD140A0C8A6A22FF80023C9
:10215000AC00AF10FFFEFF05FFD0FFE0FFC1FFD1D5
:10216000E240A0C8A6A22FF800238127AC00AFFF51
:10217000D0FF64FFD1A5FFD0FF64FF64FFD1A4FFAF
:10218000D0FF16FFFE42656400456E636C6F737589
:102190007265002020202020202000202020200008
:1021A000657272001FE020102010201010201020F7
:1021B0002010201030300840048003001FE03FF062
:1021C0003FF03FF01FE01FE03FF03FF03FF00FC057
:1021D000078003003FFFF038007030FC3020FC1017
:1021E0002078102030102C00D02E31D02F7BD02F13
:1021F0007BD02E31D02C00D020301020781020FC45
:102200001030FC303800703FFFF03FFFF0380070B6
:102210003186302387102787902F87D02F03D02037
:1022200030102078102078102030102F03D02F8706
:10223000D02787902387103186303800703FFFF019
:102240001FFFF81FFFF804104002082002082004B6
:102250001040082080104100104100082080041028
:10226000400000001FFFF81FFFF8FFFFFF80000184
:102270008E00E19F01F19381399F81F99F81F99F40
:10228000B9F98F28F18038018000019FFFF991741E
:10229000999B06A99B54A99B56A99B54999FFFF90A
:1022A000FFFFFF63616E63656C005072696E74209E
:1022B00041626F727465640055492041626F7274A7
:1022C0006564004D323520500A4D3234005265733A
:1022D000756D6500554920506175736500506175D5
:1022E00073696E672E2E2E00726573756D65004DD5
:1022F00032340052756E6F75742044697374206DAA
:102300006D004D6F74696F6E20456E636F6465720A
:102310000053656E736F72204C6F770053656E7358
:102320006F722048696768004E6F2053656E736F47
:10233000720052756E6F75742053656E736F720004
:1023400052756E6F7574204D6F6465004C6F6164DB
:10235000206D6D00556E6C6F6164206D6D00466977
:102360006C2E204469612E004520696E206D6D5EE3
:102370003300416476616E6365204B004D3330332A
:1023800020553120452569205325690050494420B6
:102390004175746F74756E65202A005049442D4450
:1023A000202A005049442D49202A005049442D50EC
:1023B000202A0020082046616374002008204D6117
:1023C00078002008204D696E004F6666004F6E0051
:1023D0004175746F74656D70004D696E2054726143
:1023E00076656C2056656C004D696E2056656C6F85
:1023F00063697479004D617820452056656C004D05
:102400006178205A2056656C004D6178205920561D
:10241000656C004D617820582056656C004D6178E0
:10242000204520416363656C004D6178205A20414E
:102430006363656C004D6178205920416363656C6E
:10244000004D6178205820416363656C00547261CF
:1024500076656C20416363656C00526574726163DC
:102460007420416363656C00416363656C004D617A
:10247000782045204A65726B004D6178205A204AC9
:1024800065726B004D61782059204A65726B004D72
:1024900061782058204A65726B004520737465701E
:1024A000732F6D6D005A2053746570732F6D6D001E
:1024B000592053746570732F6D6D005820537465E7
:1024C00070732F6D6D00416476616E636564205397
:1024D000657474696E6773003F0043616E63656C79
:1024E00000496E6974004D34323800496E69746970
:1024F000616C697A6520454550524F4D0046696CC4
:10250000616D656E740054656D706572617475728D
:10251000650053746570732F6D6D004A65726B00B2
:10252000416363656C65726174696F6E0056656CBA
:102530006F636974790053657420486F6D65204F2F
:1025400066667365747300436F6E66696775726162
:1025500074696F6E003F004E65787420506F696E2D
:102560007400446F6E65004E657874004C65766546
:102570006C696E6720446F6E6521004D6F76652033
:102580005A004732395631004E65787420506F69D1
:102590006E74002569202F20257500473239563189
:1025A00000436C69636B20746F20426567696E003D
:1025B000486F6D696E672058595A005A2056616CF1
:1025C000756500496E646578205900496E646578C8
:1025D00020580053746F72652053657474696E6778
:1025E00073004C6F61642053657474696E67730087
:1025F000426564205472616D6D696E670046616466
:102600006520486569676874004F6666004F6E0014
:10261000426564204C6576656C696E670045646947
:1026200074204D657368004C6576656C2042656466
:10263000004D6F74696F6E003F0043616E63656C9F
:10264000204F626A656374004E4F00594553004342
:10265000616E63656C204F626A656374203D004D56
:1026600061696E00426564004E6F7A7A6C6500465F
:10267000616E20537065656400436F6E66696775AF
:10268000726174696F6E00526573746F7265204475
:10269000656661756C7473004C6F6164205365747A
:1026A00074696E67730053746F7265205365747438
:1026B000696E6773005072656865617420242043F9
:1026C0006F6E6600506F776572204F757461676535
:1026D000004F6666004F6E0052756E6F7574205322
:1026E000656E736F72004C434420436F6E74726169
:1026F000737400416476616E63656420536574741D
:10270000696E6773004D61696E004D373032205439
:102710002564004D36303020423020542564004D71
:10272000373032203B2564004D373031205425644A
:10273000004D373032004D373031004D36303020CB
:102740004230004D61696E00436F6E74696E75654D
:10275000004F6666004F6E0052756E6F75742053A1
:10276000656E736F72005075726765206D6F72656C
:1027700000524553554D45204F5054494F4E533A02
:10278000005052494E54205041555345440020209A
:102790004E6F7A7A6C653A20005061726B696E6791
:1027A0002E2E2E0000005761697420666F7200663D
:1027B000696C616D656E74206368616E6765007435
:1027C0006F207374617274005761697420666F7250
:1027D0000066696C616D656E7420756E6C6F616406
:1027E00000004E6F7A7A6C652068656174696E6767
:1027F00000506C6561736520776169742E2E2E0020
:1028000000507265737320627574746F6E00746F1C
:102810002068656174206E6F7A7A6C650000496E7D
:10282000736572742066696C616D656E7400616EAB
:102830006420707265737320627574746F6E0074B7
:102840006F20636F6E74696E7565005761697420DF
:10285000666F720066696C616D656E74206C6F6185
:10286000640000507265737320427574746F6E005B
:10287000746F20726573756D65207072696E740077
:10288000005761697420666F72207072696E7400FF
:10289000746F20726573756D652E2E2E0000576162
:1028A000697420666F720066696C616D656E742074
:1028B000707572676500003E2000256C642E2569E6
:1028C0006D00457874727564656420546F74616C32
:1028D000003E20004C6F6E67657374204A6F622063
:1028E00054696D65003E20005072696E7420546911
:1028F0006D6500436F6D706C65746564003A20000F
:102900005072696E7420436F756E74003A20003106
:1029100035300035004245443A204154432031309F
:102920003447542D320052756E61776179205761BA
:102930007463683A204F4E004D61782054656D7085
:1029400000343530004D696E2054656D70003500DF
:1029500045313A20536C696365456E6720343530E4
:10296000C2B043005053550047656E6572696300FD
:1029700050726F746F636F6C00312E30004261755E
:10298000640032353030303000437265616C6974F8
:102990007933442052414D50530042696C696E6551
:1029A0006172204C6576656C696E6700457874725B
:1029B000756465727300310074696E796D61636866
:1029C000696E657333642E636F6D00537550655285
:1029D0002043522D323000323032322D30342D30FF
:1029E0003300322E302E395F4457372E342E3600C6
:1029F0004D61726C696E005072696E74657220531D
:102A00007461747300546865726D6973746F727366
:102A100000426F61726420496E666F005072696E89
:102A200074657220496E666F004D61696E004D31AC
:102A30003030300053746F70205072696E740052E1
:102A40006573756D65205072696E7400506F77659F
:102A500072204F7574616765004D313930533535DB
:102A60000A4732380A4732390A4D3430300A4D317C
:102A70003034533231350A4732380A4D3130395308
:102A80003231350A4D34323053310A473158313002
:102A9000305931303046353030300A47315A300AFB
:102AA0004D3530300A4D37370A4D313137205365B7
:102AB00074205A204F6666736574004D313036536A
:102AC0003132380A4D3330334338533231354530A3
:102AD000550A4D3530300A4D3131372050494420A8
:102AE00054756E6520446F6E65004D313930533535
:102AF000350A4D313034533231350A4732380A47BE
:102B000032394C310A473120583130305931303068
:102B100046353030300A47315A30004D3530300AB2
:102B20004D3131372053657474696E677320537467
:102B30006F7265640053746F7265205365747469B5
:102B40006E6773005072657020666F72205A204164
:102B5000646A757374005049442054756E6500535F
:102B600065747570004D61696E003F004261636B72
:102B70000053746F70004E6F204D656469610050A2
:102B800072696E742066726F6D204D6564696100B4
:102B90004368616E6765204D65646961004D32313F
:102BA0000041626F7574205072696E7465720043E3
:102BB00068616E67652046696C616D656E74004C76
:102BC0006576656C696E6720546F6F6C7300436F38
:102BD0006E66696775726174696F6E0054656D70B9
:102BE00065726174757265004D6F74696F6E005324
:102BF0007461727420486F7374205072696E74002F
:102C0000526573756D65205072696E740043616E14
:102C100063656C204F626A6563740054756E65006D
:102C200053746F70205072696E74005061757365D3
:102C3000205072696E7400496E666F20536372652E
:102C4000656E003F005374617274205072696E7437
:102C50000043616E63656C005072696E740043617D
:102C60006E6E6F7420656E74657220737562646930
:102C7000723A200002202E2E004D61696E00000C79
:102C80000F00FE07022503BB017FFE08FE08FE05BC
:102C9000080806000040F0C88888987810050808E1
:102CA000060000C0F88888888888F80505050600B1
:102CB000012030F830200508080600002070F820B8
:102CC000202020E00509090600FF2070A8A8B88888
:102CD000887020070505070001D86C366CD80509F7
:102CE000090600FFF8A88888888888A8F8050A0AD5
:102CF0000600FE205050505088A8A8887003030397
:102D000006000340A040FFFFFFFFFFFFFFFFFFFFA4
:102D1000FFFFFFFFFFFFFFFFFFFFFFFF00000006B9
:102D200005FF010707060200808080808000800385
:102D30000303060105A0A0A005060606000050F842
:102D40005050F8500509090600FF2070A8A070280F
:102D5000A87020050707060000C8C81020409898F2
:102D600005070706000040A0A040A89068010303E3
:102D70000602058080800309090601FF204040808B
:102D800080804040200309090601FF804040202048
:102D90002040408005070706000020A8702070A88A
:102DA000200505050600012020F820200203030667
:102DB00001FFC04080050101060003F8020202067F
:102DC0000100C0C0050707060000081010204040A1
:102DD00080050707060000708898A8C88870030758
:102DE0000706010040C040404040E00507070600DC
:102DF00000708808102040F8050707060000F80852
:102E0000103008887005070706000010305090F851
:102E10001010050707060000F880F0080888700504
:102E20000707060000304080F08888700507070615
:102E30000000F80810102020200507070600007089
:102E40008888708888700507070600007088887871
:102E5000081060020505060100C0C000C0C00206DF
:102E6000060601FFC0C000C0408003050506010141
:102E70002040804020050303060002F800F8030507
:102E8000050601018040204080050707060000700C
:102E90008810202000200507070600007088B8A8C9
:102EA000B88070050707060000708888F888888851
:102EB000050707060000F04848704848F005070776
:102EC0000600007088808080887005070706000073
:102ED000F04848484848F0050707060000F8808099
:102EE000F08080F8050707060000F88080F08080F9
:102EF00080050707060000708880809888700507A5
:102F000007060000888888F8888888030707060174
:102F100000E04040404040E0050707060000381050
:102F200010101090600507070600008890A0C0A050
:102F30009088050707060000808080808080F80563
:102F4000070706000088D8A888888888050707062C
:102F500000008888C8A898888805070706000070C0
:102F6000888888888870050707060000F08888F040
:102F700080808005070706000070888888A8906810
:102F8000050707060000F08888F0A090880507076D
:102F9000060000708880700888700507070600002A
:102FA000F8202020202020050707060000888888B8
:102FB0008888887005070706000088888888505030
:102FC0002005070706000088888888A8A8500507FC
:102FD00007060000888850205088880507070600EB
:102FE0000088885020202020050707060000F808E8
:102FF00010204080F80309090601FFE080808080EE
:10300000808080E005070706000080404020101007
:10301000080309090601FFE020202020202020E0ED
:103020000503030600052050880501010600FEF88F
:103030000303030601058040200505050600007016
:10304000087888780507070600008080F08888885F
:10305000F0050505060000708080887005070706EA
:103060000000080878888888780505050600007043
:1030700088F08070050707060000304840E04040B7
:10308000400507070600FE708888887808700507E5
:10309000070600008080F0888888880307070601FB
:1030A000004000C0404040E00409090601FE100055
:1030B000301010101090600507070600008080880F
:1030C00090E09088030707060100C0404040404060
:1030D000E0050505060000D0A8A8A8A80505050676
:1030E0000000B0C88888880505050600007088883B
:1030F00088700507070600FEF0888888F080800544
:1031000007070600FE788888887808080505050600
:103110000000B0C88080800505050600007880703A
:1031200008F00507070600002020F82020201805D9
:1031300005050600008888889868050505060000D2
:1031400088888850200505050600008888A8A850B2
:103150000505050600008850205088050707060071
:10316000FE88888850204080050505060000F8107C
:103170002040F80309090601FF20404040804040FC
:1031800040200109090602FF8080808080808080C5
:10319000800309090601FF804040402040404080F4
:1031A00005030306000248A890FF2100486F7465DC
:1031B0006E6420746F6F20636F6C64004261636B98
:1031C0000050726F63656564004F6666004F6E0065
:1031D000536F667420456E6473746F7073004D6F27
:1031E00074696F6E0044697361626C652053746525
:1031F0007070657273004D383400426564204C6510
:1032000076656C696E67004732385A004732385924
:1032100000486F6D65204000473238580041757492
:103220006F20486F6D6500473238004D61696E0050
:103230005072656865617420242042656400507294
:103240006568656174202420456E640054656D7066
:103250006572617475726500436F6F6C646F776E31
:10326000005072656865617420240046616E2053C9
:103270007065656400426564004E6F7A7A6C650023
:103280004D61696E00546F74616C004261627973C4
:10329000746570205A00416476616E6365204B004E
:1032A000466C6F770046616E20537065656400421E
:1032B0006564004E6F7A7A6C6500537065656400D2
:1032C0004D61696E00486F6D696E67204661696C7B
:1032D00065640050524553454E54004F5554006F9D
:1032E00070656E00545249474745524544003A20A4
:1032F000004D4F54494F4E203A20004F46460A0099
:103300003A200066696C616D656E74007A5F6D6964
:103310006E00795F6D696E00785F6D696E00526551
:10332000706F7274696E6720656E6473746F70205D
:103330007374617475730A0020746F6F206C6F6E04
:103340006720657874727573696F6E207072657628
:10335000656E7465640A0020636F6C642065787420
:10336000727573696F6E2070726576656E746564D0
:103370000A0000000000000000000000000057618B
:10338000726E696E673A20486F6D696E672042758C
:103390006D702044697669736F72203C20310A0099
:1033A000020204000070430000704300007A4300F2
:1033B000000041000000410000004000000001004A
:1033C000000001000080005555550000004000330A
:1033D000333300AAAA2A004992240000002000C723
:1033E000711C0099991900D1451700555515003BDE
:1033F000B113002449120011111100000010000F38
:103400000F0F00E3380E0043790D00CCCC0C00C345
:10341000300C00E8A20B0064210B00AAAA0A00707D
:103420003D0A009DD80900427B090092240900DC76
:10343000D30800888808001042080000000800F047
:10344000C107008787070075500700711C07003E01
:10345000EB0600A1BC0600699006006666060070D7
:103460003E06006118060017F4050074D105005BE4
:10347000B00500B290050062720500555505007850
:10348000390500B81E0500050505004EEC0400874F
:10349000D40400A1BD040090A7040049920400C117
:1034A0007D0400EE690400C7560400444404005C37
:1034B0003204000821040041100400000004003F11
:1034C000F00300F8E0030026D20300C3C30300CCDE
:1034D000B503003AA803000A9B0300388E0300C01E
:1034E0008103009F750300D0690300505E03001D37
:1034F00053030034480300913D03003333030016A7
:10350000290300381F030097150300300C03000344
:103510000303000BFA020049F10200BAE802005C62
:10352000E002002DD802002DD0020059C80200B0E0
:10353000C0020031B90200DAB10200AAAA0200A05A
:10354000A30200BC9C0200FA9502005C8F0200DF1F
:1035500088020082820200457C0200277602002752
:10356000700200436A02007C640200D05E02003FE9
:10357000590200C8530200FFFDFCFAF8F6F4F2F01D
:10358000EEECEAE9E7E5E3E1E0DEDCDAD9D7D5D431
:10359000D2D0CFCDCBCAC8C7C5C3C2C0BFBDBCBACD
:1035A000B9B7B6B4B3B2B0AFADACAAA9A8A6A5A43A
:1035B000A2A1A09E9D9C9A99989795949392908F82
:1035C0008E8D8B8A8988878684838281807F7E7DA9
:1035D0007B7A797877767574737271706F6E6D6CB3
:1035E0006B6A696867666564636261605F5E5D5CA3
:1035F0005B5A5958585756555453525150504F4E84
:103600004D4C4B4A4A49484746464544434242414D
:10361000403F3E3E3D3C3B3B3A3938383736353506
:10362000343332323130302F2E2E2D2C2B2B2A29B1
:103630002928272726252524232322212120201F4E
:103640001E1E1D1C1C1B1B1A1919181817161615DF
:103650001514131312121111100F0F0E0E0D0D0C65
:103660000C0B0A0A090908080707060605050404E1
:1036700003030202010000000070430000704300D9
:10368000007A43000000000000000000000000532A
:10369000657474696E67732053746F726564002972
:1036A0000A002062797465733B20637263200053C3
:1036B000657474696E67732053746F726564202833
:1036C00000454550524F4D20496E697469616C69DF
:1036D0007A65640A0048617264636F6465642044BB
:1036E000656661756C742053657474696E677320C8
:1036F0004C6F616465640020286D6D2900203B20BB
:103700004C6576656C696E67200020204D34323040
:103710002053004175746F20426564204C657665C6
:103720006C696E670020460020480020204D31342F
:10373000352053004D6174657269616C2068656164
:1037400074757020706172616D65746572730020AC
:10375000204D393030204B004C696E65617220413C
:103760006476616E63650046696C616D656E742098
:1037700072756E6F75742073656E736F7200204A78
:10378000002020473239205720490020204D313475
:10379000392043203B20556E69747320696E2043A5
:1037A000656C736975730A0054656D706572617438
:1037B00075726520556E6974730020204732312080
:1037C0003B004C696E65617220556E6974730045EB
:1037D0004550524F4D206461746173697A6520656C
:1037E00072726F722E0A0053746F72656420736573
:1037F0007474696E67732072657472696576656446
:1038000000290A002062797465733B20637263208B
:10381000002073746F7265642073657474696E67D9
:103820007320726574726965766564202800454569
:1038300050524F4D20435243204572726F72002008
:103840002863616C63756C6174656429210A0020CA
:10385000213D2000454550524F4D20435243206D9D
:1038600069736D61746368202D202873746F7265AD
:10387000642920002053697A653A2000496E646506
:10388000783A200000803B4400803B440000204107
:10389000000096420000A0420000A0420000C84381
:1038A0000000BE42D0070000D00700006400000006
:1038B0004B000000454550524F4D205665727369CC
:1038C0006F6E204572726F7200204D61726C696E6E
:1038D0003D563837290A00454550524F4D207665F0
:1038E0007273696F6E206D69736D617463682028EF
:1038F000454550524F4D3D0024F4D43050C38E20E6
:10390000C2A24017828B7011127A910D816CD90A74
:10391000A861E108C7586607615143061E4B5D0563
:10392000C145A7041A411104093D980371393103B7
:103930004036DB0265339102D4305402802E1D02E2
:10394000632CEE01752AC501B028A0011027810162
:103950008F2564012B244B01E0223401AC211F018F
:103960008D200D01801FFC00841EED00971DDF00DF
:10397000B81CD200E61BC600201BBC00641AB200B3
:10398000B219A8000A19A0006A189900D11791006D
:1039900040178B00B516840031167E00B3157900F0
:1039A0003A157300C7146F0058146A00EE136600CE
:1039B0008813630025135E00C7125B006C1257006A
:1039C00015125400C111510070114F0021114B000C
:1039D000D61049008D1047004610440002104200E6
:1039E000C00F4000800F3E00420F3C00060F3B001E
:1039F000CB0E3800930E37005C0E3500270E3400D6
:103A0000F30D3200C10D3100900D3000600D2E001D
:103A1000320D2D00050D2C00D90C2B00AE0C290009
:103A2000850C29005C0C2700350C27000E0C2600A5
:103A3000E80B2400C40B2400A00B23007D0B230003
:103A40005A0B2100390B2100180B2000F80A1F0027
:103A5000D90A1E00BB0A1E009D0A1D00800A1D0017
:103A6000630A1C00470A1B002C0A1B00110A1A00DB
:103A7000F7091A00DD091900C4091900AB0919007A
:103A8000920917007B091800630917004C091600FA
:103A900036091600200916000A091500F508150058
:103AA000E0081400CC081400B8081400A40814009E
:103AB000900813007D0812006B08130058081200CC
:103AC00046081200340811002308110012081100E2
:103AD00001081100F0071000E0071000D0071000E7
:103AE000C0071000B0070F00A107100091070E00DB
:103AF00083070F0074070F0065070E0057070E00BD
:103B000049070E003B070D002E070E0020070D0091
:103B100013070D0006070D00F9060C00ED060D0059
:103B2000E0060C00D4060C00C8060C00BC060C0015
:103B3000B0060C00A4060B0099060C008D060B00C5
:103B400082060B0077060B006C060B0061060A006C
:103B500057060B004C060A0042060A0038060A0007
:103B60002E060A0024060A001A060A00100609009A
:103B700007060A00FD050900F4050900EB05090028
:103B8000E2050900D9050900D0050900C7050900AB
:103B9000BE050900B5050800AD050800A50509002A
:103BA0009C050800940508008C05080084050800A1
:103BB0007C050800740508006C0507006505080011
:103BC0005D050700560508004E050700470507007C
:103BD0004005080038050700310507002A050700E1
:103BE000230507001C050600160507000F05070042
:103BF0000805060002050700FB040600F50407009F
:103C0000EE040600E8040600E2040700DB040600F8
:103C1000D5040600CF040600C9040600C30406004C
:103C2000BD040600B7040600B1040500AC0406009C
:103C3000A6040600A00405009B04060095040500E8
:103C4000900406008A04050085040500800406002F
:103C50007A04050075040500700405006B04050076
:103C600066040500610405005C04050057040500B6
:103C7000520405004D0405004804050043040500F6
:103C80003E0404003A040500350405003004040035
:103C90002C04050027040400230405001E0404006E
:103CA0001A04040016040500110404000D040400A5
:103CB000090405000404040000040400FC030400DB
:103CC000F8030400F4030400F0030400EC03040010
:103CD000E8030400E4030400E0030400DC03040040
:103CE000D8030400D4030400D0030400CC03040070
:103CF000C8030300C503030024F404D9201BC40C2B
:103D00005C0E9804C4095F0265077101F405F900AF
:103D1000FB04B30048048700C10369005803550041
:103D200003034500BE023A008402310053022A0018
:103D30002902250004022000E4011C00C80119002A
:103D4000AF011700980114008401130071011000E5
:103D50006101100051010E0043010D0036010B00FE
:103D60002B010B0020010B00150109000C010900BB
:103D700003010800FB000800F3000800EB00070047
:103D8000E4000600DE000600D8000600D2000600AF
:103D9000CC000500C7000500C2000500BD000400FE
:103DA000B9000400B5000400B1000400AD00040037
:103DB000A9000400A5000300A20003009F00040066
:103DC0009B0003009800030095000200930003008D
:103DD000900003008D0002008B00030088000200A9
:103DE0008600020084000300810002007F000200C0
:103DF0007D0002007B0002007900020077000100D4
:103E000076000200740002007200010071000200DE
:103E10006F0002006D0001006C0002006A000100EA
:103E200069000200670001006600010065000100F2
:103E300064000200620001006100010060000100F6
:103E40005F0002005D0001005C0001005B000100FA
:103E50005A000100590001005800010057000100FC
:103E600056000100550001005400010053000000FD
:103E700053000100520001005100010050000100F8
:103E80004F0001004E0000004E0001004D000100F7
:103E90004C0001004B0000004B0001004A000100F3
:103EA00049000100480000004800010047000100EF
:103EB00046000000460001004500000045000100EA
:103EC00044000100430000004300010042000000E4
:103ED00042000100410000004100010040000100DB
:103EE0003F0000003F0001003E0000003E000100D6
:103EF0003D0000003D0001003C0000003C000000CF
:103F00003C0001003B0000003B0001003A000000C3
:103F10003A000100390000003900010038000000BB
:103F200038000000380001003700000037000100B1
:103F300036000000360000003600010035000000A9
:103F4000350000003500010034000000340000009E
:103F50003400010033000000330000003300010092
:103F60003200000032000000320001003100000089
:103F7000310000003100010030000000300000007E
:103F8000300001002F0000002F0000002F00000073
:103F90002F0001002E0000002E0000002E00010066
:103FA0002D0000002D0000002D0000002D0001005C
:103FB0002C0000002C0000002C0000002C00010050
:103FC0002B0000002B0000002B0000002B00010044
:103FD0002A0000002A0000002A0000002A00010038
:103FE000290000002900000029000000290000002D
:103FF000290001002800000028000000280000001F
:104000002800000028000100270000002700000011
:104010002700000027000000270001002600000004
:1040200026000000260000002600000026000100F7
:1040300025000000250000002500000025000000EC
:1040400025000000250001002400000024000000DD
:1040500024000000240000002400010023000000D0
:1040600023000000230000002300000023000000C4
:1040700023000000230001002200000022000000B5
:1040800022000000220000002200000022000100A7
:10409000210000002100000021000000210000009C
:1040A000210000002100000021000100200000008C
:1040B0002000000020000000200000002000000080
:1040C0002000000020000000200001001F00000070
:1040D0001F0000001F0000001F0000001F00000064
:1040E0001F0000001F0001001E0000001E00000055
:1040F0001E0000001E000000232C0000B82200005B
:10410000561800003A0F0000B8080000B104000083
:10411000710200003E01000020436F756E7420584C
:104120003A00426564004531004500626564002C38
:104130002073797374656D2073746F70706564217A
:10414000204865617465725F49443A2000486561A2
:1041500074696E67204661696C65640048656174C6
:10416000696E67206661696C6564004D313132208B
:1041700053687574646F776E001000C90210012CCB
:10418000014001220170011801B0010E01F001048B
:10419000015002FA00B002F0003003E600D003DC68
:1041A000009004D2007005C800A006BE000008B44C
:1041B00000B009AA00D00BA000600E960060118C20
:1041C000000015820020197800C01D6E00A0226436
:1041D00000B0275A00902C500000314600E0343CDB
:1041E0000010383200903A2800603C1E00A03D14B8
:1041F00000803E0A00203F00004572723A204D4187
:104200005854454D50004D415854454D50207472FE
:1042100069676765726564004572723A204D494E60
:1042200054454D50004D494E54454D5020747269CF
:1042300067676572656400544845524D414C205291
:10424000554E4157415900546865726D616C20525A
:10425000756E61776179000A0A0020205A5F4D4926
:104260004E3A002020595F4D494E3A002020585FB9
:104270004D494E3A00202F002042403A0020403A5B
:104280000020573A0020573A00496E76616C696405
:104290002065787472756465720A007C3C3E5E2B02
:1042A0003D3F2F5B5D3B2C2A225C0043616E6E6FAD
:1042B00074206F70656E2073756264697220004DA2
:1042C0006564696120496E6974204661696C0053B8
:1042D000442063617264206F6B0A006F70656E52D8
:1042E0006F6F74206661696C65640A00766F6C7527
:1042F0006D652E696E6974206661696C65640A007B
:104300004E6F20534420636172640A000A4D3234B8
:10431000004D3233202573002E0A006F70656E2029
:104320006661696C65642C2046696C653A200046BC
:10433000696C652073656C65637465640A0020535D
:10434000697A653A200046696C65206F70656E6514
:10435000643A2000454E4420535542524F5554492B
:104360004E450A002220706F730022207061726532
:104370006E743A2200535542524F5554494E4520CF
:1043800043414C4C207461726765743A2200537546
:104390006263616C6C204F766572666C6F77004566
:1043A00078636565646564206D6178205355425279
:1043B0004F5554494E452064657074683A002E0A82
:1043C0000044656C6574696F6E206661696C656434
:1043D0002C2046696C653A200046696C652064654E
:1043E0006C657465643A005344207072696E746938
:1043F0006E67206279746520004E6F7420534420EC
:104400007072696E74696E670A0041425300504CC5
:1044100041002F6175746F25632E670057726974B0
:10442000696E6720746F2066696C653A2000667259
:1044300065736800646F696E67002066696C653A31
:1044400020004E6F772000FD55555555555FFFFFF5
:10445000FFFFFFFFFFFFFFFE00000000003FFFFF28
:10446000FFFFFFFFFFFFFFFD000007FFFFFFFFFF54
:10447000FFFFFFFFFFFFFFFE07C0055555555555D0
:104480005FFFFFFFFFFFFFFC0A20060000000000A7
:104490003FFFFFFFFFFFFFFE141005000007FFFFB7
:1044A000FFFFFFFFFFFFFFFC28080607C00555556B
:1044B0005555555FFFFFFFFE5404040A2006000017
:1044C0000000003FFFFFFFFC600406141005000021
:1044D00007FFFFFFFFFFFFFE50040428080607C088
:1044E0000555555555555FFC6004065404040A20D3
:1044F0000600000000003FFE54041C600406141077
:104500000500000000001FFC28082E5004042808A5
:104510000607C00001F03FFE141054600406540466
:10452000040A200002081FFC0A206654041C6004D0
:104530000614100005043FFE07C05428082E50043E
:10454000042808000A021FFC00002E141054600406
:104550000654040015013FFE00001C0A20665404A6
:104560001C60040018011FFC00000607C054280846
:104570002E50040014013FFE00000400002E141011
:104580005460040018011FFCFFFFFE00001C0A20FD
:104590006654041C15013FFED5555400000607C0A3
:1045A0005428082A0A021FFC841046000004000058
:1045B0002E14105105043FFEC41044FFFFFE0000FE
:1045C0001C0A206102881FFC841046D55554000047
:1045D0000607C05101F03FFE8410448410460000DD
:1045E0000400002A00001FFCC41046C41044FFFF52
:1045F000FE00001C00003FFE841044841046D55588
:104600005400000000001FFCD5555684104484104F
:104610004600000000003FFCFFFFFCC41046C41031
:1046200044FFFFFFFFFF9FFE00000684104484103C
:1046300046D555555555BFFD555554D5555684103D
:104640004484104104109FFFFFFFFCFFFFFCC410D7
:1046500046C410410411BFFFFFFFFE000006841096
:104660004484104104109FFFFFFFFD555554D5555C
:104670005684104104109FFFFFFFFFFFFFFCFFFF68
:10468000FCC410410411BFFFFFFFFFFFFFFE00004D
:104690000684104104109FFFFFFFFFFFFFFD5555EB
:1046A00054D555555555BFFFFFFFFFFFFFFFFFFFD7
:1046B000FCFFFFFFFFFF9FFFFFFFFFFFFFFFFFFF6D
:1046C000FE00000000003FFFFFFFFFFFFFFFFFFFB6
:1046D000FD55555555555FFFFFFFFFFFFFFFFFFFDE
:1046E000FFFFFFFFFFFFFFFFFFFFFFFFFFFFFFFFDA
:1046F000FFFFFFFFFFFFFFFFFFFFFFFFFFFFFFFFCA
:10470000FFFFFFFFFFFFFFFFFFFFFFFFFFFFFFFFB9
:10471000FFFFFFFFFFFFFFE02EFB7DFBFBCFC1DFB5
:10472000BB3EC0E1FE3C1FFDEE7B39F9F3CF9EDFBF
:10473000BB3EDFDEFCDDE7FDEE3BBBF9EBD7BF5F49
:10474000BB5EDFDEFDEDF7FDEEBBD3FAEBB73FDF7F
:10475000BB4EDFDFFFCDF3FDEEDBC7FAEBBB7FC067
:104760003B6EC0E3FF1DF3FDEECBEFFADBBB7FDF5B
:10477000BB66DFF8FFCDF3FDEEEBEFFB5B033F5FC6
:10478000BB76DFFE7FEDF3FDEEF3EFFB5B79BEDF83
:10479000BB7ADFDE7DEDF7FDEEF3EFFBBAFD9EDFCA
:1047A000BB7CDFDEFDCDE7FDEEFBEFFBBAFDC1DF3D
:1047B000BB7EC0E0FE1C1F6D61726C696E66772E59
:1047C0006F726700322E302E395F4457372E342EE9
:1047D00036001FFFFFFFFFFFFF600000000001FF2A
:1047E000400000000000FF8000000000007F83CF39
:1047F00000000C303F87FF80000C301F867980005E
:104800000C000F8C30C7838C30E78C30CFC7CC3195
:10481000F38C30DCECEC33B98C30D86C6C33198C05
:1048200030D06C0C33198C30D86C0C33198C30DCD4
:104830006C0E3B198C30CF7C079F198C30C77C03E2
:104840008F19400000000000026000000000000618
:104850001FFFFFFFFFFFF86001F4017001EA019004
:1048600001E001B001D601D001CC010002C201304B
:1048700002B8016002AE019002A401D0029A0120A8
:1048800003900170038601C0037C0130047201A013
:1048900004680120055E01B005540160064A01204C
:1048A000074001F0073601F0082C01100A220150E0
:1048B0000B1801C00C0E01500E04013010FA00203C
:1048C00012F0005014E600C016DC007019D200503F
:1048D0001CC800501FBE007022B400B025AA00F012
:1048E00028A000202C9600302F8C0010328200A0CF
:1048F000347800F0366E00E0386400803A5A0040A8
:104900003B5500E03B5000F03C4600C03D3C0060A1
:104910003E3200E03E2800303F1E00503F1900703C
:104920003F1400A03F0A00C03F0000D03FF6FFE068
:104930003FECFF2020506C616E6E657242756666BA
:10494000657242797465733A20002046726565206D
:104950004D656D6F72793A200020436F6D70696C00
:1049600065643A2041707220323820323032320A87
:1049700000204C61737420557064617465643A2042
:10498000323032322D30342D3033207C204175745A
:10499000686F723A2054696E794D616368696E651B
:1049A0007333440A004D61726C696E20322E302ED2
:1049B000395F4457372E342E360A0020536F667401
:1049C000776172652052657365740A0020576174BF
:1049D0006368646F672052657365740A00204272D1
:1049E0006F776E206F75742052657365740A0020AE
:1049F00045787465726E616C2052657365740A0047
:104A0000506F77657255700A0073746172740A0092
:104A10004739310A47315A350A4739300A4D383457
:104A20000A4D31303453300A4D3134305330004D5B
:104A300031303031006572726F722077726974693B
:104A40006E6720746F2066696C650A00446F6E653E
:104A500020736176696E672066696C652E0A004D69
:104A6000323900456E6473746F70730025532025CE
:104A70006320256320256320256300205A3A002007
:104A8000593A0020583A00656E6473746F70732051
:104A90006869743A200000002100240027002A00E1
:104AA0002D003000330001010000040107010A015C
:104AB00000002200250028002B002E0031003400C9
:104AC00002010000050108010B0100002000230085
:104AD000260029002C002F003200000100000301F5
:104AE0000601090105050505070508080808020271
:104AF00002020A0A08080404040401010101010178
:104B000001010303030303030303040707070C0C5A
:104B10000C0C0C0C0C0C0202020206060606060621
:104B200006060B0B0B0B0B0B0B0B010210202008C6
:104B300008102040102040800201020108040201F8
:104B40000102040810204080804020100804020167
:104B500080040201804020100804020108040201C0
:104B60000102040810204080010204081020408047
:104B700000000A0B02090C0D0E08070304010000D7
:104B80000000000000000000000000000000000025
:104B900000000000000000000000000012111000E2
:104BA0000000000000000000000000000000000005
:104BB000000000000000004D6F76652025736D6DCC
:104BC000004D6F766520302E316D6D004D6F76652E
:104BD00020316D6D004D6F76652031306D6D004D6B
:104BE0006F76652041786973004D6F766520457852
:104BF000747275646572004D6F7665205A004D6F52
:104C000076652059004D6F76652058000E440A44A1
:104C10004368616E67652046696C616D656E7400FE
:104C2000556E6C6F61642046696C616D656E7400D1
:104C30004C6F61642046696C616D656E74005072E2
:104C4000656865617420437573746F6D005072659B
:104C5000686561742024004261636B005072696E64
:104C6000742066726F6D204D6564696100FFFFFFFF
:104C7000726573756D6564004469736D6973730063
:104C8000526573756D696E670073686F7700627542
:104C900074746F6E00626567696E00446973616267
:104CA0006C6552756E6F75740050757267654D6FE7
:104CB00072650050617573656400436F6E74696E50
:104CC0007565004C6F61642046696C616D656E743A
:104CD000205400496E736572742066696C616D655D
:104CE0006E7420616E642073656E64204D313038BF
:104CF0000A00220A00556E6B6E6F776E20636F6D2F
:104D00006D616E643A2022002042002050006F6BDB
:104D100000204500205A0020590020204D39322023
:104D2000580053746570732070657220756E6974D5
:104D30000020746F6F206C6F6E67206578747275D9
:104D400073696F6E2070726576656E7465640A00B3
:104D500020636F6C6420657874727573696F6E2060
:104D600070726576656E7465640A00486F6D6520C3
:104D70002573257325732046697273740020453AA4
:104D800000205A3A0020593A00583A006F6B0A0046
:104D9000526573656E643A20005375506552204326
:104DA000522D32302052656164792E005072696E46
:104DB00074696E672E2E2E005072696E74205061D9
:104DC00075736564006E6F74696669636174696F99
:104DD0006E2000003201BA0211241FBECFEFD1E2D3
:104DE000DEBFCDBF00E00CBF84B780933A1B14BE7A
:104DF0000FB6F894A8958091600088618093600058
:104E0000109260000FBE13E0A0E0B2E0ECECFFEE09
:104E100002E00BBF02C007900D92AC3BB107D9F77F
:104E20002BE1ACEBB3E001C01D92AA33B207E1F76E
:104E300016E2CBEED6E200E006C021970109802FF2
:104E4000FE010F944E74CA3ED10780E00807A9F70F
:104E50000F940E610D94D4770C940000CF93DF93E0
:104E6000C0913E09D0913F0981E0CE31D105E4F0F7
:104E700020E030E040E05FE360913A0970913B0947
:104E800080913C0990913D090F9457740F94C3751C
:104E90006C1B7D0B77FF03C071956195710981E0F3
:104EA000633071050CF080E0DF91CF910895CF93CE
:104EB000DF93DB01F9019C919130C1F0943080F0D7
:104EC00094509C938830D1F480819181009771F047
:104ED000019791838083480F591FEA01188206C009
:104EE0008C3539F49C5F9C93943041F4DF91CF91E1
:104EF00008958B3339F781E08C93F8CF208131818D
:104F0000B9016F5F7F4F71836083420F531FEA01C6
:104F10008883808191818F3591056CF7E7CF0F935E
:104F20001F9381E0009121191091221920912319DA
:104F30003091241940911D1950911E1960911F192B
:104F400070912019041715072607370708F480E029
:104F50001F910F91089590E080E008952091E4045E
:104F6000833021F425FD0CC024FD0CC030E0A901E4
:104F700002C0559547958A95E2F7CA018170089558
:104F800081E0089580E008958091FF0484FD0BC0C6
:104F90008091010587FD07C090910205937081E023
:104FA00019F480E0089581E00895082E000C990B13
:104FB000FC01EC51F54BE491EE2391F0F0E0EE0FA3
:104FC000FF1FE653F54BA591B4912C91865D944B50
:104FD000FC018491282381E090E021F480E0089591
:104FE00080E090E00895082E000C990BFC01EC5134
:104FF000F54BE491F0E0EE0FFF1FEA56F54BA5915B
:10500000B4912C91865D944BFC018491822391E0B4
:1050100009F490E0892F0895CF92DF92EF92FF92EA
:10502000CF93DF93EC01CC80DD80EE80FF8027E121
:1050300037EB41ED58EBC701B6010F94B77687FD0A
:1050400023C027E030E040E753E4C701B6010F94E6
:10505000656D1816CCF0C880D980EA80FB8027E106
:1050600037EB41ED58EBC701B6010F94B77687FDDA
:105070000BC0C1E027E030E040E753E4C701B601D0
:105080000F94656D18160CF4C0E08C2FDF91CF9152
:10509000FF90EF90DF90CF900895BC01990F880B9F
:1050A000990B0F946C6D2091F7063091F8064091A2
:1050B000F9065091FA060F94CB6D2091EF063091CE
:1050C000F0064091F1065091F2060F94577408953E
:1050D000BC01990F880B990B0F946C6D2091F3060E
:1050E0003091F4064091F5065091F6060F94CB6D81
:1050F0002091EB063091EC064091ED065091EE06C2
:105100000F94577408952FEB280F2A3108F047C0E9
:10511000E22FF0E08091FF0490910005A09101053D
:10512000B091020504C0B695A795979587952A95E5
:10513000D2F780FD02C081700895EB51FB4FE081F2
:10514000EE2341F18091820A9091830AE80FF92FB2
:10515000F11D808190ED980F9A3030F08E3251F42D
:10516000818180538A3098F4F093D504E093D4047D
:1051700081E008958D3211F08B3249F4818190EDF8
:10518000980F9A3088F38E3211F48281EACFF0E0E2
:10519000E0E0EACF1092D5041092D404E9CF80E089
:1051A000089510927C0A8091790790917A07A091D6
:1051B0007B07B0917C078093750790937607A09347
:1051C0007707B09378070895EBEDF9E0949198177D
:1051D00039F0319699E0E13FF907C1F780E0089591
:1051E00081E00895269A2E9A0895AB01BC01409360
:1051F00021195093221960932319709324198AE876
:105200009AE10C94D7E1BC01990F880B990B0D948E
:10521000D440CF93DF93C0913E09D0913F092097AE
:1052200029F160913A0970913B0980913C09909174
:105230003D090F94C3756E5F7F4F24976C177D07F0
:10524000ACF470938407609383070F946850605E9A
:1052500070448D4F9F4F60938507709386078093AE
:10526000870790938807DF91CF9108951092850763
:10527000109286071092870710928807F4CF0F9339
:105280001F9380932E02803208F046C0909119053A
:10529000891724F091E0980F9093190541E050E0B0
:1052A000082E02C0440F551F0A94E2F7052E000C89
:1052B000660B770B009115051091160520911705C7
:1052C00030911805402351236223732391E0452B2D
:1052D000462B472B09F490E090936D1287FD1FC079
:1052E000282F082E000C330B3F938F9383EF9CE005
:1052F0009F938F9383E09DE09F938F931F920E94D3
:10530000FDCD8DB79EB707960FB6F8949EBF0FBE22
:105310008DBF1F910F91089510926D12DFCF1F91D5
:105320000F910D94665A2F923F924F925F926F9217
:105330007F928F929F92AF92BF92CF92DF92EF9225
:10534000FF921F93CF93DF93CDB7DEB72C970FB6A5
:10535000F894DEBF0FBECDBF7A011901DC012D919B
:105360003D914D915C912D833E834F835887FB0186
:1053700040805180628073808090B8129090B91202
:10538000A090BA12B090BB12A50194016D817E81EC
:105390008F8198850F94656D81110EC011E0A30176
:1053A00092016091BC127091BD128091BE129091D9
:1053B000BF120F94656D811110E0D1012D913D91C7
:1053C0004D915C9129873A874B875C87F701C080B4
:1053D000D180E280F380209102023091030240915B
:1053E000040250910502C701B6010F94656D882330
:1053F00009F44EC0C0920202D0920302E09204026D
:10540000F09205028091C4129091C512A091C6122B
:10541000B091C7124091BC125091BD126091BE1262
:105420007091BF1280923A0A90923B0AA0923C0A75
:10543000B0923D0A40933E0A50933F0A6093400A5F
:105440007093410AC092420AD092430AE092440A01
:10545000F092450A8093460A9093470AA093480A1F
:10546000B093490A20E030E040E05FE360919B1296
:1054700070919C1280919D1290919E120F94CB6D11
:1054800069837A838B839C83CE0101960F94891D57
:105490002D813E814F81588520933A0A30933B0AF3
:1054A00040933C0A50933D0A40923E0A50923F0A74
:1054B0006092400A7092410AD1012D913D914D9127
:1054C0005C916091460A7091470A8091480A9091D8
:1054D000490A0F9457746093460A7093470A809361
:1054E000480A9093490A11112FC020E030E0A90129
:1054F00069857A858B859C850F94656D811133C094
:1055000060E070E088EC92E469837A838B839C830B
:10551000CE0101960F94891D2C960FB6F894DEBF2C
:105520000FBECDBFDF91CF911F91FF90EF90DF9025
:10553000CF90BF90AF909F908F907F906F905F9033
:105540004F903F902F9008952AEF3EE74AE25FE3A5
:1055500060919F127091A0128091A1129091A2125D
:105560000F94CB6DD1CF60E070E080EA91E4CCCFB6
:105570008091D4049091D504009731F04AE050E036
:1055800070E060E00D94806B60E070E0CB01089506
:1055900080918C0A82FF0BC063E68CED9DE00E9437
:1055A00004940F9474500E943D9881E0089580E027
:1055B00008958091D4049091D504009731F04AE089
:1055C00050E070E060E00D94526A60E070E0CB0162
:1055D00008950E94D92A97FD0CC00E94D92A6F3FD6
:1055E00071058105910509F034F40E94D92A862FAE
:1055F000089580E008958FEF08958091D4049091EC
:10560000D504892B41F00E94E92A91E0811101C063
:1056100090E0892F089591E0FCCF0F931F93CF93D3
:105620008091D4049091D5040097E9F0FC018F019A
:10563000C1912C2F2F7D81F0C53411F0C536B9F7FB
:10564000F801108270E060E00F94F468F801C08304
:10565000CF911F910F91089570E060E0CF911F915D
:105660000F910D94F46860E070E0CB01F1CF2F92C0
:105670003F924F925F926F927F928F929F92AF92E2
:10568000BF92CF92DF92EF92FF920F931F93CF932F
:10569000DF93D62FC72FFC0180809180A280B3803A
:1056A000C501B40120E831E541E050E00F94A97351
:1056B000C9016DE671E00F9426746B017C01C50190
:1056C000B40120E13EE040E050E00F94A973CA012C
:1056D000B90128E130E040E050E00F94A973362E84
:1056E000272E062F172F8CE3482E512C612C712C5E
:1056F000C501B401A30192010F94A973B62EA72E80
:10570000CA01B901A30192010F94A973CB01C1147D
:10571000D10479F1AF92BF927F936F932F923F9212
:10572000FF92EF92DF92CF9281E49EE19F938F935D
:10573000CF93DF930F94FC6C8DB79EB70E960FB688
:10574000F8949EBF0FBE8DBF8D2F9C2FDF91CF9100
:105750001F910F91FF90EF90DF90CF90BF90AF908F
:105760009F908F907F906F905F904F903F902F9081
:105770000895E114F104C9F0AF92BF927F936F9343
:105780002F923F92FF92EF9281E39EE19F938F933E
:10579000CF93DF930F94FC6CEDB7FEB73C960FB63A
:1057A000F894FEBF0FBEEDBFCFCF012BB9F0AF9283
:1057B000BF927F936F932F923F9285E29EE19F93DA
:1057C0008F93CF93DF930F94FC6C8DB79EB70A969F
:1057D0000FB6F8949EBF0FBE8DBFB6CF892BA9F030
:1057E000AF92BF927F936F938DE19EE19F938F93D2
:1057F000CF93DF930F94FC6CEDB7FEB738960FB6DE
:10580000F894FEBF0FBEEDBF9FCFAF92BF9289E16C
:105810009EE19F938F93CF93DF930F94FC6C0F9037
:105820000F900F900F900F900F908ECF8F929F92AE
:10583000AF92BF92CF92DF92EF92FF920F931F939E
:10584000CF93DF9310920805109207052FE3209362
:10585000060510920505109204051092030510929A
:10586000FF041092000510920105109202059C01A0
:10587000F90190812F5F3F4F9032D1F39E34C9F4EC
:10588000818190ED980F9A3020F08D3211F08B329B
:1058900081F432969F012F5F3F4F808180538A3081
:1058A00008F47BC09F012F5F3F4F8081803209F455
:1058B00076C0F093830AE093820A8F010F5F1F4F37
:1058C000C0816AE270E0C8010F949A77009731F0C6
:1058D000FC01319780818032E1F31182CD3429F0CF
:1058E000C43519F0C73409F04BC0F80180810F5F4F
:1058F0001F4F8032D1F380538A3008F041C0C093EB
:10590000060530E020E04AE0DF011196429FC00129
:10591000439F900D11249C01205331098081280F51
:10592000311D87FD3A95818190ED980F9A30C8F12D
:1059300030930505209304058E3261F4329690E091
:105940004AE0DF0131968C9150ED580F5A3058F1F2
:1059500090930305CD01DC0101964C914032D9F3BF
:10596000CD3489F52E31310539F018F5273131055F
:1059700019F02C31310539F5B0930805A0930705CE
:10598000DF91CF911F910F91FF90EF90DF90CF901B
:10599000BF90AF909F908F900895F9017BCFF90150
:1059A00081CFFD01B1CF949F800D112490ED980F10
:1059B000C8CF2537310538F027373105E8F2203ACE
:1059C00083E03807C9F2D091820A40E050E0BA0182
:1059D00010E000E0C12CD12C7601C394FD0131967A
:1059E0008C91882309F47FC08132E1F4CD34D1F465
:1059F00020323105B9F44093FF04509300056093C1
:105A0000010570930205F0930805E093070563E232
:105A100070E0CF010F949A77009709F4B1CFFC01A1
:105A20001082AECF81548A3108F058C0DF019D91B9
:105A3000903291F0A0EDA90FAA30E8F09E3271F4F7
:105A4000918190539A30B8F00115110519F48F0126
:105A50000150110990E013C0FD01E8CF9D3211F013
:105A60009B3291F79181A0EDA90FAA3020F09E32D0
:105A700059F79281E6CF9E2F9D1B309759F3A82F9F
:105A8000B0E04601570104C0880C991CAA1CBB1C3D
:105A90008A95D2F7482959296A297B29AB51BB4FEE
:105AA0009C9380818154DF018A3108F497CFDF0114
:105AB0008191882309F492CF90ED980F9A30B8F332
:105AC00093ED980F923098F38B3289F3CD010196C4
:105AD000EC91E03209F082CFDC01F8CF011511051D
