:100000000C948E3E0C94CE3E0C94CE3E0C94CE3E80
:100010000C94CE3E0C94CE3E0C94CE3E0C94CE3E30
:100020000C94CE3E0C94CE3E0C94CE3E0C94CE3E20
:100030000C94CE3E0C94CE3E0C94CE3E0C94CE3E10
:100040000C94CE3E0C945AFB0C94CE3E0C94CE3EB7
:100050000C94CE3E0C94E1F90C94CE3E0D9445BD2B
:100060000C94CE3E0D9453690D9449690C94CE3E88
:100070000C94CE3E0C94CE3E0C94CE3E0C94CE3ED0
:100080000D9496580C94CE3E0C94CE3E0C94CE3EDD
:100090000C94CE3E0C94CE3E0C94CE3E0C94CE3EB0
:1000A0000C94CE3E0C94CE3E0D9468580C94CE3EEB
:1000B0000C94CE3E0C94CE3E0C94CE3E0C94CE3E90
:1000C0000C94CE3E0C94CE3E0C94CE3E0C94CE3E80
:1000D0000C94CE3E0C94CE3E0C94CE3E0C94CE3E70
:1000E0000C94CE3E084AD73B3BCE016E84BCBFFD8C
:1000F000C12F3D6C74319ABD56833DDA3D00C77FF8
:1001000011BED9E4BB4C3E916BAAAABE0000008090
:100110003F05A84CCDB2D44EB93836A9020C50B91F
:10012000918688083CA6AAAA2ABE000000803F0744
:10013000634236B79BD8A71A39685618AEBAAB5582
:100140008C1D3CB7CC5763BD6DEDFD753EF6177247
:1001500031BF000000803F08000000BE9224491219
:100160003EABAAAA2ABECDCCCC4C3E00000080BE3D
:10017000ABAAAAAA3E00000000BF000000803F001A
:1001800000000000084178D3BB4387D1133D190E0E
:100190003CC3BD4282AD2B3E68EC8276BED98FE176
:1001A000A93E4C80EFFFBE01C4FF7F3F000000006E
:1001B00000000C94EC3E0D9417580C945D8F0C9439
:1001C0009CB30C949A940C9405930D94E5690D944A
:1001D000FC570C94FAA00D9426560C9408B20C947B
:1001E00091E20D948FB70C94276F0C9467920C9446
:1001F00049A70C9428A70C94D1E60C9497940C94DE
:100200008C960D9428900D94AAB70C94C2460C9429
:10021000C2510C94E4B10C9416A70C94E7B10C9461
:1002200004A70C9422A70C944A9B0C94B28E0C94B5
:10023000DE8E0D944D580C94CC6E0C94FEA60C944E
:1002400091DF0C9440AC0D9448560C94FE920D94A2
:10025000C3940C940FC90C949FAD0C947FA80C947C
:1002600000E00C94FA920C948EE20C94F8A60C9494
:10027000A0980D9453910D946C5A0C943ABF0D9420
:1002800032580C9406440C94E2DD0C94E0A60C94D5
:10029000396E0D94F1690C944BC20C94B1920D948B
:1002A000CF690C94E4AB0C943EBF0C940F9A0C9461
:1002B000196F0D94C0690C9447C20C94986E0C94FD
:1002C000D5510C945F930C94336F0D9495B70C94A7
:1002D0009BDF0D94105E0C94DC9C0C94B43F0C944A
:1002E000EAB10C9454A80D940F6A0C9498AB0C943A
:1002F000B5910D9426B70C9496B90C94559F0C9417
:10030000B5D40D94F1940D94B6940D94DE690C94CB
:10031000766E0C947AA80D94176A0C94E9910C945B
:10032000916E0C946CD80D94FA550D9406560C945D
:100330008EDF0C945EAE0D949E940C940DCD0C94B7
:10034000ECCA0C9488DF0C944B920C94C7BA0C94B2
:1003500037AC0C94856F0D9483940D947EB70C94F8
:1003600052B40D948D940C9434A70C94FD910C947C
:1003700030BF0C942D920D94BE940C943CA50D941A
:10038000C4940C94548F0C949A920C94696E0C94AF
:100390002E8F0C946C6E0C943F400D949FB70C9470
:1003A0007FDF0C943CBF0C9475A80C94956E0D9453
:1003B0006A560D9495940C949CE70C945F9F0C9452
:1003C000D33E0C946CD10C94369C0C9466AD0C947A
:1003D00090A10C941E940D94ED690C9496DF0C94EE
:1003E000C9910D94CFC50C94D69E0C94F4DF0D9456
:1003F000AA3D0C94FC440C94AA930D94BE480C9412
:1004000018B40D94EDC50C9419920C947CDF0C94E7
:100410000A440C942CC60C94F2A60C943F6F0C94D6
:10042000C7A30C94926F0C948DE20C945B6F0C94A8
:10043000AC6F0C9491930C94F9E50C9463C20C94FA
:1004400002440C94B5E50C94AB910D94798F0C9407
:10045000A2AB0C941CA70D9490560D94B0940C94E0
:100460009DAB0C9473B00C9467C20C94EF3E0C944B
:100470007A6E0C94D5B40C9492E60C94F36E0D94B1
:100480008E560C949E580D94A9430C949E9C0D94EA
:1004900092560C9465950C9498DF0C9489A80C9452
:1004A00036BF0C941D8F0D94A8940C940BE20C9401
:1004B000A8A80C94696F0C9443C20C9432BF0C949E
:1004C000129B0D9408420C94A9A00C9451990C9481
:1004D00027A90C94846E0C9483910C94AFA00D9476
:1004E000BA940C94FD6E0C94FE460C94EDB10C94F1
:1004F0008B6E0D94AE920C94B96F0C9485DF0C94B6
:1005000059920C944FC20C9483920C9408A90D94A8
:10051000C8940C94BACE0C944D6F0C9424930C9404
:100520001AC10C943DC70C947DA10C943B8F0D9483
:100530006E560C94E6A60C945A9F0C94FDAE0C9447
:10054000706E0C947D6E0C9414E60D9483B70C942D
:1005500012D90C948BDF0C945BC20C9444A70D94BD
:1005600024420C949EDF0D9441530C9438BF0C949C
:1005700016CA0C945FC20C940AA70D9489940C942B
:1005800046A90C941CE50C947AB30C949E940C949C
:10059000F8DD0D94A2940C9410A70D941E950C9464
:1005A00099B40C94876E0C9497910C9471DF0C9411
:1005B00094E50C94B7470D94046A0D94728F0C94D3
:1005C000DD3F0C94A6C20D9446560C9434BF0D9496
:1005D0006C560C94D3910C94ECA60D94F9690D947F
:1005E00024560C947DAD0C94C7A80C9478930C946D
:1005F00006DB0C9441920C9466400C9484A80D94F4
:100600001F950C94DAAB0C940B6F0D94A7920C947D
:1006100081970D9498940C9494AD0C9413E40D94DC
:10062000FD690C948E6E0C9453C20C94E8930D9457
:10063000E9690C942EA70C9440BF0D9484920D94FC
:10064000AC940C94ABB60C94A4E60C94D03E0C94F1
:100650004FAC0C9484B30C9457C20C94D58E0C946C
:1006600046930C94816E0D9491940C94776F0C9436
:10067000FFE40C948FB40C949F6F0D94F5690C9467
:100680003E6E0C94F4440D944A560C94BDC40D94E3
:1006900041B70C9482DF0C94D9B40C940B920C9457
:1006A00096AF0D9491690C9450D00C94736E0C9489
:1006B000EEDF0C9495D54E414E494E495459494E62
:1006C00046CDCCCC3D0AD7233C17B7D13877CC2BBD
:1006D000329595E6241FB14F0A000020410000C862
:1006E0004200401C4620BCBE4CCA1B0E5AAEC59DE3
:1006F0007400407A10F35A00A0724E18090010A539
:10070000D4E80000E87648170000E40B540200002B
:10071000CA9A3B000000E1F50500008096980000B1
:100720000040420F000000A08601000000102700DA
:10073000000000E803000000006400000000000A60
:1007400000000000000100000000002C76D888DCCA
:10075000674F0823DFC1DFAE59E1B1B796E5E3E4A7
:1007600053C63AE651997696E8E6C28426EB898C20
:100770009B62ED407C6FFCEFBC9C9F40F2BAA56F82
:10078000A5F490055A2AF75C936B6CF9676DC11B51
:10079000FCE0E40D47FEF520E6B500D0ED902E0319
:1007A00000943577050080841E080000204E0A0062
:1007B0000000C80C333333330F986E12831141EFAE
:1007C0008D2114893BE65516CFFEE6DB18D1844B0C
:1007D000381BF77C1D901DA4BBE424203284725E7C
:1007E000228100C9F124ECA1E53D275A5F53544F03
:1007F000505F50494E005A5F535445505F50494E28
:10080000005A5F4D494E5F50494E005A5F454E4178
:10081000424C455F50494E005A5F4449525F50492F
:100820004E00595F53544F505F50494E00595F532B
:100830005445505F50494E00595F4D494E5F5049F5
:100840004E00595F454E41424C455F50494E00595C
:100850005F4449525F50494E00585F53544F505FB8
:1008600050494E00585F535445505F50494E005810
:100870005F4D494E5F50494E00585F454E41424CD6
:10088000455F50494E00585F4449525F50494E0001
:10089000535549434944455F50494E0053455256CC
:1008A0004F335F50494E00534552564F325F5049C7
:1008B0004E00534552564F315F50494E00534552FA
:1008C000564F305F50494E00534453530053445FDA
:1008D0004445544543545F50494E004D4F5346459F
:1008E000545F435F50494E004D4F534645545F425D
:1008F0005F50494E004D4F534645545F415F50494C
:100900004E0054454D505F305F43535F50494E0099
:100910004C45445F50494E004C43445F50494E5350
:100920005F5253004C43445F50494E535F454E4124
:10093000424C45004C43445F50494E535F4437009E
:100940004C43445F50494E535F4436004C43445F30
:1009500050494E535F4435004C43445F50494E5319
:100960005F4434004B494C4C5F50494E0048454170
:100970005445525F4245445F50494E0048454154FA
:1009800045525F305F50494E0046494C5F52554ECC
:100990004F55545F50494E0046414E5F50494E00FE
:1009A00045315F535445505F50494E0045315F45D6
:1009B0004E41424C455F50494E0045315F444952DB
:1009C0005F50494E0045315F43535F50494E0045EB
:1009D000305F535445505F50494E0045305F454E9F
:1009E00041424C455F50494E0045305F4449525F9B
:1009F00050494E00444F474C43445F53434B0044DF
:100A00004F474C43445F4D4F534900444F474C437D
:100A1000445F435300444F474C43445F41300042DE
:100A2000544E5F454E430042544E5F454E320042A5
:100A3000544E5F454E31004245455045525F504946
:100A40004E004156525F53535F50494E004156523B
:100A50005F53434B5F50494E004156525F4D4F53D9
:100A6000495F50494E004156525F4D49534F5F50C8
:100A7000494E0054454D505F4245445F50494E0039
:100A800054454D505F315F50494E0054454D505FC5
:100A9000305F50494E0046494C57494454485F50D6
:100AA000494E0054584430005258443000434F4D92
:100AB0004D554E49434154494F4E004452595255A9
:100AC0004E004552524F525300494E464F00454347
:100AD000484F0020440020490020204D3330312071
:100AE0005000486F74656E642050494400204400F3
:100AF00020490020204D33303420500042656420CE
:100B00005049440050574D3A202025346400505736
:100B10004D3A20202534640050574D3A202025348A
:100B2000640050574D3A20202534640050574D3A08
:100B300020202534640050574D3A2020253464008D
:100B400050574D3A20202534640050574D3A20200C
:100B50002534640050574D3A202025346400505706
:100B60004D3A20202534640050574D3A202025343A
:100B7000640050574D3A20202534640050574D3AB8
:100B800020202534640050574D3A2020253464003D
:100B900050574D3A20202534640050574D3A2020BC
:100BA000253464003A200020202020434F4D0020AF
:100BB00020206E6F6E2D7374616E646172642050BC
:100BC000574D206D6F646500202020636F6D70614C
:100BD000726520696E7465727275707420656E61DD
:100BE000626C6564002020206F766572666C6F779A
:100BF00020696E7465727275707420656E61626CC6
:100C00006564003A20002020202054494D534B00B9
:100C1000423A2000202020205443435200413A20F1
:100C20000020202020544343520020202020435302
:100C30003A20002020202057474D3A200050574DA1
:100C40003A20202534640050574D3A202025346442
:100C50000047004800000088008A008C00B300B400
:100C600000000098009A009C00A800AA00AC002890
:100C7000012A012C012020202054494D45520044D6
:100C80000045006E00800081006F00B000B1007070
:100C900000900091007100A000A1007200200121CD
:100CA00001730020697320616C736F20746965643F
:100CB00020746F20746869732070696E0054494D08
:100CC00045523143000A202E002020002020506F82
:100CD00072743A200020202000202020416E616C98
:100CE0006F6720696E203D2025356C64003C756E71
:100CF000757365642F756E6B6E6F776E3E0020287E
:100D00004125326429202000253364200050494EBB
:100D10003A20004F7574707574203D2000496E7044
:100D2000757420203D2000416E616C6F6720696EF4
:100D3000203D2025356C640070726F7465637465A6
:100D400064200020284125326429202000253364B6
:100D5000200050494E3A2000A80A0001A30A0101D0
:100D6000960A3B008B0A4300800A4500730A440040
:100D7000660A3201590A33014D0A3401420A35012B
:100D8000370A25012F0A1F01270A21011F0A230103
:100D9000150A1B010B0A1901FF093301F40934017B
:100DA000E9091C01DB091801CF091A01C5092C0149
:100DB000BA092201AC091E01A00924019809090100
:100DC000890902017C090A016D09080164092901E8
:100DD000580917014C09190140091B0134091D016B
:100DE000240911011809100110090D01020942011D
:100DF000F5080A01E8080701DB080801CD08310100
:100E0000C8083501BD080B01B2080601A708050195
:100E10009C08040190080C01860837017908260116
:100E20006F08030164083601590803014F083D01AA
:100E30004208380138080E012D083C0122080E0135
:100E4000180830010B083E0101081201F6072E01B7
:100E5000EB071201446F6E652E0A0050756C7369C2
:100E60006E6720202000556E746F7563686564207E
:100E70000066616C7365004641494C3A204E6F2014
:100E8000747269676765722064657465637465640C
:100E90000A004641494C3A204E6F697365206465EB
:100EA000746563746564202D20706C6561736520C2
:100EB00072652D72756E20746573740A0020646506
:100EC0007465637465642E0A003D20424C546F754E
:100ED0006368207072652056332E3120286F72208F
:100EE000636F6D70617469626C6529003D205A20E2
:100EF000536572766F2050726F6265003D20424CE0
:100F0000546F7563682056332E310020282B2F2D07
:100F100020346D73293A20003A2033306D73206FEE
:100F200072206D6F72650A002E2050756C736520FB
:100F30007769647468002A2A20506C6561736520A3
:100F4000747269676765722070726F626520776975
:100F50007468696E20333020736563202A2A0A0082
:100F60004641494C3A20424C544F55434820656E07
:100F700061626C6564202D20536574207570207447
:100F800068697320646576696365206173206120F8
:100F9000536572766F2050726F626520776974684E
:100FA00020494E56455254494E472073657420746B
:100FB0006F202774727565272E0A00202044455043
:100FC0004C4F5945442073746174653A204C4F5717
:100FD00020286C6F67696320302900202044455029
:100FE0004C4F5945442073746174653A2048494711
:100FF0004820286C6F676963203129003D204D65CA
:101000006368616E6963616C2053776974636820FB
:1010100064657465637465640A005741524E494EB5
:10102000473A20494E56455254494E4720736574FD
:1010300074696E672070726F6261626C79206261A0
:10104000636B77617264732E0A002E204465706CA6
:101050006F7920262073746F7720342074696D6552
:10106000730A003D20424C546F75636820436C61E5
:101070007373696320312E322C20312E332C205390
:101080006D61727420312E302C20322E302C2032A3
:101090002E322C20332E302C20332E3120646574D8
:1010A00065637465642E0A002E20436865636B20B7
:1010B000666F7220424C544F5543480A002E205A06
:1010C0005F4D494E5F454E4453544F505F494E5615
:1010D000455254494E473A20002E2050726F6265A7
:1010E000205A5F4D494E5F50494E3A20002C2073E4
:1010F000746F7720616E676C653A202020002C2089
:101100006465706C6F7920616E676C653A2000537E
:101110006572766F2070726F626520746573740AF1
:101120002E207573696E6720696E6465783A202099
:10113000004D343320576169742043616C6C6564E1
:10114000005761746368696E672070696E730A0086
:1011500064697300656E0061626C65640A00656EA7
:101160006473746F70206D6F6E69746F72200020ED
:10117000580020204D61783A2000200020204D6941
:101180006E3A2000203B200020204D323131205388
:1011900000536F667420656E6473746F7073003FE4
:1011A00043616E6E6F7420777269746520746F206E
:1011B000494E5055540A00496E76616C696420505E
:1011C000696E204D6F64650A00203B0020550020A9
:1011D000204D363033204C0046696C616D656E746D
:1011E000206C6F61642F756E6C6F6164004D3234DA
:1011F00053256C6454256C64004739322E394525DB
:10120000730047314625640047315A25734636300E
:10121000300047315825735925734633303030003C
:101220004D313036502569532569004D31303953E1
:101230002569004D323030442573004739322E394C
:101240005A2573004D3432305325635A25730047B5
:101250003238523058590047315A257346363030AB
:10126000004739322E395A2573004739322E394515
:1012700030004D313039532569004D313930532517
:1012800069004D343230205330205A3000203B204A
:101290000020204D343133205300506F7765722D7C
:1012A0006C6F7373207265636F76657279004F4659
:1012B00046004F4E00203B20486F73742068616EDB
:1012C000646C696E672000203B204D6F64652000D0
:1012D0006D6D00203B2044697374616E636520006E
:1012E00046696C616D656E742072756E6F757420E1
:1012F000003B200020496E76616C6964206578743B
:101300007275646572200047322F47332062616432
:1013100020706172616D65746572730A00536C654B
:1013200065702E2E2E005A2050726F62652050611B
:101330007374204265640A005A2050726F626520FF
:10134000506173742042656400205A3A200020598D
:101350003A200042656420583A20004D65736820A9
:10136000706F696E74206F7574206F662072616E85
:1013700067650A004D302053746F70004D31205363
:10138000746F7000436C69636B20746F20526573D7
:10139000756D652E2E2E004E6F204D6F76652E00DA
:1013A000456E642066696C65206C6973740A00423E
:1013B0006567696E2066696C65206C6973740A00E4
:1013C0004E6F206D656469610A00526573756D69C1
:1013D0006E6720534400286E6F2066696C65290093
:1013E00043757272656E742066696C653A200050B0
:1013F00072696E742074696D653A20000A537461D5
:1014000074733A2046696C616D656E7420757365FE
:10141000643A20002C204C6F6E67657374206A6FED
:10142000623A2000546F74616C2074696D653A20D3
:101430000053746174733A20002C204661696C6516
:10144000643A20002C2046696E69736865643A200E
:10145000005072696E74733A200053746174733A69
:1014600020006F6B006F666600CE0AC90AC20ABB15
:101470000AAD0A44454255473A004D3131332053B5
:101480000053755065522043522D3230204F46464E
:101490002E002F2F004D31343520533C696E64658A
:1014A000783E206F7574206F662072616E676520CC
:1014B00028302D31290A0046523A0020466C6F77B9
:1014C0003A200050726F7465637465642050696ED1
:1014D0000A003A200020536572766F2000206F7555
:1014E00074206F662072616E67650A0053657276BC
:1014F0006F200064697300656E0043290A00616211
:101500006C656420286D696E2074656D70200043E1
:101510006F6C6420657874727564657320617265A0
:101520002000424C546F756368204853206D6F64EF
:101530006520004F666673657473204170706C6936
:101540006564004572723A20546F6F2066617221A3
:1015500000546F6F206661722066726F6D20726535
:10156000666572656E636520706F696E740A00450A
:101570004550524F4D204F4B0A002E0A0020283074
:101580002D313029002076616C7565206F757420CF
:101590006F662072616E676500416476616E636597
:1015A000204B3D004D383400446F6E6520707269E9
:1015B0006E74696E672066696C650A004D37370086
:1015C0004D33310020204D323036205800486F6DA9
:1015D00065206F6666736574004361703A00434F1F
:1015E0004E4649475F4558504F5254004D4541546F
:1015F0005041434B00434F4F4C45525F54454D5073
:1016000045524154555245004348414D4245525F71
:1016100054454D504552415455524500424142595E
:101620005354455050494E470041524353004D4F8B
:1016300054494F4E5F4D4F44455300544845524D19
:10164000414C5F50524F54454354494F4E0045580A
:1016500054454E4445445F4D323000435553544F3A
:101660004D5F4649524D574152455F55504C4F4191
:1016700044004C464E5F5752495445004C4F4E472C
:101680005F46494C454E414D45004155544F5245EA
:10169000504F52545F53445F535441545553005379
:1016A000445F575249544500524550454154004DFE
:1016B000554C54495F564F4C554D4500534443419A
:1016C00052440050524F4D50545F535550504F525A
:1016D0005400484F53545F414354494F4E5F434F6A
:1016E0004D4D414E445300454D455247454E43599B
:1016F0005F50415253455200434153455F4C494767
:1017000048545F4252494748544E45535300544F42
:1017100047474C455F4C494748545300534F465444
:10172000574152455F504F574552004255494C442E
:101730005F50455243454E54004C4556454C494E2A
:10174000475F44415441005A5F50524F4245005256
:10175000554E4F5554004155544F4C4556454C003D
:101760005052494E545F4A4F420050524F475245E3
:101770005353004155544F5245504F52545F5445B6
:101780004D50004155544F5245504F52545F504FA9
:101790005300564F4C554D45545249430045455012
:1017A000524F4D0042494E4152595F46494C455FA8
:1017B0005452414E534645520053455249414C5FA5
:1017C000584F4E5F584F4646004649524D5741527A
:1017D000455F4E414D453A4D61726C696E20322E27
:1017E000302E395F4457372E342E3620544D334433
:1017F0002032534D44425520284170722032382007
:10180000323032322030313A32363A3534292053B0
:101810004F555243455F434F44455F55524C3A68DC
:10182000747470733A2F2F6769746875622E636FD2
:101830006D2F496E73616E6974794175746F6D6156
:1018400074696F6E2F4D61726C696E2F747265656D
:101850002F437265616C6974794477696E5F322ECB
:10186000302050524F544F434F4C5F5645525349CE
:101870004F4E3A312E30204D414348494E455F543A
:101880005950453A53755065522043522D323020FD
:1018900045585452554445525F434F554E543A3182
:1018A00020555549443A63656465326132662D348A
:1018B0003161322D343734382D396231322D633570
:1018C000356336326633363766660A0020204D327D
:1018D00035302043004C434420436F6E7472617373
:1018E000740050726F6265204F6666736574205A8B
:1018F0000050726F6265204F6666736574205A00EF
:10190000290A0020746F20003F5A206F7574206FE1
:10191000662072616E6765202800290A0020746FB6
:1019200020003F59206F7574206F662072616E67CA
:101930006520282D00290A0020746F20003F5820C0
:101940006F7574206F662072616E676520282D00A8
:10195000203B0020204D3835312058005A2D507240
:101960006F6265204F66667365740043616E6E6FCB
:1019700074206F70656E2073756264697220002533
:1019800069730025696D2025697300256968202524
:10199000696D202569730025696420256968202503
:1019A000696D2025697300256979202569642025E2
:1019B00069682025696D2025697300436F6F6C6924
:1019C0006E672E2E2E00453120255300426564207F
:1019D000436F6F6C696E672E2E2E0042656420483F
:1019E000656174696E672E2E2E0023646566696ECC
:1019F000652044454641554C545F00626564004B88
:101A00006420004B6920004B702000504944207432
:101A1000756E696E6720646F6E65005049442041A1
:101A200075746F74756E652066696E697368656438
:101A3000212050757420746865206C617374204B8C
:101A4000702C204B6920616E64204B6420636F6EA4
:101A50007374616E74732066726F6D2062656C6F53
:101A60007720696E746F20436F6E66696775726167
:101A700074696F6E2E680A00504944204175746F76
:101A800074756E65206661696C6564212074696D8A
:101A9000656F75740A004175746F74756E652066A4
:101AA00061696C6564212054696D656F75742E00E1
:101AB000504944204175746F74756E652066616984
:101AC0006C6564212054656D706572617475726512
:101AD00020746F6F20686967680A0050494420438A
:101AE00079636C65730025532025692F25690020D3
:101AF0004B643A2000204B693A2000204B703A207A
:101B00000020436C617373696320504944200A00CC
:101B1000204E6F206F76657273686F6F740A0020B5
:101B200054753A2000204B753A2000206D61783AB8
:101B30002000206D696E3A200020643A2000206267
:101B40006961733A200048656174696E672E2E2EB4
:101B500000504944204175746F74756E652073742C
:101B60006172740A004175746F74756E65206661E8
:101B7000696C65642E2054656D7065726174757250
:101B80006520746F6F20686967682E005049442093
:101B90004175746F74756E65206661696C6564214A
:101BA0002054656D706572617475726520746F6F15
:101BB00020686967680A00504944204175746F7451
:101BC000756E6500504944204175746F74756E657B
:101BD000206661696C6564212042616420686561EA
:101BE0007465722069640A004572723A20757466E1
:101BF0003820666F6E74206E6F7420696E69746928
:101C0000616C697A65642E004572723A207574665B
:101C10003820666F6E74206E6F7420696E69746907
:101C2000616C697A65642E004572723A207574663B
:101C30003820666F6E74206E6F7420696E697469E7
:101C4000616C697A65642E002568753A25303268C2
:101C5000750025303268753A2530326875002530B8
:101C6000326875272530326875002568756420252F
:101C7000303268753A253032687500FFE0FFD14098
:101C8000A0C8A6A22FF80023AC00AF10FFFEFF05EE
:101C9000FFD0FFE0FFC1FFD1E240A0C8A6A22FF80D
:101CA00000238127AC00AFFFD0FF64FFD1A5FFD098
:101CB000FF64FF64FFD1A4FFD0FF16FFFE426564FE
:101CC00000456E636C6F73757265002020202020C4
:101CD0002020002020202000657272001FE02010CC
:101CE000201020101020102020102010303008402C
:101CF000048003001FE03FF03FF03FF01FE01FE0D3
:101D00003FF03FF03FF00FC0078003003FFFF03887
:101D1000007030FC3020FC102078102030102C0097
:101D2000D02E31D02F7BD02F7BD02E31D02C00D095
:101D300020301020781020FC1030FC303800703F2C
:101D4000FFF03FFFF038007031863023871027877F
:101D5000902F87D02F03D0203010207810207810BB
:101D60002030102F03D02F87D02787902387103162
:101D700086303800703FFFF01FFFF81FFFF8041097
:101D80004002082002082004104008208010410072
:101D90001041000820800410400000001FFFF81FC1
:101DA000FFF8FFFFFF8000018E00E19F01F19381AA
:101DB000399F81F99F81F99FB9F98F28F180380106
:101DC0008000019FFFF99174999B06A99B54A99BE0
:101DD00056A99B54999FFFF9FFFFFF537550655219
:101DE0002043522D32302052656164792E005072AA
:101DF000696E74696E672E2E2E0063616E63656C6A
:101E0000005072696E742041626F7274656400558F
:101E1000492041626F72746564004D323520500A6A
:101E20004D3234005072696E742050617573656470
:101E300000526573756D6500554920506175736575
:101E40000050617573696E672E2E2E007265737572
:101E50006D65004D32340000FE0003FF8007C7C0EF
:101E60000701E00000E00000F00000700400700EC8
:101E700000701F00703F80F00E00E00F01E007C708
:101E8000C003FF8000FE0000FE0003FF8007C7C004
:101E90000F01E00E00E03F80F01F00700E007004A4
:101EA00000700000700000F00000E00701E007C7CC
:101EB000C003FF8000FE000E000E000E000E000E9C
:101EC000000E000E000E007FC03F801F000E0004B9
:101ED0000004000E001F003F807FC00E000E000EA9
:101EE000000E000E000E000E000E00FFFFFF7F80B0
:101EF000FFC0FFC0FFC07F807F80FFC0FFC0FFC06A
:101F00003F001E000C0050726F6265205A204F6621
:101F10006673657400000C0F00FE07022503BB0109
:101F20007FFE08FE08FE05080806000040F0C8888D
:101F300088987810050808060000C0F88888888806
:101F400088F80505050600012030F830200508084E
:101F50000600002070F820202020E0050909060076
:101F6000FF2070A8A8B88888702007050507000121
:101F7000D86C366CD80509090600FFF8A88888884F
:101F80008888A8F8050A0A0600FE2050505050889C
:101F9000A8A8887003030306000340A040FFFFFFCA
:101FA000FFFFFFFFFFFFFFFFFFFFFFFFFFFFFFFF41
:101FB000FFFFFF0000000605FF0107070602008083
:101FC000808080800080030303060105A0A0A00597
:101FD000060606000050F85050F8500509090600A2
:101FE000FF2070A8A07028A8702005070706000031
:101FF000C8C8102040989805070706000040A0A018
:1020000040A8906801030306020580808003090947
:102010000601FF20404080808040402003090906DF
:1020200001FF804040202020404080050707060037
:102030000020A8702070A8200505050600012020BA
:10204000F820200203030601FFC0408005010106BD
:102050000003F8020202060100C0C00507070600DF
:102060000008101020404080050707060000708817
:1020700098A8C8887003070706010040C040404088
:1020800040E0050707060000708808102040F805AA
:102090000707060000F808103008887005070706D3
:1020A000000010305090F81010050707060000F8E7
:1020B00080F008088870050707060000304080F0AF
:1020C000888870050707060000F8081010202020F7
:1020D0000507070600007088887088887005070764
:1020E0000600007088887808106002050506010067
:1020F000C0C000C0C00206060601FFC0C000C0404C
:1021000080030505060101204080402005030306E9
:102110000002F800F8030505060101804020408018
:10212000050707060000708810202000200507071B
:102130000600007088B8A8B8807005070706000080
:10214000708888F8888888050707060000F04848E6
:10215000704848F005070706000070888080808876
:1021600070050707060000F04848484848F0050792
:1021700007060000F88080F08080F8050707060059
:1021800000F88080F08080800507070600007088D6
:102190008080988870050707060000888888F8887E
:1021A0008888030707060100E04040404040E00502
:1021B000070706000038101010109060050707068A
:1021C00000008890A0C0A090880507070600008046
:1021D0008080808080F805070706000088D8A888DE
:1021E0008888880507070600008888C8A898888816
:1021F000050707060000708888888888700507072B
:10220000060000F08888F08080800507070600003F
:1022100070888888A89068050707060000F08888FD
:10222000F0A0908805070706000070888070088875
:1022300070050707060000F8202020202020050751
:1022400007060000888888888888700507070600C8
:102250000088888888505020050707060000888875
:102260008888A8A8500507070600008888502050D5
:102270008888050707060000888850202020200550
:102280000707060000F80810204080F80309090637
:1022900001FFE080808080808080E00507070600E5
:1022A00000804040201010080309090601FFE020CB
:1022B000202020202020E005030306000520508870
:1022C0000501010600FEF803030306010580402016
:1022D00005050506000070087888780507070600E0
:1022E000008080F0888888F0050505060000708071
:1022F00080887005070706000008087888888878B5
:102300000505050600007088F080700507070600C7
:1023100000304840E04040400507070600FE708856
:1023200088887808700507070600008080F0888894
:1023300088880307070601004000C0404040E004D1
:1023400009090601FE1000301010101090600507FA
:102350000706000080808890E09088030707060148
:1023600000C04040404040E0050505060000D0A800
:10237000A8A8A8050505060000B0C8888888050536
:102380000506000070888888700507070600FEF0C3
:10239000888888F080800507070600FE788888888E
:1023A000780808050505060000B0C880808005058E
:1023B0000506000078807008F00507070600002079
:1023C00020F8202020180505050600008888889838
:1023D0006805050506000088888850200505050663
:1023E00000008888A8A85005050506000088502030
:1023F00050880507070600FE888888502040800521
:102400000505060000F8102040F80309090601FF41
:102410002040404080404040200109090602FF80E2
:1024200080808080808080800309090601FF8040D1
:102430004040204040408005030306000248A89029
:10244000FF554E4C4F41442046494C414D454E545A
:10245000004C4F41442046494C414D454E540046A6
:10246000494C414D454E54204348414E474500524A
:10247000756E6F75742044697374206D6D004D6FB7
:1024800074696F6E20456E636F6465720053656E8C
:10249000736F72204C6F770053656E736F722048B4
:1024A000696768004E6F2053656E736F72005275D6
:1024B0006E6F75742053656E736F720052756E6F18
:1024C0007574204D6F6465004C6F6164206D6D0004
:1024D000556E6C6F6164206D6D0046696C2E2044F2
:1024E00069612E004520696E206D6D5E3300416488
:1024F00076616E6365204B004D33303320553120BB
:102500004525692053256900504944204175746F61
:1025100074756E65202A005049442D44202A0050CD
:1025200049442D49202A005049442D50202A00209A
:10253000082046616374002008204D61780020085F
:10254000204D696E004F6666004F6E004175746FD6
:1025500074656D70004D696E2054726176656C20F3
:1025600056656C004D696E2056656C6F63697479B1
:10257000004D617820452056656C004D6178205AE9
:102580002056656C004D617820592056656C004DD1
:10259000617820582056656C004D617820452041B7
:1025A0006363656C004D6178205A20416363656CFC
:1025B000004D6178205920416363656C004D61785E
:1025C000205820416363656C0054726176656C200D
:1025D000416363656C00526574726163742041638A
:1025E00063656C00416363656C004D617820452034
:1025F0004A65726B004D6178205A204A65726B0003
:102600004D61782059204A65726B004D61782058E1
:10261000204A65726B0050726F6265205A204F66C7
:10262000667365740050726F62652059204F66664C
:102630007365740050726F62652058204F66667330
:10264000657400452073746570732F6D6D005A209A
:1026500053746570732F6D6D0059205374657073DA
:102660002F6D6D00582053746570732F6D6D004190
:102670006476616E6365642053657474696E677314
:10268000003F0043616E63656C00496E6974004DE4
:1026900034323800496E697469616C697A65204525
:1026A0004550524F4D0046696C616D656E74005423
:1026B000656D7065726174757265005374657073D1
:1026C0002F6D6D0050726F6265204F666673657482
:1026D00073004A65726B00416363656C6572617477
:1026E000696F6E0056656C6F636974790053657429
:1026F00020486F6D65204F66667365747300436F85
:102700006E66696775726174696F6E003F004E6531
:10271000787420506F696E7400446F6E65004E656A
:102720007874003F0043616E63656C204F626A6598
:102730006374004E4F005945530043616E63656CEE
:10274000204F626A656374203D004D61696E0048E8
:102750006967682053706565640053572D4D6F6439
:10276000650053746F77004465706C6F7900536532
:102770006C662D5465737400526573657400426510
:1027800064004E6F7A7A6C650046616E2053706506
:10279000656400436F6E66696775726174696F6E18
:1027A00000526573746F72652044656661756C7460
:1027B00073004C6F61642053657474696E677300B5
:1027C00053746F72652053657474696E677300503B
:1027D000726568656174202420436F6E6600506FD7
:1027E000776572204F7574616765004F6666004FAC
:1027F0006E0052756E6F75742053656E736F720044
:102800004C434420436F6E747261737400424C54A5
:102810006F7563680050726F6265205A204F66665C
:1028200073657400416476616E63656420536574FA
:1028300074696E6773004D61696E004D37303220E8
:10284000542564004D363030204230205425640039
:102850004D373032203B2564004D37303120542530
:1028600064004D373032004D373031004D36303056
:10287000204230004D61696E00436F6E74696E7561
:1028800065004F6666004F6E0052756E6F7574205E
:1028900053656E736F72005075726765206D6F724D
:1028A0006500524553554D45204F5054494F4E53A6
:1028B0003A005052494E542050415553454400204F
:1028C000204E6F7A7A6C653A20005061726B696EA7
:1028D000672E2E2E0000005761697420666F72000B
:1028E00066696C616D656E74206368616E67650012
:1028F000746F207374617274005761697420666F1D
:10290000720066696C616D656E7420756E6C6F61C6
:102910006400004E6F7A7A6C652068656174696E38
:102920006700506C6561736520776169742E2E2E87
:102930000000507265737320627574746F6E00745A
:102940006F2068656174206E6F7A7A6C650000494B
:102950006E736572742066696C616D656E7400617A
:102960006E6420707265737320627574746F6E008C
:10297000746F20636F6E74696E756500576169745A
:1029800020666F720066696C616D656E74206C6F95
:1029900061640000507265737320427574746F6EC9
:1029A00000746F20726573756D65207072696E7446
:1029B00000005761697420666F72207072696E74CE
:1029C00000746F20726573756D652E2E2E00005792
:1029D00061697420666F720066696C616D656E7402
:1029E00020707572676500003E2000256C642E25FE
:1029F000696D00457874727564656420546F746104
:102A00006C003E20004C6F6E67657374204A6F62E5
:102A10002054696D65003E20005072696E74205428
:102A2000696D6500436F6D706C65746564003A2074
:102A3000005072696E7420436F756E74003A200006
:102A40003135300035004245443A2041544320316D
:102A5000303447542D320052756E617761792057BA
:102A6000617463683A204F4E004D61782054656D63
:102A70007000343530004D696E2054656D7000353E
:102A80000045313A20536C696365456E67203435E3
:102A900030C2B043005053550047656E657269639C
:102AA0000050726F746F636F6C00312E30004261A2
:102AB00075640032353030303000437265616C69C6
:102AC000747933442052414D505300556E69666904
:102AD000656420426564204C6576656C696E6700AC
:102AE00045787472756465727300310074696E792B
:102AF0006D616368696E657333642E636F6D005337
:102B0000755065522043522D323000323032322D12
:102B100030342D303300322E302E395F4457372E6B
:102B2000342E36004D61726C696E005072696E749D
:102B3000657220537461747300546865726D6973B3
:102B4000746F727300426F61726420496E666F0029
:102B50005072696E74657220496E666F004D6169CE
:102B60006E004D313030300053746F7020507269F8
:102B70006E7400526573756D65205072696E7400D5
:102B8000506F776572204F7574616765004D3139FC
:102B9000305335350A4732380A47323950310A47FF
:102BA000323950330A47323953310A4732395330B8
:102BB0000A47323946302E300A473239410A4D3100
:102BC0003034533231350A4732380A4D31303953B7
:102BD0003231350A47315831353059313530463583
:102BE0003030300A47315A300A4D3530300A4D34D2
:102BF00030300A4D37370A4D313137205365742054
:102C00005A204F6666736574004D31303653313249
:102C1000380A4D3330334338533231354530550A55
:102C20004D3530300A4D31313720504944205475EC
:102C30006E6520446F6E65004D3139305335350A6D
:102C40004D313034533231350A4732380A47323940
:102C50004C310A4731205831303059313030463507
:102C60003030300A47315A30004D3530300A4D315E
:102C700031372053657474696E67732053746F72B3
:102C800065640053746F72652053657474696E6770
:102C900073005072657020666F72205A2041646A1A
:102CA000757374005049442054756E650053657403
:102CB0007570004D61696E003F004261636B0053A7
:102CC000746F70004E6F204D6564696100507269C9
:102CD0006E742066726F6D204D6564696100436893
:102CE000616E6765204D65646961004D3231004158
:102CF000626F7574205072696E746572004368610A
:102D00006E67652046696C616D656E74004C657612
:102D1000656C696E6720546F6F6C7300436F6E66ED
:102D2000696775726174696F6E0054656D70657264
:102D30006174757265004D6F74696F6E00537461D4
:102D4000727420486F7374205072696E74005265FB
:102D500073756D65205072696E740043616E6365B2
:102D60006C204F626A6563740054756E650053741D
:102D70006F70205072696E740050617573652050D9
:102D800072696E7400496E666F2053637265656E7A
:102D9000003F005374617274205072696E74004376
:102DA000616E63656C005072696E740043616E6E93
:102DB0006F7420656E746572207375626469723A0F
:102DC000200002202E2E004D61696E002100486F08
:102DD00074656E6420746F6F20636F6C6400426171
:102DE000636B0050726F63656564004F6666004FE9
:102DF0006E00536F667420456E6473746F70730059
:102E00004D6F74696F6E0044697361626C65205325
:102E100074657070657273004D38340042656420CB
:102E20005472616D6D696E6700556E69666965649F
:102E300020426564204C6576656C696E6700473298
:102E4000385A004732385900486F6D6520400047B6
:102E5000323858004175746F20486F6D65004D61C0
:102E6000696E005072656865617420242042656453
:102E70000050726568656174202420456E640054BA
:102E8000656D706572617475726500436F6F6C6417
:102E90006F776E005072656865617420240046612A
:102EA0006E20537065656400426564004E6F7A7AE7
:102EB0006C65004D61696E0050726F6265205A202A
:102EC0004F666673657400416476616E6365204B7E
:102ED00000466C6F770046616E2053706565640034
:102EE000426564004E6F7A7A6C6500537065656464
:102EF000004D61696E005A2056616C75650047325D
:102F0000380A4D313930205325690A4D3130392086
:102F10005325690A473239205031004265642054F4
:102F2000656D7000486F74656E642054656D700047
:102F30002E2569004732395036432D0048656967B0
:102F4000687420416D6F756E740041646A757374A6
:102F5000204D657368204865696768740046696E2E
:102F6000652054756E6520436C6F736573740047FC
:102F700032395034540046696E652054756E6520B0
:102F8000416C6C0047323950345254004732380A91
:102F900047323643504825694225690056616C69BD
:102FA0006461746520437573746F6D204D6573683B
:102FB000004732380A473236435049310056616C77
:102FC0006964617465204D65736820282429004771
:102FD00032380A47323643504930004C6576656CCA
:102FE000204D657368005369646520506F696E7485
:102FF000730047726964204D657368204C6576657F
:103000006C696E6700332D506F696E74204C657665
:10301000656C696E67004732394A30004732395073
:103020003352432E2569004D616E75616C204669EF
:103030006C6C2D696E004732395032425430005367
:103040006D6172742046696C6C2D696E004732396F
:10305000503354300046696C6C2D696E20416D6FA1
:10306000756E74004D65736820696E76616C696475
:10307000617465642E0A00496E666F205363726541
:10308000656E00496E76616C696461746520436C9D
:103090006F73657374004732394900496E76616C0D
:1030A000696461746520416C6C00436F6E74696E75
:1030B000756520426564204D65736800473239505C
:1030C00031430046696C6C2D696E204D6573680054
:1030D0004275696C6420436F6C64204D65736800B1
:1030E0004732394E5031004275696C642043757324
:1030F000746F6D204D657368004732380A4D313961
:103100003049310A4D31303949310A47323950316D
:103110000A4D31303453300A4D313430533000428F
:1031200075696C64204D6573682028242900473236
:10313000380A4D31393049300A4D31303949300A79
:1031400047323950310A4D31303453300A4D313421
:1031500030533000473239256325690A4D31313704
:1031600020004D657368202569204C6F616465649B
:10317000004D6573682025692053617665640053AE
:1031800061766520426564204D657368004C6F610F
:103190006420426564204D657368004D656D6F72F3
:1031A0007920536C6F74004E6F2053746F72616797
:1031B00065004732395034582573592573522569B3
:1031C00000202D2D2D2D2D005A3A00593A00486F20
:1031D0006D696E672058595A00473238004F66664D
:1031E000205072696E746572204261636B75700065
:1031F000473239532D31004F757470757420666FE6
:103200007220435356004732395431004F75747061
:10321000757420666F7220486F737400473239549A
:1032200030004D657368204C6576656C696E67008B
:1032300045646974204D6573680056616C6964610A
:103240007465204D657368004D616E75616C6C79B5
:10325000204275696C64204D6573680047323949B6
:103260003939390A4732395032425430004275698F
:103270006C64204D65736800372E2053617665209D
:10328000426564204D65736800362E2046696E6580
:103290002054756E6520416C6C00473239503452B1
:1032A0005400352E2056616C6964617465204D654B
:1032B000736800342E2046696E652054756E652053
:1032C000416C6C004732395034525400332E205632
:1032D000616C6964617465204D65736800322E20ED
:1032E000536D6172742046696C6C2D696E004732B3
:1032F000395033543000312E204275696C642043BC
:103300006F6C64204D657368004732394E50310050
:10331000556E696669656420426564204C65766512
:103320006C696E67004F75747075742055424C203F
:10333000496E666F00473239570055424C20546F32
:103340006F6C73004F7574707574204D65736820D1
:103350004D6170004D6573682053746F72616765CD
:10336000004D657368204564697400537465702D61
:1033700042792D537465702055424C004661646556
:103380002048656967687400416374697661746593
:103390002055424C004732394100446561637469ED
:1033A000766174652055424C0047323944004D6FB8
:1033B00074696F6E004732394A256900486F6D693C
:1033C0006E67204661696C65640050524553454EF6
:1033D00054004F5554006F70656E00545249474772
:1033E00045524544003A20004D4F54494F4E203A33
:1033F00020004F46460A003A200066696C616D6500
:103400006E74007A5F6D696E00795F6D696E007829
:103410005F6D696E005265706F7274696E672065CA
:103420006E6473746F70207374617475730A002016
:10343000746F6F206C6F6E67206578747275736936
:103440006F6E2070726576656E7465640A00206325
:103450006F6C6420657874727573696F6E2070721A
:103460006576656E7465640A00486F6D6520257326
:1034700025732573204669727374005761726E69F3
:103480006E673A20486F6D696E672042756D7020D7
:1034900044697669736F72203C20310A000202048D
:1034A0000000000000000000000000000000704369
:1034B0000000704300007A4300000041000000411A
:1034C00000000040FFFFFF000000010000000100BD
:1034D000008000555555000000400033333300AAEA
:1034E000AA2A004992240000002000C7711C0099FC
:1034F000991900D1451700555515003BB11300240B
:1035000049120011111100000010000F0F0F00E30D
:10351000380E0043790D00CCCC0C00C3300C00E811
:10352000A20B0064210B00AAAA0A00703D0A009DAC
:10353000D80900427B090092240900DCD3080088E6
:103540008808001042080000000800F0C10700874A
:1035500087070075500700711C07003EEB0600A1AD
:10356000BC06006990060066660600703E060061B3
:1035700018060017F4050074D105005BB00500B211
:10358000900500627205005555050078390500B8B0
:103590001E0500050505004EEC040087D40400A1BB
:1035A000BD040090A7040049920400C17D0400EE10
:1035B000690400C7560400444404005C3204000857
:1035C00021040041100400000004003FF00300F853
:1035D000E0030026D20300C3C30300CCB503003AC6
:1035E000A803000A9B0300388E0300C08103009FDC
:1035F000750300D0690300505E03001D53030034BF
:10360000480300913D0300333303001629030038BB
:103610001F030097150300300C0300030303000B86
:10362000FA020049F10200BAE802005CE002002D53
:10363000D802002DD0020059C80200B0C0020031EB
:10364000B90200DAB10200AAAA0200A0A30200BCDB
:103650009C0200FA9502005C8F0200DF8802008263
:10366000820200457C020027760200277002004398
:103670006A02007C640200D05E02003F590200C86A
:10368000530200FFFDFCFAF8F6F4F2F0EEECEAE982
:10369000E7E5E3E1E0DEDCDAD9D7D5D4D2D0CFCD8F
:1036A000CBCAC8C7C5C3C2C0BFBDBCBAB9B7B6B420
:1036B000B3B2B0AFADACAAA9A8A6A5A4A2A1A09E82
:1036C0009D9C9A99989795949392908F8E8D8B8AC2
:1036D0008988878684838281807F7E7D7B7A7978E2
:1036E00077767574737271706F6E6D6C6B6A6968E2
:1036F00067666564636261605F5E5D5C5B5A5958D2
:10370000585756555453525150504F4E4D4C4B4AAA
:103710004A4948474646454443424241403F3E3E6F
:103720003D3C3B3B3A393838373635353433323225
:103730003130302F2E2E2D2C2B2B2A2929282727CC
:1037400026252524232322212120201F1E1E1D1C67
:103750001C1B1B1A191918181716161515141313F4
:1037600012121111100F0F0E0E0D0D0C0C0B0A0A78
:1037700009090808070706060505040403030202F1
:10378000010000000070430000704300007A430015
:103790000000000000000000000000536574746920
:1037A0006E67732053746F72656400290A0020628B
:1037B000797465733B206372632000536574746988
:1037C0006E67732053746F726564202800454550FE
:1037D000524F4D20496E697469616C697A65640A5B
:1037E000004D65736820736176656420696E20738F
:1037F0006C6F7420003F556E61626C6520746F20A1
:1038000073617665206D65736820646174612E0A4A
:103810000020736C6F743D00206D65736865735F85
:10382000656E643D004532454E443D00206D657334
:103830006820736C6F747320617661696C61626C6F
:10384000652E0A003F496E76616C696420736C6F67
:10385000742E0A004D657368206C6F616465642086
:1038600066726F6D20736C6F7420003F556E6162DD
:103870006C6520746F206C6F6164206D65736820C7
:10388000646174612E0A0048617264636F646564E8
:103890002044656661756C742053657474696E6745
:1038A00073204C6F616465640020286D6D290020D1
:1038B0003B204C6576656C696E67200020204D3496
:1038C0003230205300556E69666965642042656434
:1038D000204C6576656C696E6700204600204800C4
:1038E00020204D3134352053004D6174657269617B
:1038F0006C2068656174757020706172616D6574AB
:103900006572730020204D393030204B004C696EB9
:1039100065617220416476616E63650046696C6121
:103920006D656E742072756E6F75742073656E733D
:103930006F7200206D65736865732E0A0A00454535
:1039400050524F4D2063616E20686F6C64200041BF
:103950006374697665204D65736820536C6F7420BD
:103960000020204D3134392043203B20556E6974AE
:103970007320696E2043656C736975730A00546522
:103980006D706572617475726520556E697473002F
:103990002020473231203B004C696E656172205512
:1039A0006E697473003F4D65736820746F6F206299
:1039B000696720666F7220454550524F4D2E0A00B0
:1039C000454550524F4D206461746173697A65209A
:1039D0006572726F722E0A0055424C2072657365D3
:1039E000740A00206C6F616465642066726F6D20DC
:1039F00073746F726167652E0A004D6573682000ED
:103A000053746F7265642073657474696E67732094
:103A100072657472696576656400290A00206279AE
:103A20007465733B2063726320002073746F72654A
:103A3000642073657474696E67732072657472694B
:103A400065766564202800454550524F4D2043520D
:103A500043204572726F7200202863616C63756C3D
:103A60006174656429210A0020213D2000454550EC
:103A7000524F4D20435243206D69736D61746368EA
:103A8000202D202873746F726564292000205369EB
:103A90007A653A2000496E6465783A200000803BE0
:103AA0004400803B4400002041000096420000A0FA
:103AB000420000A0420000C8430000BE42D0070000
:103AC00000D0070000640000004B00000045455096
:103AD000524F4D2056657273696F6E204572726F3A
:103AE0007200204D61726C696E3D563837290A00AC
:103AF000454550524F4D2076657273696F6E206D4B
:103B000069736D617463682028454550524F4D3D7F
:103B10000024F4D43050C38E20C2A24017828B7090
:103B200011127A910D816CD90AA861E108C7586613
:103B300007615143061E4B5D05C145A7041A41119B
:103B400004093D9803713931034036DB0265339136
:103B500002D4305402802E1D02632CEE01752AC55A
:103B600001B028A001102781018F2564012B244B6F
:103B700001E0223401AC211F018D200D01801FFCCA
:103B800000841EED00971DDF00B81CD200E61BC6A6
:103B900000201BBC00641AB200B219A8000A19A0C8
:103BA000006A189900D117910040178B00B5168450
:103BB0000031167E00B31579003A157300C7146FF3
:103BC0000058146A00EE1366008813630025135E24
:103BD00000C7125B006C12570015125400C111513E
:103BE0000070114F0021114B00D61049008D104775
:103BF000004610440002104200C00F4000800F3EFB
:103C000000420F3C00060F3B00CB0E3800930E37EE
:103C1000005C0E3500270E3400F30D3200C10D316B
:103C200000900D3000600D2E00320D2D00050D2C82
:103C300000D90C2B00AE0C2900850C29005C0C2748
:103C400000350C27000E0C2600E80B2400C40B24C2
:103C500000A00B23007D0B23005A0B2100390B2100
:103C600000180B2000F80A1F00D90A1E00BB0A1E0C
:103C7000009D0A1D00800A1D00630A1C00470A1BE4
:103C8000002C0A1B00110A1A00F7091A00DD091995
:103C900000C4091900AB091900920917007B091823
:103CA00000630917004C0916003609160020091692
:103CB000000A091500F5081500E0081400CC0814E6
:103CC00000B8081400A4081400900813007D08121E
:103CD000006B08130058081200460812003408113F
:103CE00000230811001208110001081100F007104C
:103CF00000E0071000D0071000C0071000B0070F49
:103D000000A107100091070E0083070F0074070F32
:103D10000065070E0057070E0049070E003B070D10
:103D2000002E070E0020070D0013070D0006070DDB
:103D300000F9060C00ED060D00E0060C00D4060CA0
:103D400000C8060C00BC060C00B0060C00A4060B54
:103D50000099060C008D060B0082060B0077060BFF
:103D6000006C060B0061060A0057060B004C060AA1
:103D70000042060A0038060A002E060A0024060A37
:103D8000001A060A001006090007060A00FD0509C8
:103D900000F4050900EB050900E2050900D9050951
:103DA00000D0050900C7050900BE050900B50508D2
:103DB00000AD050800A50509009C0508009405084C
:103DC000008C050800840508007C050800740508BF
:103DD000006C050700650508005D0507005605082D
:103DE000004E050700470507004005080038050795
:103DF00000310507002A050700230507001C0506FA
:103E000000160507000F0507000805060002050754
:103E100000FB040600F5040700EE040600E80406B3
:103E200000E2040700DB040600D5040600CF040608
:103E300000C9040600C3040600BD040600B704065A
:103E400000B1040500AC040600A6040600A00405A9
:103E5000009B04060095040500900406008A0405F2
:103E60000085040500800406007A04050075040539
:103E700000700405006B040500660405006104057C
:103E8000005C04050057040500520405004D0405BC
:103E90000048040500430405003E0404003A0405FC
:103EA0000035040500300404002C04050027040438
:103EB00000230405001E0404001A0404001604056F
:103EC00000110404000D04040009040500040404A6
:103ED0000000040400FC030400F8030400F40304DD
:103EE00000F0030400EC030400E8030400E403040E
:103EF00000E0030400DC030400D8030400D403043E
:103F000000D0030400CC030400C8030300C503036E
:103F10000024F404D9201BC40C5C0E9804C4095F6F
:103F20000265077101F405F900FB04B3004804873A
:103F300000C10369005803550003034500BE023A5F
:103F4000008402310053022A0029022500040220C5
:103F500000E4011C00C8011900AF0117009801140A
:103F60000084011300710110006101100051010E65
:103F70000043010D0036010B002B010B0020010B4B
:103F800000150109000C01090003010800FB0008ED
:103F900000F3000800EB000700E4000600DE000666
:103FA00000D8000600D2000600CC000500C70005BE
:103FB00000C2000500BD000400B9000400B5000403
:103FC00000B1000400AD000400A9000400A5000336
:103FD00000A20003009F0004009B00030098000360
:103FE000009500020093000300900003008D000282
:103FF000008B00030088000200860002008400039A
:1040000000810002007F0002007D0002007B0002B0
:1040100000790002007700010076000200740002BF
:104020000072000100710002006F0002006D0001CB
:10403000006C0002006A00010069000200670001D4
:1040400000660001006500010064000200620001DA
:104050000061000100600001005F0002005D0001DE
:10406000005C0001005B0001005A000100590001E2
:1040700000580001005700010056000100550001E2
:1040800000540001005300000053000100520001E1
:104090000051000100500001004F0001004E0000DF
:1040A000004E0001004D0001004C0001004B0000DB
:1040B000004B0001004A00010049000100480000D7
:1040C00000480001004700010046000000460001D2
:1040D00000450000004500010044000100430000CD
:1040E00000430001004200000042000100410000C6
:1040F0000041000100400001003F0000003F0001BE
:10410000003E0000003E0001003D0000003D0001B7
:10411000003C0000003C0000003C0001003B0000AF
:10412000003B0001003A0000003A000100390000A5
:10413000003900010038000000380000003800019C
:104140000037000000370001003600000036000094
:104150000036000100350000003500000035000188
:10416000003400000034000000340001003300007F
:104170000033000000330001003200000032000074
:104180000032000100310000003100000031000168
:10419000003000000030000000300001002F00005F
:1041A000002F0000002F0000002F0001002E000053
:1041B000002E0000002E0001002D0000002D000048
:1041C000002D0000002D0001002C0000002C00003C
:1041D000002C0000002C0001002B0000002B000030
:1041E000002B0000002B0001002A0000002A000024
:1041F000002A0000002A0001002900000029000018
:10420000002900000029000000290001002800000A
:1042100000280000002800000028000000280001FD
:1042200000270000002700000027000000270000F2
:1042300000270001002600000026000000260000E4
:1042400000260000002600010025000000250000D7
:1042500000250000002500000025000000250001C9
:1042600000240000002400000024000000240000BE
:1042700000240001002300000023000000230000B0
:1042800000230000002300000023000000230001A1
:104290000022000000220000002200000022000096
:1042A0000022000000220001002100000021000087
:1042B000002100000021000000210000002100007A
:1042C000002100010020000000200000002000006C
:1042D000002000000020000000200000002000005E
:1042E00000200001001F0000001F0000001F000050
:1042F000001F0000001F0000001F0000001F000141
:10430000001E0000001E0000001E0000001E000035
:1043100000232C0000B8220000561800003A0F00BD
:1043200000B8080000B1040000710200003E010066
:104330000020436F756E7420583A00426564004552
:1043400031004500626564002C2073797374656DDB
:104350002073746F707065642120486561746572A4
:104360005F49443A200048656174696E6720466180
:10437000696C65640048656174696E67206661698F
:104380006C6564004D3131322053687574646F7709
:104390006E001000C90210012C01400122017001C1
:1043A0001801B0010E01F00104015002FA00B00240
:1043B000F0003003E600D003DC009004D20070056A
:1043C000C800A006BE000008B400B009AA00D00BC7
:1043D000A000600E960060118C000015820020196C
:1043E0007800C01D6E00A0226400B0275A00902CF7
:1043F000500000314600E0343C0010383200903A62
:104400002800603C1E00A03D1400803E0A00203FB2
:1044100000004572723A204D415854454D50004DB0
:10442000415854454D5020747269676765726564E0
:10443000004572723A204D494E54454D50004D4949
:104440004E54454D5020747269676765726564000B
:10445000544845524D414C2052554E415741590008
:10446000546865726D616C2052756E617761790078
:104470000A0A0020205A5F4D494E3A002020595F19
:104480004D494E3A002020585F4D494E3A00202FAA
:10449000002042403A0020403A0020573A0020577E
:1044A0003A00496E76616C6964206578747275644F
:1044B00065720A007C3C3E5E2B3D3F2F5B5D3B2CD2
:1044C0002A225C0043616E6E6F74206F70656E20EF
:1044D00073756264697220004D6564696120496E7C
:1044E0006974204661696C005344206361726420E2
:1044F0006F6B0A006F70656E526F6F742066616932
:104500006C65640A00766F6C756D652E696E6974F2
:10451000206661696C65640A004E6F205344206315
:104520006172640A000A4D3234004D323320257323
:10453000002E0A006F70656E206661696C65642CE0
:104540002046696C653A200046696C652073656C8D
:1045500065637465640A002053697A653A200046F1
:10456000696C65206F70656E65643A2000454E4445
:1045700020535542524F5554494E450A002220704F
:104580006F73002220706172656E743A2200535579
:1045900042524F5554494E452043414C4C20746182
:1045A000726765743A220053756263616C6C204FC8
:1045B000766572666C6F77004578636565646564DF
:1045C000206D617820535542524F5554494E452035
:1045D00064657074683A002E0A0044656C657469FD
:1045E0006F6E206661696C65642C2046696C653A63
:1045F000200046696C652064656C657465643A00EA
:104600005344207072696E74696E672062797465B4
:1046100020004E6F74205344207072696E74696E6E
:10462000670A002F6175746F25632E67001000C93B
:104630000210012C014001220170011801B0010E8D
:1046400001F00104015002FA00B002F0003003E66C
:1046500000D003DC009004D2007005C800A006BEA4
:10466000000008B400B009AA00D00BA000600E96AC
:104670000060118C000015820020197800C01D6EAA
:1046800000A0226400B0275A00902C500000314650
:1046900000E0343C0010383200903A2800603C1EA4
:1046A00000A03D1400803E0A00203F00006001F49D
:1046B000017001EA019001E001B001D601D001CC06
:1046C000010002C2013002B8016002AE019002A4F2
:1046D00001D0029A012003900170038601C0037C7F
:1046E0000130047201A004680120055E01B0055488
:1046F0000160064A0120074001F0073601F0082C4E
:1047000001100A2201500B1801C00C0E01500E04BA
:10471000013010FA002012F0005014E600C016DC40
:10472000007019D200501CC800501FBE007022B487
:1047300000B025AA00F028A000202C9600302F8C75
:104740000010328200A0347800F0366E00E0386449
:1047500000803A5A00403B5500E03B5000F03C4698
:1047600000C03D3C00603E3200E03E2800303F1E6D
:1047700000503F1900703F1400A03F0A00C03F00E6
:1047800000D03FF6FFE03FECFF24F404D9201BC427
:104790000C5C0E9804C4095F0265077101F405F909
:1047A00000FB04B30048048700C1036900580355A7
:1047B0000003034500BE023A008402310053022A7E
:1047C000002902250004022000E4011C00C8011990
:1047D00000AF01170098011400840113007101104B
:1047E000006101100051010E0043010D0036010B64
:1047F000002B010B0020010B00150109000C010921
:104800000003010800FB000800F3000800EB0007AC
:1048100000E4000600DE000600D8000600D2000614
:1048200000CC000500C7000500C2000500BD000463
:1048300000B9000400B5000400B1000400AD00049C
:1048400000A9000400A5000300A20003009F0004CB
:10485000009B0003009800030095000200930003F2
:1048600000900003008D0002008B0003008800020E
:10487000008600020084000300810002007F000225
:10488000007D0002007B0002007900020077000139
:104890000076000200740002007200010071000244
:1048A000006F0002006D0001006C0002006A000150
:1048B0000069000200670001006600010065000158
:1048C000006400020062000100610001006000015C
:1048D000005F0002005D0001005C0001005B000160
:1048E000005A000100590001005800010057000162
:1048F0000056000100550001005400010053000063
:10490000005300010052000100510001005000015D
:10491000004F0001004E0000004E0001004D00015C
:10492000004C0001004B0000004B0001004A000158
:104930000049000100480000004800010047000154
:10494000004600000046000100450000004500014F
:104950000044000100430000004300010042000049
:104960000042000100410000004100010040000140
:10497000003F0000003F0001003E0000003E00013B
:10498000003D0000003D0001003C0000003C000034
:10499000003C0001003B0000003B0001003A000029
:1049A000003A000100390000003900010038000021
:1049B0000038000000380001003700000037000117
:1049C000003600000036000000360001003500000F
:1049D0000035000000350001003400000034000004
:1049E00000340001003300000033000000330001F8
:1049F00000320000003200000032000100310000EF
:104A000000310000003100010030000000300000E3
:104A100000300001002F0000002F0000002F0000D8
:104A2000002F0001002E0000002E0000002E0001CB
:104A3000002D0000002D0000002D0000002D0001C1
:104A4000002C0000002C0000002C0000002C0001B5
:104A5000002B0000002B0000002B0000002B0001A9
:104A6000002A0000002A0000002A0000002A00019D
:104A70000029000000290000002900000029000092
:104A80000029000100280000002800000028000084
:104A90000028000000280001002700000027000077
:104AA000002700000027000000270001002600006A
:104AB000002600000026000000260000002600015D
:104AC0000025000000250000002500000025000052
:104AD0000025000000250001002400000024000043
:104AE0000024000000240000002400010023000036
:104AF000002300000023000000230000002300002A
:104B0000002300000023000100220000002200001A
:104B1000002200000022000000220000002200010C
:104B20000021000000210000002100000021000001
:104B300000210000002100000021000100200000F1
:104B400000200000002000000020000000200000E5
:104B5000002000000020000000200001001F0000D5
:104B6000001F0000001F0000001F0000001F0000C9
:104B7000001F0000001F0001001E0000001E0000BA
:104B8000001E0000001E00000024F4D43050C38E2C
:104B900020C2A24017828B7011127A910D816CD9BC
:104BA0000AA861E108C7586607615143061E4B5DBC
:104BB00005C145A7041A411104093D980371393113
:104BC000034036DB0265339102D4305402802E1D3F
:104BD00002632CEE01752AC501B028A001102781BF
:104BE000018F2564012B244B01E0223401AC211FED
:104BF000018D200D01801FFC00841EED00971DDF3C
:104C000000B81CD200E61BC600201BBC00641AB210
:104C100000B219A8000A19A0006A189900D11791CA
:104C20000040178B00B516840031167E00B315794D
:104C3000003A157300C7146F0058146A00EE13662B
:104C4000008813630025135E00C7125B006C1257C7
:104C50000015125400C111510070114F0021114B69
:104C600000D61049008D1047004610440002104243
:104C700000C00F4000800F3E00420F3C00060F3B7B
:104C800000CB0E3800930E37005C0E3500270E3433
:104C900000F30D3200C10D3100900D3000600D2E7B
:104CA00000320D2D00050D2C00D90C2B00AE0C2967
:104CB00000850C29005C0C2700350C27000E0C2603
:104CC00000E80B2400C40B2400A00B23007D0B2361
:104CD000005A0B2100390B2100180B2000F80A1F85
:104CE00000D90A1E00BB0A1E009D0A1D00800A1D75
:104CF00000630A1C00470A1B002C0A1B00110A1A39
:104D000000F7091A00DD091900C4091900AB0919D7
:104D100000920917007B091800630917004C091657
:104D20000036091600200916000A091500F50815B5
:104D300000E0081400CC081400B8081400A40814FB
:104D400000900813007D0812006B08130058081229
:104D5000004608120034081100230811001208113F
:104D60000001081100F0071000E0071000D0071044
:104D700000C0071000B0070F00A107100091070E38
:104D80000083070F0074070F0065070E0057070E1A
:104D90000049070E003B070D002E070E0020070DEF
:104DA0000013070D0006070D00F9060C00ED060DB7
:104DB00000E0060C00D4060C00C8060C00BC060C73
:104DC00000B0060C00A4060B0099060C008D060B23
:104DD0000082060B0077060B006C060B0061060ACA
:104DE0000057060B004C060A0042060A0038060A65
:104DF000002E060A0024060A001A060A00100609F8
:104E00000007060A00FD050900F4050900EB050985
:104E100000E2050900D9050900D0050900C7050908
:104E200000BE050900B5050800AD050800A5050987
:104E3000009C050800940508008C050800840508FE
:104E4000007C050800740508006C0507006505086E
:104E5000005D050700560508004E050700470507D9
:104E6000004005080038050700310507002A05073E
:104E700000230507001C050600160507000F05079F
:104E8000000805060002050700FB040600F50407FC
:104E900000EE040600E8040600E2040700DB040656
:104EA00000D5040600CF040600C9040600C30406AA
:104EB00000BD040600B7040600B1040500AC0406FA
:104EC00000A6040600A00405009B04060095040546
:104ED00000900406008A040500850405008004068D
:104EE000007A04050075040500700405006B0405D4
:104EF0000066040500610405005C04050057040514
:104F000000520405004D0405004804050043040553
:104F1000003E0404003A0405003504050030040492
:104F2000002C04050027040400230405001E0404CB
:104F3000001A04040016040500110404000D040402
:104F400000090405000404040000040400FC030438
:104F500000F8030400F4030400F0030400EC03046D
:104F600000E8030400E4030400E0030400DC03049D
:104F700000D8030400D4030400D0030400CC0304CD
:104F800000C8030300C5030300726F746174696F86
:104F90006E206D61747269783A0A0024F404D92095
:104FA0001BC40C5C0E9804C4095F0265077101F410
:104FB00005F900FB04B30048048700C103690058E9
:104FC00003550003034500BE023A0084023100533A
:104FD000022A002902250004022000E4011C00C866
:104FE000011900AF0117009801140084011300712A
:104FF0000110006101100051010E0043010D003647
:10500000010B002B010B0020010B00150109000C06
:1050100001090003010800FB000800F3000800EB91
:10502000000700E4000600DE000600D8000600D2FB
:10503000000600CC000500C7000500C2000500BD49
:10504000000400B9000400B5000400B1000400AD84
:10505000000400A9000400A5000300A20003009FB3
:105060000004009B000300980003009500020093D9
:10507000000300900003008D0002008B00030088F5
:105080000002008600020084000300810002007F0D
:105090000002007D0002007B000200790002007720
:1050A000000100760002007400020072000100712D
:1050B0000002006F0002006D0001006C0002006A37
:1050C0000001006900020067000100660001006540
:1050D0000001006400020062000100610001006044
:1050E0000001005F0002005D0001005C0001005B48
:1050F0000001005A0001005900010058000100574A
:105100000001005600010055000100540001005349
:105110000000005300010052000100510001005046
:105120000001004F0001004E0000004E0001004D44
:105130000001004C0001004B0000004B0001004A40
:10514000000100490001004800000048000100473C
:105150000001004600000046000100450000004537
:105160000001004400010043000000430001004230
:105170000000004200010041000000410001004029
:105180000001003F0000003F0001003E0000003E23
:105190000001003D0000003D0001003C0000003C1B
:1051A0000000003C0001003B0000003B0001003A11
:1051B0000000003A00010039000000390001003809
:1051C0000000003800000038000100370000003700
:1051D00000010036000000360000003600010035F6
:1051E00000000035000000350001003400000034EC
:1051F00000000034000100330000003300000033E1
:1052000000010032000000320000003200010031D5
:1052100000000031000000310001003000000030CB
:10522000000000300001002F0000002F0000002FC0
:105230000000002F0001002E0000002E0000002EB4
:105240000001002D0000002D0000002D0000002DA9
:105250000001002C0000002C0000002C0000002C9D
:105260000001002B0000002B0000002B0000002B91
:105270000001002A0000002A0000002A0000002A85
:105280000001002900000029000000290000002979
:10529000000000290001002800000028000000286C
:1052A000000000280000002800010027000000275F
:1052B0000000002700000027000000270001002652
:1052C0000000002600000026000000260000002646
:1052D0000001002500000025000000250000002539
:1052E000000000250000002500010024000000242B
:1052F000000000240000002400000024000100231E
:105300000000002300000023000000230000002311
:105310000000002300000023000100220000002202
:1053200000000022000000220000002200000022F5
:1053300000010021000000210000002100000021E8
:1053400000000021000000210000002100010020D9
:1053500000000020000000200000002000000020CD
:105360000000002000000020000000200001001FBD
:105370000000001F0000001F0000001F0000001FB1
:105380000000001F0000001F0001001E0000001EA2
:105390000000001E0000001E00000024F4D4305065
:1053A000C38E20C2A24017828B7011127A910D8198
:1053B0006CD90AA861E108C7586607615143061E07
:1053C0004B5D05C145A7041A411104093D980371BD
:1053D0003931034036DB0265339102D43054028008
:1053E0002E1D02632CEE01752AC501B028A0011004
:1053F0002781018F2564012B244B01E0223401AC6D
:10540000211F018D200D01801FFC00841EED0097DF
:105410001DDF00B81CD200E61BC600201BBC0064C8
:105420001AB200B219A8000A19A0006A189900D18E
:1054300017910040178B00B516840031167E00B31B
:105440001579003A157300C7146F0058146A00EEFE
:105450001366008813630025135E00C7125B006C9F
:1054600012570015125400C111510070114F002144
:10547000114B00D61049008D104700461044000221
:10548000104200C00F4000800F3E00420F3C00065B
:105490000F3B00CB0E3800930E37005C0E35002713
:1054A0000E3400F30D3200C10D3100900D3000605C
:1054B0000D2E00320D2D00050D2C00D90C2B00AE49
:1054C0000C2900850C29005C0C2700350C27000EE8
:1054D0000C2600E80B2400C40B2400A00B23007D45
:1054E0000B23005A0B2100390B2100180B2000F868
:1054F0000A1F00D90A1E00BB0A1E009D0A1D00805B
:105500000A1D00630A1C00470A1B002C0A1B00111D
:105510000A1A00F7091A00DD091900C4091900ABBD
:10552000091900920917007B091800630917004C3C
:1055300009160036091600200916000A091500F59B
:10554000081500E0081400CC081400B8081400A4E2
:10555000081400900813007D0812006B081300580F
:105560000812004608120034081100230811001226
:1055700008110001081100F0071000E0071000D02A
:10558000071000C0071000B0070F00A1071000911E
:10559000070E0083070F0074070F0065070E005702
:1055A000070E0049070E003B070D002E070E0020D6
:1055B000070D0013070D0006070D00F9060C00ED9E
:1055C000060D00E0060C00D4060C00C8060C00BC5A
:1055D000060C00B0060C00A4060B0099060C008D0A
:1055E000060B0082060B0077060B006C060B0061B1
:1055F000060A0057060B004C060A0042060A00384D
:10560000060A002E060A0024060A001A060A0010DE
:1056100006090007060A00FD050900F4050900EB6C
:10562000050900E2050900D9050900D0050900C7F0
:10563000050900BE050900B5050800AD050800A56F
:105640000509009C050800940508008C05080084E5
:105650000508007C050800740508006C0507006556
:105660000508005D050700560508004E05070047C0
:105670000507004005080038050700310507002A26
:10568000050700230507001C050600160507000F87
:105690000507000805060002050700FB040600F5E3
:1056A000040700EE040600E8040600E2040700DB3D
:1056B000040600D5040600CF040600C9040600C392
:1056C000040600BD040600B7040600B1040500ACE2
:1056D000040600A6040600A00405009B040600952D
:1056E000040500900406008A040500850405008076
:1056F0000406007A04050075040500700405006BBB
:1057000004050066040500610405005C04050057FB
:10571000040500520405004D04050048040500433B
:105720000405003E0404003A040500350405003079
:105730000404002C04050027040400230405001EB3
:105740000404001A04040016040500110404000DEA
:10575000040400090405000404040000040400FC1F
:10576000030400F8030400F4030400F0030400EC55
:10577000030400E8030400E4030400E0030400DC85
:10578000030400D8030400D4030400D0030400CCB5
:10579000030400C8030300C503030024F404D92054
:1057A0001BC40C5C0E9804C4095F0265077101F408
:1057B00005F900FB04B30048048700C103690058E1
:1057C00003550003034500BE023A00840231005332
:1057D000022A002902250004022000E4011C00C85E
:1057E000011900AF01170098011400840113007122
:1057F0000110006101100051010E0043010D00363F
:10580000010B002B010B0020010B00150109000CFE
:1058100001090003010800FB000800F3000800EB89
:10582000000700E4000600DE000600D8000600D2F3
:10583000000600CC000500C7000500C2000500BD41
:10584000000400B9000400B5000400B1000400AD7C
:10585000000400A9000400A5000300A20003009FAB
:105860000004009B000300980003009500020093D1
:10587000000300900003008D0002008B00030088ED
:105880000002008600020084000300810002007F05
:105890000002007D0002007B000200790002007718
:1058A0000001007600020074000200720001007125
:1058B0000002006F0002006D0001006C0002006A2F
:1058C0000001006900020067000100660001006538
:1058D000000100640002006200010061000100603C
:1058E0000001005F0002005D0001005C0001005B40
:1058F0000001005A00010059000100580001005742
:105900000001005600010055000100540001005341
:10591000000000530001005200010051000100503E
:105920000001004F0001004E0000004E0001004D3C
:105930000001004C0001004B0000004B0001004A38
:105940000001004900010048000000480001004734
:10595000000100460000004600010045000000452F
:105960000001004400010043000000430001004228
:105970000000004200010041000000410001004021
:105980000001003F0000003F0001003E0000003E1B
:105990000001003D0000003D0001003C0000003C13
:1059A0000000003C0001003B0000003B0001003A09
:1059B0000000003A00010039000000390001003801
:1059C00000000038000000380001003700000037F8
:1059D00000010036000000360000003600010035EE
:1059E00000000035000000350001003400000034E4
:1059F00000000034000100330000003300000033D9
:105A000000010032000000320000003200010031CD
:105A100000000031000000310001003000000030C3
:105A2000000000300001002F0000002F0000002FB8
:105A30000000002F0001002E0000002E0000002EAC
:105A40000001002D0000002D0000002D0000002DA1
:105A50000001002C0000002C0000002C0000002C95
:105A60000001002B0000002B0000002B0000002B89
:105A70000001002A0000002A0000002A0000002A7D
:105A80000001002900000029000000290000002971
:105A90000000002900010028000000280000002864
:105AA0000000002800000028000100270000002757
:105AB000000000270000002700000027000100264A
:105AC000000000260000002600000026000000263E
:105AD0000001002500000025000000250000002531
