:100000000C94F6200C9436210C9436210C94362155
:100010000C9436210C9436210C9436210C94362104
:100020000C9436210C9436210C9436210C943621F4
:100030000C9436210C9436210C9436210C943621E4
:100040000C9436210C94E3A90C9436210C9436219F
:100050000C9436210C94DC970C9436210C9470850A
:100060000C9436210C9480410C9476410C943621EA
:100070000C9436210C9436210C9436210C943621A4
:100080000C9489320C9436210C9436210C94362130
:100090000C9436210C9436210C9436210C94362184
:1000A0000C9436210C9436210C945B320C9436213E
:1000B0000C9436210C9436210C9436210C94362164
:1000C0000C9436210C9436210C9436210C94523326
:1000D0000C941C330C9436210C9436210C9436214C
:1000E0000C943621084AD73B3BCE016E84BCBFFD41
:1000F000C12F3D6C74319ABD56833DDA3D00C77FF8
:1001000011BED9E4BB4C3E916BAAAABE0000008090
:100110003F05A84CCDB2D44EB93836A9020C50B91F
:10012000918688083CA6AAAA2ABE000000803F004B
:100130000C943A7A0C941E440C94F4330C941744A7
:100140000C94F8330C9456300C940A7A0C94A584D1
:100150000C941A440C94BE410C94227A0C94407B6B
:100160000D9429010C949E300C94A0DF0C944C4506
:100170000C94107A0C94FF790D946D2C0C944442DD
:100180000C94DAF10C94F0330C945F440C94BE821E
:100190000C94DDF10C9406440C942A420C94033424
:1001A0000C94FC330C943F450C940D440D94772D26
:1001B0000C9496F10C9441F20C94D2440D94CD2DF4
:1001C0000C9416340D94E82D0D94FF2D0D94F12D03
:1001D0000D9424010C9478300C94CCDE0C94F579B9
:1001E0000C94E4330C94AC440D94FE2C0C94CC434E
:1001F0000C94A7DE0C9465DE0C94CEF10D945A316C
:100200000C9421440D9403310C9458300C941E42EC
:100210000C9486440D94BF2B0C9432300C94307A9D
:100220000C94EADF0C940E340D94B92D0C94C64452
:100230000D942F010D9435010D9433310C9482846B
:100240000C94BA440C949E440C941E7A0C94147A28
:100250000D94652D0C9426420D9447010C942C7A34
:100260000C9414300C9432450C940DF40C94077AD1
:100270000C94C5F10D94462D0C94F7F10C9445F2B5
:100280000C942B440C9466830C94BD7A0D94B93D68
:100290000C9456DF0C94CBF10C9454300D94DF2D5C
:1002A0000C94E8330C94AA830D9469310C94558412
:1002B0000C94DD330C9431DF0C94C5DF0C940B42AD
:1002C0000D943E010C9416420C9403440C94E3F1FB
:1002D0000D9432010D9442310C94D7F10C94E0440A
:1002E0000C94DBF30C9410440D9444010C941A42CA
:1002F0000C9414440C9412420C943C420C941D83B4
:100300000C9408300C9424440D940C2E0C940A4543
:100310000C94FF430D944E310D9438010C94D1434D
:100320000D943B010C941A7A0C947A300C949CF343
:100330000D94272D0D94D62D0C9443840C94D1F15B
:100340000D94432C0C9490440D94012E0C94EC339A
:100350000C94FC410C94F1DE0C94C8F10D940F3117
:100360000C9422420C94287A0D94FB2D0D9441019B
:100370000C943F7B0C94A0300C94FC430C94A18211
:100380000C94D4F10C94FB790C94367A0C940944B7
:100390000C9425450C949C300C94C6F30C94FC44AE
:1003A0000C9418450D94DB2C0C94EE440C942844CA
:1003B0000D942C010C9434300C9490330C947C30BC
:1003C0000D94D73D0C94ED410C94037A0C94357A3E
:1003D0000C947BDF0C94BF330C94CE330D940E2B16
:1003E0000C9431420C94E0F10D94CF2A0D94C42D5D
:1003F0000C94C5834E414E494E495459494E46CD01
:10040000CCCC3D0AD7233C17B7D13877CC2B3295CB
:1004100095E6241FB14F0A000020410000C84200A9
:10042000401C4620BCBE4CCA1B0E5AAEC59D740073
:10043000407A10F35A00A0724E18090010A5D4E8B3
:100440000000E87648170000E40B54020000CA9A46
:100450003B000000E1F50500008096980000004098
:10046000420F000000A086010000001027000000DD
:1004700000E803000000006400000000000A000023
:100480000000000100000000002C76D888DC674FD7
:100490000823DFC1DFAE59E1B1B796E5E3E453C607
:1004A0003AE651997696E8E6C28426EB898C9B62FF
:1004B000ED407C6FFCEFBC9C9F40F2BAA56FA5F4A9
:1004C00090055A2AF75C936B6CF9676DC11BFCE0D1
:1004D000E40D47FEF520E6B500D0ED902E03009424
:1004E0003577050080841E080000204E0A000000B9
:1004F000C80C333333330F986E12831141EF8D21C3
:1005000014893BE65516CFFEE6DB18D1844B381B29
:10051000F77C1D901DA4BBE424203284725E2281EE
:1005200000C9F124ECA1E53D275A5F53544F505FB9
:1005300050494E005A5F535445505F50494E005A3F
:100540005F4D494E5F50494E005A5F454E41424C07
:10055000455F50494E005A5F4449525F50494E0032
:10056000595F53544F505F50494E00595F535445A3
:10057000505F50494E00595F4D41585F50494E0001
:10058000595F454E41424C455F50494E00595F44CA
:1005900049525F50494E00585F53544F505F504985
:1005A0004E00585F535445505F50494E00585F4DC0
:1005B00041585F50494E00585F454E41424C455F9F
:1005C00050494E00585F4449525F50494E005355C0
:1005D00049434944455F50494E00534552564F33B5
:1005E0005F50494E00534552564F325F50494E00BE
:1005F000534552564F315F50494E00534552564F66
:10060000305F50494E00534453530053445F4445B8
:10061000544543545F50494E004D4F534645545F37
:10062000435F50494E004D4F534645545F425F5023
:10063000494E004D4F534645545F415F50494E006F
:1006400054454D505F305F43535F50494E004C4519
:10065000445F50494E004845415445525F4245442D
:100660005F50494E004845415445525F305F504904
:100670004E0046494C5F52554E4F55545F50494EBF
:100680000046414E5F50494E0045315F535445503E
:100690005F50494E0045315F454E41424C455F50E9
:1006A000494E0045315F4449525F50494E00453143
:1006B0005F43535F50494E0045305F535445505F90
:1006C00050494E0045305F454E41424C455F5049D0
:1006D0004E0045305F4449525F50494E0042454507
:1006E0005045525F50494E004156525F53535F5040
:1006F000494E004156525F53434B5F50494E0041B3
:1007000056525F4D4F53495F50494E004156525F1C
:100710004D49534F5F50494E0054454D505F42453F
:10072000445F50494E0054454D505F315F50494E33
:100730000054454D505F305F50494E0046494C577C
:10074000494454485F50494E00545844320052586E
:1007500044320054584430005258443000434F4D06
:100760004D554E49434154494F4E004452595255FC
:100770004E004552524F525300494E464F0045439A
:10078000484F004572726F722077726974696E67A4
:1007900020746F20454550524F4D210A00363726B0
:1007A000033C3D380E2E303E121A1C180A4309082D
:1007B00044000153544F505045442E20005072695C
:1007C0006E7465722073746F7070656420647565F3
:1007D00020746F206572726F72732E2046697820C4
:1007E000746865206572726F7220616E6420757323
:1007F00065204D39393920746F20726573746172C8
:10080000742E202854656D70657261747572652050
:1008100069732072657365742E2053657420697442
:100820002061667465722072657374617274696E9A
:1008300067290A004E6F20436865636B73756D20EE
:1008400077697468206C696E65206E756D6265727B
:100850002C204C617374204C696E653A20004E6FF9
:1008600020436865636B73756D2077697468206CCD
:10087000696E65206E756D6265722C204C617374B3
:10088000204C696E653A2000636865636B73756D13
:10089000206D69736D617463682C204C61737420E2
:1008A0004C696E653A20004C696E65204E756D622C
:1008B0006572206973206E6F74204C617374204CD4
:1008C000696E65204E756D6265722B312C204C610E
:1008D0007374204C696E653A20004D3131300053FD
:1008E000657269616C20737461747573206D6973CE
:1008F0006D617463680A00776169740A005344206B
:1009000072656164206572726F720A002121204B4A
:10091000494C4C2063617573656420627920746F63
:100920006F206D75636820696E61637469766520F8
:1009300074696D65202D2063757272656E74206315
:100940006F6D6D616E643A2000486F74656E64204F
:1009500049646C652054696D656F757400486F74E7
:10096000656E642049646C652054696D656F7574AB
:100970000A003D3D6F6E46696C616D656E7452751F
:100980006E6F75743D3D007061757365004D363056
:1009900030002066696C616D656E745F72756E6F94
:1009A0007574200066696C616D656E745F72756E3A
:1009B0006F757420540046696C616D656E74527574
:1009C0006E6F75742054004D3130303053006275B5
:1009D00073793A2070617573656420666F7220695F
:1009E0006E7075740A00627573793A207061757360
:1009F000656420666F7220757365720A0062757394
:100A0000793A2070726F63657373696E670A0025A7
:100A1000533A202553002A2A2A6B696C6C2A2A2A09
:100A200000706F7765726F6666004B494C4C4544A9
:100A30002E20005072696E7465722068616C746556
:100A4000642E206B696C6C28292063616C6C656472
:100A5000210A0053544F505045442E2000507269D3
:100A60006E7465722073746F707065642064756550
:100A700020746F206572726F72732E204669782021
:100A8000746865206572726F7220616E6420757380
:100A900065204D39393920746F2072657374617225
:100AA000742E202854656D706572617475726520AE
:100AB00069732072657365742E20536574206974A0
:100AC0002061667465722072657374617274696EF8
:100AD00067290A006563686F3A004572726F723A5F
:100AE0000042696C696E656172204C6576656C695F
:100AF0006E6720477269643A0A0021212053544FDF
:100B0000502063616C6C6564206265636175736518
:100B1000206F6620424C546F756368206572726F57
:100B200072202D2072657374617274207769746805
:100B3000204D3939390A0021212053544F50206368
:100B4000616C6C65642062656361757365206F66B6
:100B500020424C546F756368206572726F72202D4D
:100B600020726573746172742077697468204D39DE
:100B700039390A002F2F616374696F6E3A006E6F06
:100B800074696669636174696F6E200070726F6D5D
:100B900070745F00656E6400486F74656E642074E5
:100BA0006F6F20636F6C640A0053656E64204D3173
:100BB000303820746F20726573756D650A00496E58
:100BC000736572742066696C616D656E7420616E08
:100BD000642073656E64204D3130380A00526568B8
:100BE00065617420446F6E65005265686561746963
:100BF0006E672E2E2E00526568656174004865612F
:100C00007465722054696D656F75740053656E6408
:100C1000204D31303820746F2068656174206E6F0C
:100C20007A7A6C650A004E6F7A7A6C652050617230
:100C30006B65640070617573656400506175736500
:100C40000057616974696E6720666F72206865611C
:100C50007475702E0A004C656176696E67204732A4
:100C600036003F53706563696669656420582C5986
:100C700020636F6F7264696E617465206F75742094
:100C80006F6620626F756E64732E0A003F285229CA
:100C900065706561742076616C7565206E6F742077
:100CA000706C61757369626C653B206D757374203F
:100CB0006265206174206C6561737420312E0A00B6
:100CC0003F2852296570656174206D7573742062C8
:100CD0006520737065636966696564207768656E11
:100CE000206E6F74207573696E6720616E204C43AF
:100CF000442E0A003F537065636966696564206E1F
:100D00006F7A7A6C652074656D7065726174757246
:100D100065206E6F7420706C61757369626C652EEE
:100D20000A003F5370656369666965642066696C93
:100D3000616D656E742073697A65206E6F742070C2
:100D40006C61757369626C652E0A003F5370656350
:100D50006966696564207072696D65206C656E678F
:100D60007468206E6F7420706C61757369626C6555
:100D70002E0A003F5072696D65206C656E6774685D
:100D8000206D757374206265207370656369666990
:100D90006564207768656E206E6F74207573696E68
:100DA0006720616E204C43442E0A003F53706563F8
:100DB0006966696564206E6F7A7A6C652073697AFA
:100DC00065206E6F7420706C61757369626C652E3E
:100DD0000A003F52657472616374696F6E204D75CD
:100DE0006C7469706C696572206D757374206265CE
:100DF000207370656369666965642E0A003F5370ED
:100E000065636966696564205265747261637469BB
:100E10006F6E204D756C7469706C696572206E6FB1
:100E20007420706C61757369626C652E0A003F53A3
:100E30007065636966696564206C617965722068B4
:100E40006569676874206E6F7420706C6175736972
:100E5000626C652E0A0043292E0A003F53706563B9
:100E60006966696564206265642074656D70657289
:100E70006174757265206E6F7420706C6175736932
:100E8000626C65202834302D00473236207374613F
:100E90007274696E672E2E2E0A004F46460A00466F
:100EA0006164652048656967687420004265642054
:100EB0004C6576656C696E6720004661696C656497
:100EC00020746F20656E61626C6520426564204C01
:100ED0006576656C696E670A00496E76616C696457
:100EE000206D6573682E0A0050726F62696E67200C
:100EF000506F696E740025532025692F2569002ED7
:100F00000A002F0050726F62696E67206D6573680A
:100F100020706F696E742000202844525952554E3B
:100F20002900473239204175746F20426564204C96
:100F30006576656C696E67003F20284C2C522C4604
:100F40002C4229206F7574206F6620626F756E6465
:100F5000732E0A003F2856296572626F7365206CF4
:100F60006576656C20696D706C61757369626C651E
:100F70002028302D34292E0A00426164205A207620
:100F8000616C75650A004E6F2062696C696E6561FF
:100F90007220677269640A0020440020204D3230BC
:100FA00030205300202844697361626C6564293ADB
:100FB0000046696C616D656E742073657474696E4A
:100FC00067730020204D3230312058004D61782069
:100FD000416363656C65726174696F6E2028756E1C
:100FE0006974732F7332290020204D32303320581A
:100FF000004D6178206665656472617465732028B0
:10100000756E6974732F73290020520020204D32B1
:101010003034205000416363656C65726174696FA0
:101020006E2028756E6974732F7332292028503C06
:101030007072696E742D616363656C3E20523C7200
:101040006574726163742D616363656C3E20543C0A
:1010500074726176656C2D616363656C3E2900571F
:1010600041524E494E4721204C6F77205A204A6505
:10107000726B206D6179206C65616420746F2075DE
:101080006E77616E746564207061757365732E0A86
:101090000020540020530020204D323035204200E3
:1010A000416476616E6365642028423C6D696E5FC1
:1010B0007365676D656E745F74696D655F75733EAA
:1010C00020533C6D696E5F66656564726174653E50
:1010D00020543C6D696E5F74726176656C5F666505
:1010E0006564726174653E20583C6D61785F6A6525
:1010F000726B3E20593C6D61785F6A65726B3E2071
:101100005A3C6D61785F6A65726B3E20453C6D614B
:10111000785F6A65726B3E290020440020490020F8
:10112000204D333031205000486F74656E6420507C
:1011300049440020440020490020204D3330342011
:101140005000426564205049440050574D3A2020D9
:101150002534640050574D3A202025346400505700
:101160004D3A20202534640050574D3A2020253434
:10117000640050574D3A20202534640050574D3AB2
:1011800020202534640050574D3A20202534640037
:1011900050574D3A20202534640050574D3A2020B6
:1011A0002534640050574D3A2020253464005057B0
:1011B0004D3A20202534640050574D3A20202534E4
:1011C000640050574D3A20202534640050574D3A62
:1011D00020202534640050574D3A202025346400E7
:1011E00050574D3A2020253464003A20002020201A
:1011F00020434F4D002020206E6F6E2D7374616E62
:10120000646172642050574D206D6F64650020202A
:1012100020636F6D7061726520696E74657272759E
:10122000707420656E61626C6564002020206F76AA
:101230006572666C6F7720696E7465727275707412
:1012400020656E61626C6564003A200020202020D9
:1012500054494D534B00423A200020202020544353
:10126000435200413A2000202020205443435200A2
:101270002020202043533A20002020202057474D93
:101280003A200050574D3A20202534640050574DE5
:101290003A20202534640047004800000088008A76
:1012A000008C00B300B400000098009A009C00A8D5
:1012B00000AA00AC0028012A012C01202020205483
:1012C000494D455200440045006E00800081006F8A
:1012D00000B000B1007000900091007100A000A16A
:1012E00000720020012101730020697320616C737A
:1012F0006F207469656420746F207468697320704E
:10130000696E0054494D45523143000A202E002099
:1013100020002020506F72743A20002020200020EE
:101320002020416E616C6F6720696E203D2025355D
:101330006C64003C756E757365642F756E6B6E6FB3
:10134000776E3E0020284125326429202000253375
:1013500064200050494E3A20004F75747075742017
:101360003D2000496E70757420203D2000416E6163
:101370006C6F6720696E203D2025356C64007072AB
:101380006F746563746564200020284125326429E8
:10139000202000253364200050494E3A2000580791
:1013A0000001530701014E071101490710013C07D5
:1013B0003B003107430026074500190744000C078E
:1013C0003201FF063301F3063401E8063501DD067C
:1013D0002501D2061C01C4061801B8061A01AE0682
:1013E0002C01A306220195061E018906240181060F
:1013F00009017206020165060A01560608014E0639
:101400000D014006420133060A01260607011906AE
:1014100008010B06310106063501FB050B01F0053D
:101420000601E5050501DA050401CE050C01C40538
:101430003701B7052601AD050301A2053601970561
:1014400003018D053D018005380176050E016B0510
:101450003C0160050E015605300149053E013F057E
:10146000120134052E0129051201446F6E652E0A02
:101470000050756C73696E6720202000556E746F84
:101480007563686564200066616C73650046414958
:101490004C3A204E6F2074726967676572206465EC
:1014A0007465637465640A004641494C3A204E6F86
:1014B000697365206465746563746564202D2070AC
:1014C0006C656173652072652D72756E207465732D
:1014D000740A002064657465637465642E0A003DB7
:1014E00020424C546F756368207072652056332E0D
:1014F0003120286F7220636F6D70617469626C6552
:1015000029003D205A20536572766F2050726F6219
:1015100065003D20424C546F7563682056332E3170
:101520000020282B2F2D20346D73293A20003A20DB
:1015300033306D73206F72206D6F72650A002E203C
:1015400050756C7365207769647468002A2A20508E
:101550006C6561736520747269676765722070726B
:101560006F62652077697468696E20333020736517
:1015700063202A2A0A004641494C3A20424C544FE3
:1015800055434820656E61626C6564202D2053656B
:10159000742075702074686973206465766963656A
:1015A000206173206120536572766F2050726F62E4
:1015B00065207769746820494E56455254494E4714
:1015C0002073657420746F202774727565272E0A46
:1015D0000020204445504C4F594544207374617499
:1015E000653A204C4F5720286C6F6769632030297B
:1015F0000020204445504C4F594544207374617479
:10160000653A204849474820286C6F676963203154
:1016100029003D204D656368616E6963616C2053EC
:1016200077697463682064657465637465640A002F
:101630005741524E494E473A20494E564552544919
:101640004E472073657474696E672070726F6261B3
:10165000626C79206261636B77617264732E0A0039
:101660002E204465706C6F7920262073746F77206C
:10167000342074696D65730A003D20424C546F75C7
:10168000636820436C617373696320312E322C20B0
:10169000312E332C20536D61727420312E302C206A
:1016A000322E302C20322E322C20332E302C203370
:1016B0002E312064657465637465642E0A002E20E3
:1016C000436865636B20666F7220424C544F5543EC
:1016D000480A002E205A5F4D494E5F454E445354F0
:1016E0004F505F494E56455254494E473A20002EBE
:1016F0002050726F6265205A5F4D494E5F50494ECF
:101700003A20002C2073746F7720616E676C653A05
:10171000202020002C206465706C6F7920616E673A
:101720006C653A2000536572766F2070726F626547
:1017300020746573740A2E207573696E6720696E54
:101740006465783A2020004D343320576169742055
:1017500043616C6C6564004D3433205761697420BB
:1017600043616C6C6564005761746368696E6720DF
:1017700070696E730A0064697300656E0061626C63
:1017800065640A00656E6473746F70206D6F6E69B6
:10179000746F72200020580020204D61783A20009C
:1017A000200020204D696E3A2000203B20002020A0
:1017B0004D3231312053003F43616E6E6F7420779C
:1017C0007269746520746F20494E5055540A00495F
:1017D0006E76616C69642050696E204D6F64650A95
:1017E00000203B0020550020204D363033204C0097
:1017F00046696C616D656E74206C6F61642F756EE7
:101800006C6F6164004D323453256C6454256C64F4
:10181000004739322E39452573004731462564008B
:1018200047315A25734636303000473158257359B1
:1018300025734633303030004D31303650256953F2
:101840002569004D313039532569004D323030441F
:101850002573004739322E395A2573004D34323002
:101860005325635A25730047323852305859004780
:10187000315A257346363030004739322E395A25D1
:1018800073004739322E394530004D3130395325F8
:1018900069004D313930532569004D3432302053C1
:1018A00030205A30003D3D4F6E506F7765724C6F5F
:1018B0007373526573756D653D3D00203B200020BC
:1018C000204D343133205300506F7765722D6C6F8B
:1018D0007373207265636F76657279004F464600B8
:1018E0004F4E00203B20486F73742068616E646C1B
:1018F000696E672000203B204D6F646520006D6D90
:1019000000203B2044697374616E63652000466962
:101910006C616D656E742072756E6F757420003B1E
:10192000200020496E76616C696420657874727558
:10193000646572200047322F473320626164207053
:101940006172616D65746572730A00536C656570D0
:101950002E2E2E005A2050726F62652050617374D3
:10196000204265640A005A2050726F6265205061FF
:10197000737420426564004732384C3000205A3A74
:10198000200020593A200042656420583A20004D3A
:1019900065736820706F696E74206F7574206F6650
:1019A0002072616E67650A004D302053746F7000BD
:1019B0004D312053746F7000436C69636B20746FFA
:1019C00020526573756D652E2E2E004E6F204D6F63
:1019D00076652E00456E642066696C65206C6973BF
:1019E000740A00426567696E2066696C65206C69DF
:1019F00073740A004E6F206D656469610A00526558
:101A000073756D696E6720534400286E6F20666998
:101A10006C65290043757272656E742066696C6529
:101A20003A20005072696E742074696D653A200026
:101A30000A53746174733A2046696C616D656E7403
:101A400020757365643A20002C204C6F6E676573B7
:101A500074206A6F623A2000546F74616C2074695C
:101A60006D653A200053746174733A20002C20464F
:101A700061696C65643A20002C2046696E69736860
:101A800065643A20005072696E74733A2000537492
:101A90006174733A20006F6B006F6666007E077991
:101AA0000772076B075D0744454255473A004D31C1
:101AB0003133205300544D334420453520506C754C
:101AC00073204F46462E002F2F0046523A002046E4
:101AD0006C6F773A200050726F7465637465642090
:101AE00050696E0A003A200020536572766F20001C
:101AF000206F7574206F662072616E67650A0053EF
:101B00006572766F200050726F6265204F66667353
:101B10006574205A0050726F6265204F6666736567
:101B200074205A0064697300656E0043290A0061DD
:101B3000626C656420286D696E2074656D7020008C
:101B4000436F6C642065787472756465732061728C
:101B5000652000504944204175746F74756E6500AE
:101B6000504944204175746F74756E6520666169D3
:101B70006C6564212042616420686561746572202F
:101B800069640A00424C546F756368204853206DA5
:101B90006F646520004D34323120696E636F72725C
:101BA00065637420706172616D6574657220757310
:101BB0006167650A004D65736820706F696E7420F7
:101BC0006F7574206F662072616E67650A004F66DC
:101BD0006673657473204170706C6965640045724A
:101BE000723A20546F6F206661722100546F6F202B
:101BF0006661722066726F6D207265666572656ED1
:101C0000636520706F696E740A00454550524F4DF0
:101C1000204F4B0A004D383400446F6E65207072BF
:101C2000696E74696E672066696C650A004D3737A6
:101C3000004D3331000A20696E6974207A70726F2A
:101C400062655F7A6F6666736574203D20003D3D76
:101C50006F6E436F6E66696775726174696F6E53FC
:101C6000746F7265526561643D3D00454550524F49
:101C70004D20496E697469616C697A65640A00482F
:101C8000617264636F6465642044656661756C7439
:101C90002053657474696E6773204C6F616465646A
:101CA0000020286D6D2900203B204C6576656C690D
:101CB0006E67200020204D3432302053004175746F
:101CC0006F20426564204C6576656C696E670046DE
:101CD000696C616D656E742072756E6F75742073BA
:101CE000656E736F7200204A0020204732392057FA
:101CF00020490020204D3134392043203B20556EAF
:101D000069747320696E2043656C736975730A008A
:101D100054656D706572617475726520556E697475
:101D200073002020473231203B004C696E656172A0
:101D300020556E69747300454550524F4D206461C3
:101D4000746173697A65206572726F722E0A00532E
:101D5000657474696E6720566F6C756D65204F6E83
:101D6000203A200053657474696E67205374616E65
:101D7000646279204F6E203A200053657474696E56
:101D80006720566F6C756D65203A2000536574743A
:101D9000696E6720526F746174696F6E203A20001B
:101DA00053657474696E67205374616E6462792040
:101DB00054696D65203A200053657474696E67201C
:101DC0005374616E646279203A20005365747469BB
:101DD0006E67204272696768746E657373203A207B
:101DE000004C6F6164696E67204457494E204C4334
:101DF000442073657474696E672066726F6D204548
:101E00004550524F4D0A0044697363617264696EB4
:101E100067204457494E204C4344207365747469CD
:101E20006E672066726F6D20454550524F4D202DD4
:101E30002073657474696E67732076657273696F59
:101E40006E20696E636F72726563740A0044697311
:101E500063617264696E67204457494E204C434465
:101E60002073657474696E672066726F6D204545D6
:101E700050524F4D202D2073697A6520696E636F33
:101E800072726563740A0053746F726564207365BF
:101E90007474696E677320726574726965766564BF
:101EA00000290A002062797465733B206372632005
:101EB000002073746F7265642073657474696E6753
:101EC00073207265747269657665642028004545E3
:101ED00050524F4D20435243204572726F72002082
:101EE0002863616C63756C6174656429210A002044
:101EF000213D2000454550524F4D20435243206D17
:101F000069736D61746368202D202873746F726526
:101F1000642920002053697A653A2000496E64657F
:101F2000783A200000803B4400803B440000204180
:101F3000000096420000A0420000A0420000484479
:101F40000080CC43D0070000D007000064000000F0
:101F50004B000000454550524F4D20566572736945
:101F60006F6E204572726F7200204D61726C696EE7
:101F70003D563837290A00454550524F4D20766569
:101F80007273696F6E206D69736D61746368202868
:101F9000454550524F4D3D0024F4D43050C38E205F
:101FA000C2A24017828B7011127A910D816CD90AEE
:101FB000A861E108C7586607615143061E4B5D05DD
:101FC000C145A7041A411104093D98037139310331
:101FD0004036DB0265339102D4305402802E1D025C
:101FE000632CEE01752AC501B028A00110278101DC
:101FF0008F2564012B244B01E0223401AC211F0109
:102000008D200D01801FFC00841EED00971DDF0058
:10201000B81CD200E61BC600201BBC00641AB2002C
:10202000B219A8000A19A0006A189900D1179100E6
:1020300040178B00B516840031167E00B315790069
:102040003A157300C7146F0058146A00EE13660047
:102050008813630025135E00C7125B006C125700E3
:1020600015125400C111510070114F0021114B0085
:10207000D61049008D10470046104400021042005F
:10208000C00F4000800F3E00420F3C00060F3B0097
:10209000CB0E3800930E37005C0E3500270E34004F
:1020A000F30D3200C10D3100900D3000600D2E0097
:1020B000320D2D00050D2C00D90C2B00AE0C290083
:1020C000850C29005C0C2700350C27000E0C26001F
:1020D000E80B2400C40B2400A00B23007D0B23007D
:1020E0005A0B2100390B2100180B2000F80A1F00A1
:1020F000D90A1E00BB0A1E009D0A1D00800A1D0091
:10210000630A1C00470A1B002C0A1B00110A1A0054
:10211000F7091A00DD091900C4091900AB091900F3
:10212000920917007B091800630917004C09160073
:1021300036091600200916000A091500F5081500D1
:10214000E0081400CC081400B8081400A408140017
:10215000900813007D0812006B0813005808120045
:10216000460812003408110023081100120811005B
:1021700001081100F0071000E0071000D007100060
:10218000C0071000B0070F00A107100091070E0054
:1021900083070F0074070F0065070E0057070E0036
:1021A00049070E003B070D002E070E0020070D000B
:1021B00013070D0006070D00F9060C00ED060D00D3
:1021C000E0060C00D4060C00C8060C00BC060C008F
:1021D000B0060C00A4060B0099060C008D060B003F
:1021E00082060B0077060B006C060B0061060A00E6
:1021F00057060B004C060A0042060A0038060A0081
:102200002E060A0024060A001A060A001006090013
:1022100007060A00FD050900F4050900EB050900A1
:10222000E2050900D9050900D0050900C705090024
:10223000BE050900B5050800AD050800A5050900A3
:102240009C050800940508008C050800840508001A
:102250007C050800740508006C050700650508008A
:102260005D050700560508004E05070047050700F5
:102270004005080038050700310507002A0507005A
:10228000230507001C050600160507000F050700BB
:102290000805060002050700FB040600F504070018
:1022A000EE040600E8040600E2040700DB04060072
:1022B000D5040600CF040600C9040600C3040600C6
:1022C000BD040600B7040600B1040500AC04060016
:1022D000A6040600A00405009B0406009504050062
:1022E000900406008A0405008504050080040600A9
:1022F0007A04050075040500700405006B040500F0
:1023000066040500610405005C040500570405002F
:10231000520405004D04050048040500430405006F
:102320003E0404003A0405003504050030040400AE
:102330002C04050027040400230405001E040400E7
:102340001A04040016040500110404000D0404001E
:10235000090405000404040000040400FC03040054
:10236000F8030400F4030400F0030400EC03040089
:10237000E8030400E4030400E0030400DC030400B9
:10238000D8030400D4030400D0030400CC030400E9
:10239000C8030300C503030024F404D9201BC40CA4
:1023A0005C0E9804C4095F0265077101F405F90029
:1023B000FB04B30048048700C103690058035500BB
:1023C00003034500BE023A008402310053022A0092
:1023D0002902250004022000E4011C00C8011900A4
:1023E000AF0117009801140084011300710110005F
:1023F0006101100051010E0043010D0036010B0078
:102400002B010B0020010B00150109000C01090034
:1024100003010800FB000800F3000800EB000700C0
:10242000E4000600DE000600D8000600D200060028
:10243000CC000500C7000500C2000500BD00040077
:10244000B9000400B5000400B1000400AD000400B0
:10245000A9000400A5000300A20003009F000400DF
:102460009B00030098000300950002009300030006
:10247000900003008D0002008B0003008800020022
:102480008600020084000300810002007F00020039
:102490007D0002007B00020079000200770001004D
:1024A0007600020074000200720001007100020058
:1024B0006F0002006D0001006C0002006A00010064
:1024C000690002006700010066000100650001006C
:1024D0006400020062000100610001006000010070
:1024E0005F0002005D0001005C0001005B00010074
:1024F0005A00010059000100580001005700010076
:102500005600010055000100540001005300000076
:102510005300010052000100510001005000010071
:102520004F0001004E0000004E0001004D00010070
:102530004C0001004B0000004B0001004A0001006C
:102540004900010048000000480001004700010068
:102550004600000046000100450000004500010063
:10256000440001004300000043000100420000005D
:102570004200010041000000410001004000010054
:102580003F0000003F0001003E0000003E0001004F
:102590003D0000003D0001003C0000003C00000048
:1025A0003C0001003B0000003B0001003A0000003D
:1025B0003A00010039000000390001003800000035
:1025C000380000003800010037000000370001002B
:1025D0003600000036000000360001003500000023
:1025E0003500000035000100340000003400000018
:1025F000340001003300000033000000330001000C
:102600003200000032000000320001003100000002
:1026100031000000310001003000000030000000F7
:10262000300001002F0000002F0000002F000000EC
:102630002F0001002E0000002E0000002E000100DF
:102640002D0000002D0000002D0000002D000100D5
:102650002C0000002C0000002C0000002C000100C9
:102660002B0000002B0000002B0000002B000100BD
:102670002A0000002A0000002A0000002A000100B1
:1026800029000000290000002900000029000000A6
:102690002900010028000000280000002800000098
:1026A000280000002800010027000000270000008B
:1026B000270000002700000027000100260000007E
:1026C0002600000026000000260000002600010071
:1026D0002500000025000000250000002500000066
:1026E0002500000025000100240000002400000057
:1026F000240000002400000024000100230000004A
:10270000230000002300000023000000230000003D
:10271000230000002300010022000000220000002E
:102720002200000022000000220000002200010020
:102730002100000021000000210000002100000015
:102740002100000021000000210001002000000005
:1027500020000000200000002000000020000000F9
:102760002000000020000000200001001F000000E9
:102770001F0000001F0000001F0000001F000000DD
:102780001F0000001F0001001E0000001E000000CE
:102790001E0000001E00000039300000332500003C
:1027A00087190000B00F0000DB080000BD04000026
:1027B000740200003F01000020436F756E742058C2
:1027C0003A0023646566696E652044454641554C70
:1027D000545F0000626564004B6420004B69200078
:1027E0004B7020005049442074756E696E672064F8
:1027F0006F6E6500504944204175746F74756E6545
:102800002066696E69736865642120507574207450
:102810006865206C617374204B702C204B692061BB
:102820006E64204B6420636F6E7374616E747320EA
:1028300066726F6D2062656C6F7720696E746F20B1
:10284000436F6E66696775726174696F6E2E680A90
:1028500000504944204175746F74756E652066613F
:10286000696C6564212074696D656F75740A004137
:1028700075746F74756E65206661696C656421207E
:1028800054696D656F75742E00504944204175740C
:102890006F74756E65206661696C6564212054658E
:1028A0006D706572617475726520746F6F206869F0
:1028B00067680A00504944204379636C65730025BA
:1028C000532025692F256900204B643A2000204BB6
:1028D000693A2000204B703A200020436C617373EA
:1028E000696320504944200A00204E6F206F7665AE
:1028F0007273686F6F740A002054753A2000204B81
:10290000753A2000206D61783A2000206D696E3A9A
:10291000200020643A200020626961733A20004858
:10292000656174696E672E2E2E00504944204175F2
:10293000746F74756E652073746172740A004175EA
:10294000746F74756E65206661696C65642E2054C1
:10295000656D706572617475726520746F6F206843
:102960006967682E00504944204175746F74756E14
:1029700065206661696C6564212054656D706572BF
:10298000617475726520746F6F20686967680A00EA
:10299000426564004531004500626564002C207387
:1029A000797374656D2073746F707065642120484D
:1029B00065617465725F49443A20004865617469D5
:1029C0006E67204661696C65640048656174696E74
:1029D00067206661696C6564004D3131322053684F
:1029E0007574646F776E001000C90210012C0140ED
:1029F00001220170011801B0010E01F00104015023
:102A000002FA00B002F0003003E600D003DC0090D0
:102A100004D2007005C800A006BE000008B400B0D3
:102A200009AA00D00BA000600E960060118C000077
:102A300015820020197800C01D6E00A0226400B02D
:102A4000275A00902C500000314600E0343C001022
:102A5000383200903A2800603C1E00A03D140080EF
:102A60003E0A00203F00004572723A204D41585402
:102A7000454D50004D415854454D50207472696782
:102A80006765726564004572723A204D494E54453F
:102A90004D50004D494E54454D5020747269676742
:102AA0006572656400544845524D414C2052554E64
:102AB0004157415900546865726D616C2052756EC2
:102AC00061776179000A0A0020205A5F4D494E3A29
:102AD000002020595F4D41583A002020585F4D4159
:102AE000583A00202F002042403A0020403A00206F
:102AF000573A0020573A00496E76616C6964206548
:102B0000787472756465720A007C3C3E5E2B3D3FB2
:102B10002F5B5D3B2C2A225C0043616E6E6F74203C
:102B20006F70656E2073756264697220004D656414
:102B3000696120496E6974204661696C00534420C4
:102B400063617264206F6B0A006F70656E526F6F05
:102B500074206661696C65640A00766F6C756D65DA
:102B60002E696E6974206661696C65640A004E6F37
:102B700020534420636172640A000A4D3234004DD0
:102B80003233202573002E0A006F70656E20666157
:102B9000696C65642C2046696C653A200046696C56
:102BA000652073656C65637465640A002053697AF7
:102BB000653A200046696C65206F70656E65643A01
:102BC0002000454E4420535542524F5554494E45DE
:102BD0000A002220706F73002220706172656E748B
:102BE0003A2200535542524F5554494E45204341D5
:102BF0004C4C207461726765743A220053756263AD
:102C0000616C6C204F766572666C6F7700457863F7
:102C10006565646564206D617820535542524F5557
:102C200054494E452064657074683A002E0A004489
:102C3000656C6574696F6E206661696C65642C20D3
:102C400046696C653A200046696C652064656C6570
:102C50007465643A005344207072696E74696E67DB
:102C6000206279746520004E6F7420534420707286
:102C7000696E74696E670A002F6175746F25632E23
:102C8000670057726974696E6720746F2066696C9B
:102C9000653A2000667265736800646F696E67004C
:102CA0002066696C653A20004E6F77200020205026
:102CB0006C616E6E657242756666657242797465A6
:102CC000733A20002046726565204D656D6F7279FC
:102CD0003A200020436F6D70696C65643A20417042
:102CE0007220323820323032320A00204C61737444
:102CF00020557064617465643A20323032322D3070
:102D0000342D3033207C20417574686F723A205422
:102D1000696E794D616368696E657333440A004D6D
:102D200061726C696E20322E302E395F4457372E17
:102D3000342E360A0020536F667477617265205214
:102D4000657365740A00205761746368646F672057
:102D500052657365740A002042726F776E206F753A
:102D6000742052657365740A002045787465726E2C
:102D7000616C2052657365740A00506F77657255F7
:102D8000700A0073746172740A004739310A47315E
:102D90005A350A4739300A4D38340A4D31303453E8
:102DA000300A4D3134305330004D31303031006510
:102DB00072726F722077726974696E6720746F2007
:102DC00066696C650A00446F6E6520736176696E92
:102DD000672066696C652E0A004D323900456E64C5
:102DE00073746F707300255320256320256320259D
:102DF0006320256300205A3A0020593A0020583AAF
:102E000000656E6473746F7073206869743A200093
:102E100000002100240027002A002D00300033008C
:102E200001010000040107010A0100002200250041
:102E300028002B002E0031003400020100000501A3
:102E400008010B01000020002300260029002C00AF
:102E50002F003200000100000301060109010505F1
:102E60000505070508080808020202020A0A080800
:102E7000040404040101010101010101030303032E
:102E800003030303040707070C0C0C0C0C0C0C0CBD
:102E90000202020206060606060606060B0B0B0BCE
:102EA0000B0B0B0B010210202008081020401020F3
:102EB00040800201020108040201010204081020FE
:102EC00040808040201008040201800402018040FC
:102ED0002010080402010804020101020408102065
:102EE0004080010204081020408000000A0B020903
:102EF0000C0D0E0807030401000000000000000094
:102F000000000000000000000000000000000000C1
:102F1000000000000000121110000000000000007E
:102F200000000000000000000000000000000000A1
:102F300050726F62696E67204661696C65640A0051
:102F400050726F62696E67204661696C656400202B
:102F50005A3A200020593A200042656420583A200D
:102F600000726573756D6564004469736D69737390
:102F700000526573756D696E670073686F770062E4
:102F80007574746F6E00626567696E004469736181
:102F9000626C6552756E6F75740050757267654D21
:102FA0006F72650050617573656400436F6E74697C
:102FB0006E7565004C6F61642046696C616D656E6D
:102FC000742054004C6F61642046696C616D656EBD
:102FD0007400496E736572742066696C616D656E0C
:102FE0007420616E642073656E64204D3130380A40
:102FF0000020204D323036205800486F6D65206F1C
:103000006666736574004361703A00434F4E4649EB
:10301000475F4558504F5254004D4541545041432D
:103020004B00434F4F4C45525F54454D5045524124
:1030300054555245004348414D4245525F54454D19
:10304000504552415455524500424142595354450E
:103050005050494E470041524353004D4F54494F41
:103060004E5F4D4F44455300544845524D414C5FCF
:1030700050524F54454354494F4E00455854454EC5
:103080004445445F4D323000435553544F4D5F46E5
:1030900049524D574152455F55504C4F4144004CA9
:1030A000464E5F5752495445004C4F4E475F464984
:1030B0004C454E414D45004155544F5245504F529D
:1030C000545F53445F5354415455530053445F5726
:1030D0005249544500524550454154004D554C54B9
:1030E000495F564F4C554D450053444341524400AF
:1030F00050524F4D50545F535550504F525400480A
:103100004F53545F414354494F4E5F434F4D4D41E0
:103110004E445300454D455247454E43595F50413B
:103120005253455200434153455F4C494748545F11
:103130004252494748544E45535300544F47474C19
:10314000455F4C494748545300534F4654574152EA
:10315000455F504F574552004255494C445F5045DA
:103160005243454E54004C4556454C494E475F44EA
:10317000415441005A5F50524F42450052554E4F04
:103180005554004155544F4C4556454C00505249FA
:103190004E545F4A4F420050524F475245535300DE
:1031A0004155544F5245504F52545F54454D500075
:1031B0004155544F5245504F52545F504F53005653
:1031C0004F4C554D455452494300454550524F4D83
:1031D0000042494E4152595F46494C455F54524165
:1031E0004E534645520053455249414C5F584F4E4D
:1031F0005F584F4646004649524D574152455F4E33
:10320000414D453A4D61726C696E20322E302E3937
:103210005F4457372E342E3620544D3344204535E5
:1032200050534D444242202841707220323820329F
:103230003032322030303A30383A33312920534F4F
:10324000555243455F434F44455F55524C3A68746D
:103250007470733A2F2F6769746875622E636F6D8F
:103260002F496E73616E6974794175746F6D617405
:10327000696F6E2F4D61726C696E2F747265652F68
:10328000437265616C6974794477696E5F322E3080
:103290002050524F544F434F4C5F56455253494F65
:1032A0004E3A312E30204D414348494E455F5459E6
:1032B00050453A544D334420453520506C757320A9
:1032C00045585452554445525F434F554E543A3138
:1032D00020555549443A63656465326132662D3440
:1032E0003161322D343734382D396231322D633526
:1032F000356336326633363766660A00290A00209F
:10330000746F20003F5A206F7574206F66207261C1
:103310006E6765202800290A0020746F20003F593D
:10332000206F7574206F662072616E676520282D8E
:1033300000290A0020746F20003F58206F75742008
:103340006F662072616E676520282D00203B00208B
:10335000204D3835312058005A2D50726F6265204B
:103360004F66667365740043616E6E6F74206F7094
:10337000656E20737562646972200025697300258B
:10338000696D20256973002569682025696D2025F0
:10339000697300256964202569682025696D2025E9
:1033A00069730025697920256964202569682025CD
:1033B000696D2025697300436F6F6C696E672E2EEF
:1033C0002E0045312025530042656420436F6F6C09
:1033D000696E672E2E2E004265642048656174690F
:1033E0006E672E2E2E003D3D4477696E20496E6932
:1033F0007420436F6D706C6574653D3D00202D2019
:103400006434200064333A2000202D2064322000F0
:1034100064313A2000202D206C656E20005650202B
:1034200072656365697665643A20007761697477CF
:103430006179203D3D0020202A2A2A2A2A2A2A5260
:1034400054535F48616E646C65446174612A2A2A32
:103450002A2A2A2A2A20002A2A2A4E6F7A7A6C657A
:1034600054656D705374617475735B325D203D00FB
:103470003D3D48656174696E6720446F6E65204309
:1034800068616E67652046696C616D656E743D3D6F
:10349000002020737461727470726F677265737349
:1034A00020004D32320A4D3231003D3D7761697462
:1034B00077617920353D3D003D3D776169747761E5
:1034C0007920343D3D003D3D776169747761792015
:1034D000333D3D003D3D7761697477617920313D31
:1034E0003D00436F6E6669726D20436F6E74696E46
:1034F000756500506175736553746174757300521E
:103500004553554D45204F5054494F4E533A00486E
:10351000656174696E672E2E2E000000436C69632E
:103520006B20746F206865617400000052657375CC
:103530006D696E672E2E2E00000050757267696EE1
:10354000672E2E2E000000496E7365727420616E26
:103550006420436C69636B000000436C69636B20FB
:10356000746F20636F6E74696E7565000000456A44
:10357000656374696E672E2E2E000000506C6561C5
:10358000736520776169742E2E2E000000506172E1
:103590006B696E672E2E2E0000002A2A2A496E695A
:1035A00074696E672063617264206973204F4B2ACF
:1035B0002A2A003D3D6F6E5072696E7454696D65C4
:1035C0007253746F707065643D3D003D3D6F6E5584
:1035D000736572436F6E6669726D5265717569725B
:1035E00065643D3D005061757365204D6F646520D5
:1035F000537461747573004C6F6164696E672E2E2D
:103600002E0000003D3D6F6E466163746F7279520B
:10361000657365743D3D00270A0A000027202700D6
:103620002027002D0063616E63656C005072696E27
:10363000742041626F727465640055492041626F65
:103640007274656400726573756D65004D32340087
:103650002A2A2A43506C617920546F6E652A2A2ADF
:10366000003D3D6F6E5072696E7454696D657250A5
:1036700061757365643D3D00486F6D696E672046F6
:1036800061696C65640050524553454E54004F5576
:1036900054006F70656E0054524947474552454487
:1036A000003A20004D4F54494F4E203A20004F46DB
:1036B000460A003A200066696C616D656E74007A96
:1036C0005F6D696E00795F6D617800785F6D61781C
:1036D000005265706F7274696E6720656E647374F2
:1036E0006F70207374617475730A0020746F6F209B
:1036F0006C6F6E6720657874727573696F6E207079
:10370000726576656E7465640A0020636F6C642070
:10371000657874727573696F6E2070726576656E08
:103720007465640A00486F6D6520257325732573E1
:10373000204669727374005761726E696E673A2031
:10374000486F6D696E672042756D702044697669B7
:10375000736F72203C20310A000202040000B04363
:103760000000B443000000000000B0430000B44378
:103770000000C8430000004100000041000000407C
:103780000101FF0000000100000001000080005561
:103790005555000000400033333300AAAA2A0049DF
:1037A00092240000002000C7711C0099991900D1D3
:1037B000451700555515003BB1130024491200115F
:1037C000111100000010000F0F0F00E3380E00432E
:1037D000790D00CCCC0C00C3300C00E8A20B0064C7
:1037E000210B00AAAA0A00703D0A009DD8090042D8
:1037F0007B090092240900DCD308008888080010A7
:1038000042080000000800F0C10700878707007524
:10381000500700711C07003EEB0600A1BC060069C2
:1038200090060066660600703E06006118060017E6
:10383000F4050074D105005BB00500B2900500628C
:103840007205005555050078390500B81E050005BC
:103850000505004EEC040087D40400A1BD040090CF
:10386000A7040049920400C17D0400EE690400C76A
:10387000560400444404005C320400082104004162
:10388000100400000004003FF00300F8E0030026ED
:10389000D20300C3C30300CCB503003AA803000A57
:1038A0009B0300388E0300C08103009F750300D086
:1038B000690300505E03001D530300344803009168
:1038C0003D03003333030016290300381F0300971C
:1038D000150300300C0300030303000BFA02004938
:1038E000F10200BAE802005CE002002DD802002DCF
:1038F000D0020059C80200B0C0020031B90200DA9B
:10390000B10200AAAA0200A0A30200BC9C0200FA15
:103910009502005C8F0200DF88020082820200456F
:103920007C02002776020027700200436A02007CB6
:10393000640200D05E02003F590200C8530200FF3B
:10394000FDFCFAF8F6F4F2F0EEECEAE9E7E5E3E183
:10395000E0DEDCDAD9D7D5D4D2D0CFCDCBCAC8C738
:10396000C5C3C2C0BFBDBCBAB9B7B6B4B3B2B0AFBD
:10397000ADACAAA9A8A6A5A4A2A1A09E9D9C9A9917
:10398000989795949392908F8E8D8B8A898887864D
:1039900084838281807F7E7D7B7A79787776757467
:1039A000737271706F6E6D6C6B6A6968676665645F
:1039B000636261605F5E5D5C5B5A5958585756554B
:1039C0005453525150504F4E4D4C4B4A4A49484720
:1039D0004646454443424241403F3E3E3D3C3B3BE0
:1039E0003A39383837363535343332323130302F92
:1039F0002E2E2D2C2B2B2A29292827272625252436
:103A0000232322212120201F1E1E1D1C1C1B1B1ACC
:103A10001919181817161615151413131212111157
:103A2000100F0F0E0E0D0D0C0C0B0A0A09090808D9
:103A30000707060605050404030302020100003D12
:103A40003D6F6E5072696E7454696D657253746126
:103A5000727465643D3D000000B0430000B4430053
:103A600000C84300000000000000000000000053F8
:103A70006176696E67204457494E204C4344207359
:103A8000657474696E672066726F6D20454550528B
:103A90004F4D0A003D3D6F6E53657474696E6773D8
:103AA00053746F7265643D3D0053657474696E674D
:103AB000732053746F72656400290A002062797460
:103AC00065733B20637263200053657474696E678D
:103AD000732053746F72656420280070012C01906C
:103AE000012701B0012201C0011D01F001180110E0
:103AF00002130130020E016002090190020401C0AC
:103B000002FF000003FA004003F5008003F000D03C
:103B100003EB002004E6007004E100E004DC004058
:103B200005D700C005D2004006CD00D006C80080F1
:103B300007C3003008BE00F008B900C009B400B0E7
:103B40000AAF00B00BAA00D00CA500000EA00050D8
:103B50000F9B00C01096005012910000148C00C002
:103B6000158700B0178200B0197D00D01B780000C7
:103B70001E730040206E0090226900F02464004013
:103B8000275F0090295A00E02B5500102E5000208E
:103B9000304B0010324600E033410090353C0010BD
:103BA00037370070383200A0392D00B03A2800A015
:103BB0003B2300603C1E00103D1900903D14001096
:103BC0003E0F00703E0A00C03E0500003F0000406E
:103BD0003FFBFF803FF6FFC03FF1FF220A00556E1A
:103BE0006B6E6F776E20636F6D6D616E643A20222D
:103BF000002042002050006F6B00204500205A003A
:103C000020590020204D39322058005374657073BC
:103C10002070657220756E69740020746F6F206C5F
:103C20006F6E6720657874727573696F6E2070723D
:103C30006576656E7465640A0020636F6C64206548
:103C40007874727573696F6E2070726576656E74C4
:103C500065640A004D323520500A4D3234005265F9
:103C600073756D650055492050617573650043613A
:103C70006E6E6F7420656E74657220737562646910
:103C8000723A20004E6F204D61746368203A004301
:103C90006F6E73747261696E206D65736856616CC6
:103CA00020006D65736856616C200079506E742039
:103CB0000078506E7420006D657368506F696E7483
:103CC0002000446973706C61794272696768746E30
:103CD000657373205365743A2000446973706C6196
:103CE000794272696768746E657373204C43443A15
:103CF00020004D32320A4D323100526566726573D2
:103D0000680050675570005067446F776E004973C4
:103D10002046696C65200049732044697220004781
:103D20006F557044697200486173204D6564696124
:103D30000046696C656E616D652053656C656374E2
:103D40006564004D3130303043004D31303030004B
:103D50002046696C616D656E7420526573706F6E7C
:103D60007365204E6F00526573756D6520596573DC
:103D700020647572696E67207072696E74000A2023
:103D80004E6F2046696C616D656E7400496E766198
:103D90006C6964204F7074696F6E004D353030006F
:103DA00053746F72652053657474696E6773004D48
:103DB0003939390A4D3238305030533136300042BB
:103DC0004C546F756368205265736574004D3530CF
:103DD000320A4D35303000496E69742045455052E5
:103DE0004F4D004D3530300053746F726520536570
:103DF0007474696E677300496E4C616E6743686FD7
:103E0000696365000A202A2A2A7265636461742E38
:103E1000646174615B305D203D004732380A473190
:103E2000204631303030205A313000556E73757075
:103E3000706F72746564204F7074696F6E20536583
:103E40006C6563746564004D32313153300A473913
:103E5000310A47315A302E3032350A4739300A4D4F
:103E60003231315331004D32313153300A4739311B
:103E70000A47315A2D302E3032350A4739300A4D33
:103E800032313153310047323953320047323953DE
:103E9000310047323652323535004D3139305335E5
:103EA000350A4732380A4732390A4D3430300A4D24
:103EB000313034533231350A4732380A4D313039D6
:103EC000533231350A4D34323053310A473158318B
:103ED00030305931303046353030300A47315A3081
:103EE0000A4D3530300A4D37370A4D3131372053BE
:103EF0006574205A204F666673657400473120460A
:103F000031303030205A302E30004732380A4731B5
:103F1000204631303030205A302E30005A204F6643
:103F200066736574203A202573005A204F666673C5
:103F30006574203A202573004732385A0A473146C3
:103F4000313530305A302E30004732380A4731464A
:103F5000313530305A302E3000426564204C657661
:103F6000656C204F7074696F6E20005265747572B5
:103F70006E203A20004D3834004731463130303021
:103F80005A302E30004732380A473146313030300F
:103F90005A302E30004D616E75616C5365745465F6
:103FA0006D70005A204F6666736574203A20257341
:103FB00000526F756E64696E6720746F207374654C
:103FC0007000526571756573746564204F66667321
:103FD0006574200053746F7020547269676765724E
:103FE00065640053746F70204E6F0053746F70508F
:103FF00072696E740048616E646C6520446174611E
:104000002041646A75737420322053657474696E3C
:10401000672053637265656E200048616E646C654D
:104020002044617461205072696E7446696C652029
:10403000332053657474696E672053637265656ECF
:10404000200048616E646C65204461746120507288
:10405000696E7446696C6520322053657474696EAC
:10406000672053637265656E20004D3834004861E7
:104070006E646C652044617461205072696E744690
:10408000696C6520506F73740048616E646C6520C4
:1040900044617461205072696E7446696C65205089
:1040A000726500426567696E537769746368003DA5
:1040B0003D20436865636B6B65793D3D00726563C8
:1040C0006461742E61646472203D3D0072656364B6
:1040D00061742E646174615B305D203D3D0020455C
:1040E0003A00205A3A0020593A00583A006F6B0AB9
:1040F00000526573656E643A20006E6F746966697C
:10410000636174696F6E2000544D3344204535203F
:10411000506C75732052656164792E005072696E1F
:1041200074696E672E2E2E005072696E7420506175
:104130007573656400524553554D45204F505449A1
:104140004F4E533A0048656174696E672E2E2E00FB
:104150000000436C69636B20746F206865617400B4
:104160000000526573756D696E672E2E2E0000007B
:1041700050757267696E672E2E2E0000004C6F61BD
:1041800064696E672E2E2E000000496E736572748E
:1041900020616E6420436C69636B000000436C69AE
:1041A000636B20746F20636F6E74696E75650000B9
:1041B00000456A656374696E672E2E2E00000050FC
:1041C0006C6561736520776169742E2E2E00000086
:1041D0005061726B696E672E2E2E00000050617563
:1041E00073654D73673D0000E001460111241FBE59
:1041F000CFEFD1E2DEBFCDBF00E00CBF84B780932C
:104200009D1914BE0FB6F894A8958091600088613E
:1042100080936000109260000FBE16E0A0E0B2E054
:10422000E4EDFDE902E00BBF02C007900D92A83655
:10423000B107D9F729E1A8E6B6E001C01D92AD3972
:10424000B207E1F710E2C5EFD0E200E006C0219727
:104250000109802FFE010F94174BC43FD10780E066
:104260000807A9F70F9422360D94D84E0C9400003D
:1042700020917A07833021F425FD0CC024FD0CC069
:1042800030E0A90102C0559547958A95E2F7CA0129
:104290008170089581E0089580E008958091310A49
:1042A00084FD0BC08091330A87FD07C09091340ACA
:1042B000937081E019F480E0089581E00895082E5C
:1042C000000C990BFC01E25AF14DE491EE2391F0C0
:1042D000F0E0EE0FFF1FEC5BF14DA591B4912C9136
:1042E0008C55914DFC018491282381E090E021F4CC
:1042F00080E0089580E090E00895082E000C990B6E
:10430000FC01E25AF14DE491F0E0EE0FFF1FE05F97
:10431000F14DA591B4912C918C55914DFC01849156
:10432000822391E009F490E0892F0895CF92DF92E3
:10433000EF92FF92CF93DF93EC01CC80DD80EE8093
:10434000FF8027E137EB41ED58EBC701B6010F9431
:10435000804D87FD23C023E030E044EB53E4C701E8
:10436000B6010F9450441816CCF0C880D980EA806A
:10437000FB8027E137EB41ED58EBC701B6010F9405
:10438000804D87FD0BC0C1E023E030E040EB53E4FB
:10439000C701B6010F94504418160CF4C0E08C2FDE
:1043A000DF91CF91FF90EF90DF90CF900895BC0107
:1043B000990F880B990B0F9457442091A10A3091C3
:1043C000A20A4091A30A5091A40A0F94B6442091E6
:1043D000990A30919A0A40919B0A50919C0A0F9435
:1043E000204B0895BC01990F880B990B0F945744EB
:1043F00020919D0A30919E0A40919F0A5091A00AF7
:104400000F94B6442091950A3091960A4091970AEC
:104410005091980A0F94204B0895EDE9F7E094919C
:10442000981739F0319697E0E33BF907C1F780E040
:10443000089581E00895269A2E9A08950F931F9368
:10444000CF93DF9300D01F92CDB7DEB79C010DE56F
:1044500019E090E1ECE5F2E0D80101900D929A9517
:10446000E1F7F9012081318142815381F8016085B2
:104470007185828593850F94204BF8016087718741
:104480008287938780E090E0A0EAB0E489839A83F2
:10449000AB83BC83CE0101960E94DACD0F900F90C2
:1044A0000F900F90DF91CF911F910F9108952F9250
:1044B0003F924F925F926F927F928F929F92AF92B4
:1044C000BF92CF92DF92EF92FF921F93CF93DF9331
:1044D000CDB7DEB72C970FB6F894DEBF0FBECDBFB9
:1044E0007A011901DC012D913D914D915C912D8353
:1044F0003E834F835887FB014080518062807380E8
:1045000080905C0290905D02A0905E02B0905F028D
:10451000A50194016D817E818F8198850F9450440F
:1045200081110EC011E0A3019201609160027091AF
:10453000610280916202909163020F945044811154
:1045400010E0D1012D913D914D915C9129873A87E1
:104550004B875C87F701C080D180E280F380209197
:104560000202309103024091040250910502C701FA
:10457000B6010F945044882309F44EC0C092020241
:10458000D0920302E0920402F09205028091680248
:1045900090916902A0916A02B0916B024091600211
:1045A00050916102609162027091630280925D0994
:1045B00090925E09A0925F09B092600940936109F0
:1045C000509362096093630970936409C09265090E
:1045D000D0926609E0926709F092680980936909B0
:1045E00090936A09A0936B09B0936C0920E030E0C6
:1045F00040E05FE36091A30E7091A40E8091A50E40
:104600009091A60E0F94B64469837A838B839C8322
:10461000CE0101960E94DACD2D813E814F815885D1
:1046200020935D0930935E0940935F0950936009C0
:104630004092610950926209609263097092640924
:10464000D1012D913D914D915C91609169097091DD
:104650006A0980916B0990916C090F94204B6093CB
:10466000690970936A0980936B0990936C09111121
:104670002FC020E030E0A90169857A858B859C8573
:104680000F945044811133C060E070E088EC92E4F4
:1046900069837A838B839C83CE0101960E94DACD55
:1046A0002C960FB6F894DEBF0FBECDBFDF91CF9131
:1046B0001F91FF90EF90DF90CF90BF90AF909F90B1
:1046C0008F907F906F905F904F903F902F900895C4
:1046D0002AEF3EE74AE25FE36091A70E7091A80ED1
:1046E0008091A90E9091AA0E0F94B644D1CF60E0AC
:1046F00070E080EA91E4CCCFCF93DF9300D01F929B
:10470000CDB7DEB780E090E0A0EAB0E489839A8379
:10471000AB83BC8361E0CE0101960E9445CF0F9030
:104720000F900F900F90DF91CF910895BC01990FDA
:10473000880B990B0C9477FFCF92DF92EF92FF9248
:104740000F931F93CF93DF936B017A01EC01C0505D
:10475000D94F28813CE0389F8001399F100D1124EA
:1047600027FF24C0FB011182108288818F5F88831C
:1047700088819801280F311D87FD3A95C901209144
:10478000AA15F6012817190629F024F088818C3023
:104790000CF43CC080819181049680349C4908F4DB
:1047A00075C0F60180819181049672C0888198015C
:1047B000280F311D87FD3A95C9012091AA152817A8
:1047C000190699F294F28881A801480F511D87FDBE
:1047D0005A95FA01EE0FFF1FE40FF51FEE59FA4E3E
:1047E000808187FFC2CF8881F801E80FF11D87FD26
:1047F000FA95CF01EE0FFF1FE80FF91FEE59FA4EA1
:10480000808160E08F770E947681AFCF8081918137
:104810002881A801420F511D27FD5A959A01FA01DE
:10482000EE0FFF1FE20FF31FEE59FA4E2181328186
:10483000820F931FF7019183808388819801280F4D
:10484000311D87FD3A95F901EE0FFF1FE20FF31FAF
:10485000EE59FA4E808187FF20C08881080F111D14
:1048600087FD1A95F801EE0FFF1FE00FF11FEE59BB
:10487000FA4E808161E08F77DF91CF911F910F9188
:10488000FF90EF90DF90CF900C94768180E49CE9CC
:10489000F701918380838FEF8883DF91CF911F9100
:1048A0000F91FF90EF90DF90CF90089580916A076D
:1048B00090916B07009731F04AE050E070E060E0C3
:1048C0000D946B4260E070E0CB0108950F931F934D
:1048D000CF93DF9300D000D01F921F92CDB7DEB7E9
:1048E0008B01FC0123A5211102C00E942D811D8294
:1048F0001E821F82188620E030E040E05FE3609176
:1049000064027091650280916602909167020F9433
:10491000204B69837A838B839C839E012B5F3F4F5F
:10492000AE014F5F5F4F60E672E08CE592E00E945F
:1049300057221D821E821F82188620E030E040E050
:104940005FE3F80160857185828593850F94204B24
:1049500069837A838B839C83B8016C5F7F4F9E0150
:104960002B5F3F4FAE014F5F5F4FC8010E94572240
:1049700028960FB6F894DEBF0FBECDBFDF91CF9162
:104980001F910F91089580916A0790916B0700978E
:1049900031F04AE050E070E060E00D943D4160E0AD
:1049A00070E0CB0108950E94C32497FD0CC00E94C3
:1049B000C3246F3F71058105910509F034F40E940D
:1049C000C324862F089580E008958FEF0895809185
:1049D0006A0790916B07892B41F00E94D32491E0E4
:1049E000811101C090E0892F089591E0FCCFFC0176
:1049F000659175918591949108958091AA08882375
:104A000019F080E00E9493D280E008958F929F92E7
:104A1000AF92BF92CF92DF92EF92FF92CF93DF934C
:104A2000EC018090EB0A9090EC0AA090ED0AB09017
:104A3000EE0A20E030E0A901C501B4010F94504412
:104A4000882309F454C0C880D980EA80FB80A7017C
:104A50009601C501B4010F94504418160CF04CC0D7
:104A60002091E30A3091E40A4091E50A5091E60A68
:104A7000C701B6010F945044882331F1C092E30A74
:104A8000D092E40AE092E50AF092E60A2091E70A61
:104A90003091E80A4091E90A5091EA0A68817981E7
:104AA0008A819B810F94B6449B01AC0160E070E069
:104AB00080E89FE30F941F4B6093060270930702F8
:104AC0008093080290930902609106027091070298
:104AD0008091080290910902DF91CF91FF90EF90B1
:104AE000DF90CF90BF90AF909F908F90089560E03F
:104AF00070E080E89FE3F0CF60E070E0CB01ECCFA6
:104B0000682F70E090E080E00C9477FF9B01AC018F
:104B1000485F5F4FBC016C5F7F4F0C9457222F9210
:104B20003F924F925F926F927F928F929F92AF923D
:104B3000BF92CF92DF92EF92FF920F931F93CF938A
:104B4000DF93CDB7DEB7A6970FB6F894DEBF0FBEE2
:104B5000CDBF8C011B015A87498740905C02509061
:104B60005D0260905E0270905F02809060029090A3
:104B70006102A0906202B0906302DB018D919D9171
:104B80000D90BC91A02D8B8B9C8BAD8BBE8B9C0113
:104B9000AD01C301B2010F941F4B6B017C01D10128
:104BA00014968D919D910D90BC91A02D8F8B988F17
:104BB000A98FBA8F9C01AD01C501B4010F941F4BA1
:104BC0006B8F7C8F8D8F9E8FA985BA858D919D91DE
:104BD0000D90BC91A02D8B879C87AD87BE879C01D3
:104BE000AD01C301B2010F941F4B6F8F78A389A34E
:104BF0009AA3A985BA8514968D919D910D90BC912B
:104C0000A02D8F87988BA98BBA8B9C01AD01C50114
:104C1000B4010F941F4B6BA37CA38DA39EA3A7018C
:104C20009601C701B6010F94B6446B017C012B8D30
:104C30003C8D4D8D5E8DCA01B9010F94B6449B0128
:104C4000AC01C701B6010F94204B4B015C012B89CD
:104C50003C894D895E896B857C858D859E850F9409
:104C60001F4B2B013C012F89388D498D5A8D6F8543
:104C7000788989899A890F941F4B6B017C01A30164
:104C80009201C301B2010F94B6442B013C01A7016C
:104C90009601C701B6010F94B6449B01AC01C30154
:104CA000B2010F94204B0F94CE4D6B017C012F8DE0
:104CB00038A149A15AA1CA01B9010F94B6442B01E8
:104CC0003C012BA13CA14DA15EA1CA01B9010F94E9
:104CD000B6449B01AC01C301B2010F94204B9B0170
:104CE000AC01C501B4010F94804D1816B4F520E055
:104CF00030E0A901C701B6010F94804D87FF2AC09B
:104D0000C701B601905820E030E040EA50E40F942B
:104D1000804D181614F5A10169857A85C8010E9495
:104D20008F25A6960FB6F894DEBF0FBECDBFDF91DC
:104D3000CF911F910F91FF90EF90DF90CF90BF9098
:104D4000AF909F908F907F906F905F904F903F902B
:104D50002F900895C701B601D6CF20E030E040E0A3
:104D600050E4C501B4010F94804D181624F4B1012C
:104D7000C8010E94662419821A821B821C82BE010D
:104D80006F5F7F4FC1010E9486252DEC3CEC4CECFF
:104D90005CE3C701B6010F94B6449B01AC01F80176
:104DA00060817181828193810F94B6446D837E838B
:104DB0008F839887D8019B968C919B978823C9F005
:104DC0002AE939E949E95FE314966D917D918D9166
:104DD0009C9117970F94B64469837A838B839C8345
:104DE000BE016F5F7F4F8DE599E00E948625F80137
:104DF00013A6BE016B5F7F4F89859A850E94862529
:104E000090CF2F923F924F925F926F927F928F92AC
:104E10009F92AF92BF92CF92DF92EF92FF920F9349
:104E20001F93CF93DF93CDB7DEB768970FB6F89493
:104E3000DEBF0FBECDBFFB013081542F530F553065
:104E400008F00CC10181622F600F653008F006C1C7
:104E5000E02FF0E0E05AF84FE081F0E0032E02C0CE
:104E6000F595E7950A94E2F7E0FFF8C0E62EF12CFD
:104E7000F701E05AF84FE081F0E0252E312C02C016
:104E8000F595E7955A95E2F7E0FFE8C0122F742EEA
:104E90006C01832F330F990B0E94F2214B015C01AF
:104EA000672D660F770B072E000C880B990B0F945C
:104EB00057442B013C01AC019B01C501B4010F9487
:104EC000204B6D877E878F87988BC1010E94F221CE
:104ED000A30192010F941F4B69837A838B839C8378
:104EE000802F000F990B0E94D7212B013C01612FCD
:104EF000660F770B072E000C880B990B0F94574405
:104F00004B015C01AC019B01C301B2010F94204B2A
:104F1000698B7A8B8B8B9C8BC7010E94D721A50153
:104F200094010F941F4B6D837E838F839887F601C6
:104F300080859185A285B38589879A87AB87BC8751
:104F40008D8B9E8BAF8BB88F47E651E061E070E0B0
:104F5000CE0141960E94D09A47E651E061E070E0B0
:104F6000CE0105960E94D09A4FE551E061E070E0D5
:104F7000CE010D960E94D09A4FE551E061E070E0BD
:104F8000CE0101960E94D09A49885A886B887C8805
:104F900027E137EB41ED58EBC301B2010F94804D8F
:104FA00087FD5CC023E030E044EB53E4C301B20171
:104FB0000F94504418160CF451C04D845E846F84D5
:104FC000788827E137EB41ED58EBC301B2010F942C
:104FD000804D87FD43C023E030E040EB53E4C30144
:104FE000B2010F9450441816CCF14D805E806F8052
:104FF000788427E137EB41ED58EBC301B2010F9400
:10500000804D87FD2BC023E030E044EB53E4C30127
:10501000B2010F94504418160CF149805A806B80ED
:105020007C8027E137EB41ED58EBC301B2010F94CF
:10503000804D87FD13C023E030E040EB53E4C30113
:10504000B2010F94504418164CF0AE014F5F5F4F01
:10505000BE01635F7F4FC6010E948F2568960FB621
:10506000F894DEBF0FBECDBFDF91CF911F910F919E
:10507000FF90EF90DF90CF90BF90AF909F908F9078
:105080007F906F905F904F903F902F9008950E9477
:10509000C324CB0108950F931F93CF9380916A0788
:1050A00090916B070097E9F0FC018F01C1912C2FC3
:1050B0002F7D81F0C53411F0C536B9F7F8011082A3
:1050C00070E060E00F94DF3FF801C083CF911F9143
:1050D0000F91089570E060E0CF911F910F910D94B2
:1050E000DF3F60E070E0CB01F1CF2FEB280F2A31DA
:1050F00008F047C0E22FF0E08091310A9091320A27
:10510000A091330AB091340A04C0B695A79597953B
:1051100087952A95D2F780FD02C081700895ED5ED3
:10512000F54FE081EE2341F18091DA0A9091DB0A9C
:10513000E80FF92FF11D808190ED980F9A3030F033
:105140008E3251F4818180538A3098F4F0936B074A
:10515000E0936A0781E008958D3211F08B3249F4B3
:10516000818190ED980F9A3088F38E3211F482810C
:10517000EACFF0E0E0E0EACF10926B0710926A0706
:10518000E9CF80E008950E947528882341F081E0EE
:1051900020916A0730916B07232B09F480E0089572
:1051A000CF92DF92EF92FF926A017B010E94C328A7
:1051B000882331F0FF90EF90DF90CF900C944B2834
:1051C000C701B601FF90EF90DF90CF900895CF9385
:1051D000DF93EB010E94C328882321F0DF91CF9158
:1051E0000C944728CE01DF91CF910895CF93DF93A0
:1051F000EB010E94C328882319F00E94C324EB010D
:10520000CE01DF91CF910895CF93C62F0E94C3287E
:10521000882319F0CF910C94D3248C2FCF9108952B
:10522000CF93DF93C82FD62F0E94C328882321F065
:10523000DF91CF910C94E7248C2F0E947528811167
:1052400001C08D2FDF91CF910895CF92DF92EF9221
:10525000FF92CF936B017C01C42F8091AC088F5FCC
:1052600009F4B5C08093AC088091AC0880935B09C9
:1052700020E030E040E752E460912702709128027C
:105280008091290290912A020F94B6440F94934C76
:105290007093BE086093BD08C092BF08D092C0084A
:1052A000E092C108F092C20880915A09C0FB80F9CF
:1052B00080935A098CE0ECE5F8E0A3ECB8E00190AB
:1052C0000D928A95E1F78CE0E0E8FAE0AFECB8E007
:1052D00001900D928A95E1F78091890790915A0982
:1052E00080FB94F990935A09882381F08091850777
:1052F00090918607A0918707B09188078093DB087B
:105300009093DC08A093DD08B093DE0880917B14B5
:1053100090917C149093E0088093DF08809164144E
:10532000909165149093E2088093E1088091040BBA
:105330008093E30880915A099091BF0E90FB83F906
:1053400080935A098091EB0A9091EC0AA091ED0AA2
:10535000B091EE0A8093E4089093E508A093E608E4
:10536000B093E7080E94CFD5609355097093560912
:10537000809357099093580980917A07809359092F
:1053800090915F0E80915A0993FB81F990918C0A5C
:1053900090FB82F980935A0980E00E9493BE40E01E
:1053A00050E0BA0184EA97E10E94538A40EB50E052
:1053B0006CEA78E084EA97E10E94E78A84EA97E160
:1053C000CF91FF90EF90DF90CF900C94148E81E0FE
:1053D00049CF4F925F926F927F928F929F92AF923E
:1053E000BF92CF92DF92EF92FF921F93CF93DF9302
:1053F00000D01F92CDB7DEB719821A821B821C82A1
:10540000CE0101964C018DE5C82E89E0D82E9CE591
:10541000E92E92E0F92E2EE8A22E2FE0B22E10E017
:1054200088E5810F0E94C328F40181934F018823EE
:1054300009F4E7C00E944B282B013C01812F0E94F8
:105440003821882309F4D3C0F701208131814281BA
:105450005381C301B2010F94204BF6016083718325
:10546000828393831F5FF4E0CF0ED11C84E0E80EAB
:10547000F11C94E0A90EB11C133091F685E40E9452
:10548000C3288C83882309F4C7C00E944B286B0172
:105490007C0183E00E943821882371F0209168020A
:1054A0003091690240916A0250916B02C701B601C6
:1054B0000F94204B6B017C01C0926909D0926A095C
:1054C000E0926B09F0926C098091750E882391F13E
:1054D00080919F1782FF2EC087FD2CC08C8188236E
:1054E00049F18981811103C08A81882319F12DEC4A
:1054F0003CEC4CE45DE36091B5087091B608809196
:10550000B7089091B8080F94204B9B01AC016091B3
:1055100064027091650280916602909167020F9417
:10552000804D18163CF440E060E070E080E090E4CC
:105530000E94252940E050E0BA0186E40E94D0286C
:1055400020E030E0A9010F94804D181684F40E94E9
:105550004B2820E030E040E752E40F941A4C60936F
:105560002702709328028093290290932A02809147
:105570005F0E83FD28C080914708882321F1209188
:1055800068023091690240916A0250916B02609109
:10559000690970916A0980916B0990916C090F9467
:1055A0001F4B209154083091550840915608509156
:1055B00057080F94204B60935408709355088093BC
:1055C0005608909357080F900F900F900F90DF910F
:1055D000CF911F91FF90EF90DF90CF90BF90AF9051
:1055E0009F908F907F906F905F904F900895F501FE
:1055F0002081318142815381C301B2010F941F4B3D
:105600002CCFF70180819181A281B381F601808343
:105610009183A283B38326CF80916802909169021F
:10562000A0916A02B0916B028093690990936A0914
:10563000A0936B09B0936C0947CFECEAF8E080EBDC
:10564000DF011D928A95E9F708958091750E811109
:1056500004C00E941D2B0C941FBF80919F1782FFD6
:1056600009C087FD07C040E060E070E080E090E4A2
:105670000C94252908958091AC08882361F09091BD
:105680005B09891308C080919F1784FF04C088EECE
:1056900098E00C94C49180E00895FC0123812111CD
:1056A0000C94148E0895CF93DF93C0917B14D09106
:1056B0007C14209729F1609177147091781480916F
:1056C000791490917A140F948C4C6E5F7F4F2497CD
:1056D0006C177D07ACF47093CA076093C9070E94EA
:1056E0007382605A75418F4F9F4F6093CB077093C1
:1056F000CC078093CD079093CE07DF91CF9108958B
:105700001092CB071092CC071092CD071092CE07C3
:10571000F4CFCF92DF92EF92FF921F93CF93DF935C
:10572000182F662351F010925F0710925B071092BA
:105730005C0710925D0710925E070E9473826B01F6
:105740007C0180915B0790915C07A0915D07B0910F
:105750005E07A7019601281B390B4A0B5B0BDA0188
:10576000C901B7FD3DC020915F0717FD13C0412F50
:10577000012E000C550B4C5F5F4F822F022E000C48
:10578000990B4817590764F184EF91E0A0E0B0E06D
:10579000211724F488EE93E0A0E0B0E08C0D9D1D6D
:1057A000AE1DBF1D80935B0790935C07A0935D07C0
:1057B000B0935E072170C22F30E0D32F84E28C9F1C
:1057C000B0018D9F700D7C1B112460597C4F82E3CA
:1057D00090E00E94ECD980915F078F5F80935F0714
:1057E000DF91CF911F91FF90EF90DF90CF900895C0
:1057F000CF93DF93C0916414D0916514209729F161
:10580000609160147091611480916214909163149E
:105810000F948C4C6E5F7F4F24976C177D07ACF410
:105820007093C2076093C1070E947382605E7044E8
:105830008D4F9F4F6093C3077093C4078093C50734
:105840009093C607DF91CF9108951092C3071092ED
:10585000C4071092C5071092C607F4CFCF93C1E0DA
:1058600020E030E0A90160919D0A70919E0A80912C
:105870009F0A9091A00A0F945044811101C0C0E08A
:105880008C2FCF910895CF93C82F882321F00E94A9
:105890002E2C8823D9F08091BF0E8C17B9F00E946E
:1058A0001DC58091BF0E882349F08CE592E00E94CF
:1058B00040C51092BF0ECF910C9451D081E08093DF
:1058C000BF0E8CE592E00E9449C4F5CFCF910895B8
:1058D0004F925F926F927F928F929F92AF92BF9200
:1058E000CF92DF92EF92FF920F931F93CF93DF93AC
:1058F000EC012091950A3091960A4091970A5091B7
:10590000980A688179818A819B810F941F4B6B0172
:105910007C012091990A30919A0A40919B0A5091FA
:105920009C0A6C817D818E819F810F941F4B4B015E
:105930005C01A70196016091530770915407809113
:105940005507909156070F945044882309F450C08E
:10595000C0925307D0925407E0925507F092560731
:1059600020914B0730914C0740914D0750914E07C5
:10597000C701B6010F94B6442B013C010F94C24CF1
:105980006B017C0120E030E0A9010F94504487FDB9
:1059900070C020E030E040E450E4C701B6010F944D
:1059A000804D18162CF4C12CD12CC0E4EC2EFE2C0A
:1059B000A7019601C301B2010F941F4B60934307E7
:1059C000709344078093450790934607C701B6013B
:1059D0000F948C4C60934107062E000C770B6F5F81
:1059E0007F4F6430710514F064E070E060933F070E
:1059F000D0913D0710914107A5019401609157078F
:105A0000709158078091590790915A070F9450440C
:105A1000811133C0D11381C0209125073091260711
:105A200040912707509128076091430770914407E0
:105A300080914507909146070F94B644209129071D
:105A400030912A0740912B0750912C070F94204B3F
:105A5000DF91CF911F910F91FF90EF90DF90CF904A
:105A6000BF90AF909F908F907F906F905F904F907E
:105A70000895C12CD12C76019BCF8092570790922C
:105A80005807A0925907B0925A0720914F073091BA
:105A900050074091510750915207C501B4010F942E
:105AA000B6444B015C010F94C24C6B017C0120E0B9
:105AB00030E0A9010F94504487FDF3C020E030E0AE
:105AC00040E450E4C701B6010F94804D18162CF441
:105AD000C12CD12CB0E4EB2EFE2CA7019601C50100
