:100000000C94A1150C94DA150C94DA150C94DA15ED
:100010000C94DA150C94DA150C94DA150C94DA15A4
:100020000C94DA150C94DA150C94DA150C94DA1594
:100030000C94DA150C943D290C94DA150C94DA150D
:100040000C9412280C94DA150C94A8B90C94DA15B7
:100050000C94AB8A0C94A18A0C94DA150C94DA15E2
:100060000C94DA150C94DA150C94DA150C94DA1554
:100070000C94DA150C94DA150C94DA150C94DA1544
:100080000C94DA150C94DA150C94DA154E414E499D
:100090004E495459494E46CDCCCC3D0AD7233C1746
:1000A000B7D13877CC2B329595E6241FB14F0A0093
:1000B0000020410000C84200401C4620BCBE4CCA83
:1000C0001B0E5AAEC59D7400407A10F35A00A07200
:1000D0004E18090010A5D4E80000E8764817000083
:1000E000E40B54020000CA9A3B000000E1F5050051
:1000F0000080969800000040420F000000A086019A
:10010000000000102700000000E803000000006469
:1001100000000000000A00000000000100000000D4
:10012000002C76D888DC674F0823DFC1DFAE59E1A9
:10013000B1B796E5E3E453C63AE651997696E8E618
:10014000C28426EB898C9B62ED407C6FFCEFBC9CEB
:100150009F40F2BAA56FA5F490055A2AF75C936BFD
:100160006CF9676DC11BFCE0E40D47FEF520E6B5B8
:1001700000D0ED902E0300943577050080841E0892
:100180000000204E0A000000C80C333333330F98B0
:100190006E12831141EF8D2114893BE65516CFFE77
:1001A000E6DB18D1844B381BF77C1D901DA4BBE403
:1001B00024203284725E228100C9F124ECA1E53D45
:1001C0002741425300504C410063616E63656C00EF
:1001D0005072696E742041626F72746564004D32B2
:1001E000350050617573696E672E2E2E007265732F
:1001F000756D65004D32340046696C2E204469618E
:100200002E004F6666004F6E004520696E206D6DB2
:100210005E3300452073746570732F6D6D005A2036
:1002200053746570732F6D6D00592053746570732E
:100230002F6D6D00582053746570732F6D6D0041E4
:100240006476616E6365642053657474696E677368
:100250000046696C616D656E740053746570732F30
:100260006D6D00436F6E66696775726174696F6E5C
:10027000004C6576656C696E6720446F6E65210081
:100280004D6F7665205A004732395631004E6578F9
:100290007420506F696E74002569202F2025750029
:1002A000473239563100436C69636B20746F2042CA
:1002B0006567696E00486F6D696E672058595A000E
:1002C00053746F72652053657474696E6773004C64
:1002D0006F61642053657474696E6773004F66665E
:1002E000004F6E00426564204C6576656C696E67F0
:1002F000004C6576656C20426564004D6F74696FD3
:100300006E00526573746F72652044656661756C2A
:100310007473004C6F61642053657474696E677305
:100320000053746F72652053657474696E6773004F
:10033000416476616E6365642053657474696E67A9
:1003400073004D61696E004D3139305335350A47C0
:1003500032380A4732390A4D3430300A4D313034A0
:10036000533231350A4732380A4D31303953323140
:10037000350A4D34323053310A4731583130305913
:1003800031303046353030300A47315A300A4D3539
:1003900030300A4D37370A4D3131372053657420DC
:1003A0005A204F6666736574004D313036533132D2
:1003B000380A4D3330334338533231354530550ADE
:1003C0004D3530300A4D3131372050494420547575
:1003D0006E6520446F6E65004D3139305335350AF6
:1003E0004D313034533231350A4732380A473239C9
:1003F0004C310A4731205831303059313030463590
:100400003030300A47315A30004D3530300A4D31E6
:1004100031372053657474696E67732053746F723B
:1004200065640053746F72652053657474696E67F8
:1004300073005072657020666F72205A2041646AA2
:10044000757374005049442054756E65005365748B
:100450007570004D61696E003F004261636B00532F
:10046000746F70004D323200417474616368204DC6
:1004700065646961004D3231005072696E742066A6
:10048000726F6D204D656469610052656C656173C2
:1004900065204D65646961004C6576656C696E67C1
:1004A00020546F6F6C7300436F6E6669677572617D
:1004B00074696F6E0054656D7065726174757265F4
:1004C000004D6F74696F6E00537461727420486FD1
:1004D0007374205072696E7400526573756D652077
:1004E0005072696E740054756E650053746F70209D
:1004F0005072696E74005061757365205072696E38
:100500007400496E666F2053637265656E004361C7
:100510006E6E6F7420656E746572207375626469A7
:10052000723A200002202E2E000152656672657319
:1005300068004D61696E002100486F74656E64202B
:10054000746F6F20636F6C64004261636B00507264
:100550006F63656564004D6F74696F6E0044697305
:1005600061626C65205374657070657273004D38FC
:100570003400426564204C6576656C696E670041A5
:1005800075746F20486F6D6500473238004D6169A2
:100590006E005072656865617420242042656400B5
:1005A00050726568656174202420456E640054654E
:1005B0006D706572617475726500C501C101436F2C
:1005C0006F6C646F776E005072656865617420248B
:1005D0000046616E20537065656400426564004E9C
:1005E0006F7A7A6C65004D61696E00546F74616C4E
:1005F000004261627973746570205A00466C6F77AF
:100600000046616E20537065656400426564004E6B
:100610006F7A7A6C65005370656564004D61696E30
:1006200000486F6D696E67204661696C6564006F94
:1006300070656E00545249474745524544003A2080
:10064000007A5F6D696E00795F6D696E00785F6D2D
:10065000696E005265706F7274696E6720656E64B2
:1006600073746F70207374617475730A0020746FF3
:100670006F206C6F6E6720657874727573696F6E2A
:100680002070726576656E7465640A0020636F6C15
:100690006420657874727573696F6E207072657608
:1006A000656E7465640A0000000000000000000030
:1006B0000000005761726E696E673A20486F6D697D
:1006C0006E672042756D702044697669736F722081
:1006D0003C20310A00020204000075430000704310
:1006E00000007A430000004100000041000000408B
:1006F000000075430000704300007A4300000000D2
:10070000000000000000000053657474696E677398
:100710002053746F72656400454550524F4D204917
:100720006E697469616C697A65640A0000803B4493
:1007300000803B4400002041000096420000A0429F
:100740000000A0420000C8430000BE42D0070000E5
:10075000D0070000640000004B00000024F4D430F7
:1007600050C38E20C2A24017828B7011127A910D55
:10077000816CD90AA861E108C75866076151430630
:100780001E4B5D05C145A7041A411104093D98039C
:10079000713931034036DB0265339102D4305402A3
:1007A000802E1D02632CEE01752AC501B028A00120
:1007B000102781018F2564012B244B01E022340195
:1007C000AC211F018D200D01801FFC00841EED0057
:1007D000971DDF00B81CD200E61BC600201BBC0022
:1007E000641AB200B219A8000A19A0006A18990088
:1007F000D117910040178B00B516840031167E008A
:10080000B31579003A157300C7146F0058146A00C5
:10081000EE1366008813630025135E00C7125B00A9
:100820006C12570015125400C111510070114F0085
:1008300021114B00D61049008D104700461044008E
:1008400002104200C00F4000800F3E00420F3C00EB
:10085000060F3B00CB0E3800930E37005C0E3500C0
:10086000270E3400F30D3200C10D3100900D300021
:10087000600D2E00320D2D00050D2C00D90C2B0023
:10088000AE0C2900850C29005C0C2700350C2700D4
:100890000E0C2600E80B2400C40B2400A00B230040
:1008A0007D0B23005A0B2100390B2100180B20006F
:1008B000F80A1F00D90A1E00BB0A1E009D0A1D006F
:1008C000800A1D00630A1C00470A1B002C0A1B003B
:1008D000110A1A00F7091A00DD091900C4091900E4
:1008E000AB091900920917007B091800630917006A
:1008F0004C09160036091600200916000A091500D1
:10090000F5081500E0081400CC081400B80814001D
:10091000A4081400900813007D0812006B0813004F
:10092000580812004608120034081100230811006C
:100930001208110001081100F0071000E007100074
:10094000D0071000C0071000B0070F00A10710006B
:1009500091070E0083070F0074070F0065070E0054
:1009600057070E0049070E003B070D002E070E002B
:1009700020070D0013070D0006070D00F9060C00F7
:10098000ED060D00E0060C00D4060C00C8060C00B5
:10099000BC060C00B0060C00A4060B0099060C0067
:1009A0008D060B0082060B0077060B006C060B0011
:1009B00061060A0057060B004C060A0042060A00B0
:1009C00038060A002E060A0024060A001A060A0043
:1009D0001006090007060A00FD050900F4050900D4
:1009E000EB050900E2050900D9050900D005090059
:1009F000C7050900BE050900B5050800AD050800DA
:100A0000A50509009C050800940508008C05080050
:100A1000840508007C050800740508006C050700C3
:100A2000650508005D050700560508004E0507002E
:100A30004705070040050800380507003105070095
:100A40002A050700230507001C05060016050700F8
:100A50000F0507000805060002050700FB04060055
:100A6000F5040700EE040600E8040600E2040700AF
:100A7000DB040600D5040600CF040600C904060006
:100A8000C3040600BD040600B7040600B104050057
:100A9000AC040600A6040600A00405009B040600A2
:100AA00095040500900406008A04050085040500ED
:100AB000800406007A040500750405007004050032
:100AC0006B04050066040500610405005C04050074
:100AD00057040500520405004D04050048040500B4
:100AE000430405003E0404003A04050035040500F3
:100AF000300404002C04050027040400230405002E
:100B00001E0404001A040400160405001104040065
:100B10000D0404000904050004040400000404009A
:100B2000FC030400F8030400F4030400F0030400D1
:100B3000EC030400E8030400E4030400E003040001
:100B4000DC030400D8030400D4030400D003040031
:100B5000CC030400C8030300C503030024F404D934
:100B6000201BC40C5C0E9804C4095F026507710168
:100B7000F405F900FB04B30048048700C1036900D1
:100B80005803550003034500BE023A0084023100B9
:100B900053022A002902250004022000E4011C005F
:100BA000C8011900AF011700980114008401130057
:100BB000710110006101100051010E0043010D0090
:100BC00036010B002B010B0020010B001501090061
:100BD0000C01090003010800FB000800F3000800F5
:100BE000EB000700E4000600DE000600D800060067
:100BF000D2000600CC000500C7000500C2000500B9
:100C0000BD000400B9000400B5000400B1000400F8
:100C1000AD000400A9000400A5000300A200030029
:100C20009F0004009B000300980003009500020051
:100C300093000300900003008D0002008B0003006E
:100C40008800020086000200840003008100020088
:100C50007F0002007D0002007B000200790002009C
:100C600077000100760002007400020072000100AB
:100C7000710002006F0002006D0001006C000200B4
:100C80006A000100690002006700010066000100BF
:100C900065000100640002006200010061000100C3
:100CA000600001005F0002005D0001005C000100C7
:100CB0005B0001005A0001005900010058000100CA
:100CC00057000100560001005500010054000100CA
:100CD00053000000530001005200010051000100C8
:100CE000500001004F0001004E0000004E000100C6
:100CF0004D0001004C0001004B0000004B000100C2
:100D00004A000100490001004800000048000100BD
:100D100047000100460000004600010045000000B9
:100D200045000100440001004300000043000100B1
:100D300042000000420001004100000041000100AB
:100D4000400001003F0000003F0001003E000000A5
:100D50003E0001003D0000003D0001003C0000009D
:100D60003C0000003C0001003B0000003B00010093
:100D70003A0000003A00010039000000390001008B
:100D80003800000038000000380001003700000083
:100D90003700010036000000360000003600010078
:100DA000350000003500000035000100340000006F
:100DB0003400000034000100330000003300000064
:100DC0003300010032000000320000003200010058
:100DD000310000003100000031000100300000004F
:100DE00030000000300001002F0000002F00000044
:100DF0002F0000002F0001002E0000002E00000038
:100E00002E0001002D0000002D0000002D0000002C
:100E10002D0001002C0000002C0000002C00000020
:100E20002C0001002B0000002B0000002B00000014
:100E30002B0001002A0000002A0000002A00000008
:100E40002A000100290000002900000029000000FC
:100E500029000000290001002800000028000000EF
:100E600028000000280000002800010027000000E2
:100E700027000000270000002700000027000100D5
:100E800026000000260000002600000026000000CA
:100E900026000100250000002500000025000000BC
:100EA00025000000250000002500010024000000AE
:100EB00024000000240000002400000024000100A1
:100EC0002300000023000000230000002300000096
:100ED0002300000023000000230001002200000086
:100EE000220000002200000022000000220000007A
:100EF000220001002100000021000000210000006C
:100F0000210000002100000021000000210001005C
:100F10002000000020000000200000002000000051
:100F20002000000020000000200000002000010040
:100F30001F0000001F0000001F0000001F00000035
:100F40001F0000001F0000001F0001001E00000025
:100F50001E0000001E0000001E00000004370000FC
:100F60001E290000511B000058100000100900004D
:100F7000CC040000780200004101000020436F759E
:100F80006E7420583A0042656400453100450062A5
:100F90006564002C2073797374656D2073746F70B1
:100FA00070656421204865617465725F49443A2028
:100FB0000048656174696E67204661696C6564000C
:100FC00048656174696E67206661696C6564004D8F
:100FD0003131322053687574646F776E001000C928
:100FE0000210012C014001220170011801B0010E14
:100FF00001F00104015002FA00B002F0003003E6F3
:1010000000D003DC009004D2007005C800A006BE2A
:10101000000008B400B009AA00D00BA000600E9632
:101020000060118C000015820020197800C01D6E30
:1010300000A0226400B0275A00902C5000003146D6
:1010400000E0343C0010383200903A2800603C1E2A
:1010500000A03D1400803E0A00203F00004572724F
:101060003A204D415854454D50004D415854454D3E
:101070005020747269676765726564004572723AE0
:10108000204D494E54454D50004D494E54454D500C
:101090002074726967676572656400544845524DF3
:1010A000414C2052554E4157415900546865726D6C
:1010B000616C2052756E61776179000A0A00202008
:1010C0005A5F4D494E3A002020595F4D494E3A0033
:1010D0002020585F4D494E3A00202F002042403AD0
:1010E0000020403A007C3C3E5E2B3D3F2F5B5D3B49
:1010F0002C2A225C005A5F53544F505F50494E00D7
:101100005A5F535445505F50494E005A5F4D494E07
:101110005F50494E005A5F454E41424C455F504931
:101120004E005A5F4449525F50494E00595F535434
:101130004F505F50494E00595F535445505F5049DE
:101140004E00595F4D494E5F50494E00595F454E24
:1011500041424C455F50494E00595F4449525F50EF
:10116000494E00585F53544F505F50494E00585FEE
:10117000535445505F50494E00585F4D494E5F50A3
:10118000494E00585F454E41424C455F50494E0024
:10119000585F4449525F50494E0053445353004CEA
:1011A00043445F53445353004C43445F50494E53B0
:1011B0005F5253004C43445F50494E535F454E418C
:1011C000424C45004C43445F50494E535F44340009
:1011D0004845415445525F4245445F50494E00489E
:1011E00045415445525F305F50494E0046414E5F85
:1011F00050494E0045305F535445505F50494E00B2
:1012000045305F454E41424C455F50494E004530A8
:101210005F4449525F50494E00444F474C43445F3E
:1012200053434B00444F474C43445F4D4F53490099
:1012300042544E5F454E430042544E5F454E32008D
:1012400042544E5F454E31004245455045525F5035
:10125000494E004156525F53535F50494E0041562C
:10126000525F53434B5F50494E004156525F4D4FC2
:1012700053495F50494E004156525F4D49534F5FAD
:1012800050494E0054454D505F4245445F50494ED1
:101290000054454D505F305F50494E005458443023
:1012A000005258443000434F4D4D554E4943415430
:1012B000494F4E0044525952554E004552524F52DA
:1012C0005300494E464F004543484F000F150E123C
:1012D00016170E1303021A1401000E0D18040C1930
:1012E0000001506C65617365205265736574005030
:1012F00052494E5445522048414C544544002553D0
:101300003A20255300706F7765726F6666004B490F
:101310004C4C45442E20005072696E7465722068F2
:10132000616C7465642E206B696C6C282920636184
:101330006C6C6564210A006563686F3A00457272DF
:101340006F723A0042696C696E656172204C657615
:10135000656C696E6720477269643A0A007374614C
:10136000727400477269642070726F62696E6720E0
:10137000646F6E652E0A0069646C650A00206F66F2
:101380002000706F696E7420004D616E75616C2075
:1013900047323920004D616E75616C20473239202B
:1013A00061626F727465640A002028445259525574
:1013B0004E2900473239204175746F204265642000
:1013C0004C6576656C696E67003F20284C2C522C6A
:1013D000462C4229206F7574206F6620626F756EEF
:1013E00064732E0A003F2856296572626F73652068
:1013F0006C6576656C20696D706C61757369626C83
:10140000652028302D34292E0A00426164205A209C
:1014100076616C75650A004E6F2062696C696E6555
:10142000617220677269640A004732384C300020CC
:10143000530020204D3230352042005741524E4952
:101440004E4721204C6F77205A204A65726B206DE1
:101450006179206C65616420746F20756E77616EB0
:10146000746564207061757365732E0A0050574D62
:101470003A20202534640050574D3A20202534640A
:101480000050574D3A20202534640050574D3A20E3
:10149000202534640050574D3A20202534640050F4
:1014A000574D3A20202534640050574D3A202025CE
:1014B00034640050574D3A2020253464003A20000F
:1014C00020202020434F4D002020206E6F6E2D7372
:1014D00074616E646172642050574D206D6F646555
:1014E00000202020636F6D7061726520696E7465E5
:1014F000727275707420656E61626C656400202084
:10150000206F766572666C6F7720696E7465727293
:1015100075707420656E61626C6564003A2000200D
:1015200020202054494D534B00423A2000202020D7
:10153000205443435200413A2000202020205443AD
:101540004352002020202043533A20002020202016
:1015500057474D3A200050574D3A2020253464001B
:1015600050574D3A202025346400470048000000C1
:1015700088008A000000B300B400000098009A00C0
:1015800000002020202054494D45520044004500D1
:101590006E00800081006F00B000B100700090000C
:1015A000910071002020002020506F72743A2000BA
:1015B00020202000202020416E616C6F6720696E22
:1015C000203D2025356C64003C756E757365642F75
:1015D000756E6B6E6F776E3E002028412532642950
:1015E000202000253364200050494E3A20004F75DA
:1015F00074707574203D2000496E70757420203D14
:101600002000416E616C6F6720696E203D2025359A
:101610006C640070726F74656374656420002028C8
:101620004125326429202000253364200050494E92
:101630003A2000A11208019C12090191121800849D
:10164000121900771206016A1205015E1207015392
:1016500012040148121B0140120B0138120A01301A
:1016600012100124120501191207010E12000100C7
:10167000120E01F4110101EC110401DF110D01D072
:10168000110C01C4111E01B4111101A8111C019FFC
:10169000111F019A111F019011150183110E01797B
:1016A0001112016E110F0163111201591117014C32
:1016B000110E0142111301371116012C11130122D1
:1016C00011020115111A010B11140100110301F58A
:1016D000101401446F6E652E0A0050756C73696EAC
:1016E0006720202000556E746F7563686564200064
:1016F000534552564F206E6F742073657420757079
:101700002E0A005761746368696E672070696E7392
:101710000A0064697300656E0061626C65640A00AA
:10172000656E6473746F70206D6F6E69746F722074
:10173000002E0A00206E6F742064697361626C650C
:10174000642E205368617265642077697468002094
:10175000496E76616C69642065787472756465722F
:101760002000536C6565702E2E2E004D6573682029
:10177000706F696E74206F7574206F662072616E71
:1017800067650A00436C69636B20746F2052657350
:10179000756D652E2E2E00616C736F20656E616213
:1017A0006C6564290A004E6F204D6F76652E0045EA
:1017B0006E642066696C65206C6973740A0042650A
:1017C00067696E2066696C65206C6973740A004EE7
:1017D0006F206D656469610A00706175736500282A
:1017E0006E6F2066696C65290043757272656E7450
:1017F0002066696C653A20005344207072696E74EB
:10180000696E67206279746520004E6F74205344BE
:10181000207072696E74696E670A002E0A00446552
:101820006C6574696F6E206661696C65642C204616
:10183000696C653A200046696C652064656C657466
:1018400065643A002569730025696D202569730078
:101850002569682025696D20256973002569642044
:101860002569682025696D2025697300256979201F
:10187000256964202569682025696D202569730024
:101880005072696E742074696D653A20003F43613F
:101890006E6E6F7420777269746520746F20494E84
:1018A0005055540A00496E76616C69642050696E27
:1018B000204D6F64650A006F6B006F666600C7128B
:1018C000C212BB12B412A61244454255473A005404
:1018D0004D334420456E64657233204F46462E00DA
:1018E00020204D39322058004649524D574152452B
:1018F0005F4E414D453A4D61726C696E20322E301B
:101900002E395F4457372E342E3620544D33442021
:101910004533534D444E42202841707220323820C6
:10192000323032322030303A35393A353529205389
:101930004F555243455F434F44455F55524C3A68BB
:10194000747470733A2F2F6769746875622E636FB1
:101950006D2F496E73616E6974794175746F6D6135
:1019600074696F6E2F4D61726C696E2F747265654C
:101970002F437265616C6974794477696E5F322EAA
:10198000302050524F544F434F4C5F5645525349AD
:101990004F4E3A312E30204D414348494E455F5419
:1019A0005950453A544D334420456E646572332096
:1019B00045585452554445525F434F554E543A3161
:1019C00020555549443A63656465326132662D3469
:1019D0003161322D343734382D396231322D63354F
:1019E000356336326633363766660A002F2F004D70
:1019F00031343520533C696E6465783E206F7574D0
:101A0000206F662072616E67652028302D31290AAB
:101A10000020440020204D32303020530020204D43
:101A200032303120580020450020204D3230332004
:101A3000580020540020520020204D3230342050D5
:101A40000020204D323036205800205A0020590006
:101A500020580020204D61783A2000200020204DA1
:101A6000696E3A2000203B200020204D3231312089
:101A7000530046523A0020466C6F773A200050726D
:101A80006F7465637465642050696E0A0042616218
:101A90007973746570205A0020440020490020208A
:101AA0004D33303120500064697300656E00432966
:101AB0000A0061626C656420286D696E2074656D32
:101AC000702000436F6C6420657874727564657370
:101AD0002061726520004F4646004F4E004265640B
:101AE000204C6576656C696E6720004661696C659F
:101AF0006420746F20656E61626C652042656420AD
:101B00004C6576656C696E670A00496E76616C6932
:101B100064206D6573682E0A004D34323120696E81
:101B2000636F727265637420706172616D65746554
:101B3000722075736167650A004D65736820706F68
:101B4000696E74206F7574206F662072616E6765B0
:101B50000A004F666673657473204170706C696526
:101B600064004572723A20546F6F206661722100E2
:101B7000546F6F206661722066726F6D20726566A9
:101B80006572656E636520706F696E740A00454505
:101B900050524F4D204F4B0A004D383400446F6E69
:101BA00065207072696E74696E672066696C650A7B
:101BB000004D3737004D333100496E76616C6964F2
:101BC0002065787472756465720A0020573A004384
:101BD0006F6F6C696E672E2E2E00453120255300E5
:101BE00020573A0042656420436F6F6C696E672E20
:101BF0002E2E004265642048656174696E672E2E42
:101C00002E0023646566696E652044454641554C47
:101C1000545F004B6420004B6920004B7020005043
:101C20004944204175746F74756E652066696E69EC
:101C300073686564212050757420746865206C6138
:101C40007374204B702C204B6920616E64204B64B0
:101C500020636F6E7374616E74732066726F6D2093
:101C600062656C6F7720696E746F20436F6E666972
:101C70006775726174696F6E2E680A00504944205E
:101C80004175746F74756E65206661696C65642159
:101C90002074696D656F75740A0050494420417560
:101CA000746F74756E65206661696C65642120547B
:101CB000656D706572617475726520746F6F2068F0
:101CC0006967680A00504944204379636C65730072
:101CD00025532025692F256900204B643A200020D8
:101CE0004B693A2000204B703A200020436C61730E
:101CF00073696320504944200A002054753A20003B
:101D0000204B753A2000206D61783A2000206D69E3
:101D10006E3A200020643A200020626961733A2004
:101D20000048656174696E672E2E2E00504944206C
:101D30004175746F74756E652073746172740A00F6
:101D4000504944204175746F74756E6520666169F1
:101D50006C6564212054656D70657261747572657F
:101D600020746F6F20686967680A005049442041F9
:101D700075746F74756E6500504944204175746FB9
:101D800074756E65206661696C65642120426164CA
:101D9000206865617465722069640A004572723A50
:101DA000207574663820666F6E74206E6F742069BB
:101DB0006E697469616C697A65642E004572723A65
:101DC000207574663820666F6E74206E6F7420699B
:101DD0006E697469616C697A65642E004572723A45
:101DE000207574663820666F6E74206E6F7420697B
:101DF0006E697469616C697A65642E002568753A4C
:101E000025303268750025303268753A25303268E1
:101E100075002530326875272530326875002568D1
:101E200075642025303268753A2530326875004275
:101E3000656400456E636C6F7375726500202020C9
:101E400020202020002020202000657272001FE04A
:101E500020102010201010201020201020103030D2
:101E60000840048003003FFFF038007030FC302051
:101E7000FC102078102030102C00D02E31D02F7B79
:101E8000D02F7BD02E31D02C00D0203010207810D5
:101E900020FC1030FC303800703FFFF03FFFF0387E
:101EA00000703186302387102787902F87D02F032B
:101EB000D02030102078102078102030102F03D040
:101EC0002F87D02787902387103186303800703FC6
:101ED000FFF00410400208200208200410400820EF
:101EE00080104100104100082080041040000000D4
:101EF0001FFFF81FFFF8000C0F00FE07022503BBB1
:101F0000017FFE08FE08FE05080806000040F0C834
:101F10008888987810050808060000C0F888888826
:101F20008888F80505050600012030F830200508EE
:101F3000080600002070F820202020E0050909068E
:101F400000FF2070A8A8B888887020070505070042
:101F500001D86C366CD80509090600FFF8A88888F6
:101F6000888888A8F8050A0A0600FE2050505050BC
:101F700088A8A8887003030306000340A040FFFF61
:101F8000FFFFFFFFFFFFFFFFFFFFFFFFFFFFFFFF61
:101F9000FFFFFFFF0000000605FF01070706020024
:101FA00080808080800080030303060105A0A0A03C
:101FB00005060606000050F85050F85005090906BD
:101FC00000FF2070A8A07028A87020050707060051
:101FD00000C8C8102040989805070706000040A0D8
:101FE000A040A890680103030602058080800309D1
:101FF000090601FF204040808080404020030909FD
:102000000601FF8040402020204040800507070651
:10201000000020A8702070A82005050506000120FA
:1020200020F820200203030601FFC04080050101C3
:10203000060003F8020202060100C0C005070706F9
:1020400000000810102040408005070706000070BF
:102050008898A8C8887003070706010040C0404060
:102060004040E0050707060000708808102040F88F
:10207000050707060000F8081030088870050707F4
:1020800006000010305090F81010050707060000F9
:10209000F880F008088870050707060000304080C7
:1020A000F0888870050707060000F8081010202047
:1020B000200507070600007088887088887005076B
:1020C0000706000070888878081060020505060180
:1020D00000C0C000C0C00206060601FFC0C000C0AC
:1020E00040800305050601012040804020050303D0
:1020F000060002F800F803050506010180402040B3
:1021000080050707060000708810202000200507C2
:10211000070600007088B8A8B88070050707060099
:1021200000708888F8888888050707060000F0484E
:1021300048704848F00507070600007088808080D6
:102140008870050707060000F04848484848F00531
:102150000707060000F88080F08080F80507070672
:102160000000F88080F0808080050707060000707E
:10217000888080988870050707060000888888F89E
:10218000888888030707060100E04040404040E09F
:1021900005070706000038101010109060050707AB
:1021A0000600008890A0C0A09088050707060000E0
:1021B000808080808080F805070706000088D8A806
:1021C000888888880507070600008888C8A8988836
:1021D00088050707060000708888888888700507CA
:1021E00007060000F08888F0808080050707060059
:1021F0000070888888A89068050707060000F088A6
:1022000088F0A09088050707060000708880700895
:102210008870050707060000F820202020202005F0
:1022200007070600008888888888887005070706E1
:10223000000088888888505020050707060000881D
:10224000888888A8A85005070706000088885020BD
:102250005088880507070600008888502020202025
:10226000050707060000F80810204080F803090958
:102270000601FFE080808080808080E005070706FF
:102280000000804040201010080309090601FFE00B
:1022900020202020202020E00503030600052050F8
:1022A000880501010600FEF80303030601058040CE
:1022B00020050505060000700878887805070706E0
:1022C00000008080F0888888F00505050600007011
:1022D00080808870050707060000080878888888CD
:1022E000780505050600007088F080700507070670
:1022F0000000304840E04040400507070600FE70FF
:102300008888887808700507070600008080F088B4
:102310008888880307070601004000C0404040E06D
:102320000409090601FE100030101010109060051D
:10233000070706000080808890E090880307070662
:102340000100C04040404040E0050505060000D0C7
:10235000A8A8A8A8050505060000B0C888888805B3
:10236000050506000070888888700507070600FECE
:10237000F0888888F080800507070600FE78888846
:1023800088780808050505060000B0C8808080052B
:10239000050506000078807008F0050707060000B4
:1023A0002020F820202018050505060000888888D0
:1023B00098680505050600008888885020050505F1
:1023C0000600008888A8A85005050506000088506A
:1023D0002050880507070600FE8888885020408026
:1023E000050505060000F8102040F803090906015C
:1023F000FF2040404080404040200109090602FF84
:102400008080808080808080800309090601FF80B1
:10241000404040204040408005030306000248A899
:1024200090FF43616E6E6F74206F70656E207375E0
:1024300062646972200053442063617264206F6B90
:102440000A006F70656E526F6F74206661696C650B
:10245000640A00766F6C756D652E696E697420660E
:1024600061696C65640A004E6F2053442063617299
:10247000640A000A4D3234004D3233202573002E99
:102480000A006F70656E206661696C65642C204679
:10249000696C653A200046696C652073656C6563FC
:1024A0007465640A002053697A653A200046696CB5
:1024B00065206F70656E65643A2000454E44205378
:1024C0005542524F5554494E450A002220706F73B1
:1024D000002220706172656E743A22005355425298
:1024E0004F5554494E452043414C4C20746172670E
:1024F00065743A220053756263616C6C204F766597
:1025000072666C6F77004578636565646564206DFD
:10251000617820535542524F5554494E45206465C9
:102520007074683A0057726974696E6720746F201E
:1025300066696C653A2000667265736800646F694D
:102540006E67002066696C653A20004E6F77200048
:102550002F6175746F25632E670070012C01900147
:102560002701B0012201C0011D01F0011801100274
:10257000130130020E016002090190020401C00241
:10258000FF000003FA004003F5008003F000D003D1
:10259000EB002004E6007004E100E004DC004005EC
:1025A000D700C005D2004006CD00D006C800800785
:1025B000C3003008BE00F008B900C009B400B00A7A
:1025C000AF00B00BAA00D00CA500000EA000500F69
:1025D0009B00C01096005012910000148C00C01592
:1025E0008700B0178200B0197D00D01B7800001E54
:1025F000730040206E0090226900F02464004027A0
:102600005F0090295A00E02B5500102E500020301A
:102610004B0010324600E033410090353C0010374B
:10262000370070383200A0392D00B03A2800A03BA6
:102630002300603C1E00103D1900903D1400103E28
:102640000F00703E0A00C03E0500003F0000403F02
:10265000FBFF803FF6FFC03FF1FF2020506C616E12
:102660006E657242756666657242797465733A206A
:10267000002046726565204D656D6F72793A2000C5
:1026800020436F6D70696C65643A2041707220322E
:102690003820323032320A00204C61737420557079
:1026A00064617465643A20323032322D30342D301A
:1026B00033207C20417574686F723A2054696E79BA
:1026C0004D616368696E657333440A004D61726CD5
:1026D000696E20322E302E395F4457372E342E3615
:1026E0000A0020536F6674776172652052657365C6
:1026F000740A00205761746368646F6720526573C1
:1027000065740A002042726F776E206F75742052D4
:10271000657365740A002045787465726E616C207B
:1027200052657365740A00506F77657255700A00C0
:1027300073746172740A004739310A47315A350A95
:102740004739300A4D38340A4D31303453300A4D50
:102750003134305330004D31303031006F6B006513
:1027600072726F722077726974696E6720746F205D
:1027700066696C650A00446F6E6520736176696EE8
:10278000672066696C652E0A00456E6473746F700D
:1027900073002553202563202563202563202563AE
:1027A00000205A3A0020593A0020583A00656E64D9
:1027B00073746F7073206869743A20000000210000
:1027C000240027002A0000002200250028002B00FA
:1027D000000020002300260029000202020202025B
:1027E00002020404040404040404030303030303B3
:1027F000030301010101010101010102040810208C
:1028000040800102040810204080010204081020CA
:1028100040808040201008040201004D6F76652042
:1028200025736D6D004D6F766520302E316D6D0016
:102830004D6F766520316D6D004D6F7665203130BE
:102840006D6D004D6F76652041786973004D6F7630
:1028500065204578747275646572004D6F766520E9
:102860005A004D6F76652059004D6F7665205800EF
:102870005072696E742066726F6D204D6564696177
:1028800000FFFFFF220A00556E6B6E6F776E2063AC
:102890006F6D6D616E643A2022004572726F722016
:1028A00077726974696E6720746F20454550524F86
:1028B0004D210A004D6564696120496E736572742B
:1028C000656400486F74656E642049646C652054CB
:1028D000696D656F757400486F74656E6420496436
:1028E0006C652054696D656F75740A002121204B59
:1028F000494C4C2063617573656420627920746F64
:102900006F206D75636820696E61637469766520F8
:1029100074696D65202D2063757272656E74206315
:102920006F6D6D616E643A200053544F50504544B2
:102930002E20005072696E7465722073746F70700F
:1029400065642064756520746F206572726F7273A0
:102950002E2046697820746865206572726F722037
:10296000616E6420757365204D39393920746F208C
:10297000726573746172742E202854656D7065726F
:1029800061747572652069732072657365742E2099
:102990005365742069742061667465722072657372
:1029A00074617274696E67290A004E6F204368650E
:1029B000636B73756D2077697468206C696E652030
:1029C0006E756D6265722C204C617374204C696E5B
:1029D000653A20004D3239004E6F20436865636BC5
:1029E00073756D2077697468206C696E65206E75EB
:1029F0006D6265722C204C617374204C696E653A6F
:102A00002000636865636B73756D206D69736D611C
:102A10007463682C204C617374204C696E653A2095
:102A2000004C696E65204E756D6265722069732079
:102A30006E6F74204C617374204C696E65204E7506
:102A40006D6265722B312C204C617374204C696E61
:102A5000653A20004D3131300053657269616C2058
:102A6000737461747573206D69736D617463680A42
:102A70000053442072656164206572726F720A00AF
:102A800020746F6F206C6F6E672065787472757339
:102A9000696F6E2070726576656E7465640A0020D9
:102AA000636F6C6420657874727573696F6E2070E3
:102AB000726576656E7465640A00486F6D652025E1
:102AC00073257325732046697273740020453A009C
:102AD000205A3A0020593A00583A006F6B0A0052C7
:102AE0006573656E643A2000000000010200090A67
:102AF00000000000040308070000000000000000C0
:102B00000000000000000000544D334420456E6476
:102B10006572332052656164792E005072696E745B
:102B2000696E672E2E2E005072696E74205061758A
:102B3000736564002F2F616374696F6E3A00C5D9A5
:102B400060E011241FBECFEFD0E4DEBFCDBF84B75D
:102B50008093D91814BE0FB6F894A89580916000A0
:102B6000886180936000109260000FBE12E0A0E0C8
:102B7000B1E0EAE0FDED01E00BBF02C007900D926D
:102B8000A037B107D9F728E1A0E7B2E001C01D9254
:102B9000A93DB207E1F715E1C0EAD5E104C02197EC
:102BA000FE010E94E7EBCF39D107C9F70E949CDAFA
:102BB0000C9478EE0C9400000F931F93CF93DF9347
:102BC000CDB7DEB760970FB6F894DEBF0FBECDBFAE
:102BD0008C01DC01ED91FC910280F381E02DBE01BE
:102BE0006F5F7F4F0995882309F464C08981807CD9
:102BF000C9F56F81637070E0762F6627770F770FC6
:102C00008885B4E08B9FC0011124682B792B8985BE
:102C10008295869586958370682B6F5F7F4F90E0D5
:102C200080E02A852370220F3B8537FB332730F95C
:102C3000232B3E813F70230F3327331F2750310949
:102C400004C0660F771F881F991F2A95D2F76096D8
:102C50000FB6F894DEBF0FBECDBFDF91CF911F91AD
:102C60000F910895803419F568856695669570E032
:102C700090E080E0CB01772766272A85622B0985C3
:102C800010E0102F0027012E000C220B330B602BBD
:102C9000712B822B932B6F5F7F4F8F4F9F4F4AE09B
:102CA000660F771F881F991F4A95D1F7D0CF8BE009
:102CB000F801848360E070E0CB01C9CF0895FC0186
:102CC00082810895CF93DF93C091FE06D091FF06D5
:102CD00081E0CE31D105E4F020E030E040E05FE378
:102CE0006091FA067091FB068091FC069091FD06BA
:102CF0000E94F9EB0E94EEEC6C1B7D0B77FF03C08A
:102D000071956195710981E0633071050CF080E087
:102D1000DF91CF910895FC0190E1ADEEB3E0019019
:102D20000D929A95E1F70895CF92DF92EF92FF927C
:102D30008091BD02882309F457C0C090B902D09099
:102D4000BA02E090BB02F090BC0220E030E0A901A2
:102D5000C701B6010E9402E5882309F445C020E0BE
:102D600030E040E05FE3C701B6010E9468E59B01E7
:102D7000AC010E9468E52BED3FE049E450E40E947D
:102D800068E59B01AC0160E070E080E89FE30E9491
:102D90007CEC6B017C01C092A302D092A402E09271
:102DA000A502F092A60260910E0170910F01072E0C
:102DB000000C880B990B0E9409E52AE037ED43E2ED
:102DC0005CE30E9468E5A70196010E9468E56093B4
:102DD0005E0170935F018093600190936101FF90A9
:102DE000EF90DF90CF900895C12CD12C80E8E82E91
:102DF0008FE3F82ED0CFFC017081472F50E0062ED4
:102E000002C0559547950A94E2F740FF14C04091DF
:102E1000860350E0062E02C0559547950A94E2F7C6
:102E200040FF09C021E030E001C0220F6A95EAF7B7
:102E300020952723208308958F929F92AF92BF926F
:102E4000CF92DF92EF92FF92CF93FC01C080D180AE
:102E5000E280F38020E030E040E251E4C701B601B7
:102E60000E9468E520E030E04AE754E40E9468E50B
:102E70004B015C0120E030E0A901C701B6010E94CE
:102E800002E520E030E040EA50E487FF04C020E0A3
:102E900030E040EA50ECC501B4010E94F9EB20E0BB
:102EA00030E040E251E40E947CEC0E94EEEC6B01C9
:102EB0007C018BE2F7FE09C0F094E094D094C094BA
:102EC000C11CD11CE11CF11C8DE280937B02C70167
:102ED000B60120E137E240E050E00E94C8EB8AE012
:102EE000882E912CA12CB12CCA01B901A501940105
:102EF0000E94C8EB605D60937C02C701B60128EEBA
:102F000033E040E050E00E94C8EBCA01B901A501DE
:102F100094010E94C8EB605D60937D028EE2809315
:102F20007E02C701B60124E630E040E050E00E9496
:102F3000C8EBCA01B901A50194010E94C8EB605D0C
:102F400060937F02C701B601A50194010E94C8EBFE
:102F5000C62FCA01B901A50194010E94C8EB605DAA
:102F600060938002C05DC09381028BE792E0CF91B5
:102F7000FF90EF90DF90CF90BF90AF909F908F9099
:102F800008958F929F92AF92BF92CF92DF92EF926D
:102F9000FF92CF93C62FFC01C080D180E280F380E6
:102FA00020E030E040E251E4C701B6010E9468E54C
:102FB00020E030E04AE754E40E9468E54B015C0100
:102FC00020E030E0A901C701B6010E9402E520E03F
:102FD00030E040EA50E487FF04C020E030E040EAFF
:102FE00050ECC501B4010E94F9EB20E030E040E272
:102FF00051E40E947CEC0E94EEEC6B017C01C11458
:10300000D104E104F10409F456C0F7FE09C0F094BC
:10301000E094D094C094C11CD11CE11CF11CCDE201
:10302000C0937C02C701B60128EE33E040E050E0D7
:103030000E94C8EB8AE0882E912CA12CB12CCA01E9
:10304000B901A50194010E94C8EB605D60937D0207
:103050008EE280937E02C701B60124E630E040E0B4
:1030600050E00E94C8EBCA01B901A50194010E9479
:10307000C8EB605D60937F02C701B601A5019401B2
:103080000E94C8EBC62FCA01B901A50194010E9494
:10309000C8EB605D60938002C05DC09381028CE7E5
:1030A00092E0CF91FF90EF90DF90CF90BF90AF90E4
:1030B0009F908F900895C0E2B3CF8F929F92AF926E
:1030C000BF92CF92DF92EF92FF92FC01C080D1803D
:1030D000E280F38020E030E040E251E4C701B60135
:1030E0000E9468E520E030E040E251E40E9468E59B
:1030F0004B015C0120E030E0A901C701B6010E944C
:1031000002E520E030E040EA50E487FF04C020E020
:1031100030E040EA50ECC501B4010E94F9EB20E038
:1031200030E040E251E40E947CEC0E94EEEC9B0116
:103130008BE237FF05C022273327261B370B8DE292
:1031400080937C02C90168EE73E00E94B4EBCB016E
:10315000EAE0F0E0BF010E94B4EB805D80937D0265
:10316000C90164E670E00E94B4EBCB01BF010E948C
:10317000B4EB805D80937E02C901BF010E94B4EB75
:10318000282FCB01BF010E94B4EB805D80937F02AA
:103190008EE280938002205D209381028CE792E092
:1031A000FF90EF90DF90CF90BF90AF909F908F9067
:1031B0000895282F81E3243609F080E280937E026F
:1031C00090E22A3040F03AE0822F632F0E9486EB93
:1031D0000E9486EB905D90937F02822F6AE00E94AE
:1031E00086EB905D9093800285E2809381028EE76A
:1031F00092E0089560910E0170910F01072E000C6E
:10320000880B990B0E9409E52AE037ED43E25CE365
:103210000E9468E52091A3023091A4024091A5028A
:103220005091A6020E9468E560935E0170935F0171
:1032300080936001909361010895CF93DF93EC0137
:10324000CB01BA010E9409E529EC38EC48EC5EE3B9
:103250000E947CEC20E030E040E05FE30E94F9EB6C
:103260000E94F5EC6883DF91CF9108950E9409E5F3
:1032700029EC38EC48EC5EE30E947CEC20E030E086
:1032800040E05FE30E94F9EB0E94F5EC24E6629FC8
:10329000C001112481589F4F6FEF70E00E94B4EB82
:1032A000862F0C94D918CF93DF93EC01CB01BA0190
:1032B0000E9409E50E94EEEC79836883DF91CF914B
:1032C00008958091DA06811104C08091A30680934D
:1032D000400708958091A7178823C1F081508093FB
:1032E000A717E2E0F6E1882351F08150990B2BE11A
:1032F000289FF001299FF00D1124E756F94E8BE12C
:10330000A7EEB5E101900D928A95E1F72091A717FC
:10331000211105C08091B11780648093B11781E0BD
:1033200090E0A0E0B0E0211103C080E090E0DC017B
:103330008093D0069093D106A093D206B093D30683
:103340001092CB0681E08093CD0683E080935701F5
:1033500008958F929F92AF92BF92CF92DF92EF9299
:10336000FF92CF936B017C0120E030E0A9010E9425
:1033700002E587FDC3C06DEB77E386E095E3A70127
:1033800096010E94F9EB6B017C0120E030E0A9017D
:103390000E9402E587FFB7C0C701B601905820E040
:1033A00030E040E251E40E9468E520E030E040E295
:1033B00051E40E9468E520E030E040EA50E40E94D9
:1033C000F9EB20E030E040E251E40E947CEC0E9406
:1033D000EEEC6B017C0160E280EAC81686E8D80654
:1033E00081E0E806F1048CF0C701B60120EA36E876
:1033F00041E050E00E94C8EBCA01B9012AE030E088
:1034000040E050E00E94C8EB605D60937B0260E2A8
:1034100080E1C81687E2D806E104F1048CF0C70108
:10342000B60120E137E240E050E00E94C8EBCA015B
:10343000B9012AE030E040E050E00E94C8EB605D56
:1034400060937C0260E288EEC81683E0D806E1044F
:10345000F1048CF0C701B60128EE33E040E050E003
:103460000E94C8EBCA01B9012AE030E040E050E018
:103470000E94C8EB605D60937D0260E284E6C8163E
:10348000D104E104F1048CF0C701B60124E630E078
:1034900040E050E00E94C8EBCA01B9012AE030E0E8
:1034A00040E050E00E94C8EB605D60937E028AE0DD
:1034B000882E912CA12CB12CC701B601A501940135
:1034C0000E94C8EBC62FCA01B901A50194010E9450
:1034D000C8EB605D60937F028EE280938002C05DE6
:1034E000C09381028BE792E0CF91FF90EF90DF9045
:1034F000CF90BF90AF909F908F9008956DEB77E342
:1035000086E095EB3CCF20E030E040E251E4C7019B
:10351000B60149CFCF93DF93EC01CB01BA010E94F2
:1035200009E520E030E040E251E40E947CEC688351
:1035300079838A839B83DF91CF9108950E9409E567
:1035400020E030E040E251E40E947CEC0C94A919A8
:10355000CF93DF93EC01CB01BA010E9409E520E093
:1035600030E04AE754E40E947CEC688379838A83E4
:103570009B83DF91CF910895CF92DF92EF92FF92DC
:10358000CF93DF9300D000D0CDB7DEB70E9409E51E
:1035900020E030E04AE754E40E947CEC6B017C01BF
:1035A00020E030E0A9010E9402E52DEB37E346E080
:1035B00055E387FF04C02DEB37E346E055EBC70129
:1035C000B6010E94F9EB69837A838B839C8360E266
:1035D000CE0101960E94C1170F900F900F900F908F
:1035E000DF91CF91FF90EF90DF90CF900895809181
:1035F000321690913316891B8F7089F4809197153C
:10360000813069F09091B11792FB882780F992FF81
:1036100007C097FB882780F991E08927089581E00A
:103620000895CF93DF93C091FE06D091FF062097B7
:1036300029F16091FA067091FB068091FC06909149
:10364000FD060E94EEEC6E5F7F4F24976C177D079E
:10365000ACF470931904609318040E942AB9605A5C
:1036600075418F4F9F4F60931A0470931B04809392
:103670001C0490931D04DF91CF91089510921A04B9
:1036800010921B0410921C0410921D04F4CF0C9491
:10369000111BCF93DF93EC018D810E94628B60E060
:1036A0008B81DF91CF910C9457B7DF92EF92FF920D
:1036B0000F931F93CF93DF938C01C62FD22FF32E3E
:1036C000E42ED52E0E94491B0E9486B98C2F80645F
:1036D0000E94568B8D2D0E94568B8E2D0E94568BEC
:1036E0008F2D0E94568B8D2F0E94568B87E8C1111B
:1036F00001C085E90E94568BCC3011F40E945B8B8F
:10370000C0E00E945B8BF801868387FF04C0CF3F37
:1037100011F0CF5FF6CFDF91CF911F910F91FF9006
:10372000EF90DF90089561E0FC0183810E9457B71C
:103730008FEF0C94568B0F931F93CF938C010E94A5
:10374000491B0E9486B9C82F882371F08DEF0E9413
:10375000568B0E9486B9C82FC8010E94931B8C2FDC
:10376000CF911F910F91089582E1F8018483F4CFE6
:103770008F929F92AF92BF92CF92DF92EF92FF9281
:103780000F931F93CF93DF93EC016A017B015901E3
:1037900020E030E0A90167E30E94551BA5019801D4
:1037A00067E1CE010E94551B811127C08F818330B4
:1037B00039F089E0CC0CDD1CEE1CFF1C8A95D1F79A
:1037C000A701960169E1CE010E94551B11E08823F3
:1037D00019F010E087E08C83CE010E94931B812FAB
:1037E000DF91CF911F910F91FF90EF90DF90CF90DD
:1037F000BF90AF909F908F90089589E08C8310E0E8
:10380000EBCFCF93DF93EC016EBDFA01CA019E5F4F
:103810000DB407FEFDCF20812EBD0DB407FEFDCFF8
:1038200021812EBD3296E817F90791F70DB407FEF6
:10383000FDCF8FEF0E94568B8FEF0E94568B0E9418
:103840005B8B8E838F71853049F083E18C83CE0151
:103850000E94931B80E0DF91CF91089581E0FBCF20
:103860000F931F93CF93DF93EC018B010E94491BB1
:103870000E9486B981110CC085E18C8310E0CE01D5
:103880000E94931B812FDF91CF911F910F9108957B
:10389000A8016CEFCE010E94011C182F882361F350
:1038A000EECF0F931F93CF93DF93EC0189018F81AC
:1038B000833039F089E0440F551F661F771F8A95C2
:1038C000D1F79A01AB0168E1CE010E94551B81112D
:1038D0002AC0A8016EEFCE010E94011C182F882378
:1038E000B1F00E9486B9182F8823D1F020E030E093
:1038F000A9016DE0CE010E94551B882321F086E1CD
:103900008C8310E004C00E945B8B8111F8CFCE0144
:103910000E94931B812FDF91CF911F910F910895EA
:1039200087E18C83F4CF86E0EBCF1F93CF93DF93B7
:10393000EC010E94491B20E030E0A9016CE0CE01BF
:103940000E94551B11E0882319F010E083E08C835E
:10395000CE010E94931B812FDF91CF911F9108957B
:103960001F93CF93DF93EC018F81833039F089E08F
:10397000440F551F661F771F8A95D1F79A01AB0137
:1039800062E1CE010E94551B11E0882319F010E07E
:1039900085E08C83CE010E94931B812FDF91CF9114
:1039A0001F9108958F929F92AF92BF92EF92FF92D4
:1039B0000F931F93CF93DF938C01EB017A010E9449
:1039C0002AB94B015C012CE2820E21E0921EA11C5F
:1039D000B11C0E945B8BF80186838F3F69F40E94C3
:1039E0002AB9681979098A099B0997FDF2CF81E103
:1039F000F8018483C0E021C08E3F71F5F1E0EF1A39
:103A0000F1088FEF8EBDFE012FEF0DB407FEFDCF45
:103A10008EB581932EBDCF018C1B9D0B8E159F05FE
:103A2000A0F30DB407FEFDCF8EB5CE0DDF1D88834C
:103A30000E945B8B0E945B8BC1E0C8010E94931BBC
:103A40008C2FDF91CF911F910F91FF90EF90BF903E
:103A5000AF909F908F9008958FE0CACF0F931F93E0
:103A6000CF93DF93EC018B010E94491B40E052E0B1
:103A7000B801CE01DF91CF911F910F910C94D21C10
:103A80000F931F93CF93DF93EC0189018F818330D4
:103A900039F089E0440F551F661F771F8A95D1F7CB
:103AA0009A01AB0161E1CE010E94551B81110AC050
:103AB00040E052E0B801CE01DF91CF911F910F910C
:103AC0000C94D21C84E08C83CE010E94931B80E076
:103AD000DF91CF911F910F9108958F929F92AF9296
:103AE000BF92CF92DF92EF92FF920F931F93CF93EB
:103AF000DF93EC01162F1F821C824B830E942AB990
:103B00006B017C0120EDC20E27E0D21EE11CF11CEE
:103B1000A89561E08B810E9457B761E08B810E947C
:103B200038B8249A279A2698259A81E00E94628BB9
:103B300085E08D830E94628B0AE08FEF0E94568B96
:103B40000150D9F7A89520E030E0A90160E0CE014E
:103B50000E94551B8E83813081F00E942AB96C1916
:103B60007D098E099F0997FDEECF81E08C83CE0100
:103B70000E94931B1A8280E06AC0A8952AEA31E06D
:103B800040E050E068E0CE010E94551B853041F5D1
:103B900081E08F83A8958F81812C912C54018230F4
:103BA00029F4812C912CA12C80E4B82E20E030E067
:103BB000A90167E3CE010E94551BA501940169E2AA
:103BC000CE010E94551B8E838823F1F00E942AB9F2
:103BD0006C197D098E099F0997FDE8CF8AE0C6CF51
:103BE00004E00E945B8B8E830150D9F78A3A11F46E
:103BF00082E0CFCF0E942AB96C197D098E099F09F6
:103C000097FDBCCF82E0B2CF8F818230C1F420E03B
:103C100030E0A9016AE3CE010E94551B882311F010
:103C200088E0A4CF0E945B8B807C803C11F483E011
:103C30008F830E945B8B0E945B8B0E945B8BCE010B
:103C40000E94931B81E08A83173070F41D83DF91FB
:103C5000CF911F910F91FF90EF90DF90CF90BF9089
:103C6000AF909F908F90089588E18C8384CF0F93BD
:103C70001F93CF93DF93EC018B0120E030E0A9018B
:103C800069E00E94551B81110AC040E150E0B80173
:103C9000CE01DF91CF911F910F910C94D21C80E146
:103CA0008C83CE010E94931B80E0DF91CF911F9106
:103CB0000F910895CF93C82FCB010E94797F8EE397
:103CC00096E00E94797F8FE296E0CC2311F084E3A6
:103CD00096E00E94797F8AE0CF910C94687F909162
:103CE000A70281E089270C94CE734091220321E042
:103CF00042276CE070E00C94ECB34091220321E089
:103D0000422764E070E00C94ECB34091220321E080
:103D1000422761E070E00C94ECB34091220321E073
:103D2000422761E070E00C94ECB34091220321E063
:103D3000422768E070E00C94ECB34091220321E04C
:103D400042276CE070E00C94ECB341E061E070E07D
:103D50000C94ECB34091220321E042270C94ECB385
:103D60006CE070E00C94C2B864E070E00C94C2B8EF
:103D700061E070E00C94C2B861E070E00C94C2B8ED
:103D80006CE070E00C94C2B8CF93DF938091321650
:103D900090913316891B80958F7019F40E9487C506
:103DA000F5CF809132168F5F8F70A09132169BE411
:103DB000A99FD0011124FD01ED5AF84FEF0119928E
:103DC0009A95E9F798E09083A859B84F90E1E4E319
:103DD000F6E101900D929A95E1F7209132169091BB
:103DE0003316291303C094E690932F16809332164E
:103DF000DF91CF910C94A27620E030E0A901BC01C4
:103E00008CE49CE00C9439D7CF93DF93CDB7DEB729
:103E100020E24F8158856E818D810E94A1B4DF918F
:103E2000CF9108956091A3068FEF0C943DC58091CA
:103E3000A306682F0C943DC56FEF8091A3060C94E8
:103E40003DC56FEB7FE482E00C9471D764EC7FE4B6
:103E500081E00C9471D769EC7FE480E00C9471D719
:103E60006DEF74E583E00C9471D70F931F9307E314
:103E700015E029E335E044EC59E469E475E08EE4AB
:103E800095E00E9423BC1F910F9108950F931F93FB
:103E900008E514E02BEE34E040E253E66AE574E016
:103EA0008FE594E00E9423BC1F910F91089510921A
:103EB000CB060C947EC04FE350E064E674E082E6EB
:103EC00096E00C945EEE80915701882341F060915A
:103ED0006A0370916B0341E081E00C943CB4089557
:103EE000CF9380916C15C1E08823C9F080916D1546
:103EF00090916E154091641550916515609166150D
:103F000070916715DC01ED91FC910288F389E02D39
:103F100024E633E10995C82F811104C0C0E08C2F3D
:103F2000CF910895409168155091691560916A1577
:103F300070916B154115510561057105B9F08091BE
:103F40006D1590916E15DC01ED91FC910288F3895D
:103F5000E02D24E633E10995882301F310926815DA
:103F60001092691510926A1510926B1510926C15CB
:103F7000D6CFCF92DF92EF92FF92CF936B017C016D
:103F8000C42F8091641590916515A0916615B0912C
:103F900067158C159D05AE05BF0529F10E94701FA0
:103FA000811108C0C0E08C2FCF91FF90EF90DF907F
:103FB000CF90089580916D1590916E15DC01ED9173
:103FC000FC910088F189E02D24E633E1B701A601D8
:103FD0000995882339F3C0926415D0926515E09253
:103FE0006615F0926715CC2321F081E080936C1563
:103FF000DACFC1E0D8CFCF92DF92EF92FF920F934A
:104000001F93CF93DF93FC0181859285A385B485AF
:104010000196A11DB11D84179507A607B70750F497
:1040200080E0DF91CF911F910F91FF90EF90DF9093
:10403000CF90089587898031A9F5BB27A72F962FA8
:10404000852FC388D488E588F6888C0D9D1DAE1D0C
:10405000BF1DE9016A017B018F01409164155091F8
:104060006515609166157091671584179507A60709
:10407000B70749F5F8018789803169F5B701A601CD
:10408000552766277727440F551F4C595C4EFA0178
:1040900080819181B0E0A0E088839983AA83BB836B
:1040A00081E0BFCF803209F0BBCFC388D488E588D8
:1040B000F688DB01CA01C7E0B695A7959795879565
:1040C000CA95D1F7C2CF40E0BC01CD010E94B91F13
:1040D0008111D0CFA5CFB701A6014F77552766270D
:1040E0007727440F551F440F551F4C595C4EFA015A
:1040F00080819181A281B381BF70CECF4F925F92B8
:104100006F927F92AF92BF92CF92DF92EF92FF9227
:104110000F931F93CF93DF9300D000D0CDB7DEB7BE
:104120008C0149835A836B837C835901C12CD12C28
:104130007601412C82E0582E612C712C49815A81E4
:104140006B817C819E012F5F3F4FC8010E94FB1F46
:10415000882319F1F8018585A301920104C0220F7B
:10416000331F441F551F8A95D2F7DA01C901C80EC3
:10417000D91EEA1EFB1E49815A816B817C81878989
:104180008031F1F481E0483F5F4F61057105B0F285
:10419000F501C082D182E282F3820F900F900F90DE
:1041A0000F90DF91CF911F910F91FF90EF90DF90D3
:1041B000CF90BF90AF907F906F905F904F90089599
:1041C00081E0483F5F4F6F4F7F4008F4B7CFE0CFAB
:1041D0008F929F92AF92BF92CF92DF92EF92FF9217
:1041E0000F931F93CF93DF93EC018B8181110EC04E
:1041F00080E0DF91CF911F910F91FF90EF90DF90C2
:10420000CF90BF90AF909F908F90089509891A89A1
:104210002B893C89041715072607370748F34A01FD
:104220005B01823031F488869986AA86BB8681E05C
:10423000E0CF81149104A104B10449F418861986D1
:104240001A861B861C821D821E821F82F0CF088563
:1042500019852A853B85E98DFA8D858590E009963B
:10426000B901A8014150510961097109082E04C022
:1042700076956795579547950A94D2F7750164012D
:10428000E1E0CE1AD108E108F10804C0F694E79401
:10429000D794C7948A95D2F7C416D506E606F706D2
:1042A00020F0012B022B032B11F58D899E89AF89FC
:1042B000B88D8C839D83AE83BF838E010C5F1F4FAF
:1042C000C114D104E104F10409F4ADCF4C815D8146
:1042D0006E817F819801898D9A8D0E94FB1F91E0EC
:1042E000C91AD108E108F1088111EACF81CFC41AB7
:1042F000D50AE60AF70AE1CF2F923F924F925F92DA
:104300006F927F928F929F92AF92BF92CF92DF92E5
:10431000EF92FF920F931F93CF93DF93EC014B012A
:104320007A018B81811115C08FEF9FEFDF91CF91C3
:104330001F910F91FF90EF90DF90CF90BF90AF90C3
:104340009F908F907F906F905F904F903F902F90B5
:104350000895898180FFE8CF89899A89AB89BC89D2
:10436000488559856A857B85841B950BA60BB70B01
:10437000A70170E060E084179507A607B70708F467
:104380007C0167011E0124E0220E311CC114D104FE
:1043900009F4A9C0488559856A857B855A0181E061
:1043A000B822898D9A8D2A013B0129E07694679481
:1043B000579447942A95D1F72B81FC01223081F53F
:1043C000628D738D848D958D640D751D861D971D71
:1043D00000E012E00A191B09C016D10608F4860194
:1043E0000115E2E01E0771F44090641550906515C8
:1043F00060906615709067156415750586059705BC
:1044000009F04EC040E00E94B91F882309F48CCF08
:10441000B5016C597C4EA801C4010E941BEE52C02C
:10442000148111501421A114B10471F411110CC0A4
:10443000452B462B472B51F58D899E89AF89B88D29
:104440008C839D83AE83BF83E98DFA8D4C805D8024
:104450006E807F8022E0421A5108610871088585CC
:1044600004C0440C551C661C771C8A95D2F78685BF
:104470009785A089B189480E591E6A1E7B1EC3010B
:10448000B201610F711D811D911DA2CF4C815D8113
:104490006E817F8191010E94FB1F8111D5CF44CF96
:1044A000A0916D15B0916E15ED91FC91119700885A
:1044B000F189E02D9401AB01BC01CD010995882360
:1044C00009F432CF800E911E88859985AA85BB8517
:1044D000800F911FA11DB11D88879987AA87BB876F
:1044E000C01AD10A53CFC70121CF0F931F93CF9387
:1044F000DF93FC012381222331F080E0DF91CF9113
:104500001F910F9108958B01EC01FB018789803188
:1045100039F582E08B831D8A1E8A1F8A188E808D52
:10452000918DB0E0A0E025E0880F991FAA1FBB1F66
:104530002A95D1F7898B9A8BAB8BBC8B1A8F098FFD
:1045400081E08983188619861A861B861C821D8243
:104550001E821F82188A1C861D861E861F86CECF4D
:10456000803259F683E08B83428D538D648D758D37
:104570004D8B5E8B6F8B788F9E012F5E3F4FC801F6
:104580000E947E208111DACFB8CFCF93DF93EC0168
:10459000462F41706C857D858E859F850E94B91F51
:1045A000882351F0888920E2829FC00111248C5910
:1045B0009C4EDF91CF91089590E080E0FACFCF93A9
:1045C000DF93EC018B81882349F1898187FF22C029
:1045D00061E0CE010E94C522FC01892BF9F08081A7
:1045E000853EE1F08B81823040F489899A89AB89DC
:1045F000BC89848F958FA68FB78F8D899E89938F65
:10460000828F8D899E89AF89B88DB58BA48B898166
:104610008F778983DF91CF910C94701F81E088831D
:1046200080E0DF91CF910895CF93DF93EC010E945A
:10463000DF221B82DF91CF910895CF93DF93EB01AF
:10464000FC012381211104C080E0DF91CF91089506
:104650002250223028F48FE28883198281E0F5CF3E
:1046600060E00E94C522009779F3DC0160E080E001
:104670009EE22D91203299F0883031F49E01260F70
:10468000311DF90190836F5F9E01260F311DAD0131
:1046900041505109FA014081F90140836F5F8F5FFA
:1046A0008B3039F7FE01E60FF11D1082D7CF3F9214
:1046B0004F925F926F927F928F929F92AF92BF9232
:1046C000CF92DF92EF92FF920F931F93CF93DF93DE
:1046D000CDB7DEB72C970FB6F894DEBF0FBECDBFB7
:1046E0005C01DC0159968D909C90F4018185928546
:1046F000A385B4859C01AD012F5F3F4F4F4F5F4FA6
:1047000029873A874B875C87D50114964D905D9039
:104710006D907C901797411451046104710409F461
:1047200059C0BFEF4B1A5B0A6B0A7B0A312C73012D
:1047300062011D821E821F821886F4018185928586
:10474000A385B4852D813E814F815885281739076F
:104750004A075B0708F056C089859A85AB85BC85FA
:104760008C159D05AE05BF0550F482E0C82ED12CF6
:10477000E12CF12C92E0492E512C612C712C9E01E0
:104780002F5F3F4FB701A601C4010E94FB1F882382
:10479000C9F189819A81AB81BC81892B8A2B8B2BB2
:1047A00001F1260137019FEF491A590A690A790A6E
:1047B0002D813E814F8158852F5F3F4F4F4F5F4F77
:1047C0002D833E834F8358873FEFC31AD30AE30AF2
:1047D000F30AB3CF408051806280738033243394D6
:1047E000A6CFC414D504E604F70411F70FEF1FEFAA
:1047F0002FEF3FE0B701A601C4010E9417C4782E35
:1048000081111AC0712C872D2C960FB6F894DEBF3B
:104810000FBECDBFDF91CF911F910F91FF90EF9011
:10482000DF90CF90BF90AF909F908F907F906F90D0
:104830005F904F903F900895F501448155816681C6
:104840007781411551056105710539F097018601A0
:10485000C4010E9417C48823A9F2D5011496CD92F1
:10486000DD92ED92FC921797332051F0D701C601EB
:104870000196A11DB11DF40180839183A283B383AE
:10488000F50185899689A789B08D892B8A2B8B2B79
:1048900009F0B9CFC58AD68AE78AF08E818180680F
:1048A0008183B1CF40E050E0BA010C94E820FC01D4
:1048B000238121110C94142308952F923F924F923B
:1048C0005F926F927F928F929F92AF92BF92CF92A0
:1048D000DF92EF92FF920F931F93CF93DF93CDB7A9
:1048E000DEB7C454D1090FB6F894DEBF0FBECDBFFA
:1048F0007C014B015A01222E19821C821C8E1F8EB4
:104900006115710511F410E0B3C1DC0113968C91AF
:104910008111F9CFFA0180818B018F32D1F4DB0153
:1049200013968C9113978250823060F059966D9156
:104930007C91CE014C960E9475228E01045E1F4F21
:10494000882309F3C5015C010196F50120812F320E
:10495000D1F39E012F5F3F4F6901290130E2332ED1
:104960002496CFAE24972596DFAE25973E013CE1F5
:10497000630E711C22963FAE229721963FAE21977F
:104980003FAE3EAE3DAE3CAE3BAE3AAE39AE38AEDB
:104990003FAA950190E047E0D9018D91882361F10C
:1049A0008F3251F18E3239F44A3009F4ACCF98E0AD
:1049B0004AE09D01F1CFE5EEF0E12491222321F0C0
:1049C00031968213FACF9FCF491708F49CCF8132DA
:1049D00008F499CF8F3709F496CF3FE9380F3A3171
:1049E00008F420EEE7E3F0E0EC0FFD1FE90FF11D06
:1049F000820F80839F5FDDCF8FA9803209F483CF40
:104A00005901D9018C912F5F3F4F8F32C9F3882311
:104A1000A9F00815190519F0C8010E94142324965D
:104A20009FAD249725968FAD25974C145D0411F406
:104A3000962D872D8601C92ED82E9CCFF801818D09
:104A4000928DD7015A969C938E935997C8010E94D4
:104A50005224C12CF80180859185A285B3854189B6
:104A600052896389748984179507A607B70708F0E8
:104A700053C025E0B695A795979587952A95D1F7C8
:104A8000F82FFF70DF2ED80113968C91823008F436
:104A90003ACF41E050E0BE016E5B7F4FC8010E94FB
:104AA0007C21019709F02FCFF80180859185A2859F
:104AB000B3854F96A11DB11D80879187A287B387CB
:104AC000F0E2DF9EB00111246C597C4E6115710536
:104AD00009F419CFDB018C91882341F0853E09F060
:104AE0004DC0CC2029F0CC24C394B4CFC1100EC04B
:104AF0008091641590916515A0916615B091671528
:104B0000F70184879587A687B787D08ADB018C91C8
:104B10008111E9CFCC24C394822D8274823409F0B0
:104B2000F2CECC2009F4C7C0F701D08861E0C701FC
:104B30000E94C522009709F4E6CE20E2DC011D9216
:104B40002A95E9F72BE0FE01F796DC0101900D9222
:104B50002A95E1F721E238E2FC01318B208B40E01D
:104B600058E057874687338B228B318F208F578BA6
:104B7000468B0E94701F81110AC0C5CE4BE050E0E9
:104B8000CE01C7960E940EEE892B09F063CF2D2D22
:104B900030E0F901B5E0EE0FFF1FBA95E1F7DF0154
:104BA000AC59BC4E1B968C91817121F0822D827183
:104BB00009F020C1D70159968D919C915A97409147
:104BC00064155091651560916615709167151C9676
:104BD0004D935D936D937C931F975096DC92509705
:104BE000EC59FC4E84889588B12CA12C5401992451
:104BF000882455968D929D92AD92BC925897428D85
:104C0000538D70E060E0482959296A297B2955961F
:104C10004D935D936D937C935897A5E0220F331FBE
:104C2000AA95E1F7D901AC59BC4E1B962C9128717D
:104C300009F0D2C0848D958DA68DB78DF701818B3B
:104C4000928BA38BB48B81E08383822D8F70F701CD
:104C5000818314821582168217821086118612862D
:104C6000138611E024FE04C0C7010E94A9C4182FB6
:104C7000CE014C960E945724CE0101960E945724E3
:104C8000812FCC5BDF4F0FB6F894DEBF0FBECDBFD8
:104C9000DF91CF911F910F91FF90EF90DF90CF9018
:104CA000BF90AF909F908F907F906F905F904F904C
:104CB0003F902F900895D80113968C9113978230CE
:104CC00009F421CE51968D919D910D90BC91A02D0E
:104CD000803E9F4FAF41B10508F015CEC8010E943C
:104CE0005723882309F40FCE0E94701F882309F4EC
:104CF0000ACED8015996ED91FC915A9714968D9051
:104D00009D90AD90BC901797B2E08B1A9108A108C6
:104D1000B108858504C0880C991CAA1CBB1C8A9507
:104D2000D2F786859785A089B189880E991EAA1E1B
:104D3000BB1E81E080936C1580926415909265157E
:104D4000A0926615B0926715E4E6F3E180E092E088
:104D5000DF019C011D9221503040E1F7DD24D39406
:104D6000D8015996ED91FC918481D816C0F48091B8
:104D70006D1590916E15DC01ED91FC910288F3891F
:104D8000E02D24E633E1B501A4014D0D511D611D57
:104D9000711D0995882309F4B6CDD394E1CF2585FB
:104DA00080E092E0A0E0B0E004C0880F991FAA1F45
:104DB000BB1F2A95D2F7F80141895289638974890A
:104DC000840F951FA61FB71F818B928BA38BB48B6B
:104DD00084E693E1D12CB1CE203161F497012F5EAE
:104DE0003F4F0E947E20882329F084E0D70113964C
:104DF0008C932BCFD70113961C9285CD682F70E032
:104E000090E080E00C943CB18F929F92AF92BF9261
:104E1000CF92DF92EF92FF92CF936B017C01C42F70
:104E200020E030E0A9010E9402E587FF07C08DE283
:104E30000E94687FF7FAF094F7F8F0942BE037EDD2
:104E400043EA5BE3C23021F02FE632E143E05AE36C
:104E5000C701B6010E94F9EB6B017C010E94F5ECE1
:104E60004B015C010E9407E59B01AC01C701B60143
:104E70000E94F8EB6B017C01C501B4010E943CB1BA
:104E80008EE20E94687FC150E8F020E030E040E20E
:104E900051E4C701B6010E9468E56B017C010E94E4
:104EA000F5EC4B015C010E943CB1C501B4010E94CC
:104EB00007E59B01AC01C701B6010E94F8EB6B014D
:104EC0007C01E1CFCF91FF90EF90DF90CF90BF902A
:104ED000AF909F908F900895EF92FF920F931F9342
:104EE000CF937B018A01C2E48F3F09F0C4E580E2E1
:104EF0000E94687F8C2F0E94687F8AE30E94687FEF
:104F0000F701608171818281938142E00E940427D0
:104F100089ED90E10E94797FF80160817181828141
:104F2000938142E00E94042762E070E080E090E01C
:104F3000CF911F910F91FF90EF900C948FB81F931A
:104F4000CF93DF93CDB7DEB728970FB6F894DEBFC7
:104F50000FBECDBF182F6091FE067091FF06072E81
:104F6000000C880B990B0E9409E56D837E838F836B
:104F700098878091FA069091FB06A091FC06B0916B
:104F8000FD0689839A83AB83BC83AE014B5F5F4F81
:104F9000BE016F5F7F4F80E80E946C276091F3062F
:104FA0007091F406072E000C880B990B0E9409E5FE
:104FB0006D837E838F8398878091EF069091F006B2
:104FC000A091F106B091F20689839A83AB83BC83EA
:104FD000AE014B5F5F4FBE016F5F7F4F8FEF0E944F
:104FE0006C276091F5061F3F39F087E11802F00148
:104FF0001124EA50F94F628570E081EE90E10E9441
:10500000E7896091F50670E08CED90E10E94E789F8
:1050100028960FB6F894DEBF0FBECDBFDF91CF91BB
:105020001F9108950F930FB70F9300916E000D7F9E
:1050300000936E0078940F930BB70F930CB70F92F9
:105040001F922F933F934F935F936F937F938F9311
:105050009F93AF93BF93EF93FF9311240E948863B4
:10506000FF91EF91BF91AF919F918F917F916F9140
:105070005F914F913F912F911F900F900CBF0F9117
:105080000BBF0F910260F89400936E000F910FBF59
:105090000F911895CF93DF93E6EFF6E01186108617
:1050A00010921A0410921B0410921C0410921D04FA
:1050B00012865D98CBEED6E0198618860E949D6711
:1050C0001A865C98DF91CF9108958F929F92AF924C
:1050D000BF92CF92DF92EF92FF920F931F93CF93E5
:1050E000DF93B0E2A0E06A2F70E0AB014B0F511DDF
:1050F00055954795411119C0EFEDFFE06591749109
:10510000072E000C880B990B0E9409E5DF91CF91C7
:105110001F910F91FF90EF90DF90CF90BF90AF90D5
:105120009F908F900895B42FE0CFA41711F0B4137F
:1051300003C0EBE5F0E1E2CF9A0121503109220FE3
:10514000331F220F331FF901E352F04FE590F49023
:10515000F901EF51F04FC591D4918E159F0518F3C9
:10516000A42FC817D90708F4BECFF901E152F04FB8
:1051700005911491F901ED51F04FC590D4908E191D
:105180009F09BC0190E080E00E9407E54B015C01B3
:10519000B601601B710B072E000C880B990B0E9447
:1051A00009E59B01AC01C501B4010E9468E54B0112
:1051B0005C01CE19DF09BE0190E080E00E9407E5A6
:1051C0009B01AC01C501B4010E947CEC6B017C0128
:1051D000B801110F880B990B0E9409E59B01AC01E6
:1051E000C701B6010E94F9EB91CFCF92DF92EF9207
:1051F000FF92CF93DF93EC01C880D980EA80FB80D7
:105200008CE79FE00E94797FC701B6010E945D7222
:10521000CC80DD80EE80FF8084ED9AE20E94797F71
:10522000C701B6010E945D72C884D984EA84FB84F8
:1052300080ED9AE20E94797FC701B6010E945D72FB
:105240008AE0DF91CF91FF90EF90DF90CF900C94A8
:10525000687FBC012091DE033091DF034091DE03C3
:105260005091DF032417350731F481E02617370703
:1052700009F080E008959A01F1CF0F930FB70F93D3
:1052800000916E000F930D7F00936E0000916F00F0
:105290000D7F00936F000F930BB70F930CB70F9216
:1052A0001F922F933F934F935F936F937F938F93AF
:1052B0009F93AF93BF93EF93FF9311240E94C32D4D
:1052C000FF91EF91BF91AF919F918F917F916F91DE
:1052D0005F914F913F912F911F900F900CBF0F91B5
:1052E0000BBF0F910260F89400936F000F91009331
:1052F0006E000F910FBF0F91189500C000C08091F4
:10530000530680FF1FC0459A8FEF809394038091CE
:10531000530681FF1AC0479A8FEF809395038091BF
:10532000530682FF15C02A988FEF809396038091D1
:10533000530683FF10C0289A8FEF8093970300C015
:1053400000C00895459881E0E0CF479881E0E5CF1F
:105350002A9A81E0EACF289881E0EFCF8091230359
:10536000982F977F90932303982F937081E011F0EB
:1053700080E008955E9A08955E9880912303886086
:10538000809323030895E82FF0E021E030E0082E19
:1053900002C0220F331F0A94E2F7209530959091B6
:1053A0002303922390932303E153FE4F2081922302
:1053B00021E019F020E0822F0895813079F038F053
:1053C0008230C9F7159A909152069B7F04C05E9A6D
:1053D000909152069E7F90935206EDCF5E9A9091E7
:1053E00052069D7FF8CF80E00E94C32981E00E9491
:1053F000C32982E00E94C3290C94AE29813079F040
:1054000070F0823071F021E030E001C0220F8A9507
:10541000EAF780912303822B8093230308955E98FB
:10542000F2CF1598F0CFCF93DF938091A80281112E
:1054300019C0C0911001D0911101219720E030E0F6
:1054400040E05FE36091FA067091FB068091FC06F4
:105450009091FD060E94F9EB0E94EEEC21E06C17A2
:105460007D070CF020E0822FDF91CF910895AF925D
:10547000BF92CF92DF92EF92FF920F931F93CF9341
:10548000DF93C4E0DCE008E217E084E1A82E8CE0C2
:10549000B82EC12CD12C7601C39469917991899150
:1054A00099910E9407E5288939894A895B890E9478
:1054B00068E50E94F5ECF8016193719381939193F3
:1054C0008F01C616D706E806F90610F46B017C01B9
:1054D000AC16BD0611F76FEF7FEFCB01A701960168
:1054E0000E944AEB209338073093390740933A07DC
:1054F00050933B07DF91CF911F910F91FF90EF9059
:10550000DF90CF90BF90AF9008950F931F93CF93EC
:10551000DF9308E11CE0C1E4D7E0F801219131916B
:10552000419151918F0160E070E080E89FE30E941B
:105530007CEC6993799389939993F7E0C135DF0700
:1055400061F70E94C8B3DF91CF911F910F910C9426
:10555000372A0C94852A0C94852A0C94852A0C945D
:10556000852A9091321680913316981306C0809147
:10557000510790915207892B19F00E9487C5F1CFEE
:1055800008959091321680913316981308C0809137
:10559000510790915207892B11F40C94F3290E9422
:1055A00087C5EFCFCF93DF932091A702222379F015
:1055B000EC010E94F3739B01AC01688579858A85B3
:1055C0009B850E94F8EB688779878A879B87DF91A4
:1055D000CF910895CF93DF932091A702222379F0F2
:1055E000EC010E94F3739B01AC01688579858A8583
:1055F0009B850E94F9EB688779878A879B87DF9173
:10560000CF9108954F925F926F927F928F929F9267
:10561000AF92BF92CF92DF92EF92FF920F931F93C0
:10562000CF93DF93CDB7DEB76A970FB6F894DEBF9E
:105630000FBECDBF9A8F898F5B018A01DC01D696A0
:105640006D917D918D919C91D9970E9407E56B0199
:105650007C01F50120813181428153810E9468E5FE
:105660000E9465EC2B013C01D8012D913D914D919B
:105670005C91C701B6010E9468E50E9465EC4B0190
:105680005C01C301B2010E94F5EC698B7A8B8B8BB4
:105690009C8B683771058105910540F428E730E05F
:1056A00040E050E0298B3A8B4B8B5C8BC501B401F9
:1056B0000E94F5EC6D877E878F87988B6837710520
:1056C0008105910540F488E790E0A0E0B0E08D8787
:1056D0009E87AF87B88BE98DFA8DEE5BFF4F2081F7
:1056E00031814281538129833A834B835C83CA0190
:1056F000B9010E9409E52B013C0169897A898B89EE
:105700009C890E9407E569877A878B879C8720E0C0
:1057100030E0A901C301B2010E9402E5882309F427
:105720003BC1A7019601C701B6010E9468E54B0184
:105730005C0129853A854B855C85CA01B9010E94C7
:1057400068E59B01AC01C501B4010E94F8EB4B0177
:105750005C01A3019201C301B2010E94F9EB9B011C
:10576000AC01C501B4010E947CEC0E9465EC0E9472
:10577000F5EC6D837E838F83988769817A818B8135
:105780009C8190958095709561957F4F8F4F9F4F2D
:105790000E9409E54B015C016D857E858F859889A6
:1057A0000E9407E569837A838B839C8320E030E045
:1057B000A901C501B4010E9402E5882309F4F0C0E3
:1057C00029813A814B815C81CA01B9010E9468E557
:1057D0006D8B7E8B8F8B988FA7019601C701B601C9
:1057E0000E9468E59B01AC016D897E898F89988D47
:1057F0000E94F8EB6B017C01A5019401C501B40185
:105800000E94F9EB9B01AC01C701B6010E947CEC40
:105810000E9424EDA98DBA8D95968D909D90AD90A6
:10582000BC909897750164012D813E814F81588508
:10583000C21AD30AE40AF50A0E94F5ECC61AD70A7E
:10584000E80AF90AF7FE6EC020E030E0A901C301C2
:10585000B2010E9402E5882309F4A6C0C501B40183
:105860000E9407E56B017C01A3019201C301B20113
:105870000E94F9EB9B01AC01C701B6010E9468E5EB
:105880006B017C0129853A854B855C85CA01B9018C
:105890000E9468E59B01AC01C701B6010E94F8EBCC
:1058A0006B017C0129813A814B815C81CA01B9017C
:1058B0000E9468E59B01AC01C701B6010E94F9EBAB
:1058C0006B017C0120E030E040E850E4C301B2010C
:1058D0000E9468E59B01AC01C701B6010E947CEC07
:1058E0000E9465EC6B017C0120E030E0A9010E9480
:1058F0007CED18161CF0C12CD12C7601C701B60125
:105900000E94F5EC6D837E838F83988786169706B9
:10591000A806B90620F48D829E82AF82B886C12C7B
:10592000D12C76018D819E81AF81B885E98DFA8D6C
:1059300081A792A7A3A7B4A7C80ED91EEA1EFB1E73
:10594000C5A6D6A6E7A6F0AA29893A894B895C891B
:1059500022AF33AF44AF55AFFE962D853E854F85C0
:10596000588920833183428353836A960FB6F89413
:10597000DEBF0FBECDBFDF91CF911F910F91FF9082
:10598000EF90DF90CF90BF90AF909F908F907F90DF
:105990006F905F904F90089560E070E0CB01E5CE8E
:1059A00060E070E0CB0134CF60E070E0CB0198CFD5
:1059B00090916F0081E091FD02C080E00895909188
:1059C0006F009D7F90936F000895CF93C82F0E9422
:1059D000D82C94E0C99F90011124F901EF51FC4F9C
:1059E00023513C4FD9014D915D916D917C91408344
:1059F00051836283738391E09093E003882319F0CD
:105A0000CF910C94A276CF910895CF93DF9380919C
:105A10007F03329B4BC0816080937F0380917F0323
:105A2000339B46C0826080937F0380917F03349BC9
:105A300041C0846080937F03C091D103C0FF10C038
:105A40008091530680FF0CC080917F0380FF08C0C7
:105A50008091A20681608093A20680E00E94E52CDE
:105A6000C1FF10C08091530681FF0CC080917F035D
:105A700081FF08C08091A20682608093A20681E027
:105A80000E94E52CC2FF18C08091530682FF14C00B
:105A900080917F0382FF10C08091A2068460809372
:105AA000A20682E0DF91CF910C94E52C8E7FB4CFDB
:105AB0008D7FB9CF8B7FBECFDF91CF9108950E94AC
:105AC000D82C10923C0710923D0710923E0710927E
:105AD0003F0781110C94A27608950F931F93809134
