:100000000C9410180C9449180C9449180C94491825
:100010000C9449180C9449180C9449180C944918DC
:100020000C9449180C9449180C9449180C944918CC
:100030000C9449180C94767A0C9449180C9449182D
:100040000C944B790C9449180C948ED80C94491844
:100050000C94A93D0C949F3D0C9449180C9449189C
:100060000C9449180C9449180C9449180C9449188C
:100070000C9449180C9449180C9449180C9449187C
:100080000C9435310C9449180C9449184E414E4942
:100090004E495459494E46CDCCCC3D0AD7233C1746
:1000A000B7D13877CC2B329595E6241FB14F0A0093
:1000B0000020410000C84200401C4620BCBE4CCA83
:1000C0001B0E5AAEC59D7400407A10F35A00A07200
:1000D0004E18090010A5D4E80000E8764817000083
:1000E000E40B54020000CA9A3B000000E1F5050051
:1000F0000080969800000040420F000000A086019A
:10010000000000102700000000E803000000006469
:1001100000000000000A00000000000100000000D4
:10012000002C76D888DC674F0823DFC1DFAE59E1A9
:10013000B1B796E5E3E453C63AE651997696E8E618
:10014000C28426EB898C9B62ED407C6FFCEFBC9CEB
:100150009F40F2BAA56FA5F490055A2AF75C936BFD
:100160006CF9676DC11BFCE0E40D47FEF520E6B5B8
:1001700000D0ED902E0300943577050080841E0892
:100180000000204E0A000000C80C333333330F98B0
:100190006E12831141EF8D2114893BE65516CFFE77
:1001A000E6DB18D1844B381BF77C1D901DA4BBE403
:1001B00024203284725E228100C9F124ECA1E53D45
:1001C000275A5F53544F505F50494E005A5F535463
:1001D00045505F50494E005A5F4D494E5F50494E61
:1001E000005A5F454E41424C455F50494E005A5FB0
:1001F0004449525F50494E00595F53544F505F502D
:10020000494E00595F535445505F50494E00595F65
:100210004D494E5F50494E00595F454E41424C4555
:100220005F50494E00595F4449525F50494E005853
:100230005F53544F505F50494E00585F53544550E0
:100240005F50494E00585F4D494E5F50494E00582F
:100250005F454E41424C455F50494E00585F44490E
:10026000525F50494E00534552564F305F50494EF1
:100270000053445353004C43445F53445353004C86
:1002800043445F50494E535F5253004C43445F50C8
:10029000494E535F454E41424C45004C43445F50EC
:1002A000494E535F4434004845415445525F4245EE
:1002B000445F50494E004845415445525F305F50BD
:1002C000494E0046414E5F50494E0045305F535401
:1002D00045505F50494E0045305F454E41424C45C8
:1002E0005F50494E0045305F4449525F50494E00CF
:1002F000444F474C43445F53434B00444F474C43A8
:10030000445F4D4F534900444F474C43445F435370
:1003100000444F474C43445F41300042544E5F45D8
:100320004E430042544E5F454E320042544E5F45AC
:100330004E31004156525F53535F50494E00415673
:10034000525F53434B5F50494E004156525F4D4FF1
:1003500053495F50494E004156525F4D49534F5FDC
:1003600050494E0054454D505F4245445F50494E00
:100370000054454D505F305F50494E005458443052
:10038000005258443000434F4D4D554E494341545F
:10039000494F4E0044525952554E004552524F5209
:1003A0005300494E464F004543484F000F150E126B
:1003B00016170E1303021A1401000E0D18040C195F
:1003C000000153544F505045442E20005072696E26
:1003D0007465722073746F70706564206475652035
:1003E000746F206572726F72732E20466978207464
:1003F0006865206572726F7220616E642075736526
:10040000204D39393920746F2072657374617274AC
:100410002E202854656D706572617475726520694F
:10042000732072657365742E20536574206974207F
:1004300061667465722072657374617274696E6747
:10044000290A004E6F20436865636B73756D2077D2
:10045000697468206C696E65206E756D6265722CBA
:10046000204C617374204C696E653A20004E6F20F9
:10047000436865636B73756D2077697468206C6978
:100480006E65206E756D6265722C204C61737420F0
:100490004C696E653A2000636865636B73756D2007
:1004A0006D69736D617463682C204C617374204CAA
:1004B000696E653A20004C696E65204E756D626507
:1004C00072206973206E6F74204C617374204C69C4
:1004D0006E65204E756D6265722B312C204C6173F8
:1004E00074204C696E653A20004D313130005365FF
:1004F0007269616C20737461747573206D69736DBA
:10050000617463680A0053442072656164206572F7
:10051000726F720A002121204B494C4C2063617597
:1005200073656420627920746F6F206D7563682035
:10053000696E6163746976652074696D65202D202C
:1005400063757272656E7420636F6D6D616E643A6F
:100550002000486F74656E642049646C652054699E
:100560006D656F757400486F74656E642049646CC6
:10057000652054696D656F75740A004D6564696125
:1005800020496E73657274656400506C65617365B3
:10059000205265736574005052494E5445522048AC
:1005A000414C5445440025533A20255300706F7741
:1005B00065726F6666004B494C4C45442E200050D6
:1005C00072696E7465722068616C7465642E206B4C
:1005D000696C6C28292063616C6C6564210A005386
:1005E000544F505045442E20005072696E7465720D
:1005F0002073746F707065642064756520746F205B
:100600006572726F72732E20466978207468652057
:100610006572726F7220616E6420757365204D394A
:10062000393920746F20726573746172742E2028BA
:1006300054656D706572617475726520697320729E
:10064000657365742E205365742069742061667427
:1006500065722072657374617274696E67290A002D
:100660006563686F3A004572726F723A004F464692
:10067000004F4E0042696C696E656172204C657670
:10068000656C696E6720477269643A0A002121200F
:1006900053544F502063616C6C65642062656361E4
:1006A000757365206F6620424C546F7563682065D2
:1006B00072726F72202D207265737461727420776C
:1006C000697468204D3939390A0021212053544F6B
:1006D000502063616C6C656420626563617573654D
:1006E000206F6620424C546F756368206572726F8C
:1006F00072202D207265737461727420776974683A
:10070000204D3939390A007374617274004265648E
:10071000204C6576656C696E6720004661696C6582
:100720006420746F20656E61626C65204265642090
:100730004C6576656C696E670A00496E76616C6916
:1007400064206D6573682E0A0050726F62696E676F
:1007500020506F696E740025532025692F2569008C
:100760002E0A002F0050726F62696E67206D6573EC
:100770006820706F696E74200020284452595255C9
:100780004E2900473239204175746F20426564203C
:100790004C6576656C696E67003F20284C2C522CA6
:1007A000462C4229206F7574206F6620626F756E2B
:1007B00064732E0A003F2856296572626F736520A4
:1007C0006C6576656C20696D706C61757369626CBF
:1007D000652028302D34292E0A00426164205A20D9
:1007E00076616C75650A004E6F2062696C696E6592
:1007F000617220677269640A0020530020204D3224
:1008000030352042005741524E494E4721204C6F0F
:1008100077205A204A65726B206D6179206C656182
:100820006420746F20756E77616E746564207061EA
:10083000757365732E0A0050574D3A202025346495
:100840000050574D3A20202534640050574D3A202F
:10085000202534640050574D3A2020253464005040
:10086000574D3A20202534640050574D3A2020251A
:1008700034640050574D3A20202534640050574DC1
:100880003A2020253464003A200020202020434FC5
:100890004D002020206E6F6E2D7374616E64617246
:1008A000642050574D206D6F646500202020636FD9
:1008B0006D7061726520696E7465727275707420F6
:1008C000656E61626C6564002020206F76657266DB
:1008D0006C6F7720696E7465727275707420656EC6
:1008E00061626C6564003A20002020202054494D4C
:1008F000534B00423A200020202020544343520012
:10090000413A200020202020544343520020202040
:100910002043533A20002020202057474D3A200002
:1009200050574D3A20202534640050574D3A20202E
:100930002534640047004800000088008A00000059
:10094000B300B400000098009A000000202020208E
:1009500054494D455200440045006E00800081001E
:100960006F00B000B1007000900091007100202075
:10097000002020506F72743A200020202000202098
:1009800020416E616C6F6720696E203D2025356CBB
:1009900064003C756E757365642F756E6B6E6F7752
:1009A0006E3E002028412532642920200025336432
:1009B000200050494E3A20004F7574707574203DE8
:1009C0002000496E70757420203D2000416E616CDE
:1009D0006F6720696E203D2025356C640070726F52
:1009E00074656374656420002028412532642920E1
:1009F0002000253364200050494E3A20008103082E
:100A0000017C0309017103180064031900570306F0
:100A1000014A0305013E030701330304012B030BC5
:100A20000123030A011B03100111031E0107031C0C
:100A300001FB020501F0020701E5020001D7020EE9
:100A400001CB020101C3020401B6020D01A7020C91
:100A5000019B021E018B0211017F021C0176021F05
:100A60000171021F0166021B015C0215014F020E9B
:100A700001450212013A020F012F0212012502174D
:100A80000118020E010E02130103021601F80113F0
:100A900001EE010201E1011A01D7011401CC0103A9
:100AA00001C1011401446F6E652E0A0050756C730C
:100AB000696E6720202000556E746F7563686564E9
:100AC000200066616C7365004641494C3A204E6FC8
:100AD0002074726967676572206465746563746504
:100AE000640A004641494C3A204E6F6973652064A0
:100AF00065746563746564202D20706C6561736531
:100B00002072652D72756E20746573740A002064FE
:100B1000657465637465642E0A003D20424C546F11
:100B2000756368207072652056332E3120286F72ED
:100B300020636F6D70617469626C6529003D205A95
:100B400020536572766F2050726F6265003D2042BF
:100B50004C546F7563682056332E310020282B2F9C
:100B60002D20346D73293A20003A2033306D7320E4
:100B70006F72206D6F72650A002E2050756C736560
:100B8000207769647468002A2A20506C6561736557
:100B900020747269676765722070726F6265207772
:100BA000697468696E20333020736563202A2A0ACD
:100BB000004641494C3A20424C544F554348206529
:100BC0006E61626C6564202D205365742075702001
:100BD0007468697320646576696365206173206158
:100BE00020536572766F2050726F6265207769744A
:100BF0006820494E56455254494E4720736574202B
:100C0000746F202774727565272E0A0020204445D2
:100C1000504C4F5945442073746174653A204C4FD1
:100C20005720286C6F6769632030290020204445D5
:100C3000504C4F5945442073746174653A204849BB
:100C4000474820286C6F676963203129003D204D9B
:100C5000656368616E6963616C205377697463686A
:100C60002064657465637465640A005741524E4997
:100C70004E473A20494E56455254494E47207365D7
:100C80007474696E672070726F6261626C79206241
:100C900061636B77617264732E0A002E2044657065
:100CA0006C6F7920262073746F7720342074696DFF
:100CB00065730A003D20424C546F75636820436C95
:100CC000617373696320312E322C20312E332C2036
:100CD000536D61727420312E302C20322E302C2036
:100CE000322E322C20332E302C20332E31206465CE
:100CF0007465637465642E0A002E20436865636B17
:100D000020666F7220424C544F5543480A002E20F3
:100D10005A5F4D494E5F454E4453544F505F494EC4
:100D200056455254494E473A20002E2050726F6269
:100D300065205A5F4D494E5F50494E3A20002C20A5
:100D400073746F7720616E676C653A202020002CE9
:100D5000206465706C6F7920616E676C653A200065
:100D6000536572766F2070726F626520746573745C
:100D70000A2E207573696E6720696E6465783A2063
:100D800020005761746368696E672070696E730A2A
:100D90000064697300656E0061626C65640A0065D9
:100DA0006E6473746F70206D6F6E69746F72200063
:100DB0002E0A00206E6F742064697361626C656432
:100DC0002E2053686172656420776974680020582A
:100DD0000020204D61783A2000200020204D696ECF
:100DE0003A2000203B200020204D3231312053009A
:100DF00020496E76616C69642065787472756465EB
:100E0000722000536C6565702E2E2E005A20507291
:100E10006F62652050617374204265640A005A2035
:100E200050726F62652050617374204265640047A0
:100E300032384C3000205A3A200020593A200042E3
:100E4000656420583A20004D65736820706F696EA4
:100E500074206F7574206F662072616E67650A007A
:100E6000436C69636B20746F20526573756D652EDA
:100E70002E2E00616C736F20656E61626C65642953
:100E80000A004E6F204D6F76652E00456E64206619
:100E9000696C65206C6973740A00426567696E202D
:100EA00066696C65206C6973740A004E6F206D650D
:100EB0006469610A00706175736500286E6F206651
:100EC000696C65290043757272656E742066696C81
:100ED000653A20005344207072696E74696E672011
:100EE0006279746520004E6F7420534420707269DB
:100EF0006E74696E670A002E0A0044656C65746939
:100F00006F6E206661696C65642C2046696C653A79
:100F1000200046696C652064656C657465643A0000
:100F20002569730025696D2025697300256968208E
:100F300025696D202569730025696420256968206D
:100F400025696D202569730025697920256964204C
:100F50002569682025696D20256973005072696EC6
:100F6000742074696D653A20003F43616E6E6F7442
:100F700020777269746520746F20494E5055540A69
:100F800000496E76616C69642050696E204D6F6413
:100F9000650A006F6B006F666600A703A2039B03E0
:100FA0009403860344454255473A00544D33442048
:100FB000456E64657232204F46462E0020204D3922
:100FC000322058004649524D574152455F4E414DDF
:100FD000453A4D61726C696E20322E302E395F4475
:100FE00057372E342E3620544D3344204532534D3E
:100FF000444242202841707220323820323032324E
:101000002030313A30323A32352920534F5552434D
:10101000455F434F44455F55524C3A687474707352
:101020003A2F2F6769746875622E636F6D2F496E52
:1010300073616E6974794175746F6D6174696F6EF7
:101040002F4D61726C696E2F747265652F437265E6
:10105000616C6974794477696E5F322E302050522A
:101060004F544F434F4C5F56455253494F4E3A31C0
:101070002E30204D414348494E455F545950453A22
:10108000544D334420456E646572322045585452A5
:10109000554445525F434F554E543A3120555549BA
:1010A000443A63656465326132662D343161322DB4
:1010B000343734382D396231322D63353563363269
:1010C0006633363766660A002F2F004D31343520DF
:1010D000533C696E6465783E206F7574206F66209E
:1010E00072616E67652028302D31290A0020440086
:1010F00020204D32303020530020204D323031201E
:10110000580020450020204D323033205800205414
:101110000020520020204D32303420500020204D3D
:1011200032303620580046523A0020466C6F773AEB
:10113000200050726F7465637465642050696E0A94
:10114000003A200020536572766F2000206F75747E
:10115000206F662072616E67650A00536572766F54
:10116000200050726F6265204F6666736574205A66
:101170000050726F6265204F6666736574205A0076
:1011800020440020490020204D33303120500020E1
:10119000204D32353020430064697300656E004392
:1011A000290A0061626C656420286D696E2074658F
:1011B0006D702000436F6C6420657874727564658F
:1011C00073206172652000424C546F75636820483B
:1011D00053206D6F646520004D34323120696E6399
:1011E0006F727265637420706172616D657465728F
:1011F0002075736167650A004D65736820706F69BB
:101200006E74206F7574206F662072616E67650A58
:10121000004F666673657473204170706C69656415
:10122000004572723A20546F6F206661722100543B
:101230006F6F206661722066726F6D2072656665E1
:1012400072656E636520706F696E740A0045455063
:10125000524F4D204F4B0A004D383400446F6E659D
:10126000207072696E74696E672066696C650A0029
:101270004D3737004D333100496E76616C6964201B
:1012800065787472756465720A0020286D6D290096
:10129000203B00205A0020590020204D38353120B5
:1012A0005800290A0020746F20003F5A206F75747F
:1012B000206F662072616E6765202800290A002071
:1012C000746F20003F59206F7574206F6620726123
:1012D0006E676520282D00290A0020746F20003FCA
:1012E00058206F7574206F662072616E67652028C4
:1012F0002D0020573A00436F6F6C696E672E2E2EBB
:101300000045312025530020573A004265642043B0
:101310006F6F6C696E672E2E2E00426564204865E3
:101320006174696E672E2E2E0023646566696E6592
:101330002044454641554C545F004B6420004B69A6
:1013400020004B702000504944204175746F747523
:101350006E652066696E69736865642120507574D6
:1013600020746865206C617374204B702C204B696D
:1013700020616E64204B6420636F6E7374616E74C1
:10138000732066726F6D2062656C6F7720696E7472
:101390006F20436F6E66696775726174696F6E2E38
:1013A000680A00504944204175746F74756E652059
:1013B0006661696C6564212074696D656F75740A76
:1013C00000504944204175746F74756E65206661E4
:1013D000696C6564212054656D7065726174757205
:1013E0006520746F6F20686967680A00504944205F
:1013F0004379636C65730025532025692F256900A7
:10140000204B643A2000204B693A2000204B703A70
:10141000200020436C617373696320504944200AA3
:10142000002054753A2000204B753A2000206D6151
:10143000783A2000206D696E3A200020643A20003E
:1014400020626961733A200048656174696E672E95
:101450002E2E00504944204175746F74756E6520BE
:1014600073746172740A00504944204175746F743A
:10147000756E65206661696C6564212054656D70C8
:101480006572617475726520746F6F206869676832
:101490000A00504944204175746F74756E650050A0
:1014A0004944204175746F74756E65206661696C7E
:1014B00065642120426164206865617465722069F9
:1014C000640A004572723A207574663820666F6E41
:1014D00074206E6F7420696E697469616C697A65D5
:1014E000642E004572723A207574663820666F6EFD
:1014F00074206E6F7420696E697469616C697A65B5
:10150000642E004572723A207574663820666F6EDC
:1015100074206E6F7420696E697469616C697A6594
:10152000642E002568753A25303268750025303202
:1015300068753A2530326875002530326875272580
:101540003032687500256875642025303268753A38
:10155000253032687500FFE0FFD140A0C8A6A22F59
:10156000F80023AC00AF10FFFEFF05FFD0FFE0FF47
:10157000C1FFD1E240A0C8A6A22FF800238127AC6A
:1015800000AFFFD0FF64FFD1A5FFD0FF64FF64FF71
:10159000D1A4FFD0FF16FFFE42656400456E636C68
:1015A0006F737572650020202020202020002020ED
:1015B000202000657272001FE02010201020101003
:1015C0002010202010201030300840048003003FFD
:1015D000FFF038007030FC3020FC102078102030F4
:1015E000102C00D02E31D02F7BD02F7BD02E31D09D
:1015F0002C00D020301020781020FC1030FC303827
:1016000000703FFFF03FFFF03800703186302387D5
:10161000102787902F87D02F03D0203010207810EC
:101620002078102030102F03D02F87D027879023C9
:1016300087103186303800703FFFF00410400208F8
:1016400020020820041040082080104100104100B2
:101650000820800410400000001FFFF81FFFF80062
:101660000C0F00FE07022503BB017FFE08FE08FEEB
:1016700005080806000040F0C8888898781005081A
:1016800008060000C0F88888888888F805050506DF
:1016900000012030F830200508080600002070F80E
:1016A00020202020E00509090600FF2070A8A8B826
:1016B00088887020070505070001D86C366CD805AE
:1016C00009090600FFF8A88888888888A8F8050A0C
:1016D0000A0600FE205050505088A8A888700303C6
:1016E0000306000340A040FFFFFFFFFFFFFFFFFFD7
:1016F000FFFFFFFFFFFFFFFFFFFFFFFFFF000000F7
:101700000605FF01070706020080808080800080B8
:10171000030303060105A0A0A0050606060000506D
:10172000F85050F8500509090600FF2070A8A07075
:1017300028A87020050707060000C8C81020409898
:101740009805070706000040A0A040A89068010384
:10175000030602058080800309090601FF2040403E
:101760008080804040200309090601FF804040201E
:10177000202040408005070706000020A870207048
:10178000A8200505050600012020F82020020303FB
:101790000601FFC04080050101060003F8020202B5
:1017A000060100C0C0050707060000081010204011
:1017B0004080050707060000708898A8C888700355
:1017C000070706010040C040404040E0050707060B
:1017D0000000708808102040F8050707060000F890
:1017E0000810300888700507070600001030509078
:1017F000F81010050707060000F880F00808887048
:10180000050707060000304080F08888700507074C
:10181000060000F808101020202005070706000029
:1018200070888870888870050707060000708888AF
:1018300078081060020505060100C0C000C0C002A3
:1018400006060601FFC0C000C04080030505060172
:10185000012040804020050303060002F800F80341
:1018600005050601018040204080050707060000AD
:10187000708810202000200507070600007088B837
:10188000A8B88070050707060000708888F8888867
:1018900088050707060000F04848704848F005072B
:1018A00007060000708880808088700507070600A2
:1018B00000F04848484848F0050707060000F8804F
:1018C00080F08080F8050707060000F88080F0802F
:1018D0008080050707060000708880809888700562
:1018E0000707060000888888F888888803070706A5
:1018F0000100E04040404040E00507070600003896
:101900001010101090600507070600008890A0C016
:10191000A09088050707060000808080808080F8FE
:1019200005070706000088D8A88888888805070763
:101930000600008888C8A898888805070706000060
:1019400070888888888870050707060000F08888F6
:10195000F080808005070706000070888888A890BE
:1019600068050707060000F08888F0A09088050742
:101970000706000070888070088870050707060059
:1019800000F8202020202020050707060000888876
:10199000888888887005070706000088888888502E
:1019A000502005070706000088888888A8A85005E9
:1019B000070706000088885020508888050707061A
:1019C000000088885020202020050707060000F826
:1019D0000810204080F80309090601FFE08080809C
:1019E00080808080E00507070600008040402010CE
:1019F00010080309090601FFE020202020202020F4
:101A0000E00503030600052050880501010600FEDD
:101A1000F8030303060105804020050505060000C4
:101A200070087888780507070600008080F08888AD
:101A300088F005050506000070808088700507079E
:101A400006000008087888888878050505060000E3
:101A50007088F08070050707060000304840E040BD
:101A600040400507070600FE7088888878087005E2
:101A700007070600008080F088888888030707062B
:101A800001004000C0404040E00409090601FE108A
:101A900000301010101090600507070600008080CD
:101AA0008890E09088030707060100C0404040404E
:101AB00040E0050505060000D0A8A8A8A805050572
:101AC000060000B0C88888880505050600007088F3
:101AD0008888700507070600FEF0888888F08080F7
:101AE0000507070600FE7888888878080805050538
:101AF000060000B0C88080800505050600007880DB
:101B00007008F00507070600002020F820202018A4
:101B10000505050600008888889868050505060003
:101B20000088888850200505050600008888A8A838
:101B30005005050506000088502050880507070657
:101B400000FE88888850204080050505060000F8C2
:101B5000102040F80309090601FF20404040804062
:101B60004040200109090602FF808080808080803B
:101B700080800309090601FF80404040204040402A
:101B80008005030306000248A890FF41425300501D
:101B90004C410063616E63656C005072696E742025
:101BA00041626F72746564004D3235005061757327
:101BB000696E672E2E2E00726573756D65004D324D
:101BC000340050726F6265205A204F6666736574E8
:101BD0000046696C2E204469612E004F6666004FF6
:101BE0006E004520696E206D6D5E33004520737474
:101BF0006570732F6D6D005A2053746570732F6D6F
:101C00006D00592053746570732F6D6D005820530B
:101C1000746570732F6D6D00416476616E636564E9
:101C20002053657474696E67730046696C616D65F5
:101C30006E740053746570732F6D6D00436F6E6624
:101C4000696775726174696F6E004F6666004F6EEA
:101C500000486967682053706565640053572D4DCF
:101C60006F64650053746F77004465706C6F790022
:101C700053656C662D54657374005265736574000A
:101C8000436F6E66696775726174696F6E00526545
:101C900073746F72652044656661756C7473004C73
:101CA0006F61642053657474696E67730053746F59
:101CB00072652053657474696E6773004C434420E9
:101CC000436F6E747261737400424C546F75636835
:101CD0000050726F6265205A204F6666736574000B
:101CE000416476616E6365642053657474696E67E0
:101CF00073004D61696E004D3139305335350A47F7
:101D000032380A4732390A4D3430300A4D313034D6
:101D1000533231350A4732380A4D31303953323176
:101D2000350A4D34323053310A4731583130305949
:101D300031303046353030300A47315A300A4D356F
:101D400030300A4D37370A4D313137205365742012
:101D50005A204F6666736574004D31303653313208
:101D6000380A4D3330334338533231354530550A14
:101D70004D3530300A4D31313720504944205475AB
:101D80006E6520446F6E65004D3139305335350A2C
:101D90004D313034533231350A4732380A473239FF
:101DA0004C310A47312058313030593130304635C6
:101DB0003030300A47315A30004D3530300A4D311D
:101DC00031372053657474696E67732053746F7272
:101DD00065640053746F72652053657474696E672F
:101DE00073005072657020666F72205A2041646AD9
:101DF000757374005049442054756E6500536574C2
:101E00007570004D61696E003F004261636B005365
:101E1000746F70004D323200417474616368204DFC
:101E200065646961004D3231005072696E742066DC
:101E3000726F6D204D656469610052656C656173F8
:101E400065204D65646961004C6576656C696E67F7
:101E500020546F6F6C7300436F6E666967757261B3
:101E600074696F6E0054656D70657261747572652A
:101E7000004D6F74696F6E00537461727420486F07
:101E80007374205072696E7400526573756D6520AD
:101E90005072696E740054756E650053746F7020D3
:101EA0005072696E74005061757365205072696E6E
:101EB0007400496E666F2053637265656E004361FE
:101EC0006E6E6F7420656E746572207375626469DE
:101ED000723A200002202E2E000152656672657350
:101EE00068004D61696E002100486F74656E642062
:101EF000746F6F20636F6C64004261636B0050729B
:101F00006F63656564004D6F74696F6E004469733B
:101F100061626C65205374657070657273004D3832
:101F200034004175746F20486F6D6500473238008A
:101F30004D61696E005072656865617420242042AD
:101F400065640050726568656174202420456E6484
:101F50000054656D7065726174757265008F1B8BBE
:101F60001B436F6F6C646F776E00507265686561BC
:101F70007420240046616E205370656564004265DC
:101F800064004E6F7A7A6C65004D61696E00507224
:101F90006F6265205A204F666673657400466C6FE9
:101FA000770046616E205370656564004265640089
:101FB0004E6F7A7A6C65005370656564004D616997
:101FC0006E00486F6D696E67204661696C656400DC
:101FD0006F70656E00545249474745524544003A78
:101FE00020007A5F6D696E00795F6D696E00785FC1
:101FF0006D696E005265706F7274696E6720656EF0
:102000006473746F70207374617475730A00207444
:102010006F6F206C6F6E6720657874727573696F6F
:102020006E2070726576656E7465640A0020636F59
:102030006C6420657874727573696F6E2070726558
:1020400076656E7465640A00486F6D65202573259A
:10205000732573204669727374005761726E696EDE
:10206000673A20486F6D696E672042756D70204435
:10207000697669736F72203C20310A000202040005
:1020800000000000000000000000000000164300F7
:1020900000164300004843000000410000004100DA
:1020A00000004000001643000016430000484300B3
:1020B0000000000000000000000000536574746917
:1020C0006E67732053746F72656400454550524FBC
:1020D0004D20496E697469616C697A65640A000013
:1020E000803B4400803B44000020410000964200B9
:1020F00000A0420000A0420000C8430000BE42D041
:10210000070000D0070000640000004B000000241E
:10211000F4D43050C38E20C2A24017828B701112AB
:102120007A910D816CD90AA861E108C758660761E8
:102130005143061E4B5D05C145A7041A4111040910
:102140003D9803713931034036DB0265339102D487
:10215000305402802E1D02632CEE01752AC501B099
:1021600028A001102781018F2564012B244B01E059
:10217000223401AC211F018D200D01801FFC008441
:102180001EED00971DDF00B81CD200E61BC6002024
:102190001BBC00641AB200B219A8000A19A0006A98
:1021A000189900D117910040178B00B516840031A3
:1021B000167E00B31579003A157300C7146F0058E6
:1021C000146A00EE1366008813630025135E00C7CF
:1021D000125B006C12570015125400C111510070AF
:1021E000114F0021114B00D61049008D10470046B9
:1021F00010440002104200C00F4000800F3E004219
:102200000F3C00060F3B00CB0E3800930E37005CEE
:102210000E3500270E3400F30D3200C10D31009051
:102220000D3000600D2E00320D2D00050D2C00D953
:102230000C2B00AE0C2900850C29005C0C27003506
:102240000C27000E0C2600E80B2400C40B2400A071
:102250000B23007D0B23005A0B2100390B210018A2
:102260000B2000F80A1F00D90A1E00BB0A1E009DA1
:102270000A1D00800A1D00630A1C00470A1B002C6F
:102280000A1B00110A1A00F7091A00DD091900C417
:10229000091900AB091900920917007B091800639E
:1022A0000917004C09160036091600200916000A05
:1022B000091500F5081500E0081400CC081400B852
:1022C000081400A4081400900813007D0812006B85
:1022D00008130058081200460812003408110023A1
:1022E0000811001208110001081100F0071000E0A9
:1022F000071000D0071000C0071000B0070F00A1A2
:1023000007100091070E0083070F0074070F006588
:10231000070E0057070E0049070E003B070D002E61
:10232000070E0020070D0013070D0006070D00F92A
:10233000060C00ED060D00E0060C00D4060C00C8EB
:10234000060C00BC060C00B0060C00A4060B00999D
:10235000060C008D060B0082060B0077060B006C46
:10236000060B0061060A0057060B004C060A0042E5
:10237000060A0038060A002E060A0024060A001A79
:10238000060A001006090007060A00FD050900F408
:10239000050900EB050900E2050900D9050900D08F
:1023A000050900C7050900BE050900B5050800AD0F
:1023B000050800A50509009C050800940508008C87
:1023C000050800840508007C050800740508006CF9
:1023D000050700650508005D050700560508004E65
:1023E00005070047050700400508003805070031CC
:1023F0000507002A050700230507001C050600162F
:102400000507000F0507000805060002050700FB89
:10241000040600F5040700EE040600E8040600E2E6
:10242000040700DB040600D5040600CF040600C93B
:10243000040600C3040600BD040600B7040600B18C
:10244000040500AC040600A6040600A00405009BD9
:1024500004060095040500900406008A0405008522
:10246000040500800406007A040500750405007068
:102470000405006B04050066040500610405005CAA
:1024800004050057040500520405004D04050048EA
:10249000040500430405003E0404003A0405003529
:1024A000040500300404002C040500270404002364
:1024B0000405001E0404001A04040016040500119B
:1024C0000404000D040400090405000404040000D1
:1024D000040400FC030400F8030400F4030400F007
:1024E000030400EC030400E8030400E4030400E038
:1024F000030400DC030400D8030400D4030400D068
:10250000030400CC030400C8030300C50303002434
:10251000F404D9201BC40C5C0E9804C4095F026546
:10252000077101F405F900FB04B30048048700C1FA
:102530000369005803550003034500BE023A0084B6
:1025400002310053022A002902250004022000E47F
:10255000011C00C8011900AF011700980114008484
:10256000011300710110006101100051010E0043C0
:10257000010D0036010B002B010B0020010B001593
:102580000109000C01090003010800FB000800F329
:10259000000800EB000700E4000600DE000600D89B
:1025A000000600D2000600CC000500C7000500C2EE
:1025B000000500BD000400B9000400B5000400B12E
:1025C000000400AD000400A9000400A5000300A25F
:1025D0000003009F0004009B000300980003009587
:1025E00000020093000300900003008D0002008BA6
:1025F00000030088000200860002008400030081BE
:102600000002007F0002007D0002007B00020079D2
:1026100000020077000100760002007400020072E0
:10262000000100710002006F0002006D0001006CEB
:102630000002006A000100690002006700010066F4
:1026400000010065000100640002006200010061F9
:10265000000100600001005F0002005D0001005CFD
:102660000001005B0001005A000100590001005800
:102670000001005700010056000100550001005400
:1026800000010053000000530001005200010051FE
:10269000000100500001004F0001004E0000004EFC
:1026A0000001004D0001004C0001004B0000004BF8
:1026B0000001004A000100490001004800000048F4
:1026C00000010047000100460000004600010045EF
:1026D00000000045000100440001004300000043E9
:1026E00000010042000000420001004100000041E2
:1026F000000100400001003F0000003F0001003EDB
:102700000000003E0001003D0000003D0001003CD3
:102710000000003C0000003C0001003B0000003BCA
:102720000001003A0000003A0001003900000039C1
:1027300000010038000000380000003800010037B8
:1027400000000037000100360000003600000036AF
:1027500000010035000000350000003500010034A4
:10276000000000340000003400010033000000339A
:10277000000000330001003200000032000000328F
:102780000001003100000031000000310001003084
:1027900000000030000000300001002F0000002F7A
:1027A0000000002F0000002F0001002E0000002E6E
:1027B0000000002E0001002D0000002D0000002D63
:1027C0000000002D0001002C0000002C0000002C57
:1027D0000000002C0001002B0000002B0000002B4B
:1027E0000000002B0001002A0000002A0000002A3F
:1027F0000000002A00010029000000290000002933
:102800000000002900000029000100280000002825
:102810000000002800000028000000280001002718
:10282000000000270000002700000027000000270C
:1028300000010026000000260000002600000026FF
:1028400000000026000100250000002500000025F2
:1028500000000025000000250000002500010024E4
:1028600000000024000000240000002400000024D8
:1028700000010023000000230000002300000023CB
:1028800000000023000000230000002300010022BC
:1028900000000022000000220000002200000022B0
:1028A00000000022000100210000002100000021A2
:1028B0000000002100000021000000210000002194
:1028C0000001002000000020000000200000002087
:1028D0000000002000000020000000200000002078
:1028E0000001001F0000001F0000001F0000001F6B
:1028F0000000001F0000001F0000001F0001001E5C
:102900000000001E0000001E0000001E0000000469
:102910003700001E290000511B0000581000001055
:10292000090000CC040000780200004101000020F2
:10293000436F756E7420583A00426564004531005B
:102940004500626564002C2073797374656D207393
:10295000746F7070656421204865617465725F49A9
:10296000443A200048656174696E67204661696C6D
:1029700065640048656174696E67206661696C65AD
:1029800064004D3131322053687574646F776E0086
:102990001000C90210012C01400122017001180130
:1029A000B0010E01F00104015002FA00B002F00083
:1029B0003003E600D003DC009004D2007005C800AC
:1029C000A006BE000008B400B009AA00D00BA00009
:1029D000600E960060118C000015820020197800AE
:1029E000C01D6E00A0226400B0275A00902C500039
:1029F00000314600E0343C0010383200903A2800A4
:102A0000603C1E00A03D1400803E0A00203F0000F4
:102A10004572723A204D415854454D50004D415831
:102A200054454D502074726967676572656400454E
:102A300072723A204D494E54454D50004D494E5406
:102A4000454D50207472696767657265640054482B
:102A500045524D414C2052554E4157415900546802
:102A600065726D616C2052756E61776179000A0A3A
:102A70000020205A5F4D494E3A002020595F4D49B1
:102A80004E3A002020585F4D494E3A00202F00203A
:102A900042403A0020403A007C3C3E5E2B3D3F2FB6
:102AA0005B5D3B2C2A225C0043616E6E6F74206F6D
:102AB00070656E20737562646972200053442063F0
:102AC000617264206F6B0A006F70656E526F6F7475
:102AD000206661696C65640A00766F6C756D652EA1
:102AE000696E6974206661696C65640A004E6F20C6
:102AF000534420636172640A000A4D3234004D323F
:102B000033202573002E0A006F70656E20666169A0
:102B10006C65642C2046696C653A200046696C65DA
:102B20002073656C65637465640A002053697A6577
:102B30003A200046696C65206F70656E65643A20C6
:102B400000454E4420535542524F5554494E450A74
:102B5000002220706F73002220706172656E743ADB
:102B60002200535542524F5554494E452043414C43
:102B70004C207461726765743A2200537562636118
:102B80006C6C204F766572666C6F77004578636574
:102B900065646564206D617820535542524F5554E9
:102BA000494E452064657074683A005772697469CB
:102BB0006E6720746F2066696C653A2000667265E6
:102BC000736800646F696E67002066696C653A20FF
:102BD000004E6F7720002F6175746F25632E67009C
:102BE00070012C0190012701B0012201C0011D01DB
:102BF000F00118011002130130020E0160020901F8
:102C000090020401C002FF000003FA004003F50037
:102C10008003F000D003EB002004E6007004E10024
:102C2000E004DC004005D700C005D2004006CD001E
:102C3000D006C8008007C3003008BE00F008B90005
:102C4000C009B400B00AAF00B00BAA00D00CA500B8
:102C5000000EA000500F9B00C01096005012910073
:102C600000148C00C0158700B0178200B0197D00D9
:102C7000D01B7800001E730040206E009022690077
:102C8000F024640040275F0090295A00E02B550093
:102C9000102E500020304B0010324600E03341002F
:102CA00090353C001037370070383200A0392D00C5
:102CB000B03A2800A03B2300603C1E00103D1900E4
:102CC000903D1400103E0F00703E0A00C03E05000B
:102CD000003F0000403FFBFF803FF6FFC03FF1FF99
:102CE0002020506C616E6E65724275666665724238
:102CF000797465733A20002046726565204D656DD4
:102D00006F72793A200020436F6D70696C65643A88
:102D10002041707220323820323032320A00204C8A
:102D200061737420557064617465643A2032303286
:102D3000322D30342D3033207C20417574686F7211
:102D40003A2054696E794D616368696E65733344E6
:102D50000A004D61726C696E20322E302E395F444C
:102D600057372E342E360A0020536F6674776172FF
:102D7000652052657365740A002057617463686446
:102D80006F672052657365740A002042726F776E18
:102D9000206F75742052657365740A00204578743D
:102DA00065726E616C2052657365740A00506F77AE
:102DB000657255700A0073746172740A0047393184
:102DC0000A47315A350A4739300A4D38340A4D31ED
:102DD000303453300A4D3134305330004D313030BF
:102DE00031006F6B006572726F722077726974695F
:102DF0006E6720746F2066696C650A00446F6E65AB
:102E000020736176696E672066696C652E0A004DD5
:102E1000323900456E6473746F707300255320253A
:102E20006320256320256320256300205A3A002073
:102E3000593A0020583A00656E6473746F707320BD
:102E40006869743A200000002100240027002A004D
:102E500000002200250028002B0000002000230095
:102E600026002900020202020202020204040404F3
:102E70000404040403030303030303030101010126
:102E80000101010101020408102040800102040830
:102E90001020408001020408102040808040201053
:102EA00008040201004D6F76652025736D6D004D9D
:102EB0006F766520302E316D6D004D6F7665203157
:102EC0006D6D004D6F76652031306D6D004D6F7604
:102ED000652041786973004D6F766520457874727E
:102EE00075646572004D6F7665205A004D6F76658A
:102EF0002059004D6F76652058005072696E74201D
:102F000066726F6D204D6564696100FFFFFF50724E
:102F10006F62696E67204661696C65640A00507271
:102F20006F62696E67204661696C656400205A3A79
:102F3000200020593A200042656420583A2000229F
:102F40000A00556E6B6E6F776E20636F6D6D616EEC
:102F5000643A2022004572726F7220777269746938
:102F60006E6720746F20454550524F4D210A002056
:102F7000746F6F206C6F6E672065787472757369FB
:102F80006F6E2070726576656E7465640A002063EA
:102F90006F6C6420657874727573696F6E207072DF
:102FA0006576656E7465640A0020453A00205A3AD9
:102FB0000020593A00583A006F6B0A005265736559
:102FC0006E643A2000000000010200090A000000BF
:102FD00000040308070000000000000000000000DB
:102FE0000000000000544D334420456E6465723289
:102FF0002052656164792E005072696E74696E6743
:103000002E2E2E005072696E7420506175736564A7
:10301000002F2F616374696F6E3A00002EE75BEE3C
:1030200011241FBECFEFD0E4DEBFCDBF84B78093A5
:10303000A81814BE0FB6F894A89580916000886116
:1030400080936000109260000FBE12E0A0E0B1E03B
:10305000E2EFF8EF01E00BBF02C007900D92AA3B30
:10306000B107D9F728E1AAEBB2E001C01D92A83A56
:10307000B207E1F718E1CFE0D8E104C02197FE01E3
:103080000E94EAF9CE30D107C9F70E941DE80C94DE
:103090006CFC0C940000FC0184910895FC0180817B
:1030A0000895009751F0FC0180E09191992331F04F
:1030B000907C9038D1F38F5FF8CF80E0089590E056
:1030C00080E00895CF93DF93C091FF06D091000771
:1030D00081E0CE31D105E4F020E030E040E05FE374
:1030E0006091FB067091FC068091FD069091FE06B2
:1030F0000E94F4F90E94E9FA6C1B7D0B77FF03C074
:1031000071956195710981E0633071050CF080E083
:10311000DF91CF910895CF93DF93DB01F9019C916B
:103120009130C1F0943080F094509C938830D1F469
:1031300080819181009771F0019791838083480F7E
:10314000591FEA01188206C08C3539F49C5F9C93A4
:10315000943041F4DF91CF9108958B3339F781E0BA
:103160008C93F8CF20813181B9016F5F7F4F7183DC
:103170006083420F531FEA018883808191818F35DC
:1031800091056CF7E7CF0F931F9381E0009106182C
:1031900010910718209108183091091840910218D1
:1031A00050910318609104187091051804171507C1
:1031B0002607370708F480E01F910F9108952091AA
:1031C0000D04833021F425FD0CC024FD0CC030E03B
:1031D000A90102C0559547958A95E2F7CA01817009
:1031E000089581E0089580E00895082E000C990B61
:1031F000FC01EC59F14DE491EE2391F0F0E0EE0F7B
:10320000FF1FE65AF14DA591B4912C918C57914D29
:10321000FC018491282381E090E021F480E008956E
:1032200080E090E00895082E000C990BFC01EC5909
:10323000F14DE491F0E0EE0FFF1FEA5BF14DA59137
:10324000B4912C918C57914DFC018491822391E093
:1032500009F490E0892F0895CF93C1E020E030E099
:10326000A9016091990470919A0480919B049091B6
:103270009C040E94FDF2811101C0C0E08C2FCF910F
:103280000895ECEAF3E09491981739F0319693E0C1
:10329000E23CF907C1F780E0089581E00895CF93FB
:1032A000DF93C091FF06D0910007209729F160912C
:1032B000FB067091FC068091FD069091FE060E942F
:1032C000E9FA6E5F7F4F24976C177D07ACF470931B
:1032D0000D0560930C050E941AD8605E70448D4FF6
:1032E0009F4F60930E0570930F0580931005909388
:1032F0001105DF91CF91089510920E0510920F05E0
:103300001092100510921105F4CF20911504022E91
:10331000000C330B8217130641F0809315046FE500
:1033200076E186EB96E10C94A1DC0895EF92FF9292
:103330000F931F93CF93DF93EC018B017A018A8562
:103340009B858617970731F0888199810E94A1DCBF
:103350001B870A87B701888199810E94E1D22E815B
:103360003F81820F932F911D9F838E8390E080E099
:10337000DF91CF911F910F91FF90EF9008959F9251
:10338000AF92BF92CF92DF92EF92FF920F931F9373
:10339000CF93DF93EC018B01942EA52E8A859B851C
:1033A0008617970731F0888199810E94A1DC1B87DD
:1033B0000A8788859985019649F5BC800A818E81A6
:1033C000080FC880D980D6015596ED91FC91C601B1
:1033D0000995B80EE92CFA2C10E0F70121917F0134
:1033E000211127C08E819F81810F911D9F838E8324
:1033F00090E080E0DF91CF911F910F91FF90EF90CF
:10340000DF90CF90BF90AF909F9008950E811F8165
:10341000692D7A2D888199810E94E1D2800F912FA8
:10342000911D288539852817390738F681E090E005
:10343000E1CF4B2D602FC6010E94F9DC080F180F59
:10344000CCCFDF92EF92FF920F931F93CF93DF9336
:10345000EC01D62E1CAD0BAD7C0184E0E80EF11C16
:10346000E98DFA8DC7010995412F480F2D2D602F49
:10347000C7010E94F9DC9BAD890F8BAF81E090E022
:10348000DF91CF911F910F91FF90EF90DF90089502
:10349000AF92BF92DF92EF92FF920F931F93CF9361
:1034A000DF938C01EB01D42E79018FE0481709F4EA
:1034B00088C0A5E14A17C1F1BAE04B130EC0EC81F8
:1034C000FD8130E020E042E061E0C80109954BE673
:1034D00055E1BE01C8010E94A4DD0A80DB81C02D38
:1034E000F2E3DF1609F4E4C0FD1508F493C085E1AA
:1034F000D81609F4E2C0A7E1DA1609F4FCC0B4E179
:10350000DB127DC0EE81FF818D8190E0880F991FD5
:103510008E0F9F1F11928E179F07E1F71A828881E5
:1035200081508B831C826BC0AA80BB8046E555E12D
:10353000C8010E94A4DDF5014481440F406BBE0127
:10354000C8010E948CDD41E0BE01C8010E9494DDEB
:10355000D50116962D913C911797EC81FD8115961A
:103560004C9166E0C801099540E0BE01C8010E9487
:103570009CDD46E555E1BE01C8010E94A4DDF501D0
:103580004481440F4F5F406BBE01C8010E948CDD37
:1035900041E0BE01C8010E9494DDD50115964C9111
:1035A000159716962D913C91240F311DEC81FD81CC
:1035B00066E0C801099540E0BE01C8010E949CDD9B
:1035C0008CCF41E0C8010E949CDD40E0BE01C801F3
:1035D0000E9494DD41E8BE01C8010E948CDDF70124
:1035E000408150E05595479555954795BE01C801D6
:1035F0000E948CDD40E0BE01C8010E949CDD81E09C
:10360000DF91CF911F910F91FF90EF90DF90BF90CE
:10361000AF900895E6E4DE1609F47CC0F7E4DF1607
:1036200009F47CC08BE3D812EACFD70111969C91A4
:10363000119713968C9138E0390F813031F0833037
:1036400011F0392F02C0392F985021E04B814917D2
:1036500008F420E041E0391708F040E091E05A8199
:10366000351708F490E0322F342B932311F42423E0
:1036700031F2F701128100E0D12C843048F490E05F
:10368000FC01E159FE4FD08085599E4FDC010C9121
:1036900017FF04C0B701CE010E94D8D8F70180817E
:1036A0008D0D80838181800F8183110F89F7A7CFD2
:1036B000B701CE010E94D8D8A2CF88819A81980FF5
:1036C0009A832981921770F59C819F5F9C839B81CF
:1036D000890F821710F08FEF820F8B83EE81FF81AD
:1036E0008D8190E0880F991F8E0F9F1F11928E176A
:1036F0009F07E1F784CFD7011C928A8111968C93A2
:1037000011978D81815012968C9312978B8113960D
:103710008C9375CF8D81F701808371CF8981D7011B
:103720008C936DCF80E06CCF2F923F924F925F923F
:103730006F927F928F929F92AF92BF92CF92DF92C1
:10374000EF92FF920F931F93CF93DF93162F072FC4
:10375000242EFC0180809180A280B380C501B40139
:1037600020E13EE040E050E00E9445F9E22ED32EF9
:10377000C22FD32F8CE3482E512C612C712CC50104
:10378000B401A30192010E9445F9C62E372ECA0149
:10379000B901A30192010E9445F9F62E772E22204D
:1037A00059F1C501B40120E831E541E050E00E9443
:1037B00045F969017F92FF92CE0168E170E00E94B5
:1037C000C2F99F938F933F932F9385E495E19F9345
:1037D0008F930F931F930E9494F2EDB7FEB73A9622
:1037E0000FB6F894FEBF0FBEEDBF88E0FAE0CF162B
:1037F000D104C8F089E017C0209741F53F92CF92DD
:103800007F936F9389E395E19F938F930F931F931A
:103810000E9494F28DB79EB708960FB6F8949EBF9B
:103820000FBE8DBF85E0DF91CF911F910F91FF906B
:10383000EF90DF90CF90BF90AF909F908F907F9050
:103840006F905F904F903F902F900895C436D105B0
:10385000A8F47F936F93DF92EF928DE295E19F93AF
:103860008F930F931F930E9494F2EDB7FEB7389693
:103870000FB6F894FEBF0FBEEDBFD4CF7F936F930A
:10388000DF92EF9283E295E19F938F930F931F93C3
:103890000E9494F28DB79EB708960FB6F8949EBF1B
:1038A0000FBE8DBF86E0BFCFBC01990F880B990B6F
:1038B0000C9415CCEF92FF920F931F93CF937C0142
:1038C0000091100410911104C0E0F701EC0FF11DFC
:1038D0006081662351F0062E000C770BC8010E9410
:1038E00032FC892B49F4CF5FF0CF80E0CF911F915C
:1038F0000F91FF90EF90089581E0F8CF682F880F27
:10390000770B80911004909111040E9432FCFC010D
:1039100081E0309709F480E0309781F0918120EDCB
:10392000290F2A3030F09E3251F4928190539A3010
:1039300098F43196F0930804E093070408959D32BB
:1039400011F09B3249F4928120ED290F2A3088F33F
:103950009E3211F49381EACFF0E0E0E0EBCFCF921A
:10396000DF92FF920F931F93CF93DF9385E40E9422
:103970007E1C68E0F62E811101C0F12C009110042C
:103980001091110468E570E0C8010E9432FCEC015E
:1039900069E570E0C8010E9432FC6C016AE570E0E4
:1039A000C8010E9432FC21E030E0CD2811F430E063
:1039B00020E0220F331F41E050E0892B11F450E04A
:1039C00040E0CA01880F991F880F991F822B21E0C0
:1039D00030E0CD2B09F420E0822B8F29DF91CF91AD
:1039E0001F910F91FF90DF90CF9008950E947E1C51
:1039F000882341F081E02091070430910804232BB3
:103A000009F480E0089587E097E00C9498C9CF937B
:103A1000DF9300D000D0CDB7DEB780E090E0A0EA21
:103A2000B0E489839A83AB83BC8361E0CE010196C5
:103A30000E9474890F900F900F900F90DF91CF919B
:103A400008958091070490910804009731F04AE0AE
:103A500050E070E060E00C941FF160E070E0CB019A
:103A600008958091070490910804009731F04AE08E
:103A700050E070E060E00C94F1EF60E070E0CB01AA
:103A800008950E94311D97FD0CC00E94311D6F3FAB
:103A900071058105910509F034F40E94311D862FCE
:103AA000089580E008958FEF0895CF93C62F0E9468
:103AB000F61C882319F0CF910C94411D8C2FCF91C7
:103AC00008958091070490910804892B41F00E9489
:103AD000411D91E0811101C090E0892F089591E08E
:103AE000FCCFCF93DF93C82FD62F0E94F61C8823DC
:103AF00021F0DF91CF910C94611D8C2F0E947E1CD0
:103B0000811101C08D2FDF91CF9108950E94311D49
:103B1000CB010895CF93DF93EB010E94F61C88231D
:103B200021F0DF91CF910C94861DCE01DF91CF91D2
:103B300008950F931F93CF938091070490910804E9
:103B40000097E9F0FC018F01C1912C2F2F7D81F0AE
:103B5000C53411F0C536B9F7F801108270E060E0A5
:103B60000E9493EEF801C083CF911F910F910895A9
:103B700070E060E0CF911F910F910C9493EE60E0A4
:103B800070E0CB01F1CFCF92DF92EF92FF926A010A
:103B90007B010E94F61C882331F0FF90EF90DF90AC
:103BA000CF900C94991DC701B601FF90EF90DF9064
:103BB000CF900895CF92DF92EF92FF92CF93C82FCC
:103BC0000E941AD86B017C0124EA30E74DE75FE3DD
:103BD00060911A0170911B0180911C0190911D014F
:103BE0000E94FDF287FD18C08AEF90E0A0E0B0E0EF
:103BF0008C0D9D1DAE1DBF1D8093510490935204EA
:103C0000A0935304B0935404C0931801CF91FF9034
:103C1000EF90DF90CF90089580E090E0DC01E8CF56
:103C2000FC01A081B1811C92A281B3818C918F5F34
:103C30008C930280F381E02D90818CE0989F800D21
:103C40001124E2EBF6E113AE84AF0895FC0180E0AD
:103C5000309749F09491992331F0907C903809F095
:103C60008F5F3196F7CF0895AF92BF92CF92DF92D8
:103C7000EF92FF920F931F93CF93DF93EC015B01C1
:103C80008A01FB01099587FD16C0C82ED12CF12CA5
:103C9000E12C2196F801C082D182E282F382CE012A
:103CA000DF91CF911F910F91FF90EF90DF90CF9018
:103CB000BF90AF900895982F907E903CA9F48F719B
:103CC00090E0B0E0A0E06C017D0156E0CC0CDD1C82
:103CD000EE1CFF1C5A95D1F7CE010196F50109950E
:103CE0008F73C82A2296D6CF982F907F903E11F5D9
:103CF0008F7090E0B0E0A0E06C017D0136E0CC0C6C
:103D0000DD1CEE1CFF1C3A95D1F7CE010196F501A2
:103D100009958F73C82A46E0CC0CDD1CEE1CFF1CF5
:103D20004A95D1F7CE010296F50109958F73C82AFD
:103D30002396B0CF982F987F903F79F5877090E0C9
:103D4000B0E0A0E06C017D0186E0CC0CDD1CEE1C37
:103D5000FF1C8A95D1F7CE010196F50109958F7365
:103D6000C82A96E0CC0CDD1CEE1CFF1C9A95D1F7FE
:103D7000CE010296F50109958F73C82A26E0CC0C76
:103D8000DD1CEE1CFF1C2A95D1F7CE010396F50130
:103D900009958F73C82A24967DCF982F907C9038F0
:103DA00041F4807C803869F42196CE01F5010995B3
:103DB000F8CF8E7F8D3F28F02196CE01F501099531
:103DC000F8CFC12CD12C760165CF9CE0899F802D46
:103DD000112491E0980F909316042CE0280F209363
:103DE0003C0730E02E5F3F4F4091EA164217130622
:103DF00019F014F080E008952091EC169217D0F796
:103E0000662341F08E5F0E9462DA80913C078E5FEC
:103E10000E9462DA80913C079091EA16891750F36C
:103E20002091EC1690911604291720F31092ED16AC
:103E30008093EE1681E008951F93CF93DF931F9236
:103E4000CDB7DEB7109142018091EF16811105C008
:103E500081E08093EF160E9436D96091B816709178
:103E6000B91619839E012F5F3F4F4FE086EB96E115
:103E70000E940BD90F90DF91CF911F910895CF939E
:103E80008091180481114EC01092ED161092EE161A
:103E90001092EF161092BB161092BA161092BD1621
:103EA0001092BC161092BF1681E08093BE1682E27B
:103EB0008093C0161092C5161092C416E9EDF6E173
:103EC0008FEF819396E1E73EF907D9F7C1E0C09300
:103ED000D61629E13AEB3093CC162093CB16C0933B
:103EE000CD161092CE161092CF1690E49093D01665
:103EF0001092D11628E13AEB3093E8162093E7169A
:103F000020E131E03093B9162093B8169CE19093EC
:103F1000DB169EE19093DA168093D9160E9436D96B
:103F2000C093180480914201883708F488E7809391
:103F300042010E941C1F81E08093170486EA95E1EC
:103F40009093FD158093FC151092FF151092FE15AD
:103F500053985B9A52985A9A3898409A0E94FFB5A3
:103F600010926104CF910C94D7CACF92DF92EF9256
:103F7000FF920F931F93CF93DF93CDB7DEB72C97AC
:103F80000FB6F894DEBF0FBECDBF6F3F7105810540
:103F9000910509F0D0F482EB96E10E94211AE0919C
:103FA000BA16F091BB163196849190E02C960FB61C
:103FB000F894DEBF0FBECDBFDF91CF911F910F915F
:103FC000FF90EF90DF90CF900895F090ED16E09085
:103FD000EE162091170421110FC043E055E16E2D1C
:103FE0008F2D0E9465DD90E080E0F80EF092ED16D6
:103FF000E092EE169927DACFC090BA16D090BB1691
:1040000026EB36E13A8329832F2D30E03C832B8346
:104010002E2D30E03E832D8318861F822FEF3FEF39
:104020003A8729871C861B860FEB19E19E012F5FBB
:104030003F4FAB01BC01C6010E94A7C9B60186EB88
:1040400096E10E94A1DC8F819885CFCFCF92DF923D
:10405000EF92FF920F931F93CF93DF93CDB7DEB70D
:104060002C970FB6F894DEBF0FBECDBFF090ED16C3
:10407000E090EE162091170421111DC043EE54E18B
:104080006E2D8F2D0E9465DD90E080E0F80EF0929D
:10409000ED16E092EE1699272C960FB6F894DEBF37
:1040A0000FBECDBFDF91CF911F910F91FF90EF9089
:1040B000DF90CF900895C090BA16D090BB1626EB33
:1040C00036E13A8329832F2D30E03C832B832E2D3C
:1040D00030E03E832D8318861F827A8769871C868D
:1040E0001B860FEB19E19E012F5F3F4F4BE458E118
:1040F000BC01C6010E946BCAB60186EB96E10E9424
:10410000A1DC8F819885C2CF8F929F92AF92BF9290
:10411000CF92DF92EF92FF920F931F93CF93DF9393
:1041200000D000D0CDB7DEB77C01062F5A01122F88
:10413000862F660F990B9C0129593E4F690186E035
:10414000882E912C11160CF040C0AE014F5F5F4FCE
:104150006BE478E1C7010E94341E7C0169817A8199
:104160008B819C81611571058105910571F16D331C
:1041700071058105910509F462C06E3771058105ED
:10418000910509F45CC06A3271058105910579F5E4
:1041900007FF12C08CE995E10E3F11F088E995E127
:1041A00036E01302B00111240E94262066E070E080
:1041B0000E94D6F9161B73C065E470E080E090E0C1
:1041C0000E94B51F1150E9F510E0812F0F900F905C
:1041D0000F900F90DF91CF911F910F91FF90EF9073
:1041E000DF90CF90BF90AF909F908F9008956432F2
:1041F00071058105910579F4A114B104E1F0E6E0BF
:104200001E02B0011124C5010E942620B4010E94A3
:10421000D6F9161B97CF603471058105910559F4C5
:104220001150F6016081062E000C770B880B990B5C
:104230000E94B51F87CF0E94B51F115083CF07FD85
:10424000A9CF61E089819A81AB81BC81CD97A1051D
:10425000B10509F460E0600F6A30ACF01150862FB0
:104260006AE00E94B4F9092F682F880F770B605D10
:104270007F4F072E000C880B990B0E94B51F11234E
:1042800009F4A2CF602F062E000C770B605D7F4FE4
:10429000072E000C880B990B0E94B51F115011239B
:1042A00009F492CF86E01802B0011124C7010E94E0
:1042B000262066E070E00E94D6F9161B86CFCF92CA
:1042C000DF92EF92FF920F931F93CF93DF93CDB7BF
:1042D000DEB72C970FB6F894DEBF0FBECDBFF090BF
:1042E000ED16E090EE162091170421111DC043EC4D
:1042F00054E16E2D8F2D0E9465DD90E080E0F80E78
:10430000F092ED16E092EE1699272C960FB6F894DF
:10431000DEBF0FBECDBFDF91CF911F910F91FF90F8
:10432000EF90DF90CF900895C090BA16D090BB1652
:1043300026EB36E13A8329832F2D30E03C832B8313
:104340002E2D30E03E832D8318861F827A87698761
:104350001C861B860FEB19E19E012F5F3F4F4EE439
:1043600058E1BC01C6010E946BCAB60186EB96E11A
:104370000E94A1DC8F819885C2CF6FEF7FEF0C94F4
:104380005F21AF92BF92CF92DF92EF92FF920F9395
:104390001F93CF93DF935C016B010E94261EE82ED2
:1043A000C6010E945118F12C03E110E0081B11090D
:1043B000C5E20E151F050CF4CFE18C2F90E09C0197
:1043C0002E5F3F4F4091EA164217130609F0CCF5D5
:1043D00009972091EC16281719069CF140913E0789
:1043E00050913F0760913D071092ED16C093EE1675
:1043F00025E1C5010E948420D1E0C114D104B1F0AF
:104400006AE370E080E090E00E94B51F0E151F0582
:10441000D4F4C45F8091EA16C81740F02091EC16DE
:104420004C2F4950550B241715067CF4DF91CF9182
:104430001F910F91FF90EF90DF90CF90BF90AF90C2
:104440000895D0E0DACFDD2389F3802F880F080F9D
:10445000000F0093ED16C093EE1660E270E080E06E
:1044600090E00E94B51FC601DF91CF911F910F917F
:10447000FF90EF90DF90CF90BF90AF900C94BD2154
:104480008F929F92AF92BF92CF92DF92EF92FF9264
:104490000F931F93CF93DF93CDB7DEB72C970FB653
:1044A000F894DEBF0FBECDBF982F862F5A01790139
:1044B000D02E692F0E94E51E882309F489C010912F
:1044C0001704C701002381F10E94261EC82E809088
:1044D000BA169090BB16111143C01FEF23E12C199F
:1044E00040913E0750913F0760913D07C5010E94F2
:1044F0008420CC2009F46CC0B6E08B9F50011124BD
:104500006AE370E080E090E00E94B51F57E0A516D6
:10451000B10408F442C060E270E080E090E00E94E4
:10452000B51FA81AB90AF2CF0E945118C82E809060
:10453000BA169090BB16112381F2FE0133968AE0E1
:10454000DF011D928A95E9F786EB96E19A838983CC
:1045500006E919E19E012F5F3F4F4EE458E112C07A
:10456000FE0133968AE0DF011D928A95E9F786EB1A
:1045700096E19A83898306E919E19E012F5F3F4FF7
:104580004BE458E1B701C4010E946BCAB40186EB49
:1045900096E10E94A1DC1F81A1CF40913C07212F11
:1045A00030E0A6E0CA9EC00111242E5F3F4F2817BD
:1045B00039070CF49C0180E8821B8093ED16409330
:1045C000EE16DD20C1F06FEF7FEFC7010E942620BD
:1045D0002C960FB6F894DEBF0FBECDBFDF91CF9102
:1045E0001F910F91FF90EF90DF90CF90BF90AF9011
:1045F0009F908F900895C7010E94BD21E9CF0C9430
:1046000015CC0F931F93CF9310920F0410920E04AA
:104610002FE32093140410921304109212049C01AF
:10462000F90190812F5F3F4F9032D1F39E34C9F44E
:10463000818190ED980F9A3020F08D3211F08B32FD
:1046400081F432969F012F5F3F4F808180538A30E3
:1046500008F468C09F012F5F3F4F8081803209F4CA
:1046600063C0F0934B07E0934A078F010F5F1F4F22
:10467000C0816AE270E0C8010E9432FC009731F00C
:10468000FC01319780818032E1F31182CD3429F031
:10469000C43519F0C73409F041C0F80180810F5FBB
:1046A0001F4F8032D1F380538A30C0F5C093140479
:1046B00030E020E06AE0AF014F5F5F4F629FC001D2
:1046C000639F900D11249C01205331098081280F94
:1046D000311D87FD3A95FA01808180538A3058F365
:1046E0003093130420931204CA01FC010196408107
:1046F0004032D9F3F0931104E0931004CD3401F566
:104700002E31310539F090F42731310519F02C3173
:104710003105B1F4F0930F04E0930E04CF911F9193
:104720000F910895F9018ECFF90194CF2537310506
:1047300038F02737310570F3203A83E0380751F31A
:1047400050E040E0CF0101966081662309F45AC031
:10475000613291F4CD3481F42032310569F49093C3
:104760000F0480930E0463E270E00E9432FC009715
:10477000A9F2FC011082D2CFFC01DF018D918032C1
:1047800071F090ED980F9A3008F18E3251F49181CA
:1047900090539A30D8F041155105E1F414C0FD0151
:1047A000ECCF8D3211F08B3259F4918160ED690FAD
:1047B0006A3060F09E3221F4928190539A3030F04A
:1047C0004115510519F4AF014150510981548A3105
:1047D00008F4B8CFDF01FD018D91882309F4B2CF31
:1047E00090ED980F9A30B8F393ED980F923098F3BC
:1047F0008B3289F3CF0101966081603209F0A2CF3C
:10480000FC01F8CF50930F0440930E0487CFFC01B6
:1048100065917591859194910895809141078823C0
:1048200019F080E00E94169080E00895CF93C82F81
:10483000882321F00E942C198823D9F080918F04BD
:104840008C17B9F00E94EA7B80918F04882349F08D
:1048500082E89CE00E94257C10928F04CF910C94FA
:104860004C8A81E080938F0482E89CE00E940D7C5A
:10487000F5CFCF9108954F925F926F927F928F9272
:104880009F92AF92BF92CF92DF92EF92FF920F93DF
:104890001F93CF93DF93EC01209191043091920408
:1048A0004091930450919404688179818A819B811D
:1048B0000E94F3F96B017C012091950430919604DC
:1048C00040919704509198046C817D818E819F81E5
:1048D0000E94F3F94B015C01A70196016091FF036F
:1048E0007091000480910104909102040E94FDF2F5
:1048F000882309F450C0C092FF03D0920004E092D4
:104900000104F09202042091F7033091F8034091E2
:10491000F9035091FA03C701B6010E9463F32B011A
:104920003C010E941FFB6B017C0120E030E0A901EB
:104930000E94FDF287FD70C020E030E040E450E4CA
:10494000C701B6010E9477FB18162CF4C12CD12C9C
:10495000C0E4EC2EFE2CA7019601C301B2010E9417
:10496000F3F96093EF037093F0038093F103909356
:10497000F203C701B6010E94E9FA6093ED03062E27
:10498000000C770B6F5F7F4F6430710514F064E0AB
:1049900070E06093EB03D091E9031091ED03A50162
:1049A0009401609103047091040480910504909136
:1049B00006040E94FDF2811133C0D11381C0209101
:1049C000D1033091D2034091D3035091D40360912D
:1049D000EF037091F0038091F1039091F2030E9434
:1049E00063F32091D5033091D6034091D7035091C2
:1049F000D8030E94F4F9DF91CF911F910F91FF909E
:104A0000EF90DF90CF90BF90AF909F908F907F906E
:104A10006F905F904F900895C12CD12C76019BCF61
:104A20008092030490920404A0920504B0920604BC
:104A30002091FB033091FC034091FD035091FE0354
:104A4000C501B4010E9463F34B015C010E941FFB8E
:104A50006B017C0120E030E0A9010E94FDF287FD9E
:104A6000F3C020E030E040E450E4C701B6010E940A
:104A700077FB18162CF4C12CD12CB0E4EB2EFE2CB5
:104A8000A7019601C501B4010E94F3F96093F303F5
:104A90007093F4038093F5039093F603C701B60176
:104AA0000E94E9FA6093EE03062E000C770B6F5F0D
:104AB0007F4F6430710514F064E070E06093EC03A4
:104AC000C091EE03D11305C08091EA038C1709F45D
:104AD00070C08091ED039091EE039093EA03809370
:104AE000E9030C2E000CDD0B25E01203C00111249C
:104AF000FC01EC0FFD1FEE0FFF1FEE0FFF1FEA552D
:104B0000FB4F20813181428153812093E503309313
:104B1000E6034093E7035093E8030091EC03002E73
:104B2000000C110BFC01E00FF11FEE0FFF1FEE0F49
:104B3000FF1FEA55FB4F60817181828193810E9442
:104B4000F3F96093E1037093E2038093E30390939E
:104B5000E4032091EB0335E02303F0011124CE0F91
:104B6000DF1FCC0FDD1FCC0FDD1FCA55DB4F2881A7
:104B700039814A815B812093DD033093DE034093CA
:104B8000DF035093E003E00FF11FEE0FFF1FEE0F66
:104B9000FF1FEA55FB4F60817181828193810E94E2
:104BA000F3F96093D9037093DA038093DB03909356
:104BB000DC038090F3039090F403A090F503B09091
:104BC000F6032091E1033091E2034091E303509119
:104BD000E403C501B4010E9463F32091E503309121
:104BE000E6034091E7035091E8030E94F4F96B015A
:104BF0007C01C092D503D092D603E092D703F09205
:104C0000D8032091D9033091DA034091DB0350910E
:104C1000DC03C501B4010E9463F32091DD033091F0
:104C2000DE034091DF035091E0030E94F4F9A701F5
:104C300096010E94F3F96093D1037093D20380939D
:104C4000D3039093D403BBCEC12CD12C760118CFC3
:104C5000EFEFF3E080EF9FEFA9E7B4EC8483958357
:104C6000A683B78380839183A283B383E9EEF3E0C5
:104C70008DE98183808308958F929F92AF92BF9236
:104C8000CF92DF92EF92FF92FC0198E0A9E9B4E0A5
:104C900001900D929A95E1F788E0FB01A1E9B4E05B
:104CA00001900D928A95E1F7C0909904D0909A04F2
:104CB000E0909B04F0909C0420E030E0A901C70143
:104CC000B6010E94FDF28823E1F1A701960160E0A0
:104CD00070E080E89FE30E9477FA6B017C0180908E
:104CE0009D0490909E04A0909F04B090A00420E0AA
:104CF00030E0A901C501B4010E94FDF2882329F129
:104D0000A501940160E070E080E89FE30E9477FADB
:104D1000C092F703D092F803E092F903F092FA03FD
:104D20006093FB037093FC038093FD039093FE0359
:104D3000FF90EF90DF90CF90BF90AF909F908F90BB
:104D40000895C12CD12C7601CACF60E070E0CB0170
:104D5000DFCF10929504109296041092970410924F
:104D6000980410929104109292041092930410925D
:104D7000940410929D0410929E0410929F0410922D
:104D8000A0041092990410929A0410929B0410921D
:104D90009C04E6EAF4E02AE035E080E090E0A0EC54
:104DA000BFE780839183A283B38384839583A683A3
:104DB000B78380879187A287B38784879587A687E3
:104DC000B787808B918BA28BB38B74962E173F077E
:104DD00041F70895EFE6F0E08081826080830895D6
:104DE0004F925F926F927F928F929F92AF92BF92FB
:104DF000CF92DF92EF92FF92CF93DF9300D000D05B
:104E0000CDB7DEB70E941AD86B017C0180911801E2
:104E10008F3FC1F10E941AD88090510490905204A3
:104E2000A0905304B0905404681979098A099B0929
:104E300097FD28C080919E1690919F168F5F8F706E
:104E4000891701F1E0911801E43008F0DCC024E09A
:104E5000E29FF0011124ED58FE4F80819181A281E3
:104E6000B38189839A83AB83BC8320E030E0A901BE
:104E7000BE016F5F7F4F82E89CE00E94B8CD8FEF4C
:104E8000809318010E94FFB58091620482FFC4C024
:104E90008091600481111DC091E090936004809125
:104EA00067048927809324071092670483E0809326
:104EB0005601109262040E941AD86C507E4F8F4F98
:104EC0009F4F609363047093640480936504909390
:104ED000660480915C0490915D04A0915E04B091A1
:104EE0005F04A7019601281B390B4A0B5B0BDA0103
:104EF000C901B7FF05C080916A04882309F4DEC1A7
:104F0000D701C6018C599F4FAF4FBF4F80935C04B0
:104F100090935D04A0935E04B0935F04609161047C
:104F2000062E000C770B77FF03C071956195710910
:104F30009091610480915B04981371C0633008F014
:104F40006EC0109261048091610480935B046530AF
:104F500008F077C0809124078111FAC08091B016C3
:104F60009091B116875D994241F48091190188238F
:104F700009F405C18150809319010E94137E80902D
:104F8000720790907307A0907407B0907507811115
:104F90000E94EA26D501C4013AE0B695A7959795F7
:104FA00087953A95D1F7009741E0A407B10520F025
:104FB0008FEF9FEFA0E0B0E0969587952091560186
:104FC0002111EFC030916A043111A4C18091B01653
:104FD0009091B116875D994209F483C180912507AC
:104FE00081117FC18091570490915804A091590478
:104FF000B0915A04C81AD90AEA0AFB0AF7FC7FC121
:105000000E94F99D7CC18091570190915801A09117
:105010005901B0915A0125CF109260045ACF8DEFFB
:10502000860F823008F08FCF8091610491E087FD78
:105030009FEF892F880F880F890F8093610465E0A7
:1050400082CF80913B07812C912C5401839488233B
:1050500009F459C08090370790903807A09039071D
:10506000B0903A0781149104A104B10409F482C0FC
:1050700070E090E080E00E9402F320E030E040EA3F
:1050800050E40E9477FA2B013C01C701B601681970
:1050900079098A099B090E9402F39B01AC01C301B3
:1050A000B2010E9477FA20E030E04AE754E40E941F
:1050B00063F32B013C0120E030E042E053E40E9426
:1050C00077FBE4E68E2E912CA12CB12C87FF04C037
:1050D000812C912C5401839420E030E040EA52E48A
:1050E000C301B2010E9477FB87FD05C06AE0862EEE
:1050F000912CA12CB12CC0923707D0923807E092A6
:105100003907F0923A07A09161040A2E000CBB0BFC
:10511000A50194010E9491F925E030E040E050E0C3
:105120000E9467F980912B0790912C07A0912D0781
:10513000B0912E07820F931FA41FB51F80932B07DA
:1051400090932C07A0932D07B0932E071092610423
:10515000D701C6018856954CAF4FBF4F8093570477
:1051600090935804A0935904B0935A0481E080931B
:105170005601F4CE812C912C54018394BCCF8CE049
:10518000809319018091550490915604009729F05D
:105190000197909356048093550481E080935601C3
:1051A000ECCE009741F040915504509156044817B9
:1051B000590708F00BCF80916A0481111DC022307D
:1051C00038F0243008F44CC0243011F41092560109
:1051D0008091EF16811105C081E08093EF160E9447
:1051E00036D98091B8169091B9160E940FD981E0F6
:1051F00080932A0780936A0483E00E94851981E0E6
:105200008093D616E091B016F091B11609951092E0
:105210002A0780916A04811127C010922407809187
:10522000B0169091B116875D994209F0D7CE0E94D1
:105230001AD8DC01CB018C199D09AE09BF098090F9
:10524000550490905604B12CA12C88169906AA06F4
:10525000BB0608F0BBCE9093560480935504B6CE9F
:1052600081E080935601B4CF86EB96E10E946FDC1B
:1052700091E0811101C090E090936A04882369F263
:105280008091B0169091B116875D9942B9F40E9451
:105290001AD8DC01CB018C199D09AE09BF09C09059
:1052A0005504D0905604F12CE12CC816D906EA0614
:1052B000FB0620F490935604809355040F900F90B2
:1052C0000F900F90DF91CF91FF90EF90DF90CF90F4
:1052D000BF90AF909F908F907F906F905F904F9016
:1052E000089548E9C40E4AE3D41EE11CF11CC092A3
:1052F0005704D0925804E0925904F0925A048091D5
:105300006A048111DBCF809156018130B9F6109289
:105310005601D4CF009709F46FCF45CF809147074E
:1053200090914807892B79F480914707909148071D
:10533000892B49F4209147073091480781E0232BBE
:1053400019F480E0089581E00895CF92DF92EF9202
:10535000FF926B017C0183E3C816D104E104F104E0
:1053600070F082E3C81AD108E108F10862E370E046
:1053700080E090E00E947FD70E941E96ECCFC7018C
:10538000B6010E947FD7FF90EF90DF90CF900C94F2
:105390001E9690910A1894FB882780F994FF06C006
:1053A00081E090910516911101C080E008954F921F
:1053B0005F926F927F928F929F92AF92BF92CF92A5
:1053C000DF92EF92FF920F931F93CF93DF93CDB7AE
:1053D000DEB72C970FB6F894DEBF0FBECDBF10928C
:1053E0003B07E091CE15F091CF15309721F009954C
:1053F00081110E94D7CA8091240710922407882324
:10540000F9F020E040E070E060E08AE193EB0E9478
:10541000A79C2C960FB6F894DEBF0FBECDBFDF91D0
:10542000CF911F910F91FF90EF90DF90CF90BF90A1
:10543000AF909F908F907F906F905F904F90089566
:1054400020911E0130911F0140912B0750912C0794
:10545000CA01820F931F2436310509F0EAC3473091
:10546000510544F006978A3091050CF0F1C38AE0AB
:1054700090E0F8C306964A3F5F4FACF380912A074D
:10548000882309F4BBC12091920C3091930C409178
:10549000940C5091950C6091820C7091830C8091CA
:1054A000840C9091850C0E94F4F94B015C012091D1
:1054B000960C3091970C4091980C5091990C6091FA
:1054C000860C7091870C8091880C9091890C0E94B9
:1054D000F4F969877A878B879C8720919A0C3091A1
:1054E0009B0C40919C0C50919D0C60918A0C70918A
:1054F0008B0C80918C0C90918D0C0E94F4F92B01F7
:105500003C0120E030E040E251E40E9463F320E0FF
:1055100030E048EC52E40E9463F36B017C0120E030
:1055200030E0A901C301B2010E94FDF220E030E0A9
:1055300040EA50EC87FD04C020E030E040EA50E44F
:10554000C701B6010E94F4F920E030E040E251E4E6
:105550000E9477FA0E94E9FA2B013C0180E277FE73
:1055600009C07094609450944094411C511C611C7B
:10557000711C8DE280932F0760E2F0E14F16F7E295
:105580005F06610471048CF0C301B20120E137E2CF
:1055900040E050E00E9467F9CA01B9012AE030E01A
:1055A00040E050E00E9467F9605D6093300760E280
:1055B00028EE421623E05206610471048CF0C30108
:1055C000B20128EE33E040E050E00E9467F9CA01E2
:1055D000B9012AE030E040E050E00E9467F9605DE8
:1055E00060933107C301B20124E630E040E050E0AF
:1055F0000E9467F98AE0C82ED12CE12CF12CCA0157
:10560000B901A70196010E9467F9605D60933207B6
:10561000C301B201A70196010E9467F9162FCA01C2
:10562000B901A70196010E9467F9112309F42AC361
:105630008EE280933307605D60933407105D1093B2
:1056400035076FE277E089E494E00E943DFC20E0BA
:1056500030E0A901C501B4010E94FDF220E030E074
:1056600040E05FEB87FD04C020E030E040E05FE316
:10567000C501B4010E94F4F90E94E9FACB010E942D
:105680001093BC0184E494E00E943DFC20E030E0F3
:10569000A90169857A858B859C850E94FDF220E0B1
:1056A00030E040E05FEB87FD04C020E030E040E008
:1056B0005FE369857A858B859C850E94F4F90E9459
:1056C000E9FACB010E941093BC018FE394E00E94A1
:1056D0003DFC0E94A5AD7C010E9474924B015C01CF
:1056E0008D829E82AF82B886162F809117018E150B
:1056F000E1F0E0921701C70164E670E00E94C2F990
:1057000028E4269FC001279F900D1124BC0190E042
:1057100080E00E9402F32AE037ED43E25CE30E945E
:1057200063F30E94F0FA60933E048091160118170B
:1057300009F464C08092160141E060E8861661E5D4
:10574000960661E0A606B10408F440E06EE274E05B
:10575000CE0105960E94941B982F990F990F891BD3
:10576000855A80932D04882D837009F047C02091BD
:10577000290430912A0440912B0450912C042115C6
:1057800031054105510509F08FC20E9474924B0109
:105790005C010E94A5ADFC01009799F0A0E1B7E281
:1057A000A81BB90BA50194010E9486F99F0150E046
:1057B00040E00E9445F9211531054105510509F0E8
:1057C00073C2E114F104A9F0A0E1B7E2AE19BF0978
:1057D0002D813E814F8158850E9486F9970150E0C6
:1057E00040E00E9445F9211531054105510509F0B8
:1057F0005BC210921F048BE580931E040E941AD88E
:1058000000911A0410911B0420911C0430911D0476
:105810006B017C01C01AD10AE20AF30A97018601E2
:1058200037FD11C0209119042095209319046A5462
:105830007C4F8F4F9F4F60931A0470931B0480938B
:105840001C0490931D04F090190481E00E948519B6
:105850008091EA16843160F48091EC16883040F033
:105860000BE316E12CE043E068E080E50E94AED94E
:105870008091EA168431A0F48091EC16823080F099
:10588000FF2031F08091760705E016E1811102C01A
:105890000FEC15E122E143E062E088E60E94AED918
:1058A0008091EA168C3108F0B1C080901A05909072
:1058B0001B05A0901C05B0901D05C0901E05D09042
:1058C0001F05843160F48091EC16883040F007EBBE
:1058D00015E12CE042E068E088E00E94AED98091BA
:1058E000EA16883070F4D7FEF8C186E08093ED1692
:1058F00087E08093EE166FEF7FEF83EB95E10E94D8
:1059000026208091EA168C31E0F48091EC168431E7
:10591000C0F020E030E040E05FE3C501B4010E9448
:10592000F4F90E94E9FA77FF01C286E08093ED1650
:105930008CE18093EE166FEF7FEF83EB95E10E9491
:1059400026208090FB069090FC06A090FD06B0906B
:10595000FE068091EA16883090F48091FF069091BF
:10596000000797FF0CC281E58093ED1687E08093D6
:10597000EE166FEF7FEF83EB95E10E94262080917A
:10598000EA168C31E0F48091EC168431C0F020E00E
:1059900030E040E05FE3C501B4010E94F4F90E94E9
:1059A000E9FA77FF14C281E58093ED168CE18093CC
:1059B000EE166FEF7FEF83EB95E10E94262080913A
:1059C000EA168C3118F58091EC168431F8F080914C
:1059D00076078823D9F064E6869FC0011124815898
:1059E0009F4F6FEF70E00E94D6F9CB010E948F931A
:1059F00027E62093ED162CE12093EE160E94BD21A0
:105A000065E270E080E090E00E94B51F0E94C92925
:105A1000882369F18091EA16843348F58091EC1669
:105A20008A3228F107E028E04AE26AE286EB96E152
:105A30000E94A7DA05E022E04CE262E386EB96E101
:105A40000E94A7DA6AE08AE20E947BDA6091B816C7
:105A50007091B91682E38093D2168BE28093D316AD
:105A600022ED36E142E386EB96E10E940BD980916C
:105A7000EA16853340F48091EC16813320F06AE415
:105A800086E30E947BDA8091EA16843368F4809181
:105A9000EC16823348F002E020913E0442E367E3D3
:105AA00086EB96E10E94A7DA8091EA168033E8F44B
:105AB0008091EC168832C8F0FF2009F4B1C18091C2
:105AC0001F04882309F4ACC180911E048093ED1655
:105AD00080E38093EE1662E570E080E090E00E9443
