:100000000C949F260C94DF260C94DF260C94DF269C
:100010000C94DF260C94DF260C94DF260C94DF264C
:100020000C94DF260C94DF260C94DF260C94DF263C
:100030000C94DF260C94DF260C94DF260C94DF262C
:100040000C94DF260C9425A30C94DF260C94DF2659
:100050000C94DF260C94C0A10C94DF260D94285438
:100060000C94DF260C94CA4E0C94C04E0C94DF26E0
:100070000C94DF260C94DF260C94DF260C94DF26EC
:100080000C94DF260C94DF260C94DF260C94DF26DC
:100090000C94DF260C94DF260C94DF260C94DF26CC
:1000A0000C94DF260C94DF260C94DF260C94DF26BC
:1000B0000C94DF260C94DF260C94DF260C94DF26AC
:1000C0000C94DF260C94DF260C94DF260C94DF269C
:1000D0000C94DF260C94DF260C94DF260C94DF268C
:1000E0000C94DF26084AD73B3BCE016E84BCBFFD93
:1000F000C12F3D6C74319ABD56833DDA3D00C77FF8
:1001000011BED9E4BB4C3E916BAAAABE0000008090
:100110003F05A84CCDB2D44EB93836A9020C50B91F
:10012000918688083CA6AAAA2ABE000000803F004B
:100130000C94C2E60C945EF40C9429E60C94554F92
:100140000C9481910C94E3EF0C94ECD50C94B2E5F3
:100150000C942BEF0C94D5E40C949BE50C944C3F41
:100160000C94278D0C9488F60C94F7F20C94C43EF2
:100170000C94C1E40C94DDE50C949C940C949D9239
:100180000C94D5E80C94BDE80C94B8280C94E23E8D
:100190000D94D3150C9497A80D94052C0D94581319
:1001A0000D94F72B0C94A1E70C943AE80C9474513D
:1001B0000C9475520C944E3F0C94D3E80C94CDFFE4
:1001C0000C945ED20C944B520D94122C0C94684FEC
:1001D0000C946BE50C94EBF80C94548E0C9409E59C
:1001E0000D94BA090D94DC5F0D94BB150C9434E7A3
:1001F0000D94F1150D943C2C0C94063F0C94B69084
:100200000C9400F40C94644F0D946E010C9414E75C
:100210000D940F1A0D943C2D0C94E4F30D94F715E6
:100220000D9448160C9441E90C946CD20C9430E770
:100230000C94E9E40C9410FB0C940FE30D94FB2850
:100240000C945F940C947F510D94461F0C9423439F
:100250000D94C7150C9468F00D9478010D94202C22
:100260000C945A940C9494280C94EAF30D94CF06B1
:100270000C94FAF30C94F0F30C9467510C941BD982
:100280000C943FEF0D94DB160C9471FA0C94D3F39D
:100290000C9439E50C9445930C9490520C94D1E84D
:1002A0000C94B5940C94604F0C94D7E80D942A2CC0
:1002B0000C9495920C9438E70C9419A20D94372C59
:1002C0000D945E0B0C94798F0C9425F00C94A58BF7
:1002D0000C946AF10C94DEF30C9426E90C944329F7
:1002E0000C9478510C941AE70C94AA520C942BE5B8
:1002F0000C9483520C941DE50C94D9E80C94CBF922
:100300000C94FB510C94E3F20C94AFE20C94BE29D4
:100310000C94704F0C947B4F0C94DE8F0C948FF7E1
:100320000C9493510D942E2C0C94018F0C9499D70E
:100330000C9433EF0C941DE30C94FDF30C94C1E882
:100340000C9481E80C9437510C9417520C94503F44
:100350000C9440930D94092C0D94F8100C94E12604
:100360000C94F8F30D94CD150D94501F0C94283F68
:100370000C94CFE80C9487E50C947B510C943BEFE4
:100380000C94374F0C944DE50C9464940C94E12834
:100390000C9461E50C9489900C9461F40C94E48EB7
:1003A0000D94BC160C9483940C94EEEF0C94855130
:1003B0000D94DF150C9451F00D94012C0C946539BB
:1003C0000D9429280C94FDEC0C942FEF0C94F6E27C
:1003D0000C94F1510C94E4260D94FD150C94F3F358
:1003E0000C946C4F0C94778E0C94A28B0C94744FDD
:1003F0000C948C510C94DAE50C9471EC0C94B83E8E
:100400000C94CBD30C947AE70C945C4F0C9409E7D2
:100410000C949A8F0C941F8B0C94EDF30C94859292
:100420000D94322C0C94CBE80C9477E80C943D524C
:100430000C9486FC0C94043F0D94FD040C94509491
:100440000C948CE70D949D030C94C3F20C940DE76F
:100450000D948F0C0C94F7FD0C948E4F0C9486F435
:100460000D949B280C94864F0D94652C0D94922C22
:100470000C9467520C94CDE80C946BEC0D9403161D
:100480000C94C9E50D94382C0C943C510C9494E6D2
:100490000D940C2C0C9450C50C94B7520C947151C3
:1004A0000C9431520C9409520C9427EF0C946A511D
:1004B0000C94084F0C9425520C9423EF0D947C2837
:1004C0000C94CA510C941FEF0D94C1150C949651C5
:1004D0000C9459520C949D520C9487E70C94F3E4BD
:1004E0000C94ABE60C94083F0D941C2C0C942A3F02
:1004F0000C9479E50C9437EF0D94F5290C947790D2
:100500000D944B1F0C94E43E0C94A18B0C9417E7B4
:100510000C942C3F0C9482510C9470E70C945594DD
:100520000C946E510C9404F00C94F98F0C94E1F33C
:100530000C94464F0C941DE70D94EB150C948951C7
:100540000C94E7F30C94AEF00C948F510C941BEFC9
:100550000C94CE940D94932C0D94921F0D94242CF6
:100560000D94162C0D940D160D94D9150D94FD2B8C
:100570000C94ECF20D94E5150D94BE5F0C94A9FB60
:100580000D94DC284E414E494E495459494E46CDB2
:10059000CCCC3D0AD7233C17B7D13877CC2B32953A
:1005A00095E6241FB14F0A000020410000C8420018
:1005B000401C4620BCBE4CCA1B0E5AAEC59D7400E2
:1005C000407A10F35A00A0724E18090010A5D4E822
:1005D0000000E87648170000E40B54020000CA9AB5
:1005E0003B000000E1F50500008096980000004007
:1005F000420F000000A0860100000010270000004C
:1006000000E803000000006400000000000A000091
:100610000000000100000000002C76D888DC674F45
:100620000823DFC1DFAE59E1B1B796E5E3E453C675
:100630003AE651997696E8E6C28426EB898C9B626D
:10064000ED407C6FFCEFBC9C9F40F2BAA56FA5F417
:1006500090055A2AF75C936B6CF9676DC11BFCE03F
:10066000E40D47FEF520E6B500D0ED902E03009492
:100670003577050080841E080000204E0A00000027
:10068000C80C333333330F986E12831141EF8D2131
:1006900014893BE65516CFFEE6DB18D1844B381B98
:1006A000F77C1D901DA4BBE424203284725E22815D
:1006B00000C9F124ECA1E53D275A5F53544F505F28
:1006C00050494E005A5F535445505F50494E005AAE
:1006D0005F4D494E5F50494E005A5F454E41424C76
:1006E000455F50494E005A5F4449525F50494E00A1
:1006F000595F53544F505F50494E00595F53544512
:10070000505F50494E00595F4D494E5F50494E0071
:10071000595F454E41424C455F50494E00595F4438
:1007200049525F50494E00585F53544F505F5049F3
:100730004E00585F535445505F50494E00585F4D2E
:10074000494E5F50494E00585F454E41424C455F0F
:1007500050494E00585F4449525F50494E0053552E
:1007600049434944455F50494E00534552564F3323
:100770005F50494E00534552564F325F50494E002C
:10078000534552564F315F50494E00534552564FD4
:10079000305F50494E00534453530053445F444527
:1007A000544543545F50494E004D4F534645545FA6
:1007B000435F50494E004D4F534645545F425F5092
:1007C000494E004D4F534645545F415F50494E00DE
:1007D00054454D505F305F43535F50494E004C4588
:1007E000445F50494E004C43445F50494E535F5262
:1007F00053004C43445F50494E535F454E41424C79
:1008000045004C43445F50494E535F4437004C43CE
:10081000445F50494E535F4436004C43445F504957
:100820004E535F4435004C43445F50494E535F4440
:1008300034004B494C4C5F50494E004845415445AB
:10084000525F4245445F50494E004845415445522D
:100850005F305F50494E0046494C5F52554E4F55F0
:10086000545F50494E0046414E5F50494E0045315D
:100870005F535445505F50494E0045315F454E41EE
:10088000424C455F50494E0045315F4449525F50EC
:10089000494E0045315F43535F50494E0045305F3C
:1008A000535445505F50494E0045305F454E4142DC
:1008B0004C455F50494E0045305F4449525F5049B6
:1008C0004E00444F474C43445F53434B00444F4713
:1008D0004C43445F4D4F53490042544E5F454E4395
:1008E0000042544E5F454E435F454E0042544E5FBA
:1008F000454E320042544E5F454E31004245455010
:1009000045525F50494E004156525F53535F504924
:100910004E004156525F53434B5F50494E00415683
:10092000525F4D4F53495F50494E004156525F4D03
:1009300049534F5F50494E0054454D505F42454426
:100940005F50494E0054454D505F315F50494E0055
:1009500054454D505F305F50494E0046494C574911
:100960004454485F50494E00545844300052584453
:100970003000434F4D4D554E49434154494F4E0071
:1009800044525952554E004552524F525300494E0F
:10099000464F004543484F004572726F7220777290
:1009A0006974696E6720746F20454550524F4D2120
:1009B0000A00363726033C3D380E2E303E121A1CF4
:1009C000180A43090844000153544F505045442E1F
:1009D00020005072696E7465722073746F70706558
:1009E000642064756520746F206572726F72732E57
:1009F0002046697820746865206572726F72206184
:100A00006E6420757365204D39393920746F2072FA
:100A10006573746172742E202854656D70657261FF
:100A2000747572652069732072657365742E205326
:100A300065742069742061667465722072657374D0
:100A4000617274696E67290A004E6F20436865639E
:100A50006B73756D2077697468206C696E65206EA4
:100A6000756D6265722C204C617374204C696E65E3
:100A70003A20004E6F20436865636B73756D207775
:100A8000697468206C696E65206E756D6265722C84
:100A9000204C617374204C696E653A200063686570
:100AA000636B73756D206D69736D617463682C2061
:100AB0004C617374204C696E653A20004C696E6518
:100AC000204E756D626572206973206E6F74204CC4
:100AD000617374204C696E65204E756D6265722B72
:100AE000312C204C617374204C696E653A20004DA6
:100AF0003131300053657269616C207374617475B3
:100B000073206D69736D617463680A00776169743D
:100B10000A0053442072656164206572726F720A24
:100B200000486F74656E642049646C652054696D7B
:100B3000656F757400486F74656E642049646C65F8
:100B40002054696D656F75740A002121204B494C52
:100B50004C20636175736564206279204B494C4C6D
:100B600020627574746F6E2F70696E0A00212120E7
:100B70004B494C4C20636175736564206279207425
:100B80006F6F206D75636820696E61637469766547
:100B90002074696D65202D2063757272656E7420F6
:100BA000636F6D6D616E643A2000706175736500EE
:100BB0004D363030002066696C616D656E745F7211
:100BC000756E6F7574200066696C616D656E745F1B
:100BD00072756E6F757420540046696C616D656E38
:100BE0007452756E6F75742054004D656469612090
:100BF00052656D6F766564004D6564696120496E6C
:100C0000736572746564004D313030305300627525
:100C100073793A2070617573656420666F7220691C
:100C20006E7075740A00627573793A20706175731D
:100C3000656420666F7220757365720A0062757351
:100C4000793A2070726F63657373696E670A00503A
:100C50006C65617365205265736574005052494E2E
:100C60005445522048414C5445440025533A2025D0
:100C70005300706F7765726F6666004B494C4C4548
:100C8000442E20005072696E7465722068616C7425
:100C900065642E206B696C6C28292063616C6C651F
:100CA00064210A006563686F3A004572726F723A98
:100CB0000042696C696E656172204C6576656C698D
:100CC0006E6720477269643A0A005072696E7469EF
:100CD0006E67204F626A65637400255320256900A2
:100CE0002F2F616374696F6E3A00737461727400C0
:100CF0006E6F74696669636174696F6E20007072EB
:100D00006F6D70745F00656E6400486F74656E642B
:100D100020746F6F20636F6C640A0053656E6420EB
:100D20004D31303820746F20726573756D650A001F
:100D3000496E736572742066696C616D656E7420AE
:100D4000616E642073656E64204D3130380A005244
:100D5000656865617420446F6E6500526568656101
:100D600074696E672E2E2E005265686561740048A6
:100D700065617465722054696D656F7574005365A3
:100D80006E64204D31303820746F206865617420A6
:100D90006E6F7A7A6C650A004E6F7A7A6C652050B5
:100DA00061726B6564007061757365640050617594
:100DB0007365004732362043616E63656C6564007D
:100DC0004732362048656174696E67204E6F7A7AC3
:100DD0006C65004732362048656174696E67204251
:100DE00065640057616974696E6720666F72206878
:100DF00065617475702E0A004669786564204C65DB
:100E00006E677468205072696D6500446F6E65206E
:100E10005072696D696E67004D616E75616C20700E
:100E200072696D696E672E2E2E004C656176696E53
:100E30006720473236003F537065636966696564B1
:100E400020582C5920636F6F7264696E617465203D
:100E50006F7574206F6620626F756E64732E0A0062
:100E60003F28522965706561742076616C75652034
:100E70006E6F7420706C61757369626C653B206D78
:100E8000757374206265206174206C6561737420D1
:100E9000312E0A003F537065636966696564206E90
:100EA0006F7A7A6C652074656D70657261747572A5
:100EB00065206E6F7420706C61757369626C652E4D
:100EC0000A003F5370656369666965642066696CF2
:100ED000616D656E742073697A65206E6F74207021
:100EE0006C61757369626C652E0A003F53706563AF
:100EF0006966696564207072696D65206C656E67EE
:100F00007468206E6F7420706C61757369626C65B3
:100F10002E0A003F537065636966696564206E6FD1
:100F20007A7A6C652073697A65206E6F7420706CB4
:100F300061757369626C652E0A003F526574726157
:100F40006374696F6E204D756C7469706C6965723D
:100F5000206D7573742062652073706563696669BE
:100F600065642E0A003F5370656369666965642095
:100F700052657472616374696F6E204D756C74692B
:100F8000706C696572206E6F7420706C6175736926
:100F9000626C652E0A003F5370656369666965641B
:100FA000206C6179657220686569676874206E6F6E
:100FB0007420706C61757369626C652E0A00432938
:100FC0002E0A003F53706563696669656420626537
:100FD000642074656D7065726174757265206E6FE2
:100FE0007420706C61757369626C65202834302DD3
:100FF00000473236207374617274696E672E2E2E2C
:101000000A004F46460A00466164652048656967E4
:1010100068742000426564204C6576656C696E6773
:1010200020004661696C656420746F20656E6162A2
:101030006C6520426564204C6576656C696E670A54
:1010400000496E76616C6964206D6573682E0A00D4
:10105000477269642070726F62696E6720646F6E98
:10106000652E0A0069646C650A00206F66200070B6
:101070006F696E7420004D616E75616C2047323966
:1010800020004D616E75616C204732392061626FBE
:10109000727465640A00202844525952554E290042
:1010A000473239204175746F20426564204C657663
:1010B000656C696E67003F20284C2C522C462C42F0
:1010C00029206F7574206F6620626F756E64732EB1
:1010D0000A003F2856296572626F7365206C657639
:1010E000656C20696D706C61757369626C65202830
:1010F000302D34292E0A00426164205A2076616C1A
:1011000075650A004E6F2062696C696E65617220B8
:10111000677269640A004732384C3000204400206E
:10112000204D323030205300202844697361626CB6
:101130006564293A0046696C616D656E742073655B
:101140007474696E67730020204D3230312058006E
:101150004D617820416363656C65726174696F6E7F
:101160002028756E6974732F7332290020204D3248
:1011700030332058004D6178206665656472617473
:1011800065732028756E6974732F732900205200CF
:1011900020204D323034205000416363656C65720D
:1011A0006174696F6E2028756E6974732F733229AC
:1011B0002028503C7072696E742D616363656C3ECB
:1011C00020523C726574726163742D616363656C57
:1011D0003E20543C74726176656C2D616363656C6E
:1011E0003E29005741524E494E4721204C6F7720EF
:1011F0005A204A65726B206D6179206C65616420AC
:10120000746F20756E77616E74656420706175739C
:1012100065732E0A0020540020530020204D3230E8
:1012200035204200416476616E6365642028423C4B
:101230006D696E5F7365676D656E745F74696D650A
:101240005F75733E20533C6D696E5F6665656472C1
:101250006174653E20543C6D696E5F7472617665A1
:101260006C5F66656564726174653E20583C6D61B3
:10127000785F6A65726B3E20593C6D61785F6A6584
:10128000726B3E205A3C6D61785F6A65726B3E20DE
:10129000453C6D61785F6A65726B3E2900204400B1
:1012A00020490020204D333031205000486F7465B4
:1012B0006E64205049440020440020490020204D05
:1012C0003330342050004265642050494400505768
:1012D0004D3A20202534640050574D3A20202534C3
:1012E000640050574D3A20202534640050574D3A41
:1012F00020202534640050574D3A202025346400C6
:1013000050574D3A20202534640050574D3A202044
:101310002534640050574D3A20202534640050573E
:101320004D3A20202534640050574D3A2020253472
:10133000640050574D3A20202534640050574D3AF0
:1013400020202534640050574D3A20202534640075
:1013500050574D3A20202534640050574D3A2020F4
:101360002534640050574D3A2020253464003A203B
:101370000020202020434F4D002020206E6F6E2D36
:101380007374616E646172642050574D206D6F6498
:101390006500202020636F6D7061726520696E7436
:1013A00065727275707420656E61626C6564002090
:1013B00020206F766572666C6F7720696E74657237
:1013C0007275707420656E61626C6564003A20000D
:1013D0002020202054494D534B00423A2000202029
:1013E00020205443435200413A2000202020205422
:1013F000434352002020202043533A200020202045
:101400002057474D3A200050574D3A20202534644C
:101410000050574D3A202025346400470048000012
:101420000088008A008C00B300B400000098009A85
:10143000009C00A800AA00AC0028012A012C012071
:1014400020202054494D455200440045006E008044
:101450000081006F00B000B1007000900091007139
:1014600000A000A100720020012101730020697317
:1014700020616C736F207469656420746F207468D8
:1014800069732070696E0054494D45523143000A1A
:10149000202E002020002020506F72743A2000205F
:1014A000202000202020416E616C6F6720696E2033
:1014B0003D2025356C64003C756E757365642F7531
:1014C0006E6B6E6F776E3E002028412532642920B6
:1014D0002000253364200050494E3A20004F757497
:1014E000707574203D2000496E70757420203D2079
:1014F00000416E616C6F6720696E203D2025356C60
:10150000640070726F746563746564200020284104
:1015100025326429202000253364200050494E3AAA
:1015200020006D090001680901015B093B005009B9
:10153000430045094500380944002B0932011E09C2
:1015400033011209340107093501FC082501F408AB
:101550001F01EC082101E1081D01D9082301CD0874
:101560003301C2083401B7081C01A90818019D08FD
:101570001A0193082C01880822017A081E016E08BE
:10158000240166080901570802014A080A013B08BC
:10159000080132082901260817011A0819010E0846
:1015A0001B0102081D01F2071101E6071001DE0709
:1015B0000D01D0074201C3070A01B6070701A907B9
:1015C00008019B073101960735018B070B01800746
:1015D0000601750705016A0704015E070C0154073F
:1015E0003701470726013D07030132073601270768
:1015F00003011D073D011007380106070E01FB0618
:101600003C01F0060E01E6063001D9063E01CF0688
:101610001201C4062E01B9061201446F6E652E0A2E
:101620000050756C73696E6720202000556E746FD2
:1016300075636865642000534552564F206E6F7481
:10164000207365742075702E0A004D343320576165
:1016500069742043616C6C656400576174636869E8
:101660006E672070696E730A0064697300656E00AE
:1016700061626C65640A00656E6473746F70206DDE
:101680006F6E69746F72200020580020204D6178C1
:101690003A2000200020204D696E3A2000203B2097
:1016A0000020204D323131205300536F6674206585
:1016B0006E6473746F707300203B0020550020200F
:1016C0004D363033204C0046696C616D656E742078
:1016D0006C6F61642F756E6C6F6164004D323453B2
:1016E000256C6454256C64004739322E39452573C6
:1016F0000047314625640047315A2573463630305D
:101700000047315825735925734633303030004D2A
:10171000313036502569532569004D313039532514
:1017200069004D323030442573004739322E395A22
:101730002573004D3432305325635A2573004732E8
:1017400038523058590047315A25734636303000E8
:101750004739322E395A2573004739322E394530F0
:10176000004D313039532569004D313930532569E9
:10177000004D343230205330205A3000203B2000BE
:1017800020204D343133205300506F7765722D6C1B
:101790006F7373207265636F76657279004F46468A
:1017A000004F4E00203B20486F73742068616E64C8
:1017B0006C696E672000203B204D6F646520006DD2
:1017C0006D00203B2044697374616E6365200046A0
:1017D000696C616D656E742072756E6F7574200032
:1017E0003B200020496E76616C69642065787472D4
:1017F00075646572200047322F4733206261642090
:10180000706172616D65746572730A00536C656511
:10181000702E2E2E004D65736820706F696E7420D7
:101820006F7574206F662072616E67650A004D30B7
:101830002053746F70004D312053746F7000436CEF
:1018400069636B20746F20526573756D652E2E2E43
:10185000004E6F204D6F76652E00456E64206669E0
:101860006C65206C6973740A00426567696E206656
:10187000696C65206C6973740A004E6F206D656435
:1018800069610A00526573756D696E672053440083
:10189000286E6F2066696C65290043757272656EEB
:1018A000742066696C653A20005072696E74207409
:1018B000696D653A20003F43616E6E6F74207772E8
:1018C00069746520746F20494E5055540A00496E62
:1018D00076616C69642050696E204D6F64650A0002
:1018E0000A53746174733A2046696C616D656E7455
:1018F00020757365643A20002C204C6F6E67657309
:1019000074206A6F623A2000546F74616C207469AD
:101910006D653A200053746174733A20002C2046A0
:1019200061696C65643A20002C2046696E697368B1
:1019300065643A20005072696E74733A20005374E3
:101940006174733A20006F6B006F66660093098EB6
:101950000987098009720944454255473A004D31CB
:101960003133205300343030205375506552204FAE
:1019700046462E002F2F004D31343520533C696EE2
:101980006465783E206F7574206F662072616E67A3
:10199000652028302D31290A0046523A0020466C35
:1019A0006F773A200050726F7465637465642050DD
:1019B000696E0A004261627973746570205A00642E
:1019C000697300656E0043290A0061626C656420DA
:1019D000286D696E2074656D702000436F6C642003
:1019E00065787472756465732061726520004D348A
:1019F000323120696E636F72726563742070617238
:101A0000616D657465722075736167650A004D6567
:101A1000736820706F696E74206F7574206F662014
:101A200072616E67650A004F666673657473204164
:101A300070706C696564004572723A20546F6F2053
:101A40006661722100546F6F206661722066726F4A
:101A50006D207265666572656E636520706F696E74
:101A6000740A00454550524F4D204F4B0A002E0A34
:101A7000002028302D313029002076616C756520DA
:101A80006F7574206F662072616E676500416476C1
:101A9000616E6365204B3D004D383400446F6E65C8
:101AA000207072696E74696E672066696C650A00E1
:101AB0004D3737004D33310020204D32303620581D
:101AC00000486F6D65206F666673657400436170D2
:101AD0003A00434F4E4649475F4558504F525400D5
:101AE0004D4541545041434B00434F4F4C45525F8D
:101AF00054454D5045524154555245004348414D7F
:101B00004245525F54454D5045524154555245004F
:101B1000424142595354455050494E470041524367
:101B200053004D4F54494F4E5F4D4F444553005461
:101B30004845524D414C5F50524F54454354494FD4
:101B40004E00455854454E4445445F4D32300043A5
:101B50005553544F4D5F4649524D574152455F557D
:101B6000504C4F4144004C464E5F5752495445003B
:101B70004C4F4E475F46494C454E414D45004155FF
:101B8000544F5245504F52545F53445F5354415445
:101B900055530053445F57524954450052455045F0
:101BA0004154004D554C54495F564F4C554D4500DE
:101BB0005344434152440050524F4D50545F53558B
:101BC00050504F525400484F53545F414354494F73
:101BD0004E5F434F4D4D414E445300454D45524796
:101BE000454E43595F50415253455200434153457E
:101BF0005F4C494748545F4252494748544E455309
:101C00005300544F47474C455F4C49474854530095
:101C1000534F4654574152455F504F57455200422B
:101C200055494C445F50455243454E54004C45562F
:101C3000454C494E475F44415441005A5F50524F12
:101C400042450052554E4F5554004155544F4C4556
:101C500056454C005052494E545F4A4F4200505234
:101C60004F4752455353004155544F5245504F52E0
:101C7000545F54454D50004155544F5245504F52BA
:101C8000545F504F5300564F4C554D4554524943A5
:101C900000454550524F4D0042494E4152595F4612
:101CA000494C455F5452414E5346455200534552AC
:101CB00049414C5F584F4E5F584F46460046495287
:101CC0004D574152455F4E414D453A4D61726C69E9
:101CD0006E20322E302E395F4457372E342E362068
:101CE000544D33442034534D444E422028417072A9
:101CF00020323820323032322030313A33323A35E5
:101D0000382920534F555243455F434F44455F5553
:101D1000524C3A68747470733A2F2F6769746875FF
:101D2000622E636F6D2F496E73616E6974794175B0
:101D3000746F6D6174696F6E2F4D61726C696E2F77
:101D4000747265652F437265616C69747944776953
:101D50006E5F322E302050524F544F434F4C5F56DF
:101D6000455253494F4E3A312E30204D4143484958
:101D70004E455F545950453A3430302053755065C4
:101D8000522045585452554445525F434F554E5486
:101D90003A3120555549443A63656465326132668B
:101DA0002D343161322D343734382D396231322DB2
:101DB0006335356336326633363766660A0043610B
:101DC0006E6E6F74206F70656E20737562646972D9
:101DD00020002569730025696D2025697300256938
:101DE000682025696D2025697300256964202569AF
:101DF000682025696D20256973002569792025698A
:101E000064202569682025696D2025697300436F6A
:101E10006F6C696E672E2E2E0045312025530042CF
:101E2000656420436F6F6C696E672E2E2E004265CD
:101E3000642048656174696E672E2E2E00236465E8
:101E400066696E652044454641554C545F006265A5
:101E500064004B6420004B6920004B702000504907
:101E6000442074756E696E6720646F6E650050491A
:101E700044204175746F74756E652066696E697370
:101E8000686564212050757420746865206C6173E6
:101E900074204B702C204B6920616E64204B6420B1
:101EA000636F6E7374616E74732066726F6D2062FF
:101EB000656C6F7720696E746F20436F6E6669671B
:101EC00075726174696F6E2E680A00504944204132
:101ED00075746F74756E65206661696C6564212028
:101EE00074696D656F75740A004175746F74756EF1
:101EF00065206661696C6564212054696D656F7544
:101F0000742E00504944204175746F74756E6520BD
:101F10006661696C6564212054656D7065726174D9
:101F200075726520746F6F20686967680A00504990
:101F300044204379636C65730025532025692F2560
:101F40006900204B643A2000204B693A2000204B66
:101F5000703A200020436C617373696320504944D8
:101F6000200A00204E6F206F76657273686F6F7461
:101F70000A002054753A2000204B753A2000206D4D
:101F800061783A2000206D696E3A200020643A2082
:101F90000020626961733A200048656174696E6768
:101FA0002E2E2E00504944204175746F74756E6555
:101FB0002073746172740A004175746F74756E6574
:101FC000206661696C65642E2054656D7065726170
:101FD0007475726520746F6F20686967682E005091
:101FE0004944204175746F74756E65206661696C33
:101FF0006564212054656D70657261747572652029
:10200000746F6F20686967680A0050494420417501
:10201000746F74756E6500504944204175746F7417
:10202000756E65206661696C65642120426164207B
:102030006865617465722069640A004572723A20AD
:102040007574663820666F6E74206E6F7420696ECA
:10205000697469616C697A65642E004572723A2010
:102060007574663820666F6E74206E6F7420696EAA
:10207000697469616C697A65642E004572723A20F0
:102080007574663820666F6E74206E6F7420696E8A
:10209000697469616C697A65642E002568753A25F2
:1020A000303268750025303268753A2530326875EF
:1020B000002530326875272530326875002568752F
:1020C000642025303268753A253032687500000C7E
:1020D0000F00FE07022503BB017FFE08FE08FE0578
:1020E000080806000040F0C888889878100508089D
:1020F000060000C0F88888888888F805050506006D
:10210000012030F830200508080600002070F82073
:10211000202020E00509090600FF2070A8A8B88843
:10212000887020070505070001D86C366CD80509B2
:10213000090600FFF8A88888888888A8F8050A0A90
:102140000600FE205050505088A8A8887003030352
:1021500006000340A040FFFFFFFFFFFFFFFFFFFF60
:10216000FFFFFFFFFFFFFFFFFFFFFFFF0000000675
:1021700005FF010707060200808080808000800341
:102180000303060105A0A0A005060606000050F8FE
:102190005050F8500509090600FF2070A8A07028CB
:1021A000A87020050707060000C8C81020409898AE
:1021B00005070706000040A0A040A890680103039F
:1021C0000602058080800309090601FF2040408047
:1021D00080804040200309090601FF804040202004
:1021E0002040408005070706000020A8702070A846
:1021F000200505050600012020F820200203030623
:1022000001FFC04080050101060003F8020202063A
:102210000100C0C00507070600000810102040405C
:1022200080050707060000708898A8C88870030713
:102230000706010040C040404040E0050707060097
:1022400000708808102040F8050707060000F8080D
:10225000103008887005070706000010305090F80D
:102260001010050707060000F880F00808887005C0
:102270000707060000304080F088887005070706D1
:102280000000F80810102020200507070600007045
:10229000888870888870050707060000708888782D
:1022A000081060020505060100C0C000C0C002069B
:1022B000060601FFC0C000C04080030505060101FD
:1022C0002040804020050303060002F800F80305C3
:1022D00005060101804020408005070706000070C8
:1022E0008810202000200507070600007088B8A885
:1022F000B88070050707060000708888F88888880D
:10230000050707060000F04848704848F005070731
:10231000060000708880808088700507070600002E
:10232000F04848484848F0050707060000F8808054
:10233000F08080F8050707060000F88080F08080B4
:102340008005070706000070888080988870050760
:1023500007060000888888F8888888030707060130
:1023600000E04040404040E005070706000038100C
:1023700010101090600507070600008890A0C0A00C
:102380009088050707060000808080808080F8051F
:10239000070706000088D8A88888888805070706E8
:1023A00000008888C8A8988888050707060000707C
:1023B000888888888870050707060000F08888F0FC
:1023C00080808005070706000070888888A89068CC
:1023D000050707060000F08888F0A0908805070729
:1023E00006000070888070088870050707060000E6
:1023F000F820202020202005070706000088888874
:1024000088888870050707060000888888885050EB
:102410002005070706000088888888A8A8500507B7
:1024200007060000888850205088880507070600A6
:102430000088885020202020050707060000F808A3
:1024400010204080F80309090601FFE080808080A9
:10245000808080E0050707060000804040201010C3
:10246000080309090601FFE020202020202020E0A9
:102470000503030600052050880501010600FEF84B
:1024800003030306010580402005050506000070D2
:10249000087888780507070600008080F08888881B
:1024A000F0050505060000708080887005070706A6
:1024B00000000808788888887805050506000070FF
:1024C00088F08070050707060000304840E0404073
:1024D000400507070600FE708888887808700507A1
:1024E000070600008080F0888888880307070601B7
:1024F000004000C0404040E00409090601FE100011
:1025000030101010109060050707060000808088CA
:1025100090E09088030707060100C040404040401B
:10252000E0050505060000D0A8A8A8A80505050631
:102530000000B0C8888888050505060000708888F6
:1025400088700507070600FEF0888888F0808005FF
:1025500007070600FE7888888878080805050506BC
:102560000000B0C8808080050505060000788070F6
:1025700008F00507070600002020F8202020180595
:10258000050506000088888898680505050600008E
:1025900088888850200505050600008888A8A8506E
:1025A000050505060000885020508805070706002D
:1025B000FE88888850204080050505060000F81038
:1025C0002040F80309090601FF20404040804040B8
:1025D00040200109090602FF808080808080808081
:1025E000800309090601FF804040402040404080B0
:1025F00005030306000248A890FF2100486F746598
:102600006E6420746F6F20636F6C64004261636B53
:102610000050726F63656564004F6666004F6E0020
:10262000536F667420456E6473746F7073004D6FE2
:1026300074696F6E0044697361626C6520537465E0
:102640007070657273004D383400426564204C65CB
:1026500076656C696E67004732385A0047323859E0
:1026600000486F6D6520400047323858004175744E
:102670006F20486F6D6500473238004D61696E000C
:102680005072656865617420242042656400507250
:102690006568656174202420456E640054656D7022
:1026A0006572617475726500436F6F6C646F776EED
:1026B000005072656865617420240046616E205385
:1026C0007065656400426564004E6F7A7A6C6500DF
:1026D0004D61696E00546F74616C00426162797380
:1026E000746570205A00416476616E6365204B000A
:1026F000466C6F770046616E2053706565640042DA
:102700006564004E6F7A7A6C65005370656564008D
:102710004D61696E00486F6D696E67204661696C36
:1027200065640050524553454E54004F5554006F58
:1027300070656E00545249474745524544003A205F
:10274000004D4F54494F4E203A20004F46460A0054
:102750003A200066696C616D656E74007A5F6D6920
:102760006E00795F6D696E00785F6D696E0052650D
:10277000706F7274696E6720656E6473746F702019
:102780007374617475730A0020746F6F206C6F6EC0
:102790006720657874727573696F6E2070726576E4
:1027A000656E7465640A0020636F6C6420657874DC
:1027B000727573696F6E2070726576656E7465648C
:1027C0000A00000000000000000000000000576147
:1027D000726E696E673A20486F6D696E6720427548
:1027E0006D702044697669736F72203C20310A0055
:1027F0000202040000CD430000C8430000C84300AB
:102800000000410000004100000040000000010005
:1028100000000100008000555555000000400033C5
:10282000333300AAAA2A004992240000002000C7DE
:10283000711C0099991900D1451700555515003B99
:10284000B113002449120011111100000010000FF3
:102850000F0F00E3380E0043790D00CCCC0C00C301
:10286000300C00E8A20B0064210B00AAAA0A007039
:102870003D0A009DD80900427B090092240900DC32
:10288000D30800888808001042080000000800F003
:10289000C107008787070075500700711C07003EBD
:1028A000EB0600A1BC060069900600666606007093
:1028B0003E06006118060017F4050074D105005BA0
:1028C000B00500B29005006272050055550500780C
:1028D000390500B81E0500050505004EEC0400870B
:1028E000D40400A1BD040090A7040049920400C1D3
:1028F0007D0400EE690400C7560400444404005CF3
:102900003204000821040041100400000004003FCC
:10291000F00300F8E0030026D20300C3C30300CC99
:10292000B503003AA803000A9B0300388E0300C0D9
:102930008103009F750300D0690300505E03001DF2
:1029400053030034480300913D0300333303001662
:10295000290300381F030097150300300C03000300
:102960000303000BFA020049F10200BAE802005C1E
:10297000E002002DD802002DD0020059C80200B09C
:10298000C0020031B90200DAB10200AAAA0200A016
:10299000A30200BC9C0200FA9502005C8F0200DFDB
:1029A00088020082820200457C020027760200270E
:1029B000700200436A02007C640200D05E02003FA5
:1029C000590200C8530200FFFDFCFAF8F6F4F2F0D9
:1029D000EEECEAE9E7E5E3E1E0DEDCDAD9D7D5D4ED
:1029E000D2D0CFCDCBCAC8C7C5C3C2C0BFBDBCBA89
:1029F000B9B7B6B4B3B2B0AFADACAAA9A8A6A5A4F6
:102A0000A2A1A09E9D9C9A99989795949392908F3D
:102A10008E8D8B8A8988878684838281807F7E7D64
:102A20007B7A797877767574737271706F6E6D6C6E
:102A30006B6A696867666564636261605F5E5D5C5E
:102A40005B5A5958585756555453525150504F4E3F
:102A50004D4C4B4A4A494847464645444342424109
:102A6000403F3E3E3D3C3B3B3A39383837363535C2
:102A7000343332323130302F2E2E2D2C2B2B2A296D
:102A80002928272726252524232322212120201F0A
:102A90001E1E1D1C1C1B1B1A19191818171616159B
:102AA0001514131312121111100F0F0E0E0D0D0C21
:102AB0000C0B0A0A0909080807070606050504049D
:102AC000030302020100000000CD430000C84300E0
:102AD00000C8430000000000000000000000005398
:102AE000657474696E67732053746F72656400292E
:102AF0000A002062797465733B206372632000537F
:102B0000657474696E67732053746F7265642028EE
:102B100000454550524F4D20496E697469616C699A
:102B20007A65640A0048617264636F646564204476
:102B3000656661756C742053657474696E67732083
:102B40004C6F616465640020286D6D2900203B2076
:102B50004C6576656C696E67200020204D343230FC
:102B60002053004175746F20426564204C65766582
:102B70006C696E670020460020480020204D3134EB
:102B8000352053004D6174657269616C2068656120
:102B900074757020706172616D6574657273002068
:102BA000204D393030204B004C696E6561722041F8
:102BB0006476616E63650046696C616D656E742054
:102BC00072756E6F75742073656E736F7200204A34
:102BD000002020473239205720490020204D313431
:102BE000392043203B20556E69747320696E204361
:102BF000656C736975730A0054656D7065726174F4
:102C000075726520556E697473002020473231203B
:102C10003B004C696E65617220556E6974730045A6
:102C20004550524F4D206461746173697A65206527
:102C300072726F722E0A0053746F7265642073652E
:102C40007474696E67732072657472696576656401
:102C500000290A002062797465733B206372632047
:102C6000002073746F7265642073657474696E6795
:102C70007320726574726965766564202800454525
:102C800050524F4D20435243204572726F720020C4
:102C90002863616C63756C6174656429210A002086
:102CA000213D2000454550524F4D20435243206D59
:102CB00069736D61746368202D202873746F726569
:102CC000642920002053697A653A2000496E6465C2
:102CD000783A20000000FA430000C8430000204179
:102CE000000096420000A0420000A0420000C8433D
:102CF0000000BE42E8030000EE0200006400000095
:102D00004B000000454550524F4D20566572736987
:102D10006F6E204572726F7200204D61726C696E29
:102D20003D563837290A00454550524F4D207665AB
:102D30007273696F6E206D69736D617463682028AA
:102D4000454550524F4D3D0024F4D43050C38E20A1
:102D5000C2A24017828B7011127A910D816CD90A30
:102D6000A861E108C7586607615143061E4B5D051F
:102D7000C145A7041A411104093D98037139310373
:102D80004036DB0265339102D4305402802E1D029E
:102D9000632CEE01752AC501B028A001102781011E
:102DA0008F2564012B244B01E0223401AC211F014B
:102DB0008D200D01801FFC00841EED00971DDF009B
:102DC000B81CD200E61BC600201BBC00641AB2006F
:102DD000B219A8000A19A0006A189900D117910029
:102DE00040178B00B516840031167E00B3157900AC
:102DF0003A157300C7146F0058146A00EE1366008A
:102E00008813630025135E00C7125B006C12570025
:102E100015125400C111510070114F0021114B00C7
:102E2000D61049008D1047004610440002104200A1
:102E3000C00F4000800F3E00420F3C00060F3B00D9
:102E4000CB0E3800930E37005C0E3500270E340091
:102E5000F30D3200C10D3100900D3000600D2E00D9
:102E6000320D2D00050D2C00D90C2B00AE0C2900C5
:102E7000850C29005C0C2700350C27000E0C260061
:102E8000E80B2400C40B2400A00B23007D0B2300BF
:102E90005A0B2100390B2100180B2000F80A1F00E3
:102EA000D90A1E00BB0A1E009D0A1D00800A1D00D3
:102EB000630A1C00470A1B002C0A1B00110A1A0097
:102EC000F7091A00DD091900C4091900AB09190036
:102ED000920917007B091800630917004C091600B6
:102EE00036091600200916000A091500F508150014
:102EF000E0081400CC081400B8081400A40814005A
:102F0000900813007D0812006B0813005808120087
:102F1000460812003408110023081100120811009D
:102F200001081100F0071000E0071000D0071000A2
:102F3000C0071000B0070F00A107100091070E0096
:102F400083070F0074070F0065070E0057070E0078
:102F500049070E003B070D002E070E0020070D004D
:102F600013070D0006070D00F9060C00ED060D0015
:102F7000E0060C00D4060C00C8060C00BC060C00D1
:102F8000B0060C00A4060B0099060C008D060B0081
:102F900082060B0077060B006C060B0061060A0028
:102FA00057060B004C060A0042060A0038060A00C3
:102FB0002E060A0024060A001A060A001006090056
:102FC00007060A00FD050900F4050900EB050900E4
:102FD000E2050900D9050900D0050900C705090067
:102FE000BE050900B5050800AD050800A5050900E6
:102FF0009C050800940508008C050800840508005D
:103000007C050800740508006C05070065050800CC
:103010005D050700560508004E0507004705070037
:103020004005080038050700310507002A0507009C
:10303000230507001C050600160507000F050700FD
:103040000805060002050700FB040600F50407005A
:10305000EE040600E8040600E2040700DB040600B4
:10306000D5040600CF040600C9040600C304060008
:10307000BD040600B7040600B1040500AC04060058
:10308000A6040600A00405009B04060095040500A4
:10309000900406008A0405008504050080040600EB
:1030A0007A04050075040500700405006B04050032
:1030B00066040500610405005C0405005704050072
:1030C000520405004D0405004804050043040500B2
:1030D0003E0404003A0405003504050030040400F1
:1030E0002C04050027040400230405001E0404002A
:1030F0001A04040016040500110404000D04040061
:10310000090405000404040000040400FC03040096
:10311000F8030400F4030400F0030400EC030400CB
:10312000E8030400E4030400E0030400DC030400FB
:10313000D8030400D4030400D0030400CC0304002B
:10314000C8030300C503030024F404D9201BC40CE6
:103150005C0E9804C4095F0265077101F405F9006B
:10316000FB04B30048048700C103690058035500FD
:1031700003034500BE023A008402310053022A00D4
:103180002902250004022000E4011C00C8011900E6
:10319000AF011700980114008401130071011000A1
:1031A0006101100051010E0043010D0036010B00BA
:1031B0002B010B0020010B00150109000C01090077
:1031C00003010800FB000800F3000800EB00070003
:1031D000E4000600DE000600D8000600D20006006B
:1031E000CC000500C7000500C2000500BD000400BA
:1031F000B9000400B5000400B1000400AD000400F3
:10320000A9000400A5000300A20003009F00040021
:103210009B00030098000300950002009300030048
:10322000900003008D0002008B0003008800020064
:103230008600020084000300810002007F0002007B
:103240007D0002007B00020079000200770001008F
:10325000760002007400020072000100710002009A
:103260006F0002006D0001006C0002006A000100A6
:1032700069000200670001006600010065000100AE
:1032800064000200620001006100010060000100B2
:103290005F0002005D0001005C0001005B000100B6
:1032A0005A000100590001005800010057000100B8
:1032B00056000100550001005400010053000000B9
:1032C00053000100520001005100010050000100B4
:1032D0004F0001004E0000004E0001004D000100B3
:1032E0004C0001004B0000004B0001004A000100AF
:1032F00049000100480000004800010047000100AB
:1033000046000000460001004500000045000100A5
:10331000440001004300000043000100420000009F
:103320004200010041000000410001004000010096
:103330003F0000003F0001003E0000003E00010091
:103340003D0000003D0001003C0000003C0000008A
:103350003C0001003B0000003B0001003A0000007F
:103360003A00010039000000390001003800000077
:10337000380000003800010037000000370001006D
:103380003600000036000000360001003500000065
:10339000350000003500010034000000340000005A
:1033A000340001003300000033000000330001004E
:1033B0003200000032000000320001003100000045
:1033C000310000003100010030000000300000003A
:1033D000300001002F0000002F0000002F0000002F
:1033E0002F0001002E0000002E0000002E00010022
:1033F0002D0000002D0000002D0000002D00010018
:103400002C0000002C0000002C0000002C0001000B
:103410002B0000002B0000002B0000002B000100FF
:103420002A0000002A0000002A0000002A000100F3
:1034300029000000290000002900000029000000E8
:1034400029000100280000002800000028000000DA
:1034500028000000280001002700000027000000CD
:1034600027000000270000002700010026000000C0
:1034700026000000260000002600000026000100B3
:1034800025000000250000002500000025000000A8
:103490002500000025000100240000002400000099
:1034A000240000002400000024000100230000008C
:1034B0002300000023000000230000002300000080
:1034C0002300000023000100220000002200000071
:1034D0002200000022000000220000002200010063
:1034E0002100000021000000210000002100000058
:1034F0002100000021000000210001002000000048
:10350000200000002000000020000000200000003B
:103510002000000020000000200001001F0000002B
:103520001F0000001F0000001F0000001F0000001F
:103530001F0000001F0001001E0000001E00000010
:103540001E0000001E000000232C0000B822000016
:10355000561800003A0F0000B8080000B10400003F
:10356000710200003E01000020436F756E74205808
:103570003A00426564004531004500626564002CF4
:103580002073797374656D2073746F707065642136
:10359000204865617465725F49443A20004865615E
:1035A00074696E67204661696C6564004865617482
:1035B000696E67206661696C6564004D3131322047
:1035C00053687574646F776E001000C90210012C87
:1035D000014001220170011801B0010E01F0010447
:1035E000015002FA00B002F0003003E600D003DC24
:1035F000009004D2007005C800A006BE000008B408
:1036000000B009AA00D00BA000600E960060118CDB
:10361000000015820020197800C01D6E00A02264F1
:1036200000B0275A00902C500000314600E0343C96
:103630000010383200903A2800603C1E00A03D1473
:1036400000803E0A00203F00004572723A204D4142
:103650005854454D50004D415854454D50207472BA
:1036600069676765726564004572723A204D494E1C
:1036700054454D50004D494E54454D50207472698B
:1036800067676572656400544845524D414C20524D
:10369000554E4157415900546865726D616C205216
:1036A000756E61776179000A0A0020205A5F4D49E2
:1036B0004E3A002020595F4D494E3A002020585F75
:1036C0004D494E3A00202F002042403A0020403A17
:1036D0000020573A0020573A00496E76616C6964C1
:1036E0002065787472756465720A007C3C3E5E2BBE
:1036F0003D3F2F5B5D3B2C2A225C0043616E6E6F69
:1037000074206F70656E2073756264697220004D5D
:103710006564696120496E6974204661696C005373
:10372000442063617264206F6B0A006F70656E5293
:103730006F6F74206661696C65640A00766F6C75E2
:103740006D652E696E6974206661696C65640A0036
:103750004E6F20534420636172640A000A4D323474
:10376000004D323320257300554E4C4F41442046C6
:10377000494C414D454E54004C4F41442046494C24
:10378000414D454E540046494C414D454E54204311
:1037900048414E47450042656400456E636C6F7357
:1037A000757265002020202020202000202020206D
:1037B00000657272001FE0201020102010102010F1
:1037C000202010201030300840048003001FE03F0C
:1037D000F03FF03FF01FE01FE03FF03FF03FF00F01
:1037E000C0078003003FFFF038007030FC3020FC41
:1037F000102078102030102C00D02E31D02F7BD00C
:103800002F7BD02E31D02C00D020301020781020EB
:10381000FC1030FC303800703FFFF03FFFF0380004
:10382000703186302387102787902F87D02F03D0C1
:103830002030102078102078102030102F03D02F47
:1038400087D02787902387103186303800703FFF5C
:10385000F01FFFF81FFFF8041040020820020820A4
:10386000041040082080104100104100082080040E
:1038700010400000001FFFF81FFFF8FFFFFF80004F
:10388000018E00E19F01F19381399F81F99F81F9B8
:103890009FB9F98F28F18038018000019FFFF991CD
:1038A00074999B06A99B54A99B56A99B54999FFF69
:1038B000F9FFFFFF63616E63656C005072696E749F
:1038C0002041626F727465640055492041626F72D5
:1038D000746564004D323520500A4D323400526513
:1038E00073756D65005549205061757365005061B1
:1038F0007573696E672E2E2E00726573756D650087
:103900004D32340052756E6F7574204469737420A3
:103910006D6D004D6F74696F6E20456E636F6465E9
:10392000720053656E736F72204C6F770053656E33
:10393000736F722048696768004E6F2053656E731D
:103940006F720052756E6F75742053656E736F726F
:103950000052756E6F7574204D6F6465004C6F6119
:1039600064206D6D00556E6C6F6164206D6D004656
:10397000696C2E204469612E004520696E206D6DB2
:103980005E3300416476616E6365204B004D3330D9
:10399000332055312045256920532569005049447D
:1039A000204175746F74756E65202A005049442D4E
:1039B00044202A005049442D49202A005049442DD2
:1039C00050202A0020082046616374002008204D02
:1039D0006178002008204D696E004F6666004F6ECA
:1039E000004175746F74656D70004D696E2054727E
:1039F0006176656C2056656C004D696E2056656C6D
:103A00006F63697479004D617820452056656C00BC
:103A10004D6178205A2056656C004D617820592000
:103A200056656C004D617820582056656C004D61DC
:103A300078204520416363656C004D6178205A20F1
:103A4000416363656C004D61782059204163636573
:103A50006C004D6178205820416363656C0054729E
:103A60006176656C20416363656C005265747261B8
:103A7000637420416363656C00416363656C004D52
:103A800061782045204A65726B004D6178205A208C
:103A90004A65726B004D61782059204A65726B004F
:103AA0004D61782058204A65726B0045207374651B
:103AB00070732F6D6D005A2053746570732F6D6D88
:103AC00000592053746570732F6D6D005820537426
:103AD0006570732F6D6D00416476616E636564205F
:103AE00053657474696E6773003F0043616E63656C
:103AF0006C00496E6974004D34323800496E697447
:103B000069616C697A6520454550524F4D004669A0
:103B10006C616D656E740054656D7065726174756D
:103B200072650053746570732F6D6D004A65726B1A
:103B300000416363656C65726174696F6E00566500
:103B40006C6F636974790053657420486F6D6520EC
:103B50004F66667365747300436F6E66696775724E
:103B60006174696F6E003F004E65787420506F6914
:103B70006E7400446F6E65004E657874004C657617
:103B8000656C696E6720446F6E6521004D6F7665C8
:103B9000205A004732395631004E65787420506FF4
:103BA000696E74002569202F20257500473239562B
:103BB0003100436C69636B20746F20426567696EE6
:103BC00000486F6D696E672058595A005A20566137
:103BD0006C756500496E646578205900496E6465AE
:103BE0007820580053746F72652053657474696E41
:103BF0006773004C6F61642053657474696E6773FA
:103C000000426564205472616D6D696E67004661A3
:103C1000646520486569676874004F6666004F6E8A
:103C200000426564204C6576656C696E670045648A
:103C30006974204D657368004C6576656C2042653B
:103C400064004D6F74696F6E003F0043616E636581
:103C50006C204F626A656374004E4F0059455300F3
:103C600043616E63656C204F626A656374203D003A
:103C70004D61696E00426564004E6F7A7A6C650032
:103C800046616E20537065656400436F6E666967B8
:103C900075726174696F6E00526573746F7265201E
:103CA00044656661756C7473004C6F616420536584
:103CB0007474696E67730053746F72652053657412
:103CC00074696E67730050726568656174202420A2
:103CD000436F6E6600506F776572204F7574616731
:103CE00065004F6666004F6E0052756E6F757420EA
:103CF00053656E736F7200416476616E6365642014
:103D000053657474696E6773004D61696E004D3759
:103D1000303220542564004D36303020423020545B
:103D20002564004D373032203B2564004D3730315B
:103D300020542564004D373032004D373031004D6E
:103D4000363030204230004D61696E00436F6E7432
:103D5000696E7565004F6666004F6E0052756E6F36
:103D600075742053656E736F7200507572676520AD
:103D70006D6F726500524553554D45204F50544963
:103D80004F4E533A005052494E54205041555345DE
:103D9000440020204E6F7A7A6C653A2000506172A0
:103DA0006B696E672E2E2E000000576169742066C5
:103DB0006F720066696C616D656E74206368616E18
:103DC000676500746F207374617274005761697461
:103DD00020666F720066696C616D656E7420756E29
:103DE0006C6F616400004E6F7A7A6C652068656163
:103DF00074696E6700506C656173652077616974E2
:103E00002E2E2E0000507265737320627574746FCD
:103E10006E00746F2068656174206E6F7A7A6C65CD
:103E20000000496E736572742066696C616D656E21
:103E30007400616E642070726573732062757474AF
:103E40006F6E00746F20636F6E74696E75650057D6
:103E500061697420666F720066696C616D656E746D
:103E6000206C6F616400005072657373204275743A
:103E7000746F6E00746F20726573756D652070725B
:103E8000696E7400005761697420666F72207072E9
:103E9000696E7400746F20726573756D652E2E2EB9
:103EA00000005761697420666F720066696C616D0D
:103EB000656E7420707572676500003E2000256C89
:103EC000642E25696D0045787472756465642054AC
:103ED0006F74616C003E20004C6F6E6765737420D8
:103EE0004A6F622054696D65003E20005072696E11
:103EF000742054696D6500436F6D706C6574656402
:103F0000003A20005072696E7420436F756E740021
:103F10003A20003135300035004245443A204154C2
:103F2000432031303447542D320052756E61776131
:103F3000792057617463683A204F4E004D617820B4
:103F400054656D7000343530004D696E2054656DD8
:103F50007000350045313A20536C696365456E67E2
:103F600020343530C2B043005053550047656E656C
:103F70007269630050726F746F636F6C00312E3022
:103F80000042617564003235303030300043726574
:103F9000616C69747933442052414D505300426939
:103FA0006C696E656172204C6576656C696E670040
:103FB00045787472756465727300310074696E7946
:103FC0006D616368696E657333642E636F6D003471
:103FD000303020537550655200323032322D30343B
:103FE0002D303300322E302E395F4457372E342E89
:103FF00036004D61726C696E005072696E74657244
:1040000020537461747300546865726D6973746FC2
:10401000727300426F61726420496E666F00507265
:10402000696E74657220496E666F004D61696E003D
:104030004D313030300053746F70205072696E749F
:1040400000526573756D65205072696E7400506F13
:10405000776572204F7574616765004D3139305353
:1040600035350A4732380A4732390A4D3430300A7A
:104070004D313034533231350A4732380A4D313000
:1040800039533231350A4D34323053310A473158C1
:104090003130305931303046353030300A47315ABE
:1040A000300A4D3530300A4D37370A4D313137201F
:1040B000536574205A204F6666736574004D313025
:1040C00036533132380A4D33303343385332313579
:1040D0004530550A4D3530300A4D31313720504981
:1040E000442054756E6520446F6E65004D31393043
:1040F0005335350A4D313034533231350A47323871
:104100000A4732394C310A47312058313030593161
:10411000303046353030300A47315A30004D353076
:10412000300A4D3131372053657474696E677320DE
:1041300053746F7265640053746F726520536574B5
:1041400074696E6773005072657020666F72205AD2
:104150002041646A757374005049442054756E653B
:10416000005365747570004D61696E003F004261D7
:10417000636B0053746F70004E6F204D656469610E
:10418000005072696E742066726F6D204D656469AF
:1041900061004368616E6765204D65646961004D2B
:1041A00032310041626F7574205072696E746572AD
:1041B000004368616E67652046696C616D656E7469
:1041C000004C6576656C696E6720546F6F6C730088
:1041D000436F6E66696775726174696F6E005465CE
:1041E0006D7065726174757265004D6F74696F6E84
:1041F00000537461727420486F7374205072696E3A
:104200007400526573756D65205072696E74004359
:10421000616E63656C204F626A6563740054756EED
:10422000650053746F70205072696E740050617530
:104230007365205072696E7400496E666F20536317
:104240007265656E003F005374617274205072692C
:104250006E740043616E63656C005072696E740029
:1042600043616E6E6F7420656E7465722073756243
:104270006469723A200002202E2E004D61696E00A2
:1042800041425300504C41002E0A006F70656E2071
:104290006661696C65642C2046696C653A2000464D
:1042A000696C652073656C65637465640A002053EE
:1042B000697A653A200046696C65206F70656E65A5
:1042C000643A2000454E4420535542524F555449BC
:1042D0004E450A002220706F7300222070617265C3
:1042E0006E743A2200535542524F5554494E452060
:1042F00043414C4C207461726765743A22005375D7
:104300006263616C6C204F766572666C6F770045F6
:1043100078636565646564206D6178205355425209
:104320004F5554494E452064657074683A002E0A12
:104330000044656C6574696F6E206661696C6564C4
:104340002C2046696C653A200046696C65206465DE
:104350006C657465643A005344207072696E7469C8
:104360006E67206279746520004E6F74205344207C
:104370007072696E74696E670A002F6175746F25BB
:10438000632E670057726974696E6720746F2066C8
:10439000696C653A2000667265736800646F696EC7
:1043A00067002066696C653A20004E6F772000FD3B
:1043B00055555555555FFFFFFFFFFFFFFFFFFFFE00
:1043C00000000000003FFFFFFFFFFFFFFFFFFFFDBA
:1043D000000007FFFFFFFFFFFFFFFFFFFFFFFFFEE4
:1043E00007C00555555555555FFFFFFFFFFFFFFC03
:1043F0000A200600000000003FFFFFFFFFFFFFFE56
:10440000141005000007FFFFFFFFFFFFFFFFFFFC89
:1044100028080607C00555555555555FFFFFFFFE97
:104420005404040A200600000000003FFFFFFFFCC8
:10443000600406141005000007FFFFFFFFFFFFFEEA
:1044400050040428080607C00555555555555FFC0E
:104450006004065404040A200600000000003FFE29
:1044600054041C60040614100500000000001FFC2A
:1044700028082E50040428080607C00001F03FFE5B
:104480001410546004065404040A200002081FFC9F
:104490000A206654041C60040614100005043FFE44
:1044A00007C05428082E5004042808000A021FFCE4
:1044B00000002E14105460040654040015013FFE41
:1044C00000001C0A206654041C60040018011FFC34
:1044D00000000607C05428082E50040014013FFEB7
:1044E00000000400002E14105460040018011FFC8A
:1044F000FFFFFE00001C0A206654041C15013FFE4D
:10450000D5555400000607C05428082A0A021FFC8B
:1045100084104600000400002E14105105043FFED4
:10452000C41044FFFFFE00001C0A206102881FFC2B
:10453000841046D5555400000607C05101F03FFED7
:1045400084104484104600000400002A00001FFC70
:10455000C41046C41044FFFFFE00001C00003FFED4
:10456000841044841046D5555400000000001FFC00
:10457000D5555684104484104600000000003FFCCE
:10458000FFFFFCC41046C41044FFFFFFFFFF9FFE67
:10459000000006841044841046D555555555BFFD7E
:1045A000555554D5555684104484104104109FFF2E
:1045B000FFFFFCFFFFFCC41046C410410411BFFF05
:1045C000FFFFFE00000684104484104104109FFF8A
:1045D000FFFFFD555554D5555684104104109FFFDB
:1045E000FFFFFFFFFFFCFFFFFCC410410411BFFFF2
:1045F000FFFFFFFFFFFE00000684104104109FFF35
:10460000FFFFFFFFFFFD555554D555555555BFFFCD
:10461000FFFFFFFFFFFFFFFFFCFFFFFFFFFF9FFF0D
:10462000FFFFFFFFFFFFFFFFFE00000000003FFF56
:10463000FFFFFFFFFFFFFFFFFD55555555555FFF7E
:10464000FFFFFFFFFFFFFFFFFFFFFFFFFFFFFFFF7A
:10465000FFFFFFFFFFFFFFFFFFFFFFFFFFFFFFFF6A
:10466000FFFFFFFFFFFFFFFFFFFFFFFFFFFFFFFF5A
:10467000FFFFFFFFFFFFFFFFFFFFFFFFFFFFFFE069
:104680002EFB7DFBFBCFC1DFBB3EC0E1FE3C1FFD2F
:10469000EE7B39F9F3CF9EDFBB3EDFDEFCDDE7FDCD
:1046A000EE3BBBF9EBD7BF5FBB5EDFDEFDEDF7FD99
:1046B000EEBBD3FAEBB73FDFBB4EDFDFFFCDF3FD41
:1046C000EEDBC7FAEBBB7FC03B6EC0E3FF1DF3FD23
:1046D000EECBEFFADBBB7FDFBB66DFF8FFCDF3FD90
:1046E000EEEBEFFB5B033F5FBB76DFFE7FEDF3FDA1
:1046F000EEF3EFFB5B79BEDFBB7ADFDE7DEDF7FD2E
:10470000EEF3EFFBBAFD9EDFBB7CDFDEFDCDE7FD08
:10471000EEFBEFFBBAFDC1DFBB7EC0E0FE1C1F6DF0
:1047200061726C696E66772E6F726700322E302E62
:10473000395F4457372E342E36001FFFFFFFFFFF2F
:10474000FF600000000001FF400000000000FF804B
:1047500000000000007F83CF00000C303F87FF8007
:10476000000C301F867980000C000F8C30C7838CC2
:1047700030E78C30CFC7CC31F38C30DCECEC33B984
:104780008C30D86C6C33198C30D06C0C33198C3065
:10479000D86C0C33198C30DC6C0E3B198C30CF7C10
:1047A000079F198C30C77C038F1940000000000060
:1047B00002600000000000061FFFFFFFFFFFF8601F
:1047C00001F4017001EA019001E001B001D601D0CD
:1047D00001CC010002C2013002B8016002AE0190BA
:1047E00002A401D0029A012003900170038601C047
:1047F000037C0130047201A004680120055E01B051
:1048000005540160064A0120074001F0073601F017
:10481000082C01100A2201500B1801C00C0E015087
:104820000E04013010FA002012F0005014E600C00F
:1048300016DC007019D200501CC800501FBE00705A
:1048400022B400B025AA00F028A000202C96003049
:104850002F8C0010328200A0347800F0366E00E019
:10486000386400803A5A00403B5500E03B5000F06D
:104870003C4600C03D3C00603E3200E03E28003037
:104880003F1E00503F1900703F1400A03F0A00C0B7
:104890003F0000D03FF6FFE03FECFF2020506C616E
:1048A0006E6E657242756666657242797465733ABA
:1048B00020002046726565204D656D6F72793A2043
:1048C0000020436F6D70696C65643A2041707220FE
:1048D000323820323032320A00204C617374205555
:1048E0007064617465643A20323032322D30342D78
:1048F0003033207C20417574686F723A2054696EA1
:10490000794D616368696E657333440A004D617265
:104910006C696E20322E302E395F4457372E342E7C
:10492000360A0020536F6674776172652052657392
:1049300065740A00205761746368646F672052656C
:104940007365740A002042726F776E206F75742051
:1049500052657365740A002045787465726E616CE7
:104960002052657365740A00506F77657255700A3E
:104970000073746172740A004739310A47315A353D
:104980000A4739300A4D38340A4D31303453300A31
:104990004D3134305330004D31303031006572725A
:1049A0006F722077726974696E6720746F20666910
:1049B0006C650A00446F6E6520736176696E6720CE
:1049C00066696C652E0A004D323900456E64737459
:1049D0006F707300255320256320256320256320F5
:1049E000256300205A3A0020593A0020583A0065C1
:1049F0006E6473746F7073206869743A20000000ED
:104A00002100240027002A002D003000330001017E
:104A10000000040107010A0100002200250028000F
:104A20002B002E00310034000201000005010801B6
:104A30000B01000020002300260029002C002F007D
:104A4000320000010000030106010901050505050A
:104A5000070508080808020202020A0A08080404F6
:104A60000404010101010101010103030303030324
:104A70000303040707070C0C0C0C0C0C0C0C0202B3
:104A8000020206060606060606060B0B0B0B0B0BB0
:104A90000B0B01021020200808102040102040803D
:104AA00002010201080402010102040810204080F2
:104AB0008040201008040201800402018040201080
:104AC00008040201080402010102040810204080C9
:104AD000010204081020408000000A0B02090C0D9E
:104AE0000E080703040100000000000000000000A1
:104AF00000000000000000000000000000000000B6
:104B00000000000012111000000000000000000072
:104B10000000000000000000000000000000004D48
:104B20006F76652025736D6D004D6F766520302E94
:104B3000316D6D004D6F766520316D6D004D6F7676
:104B4000652031306D6D004D6F7665204178697359
:104B5000004D6F7665204578747275646572004DFE
:104B60006F7665205A004D6F76652059004D6F763F
:104B700065205800844280424368616E6765204624
:104B8000696C616D656E7400556E6C6F6164204672
:104B9000696C616D656E74004C6F61642046696C70
:104BA000616D656E7400507265686561742043754F
:104BB00073746F6D005072656865617420240042E3
:104BC00061636B005072696E742066726F6D204D68
:104BD0006564696100FFFFFF726573756D65640050
:104BE0004469736D69737300526573756D696E679F
:104BF0000073686F7700627574746F6E006265672A
:104C0000696E0044697361626C6552756E6F75748C
:104C10000050757267654D6F726500506175736500
:104C20006400436F6E74696E7565004C6F6164203B
:104C300046696C616D656E74205400496E736572CF
:104C4000742066696C616D656E7420616E6420739A
:104C5000656E64204D3130380A00220A00556E6BB3
:104C60006E6F776E20636F6D6D616E643A20220007
:104C70002042002050006F6B00204500205A002089
:104C8000590020204D39322058005374657073202C
:104C900070657220756E69740020746F6F206C6F80
:104CA0006E6720657874727573696F6E20707265B7
:104CB00076656E7465640A0020636F6C64206578A5
:104CC00074727573696F6E2070726576656E746547
:104CD000640A00486F6D652025732573257320468F
:104CE000697273740020453A00205A3A0020593AFC
:104CF00000583A006F6B0A00526573656E643A2083
:104D0000003430302053755065522052656164790B
:104D10002E005072696E74696E672E2E2E005072CE
:104D2000696E7420506175736564006E6F74696696
:104D300069636174696F6E200000F200BC02112487
:104D40001FBECFEFD1E2DEBFCDBF00E00CBF84B706
:104D50008093731C14BE0FB6F894A89580916000E0
:104D6000886180936000109260000FBE13E0A0E0A5
:104D7000B2E0E2E8FFEE02E00BBF02C007900D9246
:104D8000AA3BB107D9F72CE1AAEBB3E001C01D9211
:104D9000A337B207E1F716E2CEE9D6E200E006C09B
:104DA00021970109802FFE010F942274CD39D1077C
:104DB00080E00807A9F70F94E2600D94AF770C9498
:104DC000000090E080E00895CF93DF93C091770AD0
:104DD000D091780A81E0CE31D105E4F020E030E0D6
:104DE00040E05FE36091730A7091740A8091750AE4
:104DF0009091760A0F942B740F9497756C1B7D0B12
:104E000077FF03C071956195710981E06330710589
:104E10000CF080E0DF91CF910895CF93DF93DB0119
:104E2000F9019C919130C1F0943080F094509C93A2
:104E30008830D1F480819181009771F0019791833E
:104E40008083480F591FEA01188206C08C3539F457
:104E50009C5F9C93943041F4DF91CF9108958B3304
:104E600039F781E08C93F8CF20813181B9016F5FF0
:104E70007F4F71836083420F531FEA0188838081D3
:104E800091818F3591056CF7E7CF0F931F9381E0E8
:104E900000915A1A10915B1A20915C1A30915D1A98
:104EA0004091561A5091571A6091581A7091591A98
:104EB000041715072607370708F480E01F910F91A4
:104EC000089590E080E0089520918106833021F4D8
:104ED00025FD0CC024FD0CC030E0A90102C0559591
:104EE00047958A95E2F7CA018170089581E0089597
:104EF00080E0089580919C0684FD0BC080919E0601
:104F000087FD07C090919F06937081E019F480E0BF
:104F1000089581E00895082E000C990BFC01E45BD4
:104F2000F54BE491EE2391F0F0E0EE0FFF1FEE5C05
:104F3000F54BA591B4912C918E56954BFC01849123
:104F4000282381E090E021F480E0089580E090E063
:104F50000895082E000C990BFC01E45BF54BE491DD
:104F6000F0E0EE0FFF1FE250F64BA591B4912C91AB
:104F70008E56954BFC018491822391E009F490E0D8
:104F8000892F0895CF92DF92EF92FF92CF93DF9314
:104F9000EC01CC80DD80EE80FF8027E137EB41ED36
:104FA00058EBC701B6010F948B7687FD23C023E031
:104FB00030E048EC53E4C701B6010F94396D181680
:104FC000CCF0C880D980EA80FB8027E137EB41ED47
:104FD00058EBC701B6010F948B7687FD0BC0C1E07B
:104FE00023E030E04DEC53E4C701B6010F94396D76
:104FF00018160CF4C0E08C2FDF91CF91FF90EF904A
:10500000DF90CF900895BC01990F880B990B0F94F6
:10501000406D2091D9063091DA064091DB0650911F
:10502000DC060F949F6D2091D1063091D2064091FD
:10503000D3065091D4060F942B740895BC01990F98
:10504000880B990B0F94406D2091D5063091D606B0
:105050004091D7065091D8060F949F6D2091CD06B0
:105060003091CE064091CF065091D0060F942B740C
:1050700008952FEB280F2A3108F047C0E22FF0E007
:1050800080919C0690919D06A0919E06B0919F06EE
:1050900004C0B695A795979587952A95D2F780FD78
:1050A00002C081700895EE57F94FE081EE2341F17F
:1050B0008091BB0B9091BC0BE80FF92FF11D808103
:1050C00090ED980F9A3030F08E3251F481818053F8
:1050D0008A3098F4F0937206E093710681E00895A7
:1050E0008D3211F08B3249F4818190ED980F9A3016
:1050F00088F38E3211F48281EACFF0E0E0E0EACF6B
:105100001092720610927106E9CF80E008950E9415
:105110003928882341F081E0209171063091720690
:10512000232B09F480E008951092B50B8091F707C6
:105130009091F807A091F907B091FA078093F307CF
:105140009093F407A093F507B093F6070895E2EB68
:10515000F9E09491981739F0319699E0E83CF90715
:10516000C1F780E0089581E00895269A2E9A089567
:10517000EF92FF920F931F93CF93DF93EC018B017C
:105180007A018A859B858617970731F088819981F6
:105190000F945B561B870A87B701888199810F940A
:1051A00021492E813F81820F932F911D9F838E83F2
:1051B00090E080E0DF91CF911F910F91FF90EF90F1
:1051C00008959F92AF92BF92CF92DF92EF92FF929B
:1051D0000F931F93CF93DF93EC018B01942EA52E99
:1051E0008A859B858617970731F0888199810F946E
:1051F0005B561B870A8788859985019649F5BC808F
:105200000A818E81080FC880D980D6015596ED910C
:10521000FC91C6011995B80EE92CFA2C10E0F701A3
:1052200021917F01211127C08E819F81810F911DC6
:105230009F838E8390E080E0DF91CF911F910F914B
:10524000FF90EF90DF90CF90BF90AF909F90089528
:105250000E811F81692D7A2D888199810F942149B2
:10526000800F912F911D288539852817390738F629
:1052700081E090E0E1CF4B2D602FC6010F94B35633
:10528000080F180FCCCFDF92EF92FF920F931F936E
:10529000CF93DF93EC01D62E1CAD0BAD7C0184E0E7
:1052A000E80EF11CE98DFA8DC7011995412F480FC1
:1052B0002D2D602FC7010F94B3569BAD890F8BAF77
:1052C00081E090E0DF91CF911F910F91FF90EF90DF
:1052D000DF9008950F931F9380936702803208F048
:1052E00046C09091E708891724F091E0980F9093B9
:1052F000E70841E050E0082E02C0440F551F0A9411
:10530000E2F7052E000C660B770B0091E308109175
:10531000E4082091E5083091E608402351236223F8
:10532000732391E0452B462B472B09F490E0909393
:10533000A61387FD1FC0282F082E000C330B3F93A8
:105340008F938AEC9CE09F938F938AED9CE09F93D0
:105350008F931F920F94A62B8DB79EB707960FB60B
:10536000F8949EBF0FBE8DBF1F910F9108951092AC
:10537000A613DFCF1F910F910D94E057CF93DF93CA
:10538000C091770AD091780A209729F16091730A29
:105390007091740A8091750A9091760A0F949775AE
:1053A0006E5F7F4F24976C177D07ACF470930208F3
:1053B000609301080F94934E605E70448D4F9F4F31
:1053C000609303087093040880930508909306087F
:1053D000DF91CF9108951092030810920408109263
:1053E000050810920608F4CFAB01BC0140935A1A8D
:1053F00050935B1A60935C1A70935D1A83EC9BE187
:105400000C940F99BC01990F880B990B0D94934044
:105410002F923F924F925F926F927F928F929F92C4
:10542000AF92BF92CF92DF92EF92FF921F93CF93F2
:10543000DF93CDB7DEB72C970FB6F894DEBF0FBE63
:10544000CDBF7A011901DC012D913D914D915C9107
:105450002D833E834F835887FB01408051806280BB
:1054600073808090F1139090F213A090F313B0909A
:10547000F413A50194016D817E818F8198850F942D
:10548000396D81110EC011E0A30192016091F513F5
:105490007091F6138091F7139091F8130F94396D72
:1054A000811110E0D1012D913D914D915C912987A1
:1054B0003A874B875C87F701C080D180E280F38018
:1054C00020910A0230910B0240910C0250910D0282
:1054D000C701B6010F94396D882309F44EC0C092FC
:1054E0000A02D0920B02E0920C02F0920D0280911F
:1054F000FD139091FE13A091FF13B0910014409101
:10550000F5135091F6136091F7137091F813809290
:10551000730B9092740BA092750BB092760B409324
:10552000770B5093780B6093790B70937A0BC09242
:105530007B0BD0927C0BE0927D0BF0927E0B8093E4
:105540007F0B9093800BA093810BB093820B20E094
:1055500030E040E05FE36091D4137091D513809107
:10556000D6139091D7130F949F6D69837A838B83A1
:105570009C83CE0101960E9438D12D813E814F81BE
:1055800058852093730B3093740B4093750B509395
:10559000760B4092770B5092780B6092790B709259
:1055A0007A0BD1012D913D914D915C9160917F0BD2
:1055B0007091800B8091810B9091820B0F942B74D2
:1055C00060937F0B7093800B8093810B9093820B81
:1055D00011112FC020E030E0A90169857A858B8503
:1055E0009C850F94396D811133C060E070E088ECC8
:1055F00092E469837A838B839C83CE0101960E9417
:1056000038D12C960FB6F894DEBF0FBECDBFDF9118
:10561000CF911F91FF90EF90DF90CF90BF90AF9010
:105620009F908F907F906F905F904F903F902F90C2
:1056300008952AEF3EE74AE25FE36091D813709144
:10564000D9138091DA139091DB130F949F6DD1CF12
:1056500060E070E080EA91E4CCCF80917106909197
:105660007206009731F04AE050E070E060E00D947F
:10567000546B60E070E0CB0108958091C50B82FF10
:105680000BC063E683EB9DE00F947C160F949F4E56
:105690000F94551F81E0089580E008958091710670
:1056A00090917206009731F04AE050E070E060E0BF
:1056B0000D94266A60E070E0CB010895CF93DF93EC
:1056C000EB010E948728882319F00E944E2BEB01E2
:1056D000CE01DF91CF9108950E944E2B97FD0CC013
:1056E0000E944E2B6F3F71058105910509F034F43E
:1056F0000E944E2B862F089580E008958FEF089525
:10570000CF93C62F0E948728882319F0CF910C943D
:105710006C2B8C2FCF910895809171069091720619
:10572000892B41F00E946C2B91E0811101C090E027
:10573000892F089591E0FCCFCF93DF93C82FD62F08
:105740000E948728882321F0DF91CF910C948C2B25
:105750008C2F0E943928811101C08D2FDF91CF91AC
:1057600008950E944E2BCB010895CF93DF93909123
:10577000A71393FD56C0C82F89E40E948728882369
:1057800009F452C00E946C2B90E01816190614F40C
:1057900081E090E026E0289FF001299FF00D112480
:1057A000EA57F54F82819381D0E08C38910514F04F
:1057B0008CE890E09093780A8093770A0E94BE2943
:1057C0006091770A7091780A072E000C880B990B6C
:1057D0000F94406D2091730A3091740A4091750ABC
:1057E0005091760A0F948B7660E018168CF48EE256
:1057F0009EE10F947C1661E06C278C2F0E9433C3CE
:10580000CC2349F060E08D2FDF91CF910C94A19EC5
:105810008FE19EE1EECF84EE96E290931F19809384
:105820001E19DF91CF91089583E50E948728D82F14
:10583000811107C0CC23A9F382E50E948728882321
:1058400081F30E94B12BB1CFCF93DF93EB010E9484
:105850008728882321F0DF91CF910C94B12BCE01C2
:10586000DF91CF9108950F931F93CF93809171068D
:10587000909172060097E9F0FC018F01C1912C2FE5
:105880002F7D81F0C53411F0C536B9F7F8011082CB
:1058900070E060E00F94C868F801C083CF911F9159
:1058A0000F91089570E060E0CF911F910F910D94DA
:1058B000C86860E070E0CB01F1CFCF92DF92EF9249
:1058C000FF926A017B010E948728882331F0FF90B4
:1058D000EF90DF90CF900C94332CC701B601FF906E
:1058E000EF90DF90CF900895119800C09091020141
:1058F00087FD9095917090930001119A00C000C0AF
:10590000119800C09091020186FD9095917090933E
:105910000001119A00C000C0119800C090910201CE
:1059200085FD9095917090930001119A00C000C080
:10593000119800C09091020184FD90959170909310
:105940000001119A00C000C0119800C0909102019E
:1059500083FD9095917090930001119A00C000C052
:10596000119800C09091020182FD909591709093E2
:105970000001119A00C000C0119800C0909102016E
:1059800081FD9095917090930001119A00C000C024
:10599000119800C080910201817080930001119ADA
:1059A00000C000C0089520E030E040E05FE3609177
:1059B000970B7091980B8091990B90919A0B0F9483
:1059C0002B740F949775CB0108952F923F924F92AD
:1059D0005F926F927F928F929F92AF92BF92CF927F
:1059E000DF92EF92FF920F931F93CF93DF93162FC7
:1059F000072F242EFC0180809180A280B380C501F6
:105A0000B40120E13EE040E050E00F947D73E22ECF
:105A1000D32EC22FD32F8CE3482E512C612C712C06
:105A2000C501B401A30192010F947D73C62E372ED8
:105A3000CA01B901A30192010F947D73F62E772E4E
:105A4000222059F1C501B40120E831E541E050E0E0
:105A50000F947D7369017F92FF92CE0168E170E03F
:105A60000F94FA739F938F933F932F938DEB90E254
:105A70009F938F930F931F930F94D06CEDB7FEB746
:105A80003A960FB6F894FEBF0FBEEDBF88E0FAE07D
:105A9000CF16D104C8F089E017C0209741F53F9296
:105AA000CF927F936F9381EB90E29F938F930F93AD
:105AB0001F930F94D06C8DB79EB708960FB6F894CD
:105AC0009EBF0FBE8DBF85E0DF91CF911F910F91DB
:105AD000FF90EF90DF90CF90BF90AF909F908F900E
