:100000000C9463290C94A3290C94A3290C94A32980
:100010000C94A3290C94A3290C94A3290C94A32930
:100020000C94A3290C94A3290C94A3290C94A32920
:100030000C94A3290C94A3290C94A3290C94A32910
:100040000C94A3290D947E050C94A3290C94A32948
:100050000C94A3290D9406040C94A3290D94FD6718
:100060000C94A3290C945E5B0C94545B0C94A32910
:100070000C94A3290C94A3290C94A3290C94A329D0
:100080000C94F5480C94A3290C94A3290C94A3294F
:100090000C94A3290C94A3290C94A3290C94A329B0
:1000A0000C94A3290C94A3290C94C7480C94A3295D
:1000B0000C94A3290C94A3290C94A3290C94A32990
:1000C0000C94A3290C94A3290C94A3290C94A32980
:1000D0000C94A3290C94A3290C94A3290C94A32970
:1000E0000C94A329084AD73B3BCE016E84BCBFFDCC
:1000F000C12F3D6C74319ABD56833DDA3D00C77FF8
:1001000011BED9E4BB4C3E916BAAAABE0000008090
:100110003F05A84CCDB2D44EB93836A9020C50B91F
:10012000918688083CA6AAAA2ABE000000803F004B
:100130000C94EFE20C944CBE0C9460A30C94EFE989
:100140000C94B59E0C949BA40C94D39E0C94A19EED
:100150000C949AC00D9428700C94BFA00C9421D9D3
:100160000C9432BA0C94E12B0C94DF5E0C94FB5D82
:100170000D94C93D0C9457A50C94BD9F0C9441A3BC
:100180000C94C9A10C948FE20C9457D90C94F05B99
:100190000C945DD90C94E4A10C94CACE0C9451D962
:1001A0000C94E6A80C94FC5B0C94B3BD0C9469D938
:1001B0000C94B8A00D949E3D0C942DD90D94253E21
:1001C0000C9431A80C9453AB0C94DA5B0C9499A763
:1001D0000C9495A70C949C5B0C9480CA0C94F1A889
:1001E0000C9497A40C94ADEC0C942BB90C9429BFEF
:1001F0000C949BA80C94DB9B0C940C5E0C94A1C5F6
:100200000C94239F0C94D05D0C94E3E90C94ED4680
:100210000C940F5E0C946EBC0C9433A30C94B4A09D
:100220000C943BE30C94DCA00C94A69F0C9482A845
:100230000C94BF9E0C9447A30C944B5F0C9493D5E5
:100240000C94F0F00D94B63D0C9489A70C94A7463D
:100250000C941DE20C94CB5B0C94245F0C94005C1A
:100260000C94FE9B0D94BC3D0D94933D0C94E62E96
:100270000C94FBA00C94085E0C948DA70C94ECA03D
:100280000C94AB5E0C941A5C0C9445D90C9450AB56
:100290000C9433D30C94175F0C9483460C9489E927
:1002A0000C94D4EF0C9433F00C94855E0C94559F11
:1002B0000C945AD70C9481A70D94CA3D0C94C1ABF1
:1002C0000C94E95B0C9433A10C94CB460C9420AABB
:1002D0000C94FE5D0C94482F0C94F85B0D94CE3D6D
:1002E0000C94B1F00C94AC480C945BAB0C942A5E6B
:1002F0000C9424CC0C94315F0C944E9C0C945B4871
:100300000C94ACEC0C94BD2B0C94BBF10C945946A2
:100310000C94F6A00C94165E0D948F3D0C94AFD9FE
:100320000D94F73D0C94E9AB0C949D5E0C94A529BB
:100330000C948EC20C9465460C9485460C94195E00
:100340000C94CDA80C94C6A10C94FCA20C943CB6C1
:100350000C945E5E0C9441B60D94243E0C94C32F15
:100360000C948F9F0C9493A40C944DAB0C94B7AF4A
:100370000C94135E0C9432EE0C9491A70C949AA1F9
:100380000C94F1460C94D5A40C9446AA0C9426AA7D
:100390000C944B9F0C940D2A0C94C4AB0C94CB5D25
:1003A0000C94F45B0C948D9E0C94E2400C941EEF24
:1003B0000C9433D90C945AA80C9436AB0C94679CCB
:1003C0000D94893D0C94055E0C940F5C0C94B3EF76
:1003D0000C9499CD0D94C03D0C9463D90C94B95EE6
:1003E0000C9449A30C94C2B00C948EBB0D949B3D0D
:1003F0000C940EE30C9495C70C941FDD0C94B1A1E2
:100400000C943DA30C94859F0C94225C0C944BD9C6
:100410000D94973D0C94EBD90C94095F0C94DD9EE0
:100420000C940AAE0C94ABC50C9476480C94C55E43
:100430000C94B0EC0C9446B60C94B4A80C94E7A0C1
:100440000C94025E0C94ED5E0C943FD90C944BA37B
:100450000C944AAB0C94C9460C9418F00D94A83D2A
:100460000C94AEE20C94BBB60D9446700C942AEC3E
:100470000C9427D90C94A5460C940A2A0C94F39E4C
:100480000C94C0A20C9447AB0C94719F0C94205E0A
:100490000C9456AB0C9445A30C94C3C50C94079CC8
:1004A0000C947DA70C9444AB0C9491480C948F5EF3
:1004B0000C9460AB0C94159F0C943BEF0C9479A7B3
:1004C0000C945AAA0D94CE3E0C9479A20C94BD2E95
:1004D0000C9485A70C94C3A10C94379F0C94CD4623
:1004E0000C9443A30C94079F0C9437B60C9452A819
:1004F0000C945DAB0C94FB5E0C94A8290D94A43D68
:100500000C941D5E0C94EF460C943CE20C94639F9B
:100510000C94235E0C94D15E0C9483A10C94A94698
:100520000C944FAA0D94AE3D0D94C43D0C9463AB56
:100530000C94F1A00C94B24C0C9400C40C94C0A187
:100540000C94B6A20C9475A70C943EB30C94DDE900
:100550000C94085C0C94275E0C94C3F00D94B23D8F
:100560000C943E5F0C94045C0C9414BD0C9441AB51
:100570000C9439D90C943FA34E414E494E495459DD
:10058000494E46CDCCCC3D0AD7233C17B7D138775E
:10059000CC2B329595E6241FB14F0A000020410074
:1005A00000C84200401C4620BCBE4CCA1B0E5AAEBE
:1005B000C59D7400407A10F35A00A0724E180900CD
:1005C00010A5D4E80000E87648170000E40B5402B8
:1005D0000000CA9A3B000000E1F5050000809698F3
:1005E00000000040420F000000A086010000001043
:1005F0002700000000E80300000000640000000085
:10060000000A00000000000100000000002C76D865
:1006100088DC674F0823DFC1DFAE59E1B1B796E54B
:10062000E3E453C63AE651997696E8E6C28426EBAF
:10063000898C9B62ED407C6FFCEFBC9C9F40F2BAC2
:10064000A56FA5F490055A2AF75C936B6CF9676D5A
:10065000C11BFCE0E40D47FEF520E6B500D0ED90AF
:100660002E0300943577050080841E080000204E7C
:100670000A000000C80C333333330F986E12831115
:1006800041EF8D2114893BE65516CFFEE6DB18D1EC
:10069000844B381BF77C1D901DA4BBE424203284BE
:1006A000725E228100C9F124ECA1E53D275A5F5317
:1006B000544F505F50494E005A5F535445505F505D
:1006C000494E005A5F4D494E5F50494E005A5F45B2
:1006D0004E41424C455F50494E005A5F4449525F7B
:1006E00050494E00595F53544F505F50494E005986
:1006F0005F535445505F50494E00595F4D494E5F1E
:1007000050494E00595F454E41424C455F50494E5D
:1007100000595F4449525F50494E00585F53544F4F
:10072000505F50494E00585F535445505F50494EFA
:1007300000585F4D494E5F50494E00585F454E414D
:10074000424C455F50494E00585F4449525F504902
:100750004E00535549434944455F50494E00534567
:1007600052564F335F50494E00534552564F325FF9
:1007700050494E00534552564F315F50494E005339
:100780004552564F305F50494E0053445353005327
:10079000445F4445544543545F50494E004D4F53C8
:1007A0004645545F435F50494E004D4F53464554B4
:1007B0005F425F50494E004D4F534645545F415F85
:1007C00050494E0054454D505F305F43535F504990
:1007D0004E004C45445F50494E004C43445F5049E5
:1007E0004E535F5253004C43445F50494E535F4554
:1007F0004E41424C45004C43445F50494E535F4488
:1008000037004C43445F50494E535F4436004C43DD
:10081000445F50494E535F4435004C43445F504958
:100820004E535F4434004B494C4C5F50494E004896
:1008300045415445525F4245445F50494E0048454A
:10084000415445525F305F50494E0046494C5F521B
:10085000554E4F55545F50494E0046414E5F5049EA
:100860004E0045315F535445505F50494E0045316D
:100870005F454E41424C455F50494E0045315F4413
:1008800049525F50494E0045315F43535F50494ED6
:100890000045305F535445505F50494E0045305F2E
:1008A000454E41424C455F50494E0045305F4449FA
:1008B000525F50494E00444F474C43445F53434BB3
:1008C00000444F474C43445F4D4F53490042544E00
:1008D0005F454E430042544E5F454E435F454E00D8
:1008E00042544E5F454E320042544E5F454E3100F9
:1008F0004245455045525F50494E004156525F5364
:10090000535F50494E004156525F53434B5F50492D
:100910004E004156525F4D4F53495F50494E004182
:1009200056525F4D49534F5F50494E0054454D500C
:100930005F4245445F50494E0054454D505F315F22
:1009400050494E0054454D505F305F50494E00466F
:10095000494C57494454485F50494E00545844301C
:10096000005258443000434F4D4D554E4943415479
:10097000494F4E0044525952554E004552524F5223
:100980005300494E464F004543484F004572726F31
:10099000722077726974696E6720746F20454550C4
:1009A000524F4D210A00363726033C3D380E2E307B
:1009B0003E121A1C180A43090844000153544F50B0
:1009C0005045442E20005072696E74657220737415
:1009D0006F707065642064756520746F2065727235
:1009E0006F72732E20466978207468652065727274
:1009F0006F7220616E6420757365204D393939201E
:100A0000746F20726573746172742E202854656D42
:100A100070657261747572652069732072657365A3
:100A2000742E205365742069742061667465722089
:100A300072657374617274696E67290A004E6F2063
:100A4000436865636B73756D2077697468206C69A2
:100A50006E65206E756D6265722C204C617374201A
:100A60004C696E653A20004E6F20436865636B7376
:100A7000756D2077697468206C696E65206E756D80
:100A80006265722C204C617374204C696E653A204B
:100A900000636865636B73756D206D69736D617458
:100AA00063682C204C617374204C696E653A200099
:100AB0004C696E65204E756D626572206973206E9B
:100AC0006F74204C617374204C696E65204E756D97
:100AD0006265722B312C204C617374204C696E65F9
:100AE0003A20004D3131300053657269616C2073DA
:100AF0007461747573206D69736D617463680A0045
:100B0000776169740A0053442072656164206572DC
:100B1000726F720A00486F74656E642049646C6578
:100B20002054696D656F757400486F74656E64203C
:100B300049646C652054696D656F75740A002121E4
:100B4000204B494C4C2063617573656420627920A9
:100B50004B494C4C20627574746F6E2F70696E0A2D
:100B6000002121204B494C4C206361757365642042
:100B7000627920746F6F206D75636820696E6163A0
:100B8000746976652074696D65202D2063757272B5
:100B9000656E7420636F6D6D616E643A20007061E4
:100BA000757365004D363030002066696C616D6587
:100BB0006E745F72756E6F7574200066696C616D1E
:100BC000656E745F72756E6F757420540046696C43
:100BD000616D656E7452756E6F75742054004D654D
:100BE0006469612052656D6F766564004D65646966
:100BF0006120496E736572746564004D3130303028
:100C00005300627573793A2070617573656420666C
:100C10006F7220696E7075740A00627573793A207C
:100C200070617573656420666F7220757365720AF2
:100C300000627573793A2070726F63657373696EC1
:100C4000670A00506C6561736520526573657400B6
:100C50005052494E5445522048414C544544002579
:100C6000533A20255300706F7765726F6666004BAC
:100C7000494C4C45442E20005072696E74657220B8
:100C800068616C7465642E206B696C6C2829206324
:100C9000616C6C6564210A0053544F505045442EDA
:100CA00020005072696E7465722073746F70706585
:100CB000642064756520746F206572726F72732E84
:100CC0002046697820746865206572726F722061B1
:100CD0006E6420757365204D39393920746F207228
:100CE0006573746172742E202854656D706572612D
:100CF000747572652069732072657365742E205354
:100D000065742069742061667465722072657374FD
:100D1000617274696E67290A006563686F3A0045FD
:100D200072726F723A0042696C696E656172204C32
:100D30006576656C696E6720477269643A0A0021BE
:100D4000212053544F502063616C6C6564206265B0
:100D50006361757365206F6620424C546F756368DC
:100D6000206572726F72202D2072657374617274C7
:100D70002077697468204D3939390A0021212053C0
:100D8000544F502063616C6C6564206265636175CB
:100D90007365206F6620424C546F756368206572DE
:100DA000726F72202D20726573746172742077697E
:100DB0007468204D3939390A005072696E74696E51
:100DC00067204F626A656374002553202569002FF0
:100DD0002F616374696F6E3A007374617274006E90
:100DE0006F74696669636174696F6E200070726FF9
:100DF0006D70745F00656E6400486F74656E64208A
:100E0000746F6F20636F6C640A0053656E64204DCD
:100E100031303820746F20726573756D650A004932
:100E20006E736572742066696C616D656E742061A5
:100E30006E642073656E64204D3130380A0052654F
:100E40006865617420446F6E650052656865617401
:100E5000696E672E2E2E00526568656174004865C4
:100E6000617465722054696D656F75740053656EA9
:100E700064204D31303820746F2068656174206EB5
:100E80006F7A7A6C650A004E6F7A7A6C65205061D1
:100E9000726B656400706175736564005061757391
:100EA00065004732362043616E63656C65640047B8
:100EB00032362048656174696E67204E6F7A7A6CAD
:100EC00065004732362048656174696E6720426567
:100ED000640057616974696E6720666F7220686587
:100EE000617475702E0A004669786564204C656EE1
:100EF000677468205072696D6500446F6E6520509C
:100F000072696D696E67004D616E75616C207072FB
:100F1000696D696E672E2E2E004C656176696E676D
:100F200020473236003F5370656369666965642007
:100F3000582C5920636F6F7264696E617465206FFD
:100F40007574206F6620626F756E64732E0A003FA1
:100F500028522965706561742076616C7565206E14
:100F60006F7420706C61757369626C653B206D7580
:100F70007374206265206174206C65617374203124
:100F80002E0A003F537065636966696564206E6F61
:100F90007A7A6C652074656D7065726174757265BE
:100FA000206E6F7420706C61757369626C652E0AB7
:100FB000003F5370656369666965642066696C61AA
:100FC0006D656E742073697A65206E6F7420706C25
:100FD00061757369626C652E0A003F5370656369C1
:100FE00066696564207072696D65206C656E6774F2
:100FF00068206E6F7420706C61757369626C652E09
:101000000A003F537065636966696564206E6F7A94
:101010007A6C652073697A65206E6F7420706C61DC
:10102000757369626C652E0A003F52657472616364
:1010300074696F6E204D756C7469706C696572208F
:101040006D75737420626520737065636966696588
:10105000642E0A003F5370656369666965642052B7
:10106000657472616374696F6E204D756C7469701C
:101070006C696572206E6F7420706C617573696243
:101080006C652E0A003F537065636966696564206C
:101090006C6179657220686569676874206E6F7429
:1010A00020706C61757369626C652E0A0043292E8D
:1010B0000A003F5370656369666965642062656410
:1010C0002074656D7065726174757265206E6F74E1
:1010D00020706C61757369626C65202834302D0056
:1010E000473236207374617274696E672E2E2E0A31
:1010F000004F46460A004661646520486569676896
:10110000742000426564204C6576656C696E6720CA
:10111000004661696C656420746F20656E61626C65
:101120006520426564204C6576656C696E670A00CF
:10113000496E76616C6964206D6573682E0A005093
:10114000726F62696E6720506F696E74002553205C
:1011500025692F2569002E0A002F0050726F6269E1
:101160006E67206D65736820706F696E7420002053
:101170002844525952554E2900473239204175743E
:101180006F20426564204C6576656C696E67003F30
:1011900020284C2C522C462C4229206F7574206F2D
:1011A0006620626F756E64732E0A003F28562965AB
:1011B00072626F7365206C6576656C20696D706C0A
:1011C00061757369626C652028302D34292E0A0000
:1011D000426164205A2076616C75650A004E6F206A
:1011E00062696C696E65617220677269640A0020C9
:1011F000440020204D3230302053002028446973B1
:1012000061626C6564293A0046696C616D656E7453
:101210002073657474696E67730020204D3230311D
:101220002058004D617820416363656C657261747C
:10123000696F6E2028756E6974732F7332290020D0
:10124000204D3230332058004D617820666565644A
:1012500072617465732028756E6974732F73290029
:1012600020520020204D323034205000416363650D
:101270006C65726174696F6E2028756E6974732F66
:101280007332292028503C7072696E742D6163633B
:10129000656C3E20523C726574726163742D6163AB
:1012A00063656C3E20543C74726176656C2D61639D
:1012B00063656C3E29005741524E494E4721204CF0
:1012C0006F77205A204A65726B206D6179206C65BA
:1012D000616420746F20756E77616E746564207030
:1012E00061757365732E0A0020540020530020207E
:1012F0004D323035204200416476616E6365642072
:1013000028423C6D696E5F7365676D656E745F74CE
:10131000696D655F75733E20533C6D696E5F6665F0
:101320006564726174653E20543C6D696E5F7472D1
:101330006176656C5F66656564726174653E2058B0
:101340003C6D61785F6A65726B3E20593C6D6178D7
:101350005F6A65726B3E205A3C6D61785F6A6572A8
:101360006B3E20453C6D61785F6A65726B3E29007B
:1013700020440020490020204D33303120500048C7
:101380006F74656E64205049440020440020490079
:1013900020204D33303420500042656420504944B1
:1013A0000050574D3A20202534640050574D3A20C4
:1013B000202534640050574D3A20202534640050D5
:1013C000574D3A20202534640050574D3A202025AF
:1013D00034640050574D3A20202534640050574D56
:1013E0003A20202534640050574D3A20202534649B
:1013F0000050574D3A20202534640050574D3A2074
:10140000202534640050574D3A2020253464005084
:10141000574D3A20202534640050574D3A2020255E
:1014200034640050574D3A20202534640050574D05
:101430003A20202534640050574D3A20202534644A
:10144000003A200020202020434F4D002020206E15
:101450006F6E2D7374616E646172642050574D20FD
:101460006D6F646500202020636F6D706172652070
:10147000696E7465727275707420656E61626C65F8
:1014800064002020206F766572666C6F7720696E2D
:101490007465727275707420656E61626C6564004B
:1014A0003A20002020202054494D534B00423A203E
:1014B00000202020205443435200413A20002020A5
:1014C000202054434352002020202043533A200040
:1014D0002020202057474D3A200050574D3A2020D9
:1014E0002534640050574D3A2020253464004700CD
:1014F0004800000088008A008C00B300B40000009F
:1015000098009A009C00A800AA00AC0028012A01BB
:101510002C012020202054494D4552004400450014
:101520006E00800081006F00B000B100700090007C
:1015300091007100A000A100720020012101730040
:1015400020697320616C736F207469656420746F07
:1015500020746869732070696E0054494D4552319A
:1015600043000A202E002020002020506F72743A81
:10157000200020202000202020416E616C6F672019
:10158000696E203D2025356C64003C756E75736571
:10159000642F756E6B6E6F776E3E0020284125328A
:1015A0006429202000253364200050494E3A200051
:1015B0004F7574707574203D2000496E70757420ED
:1015C000203D2000416E616C6F6720696E203D20D8
:1015D00025356C640070726F7465637465642000F7
:1015E0002028412532642920200025336420005022
:1015F000494E3A2000610900015C0901014F093B95
:101600000044094300390945002C0944001F0932F0
:10161000011209330106093401FB083501F00825E0
:1016200001E8081F01E0082101D5081D01CD0823AC
:1016300001C1083301B6083401AB081C019D08182C
:101640000191081A0187082C017C0822016E081EEE
:1016500001620824015A0809014B0802013E080AE8
:10166000012F080801260829011A0817010E081978
:101670000102081B01F6071D01E6071101DA071038
:1016800001D2070D01C4074201B7070A01AA0707E3
:10169000019D0708018F0731018A0735017F070B7C
:1016A0000174070601690705015E07040152070C72
:1016B00001480737013B072601310703012607369A
:1016C000011B07030111073D0104073801FA060E4B
:1016D00001EF063C01E4060E01DA063001CD063EBC
:1016E00001C3061201B8062E01AD061201446F6E49
:1016F000652E0A0050756C73696E672020200055B6
:101700006E746F7563686564200066616C73650054
:101710004641494C3A204E6F207472696767657282
:101720002064657465637465640A004641494C3AF7
:10173000204E6F6973652064657465637465642009
:101740002D20706C656173652072652D72756E2039
:10175000746573740A002064657465637465642E2F
:101760000A003D20424C546F7563682070726520FA
:1017700056332E3120286F7220636F6D706174694B
:10178000626C6529003D205A20536572766F2050A7
:10179000726F6265003D20424C546F75636820563D
:1017A000332E310020282B2F2D20346D73293A2021
:1017B000003A2033306D73206F72206D6F72650AAE
:1017C000002E2050756C7365207769647468002A58
:1017D0002A20506C65617365207472696767657251
:1017E0002070726F62652077697468696E2033308B
:1017F00020736563202A2A0A004641494C3A204258
:101800004C544F55434820656E61626C6564202DD1
:101810002053657420757020746869732064657640
:10182000696365206173206120536572766F205073
:10183000726F6265207769746820494E564552542C
:10184000494E472073657420746F20277472756544
:10185000272E0A0020204445504C4F594544207300
:10186000746174653A204C4F5720286C6F67696328
:101870002030290020204445504C4F5945442073C6
:10188000746174653A204849474820286C6F67693D
:1018900063203129003D204D656368616E69636195
:1018A0006C2053776974636820646574656374653C
:1018B000640A005741524E494E473A20494E564518
:1018C0005254494E472073657474696E6720707274
:1018D0006F6261626C79206261636B7761726473BD
:1018E0002E0A002E204465706C6F792026207374B8
:1018F0006F7720342074696D65730A003D20424C77
:10190000546F75636820436C617373696320312E73
:10191000322C20312E332C20536D61727420312EE5
:10192000302C20322E302C20322E322C20332E30F0
:101930002C20332E312064657465637465642E0A2F
:10194000002E20436865636B20666F7220424C5402
:101950004F5543480A002E205A5F4D494E5F454E71
:101960004453544F505F494E56455254494E473A9E
:1019700020002E2050726F6265205A5F4D494E5FE5
:1019800050494E3A20002C2073746F7720616E67A7
:101990006C653A202020002C206465706C6F7920E3
:1019A000616E676C653A2000536572766F207072C5
:1019B0006F626520746573740A2E207573696E6793
:1019C00020696E6465783A2020004D3433205761D9
:1019D00069742043616C6C65640057617463686965
:1019E0006E672070696E730A0064697300656E002B
:1019F00061626C65640A00656E6473746F70206D5B
:101A00006F6E69746F72200020580020204D61783D
:101A10003A2000200020204D696E3A2000203B2013
:101A20000020204D323131205300536F6674206501
:101A30006E6473746F7073003F43616E6E6F7420D9
:101A4000777269746520746F20494E5055540A00AE
:101A5000496E76616C69642050696E204D6F6465D3
:101A60000A00203B0020550020204D363033204C0A
:101A70000046696C616D656E74206C6F61642F75D2
:101A80006E6C6F6164004D323453256C6454256C68
:101A900064004739322E39452573004731462564A5
:101AA0000047315A25734636303000473158257388
:101AB0005925734633303030004D3130365025696A
:101AC000532569004D313039532569004D3230308E
:101AD000442573004739322E395A2573004D34326C
:101AE000305325635A257300473238523058590015
:101AF00047315A257346363030004739322E395A2D
:101B00002573004739322E394530004D3130395375
:101B10002569004D313930532569004D343230206C
:101B20005330205A3000203B200020204D343133E8
:101B3000205300506F7765722D6C6F737320726540
:101B4000636F76657279004F4646004F4E00203B2A
:101B500020486F73742068616E646C696E67200042
:101B6000203B204D6F646520006D6D00203B2044BC
:101B7000697374616E6365200046696C616D656EA2
:101B8000742072756E6F757420003B200020496EC2
:101B900076616C6964206578747275646572200082
:101BA00047322F47332062616420706172616D6536
:101BB000746572730A00536C6565702E2E2E005A80
:101BC0002050726F62652050617374204265640A10
:101BD000005A2050726F6265205061737420426514
:101BE00064004732384C3000205A3A200020593ADD
:101BF000200042656420583A20004D6573682070CB
:101C00006F696E74206F7574206F662072616E67E5
:101C1000650A004D302053746F70004D31205374AD
:101C20006F7000436C69636B20746F20526573752D
:101C30006D652E2E2E004E6F204D6F76652E004561
:101C40006E642066696C65206C6973740A00426575
:101C500067696E2066696C65206C6973740A004E52
:101C60006F206D656469610A00526573756D696EF8
:101C70006720534400286E6F2066696C6529004315
:101C8000757272656E742066696C653A20005072D8
:101C9000696E742074696D653A20000A537461742A
:101CA000733A2046696C616D656E74207573656466
:101CB0003A20002C204C6F6E67657374206A6F6247
:101CC0003A2000546F74616C2074696D653A20008D
:101CD00053746174733A20002C204661696C65640A
:101CE0003A20002C2046696E69736865643A2000CA
:101CF0005072696E74733A200053746174733A20A1
:101D0000006F6B006F666600870982097B097409A2
:101D1000660944454255473A004D3131332053005E
:101D2000353030205375506552204F46462E002FD7
:101D30002F004D31343520533C696E6465783E2068
:101D40006F7574206F662072616E67652028302D74
:101D500031290A0046523A0020466C6F773A20003B
:101D600050726F7465637465642050696E0A003A3E
:101D7000200020536572766F2000206F7574206FED
:101D8000662072616E67650A00536572766F200087
:101D900064697300656E0043290A0061626C6564C2
:101DA00020286D696E2074656D702000436F6C642F
:101DB00020657874727564657320617265200042D5
:101DC0004C546F756368204853206D6F6465200024
:101DD0004D34323120696E636F72726563742070A6
:101DE0006172616D657465722075736167650A0063
:101DF0004D65736820706F696E74206F7574206F05
:101E0000662072616E67650A004F6666736574735B
:101E1000204170706C696564004572723A20546F9D
:101E20006F206661722100546F6F206661722066B8
:101E3000726F6D207265666572656E636520706F86
:101E4000696E740A00454550524F4D204F4B0A00B1
:101E50002E0A002028302D313029002076616C7543
:101E600065206F7574206F662072616E6765004132
:101E70006476616E6365204B3D004D383400446FDD
:101E80006E65207072696E74696E672066696C6534
:101E90000A004D3737004D33310020204D323036A7
:101EA000205800486F6D65206F6666736574004347
:101EB00061703A00434F4E4649475F4558504F5274
:101EC00054004D4541545041434B00434F4F4C4506
:101ED000525F54454D504552415455524500434878
:101EE000414D4245525F54454D5045524154555223
:101EF0004500424142595354455050494E470041D4
:101F0000524353004D4F54494F4E5F4D4F4445533C
:101F100000544845524D414C5F50524F5445435434
:101F2000494F4E00455854454E4445445F4D32306C
:101F300000435553544F4D5F4649524D574152450A
:101F40005F55504C4F4144004C464E5F57524954E8
:101F500045004C4F4E475F46494C454E414D45006C
:101F60004155544F5245504F52545F53445F535460
:101F7000415455530053445F57524954450052450C
:101F800050454154004D554C54495F564F4C554DAA
:101F900045005344434152440050524F4D50545F0A
:101FA000535550504F525400484F53545F4143547F
:101FB000494F4E5F434F4D4D414E445300454D45B3
:101FC0005247454E43595F50415253455200434199
:101FD00053455F4C494748545F4252494748544E25
:101FE00045535300544F47474C455F4C494748546D
:101FF0005300534F4654574152455F504F57455237
:10200000004255494C445F50455243454E54004CA4
:102010004556454C494E475F44415441005A5F5034
:10202000524F42450052554E4F5554004155544F62
:102030004C4556454C005052494E545F4A4F420061
:1020400050524F4752455353004155544F524550FB
:102050004F52545F54454D50004155544F524550D6
:102060004F52545F504F5300564F4C554D455452AC
:10207000494300454550524F4D0042494E41525947
:102080005F46494C455F5452414E534645520053BA
:10209000455249414C5F584F4E5F584F46460046A7
:1020A00049524D574152455F4E414D453A4D61723F
:1020B0006C696E20322E302E395F4457372E342E05
:1020C0003620544D33442035454D4142422028416D
:1020D000707220323820323032322030323A32328E
:1020E0003A33392920534F555243455F434F4445B6
:1020F0005F55524C3A68747470733A2F2F67697445
:102100006875622E636F6D2F496E73616E697479A5
:102110004175746F6D6174696F6E2F4D61726C697A
:102120006E2F747265652F437265616C69747944B2
:1021300077696E5F322E302050524F544F434F4CD0
:102140005F56455253494F4E3A312E30204D414350
:1021500048494E455F545950453A35303020537503
:102160005065522045585452554445525F434F558F
:102170004E543A3120555549443A6365646532619D
:1021800032662D343161322D343734382D39623195
:10219000322D6335356336326633363766660A006C
:1021A00050726F6265204F6666736574205A0050E6
:1021B000726F6265204F6666736574205A00290A43
:1021C0000020746F20003F5A206F7574206F6620C6
:1021D00072616E6765202800290A0020746F200054
:1021E0003F59206F7574206F662072616E6765209D
:1021F000282D00290A0020746F20003F58206F7599
:1022000074206F662072616E676520282D00203B68
:102210000020204D3835312058005A2D50726F6201
:1022200065204F66667365740043616E6E6F74203F
:102230006F70656E20737562646972200025697322
:102240000025696D20256973002569682025696D61
:102250002025697300256964202569682025696D3A
:10226000202569730025697920256964202569681E
:102270002025696D2025697300436F6F6C696E6757
:102280002E2E2E0045312025530042656420436FD9
:102290006F6C696E672E2E2E004265642048656162
:1022A00074696E672E2E2E0023646566696E652044
:1022B00044454641554C545F00626564004B6420C0
:1022C000004B6920004B7020005049442074756E0B
:1022D000696E6720646F6E650050494420417574D3
:1022E0006F74756E652066696E6973686564212018
:1022F00050757420746865206C617374204B702C69
:10230000204B6920616E64204B6420636F6E737490
:10231000616E74732066726F6D2062656C6F7720DA
:10232000696E746F20436F6E666967757261746958
:102330006F6E2E680A00504944204175746F7475A1
:102340006E65206661696C6564212074696D656FD6
:1023500075740A004175746F74756E6520666169E5
:102360006C6564212054696D656F75742E00504949
:1023700044204175746F74756E65206661696C6583
:1023800064212054656D7065726174757265207486
:102390006F6F20686967680A005049442043796379
:1023A0006C65730025532025692F256900204B6437
:1023B0003A2000204B693A2000204B703A20002040
:1023C000436C617373696320504944200A00204EB6
:1023D0006F206F76657273686F6F740A0020547592
:1023E0003A2000204B753A2000206D61783A200099
:1023F000206D696E3A200020643A200020626961F5
:10240000733A200048656174696E672E2E2E005065
:102410004944204175746F74756E652073746172E0
:10242000740A004175746F74756E65206661696C1D
:1024300065642E2054656D706572617475726520D7
:10244000746F6F20686967682E0050494420417599
:10245000746F74756E65206661696C6564212054C3
:10246000656D706572617475726520746F6F206838
:102470006967680A00504944204175746F74756E2D
:102480006500504944204175746F74756E6520660F
:1024900061696C65642120426164206865617465CE
:1024A000722069640A004572723A20757466382099
:1024B000666F6E74206E6F7420696E697469616CEA
:1024C000697A65642E004572723A20757466382008
:1024D000666F6E74206E6F7420696E697469616CCA
:1024E000697A65642E004572723A207574663820E8
:1024F000666F6E74206E6F7420696E697469616CAA
:10250000697A65642E002568753A25303268750051
:1025100025303268753A25303268750025303268CA
:10252000752725303268750025687564202530329E
:1025300068753A253032687500000C0F00FE0702FE
:102540002503BB017FFE08FE08FE05080806000003
:1025500040F0C88888987810050808060000C0F880
:102560008888888888F80505050600012030F8303D
:10257000200508080600002070F820202020E00533
:1025800009090600FF2070A8A8B8888870200705F0
:1025900005070001D86C366CD80509090600FFF85C
:1025A000A88888888888A8F8050A0A0600FE2050AE
:1025B00050505088A8A8887003030306000340A069
:1025C00040FFFFFFFFFFFFFFFFFFFFFFFFFFFFFFDA
:1025D000FFFFFFFFFFFFFF0000000605FF010707E9
:1025E00006020080808080800080030303060105CE
:1025F000A0A0A005060606000050F85050F85005AF
:1026000009090600FF2070A8A07028A870200507FF
:1026100007060000C8C81020409898050707060064
:102620000040A0A040A89068010303060205808036
:10263000800309090601FF2040408080804040203F
:102640000309090601FF804040202020404080050A
:10265000070706000020A8702070A82005050506C1
:1026600000012020F820200203030601FFC0408063
:10267000050101060003F8020202060100C0C005C0
:1026800007070600000810102040408005070706D5
:102690000000708898A8C8887003070706010040EA
:1026A000C040404040E00507070600007088081061
:1026B0002040F8050707060000F808103008887069
:1026C00005070706000010305090F81010050707A6
:1026D000060000F880F0080888700507070600006B
:1026E000304080F0888870050707060000F8081061
:1026F0001020202005070706000070888870888851
:1027000070050707060000708888780810600205C9
:1027100005060100C0C000C0C00206060601FFC0D9
:10272000C000C04080030505060101204080402014
:10273000050303060002F800F80305050601018001
:102740004020408005070706000070881020200008
:10275000200507070600007088B8A8B88070050734
:1027600007060000708888F8888888050707060033
:1027700000F04848704848F00507070600007088D8
:102780008080808870050707060000F048484848A8
:1027900048F0050707060000F88080F08080F80503
:1027A0000707060000F88080F08080800507070694
:1027B00000007088808098887005070706000088F0
:1027C0008888F8888888030707060100E0404040B1
:1027D0004040E00507070600003810101010906018
:1027E0000507070600008890A0C0A090880507078D
:1027F000060000808080808080F8050707060000C2
:1028000088D8A8888888880507070600008888C8AF
:10281000A898888805070706000070888888888837
:1028200070050707060000F08888F08080800507A3
:102830000706000070888888A890680507070600CA
:1028400000F08888F0A090880507070600007088CF
:102850008070088870050707060000F820202020F7
:10286000202005070706000088888888888870056A
:10287000070706000088888888505020050707064B
:10288000000088888888A8A85005070706000088E7
:102890008850205088880507070600008888502047
:1028A000202020050707060000F80810204080F8C7
:1028B0000309090601FFE080808080808080E005B8
:1028C0000707060000804040201010080309090691
:1028D00001FFE020202020202020E0050303060047
:1028E000052050880501010600FEF80303030601D8
:1028F00005804020050505060000700878887805E9
:1029000007070600008080F0888888F00505050626
:1029100000007080808870050707060000080878AE
:10292000888888780505050600007088F0807005A5
:102930000707060000304840E04040400507070612
:1029400000FE7088888878087005070706000080F8
:1029500080F0888888880307070601004000C0408F
:102960004040E00409090601FE100030101010106C
:10297000906005070706000080808890E09088033B
:102980000707060100C04040404040E0050505063D
:102990000000D0A8A8A8A8050505060000B0C888B2
:1029A0008888050505060000708888887005070777
:1029B0000600FEF0888888F080800507070600FE84
:1029C00078888888780808050505060000B0C88062
:1029D000808005050506000078807008F00507076F
:1029E0000600002020F8202020180505050600001C
:1029F0008888889868050505060000888888502022
:102A00000505050600008888A8A8500505050600EC
:102A10000088502050880507070600FE88888850E7
:102A2000204080050505060000F8102040F8030945
:102A3000090601FF20404040804040402001090934
:102A40000602FF80808080808080808003090906E4
:102A500001FF8040404020404040800503030600C5
:102A60000248A890FF554E4C4F41442046494C41E6
:102A70004D454E54004C4F41442046494C414D4534
:102A80004E540046494C414D454E54204348414E1A
:102A900047450042656400456E636C6F73757265EF
:102AA00000202020202020200020202020006572EF
:102AB00072001FE020102010201010201020201085
:102AC000201030300840048003001FE03FF03FF04A
:102AD0003FF01FE01FE03FF03FF03FF00FC00780E6
:102AE00003003FFFF038007030FC3020FC102078ED
:102AF000102030102C00D02E31D02F7BD02F7BD047
:102B00002E31D02C00D020301020781020FC103036
:102B1000FC303800703FFFF03FFFF0380070318626
:102B2000302387102787902F87D02F03D020301095
:102B30002078102078102030102F03D02F87D02736
:102B400087902387103186303800703FFFF01FFFD9
:102B5000F81FFFF80410400208200208200410406B
:102B6000082080104100104100082080041040001F
:102B700000001FFFF81FFFF8FFFFFF8000018E001D
:102B8000E19F01F19381399F81F99F81F99FB9F903
:102B90008F28F18038018000019FFFF99174999B83
:102BA00006A99B54A99B56A99B54999FFFF9FFFF27
:102BB000FF63616E63656C005072696E74204162E0
:102BC0006F727465640055492041626F7274656468
:102BD000004D323520500A4D323400526573756D08
:102BE00065005549205061757365005061757369C2
:102BF0006E672E2E2E00726573756D65004D323432
:102C00000000FE0003FF8007C7C00701E00000E0EE
:102C10000000F00000700400700E00701F00703F94
:102C200080F00E00E00F01E007C7C003FF8000FE48
:102C30000000FE0003FF8007C7C00F01E00E00E0A8
:102C40003F80F01F00700E007004007000007000E4
:102C500000F00000E00701E007C7C003FF8000FEAE
:102C6000000E000E000E000E000E000E000E000EF4
:102C7000007FC03F801F000E00040004000E001FF4
:102C8000003F807FC00E000E000E000E000E000EF2
:102C9000000E000E00FFFFFF7F80FFC0FFC0FFC0DF
:102CA0007F807F80FFC0FFC0FFC03F001E000C0080
:102CB00050726F6265205A204F66667365740052C9
:102CC000756E6F75742044697374206D6D004D6F5F
:102CD00074696F6E20456E636F6465720053656E34
:102CE000736F72204C6F770053656E736F7220485C
:102CF000696768004E6F2053656E736F720052757E
:102D00006E6F75742053656E736F720052756E6FBF
:102D10007574204D6F6465004C6F6164206D6D00AB
:102D2000556E6C6F6164206D6D0046696C2E204499
:102D300069612E004520696E206D6D5E330041642F
:102D400076616E6365204B004D3330332055312062
:102D50004525692053256900504944204175746F09
:102D600074756E65202A005049442D44202A005075
:102D700049442D49202A005049442D50202A002042
:102D8000082046616374002008204D617800200807
:102D9000204D696E004F6666004F6E004175746F7E
:102DA00074656D70004D696E2054726176656C209B
:102DB00056656C004D696E2056656C6F6369747959
:102DC000004D617820452056656C004D6178205A91
:102DD0002056656C004D617820592056656C004D79
:102DE000617820582056656C004D6178204520415F
:102DF0006363656C004D6178205A20416363656CA4
:102E0000004D6178205920416363656C004D617805
:102E1000205820416363656C0054726176656C20B4
:102E2000416363656C005265747261637420416331
:102E300063656C00416363656C004D6178204520DB
:102E40004A65726B004D6178205A204A65726B00AA
:102E50004D61782059204A65726B004D6178205889
:102E6000204A65726B0050726F6265205A204F666F
:102E7000667365740050726F62652059204F6666F4
:102E80007365740050726F62652058204F666673D8
:102E9000657400452073746570732F6D6D005A2042
:102EA00053746570732F6D6D005920537465707382
:102EB0002F6D6D00582053746570732F6D6D004138
:102EC0006476616E6365642053657474696E6773BC
:102ED000003F0043616E63656C00496E6974004D8C
:102EE00034323800496E697469616C697A652045CD
:102EF0004550524F4D0046696C616D656E740054CB
:102F0000656D706572617475726500537465707378
:102F10002F6D6D0050726F6265204F666673657429
:102F200073004A65726B00416363656C657261741E
:102F3000696F6E0056656C6F6369747900536574D0
:102F400020486F6D65204F66667365747300436F2C
:102F50006E66696775726174696F6E003F004E65D9
:102F6000787420506F696E7400446F6E65004E6512
:102F7000787400486F6D696E672058595A003F0099
:102F800043616E63656C204F626A656374004E4FE7
:102F9000005945530043616E63656C204F626A655A
:102FA0006374203D004D61696E0048696768205375
:102FB000706565640053572D4D6F64650053746FE1
:102FC00077004465706C6F790053656C662D5465AD
:102FD000737400526573657400426564004E6F7AC5
:102FE0007A6C650046616E20537065656400436FBE
:102FF0006E66696775726174696F6E00526573748D
:103000006F72652044656661756C7473004C6F6106
:10301000642053657474696E67730053746F7265CE
:103020002053657474696E677300507265686561DA
:1030300074202420436F6E6600506F776572204FB6
:103040007574616765004F6666004F6E0052756E5D
:103050006F75742053656E736F7200424C546F75B8
:1030600063680050726F6265205A204F6666736510
:103070007400416476616E6365642053657474699D
:103080006E6773004D61696E004D373032205425F4
:1030900064004D36303020423020542564004D37D6
:1030A0003032203B2564004D3730312054256400F8
:1030B0004D373032004D373031004D363030204200
:1030C00030004D61696E00436F6E74696E75650006
:1030D0004F6666004F6E0052756E6F7574205365B3
:1030E0006E736F72005075726765206D6F72650048
:1030F000524553554D45204F5054494F4E533A0079
:103100005052494E54205041555345440020204EC2
:103110006F7A7A6C653A20005061726B696E672E27
:103120002E2E0000005761697420666F7200666978
:103130006C616D656E74206368616E676500746FA5
:10314000207374617274005761697420666F720035
:1031500066696C616D656E7420756E6C6F6164007C
:10316000004E6F7A7A6C652068656174696E6700DD
:10317000506C6561736520776169742E2E2E000096
:10318000507265737320627574746F6E00746F2073
:1031900068656174206E6F7A7A6C650000496E73A1
:1031A0006572742066696C616D656E7400616E6431
:1031B00020707265737320627574746F6E00746F23
:1031C00020636F6E74696E7565005761697420665F
:1031D0006F720066696C616D656E74206C6F6164FE
:1031E0000000507265737320427574746F6E0074C2
:1031F0006F20726573756D65207072696E74000062
:103200005761697420666F72207072696E74007401
:103210006F20726573756D652E2E2E0000576169E3
:103220007420666F720066696C616D656E742070E3
:103230007572676500003E2000256C642E25696D5F
:1032400000457874727564656420546F74616C0015
:103250003E20004C6F6E67657374204A6F62205485
:10326000696D65003E20005072696E742054696D6E
:103270006500436F6D706C65746564003A200050A2
:1032800072696E7420436F756E74003A2000313598
:10329000300035004245443A203125206265746192
:1032A00020333935300052756E617761792057616E
:1032B0007463683A204F4E004D61782054656D70FC
:1032C00000343530004D696E2054656D7000350056
:1032D00045313A20536C696365456E67203435305B
:1032E000C2B043005053550047656E657269630074
:1032F00050726F746F636F6C00312E3000426175D5
:10330000640032353030303000437265616C69746E
:103310007933442052414D50530042696C696E65C7
:103320006172204C6576656C696E670045787472D1
:10333000756465727300310074696E796D616368DC
:10334000696E657333642E636F6D003530302053C2
:103350007550655200323032322D30342D3033000A
:10336000322E302E395F4457372E342E36004D61C1
:10337000726C696E005072696E746572205374616C
:10338000747300546865726D6973746F7273004270
:103390006F61726420496E666F005072696E746569
:1033A0007220496E666F004D61696E004D3130309C
:1033B000300053746F70205072696E7400526573E0
:1033C000756D65205072696E7400506F776572205C
:1033D0004F7574616765004D3139305337350A4791
:1033E00032380A4732390A4D3430300A4D313034E0
:1033F000533231350A4732380A4D31303953323180
:10340000350A4D34323053310A4731583130305952
:1034100031303046353030300A47315A300A4D3578
:1034200030300A4D37370A4D31313720536574201B
:103430005A204F6666736574004D31303653313211
:10344000380A4D3330334338533231354530550A1D
:103450004D3530300A4D31313720504944205475B4
:103460006E6520446F6E65004D3139305337350A33
:103470004D313034533231350A4732380A47323908
:103480004C310A47312058313030593130304635CF
:103490003030300A47315A30004D3530300A4D3126
:1034A00031372053657474696E67732053746F727B
:1034B00065640053746F72652053657474696E6738
:1034C00073005072657020666F72205A2041646AE2
:1034D000757374005049442054756E6500536574CB
:1034E0007570004D61696E003F004261636B00536F
:1034F000746F70004E6F204D656469610050726991
:103500006E742066726F6D204D656469610043685A
:10351000616E6765204D65646961004D323100411F
:10352000626F7574205072696E74657200436861D1
:103530006E67652046696C616D656E74004C6576DA
:10354000656C696E6720546F6F6C7300436F6E66B5
:10355000696775726174696F6E0054656D7065722C
:103560006174757265004D6F74696F6E005374619C
:10357000727420486F7374205072696E74005265C3
:1035800073756D65205072696E740043616E63657A
:103590006C204F626A6563740054756E65005374E5
:1035A0006F70205072696E740050617573652050A1
:1035B00072696E7400496E666F2053637265656E42
:1035C000003F005374617274205072696E7400433E
:1035D000616E63656C005072696E740043616E6E5B
:1035E0006F7420656E746572207375626469723AD7
:1035F000200002202E2E004D61696E002100486FD0
:1036000074656E6420746F6F20636F6C6400426138
:10361000636B0050726F6365656400536F6674205E
:10362000456E6473746F7073004D6F74696F6E00D4
:1036300044697361626C6520537465707065727360
:10364000004D383400426564205472616D6D696EBE
:1036500067004661646520486569676874004F6665
:1036600066004F6E00426564204C6576656C696E3D
:1036700067004C6576656C20426564004732394EC0
:10368000004732385A004732385900486F6D65207C
:10369000400047323858004175746F20486F6D659F
:1036A00000473238004D61696E005072656865618F
:1036B000742024204265640050726568656174203E
:1036C0002420456E640054656D7065726174757276
:1036D0006500436F6F6C646F776E0050726568654C
:1036E000617420240046616E205370656564004259
:1036F0006564004E6F7A7A6C65004D61696E0050AA
:10370000726F6265205A204F66667365740041646B
:1037100076616E6365204B00466C6F770046616E84
:1037200020537065656400426564004E6F7A7A6C60
:1037300065005370656564004D61696E00486F6D8A
:10374000696E67204661696C656400505245534557
:103750004E54004F5554006F70656E0054524947E7
:103760004745524544003A20004D4F54494F4E20A2
:103770003A20004F46460A003A200066696C616DA7
:10378000656E74007A5F6D696E00795F6D696E00B9
:10379000785F6D696E005265706F7274696E672034
:1037A000656E6473746F70207374617475730A004E
:1037B00020746F6F206C6F6E6720657874727573FC
:1037C000696F6E2070726576656E7465640A00209C
:1037D000636F6C6420657874727573696F6E2070A6
:1037E000726576656E7465640A00486F6D652025A4
:1037F0007325732573204669727374005761726E66
:10380000696E673A20486F6D696E672042756D700A
:103810002044697669736F72203C20310A000202ED
:10382000040000000000000000000000000000FF95
:10383000430000FA430000FA43000000410000008A
:103840004100000040FFFFFF0000000100000001F8
:103850000000800055555500000040003333330010
:10386000AAAA2A004992240000002000C7711C0067
:1038700099991900D1451700555515003BB1130012
:103880002449120011111100000010000F0F0F0049
:10389000E3380E0043790D00CCCC0C00C3300C0093
:1038A000E8A20B0064210B00AAAA0A00703D0A00DE
:1038B0009DD80900427B090092240900DCD308004E
:1038C000888808001042080000000800F0C10700C6
:1038D0008787070075500700711C07003EEB060044
:1038E000A1BC06006990060066660600703E0600F0
:1038F0006118060017F4050074D105005BB00500DF
:10390000B290050062720500555505007839050032
:10391000B81E0500050505004EEC040087D4040020
:10392000A1BD040090A7040049920400C17D0400D9
:10393000EE690400C7560400444404005C320400ED
:103940000821040041100400000004003FF00300BF
:10395000F8E0030026D20300C3C30300CCB5030084
:103960003AA803000A9B0300388E0300C0810300BD
:103970009F750300D0690300505E03001D530300D0
:1039800034480300913D030033330300162903003C
:10399000381F030097150300300C030003030300D6
:1039A0000BFA020049F10200BAE802005CE00200F2
:1039B0002DD802002DD0020059C80200B0C002006C
:1039C00031B90200DAB10200AAAA0200A0A30200E3
:1039D000BC9C0200FA9502005C8F0200DF880200A6
:1039E00082820200457C02002776020027700200D6
:1039F000436A02007C640200D05E02003F5902006C
:103A0000C8530200FFFDFCFAF8F6F4F2F0EEECEA1F
:103A1000E9E7E5E3E1E0DEDCDAD9D7D5D4D2D0CFEF
:103A2000CDCBCAC8C7C5C3C2C0BFBDBCBAB9B7B683
:103A3000B4B3B2B0AFADACAAA9A8A6A5A4A2A1A0E8
:103A40009E9D9C9A99989795949392908F8E8D8B2A
:103A50008A8988878684838281807F7E7D7B7A794C
:103A60007877767574737271706F6E6D6C6B6A694E
:103A70006867666564636261605F5E5D5C5B5A593E
:103A800058585756555453525150504F4E4D4C4B19
:103A90004A4A4948474646454443424241403F3EE0
:103AA0003E3D3C3B3B3A3938383736353534333296
:103AB000323130302F2E2E2D2C2B2B2A292928273E
:103AC0002726252524232322212120201F1E1E1DD9
:103AD0001C1C1B1B1A191918181716161515141368
:103AE0001312121111100F0F0E0E0D0D0C0C0B0AEC
:103AF0000A09090808070706060505040403030266
:103B0000020100000000FF430000FA430000FA43F6
:103B10000000000000000000000000005365747405
:103B2000696E67732053746F72656400290A002000
:103B300062797465733B206372632000536574740B
:103B4000696E67732053746F726564202800454561
:103B500050524F4D20496E697469616C697A656491
:103B60000A0048617264636F64656420446566613D
:103B7000756C742053657474696E6773204C6F6143
:103B80006465640020286D6D2900203B204C65761B
:103B9000656C696E67200020204D34323020530060
:103BA0004175746F20426564204C6576656C696E62
:103BB000670020460020480020204D313435205336
:103BC000004D6174657269616C206865617475701F
:103BD00020706172616D65746572730020204D39CB
:103BE0003030204B004C696E656172204164766113
:103BF0006E63650046696C616D656E742072756EEA
:103C00006F75742073656E736F7200204A002020F8
:103C1000473239205720490020204D313439204384
:103C2000203B20556E69747320696E2043656C7368
:103C30006975730A0054656D70657261747572659B
:103C400020556E697473002020473231203B004CB0
:103C5000696E65617220556E6974730045455052F6
:103C60004F4D206461746173697A65206572726F6B
:103C7000722E0A0053746F726564207365747469E0
:103C80006E67732072657472696576656400290ACF
:103C9000002062797465733B206372632000207397
:103CA000746F7265642073657474696E67732072D3
:103CB0006574726965766564202800454550524FE9
:103CC0004D20435243204572726F72002028636179
:103CD0006C63756C6174656429210A0020213D20A4
:103CE00000454550524F4D20435243206D69736D3E
:103CF00061746368202D202873746F7265642920B5
:103D0000002053697A653A2000496E6465783A204C
:103D1000000000FA430000C8430000704100009614
:103D2000420000A0420000A0420000C8430000BEC4
:103D300042E8030000BC020000640000004B0000E9
:103D400000454550524F4D2056657273696F6E2085
:103D50004572726F7200204D61726C696E3D56380B
:103D600037290A00454550524F4D207665727369D8
:103D70006F6E206D69736D617463682028454550CE
:103D8000524F4D3D0024F4D43050C38E20C2A24087
:103D900017828B7011127A910D816CD90AA861E19A
:103DA00008C7586607615143061E4B5D05C145A70C
:103DB000041A411104093D9803713931034036DB7F
:103DC0000265339102D4305402802E1D02632CEE22
:103DD00001752AC501B028A001102781018F256433
:103DE000012B244B01E0223401AC211F018D200D59
:103DF00001801FFC00841EED00971DDF00B81CD25F
:103E000000E61BC600201BBC00641AB200B219A851
:103E1000000A19A0006A189900D117910040178B69
:103E200000B516840031167E00B31579003A15737B
:103E300000C7146F0058146A00EE136600881363FD
:103E40000025135E00C7125B006C12570015125458
:103E500000C111510070114F0021114B00D61049C3
:103E6000008D1047004610440002104200C00F4071
:103E700000800F3E00420F3C00060F3B00CB0E3887
:103E800000930E37005C0E3500270E3400F30D3220
:103E900000C10D3100900D3000600D2E00320D2D4F
:103EA00000050D2C00D90C2B00AE0C2900850C2927
:103EB000005C0C2700350C27000E0C2600E80B24B4
:103EC00000C40B2400A00B23007D0B23005A0B2100
:103ED00000390B2100180B2000F80A1F00D90A1E18
:103EE00000BB0A1E009D0A1D00800A1D00630A1CFB
:103EF00000470A1B002C0A1B00110A1A00F7091AB6
:103F000000DD091900C4091900AB0919009209174D
:103F1000007B091800630917004C091600360916C2
:103F200000200916000A091500F5081500E008141C
:103F300000CC081400B8081400A40814009008135A
:103F4000007D0812006B0813005808120046081282
:103F50000034081100230811001208110001081193
:103F600000F0071000E0071000D0071000C0071095
:103F700000B0070F00A107100091070E0083070F84
:103F80000074070F0065070E0057070E0049070E63
:103F9000003B070D002E070E0020070D0013070D34
:103FA0000006070D00F9060C00ED060D00E0060CFA
:103FB00000D4060C00C8060C00BC060C00B0060CB1
:103FC00000A4060B0099060C008D060B0082060B60
:103FD0000077060B006C060B0061060A0057060B03
:103FE000004C060A0042060A0038060A002E060A9D
:103FF0000024060A001A060A001006090007060A2D
:1040000000FD050900F4050900EB050900E20509BA
:1040100000D9050900D0050900C7050900BE05093A
:1040200000B5050800AD050800A50509009C0508B8
:1040300000940508008C050800840508007C05082C
:1040400000740508006C050700650508005D05079C
:1040500000560508004E0507004705070040050803
:104060000038050700310507002A0507002305076A
:10407000001C050600160507000F050700080506C9
:104080000002050700FB040600F5040700EE040625
:1040900000E8040600E2040700DB040600D504067D
:1040A00000CF040600C9040600C3040600BD0406D0
:1040B00000B7040600B1040500AC040600A604061F
:1040C00000A00405009B040600950405009004066A
:1040D000008A04050085040500800406007A0405B2
:1040E0000075040500700405006B040500660405F6
:1040F00000610405005C0405005704050052040536
:10410000004D04050048040500430405003E040476
:10411000003A04050035040500300404002C0405B1
:104120000027040400230405001E0404001A0404EC
:104130000016040500110404000D04040009040520
:10414000000404040000040400FC030400F8030459
:1041500000F4030400F0030400EC030400E803048B
:1041600000E4030400E0030400DC030400D80304BB
:1041700000D4030400D0030400CC030400C80303EC
:1041800000C503030024F404D9201BC40C5C0E9862
:1041900004C4095F0265077101F405F900FB04B36B
:1041A0000048048700C10369005803550003034514
:1041B00000BE023A008402310053022A002902257F
:1041C0000004022000E4011C00C8011900AF01171F
:1041D00000980114008401130071011000610110A6
:1041E0000051010E0043010D0036010B002B010BA5
:1041F0000020010B00150109000C01090003010852
:1042000000FB000800F3000800EB000700E40006D4
:1042100000DE000600D8000600D2000600CC000533
:1042200000C7000500C2000500BD000400B900047D
:1042300000B5000400B1000400AD000400A90004B2
:1042400000A5000300A20003009F0004009B0003E0
:104250000098000300950002009300030090000303
:10426000008D0002008B000300880002008600021F
:104270000084000300810002007F0002007D000234
:10428000007B000200790002007700010076000246
:10429000007400020072000100710002006F000251
:1042A000006D0001006C0002006A0001006900025C
:1042B0000067000100660001006500010064000263
:1042C000006200010061000100600001005F000267
:1042D000005D0001005C0001005B0001005A00016C
:1042E000005900010058000100570001005600016C
:1042F000005500010054000100530000005300016C
:10430000005200010051000100500001004F000167
:10431000004E0000004E0001004D0001004C000165
:10432000004B0000004B0001004A00010049000161
:10433000004800000048000100470001004600005E
:104340000046000100450000004500010044000156
:104350000043000000430001004200000042000151
:10436000004100000041000100400001003F00004A
:10437000003F0001003E0000003E0001003D000043
:10438000003D0001003C0000003C0000003C00013A
:10439000003B0000003B0001003A0000003A000131
:1043A000003900000039000100380000003800002A
:1043B000003800010037000000370001003600001F
:1043C0000036000000360001003500000035000016
:1043D000003500010034000000340000003400010A
:1043E0000033000000330000003300010032000001
:1043F00000320000003200010031000000310000F6
:1044000000310001003000000030000000300001E9
:10441000002F0000002F0000002F0000002F0001DF
:10442000002E0000002E0000002E0001002D0000D4
:10443000002D0000002D0000002D0001002C0000C8
:10444000002C0000002C0000002C0001002B0000BC
:10445000002B0000002B0000002B0001002A0000B0
:10446000002A0000002A0000002A000100290000A4
:104470000029000000290000002900000029000197
:10448000002800000028000000280000002800008C
:10449000002800010027000000270000002700007E
:1044A0000027000000270001002600000026000071
:1044B0000026000000260000002600010025000064
:1044C0000025000000250000002500000025000058
:1044D000002500010024000000240000002400004A
:1044E000002400000024000100230000002300003D
:1044F0000023000000230000002300000023000030
:104500000023000100220000002200000022000021
:104510000022000000220000002200010021000013
:104520000021000000210000002100000021000007
:1045300000210000002100010020000000200000F8
:1045400000200000002000000020000000200000EB
:104550000020000000200001001F0000001F0000DC
:10456000001F0000001F0000001F0000001F0000CF
:10457000001F0001001E0000001E0000001E0000C1
:10458000001E000000232C0000B822000056180076
:10459000003A0F0000B8080000B1040000710200EA
:1045A000003E01000020436F756E7420583A0042AF
:1045B0006564004531004500626564002C20737914
:1045C0007374656D2073746F707065642120486525
:1045D000617465725F49443A200048656174696E90
:1045E00067204661696C65640048656174696E673F
:1045F000206661696C6564004D3131322053687505
:1046000074646F776E001000AA03F0013A01900203
:10461000220130031001D00302017004F7001005DD
:10462000ED00B005E5005006DD00F006D70090076C
:10463000D1003008CC00D008C7007009C300100AB0
:10464000BE00B00ABB00500BB700F00BB300900CDB
:10465000B000D00DAA00100FA5005010A0009011BE
:104660009B00D0129600B014900090168B0070182A
:104670008500501A8000301C7B00B01E7500302170
:104680006F00B02369003026640010285F00902A74
:104690005A00702C5500F02E4F0070314800B03297
:1046A0004500F0334100703639001037370050387C
:1046B000330090392D00D03A2700B03C1C00503D0B
:1046C0001700F03D1100903E0900D03FE5FF457214
:1046D000723A204D415854454D50004D4158544573
:1046E0004D50207472696767657265640045727227
:1046F0003A204D494E54454D50004D494E54454D7C
:104700005020747269676765726564005448455249
:104710004D414C2052554E415741590054686572E5
:104720006D616C2052756E61776179000A0A002014
:10473000205A5F4D494E3A002020595F4D494E3A6C
:10474000002020585F4D494E3A00202F0020424063
:104750003A0020403A0020573A0020573A00496E6C
:1047600076616C69642065787472756465720A009C
:104770007C3C3E5E2B3D3F2F5B5D3B2C2A225C0048
:1047800043616E6E6F74206F70656E207375626426
:10479000697220004D6564696120496E6974204624
:1047A00061696C0053442063617264206F6B0A007E
:1047B0006F70656E526F6F74206661696C65640A14
:1047C00000766F6C756D652E696E6974206661691F
:1047D0006C65640A004E6F20534420636172640A62
:1047E000000A4D3234004D3233202573002E0A006A
:1047F0006F70656E206661696C65642C2046696C1B
:10480000653A200046696C652073656C6563746564
:10481000640A002053697A653A200046696C652075
:104820006F70656E65643A2000454E4420535542D2
:10483000524F5554494E450A002220706F73002292
:1048400020706172656E743A2200535542524F5582
:1048500054494E452043414C4C2074617267657445
:104860003A220053756263616C6C204F7665726604
:104870006C6F77004578636565646564206D617869
:1048800020535542524F5554494E4520646570742B
:10489000683A002E0A0044656C6574696F6E206684
:1048A00061696C65642C2046696C653A2000466934
:1048B0006C652064656C657465643A0053442070CF
:1048C00072696E74696E67206279746520004E6F3C
:1048D00074205344207072696E74696E670A002FE9
:1048E0006175746F25632E670041425300504C413F
:1048F0000057726974696E6720746F2066696C6511
:104900003A2000667265736800646F696E67002004
:1049100066696C653A20004E6F772000FD5555554D
:1049200055555FFFFFFFFFFFFFFFFFFFFE00000089
:1049300000003FFFFFFFFFFFFFFFFFFFFD0000073D
:10494000FFFFFFFFFFFFFFFFFFFFFFFFFE07C005A9
:1049500055555555555FFFFFFFFFFFFFFC0A200629
:1049600000000000003FFFFFFFFFFFFFFE141005E7
:10497000000007FFFFFFFFFFFFFFFFFFFC28080607
:1049800007C00555555555555FFFFFFFFE540404FC
:104990000A200600000000003FFFFFFFFC60040645
:1049A000141005000007FFFFFFFFFFFFFE50040487
:1049B00028080607C00555555555555FFC60040687
:1049C0005404040A200600000000003FFE54041CAA
:1049D00060040614100500000000001FFC28082ECB
:1049E00050040428080607C00001F03FFE141054CC
:1049F0006004065404040A200002081FFC0A206612
:104A000054041C60040614100005043FFE07C05443
:104A100028082E5004042808000A021FFC00002E5B
:104A200014105460040654040015013FFE00001CDD
:104A30000A206654041C60040018011FFC000006D4
:104A400007C05428082E50040014013FFE00000443
:104A500000002E14105460040018011FFCFFFFFE1C
:104A600000001C0A206654041C15013FFED5555455
:104A700000000607C05428082A0A021FFC841046BA
:104A800000000400002E14105105043FFEC4104421
:104A9000FFFFFE00001C0A206102881FFC841046F4
:104AA000D5555400000607C05101F03FFE84104464
:104AB00084104600000400002A00001FFCC41046B9
:104AC000C41044FFFFFE00001C00003FFE841044A1
:104AD000841046D5555400000000001FFCD55556E3
:104AE00084104484104600000000003FFCFFFFFCDF
:104AF000C41046C41044FFFFFFFFFF9FFE000006E6
:104B0000841044841046D555555555BFFD55555410
:104B1000D5555684104484104104109FFFFFFFFCBC
:104B2000FFFFFCC41046C410410411BFFFFFFFFE8D
:104B300000000684104484104104109FFFFFFFFD15
:104B4000555554D5555684104104109FFFFFFFFF63
:104B5000FFFFFCFFFFFCC410410411BFFFFFFFFF7C
:104B6000FFFFFE00000684104104109FFFFFFFFFBF
:104B7000FFFFFD555554D555555555BFFFFFFFFF58
:104B8000FFFFFFFFFFFCFFFFFFFFFF9FFFFFFFFF98
:104B9000FFFFFFFFFFFE00000000003FFFFFFFFFE1
:104BA000FFFFFFFFFFFD55555555555FFFFFFFFF09
:104BB000FFFFFFFFFFFFFFFFFFFFFFFFFFFFFFFF05
:104BC000FFFFFFFFFFFFFFFFFFFFFFFFFFFFFFFFF5
:104BD000FFFFFFFFFFFFFFFFFFFFFFFFFFFFFFFFE5
:104BE000FFFFFFFFFFFFFFFFFFFFFFFFE02EFB7D4B
:104BF000FBFBCFC1DFBB3EC0E1FE3C1FFDEE7B39BE
:104C0000F9F3CF9EDFBB3EDFDEFCDDE7FDEE3BBB15
:104C1000F9EBD7BF5FBB5EDFDEFDEDF7FDEEBBD38B
:104C2000FAEBB73FDFBB4EDFDFFFCDF3FDEEDBC7B7
:104C3000FAEBBB7FC03B6EC0E3FF1DF3FDEECBEF95
:104C4000FADBBB7FDFBB66DFF8FFCDF3FDEEEBEFFA
:104C5000FB5B033F5FBB76DFFE7FEDF3FDEEF3EF23
:104C6000FB5B79BEDFBB7ADFDE7DEDF7FDEEF3EFB8
:104C7000FBBAFD9EDFBB7CDFDEFDCDE7FDEEFBEF8B
:104C8000FBBAFDC1DFBB7EC0E0FE1C1F6D61726C14
:104C9000696E66772E6F726700322E302E395F4450
:104CA00057372E342E36001FFFFFFFFFFFFF600037
:104CB00000000001FF400000000000FF8000000035
:104CC00000007F83CF00000C303F87FF80000C3056
:104CD0001F867980000C000F8C30C7838C30E78CE6
:104CE00030CFC7CC31F38C30DCECEC33B98C30D81E
:104CF0006C6C33198C30D06C0C33198C30D86C0C34
:104D000033198C30DC6C0E3B198C30CF7C079F192B
:104D10008C30C77C038F1940000000000002600047
:104D200000000000061FFFFFFFFFFFF86001F40115
:104D30007001EA019001E001B001D601D001CC017F
:104D40000002C2013002B8016002AE019002A4016B
:104D5000D0029A012003900170038601C0037C01F8
:104D600030047201A004680120055E01B005540101
:104D700060064A0120074001F0073601F0082C01C7
:104D8000100A2201500B1801C00C0E01500E040134
:104D90003010FA002012F0005014E600C016DC00BB
:104DA0007019D200501CC800501FBE007022B40001
:104DB000B025AA00F028A000202C9600302F8C00EF
:104DC00010328200A0347800F0366E00E0386400C3
:104DD000803A5A00403B5500E03B5000F03C460012
:104DE000C03D3C00603E3200E03E2800303F1E00E7
:104DF000503F1900703F1400A03F0A00C03F000060
:104E0000D03FF6FFE03FECFF2020506C616E6E65F6
:104E10007242756666657242797465733A20002045
:104E200046726565204D656D6F72793A20002043AA
:104E30006F6D70696C65643A204170722032382061
:104E4000323032320A00204C617374205570646134
:104E50007465643A20323032322D30342D303320B4
:104E60007C20417574686F723A2054696E794D6187
:104E70006368696E657333440A004D61726C696ED4
:104E800020322E302E395F4457372E342E360A000A
:104E900020536F6674776172652052657365740A7A
:104EA00000205761746368646F672052657365748E
:104EB0000A002042726F776E206F757420526573FE
:104EC00065740A002045787465726E616C205265C5
:104ED0007365740A00506F77657255700A007374B9
:104EE0006172740A004739310A47315A350A473925
:104EF000300A4D38340A4D31303453300A4D313494
:104F0000305330004D31303031006572726F722095
:104F100077726974696E6720746F2066696C650AC0
:104F200000446F6E6520736176696E672066696CF8
:104F3000652E0A004D323900456E6473746F7073CC
:104F40000025532025632025632025632025630049
:104F5000205A3A0020593A0020583A00656E64738E
:104F6000746F7073206869743A2000000021002477
:104F70000027002A002D003000330001010000044A
:104F80000107010A0100002200250028002B002E45
:104F9000003100340002010000050108010B01008E
:104FA0000020002300260029002C002F00320000E2
:104FB00001000003010601090105050505070508B3
:104FC000080808020202020A0A080804040404018C
:104FD00001010101010101030303030303030304AE
:104FE0000707070C0C0C0C0C0C0C0C02020202063E
:104FF000060606060606060B0B0B0B0B0B0B0B012E
:1050000002102020080810204010204080020102D9
:1050100001080402010102040810204080804020A1
:1050200010080402018004020180402010080402DC
:10503000010804020101020408102040800102045A
:10504000081020408000000A0B02090C0D0E080712
:105050000304010000000000000000000000000048
:105060000000000000000000000000000000000040
:1050700000121110000000000000000000000000FD
:105080000000000000000000000000004D6F766589
:105090002025736D6D004D6F766520302E316D6D5E
:1050A000004D6F766520316D6D004D6F7665203156
:1050B000306D6D004D6F76652041786973004D6FDE
:1050C0007665204578747275646572004D6F7665FB
:1050D000205A004D6F76652059004D6F7665205837
:1050E00000ED48E9484368616E67652046696C6178
:1050F0006D656E7400556E6C6F61642046696C61FD
:105100006D656E74004C6F61642046696C616D65FD
:105110006E74005072656865617420437573746FB6
:105120006D00507265686561742024004261636B94
:10513000005072696E742066726F6D204D656469EF
:10514000610050726F62696E67204661696C6564C8
:105150000A0050726F62696E67204661696C65640F
:1051600000205A3A200020593A2000426564205815
:105170003A2000726573756D6564004469736D69EA
:10518000737300526573756D696E670073686F772E
:1051900000627574746F6E00626567696E004469C1
:1051A0007361626C6552756E6F75740050757267CD
:1051B000654D6F72650050617573656400436F6E75
:1051C00074696E7565004C6F61642046696C616D31
:1051D000656E74205400496E736572742066696C44
:1051E000616D656E7420616E642073656E64204D20
:1051F0003130380A00220A00556E6B6E6F776E20D0
:10520000636F6D6D616E643A202200204200205071
:10521000006F6B00204500205A0020590020204DCF
:105220003932205800537465707320706572207590
:105230006E69740020746F6F206C6F6E67206578E4
:1052400074727573696F6E2070726576656E7465C1
:10525000640A0020636F6C642065787472757369EA
:105260006F6E2070726576656E7465640A00204505
:105270003A00205A3A0020593A00583A006F6B0A17
:1052800000526573656E643A2000353030205375E6
:105290005065522052656164792E005072696E74B7
:1052A000696E672E2E2E005072696E7420506175E3
:1052B000736564006E6F74696669636174696F6EAB
:1052C00020003402AA0011241FBECFEFD1E2DEBFBE
:1052D000CDBF00E00CBF84B78093AC1E14BE0FB6E8
:1052E000F894A89580916000886180936000109286
:1052F00060000FBE14E0A0E0B2E0E4EAF1E103E0F8
:105300000BBF02C007900D92AC32B107D9F72EE166
:10531000ACE2B4E001C01D92AC3AB207E1F719E289
:10532000C2E6D9E200E006C021970109802FFE0104
:105330000F943385C136D10780E00807A9F70F9491
:105340006D710D94C0880C940000FC018491089547
:10535000FC0180810895119800C09091020187FDA1
:105360009095917090930001119A00C000C011981F
:1053700000C09091020186FD90959170909300017C
:10538000119A00C000C0119800C09091020185FDE3
:105390009095917090930001119A00C000C01198EF
:1053A00000C09091020184FD90959170909300014E
:1053B000119A00C000C0119800C09091020183FDB5
:1053C0009095917090930001119A00C000C01198BF
:1053D00000C09091020182FD909591709093000120
:1053E000119A00C000C0119800C09091020181FD87
:1053F0009095917090930001119A00C000C011988F
:1054000000C080910201817080930001119A00C058
:1054100000C0089590E080E00895CF93DF93C0919D
:105420005A0CD0915B0C81E0CE31D105E4F020E044
:1054300030E040E05FE36091560C7091570C809132
:10544000580C9091590C0F943C850F94A8866C1BB6
:105450007D0B77FF03C071956195710981E0633021
:1054600071050CF080E0DF91CF910895CF93DF9329
:10547000DB01F9019C919130C1F0943080F094509F
:105480009C938830D1F480819181009771F00197CD
:1054900091838083480F591FEA01188206C08C351A
:1054A00039F49C5F9C93943041F4DF91CF9108953F
:1054B0008B3339F781E08C93F8CF20813181B901AA
:1054C0006F5F7F4F71836083420F531FEA018883B0
:1054D000808191818F3591056CF7E7CF0F931F93F2
:1054E00081E000919D1C10919E1C20919F1C309189
:1054F000A01C4091991C50919A1C60919B1C70912A
:105500009C1C041715072607370708F480E01F9135
:105510000F91089590E080E008952091DB0583309D
:1055200021F425FD0CC024FD0CC030E0A90102C00F
:10553000559547958A95E2F7CA018170089581E0F3
:10554000089580E008958091FA0584FD0BC0809154
:10555000FC0587FD07C09091FD05937081E019F46B
:1055600080E0089581E00895082E000C990BFC015D
:10557000E754F04BE491EE2391F0F0E0EE0FFF1FC3
:10558000E156F04BA591B4912C918150904BFC01C8
:105590008491282381E090E021F480E0089580E068
:1055A00090E00895082E000C990BFC01E754F04B95
:1055B000E491F0E0EE0FFF1FE559F04BA591B49197
:1055C0002C918150904BFC018491822391E009F44D
:1055D00090E0892F0895CF92DF92EF92FF92CF93C0
:1055E000DF93EC01CC80DD80EE80FF8027E137EB9C
:1055F00041ED58EBC701B6010F949C8787FD23C08E
:1056000023E030E04AEF53E4C701B6010F944A7E2D
:105610001816CCF0C880D980EA80FB8027E137EBF0
:1056200041ED58EBC701B6010F949C8787FD0BC075
:10563000C1E023E030E04FEF53E4C701B6010F941F
:105640004A7E18160CF4C0E08C2FDF91CF91FF90AA
:10565000EF90DF90CF900895BC01990F880B990BC4
:105660000F94517E2091E6063091E7064091E806BE
:105670005091E9060F94B07E2091DE063091DF064E
:105680004091E0065091E1060F943C850895BC01DD
:10569000990F880B990B0F94517E2091E20630915F
:1056A000E3064091E4065091E5060F94B07E209108
:1056B000DA063091DB064091DC065091DD060F944E
:1056C0003C8508952FEB280F2A3108F047C0E22FC0
:1056D000F0E08091FA059091FB05A091FC05B09156
:1056E000FD0504C0B695A795979587952A95D2F79D
:1056F00080FD02C081700895E452FA4FE081EE23EC
:1057000041F18091A20D9091A30DE80FF92FF11DA9
:10571000808190ED980F9A3030F08E3251F4818173
:1057200080538A3098F4F093CC05E093CB0581E068
:1057300008958D3211F08B3249F4818190ED980FEC
:105740009A3088F38E3211F48281EACFF0E0E0E003
:10575000EACF1092CC051092CB05E9CF80E00895F6
:105760000E94622B882341F081E02091CB0530918B
:10577000CC05232B09F480E0089510929C0D8091B4
:10578000890A90918A0AA0918B0AB0918C0A809321
:10579000850A9093860AA093870AB093880A089591
:1057A000E6EAF9E09491981739F0319699E0EC3BEC
:1057B000F907C1F780E0089581E00895269A2E9AAE
:1057C0000895BF92CF92DF92EF92FF920F931F93B3
:1057D000CF93DF936B01E9014A3009F4EAC0453108
:1057E00009F092C0DB011296ED91FC911281C68105
:1057F000D78180910201809582708093000100C062
:10580000000086E290E00197F0F7012F0295007FFB
:1058100020E1B22EB10E88EF0E94AB2900C000003B
:1058200086E290E00197F0F7103208F0ACC0812FCB
:10583000807780680E94AB29802F0E94AB2900C02E
:10584000000086E290E00197F0F780E80E94AB2923
:1058500080E00E94AB2900C0000086E290E0019742
:10586000F0F78AEF0E94AB2900C0000086E290E0CA
:105870000197F0F77E01B0E1EB0EF11C8881807F8B
:105880000E94AB2989918295807F0E94AB29CE1519
:10589000DF05A1F700C0000086E290E00197F0F775
:1058A0001F5F005F1B11B7CF809102018270809350
:1058B0000001D6011296ED91FC9180819281980FA2
:1058C00092832181921708F003C294819F5F948391
:1058D0009381890F821710F08FEF820F83834581A8
:1058E00050E0440F551F70E060E0868197810F946F
:1058F0006C8881E0DF91CF911F910F91FF90EF9025
:10590000DF90CF90BF900895FB0102811381423355
:1059100009F4E0C108F4E8C1463409F4D5C14734BC
:1059200009F4DDC14B3329F789812B81D801129607
:105930006C91129713964C91213009F41AC22330BE
:1059400009F0FBC138EF380F582F91E0431708F4E6
:1059500090E041E0531708F040E031E0561708F4BA
:1059600030E0592F542B352319F4942309F4C1CF77
:10597000FA8030E0F901E654FD4FD0802A543D4FC3
:10598000F901E080F3C180EE810F8068807F0E9482
:10599000AB29812F8295807F0E94AB2900C0000037
:1059A00086E290E00197F0F780E80E94AB2980E85A
:1059B00050CF8091010182608093010180910201AA
:1059C00082708093000180910101816080930101C8
:1059D00080910201817080930001099A119A80914F
:1059E0000201809582708093000100C0000086E271
:1059F00090E00197F0F788E790E0CEE9DFE0FE0164
:105A00003197F1F70197D9F788EF0E94AB2900C0D1
:105A1000000086E290E00197F0F780E20E94AB2957
:105A200080E00E94AB2900C0000086E290E0019770
:105A3000F0F780E00E94AB2980E80E94AB2900C00B
:105A4000000086E290E00197F0F780E00E94AB2929
:105A500080E10E94AB2900C0000086E290E001973F
:105A6000F0F7CE010197F1F7CE010197F1F7CE01E2
:105A70000197F1F7CE010197F1F7CE010197F1F708
:105A8000CE010197F1F7CE010197F1F7CE01019711
:105A9000F1F7CE010197F1F7CE010197F1F7CE01B1
:105AA0000197F1F7CE010197F1F7CE010197F1F7D8
:105AB000CE010197F1F72197F1F780E20E94AB291F
:105AC00080E40E94AB2900C0000086E290E00197CC
:105AD000F0F780E20E94AB2980E60E94AB2900C06B
